:1000000000390020AD48000031D5000081480000D3
:100010008148000081480000814800000000000085
:10002000000000000000000000000000D5410000BA
:10003000814800000000000081410000814800006C
:10004000854200008974000085420000854200005E
:100050008542000085420000854200008542000084
:100060008542000085420000E19F000085420000BB
:100070008542000085420000854200008542000064
:100080008542000085420000854200008542000054
:100090007176000085420000854200008542000024
:1000A0008542000085420000854200008542000034
:1000B0008542000085420000854200008542000024
:1000C0008542000085420000854200008542000014
:1000D0008542000085420000854200008542000004
:1000E00053B94AB9002908BF00281CBF4FF0FF319F
:1000F0004FF0FF3000F00CB8ADF1080C6DE904CE04
:1001000000F004F9DDF804E0DDE9022304B07047F3
:10011000704700BF70B5174C6078002823D10120CC
:10012000607000F061FA6FF0270528B900F072FAEC
:1001300010B900F079FA20B10F486060A57008206E
:1001400010E000F033FA40B900F03AFA28B900F0B4
:1001500041FA10B900F052FA30B10748313060600E
:10016000A5700420E07070BD40F23F11742000F0D3
:1001700055F8000000000020D4060000064A00B533
:1001800092F90320904201DB104600BD00F008F810
:100190000249085600BD000000000020C60600000D
:1001A0000246134810B590F903309A4201DB0D2046
:1001B00010BD90F902309A4201DC002010BD01B15F
:1001C0000121D41A4368185D0A4C24569442F5D094
:1001D000084C08443F34C0B2D2B2A342EED1002949
:1001E000ECD0012A01D0022AE8D1401CC0B210BDD7
:1001F00000000020C6060000BFF34F8F05480168CD
:10020000054A01F4E06111430160BFF34F8F00BF65
:10021000FDE700000CED00E00400FA050EB572B633
:100220000F4A5568D5B1002203466E460A2403E002
:10023000B0FBF4F0521CD2B20028F9D1B05409E05E
:10024000B3FBF4F004FB1030B3FBF4F3521ED2B254
:100250003030B054002AF3D13046A847FFF7CCFF26
:1002600008000020550600008D06000077060000FB
:1002700065060000710600005F06000053060000DE
:1002800051060000890600007D0600006B06000094
:10029000590600004B060000430600004706000018
:1002A0003D060000014909688969084710000020DF
:1002B00001480068006800471000002001480068FD
:1002C0004069004710000020014A1268D2681047B8
:1002D000100000200148006800690047100000205D
:1002E000014A12689268104710000020014909680D
:1002F000496A08471000002030B4034C2468646841
:10030000A44630BC60470000100000202DE9F047F3
:1003100086468C460846089E154674461946002BAC
:1003200040F0C2808542B2FA82F245D94AB1C2F1A8
:10033000200300FA02FC2EFA03F3954043EA0C0C6A
:1003400094404FEA154EA8B2BCFBFEF8230C0EFBFE
:1003500018CC08FB00F943EA0C43994528D9EB185F
:1003600008F1FF3704D2994502D9A8F102072B44BE
:10037000A3EB0903A4B2B3FBFEFC0EFB1C330CFB86
:1003800000F044EA0344A04214D92C190CF1FF33C5
:1003900004D2A04202D9ACF102032C44241A43EA4D
:1003A00007401EB1D440002334607360BDE8F0877D
:1003B0004746DDE76346F1E792BB431B01214FEA65
:1003C000154EAFB2B3FBFEFC200C0EFB1C330CFB36
:1003D00007F840EA0343984562D9EB180CF1FF3067
:1003E00004D2984502D9ACF102002B44A3EB0803D8
:1003F000A4B2B3FBFEFC0EFB1C330CFB07F744EA74
:100400000344A7424ED92C190CF1FF3304D2A74262
:1004100002D9ACF102032C44E41B43EA0040C0E7DC
:10042000C2F1200320FA03F1954090402EFA03F325
:1004300003434FEA154EAFB2B1FBFEFC0EFB1C109E
:10044000190C0CFB07F841EA0041884504FA02F454
:1004500022D969180CF1FF3004D2884502D9ACF1D9
:1004600002002944A1EB08019BB2B1FBFEFC0EFB8C
:100470001C110CFB07F743EA01439F420ED9EB180E
:100480000CF1FF3104D29F4202D9ACF102012B449E
:10049000DB1B41EA004192E76046E3E76146F7E78C
:1004A0006046A3E76346B7E7834206D916B9002141
:1004B00008467BE7C6E900E0F9E7B3FA83F78FB9AE
:1004C000834201D3724508D8BEEB020460EB0303FC
:1004D00001209C461EB9002168E73846FAE7C6E9C4
:1004E000004CF8E7C7F1200CBB4022FA0CF41C4387
:1004F0002EFA0CF120FA0CF3B84001434FEA1449EC
:100500000EFA07F5B3FBF9F81FFA84FE09FB183061
:100510000B0C08FB0EFA43EA00439A4502FA07F275
:1005200040D9E31808F1FF3004D29A4502D9A8F166
:1005300002002344A3EB0A0389B2B3FBF9F809FBD9
:10054000183308FB0EFE41EA03418E452CD9611891
:1005500008F1FF3304D28E4502D9A8F102032144E9
:1005600043EA0040A0FB0298A1EB0E014145CE46B4
:10057000434602D306D14D4504D2B9EB020E68EBD7
:1005800004030138002EA6D0B5EB0E0261EB030187
:1005900001FA0CFC22FA07F34CEA0303F940C6E91E
:1005A000003198E74046C5E74346D9E74FF0805011
:1005B000D0F830010F2801D000207047012070478B
:1005C0004FF08050D0F830010A2801D00020704749
:1005D000012070474FF08050D0F830010E2801D034
:1005E00000207047012070474FF08050D0F8300154
:1005F000102801D000207047012070474FF0805034
:10060000D0F83001062803D0401C01D000207047EC
:10061000012070474FF08050D0F830010D2801D0F4
:1006200000207047012070474FF08050D0F8300113
:10063000082801D000207047012070474FF0FF309C
:10064000704700207047002070474FF0FF30704720
:1006500070477047002070470021017070474FF0CD
:10066000FF3070474FF0FF30704700210170704736
:100670004FF0FF3070474FF0FF3070470078002890
:1006800001D06FF01500704700207047002200F085
:1006900002B8FFF73FBD70B514460D46001B6FF062
:1006A0007F01884201DA084602E07F2800DD7F20D2
:1006B000194640B2FFF762FD28706C70002120449B
:1006C000A97040B270BDD8ECF0F4F8FC000203044D
:1006D0000506070800000000000000000000000000
:1006E00000000000000000000101010102020202FE
:1006F00003030303040404040505050506060708AF
:10070000090A0B0C0D0000000000000000000000B2
:1007100000000000000000000001010101020202CF
:100720000203030303040404040505050506060685
:10073000080900002DE9F84304460568067900AF72
:10074000884628460DF057FC034690B9E94688B024
:1007500029686A464748C2E905014FF40071918350
:10076000454942F8101F45484FF4E25102F046F85F
:10077000CD46E3882068217943F48032D0F810E038
:10078000D0F8089013F0010F4FF0010CDEF80030A4
:100790000CFA01FC14BF4CEA030323EA0C03CEF865
:1007A0000030D9F800309847002815DAE9468AB0B9
:1007B0002B686A463249C2E905134FF400739384EB
:1007C000304BC2E9076042F8103F2C4800234FF439
:1007D000315102F013F8CD46314628460BF034FF74
:1007E000002815DAE9468AB02B686A462649C2E92C
:1007F00005134FF400739384224BC2E9076042F85B
:10080000103F1E4800234FF4315101F0F7FFCD4651
:100810001E4BC8F80430012202FA06F3C8F808306B
:10082000AB68DB6913B141462846984720682179B7
:1008300083684FF0A0729C694FF0C063A047002806
:1008400015DA6C468AB02B686A461149C2E905136D
:100850004FF4007393840B4BC2E9076042F8103FDA
:10086000064800234FF4315101F0C8FFA546BD46AC
:10087000BDE8F883F8EC00000300000190E80000F8
:1008800012ED00000500000140ED000079C60000F7
:1008900075ED000010B501220F4C104811460DF007
:1008A0009CFC21460E48FFF745FF04F10C010D4862
:1008B000FFF740FF04F118010B48FFF73BFF04F17D
:1008C00024010A48FFF736FF094804F13001FFF719
:1008D00031FF012010BD00BF300C00206C0C002047
:1008E000B8E90000B0E90000A8E90000A0E90000B4
:1008F00098E9000010B504460A480BF0B9FE2070D4
:1009000009480BF0B5FE607008480BF0B1FEA0700E
:1009100007480BF0ADFEE07006480BF0A9FE207111
:1009200010BD00BFB8E90000B0E90000A8E9000070
:10093000A0E9000098E9000010B586B0104B0593BF
:1009400002240494002304AA4FF486510D4801F0B8
:1009500055FF00F0F1F80C4BCDE90443002304AA45
:100960004FF48651074801F049FF012000F066F975
:100970004FF4004000210BF087FB00F065F9FCE725
:10098000B9ED0000D0E80000C8ED0000024883681F
:100990003921DB68184700BF08E8000010B403469F
:1009A0000A46034881680C691946234610BC18475B
:1009B00008E8000001480DF01EBB00BF08E8000079
:1009C00013B5002300900193074883681C6844B165
:1009D0006B460F223921A047B0FA80F0400902B0DF
:1009E00010BD6FF05700F7E708E8000090B583B03E
:1009F00000AFFFF7CBFFA0B16C4688B06A460C4B46
:100A0000C2E90530032342F8103F0A4800234FF49F
:100A1000C25101F0F3FE4FF6FF70A5460C37BD46FC
:100A200090BD0F203946FFF7B9FF3888F6E700BFC1
:100A3000DFED0000D8E80000B0B586B000AFFFF7EA
:100A4000A5FF103011D04FF44870FFF7B9FF0446EE
:100A500080B9184B7B6102233B614FF482510346FE
:100A600007F11002144801F0C9FE0024204618378F
:100A7000BD46B0BDFFF7BAFF6D4688B06A460F4B62
:100A8000C2E90530032342F8103F0B4800234FF41E
:100A9000C65101F0B3FEAD46094B7B6102233B61B9
:100AA0000548002307F110024FF4865101F0A6FE1D
:100AB000DCE700BF01EE0000D8E8000013EE000004
:100AC00021EE000090B587B000AF0DF006F8FFF7FB
:100AD0005DFFD8B16C4688B06A46154BC2E9053057
:100AE000032342F8103F002312484FF4C25101F093
:100AF00085FE0022A546134692B2002062F30F0045
:100B00009BB263F31F401C37BD4690BD07F108013F
:100B10002320FFF743FF07F110012420FFF73EFFDA
:100B20000CF0DBFF3B69B7F908205B421BB2E3E73F
:100B3000DFED0000D8E8000010B586B0FFF73AFFFF
:100B400000284ED0364B05930223049335480023EA
:100B500004AA4FF4865101F051FEFFF79BFE0028D6
:100B600044D0314B0593022304932E48002304AA5A
:100B70004FF4865101F042FE00F0E8FA03460028E7
:100B800039D12A4A059202220492264804AA4FF437
:100B9000865101F033FEFFF74FFF88B300F056FA9D
:100BA000034690BB224A0592022204921D4804AAE1
:100BB0004FF4865101F022FE00F094F9044648BB40
:100BC0001C4B0593022304934FF48651034604AA59
:100BD000144801F013FE18480DF0ECFA204606B058
:100BE00010BD212000210BF048FDA7E721200021A6
:100BF0000BF043FDB1E7212000210BF03EFDBBE7E8
:100C0000212000210BF039FDC5E7212000210BF048
:100C100034FDC3E7212000210BF02FFDCCE700BFFE
:100C200043EE0000E0E8000054EE000066EE000035
:100C30007DEE00008AEE0000BC030020014B98709E
:100C4000704700BFD41C0020F0B58BB001AC20462B
:100C50000BF015FD334D2B68002B3BD000220023F9
:100C600028460AF037FDBDF80620C3881344C38028
:100C7000BDF80820038913440381BDF8042083884C
:100C800013440146838028460DF09CFA264EB37823
:100C9000002B35D000F0C6F90446C8B92B68BBB1AB
:100CA000002200231F480AF015FDB2780223051D1B
:100CB0004AB31E4ACDE908321D48234608AA4FF41C
:100CC000865101F09BFD284600F052F900F07EF9B4
:100CD0000BB0F0BD174E184B326803EB021394E8CB
:100CE00007001F1D87E80700194628460DF06AFA1D
:100CF0003368013303F0010348BF5B423360C5E74B
:100D000000F01EFAC8E70D4ACDE90832084823462C
:100D100008AA4FF4865101F071FD284600F0DAF977
:100D2000D6E700BFBC030020D41C002097EE0000D3
:100D3000E0E800009C0C00207C0C0020A3EE0000EA
:100D400070B5154C012384F84A300378012B86B026
:100D50001FD0022B10D1114D114E204607F07CF808
:100D6000012814D1022304AA4FF486513046059578
:100D700004930BF094FCF0E74BB90A4B0593084839
:100D8000022304AA4FF4865104930BF088FC06B0AA
:100D900070BD054BF2E700BF58010020D0EE000007
:100DA000B0E80000AFEE0000C0EE0000B0B586B0C5
:100DB000002000AF05F0E6F880B91B4B7B610223F1
:100DC0001A483B6107F110024FF482516FF005049D
:100DD0000BF065FC20461837BD46B0BD00237B6094
:100DE000FB600123BB6039460BF02EFF041E0FDAB7
:100DF0006D4688B06A460E4B0C48C2E905340323A1
:100E000042F8103F4FF4C2510BF049FCAD46E1E708
:100E1000BB689B07FCD1FC68002CDBD06D4688B01A
:100E20006A46044BE8E700BFE0EE0000B0E80000CF
:100E300000EF000019EF000030B54FF0E73291B03D
:100E40004FF0C233CDE901231E4A1F4D106851688F
:100E500003AB03C31C460FCD0FC42B6823600123D3
:100E60008DF81D30194B069305A840F20113ADF81B
:100E7000263006F01DFE044660B1154B0F93154851
:100E800002230EAA4FF482510E930BF008FC204669
:100E900011B030BD01A807F04BF8044608B10E4B65
:100EA000ECE702A807F066F8044608B10B4BE5E74B
:100EB000082103A807F080F804460028E7D0084B73
:100EC000DCE700BFA6EF000070E90000410D000064
:100ED00038EF0000B0E800004FEF00006CEF0000BA
:100EE00089EF0000F0B587B06E4600AF1B4B1C4881
:100EF0007B61022507F110024FF486513D610BF032
:100F0000CEFBFFF753FF88B9FFF796FF044698B171
:100F100088B06A46134BC2E90530032342F8103FFC
:100F20000F484FF4C2510BF0BAFBB5464FF0FF34F7
:100F300020461C37BD46F0BD0B4B0948C7E904539A
:100F400007F110024FF486510BF0A9FB074B012269
:100F500083F84A2083F82840EAE700BFAFEF00009B
:100F6000B0E80000CFEF0000E7EF000058010020DC
:100F7000002330B5421D1C46012112F8015F1DB14E
:100F800001FA03F52C43E4B20133052BF5D10E49E8
:100F9000B0F902200379B0F9045081F82A400088A2
:100FA00081F82C20C2F3032242EA031281F82D209B
:100FB0001B09C5F3072243EA021381F82B0081F8CD
:100FC0002E30002030BD00BF5801002098B5124CD3
:100FD00094F84A3000AF1BB94FF0FF30BD4698BDC2
:100FE000002384F84A3006F087FF04F1250006F05C
:100FF0008DFE0028F2D06C4688B06A46074BC2E9E5
:101000000530032342F8103F05484FF4C2510BF05E
:1010100046FBA546E0E700BF58010020FFEF0000B7
:10102000B0E80000024B93F84A0080F001007047DE
:1010300058010020014B00221A707047FA1C002052
:10104000014B1871704700BFA00C002010B586B08E
:101050001848194C09F0DAFF0346206070B9174AA6
:10106000059202220492164804AA4FF482516FF0AE
:10107000120401F0C3FB204606B010BD114B12490B
:101080003E2203F029FF20680CF0C0FA044658B154
:101090000E4B0593022304930948002304AA4FF43E
:1010A000825101F0ABFBE6E7094806B0BDE810400D
:1010B00002F048BC28F00000A00C00202EF0000038
:1010C00028E90000C0E9000070F000004FF00000C7
:1010D00041100000002370B5421D1D46012112F889
:1010E000014F1CB101FA03F42543EDB20133052B86
:1010F000F5D11049B0F9022003794D7001240C702C
:10110000B0F904600088CA70C2F3032242EA0312F5
:1011100088700A710848C6F307221B0943EA0213C4
:101120004B7100680023062203F0ECFE08B9034B64
:101130001C7070BDFB1C0020A00C0020FA1C0020BD
:10114000014B1878704700BFFA1C00207FB50B4890
:101150000CF051FF034670B9094A0592022204922D
:10116000084804AA4FF4825101F048FB4FF0FF30C9
:1011700007B05DF804FB0020FAE700BFD8E70000E5
:10118000AEF0000058E9000037B5074CA5683921DA
:10119000EB682046984722212B696A4620469847EB
:1011A0000098404203B030BDD8E700002DE9F04F71
:1011B00091B08407009302F004030293C2F3C203C8
:1011C00003F10103DDF86880039205460E4605939E
:1011D00040F0BE81041D30B1072909D86FF01B0013
:1011E00011B0BDE8F08F01F00706341DC6F1080606
:1011F000009B4FF00009591E4FF0040A4FF0FF33D7
:101200000193CDF810904F46CB4653460DB1009A4E
:1012100022600598002800F3EB809A48009A8242E9
:1012200003D399488242C0F0E380039AA4EB050EF1
:1012300092074FEA9E0000F106810F2F00F2B48062
:10124000002D00F0088107F140020DEB020C019A1D
:101250000CF8200C0CF8102C049801300490EAE0F3
:101260007A2860D84B280ED847285CD829282FD850
:10127000252855D057D820287DD02338D0F1000B11
:101280004BEB000B77E0A0F14C0CBCF12E0F4AD8D1
:10129000DFE80CF0714949494949494949494949F7
:1012A0004C49494949494949495A494C4C5A5A5A61
:1012B000714C6E497149184C18494983804C494911
:1012C0004C49800000204FF0000B4FF0040A39E039
:1012D000A0F12A0C5FFA8CFC012202FA0CFC1CEA39
:1012E0000E0F48D11CF062502ED11CEA020B42D0E6
:1012F000013C5444CAF1000C04EA0C04002D61D0F6
:10130000A3EB050CA444B4453FF668AF002868D1B0
:10131000042B47D158F8043B2360043404232AE00B
:10132000019A013A01924FF0000B24E011F8010CF0
:101330006C2834D111F8023C00206C2B8346C4D1B8
:101340004FF0080A5346D3E708F1070828F00708CA
:101350000734F8E802AB24F0070435B106982044BE
:10136000B0423FF63BAFC4E900AB08344FF0000B8E
:101370004FF0080A534611F8010F002878D0BBF14E
:10138000000F7FF46DAF2528F5D1019B0133019348
:101390004FF0010B4FF0040AECE7584693E70020AA
:1013A0008346A5E7082B02D06FF0150018E708F177
:1013B000070828F00708F8E80223C4E900230834E6
:1013C0000823D8E768B9042B02D108F10408A4E780
:1013D000082BE9D108F1070828F0070808F10808E8
:1013E000EDE7059A013A059258F8042B00920DE7B3
:1013F000039A900720D5A4EB050E4FEA9E004FF00C
:10140000010CBEF5007FCFD20F2FCDD8F5B107F17B
:1014100040020DEB020EC0B2019A0EF8200C0EF83D
:10142000102CBCF1000F3FF417AF60F07F000EF8F6
:10143000200C09F101090137C5F1080204340692B4
:101440004FF6DA7E97E74FF0000CDAE7BCF1000FB9
:1014500001D00136EFE7029802360028EBD1009860
:10146000CDE906310CF078F8DDE906310644E2E713
:10147000631BB3F5806F97D245B9A6F10804E01855
:10148000AEE600BFE8E600006C140100029A286096
:101490009B082B709DF81030C2B1EB7085F802905C
:1014A000B9F1000F05D008A80022C5F1010C974240
:1014B0000ED1C5F101030DF120084FF0000A019390
:1014C0000DF1300B574512D1601B89E66B70E5E7D3
:1014D00010F8013B190608D504EB0C0EB64503F0D5
:1014E0007F033FF67BAE04F8013B0132DFE7B9F141
:1014F000000F03D098F90020002A17DB029BD3B11C
:101500001AF80B2004F8012B0022019B98182044A4
:10151000B0423FF663AE98F8000004F8010B009962
:10152000039220460CF034F8039A14440AF1010A9D
:1015300008F10108C6E798F8002055F8223000931A
:10154000029B45F8223000980CF006F8421CDCE7BC
:101550006FF00D0044E600BF2DE9F04F95B000AFED
:101560000446D7F878B0BB61CBF3C0037A623B6125
:10157000396251B903784678807800EB83002044C3
:101580003B6A9E421AD8031B3B6294F802A0E378A0
:101590007B615646BAF1000F02D01BF0010F17D144
:1015A0007B695BBB7B6A1BB1BA69396A2046984785
:1015B0003D6A28465437BD46BDE8F08F451C284695
:1015C0000BF0CAFF3B6A0130013328443B62D7E786
:1015D00094F800806368FB617B6A4FEA8802FA60D6
:1015E00004EB8808002B40F001813D6AC1460AEBFC
:1015F000080300264B454ED1D04413E01BF0020FE8
:10160000D0D094F800804FEA8803FB606368FB61E8
:101610007B6A04EB8808002B78D13D6ABAF1000F91
:101620004ED156461BF0050F0CBF022301237B62EF
:101630007B6908EB430A0BF002033B62D045B8D04C
:1016400018F8021B18F8013C54F82390AC4B99454C
:1016500002D3AC4B994539D33B69002B43D0F86991
:101660000BF051F800283ED0E9468AB06A46A64BF6
:101670005361FB69C2E906314FF400731384A34B35
:1016800042F8103FA24800234FF4125101F0B6F87F
:10169000023DCD46D2E719F8012B7B6254F82200B7
:1016A0000BF05AFFFA6F7B6A01303AB1D7F880200D
:1016B00096423EBFFA6F22F816000136054499E7BC
:1016C0001BF004061CBF7E6AD044ABE73B6923B124
:1016D000F8690BF018F80028C6D11BF0010F05D1EE
:1016E0007B6AED1AAAE73B6A002BA7D048460BF0AD
:1016F00033FFFB6F43B1D7F880309E423FBFFA6F94
:10170000431C22F816300136054497E7BAF1000F62
:1017100071D01BF0040671D0D146002607F14000BD
:10172000524641460BF034FF7B695B00BB607B692E
:10173000D04408EB43037B610BF002037B607B69C1
:1017400098455DD12378FB6163781BF0020F06EBAF
:1017500003020CBF4FEA590100211BF0010FD2B266
:1017600040F09D801BF0040F14BF4846002094F801
:1017700002B094F803803B616270A070E170BA69B6
:10178000F9687B6A20469847051EFFF612AFFB6991
:1017900023703B69637084F80380BA697B6A84F8BC
:1017A00002B0494607F140009847B0F10008C0F286
:1017B000A3803B6ABA697869A3EB0A01FB68C91A7E
:1017C000BB68C91A7B6A98470028C0F29780A84472
:1017D00008EB00054FF0000B07F1300AB34560D36A
:1017E0000021BA697B6A08469847E2E64FF0000993
:1017F00007F1300094E75646D14695E7B14693E7A6
:1018000018F8021B3E4A18F8015C54F82530934240
:1018100002D33C4A93421CD33B6923B1F8690AF0D6
:1018200072FF00288BD17B68F3B909F1280207F118
:101830002800024409F1010302F8101C07F15002CC
:1018400052FA83F309F102095FFA89F903F8105C8F
:1018500075E73B692BB1F8690AF055FF00287FF462
:101860006EAF1BF0010F09D006F1280207F1280125
:10187000731C561806F8205CDEB260E71BF0040FFC
:101880003FF45DAF09F1280207F1280109F10103D6
:1018900002EB010909F8105C5FFA83F94FE70020B9
:1018A00065E71BF80A3087F82F3054F82390FB6F58
:1018B000FBB133F81B80BA697B6A012107F12F0065
:1018C000984700281ADB0544B8F1000F06D14846B6
:1018D0000BF042FE00F101081FFA88F8BA697B6A32
:1018E000414648469847002808DB05440BF1010BA8
:1018F00074E7D7F87C80DEE745465AE6054658E6A9
:10190000E8E600006C140100C4F0000004000001CF
:1019100098E80000014B1860704700BF14000020D9
:1019200030B587B00025CDE903010446009503A931
:101930000548059500F018F9DDE904309842B8BF74
:10194000255407B030BD00BF55C700002DE9F04752
:10195000058B04462807904611D4022905F0070597
:1019600040F0CD8020460BF00CF978B10138218B86
:10197000042811D8DFE800F0C3106D859500012917
:101980000CBF45F0100545F02005258388F311882C
:10199000BFF36F8FBDE8F08701F0070AAA4500F09A
:1019A000A6800027B9463E46A368002B00F0BD8004
:1019B00041F00801218388F31188BFF36F8FA1687C
:1019C000002900F0BB800D68002900F0B780D1F835
:1019D0000480334652462046C047002D76D02B68FF
:1019E00029461D46F0E701F007035A1F012A1BD8BC
:1019F000002221F00701062B276889B2C4E90022E2
:101A000009D13B4603E0628B013262831B68002BE5
:101A1000F9D141F00201218320460BF0B2F80028F1
:101A20007BD041F0200177E0042B0AD121F007019F
:101A300089B2218320460BF0A4F810B141F02001B7
:101A40002183218B01F0070AAA4550D00027B9460F
:101A5000AAE7236921F0070141F00601062DD3F81A
:101A6000009021832DD1B9F1000F40D041F0080141
:101A7000218388F31188BFF36F8F3A492046C84706
:101A800029E021F00701236941F0040189B2042D06
:101A9000D3F804902183E6D000273E464FF0040A95
:101AA00082E721F00701236941F0050189B2052D84
:101AB000D3F808902183D6D000273E464FF0050A80
:101AC00072E700273E464FF0060A6DE72B4687E790
:101AD000B9F1000FD1D14FF04003EFF3118883F338
:101AE0001288BFF36F8F238B23F008032383258B8A
:101AF000EA062ED525F01003238305F00705666955
:101B0000218B002EBFF66FAF00232768C4E9003396
:101B100021F0070141F001012183218B01F0070A27
:101B2000AA454FF000097FF43FAF002F9BD041F052
:101B30000801218388F31188BFF36F8F002FC7D06E
:101B40003D6839463346524620460BF046F82F464C
:101B5000F4E7AB067FF51AAF25F02003238305F0E9
:101B60000705FFE607CC00002DE9F04F814695B050
:101B70008B4617461C460025387808B9284658E396
:101B80007B1C2528039306D05946C8470028C0F27D
:101B900050830135FBE1182200210EA80BF003FD54
:101BA0007B78252B7DD00023781C98469E469C464A
:101BB0001E46014610F8012B2B2A00F0A18000F2EE
:101BC0009880202A00F09F80232A00F09F802BB16C
:101BD0009DF8403043F040038DF84030B8F1000FDD
:101BE00005D09DF8403043F020038DF84030BEF121
:101BF000000F05D09DF8403043F010038DF84030C1
:101C0000BCF1000F05D09DF8403043F008038DF87B
:101C100040302EB19DF8403043F004038DF8403041
:101C20009DF8403003F04400442803D16FF386133D
:101C30008DF840309DF840302A2A43F080038DF81B
:101C400040307FD19DF8412042F001024B1C8DF8BD
:101C500041201A782E2A9DF841200CBF0121002135
:101C600061F341028DF8412078D15A782A2A6ED04A
:101C7000013300224FF00A0C194611F8010BA0F1B4
:101C80003006092E40F295809DF840101292C1F363
:101C9000400040EAD2700A4660F341028DF84020CD
:101CA0005CE0BA1C03928DF843309DF84130DA07AE
:101CB00040F12E8154F8048BB8F1000F07DA9DF83B
:101CC000402042F004028DF84020C8F100085E0771
:101CD00040F1278154F804ABBAF1000F80F226815D
:101CE0009DF841306FF341038DF841304FF0FF3ADA
:101CF0001CE12D2A0DD0302A7FF469AF012358E76B
:101D00004FF0010C55E74FF0010E52E74FF001087C
:101D10004FE701264DE70EFB0262303A03461846B4
:101D200010F8016BA6F1300CBCF1090FF3D9994200
:101D30008FD09DF840101192D20F62F341018DF8BF
:101D4000401086E70B4600224FF00A0EE7E79DF8A9
:101D5000412042F004028DF8412002331A786C2AA7
:101D600047D02BD8682A31D06A2A4BD04C2A51D080
:101D70001A4612F8013B0392782B9DF841208DF80A
:101D8000433000F2BE806D2B51D8692B00F2B98030
:101D9000572B67D8412B03D0453B022B00F2B18073
:101DA0009DF84230042262F302038DF84230012391
:101DB00073E00CFB0202303A0B465DE7742A25D033
:101DC0007A2AD5D19DF8412006210CE05A78682A5C
:101DD0009DF8412006D1012161F3C6028DF8412012
:101DE0000233C5E7022161F3C6028DF841200133B9
:101DF000BEE75A786C2A9DF8412001D10421EBE717
:101E00000321F0E79DF841200521ECE79DF84120F2
:101E10000721E8E7BDF8402022F4F04222F0020258
:101E200042F4804242F00202ADF84020DFE76E3B10
:101E3000D9B201238B4040F282410B4237D113F0DB
:101E4000240F51D1D8075CD59DF84230032161F3AE
:101E500002038DF8423002F07803A3F140014B42B7
:101E60004B411AE0A3F15801C9B2012000FA01F177
:101E700011F4624F94D140F6010631421DD111F4A4
:101E8000043F3ED09DF8423060F3020302F0780236
:101E9000402A8DF8423034D000239DF84020C2F310
:101EA00040010B4363F341028DF84020FDE69DF8AD
:101EB0004230022161F30203E8E79DF8421002205C
:101EC00002F0780260F30201402A8DF8421002BF4E
:101ED0009DF8401041F001018DF84010632BDBD1DB
:101EE000131E18BF0123D8E79DF84230032161F388
:101EF000020312F0780F8DF8423014BF0123002343
:101F0000CBE79DF8403043F001038DF84030C3E744
:101F10009DF94020002AB4BFDDF844804FF0FF381F
:101F2000D5E698077FF5E2AEDDF848A09DF84110B0
:101F30000023CDE911339DF8423003F00703012B54
:101F4000C1F3C30133D1CB1E042B04D8DFE803F067
:101F5000214646212100236801294FEAE372CDE999
:101F60000E321CD19DF93830DA17CDE90E32043427
:101F70009DF8403013F0030650D0039B3A46594673
:101F800048460AF05EFF0028C0F253810544039FD3
:101F9000F2E554F8043BDA17CDE90E32E8E70229FE
:101FA000E5D11AB243F3C033CDE90E23DFE7022BAC
:101FB00024D1CB1E042B04D8DFE803F0181010182E
:101FC0001800012954F8043B4FF0000214D00229F4
:101FD000CDE90E32CCD19BB20E93C9E7073424F081
:101FE0000704F4E80223CDE90E23C1E754F8043BCB
:101FF0000E9300230F93BBE7DBB2CDE7042B08D190
:10200000073424F00704D4E900230834CDE90E2373
:10201000AEE7032BACD154F8043BDDE79DF8430059
:102020007828B4D862281CD825283FF4ADAD5828AC
:10203000ADD10DF136030093DDE90E0108AB10AA16
:102040000AF0B9FEBAF1000F074680F29A80002F1D
:102050009DD00DF13603D81B002E00F0C180013059
:10206000BEE06338152892D801A252F820F000BFD4
:1020700045210000572100008F1F00008F1F000026
:102080008F1F00008F1F0000572100008F1F0000CE
:102090008F1F00008F1F00008F1F0000E521000030
:1020A0007D210000A32100008F1F00008F1F000072
:1020B000C92000008F1F00007D2100008F1F00003D
:1020C0008F1F00007D210000BAF1000F0E9F35DB4D
:1020D000514638460BF047FA07EB000A002F3FF451
:1020E00056AF00269DF8423013F01002059200F022
:1020F000938002305B06119A48BF129B04921044F1
:1021000048BFC018B8F1000F40F3A0809DF84020F0
:10211000A8EB0008C2F380035007069300F19680F5
:10212000510640F189803EB159463046C8470028E3
:102130007FDB069B01351E4630227EE038460BF0E1
:102140000BFAC9E70E9B8DF82030002608AF0DF181
:10215000210A0120C6E719075CBFC3F300135E0123
:10216000DDE90E2348BF2B26002BBFF662AF52429B
:1021700063EB4303CDE90E232D265AE7002658E7EB
:1021800000269DF840200DF13603DB1B6FF386120D
:102190009A458DF840207FF65AAFAAEB03031193BE
:1021A00055E70E9890B30DF13603009310AA08ABD3
:1021B00000210AF000FEBDF8423003F0EF0343F4C3
:1021C000F04343F01003BAF1000F0746ADF8423078
:1021D000D6DA00283FF4DBAE0DF13603181A0026DC
:1021E0009A467FE70E9B07293FF6D1AEDFE801F064
:1021F0000C04060C08080C0C1D70C8E61D80C6E611
:10220000EA17C3E90052C2E61D60C0E62E4F06463B
:1022100007F1050A052065E71A0748BF013069E79D
:102220000793104606925946C8470028DDE9062361
:1022300004DA15B0BDE8F08F202243461946002984
:1022400003F1FF33ECDC45446D1A98462EB1594634
:102250003046C8470028ECDB01359DF84230DA06ED
:1022600001D41B0705D559463020C8470028E0DBBC
:102270000135059B33B19DF843005946C8470028F6
:10228000D7DB0135049E2E4405E059463020C8476F
:102290000028CEDB0135731B002BF6DC53463A4693
:1022A000594648460AF0CDFD0028C2DB0544A84443
:1022B000A8EB0503002B7FF76AAE59462020C847DC
:1022C0000028B6DB0135F3E778F1000006F04ABEDE
:1022D0002DE9F047DFF85880044607464FF0010922
:1022E00014B93846BDE8F08794FAA4F5B5FA85F537
:1022F00009FA05F32E0108EB05156FEA030A24EA33
:1023000003042B7B002BEBD058F806301B694BB92C
:102310004644042273682846196807EA0A0700F051
:1023200059FADDE7284698470028D9D1F0E700BFE1
:1023300060E9000030B51049104889B000220CF067
:102340002BF90F4D0F4900220023CDE9062300246D
:102350000E23CDE90334CDE901440B4B00944FF437
:102360004072284609F05CF8084928460BF097FEB1
:10237000204609B030BD00BF9123000010090020A5
:102380008804002000240020812600007EF1000047
:10239000014809F0D3B900BFAC0300202DE9F04794
:1023A00080461F480F460AF0CCFF0646002830D072
:1023B00000252846BDE8F087237B73B12368DB68DE
:1023C0000BB12046984723681B69D3B96368042280
:1023D0001968204600F0FEF9013610344C45EBD365
:1023E000B8F1000FE5D0002DE2D02846FFF770FFCE
:1023F0000546002FF7D000214FF4A47009F044FEE9
:10240000F1E7204698470028E0D00AFA06F31D437A
:10241000E2E7044CDFF8109005464FF0010ADDE7D3
:10242000B80C002060E9000070E90000014B53F88F
:1024300020007047E8E9000008B5034608462BB1C4
:10244000044A136000F078FC002008BD6FF015000E
:10245000FBE700BF1800002010B5044C237813B927
:10246000034809F06BF90123237010BD011D002002
:10247000AC03002010B5044608480AF062FF5CB1C6
:10248000BFF35B8F064B53E8001F013943E800128E
:10249000002AF8D1BFF35B8F10BD00BFB00C002045
:1024A000B40C00200020064BBFF35B8F014653E8BD
:1024B000000F43E80012002AF9D1BFF35B8F704789
:1024C000B00C002070B5FFF7EDFF084C084E054634
:1024D000B44200D370BD63685B792BB123685B683D
:1024E00013B12946204698471034F1E760E900000F
:1024F00070E9000010B5044C044920460AF0B2FD12
:10250000034B1C6010BD00BFF4020020D4E90000A2
:10251000A80C0020084A094808B500231370084A8F
:102520001360084A4FF400411360FFF785FFBDE8D0
:102530000840FFF7DFBF00BF021D00203FD30000AF
:10254000B00C0020B40C00200146002201480023FA
:102550000AF0A9BDF402002001480AF042BE00BF03
:10256000F4020020024B014618680AF08CBE00BF3E
:10257000A80C002001480AF0C2BE00BFF4020020EF
:1025800070B5284B187800284BD0FFF7E5FF0546BB
:1025900090B1BFF35B8F244B53E8001F013943E830
:1025A0000012002AF8D1BFF35B8F204C204EB442BA
:1025B0002DD32846FFF7D6FF1E4B1F4C1B68002B60
:1025C00019DD0BF0C1FF4FF47A72A0FB020302FB8E
:1025D0000131C30BD4E9002043EA41439B1A4FEA7F
:1025E000D13140F2E93261EB0001934271F1000117
:1025F00001D3FFF767FFD4E9003213F57A7342F194
:102600000002C4E90032BDE87040FFF7B3BF636861
:102610005B7923B1236829461B682046984710340C
:10262000C5E770BD011D0020B40C002060E900006A
:1026300070E90000B00C00200809002070B50D4DB5
:10264000297861B90120FFF7A9FE0B4C0B4EB4426B
:1026500006D3FFF795FF0028FBD101232B7070BD37
:1026600063685B791BB1236820469B6898471034E8
:10267000EDE700BF021D002060E9000070E90000E6
:1026800000212DE9F0470846FFF788FE044648B3CD
:1026900040F267684FF0000909F02AFD1A4B1860F4
:1026A00030B11A4B1B68092B02DD194809F046F8B6
:1026B000184FDFF85CA0002544B12046FFF708FE64
:1026C000044618B94FF0FF384FF0FF39FFF758FFB5
:1026D000064628B9B5B942464B46504609F04EF871
:1026E0003546E9E74FF0FF384FF0FF39D4E72B6864
:1026F0009B691BB100221146284698471035BD4200
:10270000F5D3E8E7044DFAE7AC0C0020B40C002048
:10271000AC03002070E9000060E9000013B5184820
:102720000AF00FFE174B1B787BB14FF04003EFF31D
:10273000118483F31288BFF36F8FFFF721FF84F3B7
:102740001188BFF36F8F02B010BD0F4B1B68002BB9
:10275000F9D050B900220023CDE900230B484FF4F3
:102760000042002309F008FFEDE70A28EBD10748F3
:102770000BF01EFF064802B0BDE8104008F0DEBFB7
:10278000B40C0020021D0020AC0C00201009002019
:10279000AC03002010B5064B1B6804469847214641
:1027A000A06004480AF0FDFCBDE81040FFF7B6BF8A
:1027B00018000020F4020020044A054B9B1AB1EBDC
:1027C000D30F34BF52F831000020704758E80000A2
:1027D00060E90000084BC31A10B41B1144680133B0
:1027E000237143689A7143681960436801225A71E2
:1027F00010BCFFF731BE00BF60E900002DE9F04FCB
:102800008FB004AFC1F34A28B8600D4691467B6093
:102810000C0DB8F1000F63D0002607F114034FF040
:10282000040B4FF00A0AC7F80C80C7E907667E62FE
:102830000193CDF808B0CDF800A007F11C03F968AA
:1028400032464846FEF788FEB0F5006F03461CD3BB
:102850006C468AB0D9F8041004AB2648C3E90501D8
:1028600040F2FF71D9611A464FF400711984224B6E
:1028700042F8103F214833464FF41251FFF7BEFF94
:10288000A5462C37BD46BDE8F08FC0F30A0804F119
:102890001700184420F0070080083B60FFF754FE43
:1028A00068F35325044690B13B68154AC7E90836DA
:1028B00000F1100107F11403F961CDE900A3CDF88F
:1028C00008B0F96807F11C034846FEF745FE68F3B7
:1028D00053257B68B9682A4620460AF068FDD0E790
:1028E00004F1170020F007008008FFF72DFE0446D2
:1028F000EDE700BF93F1000004000001C0E8000014
:1029000083D300002DE9F04F87B0DDE91269DDE9DE
:10291000105A04460F4693469846A6B31021CDF8A8
:102920000090334652460020CDF81490FEF73EFC4E
:10293000014605F117000844144B039104F0070405
:102940000BF0070BE40020F0070003EA412344EA00
:102950008B1480081C43FFF7F7FD44EA0554054635
:1029600040B13EB10399CDF8009033465246103045
:10297000FEF71CFC434622463946284607B0BDE810
:10298000F04F0AF014BD3146D3E700BF00FE0F0040
:102990000EB403B503AB014653F8042B044801936E
:1029A0000AF02BFD02B05DF804EB03B0704700BFE6
:1029B00023D40000CA0605D48B064CBF0249034944
:1029C000FFF7E6BF704700BFD3F10000D2F100006F
:1029D0002DE9F04F89B09B469DF848300493DDE91E
:1029E00013930593049B0692DDE9157604460D4684
:1029F000002B00F0878006F0080307930AF0BFFC65
:102A000006F0020A024600284BD086492046FFF70E
:102A1000BFFF8046BAF1000F08D016F0440F42D134
:102A200081492A462046FFF7B3FF804406F00103A0
:102A30005BB17E4B049A7E4953F822207D4B2046A1
:102A4000002A08BF1A46FFF7A3FF06F00803002B71
:102A500055D0794B049A794953F822202046FFF744
:102A600097FF0546069B2BB175491A462046FFF78E
:102A70008FFF0544BBF1000F05D072495A4620462E
:102A8000FFF786FF05444544B9F1000F49D1002FF7
:102A90004FD1F30700F1C08031462046FFF78AFF8F
:102AA000B4E08046B6E7684B18680028BDD0674B95
:102AB0004FF47A7E1B68B5FBF3F54FF46162B5FB0A
:102AC000F0F300FB1355B3FBF2FA0EFB05F502FB26
:102AD0001A323C21B5FBF0FCB2FBF1F300FB1C55B4
:102AE00001FB13220EFB05F50092B5FBF0F55849EA
:102AF000CDE901C552462046FFF74AFF95E706F0AB
:102B00000805AFE7BBF1010F06D1B9F1000F64D1A1
:102B1000002F7BD000250CE0B9F1000FF8D04D4814
:102B20005CE04D484D494B46224609F0BBFD002F65
:102B300068D0DFF82C91DFF82CA1102F3146204609
:102B4000B84628BF4FF01008FFF734FF4FF0000BD6
:102B50005D4545DC059B51461A782046FFF718FF76
:102B60004FF0010B1BF0070F03D149462046FFF73A
:102B70000FFFD8453BD9059B514613F80B20204643
:102B8000FFF706FF0BF1010BBBF1100FEAD136493D
:102B900020464FF0000BFFF7FBFE5A46059B9A5C60
:102BA000A2F120015F2928BF2E2230492046FFF7DD
:102BB000EFFE0BF1010BBBF1100F1DD01BF0070F47
:102BC00003D149462046FFF7E3FED8455A46E5D8EB
:102BD00049462046FFF7DCFEEBE71F48049DA1E7CE
:102BE00049462046FFF7D4FE0BF1010BB0E7204920
:102BF0002046FFF7CDFEC5E7059BB7EB080743442A
:102C000005939AD1049B002B7FF443AF204609B073
:102C1000BDE8F04F0AF0F8BB064A05492046FFF729
:102C2000B7FE39E7DAF10000DEF10000F8E9000054
:102C300021FD0000D5F100000CEA000003F20000C5
:102C400009F200000DF20000C00C0020BC0C0020B6
:102C5000E7F1000059D4000023D40000FBD30000AA
:102C60001AF2000012F200001CF200001EF2000036
:102C700018F200002DE9F0410F884B688E6886B08D
:102C800005460C469046C7F382175BB1134A9B1A60
:102C900043F3CF0100291FDB2078C0F3C200FFF708
:102CA0008BFD03462146608851F8102B0097C2F334
:102CB0004A22002A01EB0204C0F30B1008BF0021D6
:102CC000CDE90308CDE90114002231462846FFF77B
:102CD0007FFE06B0BDE8F0810023E3E758E800007E
:102CE00073B542F20F738B4228BF0B4605680F4A3B
:102CF00004460521684609F04DFD63680C495B6890
:102D000006460B2228460AF06BFB6368324669468A
:102D100028465B680AF064FB636806495B681B220F
:102D200028460AF05DFB02B070BD00BF16EF000040
:102D30003DF2000021F20000074A002101239042E9
:102D400006D8064A01B901231360054B1860704785
:102D500040085B000121F2E740420F00BC0C00205C
:102D6000C00C0020014B01221A707047031D002087
:102D7000014B002019607047D80C0020024B03481B
:102D800001221A700AF040BB041D00203CEA00003A
:102D90000148FFF7A5BF00BF3CEA000010B5064B95
:102DA00018680C46FFF742FB21460346BDE8104079
:102DB00002480F22184700BFD80C00203CEA000050
:102DC00010B9074B18707047064B1B781BB141F2C6
:102DD00088300BF0BBBBA420002109F055B900BF1F
:102DE000031D0020041D00202DE9F843DFF8749036
:102DF0001D4F80460E46042499F8005095B908F0FE
:102E0000F5F828463246414608F072F8054608F0C3
:102E1000F7F8E5B101233B7099F8003073B93046FB
:102E2000BDE8F88332464146002008F061F80546C7
:102E3000EFE72046FFF7C4FF651E2C46002008F090
:102E4000CBF80028EBD03B78002BF2D1E7E73B78BA
:102E5000002BE4D0013C2046FFF7B2FF3B78002B6B
:102E6000CAD1DCE7041D0020031D00202DE9F84332
:102E700005464FF04003EFF3118683F31288BFF34A
:102E80006F8F0E4B0E4F1C68DFF838804FF00C0927
:102E90002CB986F31188BFF36F8FBDE8F883D4E9AE
:102EA0000123002D18BF13462BB198F8102009FB01
:102EB00002F2B85C98472468EAE700BFF40C0020EF
:102EC000E80C0020981C002070B5194B1C7CBFF347
:102ED0005B8F04F01F0301229A40164B610903EB3C
:102EE0008103D04353E8001F01EA000543E8005680
:102EF000002EF7D1BFF35B8F0A4213D00E4B0F4D5C
:102F00008BB10C236343EA18E85C51780AF071FB3B
:102F10000020FFF7ABFF0C235C432A1900232B5141
:102F2000C2E9013370BD83F31188BFF36F8FEFE700
:102F3000981C0020FC0C0020F3D50000E80C0020B9
:102F40002DE9F041354B07461D7C4FF04003EFF370
:102F5000118883F31288BFF36F8F0C24304B314EEE
:102F60006C431A19195D00294CD007CA06EB040CF2
:102F70008CE8070000221A5588F31188BFF36F8F81
:102F80000C236B43F218F05C002839D07B1C10D066
:102F9000D2F808C0244C254A4FF400400021ECFB35
:102FA000004100232046FDF79BF80121381A04F068
:102FB000A3F808F0AFFF0120FFF758FFBFF35B8FC6
:102FC0001B4B6A0903EB820305F01F0101228A40B3
:102FD00053E8000F104343E800010029F8D1BFF384
:102FE0005B8F144B3BB10C2303FB05F03318305CB3
:102FF00059780AF0F2FAFFF767FF08F09FFF012007
:10300000BDE8F0810146284600F016F80028B3D04C
:1030100007C8344484E80700AEE700BF981C0020CE
:10302000DC0C0020E80C00203F420F0040420F0063
:10303000FC0C0020DBD500002DE9F04F85B00E46DA
:1030400003A900F043F81E4B039DD3F800A0DFF85E
:103050007480431E1BB203EB4303044605EB830558
:103060004FF400474FF0000B24B9A146484605B085
:10307000BDE8F08F6868144AC4465946E0FB07C1B2
:1030800000236046FDF72CF80190A8680E4AC4465C
:103090005946E0FB07C100236046FDF721F8BAF16D
:1030A000FF3FA94601D0824505D9731CDED0019BA4
:1030B0001844B042DAD9013CA4B20C3DD4E700BFB9
:1030C0001C0000203F420F0040420F0008B9024B95
:1030D0000B600020704700BF4CEA0000F0B40C4BBE
:1030E0000C4E5F6A0C4BB34203D36FF08500F0BC0B
:1030F00070475D68BD4209D31C693CB195F802C0B8
:103100000579AC4502D12346F0BC18472433EAE7E1
:10311000000D002084040020600400202DE9F04709
:10312000134CDFF85080DFF8509005460E461746E6
:10313000444503D36FF08500BDE8F0876268D9F895
:1031400024309A4212D3A36983B1907829798842B6
:1031500005D13A4631462846BDE8F047184752792E
:10316000012A03D13A463146284698472434DFE7FE
:103170006004002084040020000D00202DE9F041AF
:103180000B4CDFF8308005460E461746444502D307
:103190006FF0850009E063690BB92434F6E73A461D
:1031A0003146284698470028F7D1BDE8F08100BF96
:1031B00060040020840400200248082200210AF054
:1031C000F2B900BFBB0D002070B50B4B0B4CA342F6
:1031D00001D3002070BD196A1E7F00220439D5B2C8
:1031E000AE4201D82433F2E7013211F83250854261
:1031F000F5D10120EEE700BF600400208404002028
:1032000008B509480378C3F341130A3350F8233053
:103210003BB100F1080200F110019847C043C00F14
:1032200008BD1846FCE700BF000D00207FB5084B25
:103230000593022304930748002304AA4FF4825104
:10324000FFF7DCFA4FF0FF3007B05DF804FB00BF7A
:103250007CF2000038E9000073B5C4B263060D4685
:103260008DF8074007D02046FFF7AEFF78B10D4B31
:1032700093F8BA0058B10B4E204655B102F052FBFC
:10328000F3691BB10DF1070108209847012002B036
:1032900070BD02F081FBF369002BF7D00DF107013F
:1032A0000920F2E7000D002080B500AF88B06A4623
:1032B000074BC2E90530032342F8103F05480023BD
:1032C0004FF4C251FFF79AFA0020BD4680BD00BFFF
:1032D000A1F2000038E9000004282DE9F74FDFF8DB
:1032E0009C9004460F4615D001282FD1DFF890801E
:1032F00098F8B93053B300F0F3FD224D4D4522D27A
:103300002A6A4FF0000A2B7F5FFA8AF6B34204D88C
:103310002435F3E7FFF750FFE8E702EBC60601921A
:1033200030790AF097F9834630790AF0A3F8D8F893
:10333000C430019A23EA0003BBF1000FC8F8C4307F
:103340000AF1010ADFDA002388F8B9300D4D4D4546
:1033500008D30B4B1B6A6BB13946204603B0BDE85E
:10336000F04F1847EB681BB13A462146284698476C
:103370002435ECE703B0BDE8F08F00BF84040020E3
:10338000000D002060040020F8B500AF05460AF0EB
:1033900061F910F1780F044613D090B16E4688B0F1
:1033A0006A460E4BC2E90535032342F8103F0C482C
:1033B00000234FF4C251FFF721FAB5462046BD461F
:1033C000F8BD28460AF056F8064AD2F8C43023EA77
:1033D0000003C2F8C4300024F0E700BFBCF20000D4
:1033E00038E90000000D0020F0B583B000AF0446BE
:1033F0008078387023796279274D43EA02237B80F5
:10340000E37803F003033B710AF034F8D5F8C430D5
:10341000184206460CD0A478204600F043FD204612
:10342000FFF7B2FF0AF035FE10B9962008F046FE0D
:10343000384602F043FA10F1780F0346387814D07A
:103440009BB16C4688B06A46144BC2E90530032331
:1034500042F8103F124800234FF4C251FFF7CEF953
:103460000020A5460C37BD46F0BD02F0D1FA10F1A0
:10347000780F08D038B16C4688B03B786A46094965
:10348000C2E90513E3E7D5F8C4300120334385F8DA
:10349000B900C5F8C430E5E7000D0020DEF20000F9
:1034A00038E9000002F300002DE9F047A34EB369AC
:1034B00004460F461546FBB9237803F01F03012B82
:1034C00000F09D80022B00F0048133BB94F90000D2
:1034D0002A686178002834DA062912D008292BD00E
:1034E000D9B901231370517096F8C3305B0043F0D3
:1034F0000103137002232AE198470028DCD1002041
:103500000DE06288100A011F0129844605D90728A9
:1035100003D8716AD2B20C781CB96FF01500BDE8FF
:10352000F0874E78664503D19A4200F00B81013353
:103530002144F0E70B780AE196F8BA3013700123C2
:1035400005E101390829E8D801A353F821F000BFAB
:10355000E93500001B350000F73500001B35000081
:10356000753500001B3500001B3500001B350000C1
:1035700081350000A07802F05DF90028BFD0CCE7CB
:103580006388756A63BBFFF717FE638886F8BA30F5
:10359000F369002BB3D06A4903209847AFE76B78F3
:1035A000042B10D0052B11D0022B04D16F79638826
:1035B000BB4208BF01202B781D442B78002BEED195
:1035C0000028AAD0DFE795F80380F4E76388BB42C0
:1035D000F1D1B8F1000FEED12846FFF705FFEAE779
:1035E000FF270020B846E8E76388012B95D1002328
:1035F00086F8C33083E76388012B8ED1F8E796F80D
:10360000BA30D5F800C0002B87D0756AA38894F82B
:1036100004E02A46107800283FF47FAF5178022951
:1036200004D192F80480F04500F293800244F1E75F
:103630008CF800208CF80120396060E7154494E094
:103640000B2A7FF46AAF00274FF0FF08C146BA4645
:1036500006E06B78042B0FD0052B21D02B781D446E
:103660002B78002BF5D1F36913B151460720984709
:10367000002F7FF444AF50E795F80280A38895F8B7
:1036800003909845EAD163889945E7D1B8F1070FCF
:103690001CD806EB0803AA4683F8BB900127DDE798
:1036A000A3884345DAD1A3784B450AD0AF78384692
:1036B00000F0F8FB3846FFF767FEB0FA80F77F09A5
:1036C000CCE72846FFF790FE0746C7E7AA46002743
:1036D000C4E794F900206378002A18DA002B7FF4FD
:1036E0001CAF24792D6863060AD02046FFF76CFDD5
:1036F00000283FF412AF96F8BA30002B3FF40DAF1C
:103700002946204602F068F900236B70F2E6012B8F
:1037100008D0032B7FF401AF6388002B7FF4FDAE4C
:10372000012103E0618800297FF4F7AEA088FFF74C
:1037300093FD00287FF4E3AEEFE600BF000D00200C
:10374000BA0D0020022829607FF4F4AE4B883B605C
:10375000D5E694F9000062780028BFF671AF002A20
:103760003FF466AF0A2A7FF4D8AE2A78002A3FF4E5
:10377000D4AE697804297FF461AFA9788B427FF4D5
:103780005DAF072B96BF9B19002393F8BB308CF8D5
:103790000030D4E613B5134C237DCBB9E268A168A1
:1037A000019201AB802009F073FE019AA3681344D3
:1037B000A360E3689B1AE36043B93AB12369E288E6
:1037C0009A4203DD9B0601D10123237502B010BD8F
:1037D00000231A4619468020237502B0BDE8104028
:1037E00002F040B9000D002070B58AB000230D46EC
:1037F00001930646002868D1002940D108220B46D3
:103800000DEB020109F03FFF002804DA802002F0EE
:1038100089F80AB070BD324C029A2260039A626045
:1038200004F13802A2609DF90820BDF80E3025751C
:10383000002AC4E9035515DB802B0FD9294B0993C6
:103840000223089328482B4608AA4FF48251FEF71A
:10385000D5FF802002F066F82846D8E713B1C4E906
:103860000333D6E7FFF7CCFC0028CFD0E2882369EA
:103870009A42D4BFE260E360FFF78CFFC9E7184CBF
:10388000D4E90212002A01AB05DC024609F0FBFE76
:103890000028BEDABAE709F0F6FE002804DA802034
:1038A00002F040F83046B2E7019AA3681344A360DF
:1038B000E3689B1AE360002BABD104F13803A360EB
:1038C000FFF79EFC0028D7D1A0E78028A1D1044BA8
:1038D000DA68002AD0D11B7D002BCDD199E700BF3B
:1038E000000D002023F3000038E90000054B064AD4
:1038F0009A62064ADA62064A1A63064A58629A616E
:1039000000207047000D0020A9340000DD300000C9
:103910007D3100001D31000010B5094B93F8B8400F
:1039200054B900F0D9F818B9BDE81040FFF77EBCD3
:10393000FFF7DCFF204610BD6FF07700FBE700BF0C
:10394000000D00202DE9F34104463B4D3B484FF06C
:10395000FF324FF0FF3307F007FE95F8B860002EF6
:1039600067D137482C62E86102F0F0F901F030FFCE
:10397000041E42DB00F0D8FA041E3EDB40236846FA
:10398000ADF802308DF804608DF8006001F096FF0C
:10399000041E32DB802768468DF8007001F08EFF30
:1039A000041E2ADB2749304602F0BCF9041E24DB42
:1039B0002449384602F0B6F9041E1EDB224CDFF81B
:1039C0008C80444520D3002002F022F8041E14DB32
:1039D000D5F8C430802043F00103C5F8C43002F0AC
:1039E00017F8041E09DBD5F8C43043F48033C5F85A
:1039F000C430012385F8B8300024104807F02EFEAB
:103A0000204602B0BDE8F081276A0026227FF3B28B
:103A10009A4201D82434D4E707EBC30257F8331095
:103A2000107902F07FF901360028EFD04FF0FF3413
:103A3000E3E76FF07704E0E7000D00209803002033
:103A4000D9320000E937000060040020840400201F
:103A500030B51F4B8BB005AA03F1100518685968E3
:103A6000144603C40833AB422246F7D11B782370B7
:103A70001022002101A809F096FD1222002115480C
:103A800009F091FD102101A809F0F7FE00281BDDC7
:103A90000828B8BF0820093801AB0E491A180020C1
:103AA00012F8013F0AAC04EB131403F00F032833A0
:103AB0006B44013014F8144C13F8143C0C700828B3
:103AC0004B7001F10201EBD102480BB030BD00BFD9
:103AD00047F30000151D00202DE9F04F834C8BB0FB
:103AE00000AF00264FF0011BB2463546B0462378A2
:103AF00043B97F4B02349C42F3D17C482C37BD46FE
:103B0000BDE8F08F6378052B05D8DFE803F0A60445
:103B100003A6073FA04623781C44E8E7E378002B80
:103B2000F9D1A37843B30AF1010A5FFA8AFAF2E7FE
:103B30006A68944223D024359D42F9D36D4688B0FB
:103B40006A466C4BC2E90534032342F8103F6A48C9
:103B500000234FF4C251FEF751FEAD46674B7B6226
:103B600002233B626448002307F120024FF4825194
:103B7000FEF744FE0020C1E7614D624BDCE7AB6815
:103B8000002BD0D0514620469847CCE7002D62D17B
:103B90005D4B7B6202233B625748002307F1200202
:103BA0004FF48251FEF72AFED8E7296AA07801EB8C
:103BB000C2010B79984205D001322B7F9A42F4D38F
:103BC000524BE6E74FF00109E07800F0030038754A
:103BD000207994F805C040EA0C20788294F902001C
:103BE00000285FFA89F328DA09F110004FF0010C80
:103BF0000CFA00F010EA0B0F27D143F08000387464
:103C000007F11000C7E90131FA6001F025FED7E99C
:103C100002127B68C8B93A7CA27012F0800F18BFFC
:103C200010330A7118BFDBB24FF0010214BF9A4083
:103C300002FA09F24BEA020B6DE7012000FA09F0E3
:103C400010EA0B0F01D11846D9E709F10109B9F1C2
:103C5000100FB9D1B0E70022AFE7032E2AD1FFF74A
:103C6000F7FE8146A8B109F077FCF86088B12848D2
:103C700009F072FCFA68824217D0264B7B6202235D
:103C80003B621D48002307F120024FF48251FEF7EA
:103C9000B5FD23786FF00201E218091B04EB530312
:103CA000D1420ED50136F6B235E74946A01C09F0DF
:103CB0006FFCEEE7002EECD1B8F1000F0AD1164BE5
:103CC00067E74FF0000002F8010C13F8010902F851
:103CD000020DE5E7A4EB080388F80230C3F30723DD
:103CE00088F8033088F804A0DCE700BFDC0300207C
:103CF0005E04002058F3000030E900003EF40000AC
:103D0000600400208404002078F30000B9F3000070
:103D100047F30000D6F3000021F4000010B5094B72
:103D200000211A461C78844204D15C6814B102EB6D
:103D3000811010BD0131042903F14003F2D10020AC
:103D4000F7E700BFC80D00202DE9F04383B050F81D
:103D5000283C10F82C5C103300AF044611D10369E5
:103D600050F8202C13F002064ED00ABB13F00403C7
:103D700004D11A461946284609F08AFB002344F864
:103D8000283C54F8283C10330ED054F8186C5EB11F
:103D900054F81C8C54F8149C0AF07BF900286FD05E
:103DA0003D4821460AF073FA0C37BD46BDE8F08362
:103DB00050F8241C3B1D284609F06AFB98B16E465A
:103DC00088B06A46354BD561C2E90530042342F814
:103DD000103F334800234FF40151FEF70FFDB54665
:103DE0006FF01503CBE77A6854F8243C134444F889
:103DF000243C54F8203C9B1A44F8203C54F81C3CCA
:103E0000134444F81C3CBCE750F8241C3B1D2846D6
:103E100001F0CAFE88B1E84688B06A461F4BD561FA
:103E2000C2E90530042342F8103F1D4833464FF4E1
:103E30000151FEF7E3FCC546D2E77E6854F8243C06
:103E4000334444F8243C54F8203C9B1B44F8203C69
:103E500054F81C3C334444F81C3C002E8ED02846B9
:103E600001F07AFFB6FBF0F303FB1066002E85D15C
:103E700054F8203C002B81D0284601F0FBFE80E75F
:103E800044F8180CA4F1100007F058FC4A464146CB
:103E90002846B04788E700BF700B00206CF4000094
:103EA00050E9000010B54FF04003EFF3118483F3A5
:103EB0001288BFF36F8FFFF731FF50B143681033A3
:103EC00007D16FF08B03436000F12C0103480AF027
:103ED000DEF984F31188BFF36F8F10BD700B0020E3
:103EE00070B50F4C04254FF04003EFF3118683F3B8
:103EF0001288BFF36F8F6368103307D16FF08B03A5
:103F00000848636004F12C010AF0C1F986F31188B6
:103F1000BFF36F8F013D04F14004E4D170BD00BFD9
:103F2000C80D0020700B002070B50A4C0A4E002509
:103F3000314620460AF08EF90122A4F11000114604
:103F400001350AF04AF9042D04F14004F0D10020B3
:103F500070BD00BFF40D0020493D00000149102252
:103F60000A60704710ED00E072B6404080F311889F
:103F7000BFF36F8FBFF34F8F30BF62B6BFF36F8F4A
:103F8000704700BF72B6494081F31188BFF34F8F6D
:103F900020BF80F3118862B6704700BF2DE9F0475B
:103FA000814600AF0C4600294CD06E468AB0D1E95C
:103FB0000012A3686D462748A8464FF0050AC5E9D8
:103FC0000501C5E9072348F810AF234842460023FE
:103FD0004FF42151FEF712FCB546D4E90312636990
:103FE000AD461E48C5F810A0C5E90501C5E907237F
:103FF0001948002342464FF42151FEF7FFFBB54616
:1040000088B0E3696D46164AA8464FF0030AC5E931
:10401000052348F810AF1048002342464FF4C25120
:10402000FEF7ECFBB546A369AD460E4AC5F810A0F5
:10403000C5E905230848002342464FF4C251FEF764
:10404000DDFBB5462146484607F00AF8BD46BDE807
:10405000F08700BF96F40000F0E80000C5F400000F
:10406000F4F4000003F5000040B2002807DB044A26
:104070004109012300F01F00834042F821307047BE
:1040800000E100E040B200280CDB4309064900F0E3
:104090001F0020330122824041F82320BFF34F8FBD
:1040A000BFF36F8F704700BF00E100E0054B42098E
:1040B00000F01F0053F82220012303FA00F0104003
:1040C000704700BF00E100E040B2D30754BF0231A7
:1040D00000210028ACBF00F16040074A4FEA4113BD
:1040E000ACBF00F5614000F00F00DBB2B4BF135469
:1040F00080F80033704700BF14ED00E008B572B6D9
:10410000044B5A691AB100225A6109F0CFFF62B616
:1041100008BD00BF981C002030BFFFF7FDBF00BFE7
:1041200008B5084B084A23F07F039360BFF34F8F15
:10413000BFF36F8F07F050F808F052F800F0AAFBB9
:1041400007F08EF80000000000ED00E0094A0A497F
:10415000936809689967094958674B6843F0805329
:104160004B60002383F31188BFF36F8F9368986FC0
:10417000704700BF981C0020A4EC000000ED00E098
:1041800012498A684FF030001044EFF3098C80E840
:10419000F01F402080F31288BFF36F8F0C4F4FF059
:1041A00000668A698A603E60506F0023536780F31F
:1041B000118804B5104600F009FCBDE8044002F186
:1041C000300090E8F01F8CF309887047981C00209D
:1041D00004ED00E01EF0040F0CBFEFF30880EFF3D6
:1041E0000980816911F8021C0229FFD001B509F08C
:1041F00097F901BD42F8203C009B42F81C3C0A495B
:10420000019B42F8183C029B42F8143C21F001014A
:104210004FF0807342F8043C42F8081C0023203A17
:1042200002654367704700BFAFC70000094A0346F5
:10423000906870B113F1160F406E05D0A0F14002E6
:104240009A4205D8834203D2814228BF002070479A
:1042500000207047981C002008B5094B0D461446F5
:10426000986000F0B3FB204685F30988002163B60F
:1042700081F31188BFF36F8F0022002308F097FAB3
:10428000981C002001B572B60B4A506900281EBF69
:104290000021516109F00AFF62B6EFF30580A0F139
:1042A00010004FEAC0000549014409C99847BDE81C
:1042B0000140034908470000981C0020A401002089
:1042C000C5420000044B99689869884203D00349AD
:1042D0004FF080520A607047981C002004ED00E007
:1042E0002DE9F04186B0064600AF0D463F4B7B619D
:1042F00002244FF482513E483C6107F1100209F05C
:104300001EF93C4B9B6AD9046DD53B4B3848C7E935
:10431000044307F110024FF4825109F010F91720FD
:10432000344B9B6A1A050BD5344B7B610223304812
:104330003B6107F110024FF4825109F000F9182097
:104340002C4CA36A9B0523D5E8462D4B7B610223A9
:104350003B6107F110024FF48251254809F0EFF854
:10436000A36BA26A110412D588B06A462549204879
:10437000C2E90513032342F8103F4FF4C25109F07C
:10438000DEF8C5461EB1A36A23F40043A3621920D8
:10439000184B9B6A5A050BD51B4B7B6102231448B3
:1043A0003B6107F110024FF4825109F0C8F81A205E
:1043B000104B9B6ADB050BD5144B7B6102230C4829
:1043C0003B6107F110024FF4825109F0B8F81B204D
:1043D000084A936A43F47F439362183700232B7093
:1043E000BD46BDE8F08116209AE700BF31F5000018
:1043F000F0E8000000ED00E047F5000058F500008F
:104400006BF5000084F5000099F50000B4F500009C
:1044100010B586B0364B3748059304AA02244FF4F2
:104420008251049409F08BF8334B9B6A9A015DD555
:10443000324B304804AA4FF48251CDE9044309F0CD
:104440007EF81E202C4B9B6ADB010AD52C4B294899
:10445000059304AA02234FF48251049309F06FF8E4
:104460001F20254B9B6A1C030AD5264B2148059328
:1044700004AA02234FF48251049309F060F821202A
:104480001D4B9B6A59030AD51F4B1A48059304AA72
:1044900002234FF48251049309F051F82220164B65
:1044A0009B6A9A030AD5194B1248059304AA022362
:1044B0004FF48251049309F042F823200E4B9B6A7B
:1044C000DB030AD5124B0B48059304AA02234FF4D1
:1044D0008251049309F033F82420074A936A6FEA63
:1044E00003436FEA1343936206B010BD1D20A9E792
:1044F000CCF50000F0E8000000ED00E0E4F500007D
:10450000F7F5000011F600002FF6000054F6000049
:104510006EF600002DE9F04786B0814600AF8A466E
:104520009046454B45487B6102243C6107F11002EF
:104530004FF4825109F003F8414B9B6AD80645D5E8
:10454000404B3E48C7E9044307F110024FF4825143
:10455000112408F0F4FF3A4B9B6A19070BD53A4B2C
:104560007B61022335483B6107F110024FF4825111
:10457000122408F0E4FF324DAB6A9A0728D56C4646
:10458000324B7B6102233B612C4807F110024FF450
:10459000825108F0D4FF6E6BAB6A1B0649D588B018
:1045A0006A462B4B2548C2E90536032342F8103FE3
:1045B0004FF4C25108F0C3FFA546BAF1000F03D073
:1045C000AB6A23F08003AB62132403E01024C2E73C
:1045D0006FF015061A4B9B6AD8070BD51D4B7B61F4
:1045E000022316483B6107F110024FF48251142454
:1045F00008F0A5FF124B9A6AD10602D49A6A920774
:104600000AD55B681B0507D549463046FFF70EFE05
:1046100010B180F309880224094A936A43F0FF032A
:10462000936220460023183788F80030BD46BDE865
:10463000F0876FF01506C7E799F60000F0E8000074
:1046400000ED00E0AFF6000058F50000E2F60000D3
:10465000FAF6000010F700002DE9F043774B8BB01D
:10466000D3F8048000AF0546C8F30804002686F39B
:104670001188BFF36F8F02F07F43B3F17F4F0ED1EC
:1046800002F00C03082B19D16D4BFB6102236D481E
:10469000BB6107F118024FF4825108F050FF002669
:1046A00035460023FB71E31E092B00F2A680DFE8EC
:1046B00003F00A999C95A4A4A4A4A49F10074CBF3E
:1046C0000D460126EDE7E9465F4BFB614FF002081E
:1046D00007F118025B48C7F818804FF4825108F0C0
:1046E0002EFF0023554CFB71E36A9A070BD5574BFD
:1046F000C7E90683534807F118024FF4825108F0C6
:104700001EFF002441E0E36A002B01DA504BEFE783
:10471000E36A5B00F5D54F4B4A48C7E9068307F1CA
:1047200018024FF4825108F00AFF6369AA6943F442
:1047300080736361BFF34F8FBFF36F8F636932F88C
:10474000022C23F480736361BFF34F8FBFF36F8F2D
:104750004DF602739A4208D0A36ADBB28BB3FA1DFE
:1047600001212846FFF7D6FE3AE088B02B686A465A
:1047700039493448C2E90513032342F8103F4FF486
:10478000C25108F0DCFE2C68CD46FB79ABB9202283
:10479000294607F1080008F0FBFE7B6A002E47D08F
:1047A000C3F3080222B96FEA53236FEA43237B6203
:1047B00007F108012046FFF7F1FB2C37BD46BDE8A5
:1047C000F083A36A13F47F4F04D0F91D0120FFF793
:1047D00087FD05E0A36AB3F5803F92D3FFF718FE8B
:1047E0000446D2E7FA1D0021BBE7F91D0020EEE7E1
:1047F0001A4BFB610223BB617CE7194A194B18F481
:10480000F87FE8468AB018BF13466A4616490D4835
:10481000C2E905134FF400731384103C134BD461A9
:104820004FF4115142F8103F08F089FEC54668E781
:1048300023F4FF7323F00103B9E700BF00ED00E0AC
:104840005DF70000F0E8000088F700009FF7000027
:10485000C0F70000CEF70000EDF7000009F80000F7
:1048600044F700002FF700002DF8000004000001BD
:10487000024A536943F010035361704700ED00E0B2
:10488000EFF30880EFF3098101B57246FFF7E4FE0C
:1048900001BD00BF044800234021C2180133282B6A
:1048A00082F80013F9D1704700E100E0002080F3A6
:1048B0001488BFF36F8FFDF709FD00200D490860D4
:1048C000BFF34F8F0C4880F3088800F02BF840208E
:1048D00080F3118809484FF40461401880F3098877
:1048E000EFF314800221084380F31488BFF36F8F25
:1048F000FFF716FC94ED00E000390020802B00202B
:104900000749D1F890200023C2F3072218469342AA
:1049100000DB7047C1F89830C1F8A0000133F6E71A
:1049200000ED00E008B572B6002383F31388FFF7AB
:10493000E7FF144B4FF0FF32C3F88020C3F8842008
:10494000C3F88820C3F88C20C3F89020C3F89420C3
:10495000C3F89820C3F89C20C3F88021C3F88421B1
:10496000C3F88821C3F88C21C3F89021C3F894219F
:10497000C3F89821C3F89C2162B6BFF34F8FBFF3F1
:104980006F8F08BD00E100E0084B9B6883420BD1AC
:10499000EFF3058343B1064B5A6842F080525A60E8
:1049A0005A6A22F400425A6207F0A8BB981C002001
:1049B00000ED00E0024B034A0348012100F092B8E9
:1049C00000800020000000204CEA0000426E054BF1
:1049D000403A1A60044A4021C3E9011218460121F5
:1049E00000F08AB8C80E002000000B152DE9F04138
:1049F000DFF8B4E09C4600AF154600238B421ADA7C
:104A00004468002C4DD0BCF1000F1DD0661E34420E
:104A100015D06C4688B06A462449C2E905130323C1
:104A200042F8103F224800234FF4C251FDF7E6FE42
:104A30006FF01505A5462846BD46BDE8F0811F2C40
:104A4000E7D902681642E4D1202C026886685FFA32
:104A500085F814D9B4F1004F13D8013CB4FA84F4AA
:104A6000C4F11F046400B8F1070F46EA04060AD92E
:104A70006C4688B06A460F4BC2E90535CFE708247B
:104A8000F1E73E24EFE722F01F022A4342F0100232
:104A900046F00106CEF89850CEF89C200135CEF8AD
:104AA000A06001330C30A9E700ED00E044F80000FD
:104AB000E8E8000067F80000044B0522C3F89420E2
:104AC000BFF34F8FBFF36F8F704700BF00ED00E063
:104AD000BFF35F8F024B0022C3F89420704700BFE2
:104AE00000ED00E010B5034C01232278FFF77EFFB4
:104AF000207010BD271D002008B5094A0023127838
:104B0000FFF774FF10F1160F03D0064B00220728A1
:104B100000DD08BDC3F89800C3F8A0200130F6E717
:104B2000271D002000ED00E014490868082810B592
:104B300021D8FFF7CDFF124C49680022904201F1C5
:104B40000C0105D10F4B1870FFF7B6FF002010BD08
:104B5000C4F8982051F80C3C23F01F03134343F092
:104B60001003C4F89C3051F8043C43F00103C4F82E
:104B7000A0300132E2E74FF0FF30E8E758EA0000EA
:104B800000ED00E0271D0020014B1860704700BFBA
:104B9000200000204FF08043C0B2C3F81C05BFF3D3
:104BA0004F8F0549054BCA6802F4E0621343CB609E
:104BB000BFF34F8F00BFFDE700ED00E00400FA05F2
:104BC00020B1034B800143F001031847704700BF39
:104BD00090E9000080B500AF88B06A46064BC2E994
:104BE0000530032342F8103F04484FF4C45108F045
:104BF0000AFDBD4680BD00BFA0F8000040E90000EE
:104C000070B5064686B00D460146354808F058FC9A
:104C1000044628B9304606B0BDE87040FFF7DABF59
:104C20000A2D5AD8DFE805F0061121233234405905
:104C3000595930002B4B05932B48022304AA4FF4FB
:104C40008651049308F0DFFC1EE0284B05932648AC
:104C5000022304AA4FF48651049308F0D4FC0023E5
:104C600004F8043C04F8033C0EE0214BE3E7214B3D
:104C700005931D48022304AA4FF48651049308F0BB
:104C8000C2FC012304F8043C06B070BD1A4BDDE7FA
:104C90001A4B05931448022304AA4FF48651049337
:104CA00008F0B1FC0123DDE7154B0F480593022501
:104CB00004AA4FF48651049508F0A5FC14F8033CAF
:104CC000002BE1D00F4B084804AA4FF48651CDE9E0
:104CD000045308F098FC0023C4E70B4BABE700BF7C
:104CE000EC0E0020C1F8000040E90000CEF8000002
:104CF000E4F80000F5F8000007F900001BF90000D7
:104D00002CF900003BF9000048F900002DE9F843B8
:104D1000044600AF884601792648914608F0DCFB3E
:104D20000646A0B9A3886C4688B06A462249234843
:104D3000C2E90513032342F8103F4FF4C45108F0B1
:104D400062FC6FF01200A546BD46BDE8F88394F9F9
:104D5000003000686578002B1CDA012D12D0AB1EE4
:104D6000012B14D96C4688B06A46154B1348C2E92A
:104D70000535032342F8103F4FF4C25108F043FCBD
:104D8000A54604E056F8083C0BB11D686DB96FF0FC
:104D90008500D9E7092D02D0A5F10A03E0E756F80E
:104DA000083C002BF3D05D68F0E74B4642462146B5
:104DB000A847C9E7EC0E002056F9000040E90000C2
:104DC0007DF900002DE9F84390F90030002B00AF89
:104DD00004460D46164604DB6FF01500BD46BDE8DF
:104DE000F883038823F0E0039BB240F20162934210
:104DF000F2D190F80490B0F802801B4849464FEA7F
:104E0000182808F069FB78B96C4688B06A46174BD9
:104E10001748C2E90539032342F8103F4FF4C45143
:104E200008F0F1FBA546D7E7B8F1210F05D0B8F19E
:104E3000220F0FD06FF08500D0E70368E1885B6830
:104E40005B6813F8092F914294BF29602A60336090
:104E50000020C3E7E38850F80C2C9A4294BF2A60E4
:104E60002B6050F8103CF2E7EC0E002056F90000E1
:104E700040E9000080B500AF88B06A46064BC2E941
:104E80000530032342F8103F04484FF4C45108F0A2
:104E9000BAFBBD4680BD00BF96F9000040E90000A6
:104EA00070B504460D4601460A4808F023FB20B9B8
:104EB0002046BDE87040FFF7DDBF022D08D150F855
:104EC000083C2BB11B691BB1BDE870400068184756
:104ED00070BD00BFEC0E002010B50469C4E90012DB
:104EE000A36000236361064B2061596804F114023A
:104EF00011B9C3E9002210BD0A605A60FBE700BF88
:104F0000EC0E002030B544680069057B87B045B1E0
:104F1000407B30B9206A007907B0BDE8304008F026
:104F2000B7BA074B05930748022304AA4FF48451EC
:104F3000049308F068FB6FF00A0007B030BD00BFB3
:104F4000BCF9000040E90000020600F07F0312D522
:104F5000082B05D1010700F00F0306D50E48704756
:104F600010F0780F12D100F00F034C2000EB43102B
:104F70000A4B18447047082B05D1020700F00F03B5
:104F800006D50748704710F0780FF6D0002070471C
:104F9000044800EB4310704740100020F40E00203E
:104FA00060110020601000200149024809F06FB92B
:104FB0001C0F0020480900200146014809F002B9F1
:104FC000CC03002002480022002306F083BB00BF70
:104FD000CC03002010B5054CFFF7F4FF20B1011DF4
:104FE000204609F02DF8F7E710BD00BF6803002048
:104FF00010B588B018480022002301A906F0B0F9C6
:1050000030B3164B1648079306AA4FF48251022478
:10501000069408F018FBFFF7DDFF0F48002200237D
:1050200001A906F09DF950B10E4B0D4806AA4FF4A8
:105030008251CDE9064308F006FB00200AE0019802
:10504000042340600374FFF7B7FFFFF7ADFFF4E7F9
:105050000198406008B010BD68030020DDF9000031
:1050600048E90000FBF9000098B5022800AF11D80C
:10507000104B1C5CFFF7BCFF50B10022027404729D
:10508000FFF79AFF0C4B93F824300BB1FFF78CFF1E
:10509000BD4698BD6C4688B06A46084BC2E90530EB
:1050A000032342F8103F06484FF4C25108F0CBFAF0
:1050B000A546EDE7EDFB0000F40E002017FA000016
:1050C00048E900002DE9F04190F80280064600AF63
:1050D0004046FFF739FF18F0800FF478054625D0D9
:1050E0009CB1032C1FD06D4688B06A462A4BC2F88B
:1050F0001C80C2E90534042342F8103F27484FF4CE
:10510000015108F0A0FAAD460DE0FFF771FF03462C
:1051100048B10122AC770274032202739D60FFF74D
:105120004BFFFFF741FFBD46BDE8F08154B1012CB4
:10513000D9D1FFF75DFF03460028F4D06C770474E3
:105140000473EBE7FFF754FF0028ECD0B278144B60
:1051500012F0800F02F0080111D041B1D3F8A83647
:10516000EB6001230374022303738560D7E702F029
:105170000F02142101FB0233D3F80836F0E711B116
:10518000D3F8A837ECE702F00F02142101FB023339
:10519000D3F80837E4E700BF32FA000048E900001E
:1051A0000070024013B5124805F0F4F9114B984213
:1051B0001AD1114804F07CFB0024104804F0A2FB33
:1051C0000F49104800944FF0FF334FF4806206F00F
:1051D00031FC0D490B4808F062FF0C480C4909F0FE
:1051E00039F8204602B010BD6FF00400FAE700BFA6
:1051F000555200000000AD0BF0FB00007CEA0000FF
:1052000040270020480900205EFA00001C0F002003
:105210002D54000010B50E49BFF35B8F002351E8F9
:10522000002F012A03D141E800300028F7D1BFF355
:105230005B8F0CD151F8044C1439204607F081FDE6
:10524000783004D12046BDE8104007F055BD10BDB0
:10525000140F00202DE9F04188B0064600AF14225B
:10526000002107F10C0008F09EF93378013B052B73
:1052700021D8DFE803F09B0313138D1503233B753F
:105280000024FFF7B5FE0346A8B1047400F108023C
:10529000D7E9050182E80300184634E00423EEE76D
:1052A00096F802804046FFF74FFE837A054633B1F9
:1052B000013B022B68D92037BD46BDE8F08118F0CC
:1052C000800FF47824D09CB1032CF4D06D4688B0C4
:1052D0006A46374BC2F81C80C2E90534042342F801
:1052E000103F34484FF4015108F0ADF9AD46E2E704
:1052F000FFF77EFE03460028DDD00122AC77027462
:10530000032202739D60FFF757FEFFF74DFED2E7C1
:1053100054B1012CDAD1FFF76BFE03460028CAD046
:105320006C7704740473EDE7FFF762FE044600280F
:10533000C1D001230374022303738560B07805F1A3
:105340000C0108F0D4FD70B16E4688B06A461A4B65
:10535000C2E90530032342F8103F16484FF4C2510A
:1053600008F071F9B546154AE968B2F88C328B42FB
:1053700006D95B1AA2F88C3205F040FB2046C2E742
:105380000023A2F88C32F9E73046FFF79BFE92E744
:10539000381D05F00DFB7B79052B03D13B7913F00C
:1053A000600F88D0064B7B6101246AE7022468E71E
:1053B00032FA000048E9000069FA0000F40E00200B
:1053C0006010002038B5002464F07F00C0B2FFF701
:1053D000BBFD013408F024F9082CF5D10E4D002452
:1053E000E0B2FFF7B1FD036903B90561013408F0CC
:1053F00017F9082C05F14005F2D1084808F010F91A
:10540000074BD3F87C2212B9064AC3F87C2206481F
:1054100008F006F9002038BD841500204010002057
:10542000F40E002084110020601100202DE9F047C7
:10543000A34CDFF890A286B0804600AFFFF7C2FD14
:10544000064618B91837BD46BDE8F08794F8252000
:10545000337C06F104093AB9002B00F0AF8099487B
:10546000494608F0EDFDE9E7042B00F29581DFE8FD
:1054700013F0A50005003B015101780118F8043C28
:1054800083B9B3686D4688B05B7A6A468E498F48A7
:10549000C2E90513032342F8103F4FF4C25108F04C
:1054A000D2F8AD46337BB568032B39D8DFE803F07B
:1054B000023F6E736E6908220021304608F073F8CF
:1054C000834B8448D3F880243270D3F884247270DC
:1054D000D3F88824D3F88C1442EA01227280D3F8DE
:1054E0009024D3F8941442EA0122B280D3F898248D
:1054F000D3F89C3442EA03230822F3803146EA6061
:1055000008F046F82B68687A0021984796F9003031
:10551000002B08DBF38833B1A4F88C3205F06EFA67
:10552000494650469DE70023A4F88C32F8E76B7F8C
:10553000002BF5D02B7F002BF2D0002666486E772B
:105540004FF0FF324FF0FF332E7708F07FF86B6992
:105550003B606B68C7E901363946687A05F05CF84C
:105560005E4B98420ED06D4688B06A465C4BC2E9ED
:105570000530032342F8103F54484FF4C25108F05D
:1055800062F8AD46544808F063F8C9E72B6801217A
:10559000687A9847C4E7AB7A6BB9EB7F5BB94E4842
:1055A0004FF0FF324FF0FF3308F050F805F05AFA91
:1055B000494808F04DF82B680221E9E7337A042BBB
:1055C000AED8DFE803F059032367730004F0ACFFA3
:1055D00005460028A4D104F039FFBFF35B8F414991
:1055E000012351E8002F002A03D141E800300028B0
:1055F000F7D1BFF35B8F93D141F8085C41F8105CA1
:10560000E0696361143907F01FFB89E7002565F045
:105610007F00C0B2FFF798FC037A13B1407A05F01F
:10562000D3FB0135082DF2D194F854311BB194F815
:10563000550105F0C9FB0025E8B2FFF785FC037AA8
:1056400013B1407A05F0C0FB0135082DF4D194F870
:1056500074321BB194F8750205F0B6FB012004F01A
:1056600045FF012384F825302368002B3FF458AF11
:1056700000210220984753E7002584F8255005F0C3
:105680005DFBFFF7C7FD2368002B3FF449AF2946B8
:105690000420EFE7002A3FF443AF04F04FFF2368F4
:1056A000002B3FF43DAF00210520E3E72368002BEA
:1056B0003FF436AF002A3FF433AF00210620D9E78C
:1056C000F40E00206803002089FA000048E9000079
:1056D00000700240F80E00202C0F00200000AD0BDF
:1056E000AFFA0000140F002008F110054FF0FF334F
:1056F0004FF0FF32284607F0A9FFFFF763FE284668
:1057000007F0A6FF58F8283C002B3FF409AF002112
:105710000120AFE794F8743293B1012584F88952DF
:1057200084F88852FFF764FC90B9234B7B61022315
:1057300022483B6107F110024FF4825107F083FFCA
:1057400058F8283C002B3FF4EBAE00210A2091E7EB
:105750001B4A057405738260FFF72EFCFFF724FCDB
:10576000EEE7184B7B6102233B6107F110024FF417
:105770008251124807F067FF08F00BFB05F0DEFAD4
:1057800004F05AFEFFF726FCFFF71CFE08F0FAFAB9
:105790000D4804F0FFFEC3E66D4688B06A460B492B
:1057A0000648C2E90513032342F8103F4FF4C251E3
:1057B00007F049FFAD46B3E6D5FA000048E900001E
:1057C00060110020E9FA00005552000000FB0000C3
:1057D00038B5164D95F824402CBB05F1380008F07B
:1057E00074FC204600F0CEFB22460121E861272010
:1057F000FEF76AFC08F0C6FAFFF7E4FD044610B9AC
:10580000012385F824300A4B1B680BB1FFF7CCFB52
:105810004FF08043D3F83834DB0702D50020FFF780
:1058200023FC204638BD0024FBE700BFF40E002017
:10583000CC030020074B93F824203AB193F825308D
:10584000002B14BF00206FF0120070476FF01200A1
:10585000704700BFF40E00207FB5034602781B7925
:1058600002F00F007BB958B1104B0593022304934B
:1058700004AA4FF482510E4807F0E5FE4FF0FF30C6
:1058800007B05DF804FB082801D90A4BEDE7012BAE
:1058900009D1130707D4084B05930223049304AAE4
:1058A0004FF48451E7E70020EAE700BF17FB000050
:1058B00048E9000036FB000055FB000030B5164BF0
:1058C00093F8243087B004461BB305782846FFF7C9
:1058D0003BFBB0B1457223798372638843602078C3
:1058E000618810F0080F10D14B1E0B420DD00B4BEE
:1058F00005930B48022304AA4FF48251049307F046
:10590000A2FE6FF0150007B030BD08F0EBFA0020E2
:10591000F9E76FF01200F6E7F40E00206BFB0000D1
:1059200048E9000030B5194B93F8242087B00546AC
:1059300042B393F825302BB3FFF706FB044618B9A2
:105940006FF0150007B030BD837A012B0FD007D957
:10595000023B012B07D96369A3610020E060F1E7F6
:1059600005F088F8F7E7284604F0F4FFF3E7084B62
:1059700005930848022304AA4FF48251049307F0C8
:1059800062FEDDE76FF01200DCE700BFF40E0020DE
:1059900093FB000048E9000038B50E4B93F8242033
:1059A000054682B193F825306BB1FFF7CDFA68B1A7
:1059B00015F008040AD1284604F0EEFF284605F049
:1059C00057FA204638BD6FF01200FBE76FF0150064
:1059D000F8E700BFF40E002038B50C4B93F82420F4
:1059E00005460C4662B193F825304BB1FFF7ACFA8F
:1059F00048B144B1284604F0B5FF2070002038BDFE
:105A00006FF01200FBE76FF01500F8E7F40E0020CE
:105A100070B5134E96F824300446C3B1FFF794FADC
:105A20000546B8B1230705D4204604F0B5FF20464B
:105A300005F01EFA2B7A83B901232B7296F82530D4
:105A40000BB9002070BD204605F0BEF9F9E76FF0F4
:105A50001200F7E76FF01500F4E76FF07700F1E759
:105A6000F40E00202DE9F047DFF8249184B01E46A3
:105A700099F8243000AF80468A461546002B00F086
:105A8000838099F82530002B7ED010F0800F14D041
:105A9000FFF75AFA044680B1037AABB96C4688B076
:105AA0006A463C4B3C48C2E90538032342F8103FA4
:105AB0004FF4C25107F0C7FDA5466FF0150420460C
:105AC0001037BD46BDE8F0874FF0FF334FF0FF328F
:105AD00009F1380007F0BAFDA37F33B109F13800AE
