:1000000000380020B9450000B9C400008D4500004B
:100010008D4500008D4500008D450000000000006A
:10002000000000000000000000000000E13E0000B1
:100030008D450000000000008D3E00008D45000051
:10004000913F0000556E0000913F0000913F00007D
:10005000913F0000913F0000913F0000913F000060
:10006000913F0000913F0000798F0000913F000018
:10007000913F0000913F0000913F0000913F000040
:10008000913F0000913F0000913F0000913F000030
:10009000996E0000913F0000913F0000913F0000E9
:1000A000913F0000913F0000913F0000913F000010
:1000B000913F0000913F0000913F0000913F000000
:1000C000913F0000913F0000913F0000913F0000F0
:1000D000913F0000913F0000913F0000913F0000E0
:1000E00053B94AB9002908BF00281CBF4FF0FF319F
:1000F0004FF0FF3000F00CB8ADF1080C6DE904CE04
:1001000000F0E8F8DDF804E0DDE9022304B0704710
:10011000704700BF70B5174C6078002823D10120CC
:10012000607000F045FA6FF0270528B900F056FA24
:1001300010B900F05DFA20B10F486060A57008208A
:1001400010E000F017FA40B900F01EFA28B900F0EC
:1001500025FA10B900F036FA30B107483130606046
:10016000A5700420E07070BD40F23F11742000F0D3
:1001700055F80000000000209C060000064A00B56B
:1001800092F90320904201DB104600BD00F008F810
:100190000249085600BD0000000000208E06000045
:1001A0000246134810B590F903309A4201DB0D2046
:1001B00010BD90F902309A4201DC002010BD01B15F
:1001C0000121D41A4368185D0A4C24569442F5D094
:1001D000084C08443F34C0B2D2B2A342EED1002949
:1001E000ECD0012A01D0022AE8D1401CC0B210BDD7
:1001F000000000208E060000BFF34F8F0548016805
:10020000054A01F4E06111430160BFF34F8F00BF65
:10021000FDE700000CED00E00400FA050EB572B633
:100220000F4A5568D5B1002203466E460A2403E002
:10023000B0FBF4F0521CD2B20028F9D1B05409E05E
:10024000B3FBF4F004FB1030B3FBF4F3521ED2B254
:100250003030B054002AF3D13046A847FFF7CCFF26
:10026000080000201D060000550600003F060000A3
:100270002D06000039060000270600001B060000BE
:100280001906000051060000450600003306000074
:1002900021060000130600000B0600000F060000F8
:1002A0000506000001490968896908471000002017
:1002B00001480068006800471000002001480068FD
:1002C00040690047100000200148006800690047AD
:1002D000100000202DE9F04786468C460846089E0F
:1002E000154674461946002B40F0C2808542B2FA8A
:1002F00082F245D94AB1C2F1200300FA02FC2EFA7B
:1003000003F3954043EA0C0C94404FEA154EA8B213
:10031000BCFBFEF8230C0EFB18CC08FB00F943EAEB
:100320000C43994528D9EB1808F1FF3704D29945B9
:1003300002D9A8F102072B44A3EB0903A4B2B3FB33
:10034000FEFC0EFB1C330CFB00F044EA0344A0420D
:1003500014D92C190CF1FF3304D2A04202D9ACF10C
:1003600002032C44241A43EA07401EB1D440002360
:1003700034607360BDE8F0874746DDE76346F1E728
:1003800092BB431B01214FEA154EAFB2B3FBFEFCFB
:10039000200C0EFB1C330CFB07F840EA0343984586
:1003A00062D9EB180CF1FF3004D2984502D9ACF1B8
:1003B00002002B44A3EB0803A4B2B3FBFEFC0EFB2C
:1003C0001C330CFB07F744EA0344A7424ED92C190F
:1003D0000CF1FF3304D2A74202D9ACF102032C4442
:1003E000E41B43EA0040C0E7C2F1200320FA03F116
:1003F000954090402EFA03F303434FEA154EAFB2F7
:10040000B1FBFEFC0EFB1C10190C0CFB07F841EABB
:100410000041884504FA02F422D969180CF1FF3032
:1004200004D2884502D9ACF102002944A1EB0801AD
:100430009BB2B1FBFEFC0EFB1C110CFB07F743EA61
:1004400001439F420ED9EB180CF1FF3104D29F42B9
:1004500002D9ACF102012B44DB1B41EA004192E7D7
:100460006046E3E76146F7E76046A3E76346B7E720
:10047000834206D916B9002108467BE7C6E900E0A9
:10048000F9E7B3FA83F78FB9834201D3724508D8ED
:10049000BEEB020460EB030301209C461EB9002161
:1004A00068E73846FAE7C6E9004CF8E7C7F1200CE0
:1004B000BB4022FA0CF41C432EFA0CF120FA0CF388
:1004C000B84001434FEA14490EFA07F5B3FBF9F8B7
:1004D0001FFA84FE09FB18300B0C08FB0EFA43EAE6
:1004E00000439A4502FA07F240D9E31808F1FF30B9
:1004F00004D29A4502D9A8F102002344A3EB0A03CF
:1005000089B2B3FBF9F809FB183308FB0EFE41EA88
:1005100003418E452CD9611808F1FF3304D28E4572
:1005200002D9A8F10203214443EA0040A0FB02984B
:10053000A1EB0E014145CE46434602D306D14D45BF
:1005400004D2B9EB020E68EB04030138002EA6D0EA
:10055000B5EB0E0261EB030101FA0CFC22FA07F382
:100560004CEA0303F940C6E9003198E74046C5E785
:100570004346D9E74FF08050D0F830010F2801D022
:1005800000207047012070474FF08050D0F83001B4
:100590000A2801D000207047012070474FF080509A
:1005A000D0F830010E2801D000207047012070479C
:1005B0004FF08050D0F83001102801D00020704753
:1005C000012070474FF08050D0F83001062803D04A
:1005D000401C01D000207047012070474FF0805030
:1005E000D0F830010D2801D000207047012070475D
:1005F0004FF08050D0F83001082801D0002070471B
:10060000012070474FF0FF307047002070470020F6
:1006100070474FF0FF3070477047704700207047B9
:100620000021017070474FF0FF3070474FF0FF30EE
:1006300070470021017070474FF0FF3070474FF056
:10064000FF3070470078002801D06FF01500704728
:1006500000207047002200F002B8FFF75BBD70B5C4
:1006600014460D46001B6FF07F01884201DA0846F0
:1006700002E07F2800DD7F20194640B2FFF77EFDB3
:1006800028706C7000212044A97040B270BDD8EC75
:10069000F0F4F8FC0002030405060708000000005F
:1006A000000000000000000000000000000000004A
:1006B0000101010102020202030303030404040412
:1006C0000505050506060708090A0B0C0D000000C4
:1006D000000000000000000000000000000000001A
:1006E00000010101010202020203030303040404E6
:1006F0000405050505060606080900002DE9F8436E
:1007000004460568067900AF884628460CF01BFCB5
:10071000034690B9E94688B029686A464748C2E965
:1007200005014FF400719183454942F8101F454877
:100730004FF4E25101F0F4FECD46E38820682179C0
:1007400043F48032D0F810E0D0F8089013F0010F95
:100750004FF0010CDEF800300CFA01FC14BF4CEA3B
:10076000030323EA0C03CEF80030D9F80030984791
:10077000002815DAE9468AB02B686A463249C2E990
:1007800005134FF400739384304BC2E9076042F8BD
:10079000103F2C4800234FF4315101F0C1FECD46EB
:1007A000314628460AF01CFF002815DAE9468AB0CF
:1007B0002B686A462649C2E905134FF400739384F7
:1007C000224BC2E9076042F8103F1E4800234FF455
:1007D000315101F0A5FECD461E4BC8F80430012270
:1007E00002FA06F3C8F80830AB68DB6913B141467A
:1007F000284698472068217983684FF0A0729C6949
:100800004FF0C063A047002815DA6C468AB02B6809
:100810006A461149C2E905134FF4007393840B4BE8
:10082000C2E9076042F8103F064800234FF43151F7
:1008300001F076FEA546BD46BDE8F88318DC000051
:1008400003000001E0D7000032DC000005000001D9
:1008500060DC000009B6000095DC000010B5012244
:100860000F4C104811460CF060FC21460E48FFF773
:1008700045FF04F10C010D48FFF740FF04F118019A
:100880000B48FFF73BFF04F124010A48FFF736FF4E
:10089000094804F13001FFF731FF012010BD00BF0E
:1008A000D00B00200C0C002008D9000000D900005B
:1008B000F8D80000F0D80000E8D800002DE9F04199
:1008C00086B000AF1C4B7B6102243C61002307F122
:1008D00010024FF48651194801F022FE00F008F989
:1008E000174BC7E904431548002307F110024FF4E2
:1008F000865101F015FE4FF4004000210AF090FBF4
:10090000104E114D0D4C30460AF083FEE84688B07B
:100910006A460323C2E9055042F8103F00234FF412
:10092000C651204601F0FCFDC546002140F6CD40F1
:100930000AF076FBE7E700BFD9DC000020D8000012
:10094000E8DC00000BB60000FADC00000248836817
:100950003921DB68184700BF58D7000010B40346A0
:100960000A46034881680C691946234610BC18479B
:1009700058D7000001480CF0E6BA00BF58D7000075
:1009800013B5002300900193074883681C6844B1A5
:100990006B460F223921A047B0FA80F0400902B01F
:1009A00010BD6FF05700F7E758D7000090B583B03F
:1009B00000AFFFF7CBFFA0B16C4688B06A460C4B86
:1009C000C2E90530032342F8103F0A4800234FF4E0
:1009D000C25101F0A5FD4FF6FF70A5460C37BD468C
:1009E00090BD0F203946FFF7B9FF3888F6E700BF02
:1009F00027DD000028D80000B0B586B000AFFFF7B3
:100A0000A5FF103011D04FF44870FFF7B9FF04462E
:100A100080B9184B7B6102233B614FF4825103463E
:100A200007F11002144801F07BFD0024204618371E
:100A3000BD46B0BDFFF7BAFF6D4688B06A460F4BA2
:100A4000C2E90530032342F8103F0B4800234FF45E
:100A5000C65101F065FDAD46094B7B6102233B6148
:100A60000548002307F110024FF4865101F058FDAC
:100A7000DCE700BF49DD000028D800005BDD000096
:100A800069DD000090B587B000AFFFF75FFFD8B118
:100A90006C4688B06A46144BC2E90530032342F81D
:100AA000103F002311484FF4C25101F039FD0022DC
:100AB000A546134692B2002062F30F009BB263F387
:100AC0001F401C37BD4690BD07F108012320FFF7EA
:100AD00045FF07F110012420FFF740FF3B69B7F9FC
:100AE00008205B421BB2E5E727DD000028D80000A4
:100AF00010B586B0FFF73EFF00284ED0364B059369
:100B0000022304933548002304AA4FF4865101F0D0
:100B100007FDFFF7A3FE002844D0314B05930223C5
:100B200004932E48002304AA4FF4865101F0F8FCE8
:100B300000F0B0F90346002839D12A4A0592022272
:100B40000492264804AA4FF4865101F0E9FCFFF70D
:100B500053FF88B300F05AF9034690BB224A05922E
:100B6000022204921D4804AA4FF4865101F0D8FCD9
:100B700000F0FAF8044648BB1C4B0593022304938B
:100B80004FF48651034604AA144801F0C9FC1848E2
:100B90000CF0B8FA204606B010BD212000210AF062
:100BA00036FDA7E7212000210AF031FDB1E7212021
:100BB00000210AF02CFDBBE7212000210AF027FDCF
:100BC000C5E7212000210AF022FDC3E721200021F2
:100BD0000AF01DFDCCE700BF8BDD000030D800001F
:100BE0009CDD0000AEDD0000C5DD0000D2DD0000B0
:100BF0005C03002008B50CF04FFC044AA0FB020384
:100C000002FB0133C00B40EA434008BD40420F00E5
:100C100010B5064C012384F84A300378022B04D126
:100C2000204606F0E3FA0128F9E710BD3001002064
:100C3000B0B586B0002000AF04F0F8FF80B91B4BC0
:100C40007B6102231A483B6107F110024FF4825185
:100C50006FF005040AF0E7FC20461837BD46B0BD2A
:100C600000237B60FB600123BB6039460AF0B0FFC4
:100C7000041E0FDA6D4688B06A460E4B0C48C2E976
:100C80000534032342F8103F4FF4C2510AF0CBFC65
:100C9000AD46E1E7BB689B07FCD1FC68002CDBD0CC
:100CA0006D4688B06A46044BE8E700BFDFDD000010
:100CB00000D80000FFDD000018DE000030B54FF066
:100CC000E73291B04FF0C233CDE901231E4A1F4DE8
:100CD0001068516803AB03C31C460FCD0FC42B68CB
:100CE000236001238DF81D30194B069305A840F2AF
:100CF0000113ADF8263006F04BF9044660B1154BF0
:100D00000F93154802230EAA4FF482510E930AF056
:100D10008AFC204611B030BD01A806F0B7FA04469F
:100D200008B10E4BECE702A806F0D2FA044608B16F
:100D30000B4BE5E7082103A806F0ECFA044600286F
:100D4000E7D0084BDCE700BFA5DE0000C0D80000FC
:100D5000110C000037DE000000D800004EDE00005D
:100D60006BDE000088DE0000F0B587B06E4600AF95
:100D70001B4B1C487B61022507F110024FF4865182
:100D80003D610AF050FCFFF753FF88B9FFF796FF6B
:100D9000044698B188B06A46134BC2E90530032374
:100DA00042F8103F0F484FF4C2510AF03CFCB546E0
:100DB0004FF0FF3420461C37BD46F0BD0B4B0948B1
:100DC000C7E9045307F110024FF486510AF02BFCD7
:100DD000074B012283F84A2083F82840EAE700BF46
:100DE000AEDE000000D80000CEDE0000E6DE00002F
:100DF00030010020014B00221A707047481C00206F
:100E0000014B1871704700BF1C0C002010B586B054
:100E10001848194C09F0C6F80346206070B9174A03
:100E2000059202220492164804AA4FF482516FF0F0
:100E3000120401F075FB204606B010BD114B12499B
:100E40003E2203F0CFFE20680BF0A4FB044658B10D
:100E50000E4B0593022304930948002304AA4FF480
:100E6000825101F05DFBE6E7094806B0BDE810409D
:100E700002F0FABB0EDF00001C0C002014DF0000A3
:100E800078D8000010D9000056DF000035DF0000E0
:100E9000010E00007FB50B480CF055F8034670B901
:100EA000094A059202220492084804AA4FF482518A
:100EB00001F036FB4FF0FF3007B05DF804FB002077
:100EC000FAE700BF28D7000094DF0000A8D8000090
:100ED0002DE9F04F91B08407009302F004030293D0
:100EE000C2F3C20303F10103DDF8688003920546F3
:100EF0000E46059340F0BE81041D30B1072909D884
:100F00006FF01B0011B0BDE8F08F01F00706341D33
:100F1000C6F10806009B4FF00009591E4FF0040A65
:100F20004FF0FF330193CDF810904F46CB46534618
:100F30000DB1009A22600598002800F3EB809A48D2
:100F4000009A824203D399488242C0F0E380039A18
:100F5000A4EB050E92074FEA9E0000F106810F2FC9
:100F600000F2B480002D00F0088107F140020DEB83
:100F7000020C019A0CF8200C0CF8102C049801308B
:100F80000490EAE07A2860D84B280ED847285CD82D
:100F900029282FD8252855D057D820287DD0233868
:100FA000D0F1000B4BEB000B77E0A0F14C0CBCF147
:100FB0002E0F4AD8DFE80CF071494949494949499F
:100FC000494949494C49494949494949495A494C7A
:100FD0004C5A5A5A714C6E497149184C18494983F8
:100FE000804C49494C49800000204FF0000B4FF0E5
:100FF000040A39E0A0F12A0C5FFA8CFC012202FA03
:101000000CFC1CEA0E0F48D11CF062502ED11CEAD9
:10101000020B42D0013C5444CAF1000C04EA0C0417
:10102000002D61D0A3EB050CA444B4453FF668AF96
:10103000002868D1042B47D158F8043B23600434BE
:1010400004232AE0019A013A01924FF0000B24E0B8
:1010500011F8010C6C2834D111F8023C00206C2BE3
:101060008346C4D14FF0080A5346D3E708F1070876
:1010700028F007080734F8E802AB24F0070435B17C
:1010800006982044B0423FF63BAFC4E900AB0834B9
:101090004FF0000B4FF0080A534611F8010F0028DB
:1010A00078D0BBF1000F7FF46DAF2528F5D1019BFF
:1010B000013301934FF0010B4FF0040AECE758465F
:1010C00093E700208346A5E7082B02D06FF01500B8
:1010D00018E708F1070828F00708F8E80223C4E930
:1010E000002308340823D8E768B9042B02D108F19B
:1010F0000408A4E7082BE9D108F1070828F007083D
:1011000008F10808EDE7059A013A059258F8042B12
:1011100000920DE7039A900720D5A4EB050E4FEA45
:101120009E004FF0010CBEF5007FCFD20F2FCDD81F
:10113000F5B107F140020DEB020EC0B2019A0EF8B4
:10114000200C0EF8102CBCF1000F3FF417AF60F02C
:101150007F000EF8200C09F101090137C5F10802E2
:10116000043406924FF6DA7E97E74FF0000CDAE788
:10117000BCF1000F01D00136EFE7029802360028DB
:10118000EBD10098CDE906310BF0AAF9DDE9063183
:101190000644E2E7631BB3F5806F97D245B9A6F129
:1011A0000804E018AEE600BF38D60000380301009E
:1011B000029A28609B082B709DF81030C2B1EB702A
:1011C00085F80290B9F1000F05D008A80022C5F1FA
:1011D000010C97420ED1C5F101030DF120084FF02B
:1011E000000A01930DF1300B574512D1601B89E6BF
:1011F0006B70E5E710F8013B190608D504EB0C0EFF
:10120000B64503F07F033FF67BAE04F8013B0132A5
:10121000DFE7B9F1000F03D098F90020002A17DBAF
:10122000029BD3B11AF80B2004F8012B0022019B7A
:1012300098182044B0423FF663AE98F8000004F8D6
:10124000010B0099039220460BF066F9039A1444AF
:101250000AF1010A08F10108C6E798F8002055F8DC
:1012600022300093029B45F8223000980BF038F9A9
:10127000421CDCE76FF00D0044E600BF2DE9F04FA3
:1012800095B000AF0446D7F878B0BB61CBF3C0038C
:101290007A623B61396251B903784678807800EB15
:1012A000830020443B6A9E421AD8031B3B6294F899
:1012B00002A0E3787B615646BAF1000F02D01BF022
:1012C000010F17D17B695BBB7B6A1BB1BA69396AB5
:1012D000204698473D6A28465437BD46BDE8F08F02
:1012E000451C28460BF0FCF83B6A013001332844CA
:1012F0003B62D7E794F800806368FB617B6A4FEA42
:101300008802FA6004EB8808002B40F001813D6AF6
:10131000C1460AEB080300264B454ED1D04413E0EA
:101320001BF0020FD0D094F800804FEA8803FB60D6
:101330006368FB617B6A04EB8808002B78D13D6A07
:10134000BAF1000F4ED156461BF0050F0CBF022319
:1013500001237B627B6908EB430A0BF002033B62CB
:10136000D045B8D018F8021B18F8013C54F8239067
:10137000AC4B994502D3AC4B994539D33B69002B13
:1013800043D0F8690AF083F900283ED0E9468AB0D4
:101390006A46A64B5361FB69C2E906314FF40073FC
:1013A0001384A34B42F8103FA24800234FF412517C
:1013B00001F0B6F8023DCD46D2E719F8012B7B6269
:1013C00054F822000BF08CF8FA6F7B6A01303AB1C6
:1013D000D7F8802096423EBFFA6F22F816000136F9
:1013E000054499E71BF004061CBF7E6AD044ABE7B6
:1013F0003B6923B1F8690AF04AF90028C6D11BF00D
:10140000010F05D17B6AED1AAAE73B6A002BA7D032
:1014100048460BF065F8FB6F43B1D7F880309E4229
:101420003FBFFA6F431C22F816300136054497E798
:10143000BAF1000F71D01BF0040671D0D14600261E
:1014400007F14000524641460BF066F87B695B00AD
:10145000BB607B69D04408EB43037B610BF0020364
:101460007B607B6998455DD12378FB6163781BF0D5
:10147000020F06EB03020CBF4FEA590100211BF0DB
:10148000010FD2B240F09D801BF0040F14BF4846FC
:10149000002094F802B094F803803B616270A07061
:1014A000E170BA69F9687B6A20469847051EFFF625
:1014B00012AFFB6923703B69637084F80380BA69DB
:1014C0007B6A84F802B0494607F140009847B0F1C2
:1014D0000008C0F2A3803B6ABA697869A3EB0A01ED
:1014E000FB68C91ABB68C91A7B6A98470028C0F212
:1014F0009780A84408EB00054FF0000B07F1300A75
:10150000B34560D30021BA697B6A08469847E2E692
:101510004FF0000907F1300094E75646D14695E7B1
:10152000B14693E718F8021B3E4A18F8015C54F8DC
:101530002530934202D33C4A93421CD33B6923B1EA
:10154000F8690AF0A4F800288BD17B68F3B909F197
:10155000280207F12800024409F1010302F8101CD7
:1015600007F1500252FA83F309F102095FFA89F98F
:1015700003F8105C75E73B692BB1F8690AF087F84E
:1015800000287FF46EAF1BF0010F09D006F128028E
:1015900007F12801731C561806F8205CDEB260E7DC
:1015A0001BF0040F3FF45DAF09F1280207F1280199
:1015B00009F1010302EB010909F8105C5FFA83F9F4
:1015C0004FE7002065E71BF80A3087F82F3054F802
:1015D0002390FB6FFBB133F81B80BA697B6A012152
:1015E00007F12F00984700281ADB0544B8F1000FD7
:1015F00006D148460AF074FF00F101081FFA88F886
:10160000BA697B6A414648469847002808DB05448A
:101610000BF1010B74E7D7F87C80DEE745465AE60C
:10162000054658E638D6000038030100AADF00005E
:1016300004000001E8D70000014B1860704700BFAC
:101640001400002030B587B00025CDE90301044621
:10165000009503A90548059500F018F9DDE9043067
:101660009842B8BF255407B030BD00BFDDB60000BA
:101670002DE9F047058B04462807904611D402292E
:1016800005F0070540F0CD8020460AF03EFA78B11B
:101690000138218B042811D8DFE800F0C3106D85D4
:1016A000950001290CBF45F0100545F02005258364
:1016B00088F31188BFF36F8FBDE8F08701F0070A48
:1016C000AA4500F0A6800027B9463E46A368002B35
:1016D00000F0BD8041F00801218388F31188BFF339
:1016E0006F8FA168002900F0BB800D68002900F011
:1016F000B780D1F80480334652462046C047002DBB
:1017000076D02B6829461D46F0E701F007035A1FE3
:10171000012A1BD8002221F00701062B276889B275
:10172000C4E9002209D13B4603E0628B01326283A7
:101730001B68002BF9D141F00201218320460AF0F9
:10174000E4F900287BD041F0200177E0042B0AD196
:1017500021F0070189B2218320460AF0D6F910B1A1
:1017600041F020012183218B01F0070AAA4550D0C6
:101770000027B946AAE7236921F0070141F00601D5
:10178000062DD3F8009021832DD1B9F1000F40D060
:1017900041F00801218388F31188BFF36F8F3A4924
:1017A0002046C84729E021F00701236941F00401E0
:1017B00089B2042DD3F804902183E6D000273E4659
:1017C0004FF0040A82E721F00701236941F0050187
:1017D00089B2052DD3F808902183D6D000273E4644
:1017E0004FF0050A72E700273E464FF0060A6DE704
:1017F0002B4687E7B9F1000FD1D14FF04003EFF34B
:10180000118883F31288BFF36F8F238B23F00803B3
:101810002383258BEA062ED525F01003238305F0BC
:1018200007056669218B002EBFF66FAF002327687E
:10183000C4E9003321F0070141F001012183218B2C
:1018400001F0070AAA454FF000097FF43FAF002FCF
:101850009BD041F00801218388F31188BFF36F8F7B
:10186000002FC7D03D6839463346524620460AF01D
:1018700078F92F46F4E7AB067FF51AAF25F0200381
:10188000238305F00705FFE68FBB00002DE9F04F2D
:10189000814695B08B4617461C460025387808B916
:1018A000284658E37B1C2528039306D05946C84791
:1018B0000028C0F250830135FBE1182200210EA858
:1018C0000AF035FE7B78252B7DD00023781C9846C6
:1018D0009E469C461E46014610F8012B2B2A00F01E
:1018E000A18000F29880202A00F09F80232A00F037
:1018F0009F802BB19DF8403043F040038DF840307D
:10190000B8F1000F05D09DF8403043F020038DF86A
:101910004030BEF1000F05D09DF8403043F0100379
:101920008DF84030BCF1000F05D09DF8403043F0F9
:1019300008038DF840302EB19DF8403043F0040389
:101940008DF840309DF8403003F04400442803D126
:101950006FF386138DF840309DF840302A2A43F00B
:1019600080038DF840307FD19DF8412042F0010284
:101970004B1C8DF841201A782E2A9DF841200CBF6F
:101980000121002161F341028DF8412078D15A787C
:101990002A2A6ED0013300224FF00A0C194611F8A2
:1019A000010BA0F13006092E40F295809DF8401001
:1019B0001292C1F3400040EAD2700A4660F341023D
:1019C0008DF840205CE0BA1C03928DF843309DF8FE
:1019D0004130DA0740F12E8154F8048BB8F1000F42
:1019E00007DA9DF8402042F004028DF84020C8F14B
:1019F00000085E0740F1278154F804ABBAF1000FEC
:101A000080F226819DF841306FF341038DF841301B
:101A10004FF0FF3A1CE12D2A0DD0302A7FF469AF38
:101A2000012358E74FF0010C55E74FF0010E52E744
:101A30004FF001084FE701264DE70EFB0262303AF6
:101A40000346184610F8016BA6F1300CBCF1090FE3
:101A5000F3D999428FD09DF840101192D20F62F3C2
:101A600041018DF8401086E70B4600224FF00A0E28
:101A7000E7E79DF8412042F004028DF8412002334F
:101A80001A786C2A47D02BD8682A31D06A2A4BD0D2
:101A90004C2A51D01A4612F8013B0392782B9DF83C
:101AA00041208DF8433000F2BE806D2B51D8692B58
:101AB00000F2B980572B67D8412B03D0453B022B4E
:101AC00000F2B1809DF84230042262F302038DF8E7
:101AD0004230012373E00CFB0202303A0B465DE713
:101AE000742A25D07A2AD5D19DF8412006210CE010
:101AF0005A78682A9DF8412006D1012161F3C60277
:101B00008DF841200233C5E7022161F3C6028DF84A
:101B100041200133BEE75A786C2A9DF8412001D15B
:101B20000421EBE70321F0E79DF841200521ECE7D4
:101B30009DF841200721E8E7BDF8402022F4F0425B
:101B400022F0020242F4804242F00202ADF840204C
:101B5000DFE76E3BD9B201238B4040F282410B425A
:101B600037D113F0240F51D1D8075CD59DF84230FE
:101B7000032161F302038DF8423002F07803A3F1F0
:101B800040014B424B411AE0A3F15801C9B2012078
:101B900000FA01F111F4624F94D140F6010631428E
:101BA0001DD111F4043F3ED09DF8423060F3020392
:101BB00002F07802402A8DF8423034D000239DF89C
:101BC0004020C2F340010B4363F341028DF84020F3
:101BD000FDE69DF84230022161F30203E8E79DF83B
:101BE0004210022002F0780260F30201402A8DF8D0
:101BF000421002BF9DF8401041F001018DF84010E5
:101C0000632BDBD1131E18BF0123D8E79DF84230A8
:101C1000032161F3020312F0780F8DF8423014BFF4
:101C200001230023CBE79DF8403043F001038DF8FA
:101C30004030C3E79DF94020002AB4BFDDF844805E
:101C40004FF0FF38D5E698077FF5E2AEDDF848A003
:101C50009DF841100023CDE911339DF8423003F087
:101C60000703012BC1F3C30133D1CB1E042B04D8CE
:101C7000DFE803F0214646212100236801294FEACD
:101C8000E372CDE90E321CD19DF93830DA17CDE977
:101C90000E3204349DF8403013F0030650D0039BFD
:101CA0003A46594648460AF090F80028C0F2538157
:101CB0000544039FF2E554F8043BDA17CDE90E32F0
:101CC000E8E70229E5D11AB243F3C033CDE90E2388
:101CD000DFE7022B24D1CB1E042B04D8DFE803F06E
:101CE000181010181800012954F8043B4FF0000296
:101CF00014D00229CDE90E32CCD19BB20E93C9E7A4
:101D0000073424F00704F4E80223CDE90E23C1E7E9
:101D100054F8043B0E9300230F93BBE7DBB2CDE7EF
:101D2000042B08D1073424F00704D4E90023083435
:101D3000CDE90E23AEE7032BACD154F8043BDDE72D
:101D40009DF843007828B4D862281CD825283FF491
:101D5000ADAD5828ADD10DF136030093DDE90E018C
:101D600008AB10AA09F0EBFFBAF1000F074680F2AA
:101D70009A80002F9DD00DF13603D81B002E00F065
:101D8000C1800130BEE06338152892D801A252F814
:101D900020F000BF691E00007B1E0000B31C000085
:101DA000B31C0000B31C0000B31C00007B1E00002D
:101DB000B31C0000B31C0000B31C0000B31C0000E7
:101DC000091F0000A11E0000C71E0000B31C000078
:101DD000B31C0000ED1D0000B31C0000A11E00009C
:101DE000B31C0000B31C0000A11E0000BAF1000FDC
:101DF0000E9F35DB514638460AF079FB07EB000AA7
:101E0000002F3FF456AF00269DF8423013F0100229
:101E1000059200F0938002305B06119A48BF129B36
:101E20000492104448BFC018B8F1000F40F3A080DE
:101E30009DF84020A8EB0008C2F3800350070693EA
:101E400000F19680510640F189803EB159463046F6
:101E5000C84700287FDB069B01351E4630227EE006
:101E600038460AF03DFBC9E70E9B8DF8203000266E
:101E700008AF0DF1210A0120C6E719075CBFC3F3C3
:101E800000135E01DDE90E2348BF2B26002BBFF6B1
:101E900062AF524263EB4303CDE90E232D265AE78E
:101EA000002658E700269DF840200DF13603DB1B85
:101EB0006FF386129A458DF840207FF65AAFAAEB51
:101EC0000303119355E70E9890B30DF13603009379
:101ED00010AA08AB002109F032FFBDF8423003F030
:101EE000EF0343F4F04343F01003BAF1000F074649
:101EF000ADF84230D6DA00283FF4DBAE0DF1360300
:101F0000181A00269A467FE70E9B07293FF6D1AEA6
:101F1000DFE801F00C04060C08080C0C1D70C8E684
:101F20001D80C6E6EA17C3E90052C2E61D60C0E69E
:101F30002E4F064607F1050A052065E71A0748BF38
:101F4000013069E70793104606925946C8470028B2
:101F5000DDE9062304DA15B0BDE8F08F2022434600
:101F60001946002903F1FF33ECDC45446D1A98460D
:101F70002EB159463046C8470028ECDB01359DF8A4
:101F80004230DA0601D41B0705D559463020C84730
:101F90000028E0DB0135059B33B19DF8430059462D
:101FA000C8470028D7DB0135049E2E4405E059467A
:101FB0003020C8470028CEDB0135731B002BF6DC30
:101FC00053463A465946484609F0FFFE0028C2DB10
:101FD0000544A844A8EB0503002B7FF76AAE5946D9
:101FE0002020C8470028B6DB0135F3E75EE000009B
:101FF00005F0C8BF2DE9F047DFF8588004460746D2
:102000004FF0010914B93846BDE8F08794FAA4F5F9
:10201000B5FA85F509FA05F32E0108EB05156FEA07
:10202000030A24EA03042B7B002BEBD058F806307C
:102030001B694BB94644042273682846196807EAAD
:102040000A0700F059FADDE7284698470028D9D159
:10205000F0E700BFB0D8000030B51049104889B093
:1020600000220BF041FA0F4D0F4900220023CDE969
:10207000062300240E23CDE90334CDE901440B4BA4
:1020800000944FF44072284608F096F90849284613
:102090000AF0ADFF204609B030BD00BFB5200000FA
:1020A000B00800202804002000230020A523000001
:1020B00064E00000014808F00DBB00BF4C030020A5
:1020C0002DE9F04780461F480F460AF0FEF8064605
:1020D000002830D000252846BDE8F087237B73B167
:1020E0002368DB680BB12046984723681B69D3B986
:1020F000636804221968204600F0FEF901361034A6
:102100004C45EBD3B8F1000FE5D0002DE2D02846C6
:10211000FFF770FF0546002FF7D000214FF4A470A1
:1021200008F07EFFF1E7204698470028E0D00AFA41
:1021300006F31D43E2E7044CDFF8109005464FF02C
:10214000010ADDE7340C0020B0D80000C0D8000040
:10215000014B53F82000704738D9000008B50346FA
:1021600008462BB1044A136000F078FC002008BD3B
:102170006FF01500FBE700BF1800002010B5044CFD
:10218000237813B9034808F0A5FA0123237010BD82
:10219000491C00204C03002010B5044608480AF0F2
:1021A00094F85CB1BFF35B8F064B53E8001F013915
:1021B00043E80012002AF8D1BFF35B8F10BD00BFC7
:1021C0002C0C0020300C00200020064BBFF35B8F4E
:1021D000014653E8000F43E80012002AF9D1BFF38B
:1021E0005B8F70472C0C002070B5FFF7EDFF084C9B
:1021F000084E0546B44200D370BD63685B792BB1CD
:1022000023685B6813B12946204698471034F1E7EC
:10221000B0D80000C0D8000010B5044C04492046D6
:1022200009F0E4FE034B1C6010BD00BFCC0200208F
:1022300024D90000240C0020084A094808B50023CE
:102240001370084A1360084A4FF400411360FFF707
:1022500085FFBDE80840FFF7DFBF00BF4A1C002034
:10226000C7C200002C0C0020300C002001460022C8
:102270000148002309F0DBBECC020020014809F030
:1022800074BF00BFCC020020024B0146186809F061
:10229000BEBF00BF240C0020014809F0F4BF00BFFE
:1022A000CC02002070B5284B187800284BD0FFF7DF
:1022B000E5FF054690B1BFF35B8F244B53E8001F49
:1022C000013943E80012002AF8D1BFF35B8F204C9C
:1022D000204EB4422DD32846FFF7D6FF1E4B1F4C8D
:1022E0001B68002B19DD0BF0D7F84FF47A72A0FBB6
:1022F000020302FB0131C30BD4E9002043EA41434E
:102300009B1A4FEAD13140F2E93261EB000193426E
:1023100071F1000101D3FFF767FFD4E9003213F533
:102320007A7342F10002C4E90032BDE87040FFF761
:10233000B3BF63685B7923B1236829461B682046D5
:1023400098471034C5E770BD491C0020300C0020B0
:10235000B0D80000C0D800002C0C0020A808002035
:1023600070B50D4D297861B90120FFF7A9FE0B4C1E
:102370000B4EB44206D3FFF795FF0028FBD1012393
:102380002B7070BD63685B791BB1236820469B6826
:1023900098471034EDE700BF4A1C0020B0D8000079
:1023A000C0D8000000212DE9F0470846FFF788FE5D
:1023B000044648B340F267684FF0000908F064FE35
:1023C0001A4B186030B11A4B1B68092B02DD1948F3
:1023D00008F080F9184FDFF85CA0002544B12046D2
:1023E000FFF708FE044618B94FF0FF384FF0FF39E9
:1023F000FFF758FF064628B9B5B942464B46504646
:1024000008F088F93546E9E74FF0FF384FF0FF391B
:10241000D4E72B689B691BB10022114628469847D8
:102420001035BD42F5D3E8E7044DFAE7280C00204B
:10243000300C00204C030020C0D80000B0D80000B1
:1024400013B5184809F041FF174B1B787BB14FF0CB
:102450004003EFF3118483F31288BFF36F8FFFF70C
:1024600021FF84F31188BFF36F8F02B010BD0F4BB3
:102470001B68002BF9D050B900220023CDE90023BE
:102480000B484FF40042002309F042F8EDE70A2818
:10249000EBD107480BF034F8064802B0BDE8104015
:1024A00008F018B9300C00204A1C0020280C00202D
:1024B000B00800204C03002010B5064B1B680446F2
:1024C00098472146A060044809F02FFEBDE810405F
:1024D000FFF7B6BF18000020CC020020044A054BCD
:1024E0009B1AB1EBD30F34BF52F831000020704774
:1024F000A8D70000B0D80000084BC31A10B41B11B5
:1025000044680133237143689A71436819604368D2
:1025100001225A7110BCFFF731BE00BFB0D80000D5
:102520002DE9F04F8FB004AFC1F34A28B8600D46D3
:1025300091467B600C0DB8F1000F63D0002607F1C7
:1025400014034FF0040B4FF00A0AC7F80C80C7E9D8
:1025500007667E620193CDF808B0CDF800A007F1C0
:102560001C03F96832464846FEF788FEB0F5006F56
:1025700003461CD36C468AB0D9F8041004AB264835
:10258000C3E9050140F2FF71D9611A464FF40071A9
:102590001984224B42F8103F214833464FF4125120
:1025A000FFF7BEFFA5462C37BD46BDE8F08FC0F350
:1025B0000A0804F11700184420F0070080083B6067
:1025C000FFF754FE68F35325044690B13B68154A63
:1025D000C7E9083600F1100107F11403F961CDE9EC
:1025E00000A3CDF808B0F96807F11C034846FEF7D0
:1025F00045FE68F353257B68B9682A46204609F0F2
:102600009AFED0E704F1170020F007008008FFF7DA
:102610002DFE0446EDE700BF79E000000400000154
:1026200010D800000BC300002DE9F04F87B0DDE9A2
:102630001269DDE9105A04460F4693469846A6B340
:102640001021CDF80090334652460020CDF814906A
:10265000FEF73EFC014605F117000844144B0391B8
:1026600004F007040BF0070BE40020F0070003EA76
:10267000412344EA8B1480081C43FFF7F7FD44EA2A
:102680000554054640B13EB10399CDF8009033465C
:1026900052461030FEF71CFC434622463946284677
:1026A00007B0BDE8F04F09F046BE3146D3E700BFA2
:1026B00000FE0F000EB403B503AB014653F8042B24
:1026C0000448019309F05DFE02B05DF804EB03B02D
:1026D000704700BFABC30000CA0605D48B064CBFD1
:1026E00002490349FFF7E6BF704700BFB9E00000A9
:1026F000B8E000002DE9F04F89B09B469DF84830C6
:102700000493DDE913930593049B0692DDE91576A6
:1027100004460D46002B00F0878006F0080307935F
:1027200009F0F1FD06F0020A024600284BD0864966
:102730002046FFF7BFFF8046BAF1000F08D016F021
:10274000440F42D181492A462046FFF7B3FF804417
:1027500006F001035BB17E4B049A7E4953F82220B8
:102760007D4B2046002A08BF1A46FFF7A3FF06F05C
:102770000803002B55D0794B049A794953F822204D
:102780002046FFF797FF0546069B2BB175491A4671
:102790002046FFF78FFF0544BBF1000F05D07249BB
:1027A0005A462046FFF786FF05444544B9F1000F1D
:1027B00049D1002F4FD1F30700F1C08031462046A8
:1027C000FFF78AFFB4E08046B6E7684B1868002838
:1027D000BDD0674B4FF47A7E1B68B5FBF3F54FF421
:1027E0006162B5FBF0F300FB1355B3FBF2FA0EFB8D
:1027F00005F502FB1A323C21B5FBF0FCB2FBF1F30C
:1028000000FB1C5501FB13220EFB05F50092B5FBE6
:10281000F0F55849CDE901C552462046FFF74AFF79
:1028200095E706F00805AFE7BBF1010F06D1B9F156
:10283000000F64D1002F7BD000250CE0B9F1000F10
:10284000F8D04D485CE04D484D494B46224608F0D3
:10285000EDFE002F68D0DFF82C91DFF82CA1102FAF
:1028600031462046B84628BF4FF01008FFF734FF26
:102870004FF0000B5D4545DC059B51461A7820461C
:10288000FFF718FF4FF0010B1BF0070F03D149466C
:102890002046FFF70FFFD8453BD9059B514613F85B
:1028A0000B202046FFF706FF0BF1010BBBF1100FC9
:1028B000EAD1364920464FF0000BFFF7FBFE5A469F
:1028C000059B9A5CA2F120015F2928BF2E22304986
:1028D0002046FFF7EFFE0BF1010BBBF1100F1DD0EF
:1028E0001BF0070F03D149462046FFF7E3FED8450A
:1028F0005A46E5D849462046FFF7DCFEEBE71F487D
:10290000049DA1E749462046FFF7D4FE0BF1010BD9
:10291000B0E720492046FFF7CDFEC5E7059BB7EBA2
:102920000807434405939AD1049B002B7FF443AFDF
:10293000204609B0BDE8F04F09F02ABD064A054916
:102940002046FFF7B7FE39E7C0E00000C4E0000012
:1029500048D90000EEEB0000BBE000005CD90000AD
:10296000E9E00000EFE00000F3E000003C0C002094
:10297000380C0020CDE00000E1C30000ABC3000034
:1029800083C3000000E10000F8E0000002E1000065
:1029900004E10000FEE000002DE9F0410F884B68E3
:1029A0008E6886B005460C469046C7F382175BB129
:1029B000134A9B1A43F3CF0100291FDB2078C0F391
:1029C000C200FFF78BFD03462146608851F8102BAB
:1029D0000097C2F34A22002A01EB0204C0F30B1055
:1029E00008BF0021CDE90308CDE9011400223146DA
:1029F0002846FFF77FFE06B0BDE8F0810023E3E73D
:102A0000A8D7000073B542F20F738B4228BF0B4664
:102A100005680F4A04460521684608F07FFE636892
:102A20000C495B6806460B22284609F09DFC63684A
:102A30003246694628465B6809F096FC6368064999
:102A40005B681B22284609F08FFC02B070BD00BFF6
:102A500015DE000023E1000007E10000074A002125
:102A60000123904206D8064A01B901231360054BA1
:102A70001860704740085B000121F2E740420F00F8
:102A8000380C00203C0C0020014B01221A707047CA
:102A90004B1C0020014B002019607047540C002093
:102AA000024B034801221A7009F072BC4C1C002032
:102AB0008CD900000148FFF7A5BF00BF8CD90000EA
:102AC00010B5064B18680C46FFF742FB214603463B
:102AD000BDE8104002480F22184700BF540C0020E8
:102AE0008CD9000010B9074B18707047064B1B7843
:102AF0001BB141F288300AF0D1BCA420002108F0BB
:102B00008FBA00BF4B1C00204C1C00202DE9F8435D
:102B1000DFF874901D4F80460E46042499F800504B
:102B200095B907F02FFA28463246414607F0ACF92E
:102B3000054607F031FAE5B101233B7099F8003002
:102B400073B93046BDE8F88332464146002007F0AD
:102B50009BF90546EFE72046FFF7C4FF651E2C46AC
:102B6000002007F005FA0028EBD03B78002BF2D1CB
:102B7000E7E73B78002BE4D0013C2046FFF7B2FFAB
:102B80003B78002BCAD1DCE74C1C00204B1C0020FA
:102B90002DE9F84305464FF04003EFF3118683F328
:102BA0001288BFF36F8F0E4B0E4F1C68DFF8388012
:102BB0004FF00C092CB986F31188BFF36F8FBDE875
:102BC000F883D4E90123002D18BF13462BB198F8E0
:102BD000102009FB02F2B85C98472468EAE700BFBE
:102BE000700C0020640C0020EC1B002070B5194B09
:102BF0001C7CBFF35B8F04F01F0301229A40164B2D
:102C0000610903EB8103D04353E8001F01EA00058B
:102C100043E80056002EF7D1BFF35B8F0A4213D072
:102C20000E4B0F4D8BB10C236343EA18E85C5178CF
:102C300009F0A3FC0020FFF7ABFF0C235C432A192B
:102C400000232B51C2E9013370BD83F31188BFF318
:102C50006F8FEFE7EC1B0020780C00207BC5000095
:102C6000640C00202DE9F041354B07461D7C4FF0E8
:102C70004003EFF3118883F31288BFF36F8F0C24A6
:102C8000304B314E6C431A19195D00294CD007CADC
:102C900006EB040C8CE8070000221A5588F3118813
:102CA000BFF36F8F0C236B43F218F05C002839D010
:102CB0007B1C10D0D2F808C0244C254A4FF40040A9
:102CC0000021ECFB004100232046FDF709FA012119
:102CD000381A03F09FFF08F0E9F80120FFF758FFCA
:102CE000BFF35B8F1B4B6A0903EB820305F01F01E7
:102CF00001228A4053E8000F104343E800010029F5
:102D0000F8D1BFF35B8F144B3BB10C2303FB05F0F1
:102D10003318305C597809F024FCFFF767FF08F09E
:102D2000D9F80120BDE8F0810146284600F016F8E8
:102D30000028B3D007C8344484E80700AEE700BFDA
:102D4000EC1B0020580C0020640C00203F420F00B8
:102D500040420F00780C002063C500002DE9F04FC1
:102D600085B00E4603A900F043F81E4B039DD3F82F
:102D700000A0DFF87480431E1BB203EB430304463C
:102D800005EB83054FF400474FF0000B24B9A14633
:102D9000484605B0BDE8F08F6868144AC4465946F5
:102DA000E0FB07C100236046FDF79AF90190A8688F
:102DB0000E4AC4465946E0FB07C100236046FDF7B2
:102DC0008FF9BAF1FF3FA94601D0824505D9731C9E
:102DD000DED0019B1844B042DAD9013CA4B20C3DCC
:102DE000D4E700BF1C0000203F420F0040420F000C
:102DF00008B9024B0B600020704700BF9CD900004F
:102E0000F0B40C4B0C4E5F6A0C4BB34203D36FF023
:102E10008500F0BC70475D68BD4209D31C693CB1B8
:102E200095F802C00579AC4502D12346F0BC18479D
:102E30002433EAE77C0C0020240400200004002056
:102E40002DE9F047134CDFF85080DFF8509005462D
:102E50000E461746444503D36FF08500BDE8F08762
:102E60006268D9F824309A4212D3A36983B190786A
:102E70002979884205D13A4631462846BDE8F047CF
:102E800018475279012A03D13A46314628469847D5
:102E90002434DFE700040020240400207C0C002000
:102EA0002DE9F0410B4CDFF8308005460E46174601
:102EB000444502D36FF0850009E063690BB92434FF
:102EC000F6E73A463146284698470028F7D1BDE84C
:102ED000F08100BF000400202404002002480822E2
:102EE000002109F024BB00BF370D002070B50B4B4B
:102EF0000B4CA34201D3002070BD196A1E7F002233
:102F00000439D5B2AE4201D82433F2E7013211F8C8
:102F100032508542F5D10120EEE700BF00040020C9
:102F20002404002008B509480378C3F341130A3389
:102F300050F823303BB100F1080200F1100198472E
:102F4000C043C00F08BD1846FCE700BF7C0C002042
:102F50007FB5084B0593022304930748002304AA76
:102F60004FF48251FFF7DCFA4FF0FF3007B05DF805
:102F700004FB00BF62E1000088D8000073B5C4B252
:102F800063060D468DF8074007D02046FFF7AEFFD9
:102F900078B10D4B93F8BA0058B10B4E204655B19D
:102FA00002F024FBF3691BB10DF1070108209847DB
:102FB000012002B070BD02F053FBF369002BF7D083
:102FC0000DF107010920F2E77C0C002080B500AF6D
:102FD00088B06A46074BC2E90530032342F8103F28
:102FE000054800234FF4C251FFF79AFA0020BD466E
:102FF00080BD00BF87E1000088D8000004282DE9CB
:10300000F74FDFF89C9004460F4615D001282FD1CA
:10301000DFF8908098F8B93053B300F0F3FD224DFB
:103020004D4522D22A6A4FF0000A2B7F5FFA8AF6BA
:10303000B34204D82435F3E7FFF750FFE8E702EB8B
:10304000C6060192307909F0C9FA8346307909F051
:10305000D5F9D8F8C430019A23EA0003BBF1000F78
:10306000C8F8C4300AF1010ADFDA002388F8B93061
:103070000D4D4D4508D30B4B1B6A6BB139462046AD
:1030800003B0BDE8F04F1847EB681BB13A46214644
:10309000284698472435ECE703B0BDE8F08F00BF21
:1030A000240400207C0C002000040020F8B500AFB0
:1030B000054609F093FA10F1780F044613D090B149
:1030C0006E4688B06A460E4BC2E90535032342F8C6
:1030D000103F0C4800234FF4C251FFF721FAB546C8
:1030E0002046BD46F8BD284609F088F9064AD2F8C0
:1030F000C43023EA0003C2F8C4300024F0E700BF64
:10310000A2E1000088D800007C0C0020F0B583B05C
:1031100000AF04468078387023796279274D43EAFE
:1031200002237B80E37803F003033B7109F066F927
:10313000D5F8C430184206460CD0A478204600F0DA
:1031400043FD2046FFF7B2FF09F04BFF10B9962070
:1031500007F080FF384602F015FA10F1780F0346A9
:10316000387814D09BB16C4688B06A46144BC2E9DB
:103170000530032342F8103F124800234FF4C25198
:10318000FFF7CEF90020A5460C37BD46F0BD02F092
:10319000A3FA10F1780F08D038B16C4688B03B78AC
:1031A0006A460949C2E90513E3E7D5F8C4300120AE
:1031B000334385F8B900C5F8C430E5E77C0C00203E
:1031C000C4E1000088D80000E8E100002DE9F047E4
:1031D000A34EB36904460F461546FBB9237803F0A6
:1031E0001F03012B00F09D80022B00F0048133BBF4
:1031F00094F900002A686178002834DA062912D090
:1032000008292BD0D9B901231370517096F8C33017
:103210005B0043F00103137002232AE19847002862
:10322000DCD100200DE06288100A011F01298446CC
:1032300005D9072803D8716AD2B20C781CB96FF08F
:103240001500BDE8F0874E78664503D19A4200F03C
:103250000B8101332144F0E70B780AE196F8BA308C
:103260001370012305E101390829E8D801A353F8B7
:1032700021F000BF0D3300003F3200001B3300007F
:103280003F320000993200003F3200003F32000020
:103290003F320000A5320000A07802F02FF900288C
:1032A000BFD0CCE76388756A63BBFFF717FE6388FE
:1032B00086F8BA30F369002BB3D06A4903209847E7
:1032C000AFE76B78042B10D0052B11D0022B04D163
:1032D0006F796388BB4208BF01202B781D442B788F
:1032E000002BEED10028AAD0DFE795F80380F4E7A1
:1032F0006388BB42F1D1B8F1000FEED12846FFF749
:1033000005FFEAE7FF270020B846E8E76388012BBE
:1033100095D1002386F8C33083E76388012B8ED1D3
:10332000F8E796F8BA30D5F800C0002B87D0756A58
:10333000A38894F804E02A46107800283FF47FAF71
:103340005178022904D192F80480F04500F293806C
:103350000244F1E78CF800208CF80120396060E726
:10336000154494E00B2A7FF46AAF00274FF0FF0862
:10337000C146BA4606E06B78042B0FD0052B21D04E
:103380002B781D442B78002BF5D1F36913B15146EE
:1033900007209847002F7FF444AF50E795F802804C
:1033A000A38895F803909845EAD163889945E7D1B9
:1033B000B8F1070F1CD806EB0803AA4683F8BB90A8
:1033C0000127DDE7A3884345DAD1A3784B450AD02E
:1033D000AF78384600F0F8FB3846FFF767FEB0FAE2
:1033E00080F77F09CCE72846FFF790FE0746C7E73E
:1033F000AA460027C4E794F900206378002A18DA67
:10340000002B7FF41CAF24792D6863060AD0204678
:10341000FFF76CFD00283FF412AF96F8BA30002B8E
:103420003FF40DAF2946204602F03AF900236B70B5
:10343000F2E6012B08D0032B7FF401AF6388002B49
:103440007FF4FDAE012103E0618800297FF4F7AE2F
:10345000A088FFF793FD00287FF4E3AEEFE600BFFE
:103460007C0C0020360D0020022829607FF4F4AE89
:103470004B883B60D5E694F9000062780028BFF6DF
:1034800071AF002A3FF466AF0A2A7FF4D8AE2A78DB
:10349000002A3FF4D4AE697804297FF461AFA9789B
:1034A0008B427FF45DAF072B96BF9B19002393F8E7
:1034B000BB308CF80030D4E613B5134C237DCBB968
:1034C000E268A168019201AB802008F0A5FF019A93
:1034D000A3681344A360E3689B1AE36043B93AB15D
:1034E0002369E2889A4203DD9B0601D101232375FB
:1034F00002B010BD00231A4619468020237502B081
:10350000BDE8104002F012B97C0C002070B58AB002
:1035100000230D4601930646002868D1002940D1BA
:1035200008220B460DEB020109F071F8002804DABD
:10353000802002F05BF80AB070BD324C029A226023
:10354000039A626004F13802A2609DF90820BDF878
:103550000E302575002AC4E9035515DB802B0FD9E1
:10356000294B09930223089328482B4608AA4FF4B5
:103570008251FEF7D5FF802002F038F82846D8E7C0
:1035800013B1C4E90333D6E7FFF7CCFC0028CFD052
:10359000E28823699A42D4BFE260E360FFF78CFFC0
:1035A000C9E7184CD4E90212002A01AB05DC024637
:1035B00009F02DF80028BEDABAE709F028F800284B
:1035C00004DA802002F012F83046B2E7019AA368CC
:1035D0001344A360E3689B1AE360002BABD104F1B2
:1035E0003803A360FFF79EFC0028D7D1A0E780280E
:1035F000A1D1044BDA68002AD0D11B7D002BCDD19C
:1036000099E700BF7C0C002009E2000088D8000088
:10361000054B064A9A62064ADA62064A1A63064A65
:1036200058629A61002070477C0C0020CD31000068
:10363000012E0000A12E0000412E000010B5094B04
:1036400093F8B84054B900F0D9F818B9BDE8104063
:10365000FFF77EBCFFF7DCFF204610BD6FF0770060
:10366000FBE700BF7C0C00202DE9F34104463B4DF5
:103670003B484FF0FF324FF0FF3306F041FF95F823
:10368000B860002E67D137482C62E86102F0C2F9B9
:1036900001F002FF041E42DB00F0D8FA041E3EDBFC
:1036A00040236846ADF802308DF804608DF8006064
:1036B00001F068FF041E32DB802768468DF8007039
:1036C00001F060FF041E2ADB2749304602F08EF924
:1036D000041E24DB2449384602F088F9041E1EDB50
:1036E000224CDFF88C80444520D3002001F0F4FF09
:1036F000041E14DBD5F8C430802043F00103C5F864
:10370000C43001F0E9FF041E09DBD5F8C43043F4EE
:103710008033C5F8C430012385F8B8300024104840
:1037200006F068FF204602B0BDE8F081276A002657
:10373000227FF3B29A4201D82434D4E707EBC302C4
:1037400057F83310107902F051F901360028EFD004
:103750004FF0FF34E3E76FF07704E0E77C0C0020E4
:1037600038030020FD2F00000D350000000400206C
:103770002404002030B51F4B8BB005AA03F11005BF
:1037800018685968144603C40833AB422246F7D17F
:103790001B7823701022002101A808F0C8FE122215
:1037A0000021154808F0C3FE102101A809F022F8F5
:1037B00000281BDD0828B8BF0820093801AB0E49D6
:1037C0001A18002012F8013F0AAC04EB131403F09E
:1037D0000F0328336B44013014F8144C13F8143CD5
:1037E0000C7008284B7001F10201EBD102480BB0BC
:1037F00030BD00BF2DE200005D1C00202DE9F04F20
:10380000834C8BB000AF00264FF0011BB24635460B
:10381000B046237843B97F4B02349C42F3D17C48B5
:103820002C37BD46BDE8F08F6378052B05D8DFE85F
:1038300003F0A60403A6073FA04623781C44E8E74C
:10384000E378002BF9D1A37843B30AF1010A5FFAB8
:103850008AFAF2E76A68944223D024359D42F9D36C
:103860006D4688B06A466C4BC2E90534032342F8C2
:10387000103F6A4800234FF4C251FEF751FEAD4697
:10388000674B7B6202233B626448002307F12002FE
:103890004FF48251FEF744FE0020C1E7614D624BB8
:1038A000DCE7AB68002BD0D0514620469847CCE7E8
:1038B000002D62D15D4B7B6202233B62574800239F
:1038C00007F120024FF48251FEF72AFED8E7296A59
:1038D000A07801EBC2010B79984205D001322B7F11
:1038E0009A42F4D3524BE6E74FF00109E07800F03A
:1038F00003003875207994F805C040EA0C207882DE
:1039000094F9020000285FFA89F328DA09F110001F
:103910004FF0010C0CFA00F010EA0B0F27D143F026
:103920008000387407F11000C7E90131FA6001F036
:10393000F7FDD7E902127B68C8B93A7CA27012F091
:10394000800F18BF10330A7118BFDBB24FF00102AD
:1039500014BF9A4002FA09F24BEA020B6DE701200C
:1039600000FA09F010EA0B0F01D11846D9E709F166
:103970000109B9F1100FB9D1B0E70022AFE7032E6A
:103980002AD1FFF7F7FE8146A8B108F0A9FDF8603B
:1039900088B1284808F0A4FDFA68824217D0264B67
:1039A0007B6202233B621D48002307F120024FF493
:1039B0008251FEF7B5FD23786FF00201E218091B72
:1039C00004EB5303D1420ED50136F6B235E7494632
:1039D000A01C08F0A1FDEEE7002EECD1B8F1000F1D
:1039E0000AD1164B67E74FF0000002F8010C13F8FC
:1039F000010902F8020DE5E7A4EB080388F802309C
:103A0000C3F3072388F8033088F804A0DCE700BF7D
:103A10007C030020FE0300203EE2000080D800006E
:103A200024E3000000040020240400205EE20000E3
:103A30009FE200002DE20000BCE2000007E300006E
:103A400010B5094B00211A461C78844204D15C68E9
:103A500014B102EB811010BD0131042903F14003C0
:103A6000F2D10020F7E700BF440D00202DE9F0431C
:103A700083B050F8283C10F82C5C103300AF04469B
:103A800011D1036950F8202C13F002064ED00ABB66
:103A900013F0040304D11A461946284608F0BCFC6A
:103AA000002344F8283C54F8283C10330ED054F836
:103AB000186C5EB154F81C8C54F8149C09F091FAFF
:103AC00000286FD03D48214609F089FB0C37BD46E0
:103AD000BDE8F08350F8241C3B1D284608F09CFCF0
:103AE00098B16E4688B06A46354BD561C2E905305B
:103AF000042342F8103F334800234FF40151FEF7EE
:103B00000FFDB5466FF01503CBE77A6854F8243CF7
:103B1000134444F8243C54F8203C9B1A44F8203CBD
:103B200054F81C3C134444F81C3CBCE750F8241CDB
:103B30003B1D284601F09CFE88B1E84688B06A46E5
:103B40001F4BD561C2E90530042342F8103F1D48E0
:103B500033464FF40151FEF7E3FCC546D2E77E68D9
:103B600054F8243C334444F8243C54F8203C9B1B38
:103B700044F8203C54F81C3C334444F81C3C002ED0
:103B80008ED0284601F04CFFB6FBF0F303FB106625
:103B9000002E85D154F8203C002B81D0284601F01E
:103BA000CDFE80E744F8180CA4F1100006F092FD59
:103BB0004A4641462846B04788E700BF100B002020
:103BC00052E30000A0D8000010B54FF04003EFF31F
:103BD000118483F31288BFF36F8FFFF731FF50B169
:103BE0004368103307D16FF08B03436000F12C0161
:103BF000034809F0F4FA84F31188BFF36F8F10BD06
:103C0000100B002070B50F4C04254FF04003EFF36C
:103C1000118683F31288BFF36F8F6368103307D167
:103C20006FF08B030848636004F12C0109F0D7FAA8
:103C300086F31188BFF36F8F013D04F14004E4D196
:103C400070BD00BF440D0020100B002070B50A4C61
:103C50000A4E00253146204609F0A4FA0122A4F1BB
:103C600010001146013509F060FA042D04F14004FA
:103C7000F0D1002070BD00BF700D00206D3A000033
:103C8000014910220A60704710ED00E072B6404012
:103C900080F31188BFF36F8FBFF34F8F30BF62B6D1
:103CA000BFF36F8F704700BF2DE9F047814600AF2B
:103CB0000C4600294CD06E468AB0D1E90012A368A8
:103CC0006D462748A8464FF0050AC5E90501C5E934
:103CD000072348F810AF2348424600234FF42151F0
:103CE000FEF71EFCB546D4E903126369AD461E48D3
:103CF000C5F810A0C5E90501C5E907231948002347
:103D000042464FF42151FEF70BFCB54688B0E369FB
:103D10006D46164AA8464FF0030AC5E9052348F840
:103D200010AF1048002342464FF4C251FEF7F8FB93
:103D3000B546A369AD460E4AC5F810A0C5E90523EE
:103D40000848002342464FF4C251FEF7E9FBB5464E
:103D50002146484606F050F9BD46BDE8F08700BF51
:103D60007CE3000040D80000ABE30000DAE3000091
:103D7000E9E3000040B2002807DB044A41090123BF
:103D800000F01F00834042F82130704700E100E05E
:103D900040B200280CDB4309064900F01F00203325
:103DA0000122824041F82320BFF34F8FBFF36F8F72
:103DB000704700BF00E100E0054B420900F01F0022
:103DC00053F82220012303FA00F01040704700BF8F
:103DD00000E100E040B2D30754BF023100210028C7
:103DE000ACBF00F16040074A4FEA4113ACBF00F599
:103DF000614000F00F00DBB2B4BF135480F8003311
:103E0000704700BF14ED00E008B572B6044B5A6964
:103E10001AB100225A6109F0F1F862B608BD00BF7C
:103E2000EC1B002030BFFFF7FDBF00BF08B5084BFB
:103E3000084A23F07F039360BFF34F8FBFF36F8F68
:103E400006F096F907F098F900F0AAFB06F0D4F90D
:103E50000000000000ED00E0094A0A499368096883
:103E60009967094958674B6843F080534B600023BA
:103E700083F31188BFF36F8F9368986F704700BF0B
:103E8000EC1B0020C4DB000000ED00E012498A6852
:103E90004FF030001044EFF3098C80E8F01F402011
:103EA00080F31288BFF36F8F0C4F4FF000668A6962
:103EB0008A603E60506F0023536780F3118804B519
:103EC000104600F009FCBDE8044002F1300090E823
:103ED000F01F8CF309887047EC1B002004ED00E014
:103EE0001EF0040F0CBFEFF30880EFF30980816927
:103EF00011F8021C0229FFD001B508F0D5FA01BD66
:103F000042F8203C009B42F81C3C0A49019B42F8C5
:103F1000183C029B42F8143C21F001014FF08073E1
:103F200042F8043C42F8081C0023203A026543672B
:103F3000704700BF37B70000094A0346906870B168
:103F400013F1160F406E05D0A0F140029A4205D839
:103F5000834203D2814228BF00207047002070476F
:103F6000EC1B002008B5094B0D461446986000F084
:103F7000B3FB204685F30988002163B681F31188DD
:103F8000BFF36F8F0022002307F0D5FBEC1B00204E
:103F900001B572B60B4A506900281EBF002151615D
:103FA00009F02CF862B6EFF30580A0F110004FEA9B
:103FB000C0000549014409C99847BDE801400349CB
:103FC00008470000EC1B00207C010020D13F0000CE
:103FD000044B99689869884203D003494FF0805296
:103FE0000A607047EC1B002004ED00E02DE9F04171
:103FF00086B0064600AF0D463F4B7B6102244FF46E
:1040000082513E483C6107F1100208F05CFA3C4BDB
:104010009B6AD9046DD53B4B3848C7E9044307F187
:1040200010024FF4825108F04EFA1720344B9B6A6D
:104030001A050BD5344B7B61022330483B6107F1F5
:1040400010024FF4825108F03EFA18202C4CA36A5B
:104050009B0523D5E8462D4B7B6102233B6107F18D
:1040600010024FF48251254808F02DFAA36BA26A82
:10407000110412D588B06A4625492048C2E90513C3
:10408000032342F8103F4FF4C25108F01CFAC54612
:104090001EB1A36A23F40043A3621920184B9B6A44
:1040A0005A050BD51B4B7B61022314483B6107F17A
:1040B00010024FF4825108F006FA1A20104B9B6A46
:1040C000DB050BD5144B7B6102230C483B6107F1E8
:1040D00010024FF4825108F0F6F91B20084A936A47
:1040E00043F47F439362183700232B70BD46BDE82D
:1040F000F08116209AE700BF17E4000040D80000C6
:1041000000ED00E02DE400003EE4000051E400007A
:104110006AE400007FE400009AE4000010B586B075
:10412000364B3748059304AA02244FF48251049475
:1041300008F0C9F9334B9B6A9A015DD5324B304880
:1041400004AA4FF48251CDE9044308F0BCF91E20C3
:104150002C4B9B6ADB010AD52C4B2948059304AAFA
:1041600002234FF48251049308F0ADF91F20254B30
:104170009B6A1C030AD5264B2148059304AA0223F7
:104180004FF48251049308F09EF921201D4B9B6A45
:1041900059030AD51F4B1A48059304AA02234FF46A
:1041A0008251049308F08FF92220164B9B6A9A03E0
:1041B0000AD5194B1248059304AA02234FF48251E1
:1041C000049308F080F923200E4B9B6ADB030AD589
:1041D000124B0B48059304AA02234FF48251049317
:1041E00008F071F92420074A936A6FEA03436FEAE3
:1041F0001343936206B010BD1D20A9E7B2E400008E
:1042000040D8000000ED00E0CAE40000DDE400005A
:10421000F7E4000015E500003AE5000054E5000071
:104220002DE9F04786B0814600AF8A469046454B5F
:1042300045487B6102243C6107F110024FF4825132
:1042400008F041F9414B9B6AD80645D5404B3E48A2
:10425000C7E9044307F110024FF48251112408F01A
:1042600032F93A4B9B6A19070BD53A4B7B61022313
:1042700035483B6107F110024FF48251122408F0D7
:1042800022F9324DAB6A9A0728D56C46324B7B61D6
:1042900002233B612C4807F110024FF4825108F0D1
:1042A00012F96E6BAB6A1B0649D588B06A462B4B78
:1042B0002548C2E90536032342F8103F4FF4C251A6
:1042C00008F001F9A546BAF1000F03D0AB6A23F05C
:1042D0008003AB62132403E01024C2E76FF01506DD
:1042E0001A4B9B6AD8070BD51D4B7B6102231648DE
:1042F0003B6107F110024FF48251142408F0E3F8F7
:10430000124B9A6AD10602D49A6A92070AD55B6860
:104310001B0507D549463046FFF70EFE10B180F366
:1043200009880224094A936A43F0FF0393622046F6
:104330000023183788F80030BD46BDE8F0876FF0DD
:104340001506C7E77FE5000040D8000000ED00E05B
:1043500095E500003EE40000C8E50000E0E500004F
:10436000F6E500002DE9F043774B8BB0D3F80480DD
:1043700000AF0546C8F30804002686F31188BFF392
:104380006F8F02F07F43B3F17F4F0ED102F00C0329
:10439000082B19D16D4BFB6102236D48BB6107F1FE
:1043A00018024FF4825108F08EF80026354600239B
:1043B000FB71E31E092B00F2A680DFE803F00A99E7
:1043C0009C95A4A4A4A4A49F10074CBF0D4601264D
:1043D000EDE7E9465F4BFB614FF0020807F1180279
:1043E0005B48C7F818804FF4825108F06CF800233E
:1043F000554CFB71E36A9A070BD5574BC7E9068307
:10440000534807F118024FF4825108F05CF8002479
:1044100041E0E36A002B01DA504BEFE7E36A5B000F
:10442000F5D54F4B4A48C7E9068307F118024FF408
:10443000825108F048F86369AA6943F480736361A4
:10444000BFF34F8FBFF36F8F636932F8022C23F4F1
:1044500080736361BFF34F8FBFF36F8F4DF60273AD
:104460009A4208D0A36ADBB28BB3FA1D0121284619
:10447000FFF7D6FE3AE088B02B686A4639493448DF
:10448000C2E90513032342F8103F4FF4C25108F06C
:104490001AF82C68CD46FB79ABB92022294607F1E2
:1044A000080008F039F87B6A002E47D0C3F30802F1
:1044B00022B96FEA53236FEA43237B6207F10801B5
:1044C0002046FFF7F1FB2C37BD46BDE8F083A36A19
:1044D00013F47F4F04D0F91D0120FFF787FD05E09D
:1044E000A36AB3F5803F92D3FFF718FE0446D2E7E4
:1044F000FA1D0021BBE7F91D0020EEE71A4BFB6116
:104500000223BB617CE7194A194B18F4F87FE8468F
:104510008AB018BF13466A4616490D48C2E905130A
:104520004FF400731384103C134BD4614FF41151BA
:1045300042F8103F07F0C7FFC54668E723F4FF7352
:1045400023F00103B9E700BF00ED00E043E60000FF
:1045500040D800006EE6000085E60000A6E60000F8
:10456000B4E60000D3E60000EFE600002AE6000013
:1045700015E6000013E7000004000001024A536939
:1045800043F010035361704700ED00E0EFF3088043
:10459000EFF3098101B57246FFF7E4FE01BD00BFEC
:1045A000044800234021C2180133282B82F800134D
:1045B000F9D1704700E100E0002080F31488BFF3D8
:1045C0006F8FFDF715FD00200D490860BFF34F8F79
:1045D0000C4880F3088800F02BF8402080F3118805
:1045E00009484FF40461401880F30988EFF3148000
:1045F0000221084380F31488BFF36F8FFFF716FC86
:1046000094ED00E000380020802A00200749D1F80E
:1046100090200023C2F307221846934200DB704724
:10462000C1F89830C1F8A0000133F6E700ED00E0D2
:1046300008B572B6002383F31388FFF7E7FF144B26
:104640004FF0FF32C3F88020C3F88420C3F88820DD
:10465000C3F88C20C3F89020C3F89420C3F89820A6
:10466000C3F89C20C3F88021C3F88421C3F88821B3
:10467000C3F88C21C3F89021C3F89421C3F8982182
:10468000C3F89C2162B6BFF34F8FBFF36F8F08BD95
:1046900000E100E0084B9B6883420BD1EFF30583F8
:1046A00043B1064B5A6842F080525A605A6A22F46B
:1046B00000425A6206F0EEBCEC1B002000ED00E068
:1046C000024B034A0348012100F092B80080002009
:1046D000000000209CD90000426E054B403A1A6051
:1046E000044A4021C3E901121846012100F08AB8AA
:1046F000440E002000000B152DE9F041DFF8B4E076
:104700009C4600AF154600238B421ADA4468002C01
:104710004DD0BCF1000F1DD0661E344215D06C4642
:1047200088B06A462449C2E90513032342F8103FC2
:10473000224800234FF4C251FDF7F2FE6FF0150539
:10474000A5462846BD46BDE8F0811F2CE7D9026882
:104750001642E4D1202C026886685FFA85F814D9E5
:10476000B4F1004F13D8013CB4FA84F4C4F11F042F
:104770006400B8F1070F46EA04060AD96C4688B00F
:104780006A460F4BC2E90535CFE70824F1E73E241E
:10479000EFE722F01F022A4342F0100246F0010622
:1047A000CEF89850CEF89C200135CEF8A0600133A9
:1047B0000C30A9E700ED00E02AE7000038D800003F
:1047C0004DE70000044B0522C3F89420BFF34F8F40
:1047D000BFF36F8F704700BF00ED00E0BFF35F8F46
:1047E000024B0022C3F89420704700BF00ED00E0A8
:1047F00010B5034C01232278FFF77EFF207010BD17
:104800006F1C002008B5094A00231278FFF774FFD7
:1048100010F1160F03D0064B0022072800DD08BD5B
:10482000C3F89800C3F8A0200130F6E76F1C002001
:1048300000ED00E014490868082810B521D8FFF7FA
:10484000CDFF124C49680022904201F10C0105D1C4
:104850000F4B1870FFF7B6FF002010BDC4F898206A
:1048600051F80C3C23F01F03134343F01003C4F82A
:104870009C3051F8043C43F00103C4F8A0300132ED
:10488000E2E74FF0FF30E8E7A8D9000000ED00E0D4
:104890006F1C0020014B1860704700BF20000020F3
:1048A0004FF08043C0B2C3F81C05BFF34F8F0549DA
:1048B000054BCA6802F4E0621343CB60BFF34F8F2D
:1048C00000BFFDE700ED00E00400FA0520B1034B56
:1048D000800143F001031847704700BFE0D8000093
:1048E00080B500AF88B06A46064BC2E905300323A5
:1048F00042F8103F04484FF4C45107F048FEBD464B
:1049000080BD00BF86E7000090D8000070B5064665
:1049100086B00D460146354807F096FD044628B995
:10492000304606B0BDE87040FFF7DABF0A2D5AD80E
:10493000DFE805F00611212332344059595930007F
:104940002B4B05932B48022304AA4FF48651049362
:1049500007F01DFE1EE0284B05932648022304AAFB
:104960004FF48651049307F012FE002304F8043C30
:1049700004F8033C0EE0214BE3E7214B05931D486F
:10498000022304AA4FF48651049307F000FE01238A
:1049900004F8043C06B070BD1A4BDDE71A4B0593D2
:1049A0001448022304AA4FF48651049307F0EFFD44
:1049B0000123DDE7154B0F480593022504AA4FF4A8
:1049C0008651049507F0E3FD14F8033C002BE1D079
:1049D0000F4B084804AA4FF48651CDE9045307F061
:1049E000D6FD0023C4E70B4BABE700BF680E0020E9
:1049F000A7E7000090D80000B4E70000CAE7000075
:104A0000DBE70000EDE7000001E8000012E800002D
:104A100021E800002EE800002DE9F843044600AF2D
:104A2000884601792648914607F01AFD0646A0B946
:104A3000A3886C4688B06A4622492348C2E9051318
:104A4000032342F8103F4FF4C45107F0A0FD6FF06C
:104A50001200A546BD46BDE8F88394F90030006811
:104A60006578002B1CDA012D12D0AB1E012B14D956
:104A70006C4688B06A46154B1348C2E905350323D6
:104A800042F8103F4FF4C25107F081FDA54604E003
:104A900056F8083C0BB11D686DB96FF08500D9E779
:104AA000092D02D0A5F10A03E0E756F8083C002BD7
:104AB000F3D05D68F0E74B4642462146A847C9E778
:104AC000680E00203CE8000090D8000063E8000079
:104AD0002DE9F84390F90030002B00AF04460D4655
:104AE000164604DB6FF01500BD46BDE8F883038869
:104AF00023F0E0039BB240F201629342F2D190F8BE
:104B00000490B0F802801B4849464FEA182807F085
:104B1000A7FC78B96C4688B06A46174B1748C2E9BB
:104B20000539032342F8103F4FF4C45107F02FFD1D
:104B3000A546D7E7B8F1210F05D0B8F1220F0FD065
:104B40006FF08500D0E70368E1885B685B6813F865
:104B5000092F914294BF29602A6033600020C3E787
:104B6000E38850F80C2C9A4294BF2A602B6050F8CE
:104B7000103CF2E7680E00203CE8000090D80000EE
:104B800080B500AF88B06A46064BC2E90530032302
:104B900042F8103F04484FF4C45107F0F8FCBD46FA
:104BA00080BD00BF7CE8000090D8000070B50446CE
:104BB0000D4601460A4807F061FC20B92046BDE8D1
:104BC0007040FFF7DDBF022D08D150F8083C2BB133
:104BD0001B691BB1BDE870400068184770BD00BF7D
:104BE000680E002010B50469C4E90012A360002318
:104BF0006361064B2061596804F1140211B9C3E9DD
:104C0000002210BD0A605A60FBE700BF680E00205A
:104C1000020600F07F0312D5082B05D1010700F032
:104C20000F0306D50E48704710F0780F12D100F030
:104C30000F034C2000EB43100A4B18447047082B1D
:104C400005D1020700F00F0306D50748704710F0A2
:104C5000780FF6D000207047044800EB43107047EF
:104C6000BC0F0020700E0020DC100020DC0F0020A4
:104C70000149024808F0B3BA980E0020E808002065
:104C80000146014808F046BA6C03002002480022A1
:104C9000002305F0EBBC00BF6C03002010B5054CF1
:104CA000FFF7F4FF20B1011D204608F071F9F7E786
:104CB00010BD00BF0803002010B588B018480022BE
:104CC000002301A905F018FB30B3164B16480793D3
:104CD00006AA4FF482510224069407F078FCFFF7ED
:104CE000DDFF0F480022002301A905F005FB50B1AC
:104CF0000E4B0D4806AA4FF48251CDE9064307F04A
:104D000066FC00200AE00198042340600374FFF76A
:104D1000B7FFFFF7ADFFF4E70198406008B010BDA2
:104D200008030020AAE8000098D80000C8E80000A6
:104D300098B5022800AF11D8104B1C5CFFF7BCFFE0
:104D400050B1002202740472FFF79AFF0C4B93F8E3
:104D500024300BB1FFF78CFFBD4698BD6C4688B080
:104D60006A46084BC2E90530032342F8103F064863
:104D70004FF4C25107F02BFCA546EDE7BAEA00005C
:104D8000700E0020E4E8000098D800002DE9F04102
:104D900090F80280064600AF4046FFF739FF18F052
:104DA000800FF478054625D09CB1032C1FD06D46AA
:104DB00088B06A462A4BC2F81C80C2E90534042335
:104DC00042F8103F27484FF4015107F000FCAD4670
:104DD0000DE0FFF771FF034648B10122AC77027482
:104DE000032202739D60FFF74BFFFFF741FFBD46B3
:104DF000BDE8F08154B1012CD9D1FFF75DFF034626
:104E00000028F4D06C7704740473EBE7FFF754FFC9
:104E10000028ECD0B278144B12F0800F02F0080199
:104E200011D041B1D3F8A836EB60012303740223FB
:104E300003738560D7E702F00F02142101FB0233F0
:104E4000D3F80836F0E711B1D3F8A837ECE702F051
:104E50000F02142101FB0233D3F80837E4E700BF47
:104E6000FFE8000098D800000070024013B5124817
:104E700004F05CFB114B98421AD1114803F0E4FC9A
:104E80000024104803F00AFD0F49104800944FF029
:104E9000FF334FF4806205F099FD0D490B4808F08F
:104EA000A6F80C480C4908F07DF9204602B010BD68
:104EB0006FF00400FAE700BF1D4F00000000AD0BCB
:104EC000BDEA0000CCD9000040260020E808002000
:104ED0002BE90000980E0020F550000010B50E4997
:104EE000BFF35B8F002351E8002F012A03D141E873
:104EF00000300028F7D1BFF35B8F0CD151F8044C80
:104F00001439204606F0E1FE783004D12046BDE891
:104F1000104006F0B5BE10BD900E00202DE9F04106
:104F200088B0064600AF1422002107F10C0007F0FC
:104F3000FEFA3378013B052B21D8DFE803F09B0311
:104F400013138D1503233B750024FFF7B5FE0346AD
:104F5000A8B1047400F10802D7E9050182E8030052
:104F6000184634E00423EEE796F802804046FFF747
:104F70004FFE837A054633B1013B022B68D92037B7
:104F8000BD46BDE8F08118F0800FF47824D09CB1C4
:104F9000032CF4D06D4688B06A46374BC2F81C80AB
:104FA000C2E90534042342F8103F34484FF401515C
:104FB00007F00DFBAD46E2E7FFF77EFE0346002853
:104FC000DDD00122AC770274032202739D60FFF7EB
:104FD00057FEFFF74DFED2E754B1012CDAD1FFF7AF
:104FE0006BFE03460028CAD06C7704740473EDE7A7
:104FF000FFF762FE04460028C1D001230374022398
:1050000003738560B07805F10C0107F018FF70B1EB
:105010006E4688B06A461A4BC2E90530032342F84F
:10502000103F16484FF4C25107F0D1FAB546154A61
:10503000E968B2F88C328B4206D95B1AA2F88C323E
:1050400004F0A8FC2046C2E70023A2F88C32F9E75E
:105050003046FFF79BFE92E7381D04F075FC7B7924
:10506000052B03D13B7913F0600F88D0064B7B6191
:1050700001246AE7022468E7FFE8000098D80000EE
:1050800036E90000700E0020DC0F002038B5002447
:1050900064F07F00C0B2FFF7BBFD013407F084FA73
:1050A000082CF5D10E4D0024E0B2FFF7B1FD0369E5
:1050B00003B90561013407F077FA082C05F14005C2
:1050C000F2D1084807F070FA074BD3F87C2212B9E6
:1050D000064AC3F87C22064807F066FA002038BD6D
:1050E00000150020BC0F0020700E002000110020D1
:1050F000DC1000202DE9F047A34CDFF890A286B029
:10510000804600AFFFF7C2FD064618B91837BD4606
:10511000BDE8F08794F82520337C06F104093AB9FC
:10512000002B00F0AF809948494607F031FFE9E7CE
:10513000042B00F29581DFE813F0A50005003B0188
:105140005101780118F8043C83B9B3686D4688B002
:105150005B7A6A468E498F48C2E90513032342F8F9
:10516000103F4FF4C25107F032FAAD46337BB568B9
:10517000032B39D8DFE803F0023F6E736E69082213
:105180000021304607F0D3F9834B8448D3F88024BC
:105190003270D3F884247270D3F88824D3F88C1436
:1051A00042EA01227280D3F89024D3F8941442EAA0
:1051B0000122B280D3F89824D3F89C3442EA032326
:1051C0000822F3803146EA6007F0A6F92B68687A76
:1051D0000021984796F90030002B08DBF38833B1A3
:1051E000A4F88C3204F0D6FB494650469DE70023D4
:1051F000A4F88C32F8E76B7F002BF5D02B7F002BC7
:10520000F2D0002666486E774FF0FF324FF0FF3342
:105210002E7707F0DFF96B693B606B68C7E90136F1
:105220003946687A04F0C4F95E4B98420ED06D4658
:1052300088B06A465C4BC2E90530032342F8103F50
:1052400054484FF4C25107F0C2F9AD46544807F034
:10525000C3F9C9E72B680121687A9847C4E7AB7A9C
:105260006BB9EB7F5BB94E484FF0FF324FF0FF3325
:1052700007F0B0F904F0C2FB494807F0ADF92B681C
:105280000221E9E7337A042BAED8DFE803F05903B3
:105290002367730004F014F905460028A4D104F034
:1052A000A1F8BFF35B8F4149012351E8002F002A89
:1052B00003D141E800300028F7D1BFF35B8F93D1D1
:1052C00041F8085C41F8105CE0696361143906F04C
:1052D0007FFC89E7002565F07F00C0B2FFF798FCEE
:1052E000037A13B1407A04F03BFD0135082DF2D169
:1052F00094F854311BB194F8550104F031FD0025A8
:10530000E8B2FFF785FC037A13B1407A04F028FD78
:105310000135082DF4D194F874321BB194F875025C
:1053200004F01EFD012004F0ADF8012384F82530BF
:105330002368002B3FF458AF00210220984753E721
:10534000002584F8255004F0C5FCFFF7C7FD23684D
:10535000002B3FF449AF29460420EFE7002A3FF431
:1053600043AF04F0B7F82368002B3FF43DAF0021B2
:105370000520E3E72368002B3FF436AF002A3FF413
:1053800033AF00210620D9E7700E0020080300206B
:1053900056E9000098D8000000700240740E00200A
:1053A000A80E00200000AD0B7CE90000900E00204C
:1053B00008F110054FF0FF334FF0FF32284607F099
:1053C00009F9FFF763FE284607F006F958F8283C6C
:1053D000002B3FF409AF00210120AFE794F87432AD
:1053E00093B1012584F8895284F88852FFF764FC50
:1053F00090B9234B7B61022322483B6107F11002E5
:105400004FF4825107F0E3F858F8283C002B3FF4A2
:10541000EBAE00210A2091E71B4A057405738260F8
:10542000FFF72EFCFFF724FCEEE7184B7B6102230D
:105430003B6107F110024FF48251124807F0C7F8A0
:1054400007F067FC04F046FC03F0C2FFFFF726FC00
:10545000FFF71CFE07F056FC0D4804F067F8C3E6A2
:105460006D4688B06A460B490648C2E90513032316
:1054700042F8103F4FF4C25107F0A9F8AD46B3E629
:10548000A2E9000098D80000DC100020B6E9000076
:105490001D4F0000CDE9000038B5164D95F82440A9
:1054A0002CBB05F1380007F0B8FD204600F0BEFB2C
:1054B00022460121E8612720FEF78CFC07F022FC40
:1054C000FFF7E4FD044610B9012385F824300A4BA8
:1054D0001B680BB1FFF7CCFB4FF08043D3F8383497
:1054E000DB0702D50020FFF723FC204638BD00244F
:1054F000FBE700BF700E00206C030020074B93F801
:1055000024203AB193F82530002B14BF00206FF00F
:10551000120070476FF01200704700BF700E00203D
:105520007FB5034602781B7902F00F007BB958B1B2
:10553000104B05930223049304AA4FF482510E48A2
:1055400007F045F84FF0FF3007B05DF804FB08287E
:1055500001D90A4BEDE7012B09D1130707D4084BFA
:1055600005930223049304AA4FF48451E7E7002033
:10557000EAE700BFE4E9000098D8000003EA000071
:1055800022EA000030B5164B93F8243087B0044669
:105590001BB305782846FFF73BFBB0B14572237972
:1055A0008372638843602078618810F0080F10D1FF
:1055B0004B1E0B420DD00B4B05930B48022304AA44
:1055C0004FF48251049307F002F86FF0150007B012
:1055D00030BD07F02FFC0020F9E76FF01200F6E76E
:1055E000700E002038EA000098D8000030B5194B42
:1055F00093F8242087B0054642B393F825302BB3A7
:10560000FFF706FB044618B96FF0150007B030BD70
:10561000837A012B0FD007D9023B012B07D963698D
:10562000A3610020E060F1E704F0F0F9F7E7284615
:1056300004F05CF9F3E7084B05930848022304AA39
:105640004FF48251049306F0C2FFDDE76FF01200C1
:10565000DCE700BF700E002060EA000098D8000070
:1056600038B50E4B93F82420054682B193F82530C7
:105670006BB1FFF7CDFA68B115F008040AD12846DE
:1056800004F056F9284604F0BFFB204638BD6FF001
:105690001200FBE76FF01500F8E700BF700E002066
:1056A00038B50C4B93F8242005460C4662B193F8AC
:1056B00025304BB1FFF7ACFA48B144B1284604F0AD
:1056C0001DF92070002038BD6FF01200FBE76FF06D
:1056D0001500F8E7700E002070B5134E96F82430D0
:1056E0000446C3B1FFF794FA0546B8B1230705D4C1
:1056F000204604F01DF9204604F086FB2B7A83B97E
:1057000001232B7296F825300BB9002070BD20467E
:1057100004F026FBF9E76FF01200F7E76FF01500D1
:10572000F4E76FF07700F1E7700E00202DE9F04705
:10573000DFF8249184B01E4699F8243000AF8046EB
:105740008A461546002B00F0838099F82530002BFF
:105750007ED010F0800F14D0FFF75AFA044680B1C3
:10576000037AABB96C4688B06A463C4B3C48C2E908
:105770000538032342F8103F4FF4C25106F027FFCB
:10578000A5466FF0150420461037BD46BDE8F087EA
:105790004FF0FF334FF0FF3209F1380006F01AFFE7
:1057A000A37F33B109F1380006F016FF6FF00A0449
:1057B000E9E7A37A55B3002B38D00123A3774FF044
:1057C0000009391D4046C7E901A5C7F80C9003F050
:1057D000EFFE244B984237D084F81E900EB1C6F8E5
:1057E00000906C4688B06A461F4BC2E9053003231F
:1057F00042F8103F1A484FF4C25106F0E8FEA546A1
:105800006FF00404194806F0E7FEBCE7E27F02B13E
:10581000E577002BD1D104F001F98045CDD004F01B
:10582000EDF8124806F0D8FE0024ACE7B9F80A30CB
:105830009D42F0D26268B5FBF2F302FB1353002BDA
:10584000E9D10123E377E6E706B135600024D9E723
:105850006FF0120497E700BF700E002082EA00008C
:1058600098D800000000AD0BA1EA0000A80E0020AF
:105870002DE9F8431D462D4B904693F8242000AFA8
:1058800081460E46002A4DD093F82530002B49D092
:1058900010F0800F19D111B9B8F1000F15D1484699
:1058A000FFF7B6F9044680B1037A8BB96C4688B02D
:1058B0006A461F4B1F48C2E90539032342F8103FCF
:1058C0004FF4C25106F083FEA5466FF0150015E0B7
:1058D0004FF0FF3318484FF0FF3206F07BFEE368CD
:1058E0009845C14628BF99465EB9B8F1000F08D166
:1058F00005B12B60104806F06FFE0020BD46BDE8E4
:10590000F883A1694A46304606F006FEA3694B4477
:10591000A361E368A3EB0903E360002DEAD0C5F8B7
:105920000090E7E76FF01200E8E700BF700E00207C
:1059300082EA000098D80000A80E0020F8B5274D94
:1059400095F8243000AF0646002B44D095F825305A
:10595000002B40D0030614D4FFF75AF9044680B157
:10596000037A93B96C4688B06A461D4B1D48C2E95C
:105970000536032342F8103F4FF4C25106F027FECC
:10598000A5466FF01500BD46F8BD4FF0FF334FF050
:10599000FF3205F1380006F01DFEE368B3B90126B9
:1059A00063692677A361637F83B1FFF785F930B917
:1059B00005F1380006F010FE6FF00B00E3E7067407
:1059C00084600673FFF75CF9FFF752F9064806F0AA
:1059D00003FE0020D7E76FF01200D4E7700E00201E
:1059E00082EA000098D80000A80E002010B5084BED
:1059F00093F824300C462BB1FFF70AF928B1046064
:105A0000002010BD6FF01200FBE76FF01500F8E703
:105A1000700E0020014B1860704700BF700E002010
:105A200008B5074B93F8243023B1FFF7F1F820B104
:105A3000406808BD6FF01200FBE76FF01500F8E753
:105A4000700E0020084B70B5C31A0D4607499B1015
:105A5000044659430648402206F004FE2B46014600
:105A60002046BDE87040184714170020B76DDBB61C
:105A7000C8D6000073B50C4C0C4A4023041B00939D
:105A80000D460B460A49A41061430646094806F034
:105A900015FE011E05DA30462B4602B0BDE8704007
:105AA000184702B070BD00BF1417002027C70000C0
:105AB000B76DDBB6C8D60000002270B501210446E0
:105AC0001046FEF787F90F4802F048FB0E4B98424C
:105AD00015D102F053FB26690C49304606F065F8F3
