:10000000403900209D48000021D5000071480000C3
:1000100071480000714800007148000000000000B5
:10002000000000000000000000000000C5410000CA
:10003000714800000000000071410000714800009C
:10004000754200007974000075420000754200009E
:1000500075420000754200007542000075420000C4
:100060007542000075420000D19F000075420000FB
:1000700075420000754200007542000075420000A4
:100080007542000075420000754200007542000094
:100090006176000075420000754200007542000064
:1000A0007542000075420000754200007542000074
:1000B0007542000075420000754200007542000064
:1000C0007542000075420000754200007542000054
:1000D0007542000075420000754200007542000044
:1000E00053B94AB9002908BF00281CBF4FF0FF319F
:1000F0004FF0FF3000F00CB8ADF1080C6DE904CE04
:1001000000F004F9DDF804E0DDE9022304B07047F3
:10011000704700BF70B5174C6078002823D10120CC
:10012000607000F061FA6FF0270528B900F072FAEC
:1001300010B900F079FA20B10F486060A57008206E
:1001400010E000F033FA40B900F03AFA28B900F0B4
:1001500041FA10B900F052FA30B10748313060600E
:10016000A5700420E07070BD40F23F11742000F0D3
:1001700055F8000000000020D4060000064A00B533
:1001800092F90320904201DB104600BD00F008F810
:100190000249085600BD000000000020C60600000D
:1001A0000246134810B590F903309A4201DB0D2046
:1001B00010BD90F902309A4201DC002010BD01B15F
:1001C0000121D41A4368185D0A4C24569442F5D094
:1001D000084C08443F34C0B2D2B2A342EED1002949
:1001E000ECD0012A01D0022AE8D1401CC0B210BDD7
:1001F00000000020C6060000BFF34F8F05480168CD
:10020000054A01F4E06111430160BFF34F8F00BF65
:10021000FDE700000CED00E00400FA050EB572B633
:100220000F4A5568D5B1002203466E460A2403E002
:10023000B0FBF4F0521CD2B20028F9D1B05409E05E
:10024000B3FBF4F004FB1030B3FBF4F3521ED2B254
:100250003030B054002AF3D13046A847FFF7CCFF26
:1002600008000020550600008D06000077060000FB
:1002700065060000710600005F06000053060000DE
:1002800051060000890600007D0600006B06000094
:10029000590600004B060000430600004706000018
:1002A0003D060000014909688969084710000020DF
:1002B00001480068006800471000002001480068FD
:1002C0004069004710000020014A1268D2681047B8
:1002D000100000200148006800690047100000205D
:1002E000014A12689268104710000020014909680D
:1002F000496A08471000002030B4034C2468646841
:10030000A44630BC60470000100000202DE9F047F3
:1003100086468C460846089E154674461946002BAC
:1003200040F0C2808542B2FA82F245D94AB1C2F1A8
:10033000200300FA02FC2EFA03F3954043EA0C0C6A
:1003400094404FEA154EA8B2BCFBFEF8230C0EFBFE
:1003500018CC08FB00F943EA0C43994528D9EB185F
:1003600008F1FF3704D2994502D9A8F102072B44BE
:10037000A3EB0903A4B2B3FBFEFC0EFB1C330CFB86
:1003800000F044EA0344A04214D92C190CF1FF33C5
:1003900004D2A04202D9ACF102032C44241A43EA4D
:1003A00007401EB1D440002334607360BDE8F0877D
:1003B0004746DDE76346F1E792BB431B01214FEA65
:1003C000154EAFB2B3FBFEFC200C0EFB1C330CFB36
:1003D00007F840EA0343984562D9EB180CF1FF3067
:1003E00004D2984502D9ACF102002B44A3EB0803D8
:1003F000A4B2B3FBFEFC0EFB1C330CFB07F744EA74
:100400000344A7424ED92C190CF1FF3304D2A74262
:1004100002D9ACF102032C44E41B43EA0040C0E7DC
:10042000C2F1200320FA03F1954090402EFA03F325
:1004300003434FEA154EAFB2B1FBFEFC0EFB1C109E
:10044000190C0CFB07F841EA0041884504FA02F454
:1004500022D969180CF1FF3004D2884502D9ACF1D9
:1004600002002944A1EB08019BB2B1FBFEFC0EFB8C
:100470001C110CFB07F743EA01439F420ED9EB180E
:100480000CF1FF3104D29F4202D9ACF102012B449E
:10049000DB1B41EA004192E76046E3E76146F7E78C
:1004A0006046A3E76346B7E7834206D916B9002141
:1004B00008467BE7C6E900E0F9E7B3FA83F78FB9AE
:1004C000834201D3724508D8BEEB020460EB0303FC
:1004D00001209C461EB9002168E73846FAE7C6E9C4
:1004E000004CF8E7C7F1200CBB4022FA0CF41C4387
:1004F0002EFA0CF120FA0CF3B84001434FEA1449EC
:100500000EFA07F5B3FBF9F81FFA84FE09FB183061
:100510000B0C08FB0EFA43EA00439A4502FA07F275
:1005200040D9E31808F1FF3004D29A4502D9A8F166
:1005300002002344A3EB0A0389B2B3FBF9F809FBD9
:10054000183308FB0EFE41EA03418E452CD9611891
:1005500008F1FF3304D28E4502D9A8F102032144E9
:1005600043EA0040A0FB0298A1EB0E014145CE46B4
:10057000434602D306D14D4504D2B9EB020E68EBD7
:1005800004030138002EA6D0B5EB0E0261EB030187
:1005900001FA0CFC22FA07F34CEA0303F940C6E91E
:1005A000003198E74046C5E74346D9E74FF0805011
:1005B000D0F830010F2801D000207047012070478B
:1005C0004FF08050D0F830010A2801D00020704749
:1005D000012070474FF08050D0F830010E2801D034
:1005E00000207047012070474FF08050D0F8300154
:1005F000102801D000207047012070474FF0805034
:10060000D0F83001062803D0401C01D000207047EC
:10061000012070474FF08050D0F830010D2801D0F4
:1006200000207047012070474FF08050D0F8300113
:10063000082801D000207047012070474FF0FF309C
:10064000704700207047002070474FF0FF30704720
:1006500070477047002070470021017070474FF0CD
:10066000FF3070474FF0FF30704700210170704736
:100670004FF0FF3070474FF0FF3070470078002890
:1006800001D06FF01500704700207047002200F085
:1006900002B8FFF73FBD70B514460D46001B6FF062
:1006A0007F01884201DA084602E07F2800DD7F20D2
:1006B000194640B2FFF762FD28706C70002120449B
:1006C000A97040B270BDD8ECF0F4F8FC000203044D
:1006D0000506070800000000000000000000000000
:1006E00000000000000000000101010102020202FE
:1006F00003030303040404040505050506060708AF
:10070000090A0B0C0D0000000000000000000000B2
:1007100000000000000000000001010101020202CF
:100720000203030303040404040505050506060685
:10073000080900002DE9F84304460568067900AF72
:10074000884628460DF04FFC034690B9E94688B02C
:1007500029686A464748C2E905014FF40071918350
:10076000454942F8101F45484FF4E25102F03EF867
:10077000CD46E3882068217943F48032D0F810E038
:10078000D0F8089013F0010F4FF0010CDEF80030A4
:100790000CFA01FC14BF4CEA030323EA0C03CEF865
:1007A0000030D9F800309847002815DAE9468AB0B9
:1007B0002B686A463249C2E905134FF400739384EB
:1007C000304BC2E9076042F8103F2C4800234FF439
:1007D000315102F00BF8CD46314628460BF02CFF84
:1007E000002815DAE9468AB02B686A462649C2E92C
:1007F00005134FF400739384224BC2E9076042F85B
:10080000103F1E4800234FF4315101F0EFFFCD4659
:100810001E4BC8F80430012202FA06F3C8F808306B
:10082000AB68DB6913B141462846984720682179B7
:1008300083684FF0A0729C694FF0C063A047002806
:1008400015DA6C468AB02B686A461149C2E905136D
:100850004FF4007393840B4BC2E9076042F8103FDA
:10086000064800234FF4315101F0C0FFA546BD46B4
:10087000BDE8F883E8EC00000300000180E8000018
:1008800002ED00000500000130ED000069C6000027
:1008900065ED000010B501220F4C104811460DF017
:1008A00094FC21460E48FFF745FF04F10C010D486A
:1008B000FFF740FF04F118010B48FFF73BFF04F17D
:1008C00024010A48FFF736FF094804F13001FFF719
:1008D00031FF012010BD00BF400C00207C0C002027
:1008E000A8E90000A0E9000098E9000090E90000F4
:1008F00088E9000010B504460A480BF0B1FE2070EC
:1009000009480BF0ADFE607008480BF0A9FEA0701E
:1009100007480BF0A5FEE07006480BF0A1FE207121
:1009200010BD00BFA8E90000A0E9000098E90000A0
:1009300090E9000088E9000010B586B0114B0593DE
:1009400002240494002304AA4FF486510E4801F0B7
:100950004DFF00F02FF90D4BCDE904430A48002369
:1009600004AA4FF4865101F041FF00214FF40040EA
:100970000BF082FB012000F0ABF900F0A3F900F0CE
:10098000ADF9FCE7A9ED0000C0E80000B8ED0000FB
:10099000024883683921DB68184700BFF8E7000088
:1009A00010B403460A46034881680C691946234679
:1009B00010BC1847F8E7000001480DF014BB00BF59
:1009C000F8E7000013B500230090019307488368FF
:1009D0001C6844B16B460F223921A047B0FA80F061
:1009E000400902B010BD6FF05700F7E7F8E70000CC
:1009F00090B583B000AFFFF7CBFFA0B16C4688B0D5
:100A00006A460C4BC2E90530032342F8103F0A48FE
:100A100000234FF4C25101F0E9FE4FF6FF70A546E6
:100A20000C37BD4690BD0F203946FFF7B9FF388817
:100A3000F6E700BFCFED0000C8E8000007B5064BA1
:100A4000024618680190054883689B680BB101A9AC
:100A5000984703B05DF804FB74E90000F8E7000074
:100A60000148FFF7EBBF00BF710B0000B0B586B0C7
:100A700000AFFFF78DFF103011D04FF4C870FFF7B3
:100A8000A1FF044680B9194B7B6102233B614FF4FF
:100A90008251034607F11002154801F0A7FE002419
:100AA00020461837BD46B0BDFFF7A2FF6D4688B09F
:100AB0006A46104BC2E90530032342F8103F0C4848
:100AC00000234FF4C65101F091FEAD460A4B7B6105
:100AD00002233B610648002307F110024FF48651C0
:100AE00001F084FEFFF7BCFFDAE700BFF1ED000084
:100AF000C8E8000003EE000011EE000090B587B0DA
:100B000000AF0CF0E2FFFFF743FFD8B16C4688B0AE
:100B10006A46154BC2E90530032342F8103F002313
:100B200012484FF4C25101F061FE0022A54613465F
:100B300092B2002062F30F009BB263F31F401C3798
:100B4000BD4690BD07F108012320FFF729FF07F1FB
:100B500010012420FFF724FF0CF0B7FF3B69B7F921
:100B600008205B421BB2E3E7CFED0000C8E80000BD
:100B700013B5FFF7C3FF01900C4C4FF0FF324FF05D
:100B8000FF3320460AF0E8FC094BBDF804101A8830
:100B90000A441A80BDF806105A880A445A80204632
:100BA00002B0BDE810400AF051BD00BF8403002030
:100BB000E41C002010B53B4B4FF4C87286B01A807D
:100BC000FFF7FAFE00284ED0374B0593022304931B
:100BD0003648002304AA4FF4865101F007FEFFF7C0
:100BE00059FE002844D0324B0593022304932F482A
:100BF000002304AA4FF4865101F0F8FD00F09EFA9C
:100C00000346002839D12B4A059202220492274834
:100C100004AA4FF4865101F0E9FDFFF727FF88B3DE
:100C200000F00CFA034690BB234A0592022204927C
:100C30001E4804AA4FF4865101F0D8FD00F054F983
:100C4000044648BB1D4B0593022304934FF4865181
:100C5000034604AA154801F0C9FD19480DF0A2FA8F
:100C6000204606B010BD212000210BF0FEFCA7E7B6
:100C7000212000210BF0F9FCB1E7212000210BF02D
:100C8000F4FCBBE7212000210BF0EFFCC5E721209D
:100C900000210BF0EAFCC3E7212000210BF0E5FC6A
:100CA000CCE700BFE81C002033EE0000D0E80000D5
:100CB00044EE000056EE00006DEE00007AEE0000FB
:100CC000D0030020014B1888FFF77CBEE81C0020F1
:100CD000014B9870704700BFE81C0020F0B585B04C
:100CE00001AD28460BF0C3FC254C23684BB3002212
:100CF000002320460AF0E6FCBDF80620C388134412
:100D0000C380BDF80820038913440381BDF8042083
:100D1000838813440146838020460DF04BFA2368F4
:100D20006BB10023164800220AF0CCFC154B9B78CF
:100D30000446E3B1043000F019F900F047F905B0BA
:100D4000F0BD114E114B326803EB021395E807001A
:100D50001F1D87E80700194620460DF02BFA33685F
:100D6000013303F0010348BF5B423360D7E700F073
:100D7000DFF90028E3D1201D00F0A4F9DFE700BF70
:100D8000D0030020E81C0020AC0C00208C0C0020BC
:100D900010B5064C012384F84A300378022B04D1A5
:100DA000204607F051F80028FAD010BD5801002065
:100DB000B0B586B0002000AF05F0DCF880B91B4B61
:100DC0007B6102231A483B6107F110024FF4825104
:100DD0006FF005040BF05BFC20461837BD46B0BD34
:100DE00000237B60FB600123BB6039460BF024FFCE
:100DF000041E0FDA6D4688B06A460E4B0C48C2E9F5
:100E00000534032342F8103F4FF4C2510BF03FFC6E
:100E1000AD46E1E7BB689B07FCD1FC68002CDBD04A
:100E20006D4688B06A46044BE8E700BF8FEE0000CD
:100E3000A0E80000AFEE0000C8EE000030B54FF0B3
:100E4000E73291B04FF0C233CDE901231D4A1E4D68
:100E50001068516803AB03C31C460FCD0FC42B6849
:100E600023600125194B069305A88DF8265006F03E
:100E700017FE044660B1164B0F93164802230EAAC4
:100E80004FF482510E930BF002FC204611B030BD9E
:100E900001A807F045F8044608B10F4BECE702A89B
:100EA00007F060F8044608B10C4BE5E7082103A8F9
:100EB00007F07AF8044608B1094BDDE7094B83F8DF
:100EC0004A50E2E755EF000060E90000910D000094
:100ED000E7EE0000A0E80000FEEE00001BEF0000BF
:100EE00038EF000058010020F0B587B06E4600AF23
:100EF000194B1A487B61022507F110024FF4865105
:100F00003D610BF0C4FBFFF753FF88B9FFF796FF75
:100F1000044698B188B06A46114BC2E905300323F4
:100F200042F8103F0D484FF4C2510BF0B0FBB546EC
:100F30004FF0FF3420461C37BD46F0BD094B074833
:100F4000C7E9045307F110024FF486510BF09FFBE1
:100F5000054B83F82840EDE75EEF0000A0E80000B5
:100F60007EEF000096EF000058010020002370B5CE
:100F7000421D1C46012112F8015F1DB101FA03F563
:100F80002C43E4B20133052BF5D10F4BB0F902101D
:100F90000279B0F9045083F82B40012683F82A60C7
:100FA000008883F82D10C1F3032141EA021183F870
:100FB0002E101209C5F3072142EA011283F82C0012
:100FC00083F82F20002070BD5801002098B5124CE6
:100FD00094F84A3000AF1BB94FF0FF30BD4698BDC2
:100FE000002384F84A3006F07FFF04F1250006F064
:100FF00085FE0028F2D06C4688B06A46074BC2E9ED
:101000000530032342F8103F05484FF4C2510BF05E
:101010003EFBA546E0E700BF58010020AEEF000010
:10102000A0E80000014B00221A7070470E1D00203E
:10103000014B1871704700BFB00C002010B586B08E
:101040001848194C09F0DAFF0346206070B9174AB6
:10105000059202220492164804AA4FF482516FF0BE
:10106000120401F0C3FB204606B010BD114B12491B
:101070003E2203F029FF20680CF0C0FA044658B164
:101080000E4B0593022304930948002304AA4FF44E
:10109000825101F0ABFBE6E7094806B0BDE810401D
:1010A00002F048BCD7EF0000B00C0020DDEF0000DC
:1010B00018E90000B0E900001FF00000FEEF00009A
:1010C00031100000002370B5421D1D46012112F8A9
:1010D000014F1CB101FA03F42543EDB20133052B96
:1010E000F5D11049B0F9022003794D7001240C703C
:1010F000B0F904600088CA70C2F3032242EA031206
:1011000088700A710848C6F307221B0943EA0213D4
:101110004B7100680023062203F0ECFE08B9034B74
:101120001C7070BD0F1D0020B00C00200E1D002093
:10113000014B1878704700BF0E1D00207FB50B488B
:101140000CF051FF034670B9094A0592022204923D
:10115000084804AA4FF4825101F048FB4FF0FF30D9
:1011600007B05DF804FB0020FAE700BFC8E7000005
:101170005DF0000048E9000037B5074CA56839214B
:10118000EB682046984722212B696A4620469847FB
:101190000098404203B030BDC8E700002DE9F04F91
:1011A00091B08407009302F004030293C2F3C203D8
:1011B00003F10103DDF86880039205460E460593AE
:1011C00040F0BE81041D30B1072909D86FF01B0023
:1011D00011B0BDE8F08F01F00706341DC6F1080616
:1011E000009B4FF00009591E4FF0040A4FF0FF33E7
:1011F0000193CDF810904F46CB4653460DB1009A5F
:1012000022600598002800F3EB809A48009A8242F9
:1012100003D399488242C0F0E380039AA4EB050E01
:1012200092074FEA9E0000F106810F2F00F2B48072
:10123000002D00F0088107F140020DEB020C019A2D
:101240000CF8200C0CF8102C049801300490EAE003
:101250007A2860D84B280ED847285CD829282FD860
:10126000252855D057D820287DD02338D0F1000B21
:101270004BEB000B77E0A0F14C0CBCF12E0F4AD8E1
:10128000DFE80CF071494949494949494949494907
:101290004C49494949494949495A494C4C5A5A5A71
:1012A000714C6E497149184C18494983804C494921
:1012B0004C49800000204FF0000B4FF0040A39E049
:1012C000A0F12A0C5FFA8CFC012202FA0CFC1CEA49
:1012D0000E0F48D11CF062502ED11CEA020B42D0F6
:1012E000013C5444CAF1000C04EA0C04002D61D006
:1012F000A3EB050CA444B4453FF668AF002868D1C1
:10130000042B47D158F8043B2360043404232AE01B
:10131000019A013A01924FF0000B24E011F8010C00
:101320006C2834D111F8023C00206C2B8346C4D1C8
:101330004FF0080A5346D3E708F1070828F00708DA
:101340000734F8E802AB24F0070435B106982044CE
:10135000B0423FF63BAFC4E900AB08344FF0000B9E
:101360004FF0080A534611F8010F002878D0BBF15E
:10137000000F7FF46DAF2528F5D1019B0133019358
:101380004FF0010B4FF0040AECE7584693E70020BA
:101390008346A5E7082B02D06FF0150018E708F187
:1013A000070828F00708F8E80223C4E900230834F6
:1013B0000823D8E768B9042B02D108F10408A4E790
:1013C000082BE9D108F1070828F0070808F10808F8
:1013D000EDE7059A013A059258F8042B00920DE7C3
:1013E000039A900720D5A4EB050E4FEA9E004FF01C
:1013F000010CBEF5007FCFD20F2FCDD8F5B107F18C
:1014000040020DEB020EC0B2019A0EF8200C0EF84D
:10141000102CBCF1000F3FF417AF60F07F000EF806
:10142000200C09F101090137C5F1080204340692C4
:101430004FF6DA7E97E74FF0000CDAE7BCF1000FC9
:1014400001D00136EFE7029802360028EBD1009870
:10145000CDE906310CF078F8DDE906310644E2E723
:10146000631BB3F5806F97D245B9A6F10804E01865
:10147000AEE600BFD8E600001C140100029A286006
:101480009B082B709DF81030C2B1EB7085F802906C
:10149000B9F1000F05D008A80022C5F1010C974250
:1014A0000ED1C5F101030DF120084FF0000A0193A0
:1014B0000DF1300B574512D1601B89E66B70E5E7E3
:1014C00010F8013B190608D504EB0C0EB64503F0E5
:1014D0007F033FF67BAE04F8013B0132DFE7B9F151
:1014E000000F03D098F90020002A17DB029BD3B12C
:1014F0001AF80B2004F8012B0022019B98182044B5
:10150000B0423FF663AE98F8000004F8010B009972
:10151000039220460CF034F8039A14440AF1010AAD
:1015200008F10108C6E798F8002055F8223000932A
:10153000029B45F8223000980CF006F8421CDCE7CC
:101540006FF00D0044E600BF2DE9F04F95B000AFFD
:101550000446D7F878B0BB61CBF3C0037A623B6135
:10156000396251B903784678807800EB83002044D3
:101570003B6A9E421AD8031B3B6294F802A0E378B0
:101580007B615646BAF1000F02D01BF0010F17D154
:101590007B695BBB7B6A1BB1BA69396A2046984795
:1015A0003D6A28465437BD46BDE8F08F451C2846A5
:1015B0000BF0CAFF3B6A0130013328443B62D7E796
:1015C00094F800806368FB617B6A4FEA8802FA60E6
:1015D00004EB8808002B40F001813D6AC1460AEB0C
:1015E000080300264B454ED1D04413E01BF0020FF8
:1015F000D0D094F800804FEA8803FB606368FB61F9
:101600007B6A04EB8808002B78D13D6ABAF1000FA1
:101610004ED156461BF0050F0CBF022301237B62FF
:101620007B6908EB430A0BF002033B62D045B8D05C
:1016300018F8021B18F8013C54F82390AC4B99455C
:1016400002D3AC4B994539D33B69002B43D0F869A1
:101650000BF051F800283ED0E9468AB06A46A64B06
:101660005361FB69C2E906314FF400731384A34B45
:1016700042F8103FA24800234FF4125101F0B6F88F
:10168000023DCD46D2E719F8012B7B6254F82200C7
:101690000BF05AFFFA6F7B6A01303AB1D7F880201D
:1016A00096423EBFFA6F22F816000136054499E7CC
:1016B0001BF004061CBF7E6AD044ABE73B6923B134
:1016C000F8690BF018F80028C6D11BF0010F05D1FE
:1016D0007B6AED1AAAE73B6A002BA7D048460BF0BD
:1016E00033FFFB6F43B1D7F880309E423FBFFA6FA4
:1016F000431C22F816300136054497E7BAF1000F73
:1017000071D01BF0040671D0D146002607F14000CD
:10171000524641460BF034FF7B695B00BB607B693E
:10172000D04408EB43037B610BF002037B607B69D1
:1017300098455DD12378FB6163781BF0020F06EBBF
:1017400003020CBF4FEA590100211BF0010FD2B276
:1017500040F09D801BF0040F14BF4846002094F811
:1017600002B094F803803B616270A070E170BA69C6
:10177000F9687B6A20469847051EFFF612AFFB69A1
:1017800023703B69637084F80380BA697B6A84F8CC
:1017900002B0494607F140009847B0F10008C0F296
:1017A000A3803B6ABA697869A3EB0A01FB68C91A8E
:1017B000BB68C91A7B6A98470028C0F29780A84482
:1017C00008EB00054FF0000B07F1300AB34560D37A
:1017D0000021BA697B6A08469847E2E64FF00009A3
:1017E00007F1300094E75646D14695E7B14693E7B6
:1017F00018F8021B3E4A18F8015C54F82530934251
:1018000002D33C4A93421CD33B6923B1F8690AF0E6
:1018100072FF00288BD17B68F3B909F1280207F128
:101820002800024409F1010302F8101C07F15002DC
:1018300052FA83F309F102095FFA89F903F8105C9F
:1018400075E73B692BB1F8690AF055FF00287FF472
:101850006EAF1BF0010F09D006F1280207F1280135
:10186000731C561806F8205CDEB260E71BF0040F0C
:101870003FF45DAF09F1280207F1280109F10103E6
:1018800002EB010909F8105C5FFA83F94FE70020C9
:1018900065E71BF80A3087F82F3054F82390FB6F68
:1018A000FBB133F81B80BA697B6A012107F12F0075
:1018B000984700281ADB0544B8F1000F06D14846C6
:1018C0000BF042FE00F101081FFA88F8BA697B6A42
:1018D000414648469847002808DB05440BF1010BB8
:1018E00074E7D7F87C80DEE745465AE6054658E6B9
:1018F000D8E600001C14010073F000000400000191
:1019000088E80000014B1860704700BF14000020F9
:1019100030B587B00025CDE903010446009503A941
:101920000548059500F018F9DDE904309842B8BF84
:10193000255407B030BD00BF45C700002DE9F04772
:10194000058B04462807904611D4022905F00705A7
:1019500040F0CD8020460BF00CF978B10138218B96
:10196000042811D8DFE800F0C3106D859500012927
:101970000CBF45F0100545F02005258388F311883C
:10198000BFF36F8FBDE8F08701F0070AAA4500F0AA
:10199000A6800027B9463E46A368002B00F0BD8014
:1019A00041F00801218388F31188BFF36F8FA1688C
:1019B000002900F0BB800D68002900F0B780D1F845
:1019C0000480334652462046C047002D76D02B680F
:1019D00029461D46F0E701F007035A1F012A1BD8CC
:1019E000002221F00701062B276889B2C4E90022F2
:1019F00009D13B4603E0628B013262831B68002BF6
:101A0000F9D141F00201218320460BF0B2F8002801
:101A10007BD041F0200177E0042B0AD121F00701AF
:101A200089B2218320460BF0A4F810B141F02001C7
:101A30002183218B01F0070AAA4550D00027B9461F
:101A4000AAE7236921F0070141F00601062DD3F82A
:101A5000009021832DD1B9F1000F40D041F0080151
:101A6000218388F31188BFF36F8F3A492046C84716
:101A700029E021F00701236941F0040189B2042D16
:101A8000D3F804902183E6D000273E464FF0040AA5
:101A900082E721F00701236941F0050189B2052D94
:101AA000D3F808902183D6D000273E464FF0050A90
:101AB00072E700273E464FF0060A6DE72B4687E7A0
:101AC000B9F1000FD1D14FF04003EFF3118883F348
:101AD0001288BFF36F8F238B23F008032383258B9A
:101AE000EA062ED525F01003238305F00705666965
:101AF000218B002EBFF66FAF00232768C4E90033A7
:101B000021F0070141F001012183218B01F0070A37
:101B1000AA454FF000097FF43FAF002F9BD041F062
:101B20000801218388F31188BFF36F8F002FC7D07E
:101B30003D6839463346524620460BF046F82F465C
:101B4000F4E7AB067FF51AAF25F02003238305F0F9
:101B50000705FFE6F7CB00002DE9F04F814695B071
:101B60008B4617461C460025387808B9284658E3A6
:101B70007B1C2528039306D05946C8470028C0F28D
:101B800050830135FBE1182200210EA80BF003FD64
:101B90007B78252B7DD00023781C98469E469C465A
:101BA0001E46014610F8012B2B2A00F0A18000F2FE
:101BB0009880202A00F09F80232A00F09F802BB17C
:101BC0009DF8403043F040038DF84030B8F1000FED
:101BD00005D09DF8403043F020038DF84030BEF131
:101BE000000F05D09DF8403043F010038DF84030D1
:101BF000BCF1000F05D09DF8403043F008038DF88C
:101C000040302EB19DF8403043F004038DF8403051
:101C10009DF8403003F04400442803D16FF386134D
:101C20008DF840309DF840302A2A43F080038DF82B
:101C300040307FD19DF8412042F001024B1C8DF8CD
:101C400041201A782E2A9DF841200CBF0121002145
:101C500061F341028DF8412078D15A782A2A6ED05A
:101C6000013300224FF00A0C194611F8010BA0F1C4
:101C70003006092E40F295809DF840101292C1F373
:101C8000400040EAD2700A4660F341028DF84020DD
:101C90005CE0BA1C03928DF843309DF84130DA07BE
:101CA00040F12E8154F8048BB8F1000F07DA9DF84B
:101CB000402042F004028DF84020C8F100085E0781
:101CC00040F1278154F804ABBAF1000F80F226816D
:101CD0009DF841306FF341038DF841304FF0FF3AEA
:101CE0001CE12D2A0DD0302A7FF469AF012358E77B
:101CF0004FF0010C55E74FF0010E52E74FF001088D
:101D00004FE701264DE70EFB0262303A03461846C4
:101D100010F8016BA6F1300CBCF1090FF3D9994210
:101D20008FD09DF840101192D20F62F341018DF8CF
:101D3000401086E70B4600224FF00A0EE7E79DF8B9
:101D4000412042F004028DF8412002331A786C2AB7
:101D500047D02BD8682A31D06A2A4BD04C2A51D090
:101D60001A4612F8013B0392782B9DF841208DF81A
:101D7000433000F2BE806D2B51D8692B00F2B98040
:101D8000572B67D8412B03D0453B022B00F2B18083
:101D90009DF84230042262F302038DF842300123A1
:101DA00073E00CFB0202303A0B465DE7742A25D043
:101DB0007A2AD5D19DF8412006210CE05A78682A6C
:101DC0009DF8412006D1012161F3C6028DF8412022
:101DD0000233C5E7022161F3C6028DF841200133C9
:101DE000BEE75A786C2A9DF8412001D10421EBE727
:101DF0000321F0E79DF841200521ECE79DF8412003
:101E00000721E8E7BDF8402022F4F04222F0020268
:101E100042F4804242F00202ADF84020DFE76E3B20
:101E2000D9B201238B4040F282410B4237D113F0EB
:101E3000240F51D1D8075CD59DF84230032161F3BE
:101E400002038DF8423002F07803A3F140014B42C7
:101E50004B411AE0A3F15801C9B2012000FA01F187
:101E600011F4624F94D140F6010631421DD111F4B4
:101E7000043F3ED09DF8423060F3020302F0780246
:101E8000402A8DF8423034D000239DF84020C2F320
:101E900040010B4363F341028DF84020FDE69DF8BD
:101EA0004230022161F30203E8E79DF8421002206C
:101EB00002F0780260F30201402A8DF8421002BF5E
:101EC0009DF8401041F001018DF84010632BDBD1EB
:101ED000131E18BF0123D8E79DF84230032161F398
:101EE000020312F0780F8DF8423014BF0123002353
:101EF000CBE79DF8403043F001038DF84030C3E755
:101F00009DF94020002AB4BFDDF844804FF0FF382F
:101F1000D5E698077FF5E2AEDDF848A09DF84110C0
:101F20000023CDE911339DF8423003F00703012B64
:101F3000C1F3C30133D1CB1E042B04D8DFE803F077
:101F4000214646212100236801294FEAE372CDE9A9
:101F50000E321CD19DF93830DA17CDE90E32043437
:101F60009DF8403013F0030650D0039B3A46594683
:101F700048460AF05EFF0028C0F253810544039FE3
:101F8000F2E554F8043BDA17CDE90E32E8E702290E
:101F9000E5D11AB243F3C033CDE90E23DFE7022BBC
:101FA00024D1CB1E042B04D8DFE803F0181010183E
:101FB0001800012954F8043B4FF0000214D0022904
:101FC000CDE90E32CCD19BB20E93C9E7073424F091
:101FD0000704F4E80223CDE90E23C1E754F8043BDB
:101FE0000E9300230F93BBE7DBB2CDE7042B08D1A0
:101FF000073424F00704D4E900230834CDE90E2384
:10200000AEE7032BACD154F8043BDDE79DF8430069
:102010007828B4D862281CD825283FF4ADAD5828BC
:10202000ADD10DF136030093DDE90E0108AB10AA26
:102030000AF0B9FEBAF1000F074680F29A80002F2D
:102040009DD00DF13603D81B002E00F0C180013069
:10205000BEE06338152892D801A252F820F000BFE4
:1020600035210000472100007F1F00007F1F000076
:102070007F1F00007F1F0000472100007F1F00001E
:102080007F1F00007F1F00007F1F0000D521000080
:102090006D210000932100007F1F00007F1F0000C2
:1020A000B92000007F1F00006D2100007F1F00008D
:1020B0007F1F00006D210000BAF1000F0E9F35DB7D
:1020C000514638460BF047FA07EB000A002F3FF461
:1020D00056AF00269DF8423013F01002059200F032
:1020E000938002305B06119A48BF129B0492104401
:1020F00048BFC018B8F1000F40F3A0809DF8402001
:10210000A8EB0008C2F380035007069300F1968005
:10211000510640F189803EB159463046C8470028F3
:102120007FDB069B01351E4630227EE038460BF0F1
:102130000BFAC9E70E9B8DF82030002608AF0DF191
:10214000210A0120C6E719075CBFC3F300135E0133
:10215000DDE90E2348BF2B26002BBFF662AF5242AB
:1021600063EB4303CDE90E232D265AE7002658E7FB
:1021700000269DF840200DF13603DB1B6FF386121D
:102180009A458DF840207FF65AAFAAEB03031193CE
:1021900055E70E9890B30DF13603009310AA08ABE3
:1021A00000210AF000FEBDF8423003F0EF0343F4D3
:1021B000F04343F01003BAF1000F0746ADF8423088
:1021C000D6DA00283FF4DBAE0DF13603181A0026EC
:1021D0009A467FE70E9B07293FF6D1AEDFE801F074
:1021E0000C04060C08080C0C1D70C8E61D80C6E621
:1021F000EA17C3E90052C2E61D60C0E62E4F06464C
:1022000007F1050A052065E71A0748BF013069E7AD
:102210000793104606925946C8470028DDE9062371
:1022200004DA15B0BDE8F08F202243461946002994
:1022300003F1FF33ECDC45446D1A98462EB1594644
:102240003046C8470028ECDB01359DF84230DA06FD
:1022500001D41B0705D559463020C8470028E0DBCC
:102260000135059B33B19DF843005946C847002806
:10227000D7DB0135049E2E4405E059463020C8477F
:102280000028CEDB0135731B002BF6DC53463A46A3
:10229000594648460AF0CDFD0028C2DB0544A84453
:1022A000A8EB0503002B7FF76AAE59462020C847EC
:1022B0000028B6DB0135F3E727F1000006F04ABE3F
:1022C0002DE9F047DFF85880044607464FF0010932
:1022D00014B93846BDE8F08794FAA4F5B5FA85F547
:1022E00009FA05F32E0108EB05156FEA030A24EA43
:1022F00003042B7B002BEBD058F806301B694BB93D
:102300004644042273682846196807EA0A0700F061
:1023100059FADDE7284698470028D9D1F0E700BFF1
:1023200050E9000030B51049104889B000220CF087
:102330002BF90F4D0F4900220023CDE9062300247D
:102340000E23CDE90334CDE901440B4B00944FF447
:102350004072284609F05CF8084928460BF097FEC1
:10236000204609B030BD00BF8123000020090020B5
:102370009804002040240020712600002DF1000068
:10238000014809F0D3B900BFC00300202DE9F04790
:1023900080461F480F460AF0CCFF0646002830D082
:1023A00000252846BDE8F087237B73B12368DB68EE
:1023B0000BB12046984723681B69D3B96368042290
:1023C0001968204600F0FEF9013610344C45EBD375
:1023D000B8F1000FE5D0002DE2D02846FFF770FFDE
:1023E0000546002FF7D000214FF4A47009F044FEF9
:1023F000F1E7204698470028E0D00AFA06F31D438B
:10240000E2E7044CDFF8109005464FF0010ADDE7E3
:10241000C80C002050E9000060E90000014B53F8AF
:1024200020007047D8E9000008B5034608462BB1E4
:10243000044A136000F078FC002008BD6FF015001E
:10244000FBE700BF1800002010B5044C237813B937
:10245000034809F06BF90123237010BD151D0020FE
:10246000C003002010B5044608480AF062FF5CB1C2
:10247000BFF35B8F064B53E8001F013943E800129E
:10248000002AF8D1BFF35B8F10BD00BFC00C002045
:10249000C40C00200020064BBFF35B8F014653E8BD
:1024A000000F43E80012002AF9D1BFF35B8F704799
:1024B000C00C002070B5FFF7EDFF084C084E054634
:1024C000B44200D370BD63685B792BB123685B684D
:1024D00013B12946204698471034F1E750E900002F
:1024E00060E9000010B5044C044920460AF0B2FD32
:1024F000034B1C6010BD00BFF4020020C4E90000C3
:10250000B80C0020084A094808B500231370084A8F
:102510001360084A4FF400411360FFF785FFBDE8E0
:102520000840FFF7DFBF00BF161D00202FD30000BB
:10253000C00C0020C40C00200146002201480023EA
:102540000AF0A9BDF402002001480AF042BE00BF13
:10255000F4020020024B014618680AF08CBE00BF4E
:10256000B80C002001480AF0C2BE00BFF4020020EF
:1025700070B5284B187800284BD0FFF7E5FF0546CB
:1025800090B1BFF35B8F244B53E8001F013943E840
:102590000012002AF8D1BFF35B8F204C204EB442CA
:1025A0002DD32846FFF7D6FF1E4B1F4C1B68002B70
:1025B00019DD0BF0C1FF4FF47A72A0FB020302FB9E
:1025C0000131C30BD4E9002043EA41439B1A4FEA8F
:1025D000D13140F2E93261EB0001934271F1000127
:1025E00001D3FFF767FFD4E9003213F57A7342F1A4
:1025F0000002C4E90032BDE87040FFF7B3BF636872
:102600005B7923B1236829461B682046984710341C
:10261000C5E770BD151D0020C40C002050E9000066
:1026200060E90000C00C00201809002070B50D4DB5
:10263000297861B90120FFF7A9FE0B4C0B4EB4427B
:1026400006D3FFF795FF0028FBD101232B7070BD47
:1026500063685B791BB1236820469B6898471034F8
:10266000EDE700BF161D002050E9000060E9000002
:1026700000212DE9F0470846FFF788FE044648B3DD
:1026800040F267684FF0000909F02AFD1A4B186004
:1026900030B11A4B1B68092B02DD194809F046F8C6
:1026A000184FDFF85CA0002544B12046FFF708FE74
:1026B000044618B94FF0FF384FF0FF39FFF758FFC5
:1026C000064628B9B5B942464B46504609F04EF881
:1026D0003546E9E74FF0FF384FF0FF39D4E72B6874
:1026E0009B691BB100221146284698471035BD4210
:1026F000F5D3E8E7044DFAE7BC0C0020C40C002039
:10270000C003002060E9000050E9000013B518483C
:102710000AF00FFE174B1B787BB14FF04003EFF32D
:10272000118483F31288BFF36F8FFFF721FF84F3C7
:102730001188BFF36F8F02B010BD0F4B1B68002BC9
:10274000F9D050B900220023CDE900230B484FF403
:102750000042002309F008FFEDE70A28EBD1074803
:102760000BF01EFF064802B0BDE8104008F0DEBFC7
:10277000C40C0020161D0020BC0C002020090020E5
:10278000C003002010B5064B1B680446984721463D
:10279000A06004480AF0FDFCBDE81040FFF7B6BF9A
:1027A00018000020F4020020044A054B9B1AB1EBEC
:1027B000D30F34BF52F831000020704748E80000C2
:1027C00050E90000084BC31A10B41B1144680133D0
:1027D000237143689A7143681960436801225A71F2
:1027E00010BCFFF731BE00BF50E900002DE9F04FEB
:1027F0008FB004AFC1F34A28B8600D4691467B60A4
:102800000C0DB8F1000F63D0002607F114034FF050
:10281000040B4FF00A0AC7F80C80C7E907667E620E
:102820000193CDF808B0CDF800A007F11C03F968BA
:1028300032464846FEF788FEB0F5006F03461CD3CB
:102840006C468AB0D9F8041004AB2648C3E90501E8
:1028500040F2FF71D9611A464FF400711984224B7E
:1028600042F8103F214833464FF41251FFF7BEFFA4
:10287000A5462C37BD46BDE8F08FC0F30A0804F129
:102880001700184420F0070080083B60FFF754FE53
:1028900068F35325044690B13B68154AC7E90836EA
:1028A00000F1100107F11403F961CDE900A3CDF89F
:1028B00008B0F96807F11C034846FEF745FE68F3C7
:1028C00053257B68B9682A4620460AF068FDD0E7A0
:1028D00004F1170020F007008008FFF72DFE0446E2
:1028E000EDE700BF42F1000004000001B0E8000085
:1028F00073D300002DE9F04F87B0DDE91269DDE9FF
:10290000105A04460F4693469846A6B31021CDF8B8
:102910000090334652460020CDF81490FEF73EFC5E
:10292000014605F117000844144B039104F0070415
:102930000BF0070BE40020F0070003EA412344EA10
:102940008B1480081C43FFF7F7FD44EA0554054645
:1029500040B13EB10399CDF8009033465246103055
:10296000FEF71CFC434622463946284607B0BDE820
:10297000F04F0AF014BD3146D3E700BF00FE0F0050
:102980000EB403B503AB014653F8042B044801937E
:102990000AF02BFD02B05DF804EB03B0704700BFF6
:1029A00013D40000CA0605D48B064CBF0249034964
:1029B000FFF7E6BF704700BF82F1000081F1000021
:1029C0002DE9F04F89B09B469DF848300493DDE92E
:1029D00013930593049B0692DDE9157604460D4694
:1029E000002B00F0878006F0080307930AF0BFFC75
:1029F00006F0020A024600284BD086492046FFF71F
:102A0000BFFF8046BAF1000F08D016F0440F42D144
:102A100081492A462046FFF7B3FF804406F00103B0
:102A20005BB17E4B049A7E4953F822207D4B2046B1
:102A3000002A08BF1A46FFF7A3FF06F00803002B81
:102A400055D0794B049A794953F822202046FFF754
:102A500097FF0546069B2BB175491A462046FFF79E
:102A60008FFF0544BBF1000F05D072495A4620463E
:102A7000FFF786FF05444544B9F1000F49D1002F07
:102A80004FD1F30700F1C08031462046FFF78AFF9F
:102A9000B4E08046B6E7684B18680028BDD0674BA5
:102AA0004FF47A7E1B68B5FBF3F54FF46162B5FB1A
:102AB000F0F300FB1355B3FBF2FA0EFB05F502FB36
:102AC0001A323C21B5FBF0FCB2FBF1F300FB1C55C4
:102AD00001FB13220EFB05F50092B5FBF0F55849FA
:102AE000CDE901C552462046FFF74AFF95E706F0BB
:102AF0000805AFE7BBF1010F06D1B9F1000F64D1B2
:102B0000002F7BD000250CE0B9F1000FF8D04D4824
:102B10005CE04D484D494B46224609F0BBFD002F75
:102B200068D0DFF82C91DFF82CA1102F3146204619
:102B3000B84628BF4FF01008FFF734FF4FF0000BE6
:102B40005D4545DC059B51461A782046FFF718FF86
:102B50004FF0010B1BF0070F03D149462046FFF74A
:102B60000FFFD8453BD9059B514613F80B20204653
:102B7000FFF706FF0BF1010BBBF1100FEAD136494D
:102B800020464FF0000BFFF7FBFE5A46059B9A5C70
:102B9000A2F120015F2928BF2E2230492046FFF7ED
:102BA000EFFE0BF1010BBBF1100F1DD01BF0070F57
:102BB00003D149462046FFF7E3FED8455A46E5D8FB
:102BC00049462046FFF7DCFEEBE71F48049DA1E7DE
:102BD00049462046FFF7D4FE0BF1010BB0E7204930
:102BE0002046FFF7CDFEC5E7059BB7EB080743443A
:102BF00005939AD1049B002B7FF443AF204609B084
:102C0000BDE8F04F0AF0F8BB064A05492046FFF739
:102C1000B7FE39E789F100008DF10000E8E9000016
:102C2000D0FC000084F10000FCE90000B2F10000DB
:102C3000B8F10000BCF10000D00C0020CC0C00204A
:102C400096F1000049D4000013D40000EBD300003B
:102C5000C9F10000C1F10000CBF10000CDF100008E
:102C6000C7F100002DE9F0410F884B688E6886B0EF
:102C700005460C469046C7F382175BB1134A9B1A70
:102C800043F3CF0100291FDB2078C0F3C200FFF718
:102C90008BFD03462146608851F8102B0097C2F344
:102CA0004A22002A01EB0204C0F30B1008BF0021E6
:102CB000CDE90308CDE90114002231462846FFF78B
:102CC0007FFE06B0BDE8F0810023E3E748E800009E
:102CD00073B542F20F738B4228BF0B4605680F4A4B
:102CE00004460521684609F04DFD63680C495B68A0
:102CF00006460B2228460AF06BFB6368324669469B
:102D000028465B680AF064FB636806495B681B221F
:102D100028460AF05DFB02B070BD00BFC5EE0000A2
:102D2000ECF10000D0F10000074A0021012390429D
:102D300006D8064A01B901231360054B1860704795
:102D400040085B000121F2E740420F00CC0C00205C
:102D5000D00C0020014B01221A707047171D002073
:102D6000014B002019607047E80C0020024B03481B
:102D700001221A700AF040BB181D00202CEA000046
:102D80000148FFF7A5BF00BF2CEA000010B5064BB5
:102D900018680C46FFF742FB21460346BDE8104089
:102DA00002480F22184700BFE80C00202CEA000060
:102DB00010B9074B18707047064B1B781BB141F2D6
:102DC00088300BF0BBBBA420002109F055B900BF2F
:102DD000171D0020181D00202DE9F843DFF874901E
:102DE0001D4F80460E46042499F8005095B908F00E
:102DF000F5F828463246414608F072F8054608F0D4
:102E0000F7F8E5B101233B7099F8003073B930460B
:102E1000BDE8F88332464146002008F061F80546D7
:102E2000EFE72046FFF7C4FF651E2C46002008F0A0
:102E3000CBF80028EBD03B78002BF2D1E7E73B78CA
:102E4000002BE4D0013C2046FFF7B2FF3B78002B7B
:102E5000CAD1DCE7181D0020171D00202DE9F8431A
:102E600005464FF04003EFF3118683F31288BFF35A
:102E70006F8F0E4B0E4F1C68DFF838804FF00C0937
:102E80002CB986F31188BFF36F8FBDE8F883D4E9BE
:102E90000123002D18BF13462BB198F8102009FB11
:102EA00002F2B85C98472468EAE700BF040D0020EE
:102EB000F80C0020A81C002070B5194B1C7CBFF337
:102EC0005B8F04F01F0301229A40164B610903EB4C
:102ED0008103D04353E8001F01EA000543E8005690
:102EE000002EF7D1BFF35B8F0A4213D00E4B0F4D6C
:102EF0008BB10C236343EA18E85C51780AF071FB4C
:102F00000020FFF7ABFF0C235C432A1900232B5151
:102F1000C2E9013370BD83F31188BFF36F8FEFE710
:102F2000A81C00200C0D0020E3D50000F80C0020A8
:102F30002DE9F041354B07461D7C4FF04003EFF380
:102F4000118883F31288BFF36F8F0C24304B314EFE
:102F50006C431A19195D00294CD007CA06EB040C02
:102F60008CE8070000221A5588F31188BFF36F8F91
:102F70000C236B43F218F05C002839D07B1C10D076
:102F8000D2F808C0244C254A4FF400400021ECFB45
:102F9000004100232046FDF7A3F80121381A04F070
:102FA000A3F808F0AFFF0120FFF758FFBFF35B8FD6
:102FB0001B4B6A0903EB820305F01F0101228A40C3
:102FC00053E8000F104343E800010029F8D1BFF394
:102FD0005B8F144B3BB10C2303FB05F03318305CC3
:102FE00059780AF0F2FAFFF767FF08F09FFF012017
:102FF000BDE8F0810146284600F016F80028B3D05D
:1030000007C8344484E80700AEE700BFA81C0020CE
:10301000EC0C0020F80C00203F420F0040420F0053
:103020000C0D0020CBD500002DE9F04F85B00E46E9
:1030300003A900F043F81E4B039DD3F800A0DFF86E
:103040007480431E1BB203EB4303044605EB830568
:103050004FF400474FF0000B24B9A146484605B095
:10306000BDE8F08F6868144AC4465946E0FB07C1C2
:1030700000236046FDF734F80190A8680E4AC44664
:103080005946E0FB07C100236046FDF729F8BAF175
:10309000FF3FA94601D0824505D9731CDED0019BB4
:1030A0001844B042DAD9013CA4B20C3DD4E700BFC9
:1030B0001C0000203F420F0040420F0008B9024BA5
:1030C0000B600020704700BF3CEA0000F0B40C4BDE
:1030D0000C4E5F6A0C4BB34203D36FF08500F0BC1B
:1030E00070475D68BD4209D31C693CB195F802C0C8
:1030F0000579AC4502D12346F0BC18472433EAE7F2
:10310000100D002098040020740400202DE9F047E1
:10311000134CDFF85080DFF8509005460E461746F6
:10312000444503D36FF08500BDE8F0876268D9F8A5
:1031300024309A4212D3A36983B1907829798842C6
:1031400005D13A4631462846BDE8F047184752793E
:10315000012A03D13A463146284698472434DFE70E
:103160007404002098040020100D00202DE9F04187
:103170000B4CDFF8308005460E461746444502D317
:103180006FF0850009E063690BB92434F6E73A462D
:103190003146284698470028F7D1BDE8F08100BFA6
:1031A00074040020980400200248082200210AF03C
:1031B000F2B900BFCB0D002070B50B4B0B4CA342F6
:1031C00001D3002070BD196A1E7F00220439D5B2D8
:1031D000AE4201D82433F2E7013211F83250854271
:1031E000F5D10120EEE700BF740400209804002010
:1031F00008B509480378C3F341130A3350F8233064
:103200003BB100F1080200F110019847C043C00F24
:1032100008BD1846FCE700BF100D00207FB5084B25
:103220000593022304930748002304AA4FF4825114
:10323000FFF7DCFA4FF0FF3007B05DF804FB00BF8A
:103240002BF2000028E9000073B5C4B263060D46F6
:103250008DF8074007D02046FFF7AEFF78B10D4B41
:1032600093F8BA0058B10B4E204655B102F052FB0C
:10327000F3691BB10DF1070108209847012002B046
:1032800070BD02F081FBF369002BF7D00DF107014F
:103290000920F2E7100D002080B500AF88B06A4623
:1032A000074BC2E90530032342F8103F05480023CD
:1032B0004FF4C251FFF79AFA0020BD4680BD00BF0F
:1032C00050F2000028E9000004282DE9F74FDFF84C
:1032D0009C9004460F4615D001282FD1DFF890802E
:1032E00098F8B93053B300F0F3FD224D4D4522D28A
:1032F0002A6A4FF0000A2B7F5FFA8AF6B34204D89D
:103300002435F3E7FFF750FFE8E702EBC60601922A
:1033100030790AF097F9834630790AF0A3F8D8F8A3
:10332000C430019A23EA0003BBF1000FC8F8C4308F
:103330000AF1010ADFDA002388F8B9300D4D4D4556
:1033400008D30B4B1B6A6BB13946204603B0BDE86E
:10335000F04F1847EB681BB13A462146284698477C
:103360002435ECE703B0BDE8F08F00BF98040020DF
:10337000100D002074040020F8B500AF05460AF0D7
:1033800061F910F1780F044613D090B16E4688B001
:103390006A460E4BC2E90535032342F8103F0C483C
:1033A00000234FF4C251FFF721FAB5462046BD462F
:1033B000F8BD28460AF056F8064AD2F8C43023EA87
:1033C0000003C2F8C4300024F0E700BF6BF2000035
:1033D00028E90000100D0020F0B583B000AF0446CE
:1033E0008078387023796279274D43EA02237B8005
:1033F000E37803F003033B710AF034F8D5F8C430E6
:10340000184206460CD0A478204600F043FD204622
:10341000FFF7B2FF0AF035FE10B9962008F046FE1D
:10342000384602F043FA10F1780F0346387814D08A
:103430009BB16C4688B06A46144BC2E90530032341
:1034400042F8103F124800234FF4C251FFF7CEF963
:103450000020A5460C37BD46F0BD02F0D1FA10F1B0
:10346000780F08D038B16C4688B03B786A46094975
:10347000C2E90513E3E7D5F8C4300120334385F8EA
:10348000B900C5F8C430E5E7100D00208DF200004A
:1034900028E90000B1F200002DE9F047A34EB3691E
:1034A00004460F461546FBB9237803F01F03012B92
:1034B00000F09D80022B00F0048133BB94F90000E2
:1034C0002A686178002834DA062912D008292BD01E
:1034D000D9B901231370517096F8C3305B0043F0E3
:1034E0000103137002232AE198470028DCD1002051
:1034F0000DE06288100A011F0129844605D90728BA
:1035000003D8716AD2B20C781CB96FF01500BDE80F
:10351000F0874E78664503D19A4200F00B81013363
:103520002144F0E70B780AE196F8BA3013700123D2
:1035300005E101390829E8D801A353F821F000BFBB
:10354000D93500000B350000E73500000B350000D1
:10355000653500000B3500000B3500000B35000011
:1035600071350000A07802F05DF90028BFD0CCE7EB
:103570006388756A63BBFFF717FE638886F8BA3005
:10358000F369002BB3D06A4903209847AFE76B7803
:10359000042B10D0052B11D0022B04D16F79638836
:1035A000BB4208BF01202B781D442B78002BEED1A5
:1035B0000028AAD0DFE795F80380F4E76388BB42D0
:1035C000F1D1B8F1000FEED12846FFF705FFEAE789
:1035D000FF270020B846E8E76388012B95D1002338
:1035E00086F8C33083E76388012B8ED1F8E796F81D
:1035F000BA30D5F800C0002B87D0756AA38894F83C
:1036000004E02A46107800283FF47FAF5178022961
:1036100004D192F80480F04500F293800244F1E76F
:103620008CF800208CF80120396060E7154494E0A4
:103630000B2A7FF46AAF00274FF0FF08C146BA4655
:1036400006E06B78042B0FD0052B21D02B781D447E
:103650002B78002BF5D1F36913B151460720984719
:10366000002F7FF444AF50E795F80280A38895F8C7
:1036700003909845EAD163889945E7D1B8F1070FDF
:103680001CD806EB0803AA4683F8BB900127DDE7A8
:10369000A3884345DAD1A3784B450AD0AF783846A2
:1036A00000F0F8FB3846FFF767FEB0FA80F77F09B5
:1036B000CCE72846FFF790FE0746C7E7AA46002753
:1036C000C4E794F900206378002A18DA002B7FF40D
:1036D0001CAF24792D6863060AD02046FFF76CFDE5
:1036E00000283FF412AF96F8BA30002B3FF40DAF2C
:1036F0002946204602F068F900236B70F2E6012BA0
:1037000008D0032B7FF401AF6388002B7FF4FDAE5C
:10371000012103E0618800297FF4F7AEA088FFF75C
:1037200093FD00287FF4E3AEEFE600BF100D00200C
:10373000CA0D0020022829607FF4F4AE4B883B605C
:10374000D5E694F9000062780028BFF671AF002A30
:103750003FF466AF0A2A7FF4D8AE2A78002A3FF4F5
:10376000D4AE697804297FF461AFA9788B427FF4E5
:103770005DAF072B96BF9B19002393F8BB308CF8E5
:103780000030D4E613B5134C237DCBB9E268A168B1
:10379000019201AB802009F073FE019AA3681344E3
:1037A000A360E3689B1AE36043B93AB12369E288F6
:1037B0009A4203DD9B0601D10123237502B010BD9F
:1037C00000231A4619468020237502B0BDE8104038
:1037D00002F040B9100D002070B58AB000230D46EC
:1037E00001930646002868D1002940D108220B46E3
:1037F0000DEB020109F03FFF002804DA802002F0FF
:1038000089F80AB070BD324C029A2260039A626055
:1038100004F13802A2609DF90820BDF80E3025752C
:10382000002AC4E9035515DB802B0FD9294B0993D6
:103830000223089328482B4608AA4FF48251FEF72A
:10384000D5FF802002F066F82846D8E713B1C4E916
:103850000333D6E7FFF7CCFC0028CFD0E2882369FA
:103860009A42D4BFE260E360FFF78CFFC9E7184CCF
:10387000D4E90212002A01AB05DC024609F0FBFE86
:103880000028BEDABAE709F0F6FE002804DA802044
:1038900002F040F83046B2E7019AA3681344A360EF
:1038A000E3689B1AE360002BABD104F13803A360FB
:1038B000FFF79EFC0028D7D1A0E78028A1D1044BB8
:1038C000DA68002AD0D11B7D002BCDD199E700BF4B
:1038D000100D0020D2F2000028E90000054B064A36
:1038E0009A62064ADA62064A1A63064A58629A617E
:1038F00000207047100D002099340000CD300000EA
:103900006D3100000D31000010B5094B93F8B8403F
:1039100054B900F0D9F818B9BDE81040FFF77EBCE3
:10392000FFF7DCFF204610BD6FF07700FBE700BF1C
:10393000100D00202DE9F34104463B4D3B484FF06C
:10394000FF324FF0FF3307F007FE95F8B860002E06
:1039500067D137482C62E86102F0F0F901F030FFDE
:10396000041E42DB00F0D8FA041E3EDB402368460A
:10397000ADF802308DF804608DF8006001F096FF1C
:10398000041E32DB802768468DF8007001F08EFF40
:10399000041E2ADB2749304602F0BCF9041E24DB52
:1039A0002449384602F0B6F9041E1EDB224CDFF82B
:1039B0008C80444520D3002002F022F8041E14DB42
:1039C000D5F8C430802043F00103C5F8C43002F0BC
:1039D00017F8041E09DBD5F8C43043F48033C5F86A
:1039E000C430012385F8B8300024104807F02EFEBB
:1039F000204602B0BDE8F081276A0026227FF3B29C
:103A00009A4201D82434D4E707EBC30257F83310A5
:103A1000107902F07FF901360028EFD04FF0FF3423
:103A2000E3E76FF07704E0E7100D0020AC0300201F
:103A3000C9320000D9370000740400209804002027
:103A400030B51F4B8BB005AA03F1100518685968F3
:103A5000144603C40833AB422246F7D11B782370C7
:103A60001022002101A809F096FD1222002115481C
:103A700009F091FD102101A809F0F7FE00281BDDD7
:103A80000828B8BF0820093801AB0E491A180020D1
:103A900012F8013F0AAC04EB131403F00F032833B0
:103AA0006B44013014F8144C13F8143C0C700828C3
:103AB0004B7001F10201EBD102480BB030BD00BFE9
:103AC000F6F20000291D00202DE9F04F834C8BB049
:103AD00000AF00264FF0011BB2463546B0462378B2
:103AE00043B97F4B02349C42F3D17C482C37BD460E
:103AF000BDE8F08F6378052B05D8DFE803F0A60456
:103B000003A6073FA04623781C44E8E7E378002B90
:103B1000F9D1A37843B30AF1010A5FFA8AFAF2E70E
:103B20006A68944223D024359D42F9D36D4688B00B
:103B30006A466C4BC2E90534032342F8103F6A48D9
:103B400000234FF4C251FEF751FEAD46674B7B6236
:103B500002233B626448002307F120024FF48251A4
:103B6000FEF744FE0020C1E7614D624BDCE7AB6825
:103B7000002BD0D0514620469847CCE7002D62D18B
:103B80005D4B7B6202233B625748002307F1200212
:103B90004FF48251FEF72AFED8E7296AA07801EB9C
:103BA000C2010B79984205D001322B7F9A42F4D39F
:103BB000524BE6E74FF00109E07800F0030038755A
:103BC000207994F805C040EA0C20788294F902002C
:103BD00000285FFA89F328DA09F110004FF0010C90
:103BE0000CFA00F010EA0B0F27D143F08000387474
:103BF00007F11000C7E90131FA6001F025FED7E9AD
:103C000002127B68C8B93A7CA27012F0800F18BF0C
:103C100010330A7118BFDBB24FF0010214BF9A4093
:103C200002FA09F24BEA020B6DE7012000FA09F0F3
:103C300010EA0B0F01D11846D9E709F10109B9F1D2
:103C4000100FB9D1B0E70022AFE7032E2AD1FFF75A
:103C5000F7FE8146A8B109F077FCF86088B12848E2
:103C600009F072FCFA68824217D0264B7B6202236D
:103C70003B621D48002307F120024FF48251FEF7FA
:103C8000B5FD23786FF00201E218091B04EB530322
:103C9000D1420ED50136F6B235E74946A01C09F0EF
:103CA0006FFCEEE7002EECD1B8F1000F0AD1164BF5
:103CB00067E74FF0000002F8010C13F8010902F861
:103CC000020DE5E7A4EB080388F80230C3F30723ED
:103CD00088F8033088F804A0DCE700BFF003002078
:103CE0007204002007F3000020E90000EDF300005B
:103CF000740400209804002027F3000068F30000FB
:103D0000F6F2000085F30000D0F3000010B5094B77
:103D100000211A461C78844204D15C6814B102EB7D
:103D2000811010BD0131042903F14003F2D10020BC
:103D3000F7E700BFD80D00202DE9F04383B050F81D
:103D4000283C10F82C5C103300AF044611D10369F5
:103D500050F8202C13F002064ED00ABB13F00403D7
:103D600004D11A461946284609F08AFB002344F874
:103D7000283C54F8283C10330ED054F8186C5EB12F
:103D800054F81C8C54F8149C0AF07BF900286FD06E
:103D90003D4821460AF073FA0C37BD46BDE8F08372
:103DA00050F8241C3B1D284609F06AFB98B16E466A
:103DB00088B06A46354BD561C2E90530042342F824
:103DC000103F334800234FF40151FEF70FFDB54675
:103DD0006FF01503CBE77A6854F8243C134444F899
:103DE000243C54F8203C9B1A44F8203C54F81C3CDA
:103DF000134444F81C3CBCE750F8241C3B1D2846E7
:103E000001F0CAFE88B1E84688B06A461F4BD5610A
:103E1000C2E90530042342F8103F1D4833464FF4F1
:103E20000151FEF7E3FCC546D2E77E6854F8243C16
:103E3000334444F8243C54F8203C9B1B44F8203C79
:103E400054F81C3C334444F81C3C002E8ED02846C9
:103E500001F07AFFB6FBF0F303FB1066002E85D16C
:103E600054F8203C002B81D0284601F0FBFE80E76F
:103E700044F8180CA4F1100007F058FC4A464146DB
:103E80002846B04788E700BF800B00201BF40000E5
:103E900040E9000010B54FF04003EFF3118483F3C5
:103EA0001288BFF36F8FFFF731FF50B143681033B3
:103EB00007D16FF08B03436000F12C0103480AF037
:103EC000DEF984F31188BFF36F8F10BD800B0020E3
:103ED00070B50F4C04254FF04003EFF3118683F3C8
:103EE0001288BFF36F8F6368103307D16FF08B03B5
:103EF0000848636004F12C010AF0C1F986F31188C7
:103F0000BFF36F8F013D04F14004E4D170BD00BFE9
:103F1000D80D0020800B002070B50A4C0A4E0025F9
:103F2000314620460AF08EF90122A4F11000114614
:103F300001350AF04AF9042D04F14004F0D10020C3
:103F400070BD00BF040E0020393D00000149102261
:103F50000A60704710ED00E072B6404080F31188AF
:103F6000BFF36F8FBFF34F8F30BF62B6BFF36F8F5A
:103F7000704700BF72B6494081F31188BFF34F8F7D
:103F800020BF80F3118862B6704700BF2DE9F0476B
:103F9000814600AF0C4600294CD06E468AB0D1E96C
:103FA0000012A3686D462748A8464FF0050AC5E9E8
:103FB0000501C5E9072348F810AF2348424600230E
:103FC0004FF42151FEF712FCB546D4E903126369A0
:103FD000AD461E48C5F810A0C5E90501C5E907238F
:103FE0001948002342464FF42151FEF7FFFBB54626
:103FF00088B0E3696D46164AA8464FF0030AC5E942
:10400000052348F810AF1048002342464FF4C25130
:10401000FEF7ECFBB546A369AD460E4AC5F810A005
:10402000C5E905230848002342464FF4C251FEF774
:10403000DDFBB5462146484607F00AF8BD46BDE817
:10404000F08700BF45F40000E0E8000074F40000D1
:10405000A3F40000B2F4000040B2002807DB044AD9
:104060004109012300F01F00834042F821307047CE
:1040700000E100E040B200280CDB4309064900F0F3
:104080001F0020330122824041F82320BFF34F8FCD
:10409000BFF36F8F704700BF00E100E0054B42099E
:1040A00000F01F0053F82220012303FA00F0104013
:1040B000704700BF00E100E040B2D30754BF0231B7
:1040C00000210028ACBF00F16040074A4FEA4113CD
:1040D000ACBF00F5614000F00F00DBB2B4BF135479
:1040E00080F80033704700BF14ED00E008B572B6E9
:1040F000044B5A691AB100225A6109F0CFFF62B627
:1041000008BD00BFA81C002030BFFFF7FDBF00BFE7
:1041100008B5084B084A23F07F039360BFF34F8F25
:10412000BFF36F8F07F050F808F052F800F0AAFBC9
:1041300007F08EF80000000000ED00E0094A0A498F
:10414000936809689967094958674B6843F0805339
:104150004B60002383F31188BFF36F8F9368986FD0
:10416000704700BFA81C002094EC000000ED00E0A8
:1041700012498A684FF030001044EFF3098C80E850
:10418000F01F402080F31288BFF36F8F0C4F4FF069
:1041900000668A698A603E60506F0023536780F32F
:1041A000118804B5104600F009FCBDE8044002F196
:1041B000300090E8F01F8CF309887047A81C00209D
:1041C00004ED00E01EF0040F0CBFEFF30880EFF3E6
:1041D0000980816911F8021C0229FFD001B509F09C
:1041E00097F901BD42F8203C009B42F81C3C0A496B
:1041F000019B42F8183C029B42F8143C21F001015B
:104200004FF0807342F8043C42F8081C0023203A27
:1042100002654367704700BF9FC70000094A034615
:10422000906870B113F1160F406E05D0A0F14002F6
:104230009A4205D8834203D2814228BF00207047AA
:1042400000207047A81C002008B5094B0D461446F5
:10425000986000F0B3FB204685F30988002163B61F
:1042600081F31188BFF36F8F0022002308F097FAC3
:10427000A81C002001B572B60B4A506900281EBF69
:104280000021516109F00AFF62B6EFF30580A0F149
:1042900010004FEAC0000549014409C99847BDE82C
:1042A0000140034908470000A81C0020A401002089
:1042B000B5420000044B99689869884203D00349CD
:1042C0004FF080520A607047A81C002004ED00E007
:1042D0002DE9F04186B0064600AF0D463F4B7B61AD
:1042E00002244FF482513E483C6107F1100209F06C
:1042F0001EF93C4B9B6AD9046DD53B4B3848C7E946
:10430000044307F110024FF4825109F010F917200D
:10431000344B9B6A1A050BD5344B7B610223304822
:104320003B6107F110024FF4825109F000F91820A7
:104330002C4CA36A9B0523D5E8462D4B7B610223B9
:104340003B6107F110024FF48251254809F0EFF864
:10435000A36BA26A110412D588B06A462549204889
:10436000C2E90513032342F8103F4FF4C25109F08C
:10437000DEF8C5461EB1A36A23F40043A3621920E8
:10438000184B9B6A5A050BD51B4B7B6102231448C3
:104390003B6107F110024FF4825109F0C8F81A206E
:1043A000104B9B6ADB050BD5144B7B6102230C4839
:1043B0003B6107F110024FF4825109F0B8F81B205D
:1043C000084A936A43F47F439362183700232B70A3
:1043D000BD46BDE8F08116209AE700BFE0F400007A
:1043E000E0E8000000ED00E0F6F4000007F5000052
:1043F0001AF5000033F5000048F5000063F50000F1
:1044000010B586B0364B3748059304AA02244FF402
:104410008251049409F08BF8334B9B6A9A015DD565
:10442000324B304804AA4FF48251CDE9044309F0DD
:104430007EF81E202C4B9B6ADB010AD52C4B2948A9
:10444000059304AA02234FF48251049309F06FF8F4
:104450001F20254B9B6A1C030AD5264B2148059338
:1044600004AA02234FF48251049309F060F821203A
:104470001D4B9B6A59030AD51F4B1A48059304AA82
:1044800002234FF48251049309F051F82220164B75
:104490009B6A9A030AD5194B1248059304AA022372
:1044A0004FF48251049309F042F823200E4B9B6A8B
:1044B000DB030AD5124B0B48059304AA02234FF4E1
:1044C0008251049309F033F82420074A936A6FEA73
:1044D00003436FEA1343936206B010BD1D20A9E7A2
:1044E0007BF50000E0E8000000ED00E093F500003F
:1044F000A6F50000C0F50000DEF5000003F60000A0
:104500001DF600002DE9F04786B0814600AF8A46CF
:104510009046454B45487B6102243C6107F11002FF
:104520004FF4825109F003F8414B9B6AD80645D5F8
:10453000404B3E48C7E9044307F110024FF4825153
:10454000112408F0F4FF3A4B9B6A19070BD53A4B3C
:104550007B61022335483B6107F110024FF4825121
:10456000122408F0E4FF324DAB6A9A0728D56C4656
:10457000324B7B6102233B612C4807F110024FF460
:10458000825108F0D4FF6E6BAB6A1B0649D588B028
:104590006A462B4B2548C2E90536032342F8103FF3
:1045A0004FF4C25108F0C3FFA546BAF1000F03D083
:1045B000AB6A23F08003AB62132403E01024C2E74C
:1045C0006FF015061A4B9B6AD8070BD51D4B7B6104
:1045D000022316483B6107F110024FF48251142464
:1045E00008F0A5FF124B9A6AD10602D49A6A920784
:1045F0000AD55B681B0507D549463046FFF70EFE16
:1046000010B180F309880224094A936A43F0FF033A
:10461000936220460023183788F80030BD46BDE875
:10462000F0876FF01506C7E748F60000E0E80000E5
:1046300000ED00E05EF6000007F5000091F60000D6
:10464000A9F60000BFF600002DE9F043774B8BB0D0
:10465000D3F8048000AF0546C8F30804002686F3AB
:104660001188BFF36F8F02F07F43B3F17F4F0ED1FC
:1046700002F00C03082B19D16D4BFB6102236D482E
:10468000BB6107F118024FF4825108F050FF002679
:1046900035460023FB71E31E092B00F2A680DFE8FC
:1046A00003F00A999C95A4A4A4A4A49F10074CBF4E
:1046B0000D460126EDE7E9465F4BFB614FF002082E
:1046C00007F118025B48C7F818804FF4825108F0D0
:1046D0002EFF0023554CFB71E36A9A070BD5574B0D
:1046E000C7E90683534807F118024FF4825108F0D6
:1046F0001EFF002441E0E36A002B01DA504BEFE794
:10470000E36A5B00F5D54F4B4A48C7E9068307F1DA
:1047100018024FF4825108F00AFF6369AA6943F452
:1047200080736361BFF34F8FBFF36F8F636932F89C
:10473000022C23F480736361BFF34F8FBFF36F8F3D
:104740004DF602739A4208D0A36ADBB28BB3FA1D0E
:1047500001212846FFF7D6FE3AE088B02B686A466A
:1047600039493448C2E90513032342F8103F4FF496
:10477000C25108F0DCFE2C68CD46FB79ABB9202293
:10478000294607F1080008F0FBFE7B6A002E47D09F
:10479000C3F3080222B96FEA53236FEA43237B6213
:1047A00007F108012046FFF7F1FB2C37BD46BDE8B5
:1047B000F083A36A13F47F4F04D0F91D0120FFF7A3
:1047C00087FD05E0A36AB3F5803F92D3FFF718FE9B
:1047D0000446D2E7FA1D0021BBE7F91D0020EEE7F1
:1047E0001A4BFB610223BB617CE7194A194B18F491
:1047F000F87FE8468AB018BF13466A4616490D4846
:10480000C2E905134FF400731384103C134BD461B9
:104810004FF4115142F8103F08F089FEC54668E791
:1048200023F4FF7323F00103B9E700BF00ED00E0BC
:104830000CF70000E0E8000037F700004EF700003A
:104840006FF700007DF700009CF70000B8F700004C
:10485000F3F60000DEF60000DCF7000004000001C3
:10486000024A536943F010035361704700ED00E0C2
:10487000EFF30880EFF3098101B57246FFF7E4FE1C
:1048800001BD00BF044800234021C2180133282B7A
:1048900082F80013F9D1704700E100E0002080F3B6
:1048A0001488BFF36F8FFDF709FD00200D490860E4
:1048B000BFF34F8F0C4880F3088800F02BF840209E
:1048C00080F3118809484FF40461401880F3098887
:1048D000EFF314800221084380F31488BFF36F8F35
:1048E000FFF716FC94ED00E040390020C02B0020BB
:1048F0000749D1F890200023C2F3072218469342BB
:1049000000DB7047C1F89830C1F8A0000133F6E72A
:1049100000ED00E008B572B6002383F31388FFF7BB
:10492000E7FF144B4FF0FF32C3F88020C3F8842018
:10493000C3F88820C3F88C20C3F89020C3F89420D3
:10494000C3F89820C3F89C20C3F88021C3F88421C1
:10495000C3F88821C3F88C21C3F89021C3F89421AF
:10496000C3F89821C3F89C2162B6BFF34F8FBFF301
:104970006F8F08BD00E100E0084B9B6883420BD1BC
:10498000EFF3058343B1064B5A6842F080525A60F8
:104990005A6A22F400425A6207F0A8BBA81C002001
:1049A00000ED00E0024B034A0348012100F092B8F9
:1049B00000800020000000203CEA0000426E054B11
:1049C000403A1A60044A4021C3E901121846012105
:1049D00000F08AB8D80E002000000B152DE9F04138
:1049E000DFF8B4E09C4600AF154600238B421ADA8C
:1049F0004468002C4DD0BCF1000F1DD0661E34421F
:104A000015D06C4688B06A462449C2E905130323D1
:104A100042F8103F224800234FF4C251FDF7E6FE52
:104A20006FF01505A5462846BD46BDE8F0811F2C50
:104A3000E7D902681642E4D1202C026886685FFA42
:104A400085F814D9B4F1004F13D8013CB4FA84F4BA
:104A5000C4F11F046400B8F1070F46EA04060AD93E
:104A60006C4688B06A460F4BC2E90535CFE708248B
:104A7000F1E73E24EFE722F01F022A4342F0100242
:104A800046F00106CEF89850CEF89C200135CEF8BD
:104A9000A06001330C30A9E700ED00E0F3F700005F
:104AA000D8E8000016F80000044B0522C3F8942053
:104AB000BFF34F8FBFF36F8F704700BF00ED00E073
:104AC000BFF35F8F024B0022C3F89420704700BFF2
:104AD00000ED00E010B5034C01232278FFF77EFFC4
:104AE000207010BD3B1D002008B5094A0023127834
:104AF000FFF774FF10F1160F03D0064B00220728B2
:104B000000DD08BDC3F89800C3F8A0200130F6E727
:104B10003B1D002000ED00E014490868082810B58E
:104B200021D8FFF7CDFF124C49680022904201F1D5
:104B30000C0105D10F4B1870FFF7B6FF002010BD18
:104B4000C4F8982051F80C3C23F01F03134343F0A2
:104B50001003C4F89C3051F8043C43F00103C4F83E
:104B6000A0300132E2E74FF0FF30E8E748EA00000A
:104B700000ED00E03B1D0020014B1860704700BFB6
:104B8000200000204FF08043C0B2C3F81C05BFF3E3
:104B90004F8F0549054BCA6802F4E0621343CB60AE
:104BA000BFF34F8F00BFFDE700ED00E00400FA0502
:104BB00020B1034B800143F001031847704700BF49
:104BC00080E9000080B500AF88B06A46064BC2E9B4
:104BD0000530032342F8103F04484FF4C45108F055
:104BE0000AFDBD4680BD00BF4FF8000030E900005F
:104BF00070B5064686B00D460146354808F058FCAB
:104C0000044628B9304606B0BDE87040FFF7DABF69
:104C10000A2D5AD8DFE805F0061121233234405915
:104C2000595930002B4B05932B48022304AA4FF40B
:104C30008651049308F0DFFC1EE0284B05932648BC
:104C4000022304AA4FF48651049308F0D4FC0023F5
:104C500004F8043C04F8033C0EE0214BE3E7214B4D
:104C600005931D48022304AA4FF48651049308F0CB
:104C7000C2FC012304F8043C06B070BD1A4BDDE70A
:104C80001A4B05931448022304AA4FF48651049347
:104C900008F0B1FC0123DDE7154B0F480593022511
:104CA00004AA4FF48651049508F0A5FC14F8033CBF
:104CB000002BE1D00F4B084804AA4FF48651CDE9F0
:104CC000045308F098FC0023C4E70B4BABE700BF8C
:104CD000FC0E002070F8000030E900007DF80000B4
:104CE00093F80000A4F80000B6F80000CAF800002D
:104CF000DBF80000EAF80000F7F800002DE9F843BF
:104D0000044600AF884601792648914608F0DCFB4E
:104D10000646A0B9A3886C4688B06A462249234853
:104D2000C2E90513032342F8103F4FF4C45108F0C1
:104D300062FC6FF01200A546BD46BDE8F88394F909
:104D4000003000686578002B1CDA012D12D0AB1EF4
:104D5000012B14D96C4688B06A46154B1348C2E93A
:104D60000535032342F8103F4FF4C25108F043FCCD
:104D7000A54604E056F8083C0BB11D686DB96FF00C
:104D80008500D9E7092D02D0A5F10A03E0E756F81E
:104D9000083C002BF3D05D68F0E74B4642462146C5
:104DA000A847C9E7FC0E002005F9000030E9000023
:104DB0002CF900002DE9F84390F90030002B00AFEA
:104DC00004460D46164604DB6FF01500BD46BDE8EF
:104DD000F883038823F0E0039BB240F20162934220
:104DE000F2D190F80490B0F802801B4849464FEA8F
:104DF000182808F069FB78B96C4688B06A46174BEA
:104E00001748C2E90539032342F8103F4FF4C45153
:104E100008F0F1FBA546D7E7B8F1210F05D0B8F1AE
:104E2000220F0FD06FF08500D0E70368E1885B6840
:104E30005B6813F8092F914294BF29602A603360A0
:104E40000020C3E7E38850F80C2C9A4294BF2A60F4
:104E50002B6050F8103CF2E7FC0E002005F9000032
:104E600030E9000080B500AF88B06A46064BC2E961
:104E70000530032342F8103F04484FF4C45108F0B2
:104E8000BAFBBD4680BD00BF45F9000030E9000017
:104E900070B504460D4601460A4808F023FB20B9C8
:104EA0002046BDE87040FFF7DDBF022D08D150F865
:104EB000083C2BB11B691BB1BDE870400068184766
:104EC00070BD00BFFC0E002010B50469C4E90012DB
:104ED000A36000236361064B2061596804F114024A
:104EE00011B9C3E9002210BD0A605A60FBE700BF98
:104EF000FC0E002030B544680069057B87B045B1E1
:104F0000407B30B9206A007907B0BDE8304008F036
:104F1000B7BA074B05930748022304AA4FF48451FC
:104F2000049308F068FB6FF00A0007B030BD00BFC3
:104F30006BF9000030E90000020600F07F0312D593
:104F4000082B05D1010700F00F0306D50E48704766
:104F500010F0780F12D100F00F034C2000EB43103B
:104F60000A4B18447047082B05D1020700F00F03C5
:104F700006D50748704710F0780FF6D0002070472C
:104F8000044800EB4310704750100020040F00202D
:104F900070110020701000200149024809F06FB91B
:104FA0002C0F0020580900200146014809F002B9E1
:104FB000E003002002480022002306F083BB00BF6C
:104FC000E003002010B5054CFFF7F4FF20B1011DF0
:104FD000204609F02DF8F7E710BD00BF6803002058
:104FE00010B588B018480022002301A906F0B0F9D6
:104FF00030B3164B1648079306AA4FF48251022489
:10500000069408F018FBFFF7DDFF0F48002200238D
:1050100001A906F09DF950B10E4B0D4806AA4FF4B8
:105020008251CDE9064308F006FB00200AE0019812
:10503000042340600374FFF7B7FFFFF7ADFFF4E709
:105040000198406008B010BD680300208CF9000092
:1050500038E90000AAF9000098B5022800AF11D87D
:10506000104B1C5CFFF7BCFF50B1002202740472AD
:10507000FFF79AFF0C4B93F824300BB1FFF78CFF2E
:10508000BD4698BD6C4688B06A46084BC2E90530FB
:10509000032342F8103F06484FF4C25108F0CBFA00
:1050A000A546EDE79CFB0000040F0020C6F90000B8
:1050B00038E900002DE9F04190F80280064600AF83
:1050C0004046FFF739FF18F0800FF478054625D0E9
:1050D0009CB1032C1FD06D4688B06A462A4BC2F89B
:1050E0001C80C2E90534042342F8103F27484FF4DE
:1050F000015108F0A0FAAD460DE0FFF771FF03463D
:1051000048B10122AC770274032202739D60FFF75D
:105110004BFFFFF741FFBD46BDE8F08154B1012CC4
:10512000D9D1FFF75DFF03460028F4D06C770474F3
:105130000473EBE7FFF754FF0028ECD0B278144B70
:1051400012F0800F02F0080111D041B1D3F8A83657
:10515000EB6001230374022303738560D7E702F039
:105160000F02142101FB0233D3F80836F0E711B126
:10517000D3F8A837ECE702F00F02142101FB023349
:10518000D3F80837E4E700BFE1F9000038E9000090
:105190000070024013B5124805F0F4F9114B984223
:1051A0001AD1114804F07CFB0024104804F0A2FB43
:1051B0000F49104800944FF0FF334FF4806206F01F
:1051C00031FC0D490B4808F062FF0C480C4909F00E
:1051D00039F8204602B010BD6FF00400FAE700BFB6
:1051E000455200000000AD0B9FFB00006CEA000080
:1051F00080270020580900200DFA00002C0F002005
:105200001D54000010B50E49BFF35B8F002351E819
:10521000002F012A03D141E800300028F7D1BFF365
:105220005B8F0CD151F8044C1439204607F081FDF6
:10523000783004D12046BDE8104007F055BD10BDC0
:10524000240F00202DE9F04188B0064600AF14225B
:10525000002107F10C0008F09EF93378013B052B83
:1052600021D8DFE803F09B0313138D1503233B754F
:105270000024FFF7B5FE0346A8B1047400F108024C
:10528000D7E9050182E80300184634E00423EEE77D
:1052900096F802804046FFF74FFE837A054633B109
:1052A000013B022B68D92037BD46BDE8F08118F0DC
:1052B000800FF47824D09CB1032CF4D06D4688B0D4
:1052C0006A46374BC2F81C80C2E90534042342F811
:1052D000103F34484FF4015108F0ADF9AD46E2E714
:1052E000FFF77EFE03460028DDD00122AC77027472
:1052F000032202739D60FFF757FEFFF74DFED2E7D2
:1053000054B1012CDAD1FFF76BFE03460028CAD056
:105310006C7704740473EDE7FFF762FE044600281F
:10532000C1D001230374022303738560B07805F1B3
:105330000C0108F0D4FD70B16E4688B06A461A4B75
:10534000C2E90530032342F8103F16484FF4C2511A
:1053500008F071F9B546154AE968B2F88C328B420B
:1053600006D95B1AA2F88C3205F040FB2046C2E752
:105370000023A2F88C32F9E73046FFF79BFE92E754
:10538000381D05F00DFB7B79052B03D13B7913F01C
:10539000600F88D0064B7B6101246AE7022468E72E
:1053A000E1F9000038E9000018FA0000040F0020BD
:1053B0007010002038B5002464F07F00C0B2FFF701
:1053C000BBFD013408F024F9082CF5D10E4D002462
:1053D000E0B2FFF7B1FD036903B90561013408F0DC
:1053E00017F9082C05F14005F2D1084808F010F92A
:1053F000074BD3F87C2212B9064AC3F87C22064830
:1054000008F006F9002038BD941500205010002047
:10541000040F002094110020701100202DE9F047A6
:10542000A34CDFF890A286B0804600AFFFF7C2FD24
:10543000064618B91837BD46BDE8F08794F8252010
:10544000337C06F104093AB9002B00F0AF8099488B
:10545000494608F0EDFDE9E7042B00F29581DFE80D
:1054600013F0A50005003B015101780118F8043C38
:1054700083B9B3686D4688B05B7A6A468E498F48B7
:10548000C2E90513032342F8103F4FF4C25108F05C
:10549000D2F8AD46337BB568032B39D8DFE803F08B
:1054A000023F6E736E6908220021304608F073F8DF
:1054B000834B8448D3F880243270D3F884247270EC
:1054C000D3F88824D3F88C1442EA01227280D3F8EE
:1054D0009024D3F8941442EA0122B280D3F898249D
:1054E000D3F89C3442EA03230822F3803146EA6071
:1054F00008F046F82B68687A0021984796F9003042
:10550000002B08DBF38833B1A4F88C3205F06EFA77
:10551000494650469DE70023A4F88C32F8E76B7F9C
:10552000002BF5D02B7F002BF2D0002666486E773B
:105530004FF0FF324FF0FF332E7708F07FF86B69A2
:105540003B606B68C7E901363946687A05F05CF85C
:105550005E4B98420ED06D4688B06A465C4BC2E9FD
:105560000530032342F8103F54484FF4C25108F06D
:1055700062F8AD46544808F063F8C9E72B6801218A
:10558000687A9847C4E7AB7A6BB9EB7F5BB94E4852
:105590004FF0FF324FF0FF3308F050F805F05AFAA1
:1055A000494808F04DF82B680221E9E7337A042BCB
:1055B000AED8DFE803F059032367730004F0ACFFB3
:1055C00005460028A4D104F039FFBFF35B8F4149A1
:1055D000012351E8002F002A03D141E800300028C0
:1055E000F7D1BFF35B8F93D141F8085C41F8105CB1
:1055F000E0696361143907F01FFB89E7002565F056
:105600007F00C0B2FFF798FC037A13B1407A05F02F
:10561000D3FB0135082DF2D194F854311BB194F825
:10562000550105F0C9FB0025E8B2FFF785FC037AB8
:1056300013B1407A05F0C0FB0135082DF4D194F880
:1056400074321BB194F8750205F0B6FB012004F02A
:1056500045FF012384F825302368002B3FF458AF21
:1056600000210220984753E7002584F8255005F0D3
:105670005DFBFFF7C7FD2368002B3FF449AF2946C8
:105680000420EFE7002A3FF443AF04F04FFF236804
:10569000002B3FF43DAF00210520E3E72368002BFA
:1056A0003FF436AF002A3FF433AF00210620D9E79C
:1056B000040F00206803002038FA000038E90000D9
:1056C00000700240080F00203C0F00200000AD0BCE
:1056D0005EFA0000240F002008F110054FF0FF33A0
:1056E0004FF0FF32284607F0A9FFFFF763FE284678
:1056F00007F0A6FF58F8283C002B3FF409AF002123
:105700000120AFE794F8743293B1012584F88952EF
:1057100084F88852FFF764FC90B9234B7B61022325
:1057200022483B6107F110024FF4825107F083FFDA
:1057300058F8283C002B3FF4EBAE00210A2091E7FB
:105740001B4A057405738260FFF72EFCFFF724FCEB
:10575000EEE7184B7B6102233B6107F110024FF427
:105760008251124807F067FF08F00BFB05F0DEFAE4
:1057700004F05AFEFFF726FCFFF71CFE08F0FAFAC9
:105780000D4804F0FFFEC3E66D4688B06A460B493B
:105790000648C2E90513032342F8103F4FF4C251F3
:1057A00007F049FFAD46B3E684FA000038E900008F
:1057B0007011002098FA000045520000AFFA000076
:1057C00038B5164D95F824402CBB05F1380008F08B
:1057D00074FC204600F0CEFB22460121E861272020
:1057E000FEF76AFC08F0C6FAFFF7E4FD044610B9BC
:1057F000012385F824300A4B1B680BB1FFF7CCFB63
:105800004FF08043D3F83834DB0702D50020FFF790
:1058100023FC204638BD0024FBE700BF040F002016
:10582000E0030020074B93F824203AB193F8253089
:10583000002B14BF00206FF0120070476FF01200B1
:10584000704700BF040F00207FB5034602781B7924
:1058500002F00F007BB958B1104B0593022304935B
:1058600004AA4FF482510E4807F0E5FE4FF0FF30D6
:1058700007B05DF804FB082801D90A4BEDE7012BBE
:1058800009D1130707D4084B05930223049304AAF4
:105890004FF48451E7E70020EAE700BFC6FA0000B2
:1058A00038E90000E5FA000004FB000030B5164BB3
:1058B00093F8243087B004461BB305782846FFF7D9
:1058C0003BFBB0B1457223798372638843602078D3
:1058D000618810F0080F10D14B1E0B420DD00B4BFE
:1058E00005930B48022304AA4FF48251049307F056
:1058F000A2FE6FF0150007B030BD08F0EBFA0020F3
:10590000F9E76FF01200F6E7040F00201AFB000021
:1059100038E9000030B5194B93F8242087B00546CC
:1059200042B393F825302BB3FFF706FB044618B9B2
:105930006FF0150007B030BD837A012B0FD007D967
:10594000023B012B07D96369A3610020E060F1E706
:1059500005F088F8F7E7284604F0F4FFF3E7084B72
:1059600005930848022304AA4FF48251049307F0D8
:1059700062FEDDE76FF01200DCE700BF040F0020DD
:1059800042FB000038E9000038B50E4B93F82420A4
:10599000054682B193F825306BB1FFF7CDFA68B1B7
:1059A00015F008040AD1284604F0EEFF284605F059
:1059B00057FA204638BD6FF01200FBE76FF0150074
:1059C000F8E700BF040F002038B50C4B93F82420F3
:1059D00005460C4662B193F825304BB1FFF7ACFA9F
:1059E00048B144B1284604F0B5FF2070002038BD0E
:1059F0006FF01200FBE76FF01500F8E7040F0020CE
:105A000070B5134E96F824300446C3B1FFF794FAEC
:105A10000546B8B1230705D4204604F0B5FF20465B
:105A200005F01EFA2B7A83B901232B7296F82530E4
:105A30000BB9002070BD204605F0BEF9F9E76FF004
:105A40001200F7E76FF01500F4E76FF07700F1E769
:105A5000040F00202DE9F047DFF8249184B01E46A2
:105A600099F8243000AF80468A461546002B00F096
:105A7000838099F82530002B7ED010F0800F14D051
:105A8000FFF75AFA044680B1037AABB96C4688B086
:105A90006A463C4B3C48C2E90538032342F8103FB4
:105AA0004FF4C25107F0C7FDA5466FF0150420461C
:105AB0001037BD46BDE8F0874FF0FF334FF0FF329F
:105AC00009F1380007F0BAFDA37F33B109F13800BE
:105AD00007F0B6FD6FF00A04E9E7A37A55B3002B8F
