:10000000600F0020CD150000F7440000A11500008E
:10001000A1150000A1150000A115000000000000BE
:10002000000000000000000000000000BD12000001
:10003000A11500000000000069120000A1150000D9
:100040006D130000192700006D1300006D130000F0
:100050006D1300006D1300006D1300006D130000A0
:100060006D1300006D130000B34900006D13000014
:100070006D1300006D1300006D1300006D13000080
:100080006D1300006D1300006D1300006D13000070
:10009000892700006D1300006D1300006D13000030
:1000A0006D1300006D1300006D1300006D13000050
:1000B0006D1300006D1300006D1300006D13000040
:1000C0006D1300006D1300006D1300006D13000030
:1000D0006D1300006D1300006D1300006D13000020
:1000E00053B94AB9002908BF00281CBF4FF0FF319F
:1000F0004FF0FF3000F00CB8ADF1080C6DE904CE04
:1001000000F008F8DDF804E0DDE9022304B07047F0
:10011000704700BF2DE9F04F07468C460846099E00
:1001200015463C461946002B40F0C6808242B2FA82
:1001300082F746D94FB1C7F1200E24FA0EFE00FA1D
:1001400007F3BD404EEA030CBC404FEA15481FFAC6
:1001500085FEBCFBF8F9220C08FB19C309FB0EFA5B
:1001600042EA03439A4528D9EB1809F1FF3004D23B
:100170009A4502D9A9F102002B44A3EB0A03A4B2C9
:10018000B3FBF8F208FB123302FB0EFE44EA034411
:10019000A64514D92C1902F1FF3303D2A64501D983
:1001A000931E2C44A4EB0E0443EA00401EB1FC4015
:1001B000002334607360BDE8F08F4846DDE71346E6
:1001C000F0E702B9FFDE87BB831A01214FEA154E23
:1001D000AAB2B3FBFEFC200C0EFB1C330CFB02F896
:1001E00040EA0343984563D9EB180CF1FF3004D281
:1001F000984502D9ACF102002B44A3EB0803A4B24A
:10020000B3FBFEFC0EFB1C330CFB02F244EA03447E
:10021000A2424FD92C190CF1FF3304D2A24202D9C9
:10022000ACF102032C44A41ABEE7C7F1200C20FA5B
:100230000CF800FA07F324FA0CFCBD404CEA030268
:100240004FEA154EABB2B8FBFEFC110C0EFB1C8046
:100250000CFB03F941EA0040814504FA07F423D975
:1002600028180CF1FF3104D2814502D9ACF102010A
:100270002844A0EB090092B2B0FBFEFC0EFB1C0070
:100280000CFB03F842EA004398450FD9EB180CF138
:10029000FF3204D2984502D9ACF102022B44A3EB01
:1002A000080342EA014191E76146E2E76246F6E768
:1002B0006046A2E76346B6E7834205D90EB1C6E9B8
:1002C00000700021084676E7B3FA83F181B98342D2
:1002D00001D3BA420AD8BC1A60EB030301209C4642
:1002E000002E68D0C6E9004C002164E70846F7E715
:1002F000C1F1200C8B4022FA0CF41C4302FA01F5E8
:1003000000FA01F327FA0CF220FA0CFB4FEA144929
:100310001343BBFBF9F81FFA84FE09FB18BB1A0C48
:1003200008FB0EFA42EA0B42924507FA01F73ED962
:10033000A21808F1FF3004D2924502D9A8F10200B8
:100340002244A2EB0A029BB2B2FBF9F809FB182285
:1003500008FB0EFE43EA024296452AD9A21808F18C
:10036000FF3304D2964502D9A8F10203224443EA9E
:100370000040A0FB0593A2EB0E029A42CE4698469F
:1003800002D306D14F4504D2B9EB050E63EB040846
:10039000013886B1B7EB0E0362EB080707FA0CFCD5
:1003A000CB404CEA0303CF40C6E900379CE7404608
:1003B000C7E74346DBE73146FDE6000010B50378AA
:1003C000012B86B008D0022B08D0F3B9114806B033
:1003D000BDE8104003F066BF0F48F8E70F4C204619
:1003E00002F084FB98B9237B0593E37A0493A37A04
:1003F0000393637A0293237A0193E37900936279FA
:10040000A3792178064803F04DFF06B010BD0548DA
:10041000DDE700BF9C500000AD500000B00400209C
:10042000BD5000001651000030B54FF0E7328BB0E0
:100430004FF0C233CDE90123194A1A4D10685168B3
:1004400003AB03C31C460FCD0FC42B682360164AB1
:100450000692012305A88DF815308DF8263002F09C
:1004600009FA044628B1114803F01CFF20460BB0DE
:1004700030BD01A802F078FB044608B10C48F3E750
:1004800002A802F093FB044608B10A48ECE70821F1
:1004900003A802F0ADFB04460028E7D00648E3E7D6
:1004A000A2510000804F0000BD0300003451000045
:1004B0004B510000685100008551000010B5064BFB
:1004C000024603F1240153F8044B42F8044B8B42DB
:1004D000F9D11B78137010BDB00400200B680133F4
:1004E0000B60014B1B68184700000020014B18608F
:1004F000704700BF0000002007B50B4600210246F0
:100500000191034801A900F0E5F803B05DF804FB90
:10051000DD0400002DE9F84FB0F8189019F0080834
:10052000044693460DD001290CBF49F0100949F04B
:100530002009A0F818908BF31188BFF36F8FBDE8E6
:10054000F88F09F00709022907D1204603F0B7FE0A
:100550000028F0D00128238B4ED16769218B002F12
:1005600015DA256821F00701C4E9008841F001018E
:1005700021830026218B01F0070ACA4502D0A36817
:10058000002B5AD10DB9002E71D0002356E001F096
:1005900007035A1F012A1ED821F00701062B2568E0
:1005A00089B2C4E900880AD13DB1638B2A4612683A
:1005B00001339BB2002AFAD1638341F00201218307
:1005C000204603F07CFE06460028D3D0238B43F060
:1005D00020032383CDE7042B0CD121F0070189B23E
:1005E0002183204603F06BFE05460028C1D041F070
:1005F000200121830025BCE7032809D1226923F0CB
:100600000703166843F00603238300252F46B1E74E
:10061000042806D1226923F00703566843F0040337
:10062000F2E7052806D1226923F00703966843F014
:100630000503E9E700252E46E8E7012341F008011C
:1006400021838BF31188BFF36F8FFBB985BB16B184
:100650001F492046B0474FF02003EFF3118B83F37F
:100660001288BFF36F8F238B23F008032383238B20
:10067000DA0625D523F0100323830121B4F818905E
:1006800009F0070900297FF45EAF54E7A16800294B
:10069000DCD0D1F80090D1F804B03B465246204659
:1006A000D847B9F1000FD1D04946D9F80090F2E708
:1006B00029463B46524620462D6803F01CFEC5E7FE
:1006C00013F020011EBF23F0200323830221D5E76E
:1006D000234300002DE9F04F91B08B4602909246E3
:1006E0001C4600259AF8000008B928465FE3252833
:1006F0000AF1010707D0029B594698470028C0F22B
:100700005683013512E2182200210AA803F01FFFC8
:100710009AF80130252B78D0002210469646944650
:100720001646394617F8013B2B2B00F09D8000F24E
:100730009480202B00F09B80232B00F09B802EB117
:100740009DF8306046F004068DF83060BCF1000F73
:1007500005D09DF8306046F008068DF83060BEF197
:10076000000F05D09DF8306046F010068DF830601F
:1007700028B19DF8300040F020008DF830002AB1FB
:100780009DF8302042F040028DF830209DF8302056
:1007900002F04400442803D16FF386128DF8302014
:1007A0009DF830202A2B42F080028DF830207BD13A
:1007B0009DF8312042F001024B1C8DF831201A784F
:1007C0002E2A9DF831200CBF0121002161F3410246
:1007D0008DF8312074D15A782A2A6AD00133002149
:1007E0000A26184610F8012BA2F13007092F40F213
:1007F0008E809DF830200E91C2F3400040EAD17106
:1008000061F341028DF830205AE00AF102078DF8B9
:1008100033309DF83130D90740F1498154F8049BB9
:10082000B9F1000F07DA9DF8302042F004028DF88C
:100830003020C9F100095A0740F1428154F8048B75
:10084000B8F1000F80F241819DF831306FF3410320
:100850008DF831304FF0FF3837E12D2B0CD0302B95
:100860007FF46DAF01225CE74FF0010C59E74FF0C8
:10087000010E56E7012054E7012652E70CFB020265
:10088000303A33461E4616F8010BA0F13007092F07
:10089000F4D9994293D09DF830100D92D20F62F3A3
:1008A00041018DF830108AE70B4600224FF00A0C08
:1008B000E8E79DF8312042F004028DF83120023340
:1008C0001F4617F8012B6C2A41D025D8682A2BD057
:1008D0006A2A46D04C2A4CD01F4617F8012B9DF8A7
:1008E00031308DF83320782A00F2D980572A4DD83C
:1008F000412A03D0453A022A00F2D1809DF83230D5
:10090000042262F302038DF8323001239EE006FBDD
:1009100001213039034664E7742A26D07A2ADBD1D4
:100920009DF8313006220DE05A78682A9DF8312072
:1009300006D1012161F3C6028DF831209F1CCCE75E
:100940001346022262F3C6038DF83130C5E75A78A8
:100950006C2A9DF8312001D10421EBE713460322D4
:10096000F0E79DF831300522ECE79DF831300722A1
:10097000E8E7BDF8303023F4F04323F0020343F4FA
:10098000804343F00203ADF83030A6E7A2F15801EE
:10099000202900F2848001A050F821F0610A0000B3
:1009A0009F0A00009F0A00009F0A00009F0A0000A3
:1009B0009F0A00009F0A00009F0A00009F0A000093
:1009C000FD0800009F0A0000610A0000210A0000E3
:1009D000FD080000FD080000FD0800009F0A00005F
:1009E000210A00009F0A00009F0A00009F0A0000E1
:1009F0009F0A0000690A0000610A0000850A0000E1
:100A00009F0A00009F0A0000850A00009F0A00005C
:100A1000610A00009F0A00009F0A0000610A0000AE
:100A20009DF83210012003F0780360F30201402B9F
:100A30008DF8321002BF9DF8301041F001018DF8A1
:100A40003010632A31D1003B18BF01239DF83020BC
:100A5000C2F340010B4363F341028DF83020D8E626
:100A60009DF832100220DEE79DF8322003F0780373
:100A7000A3F14000032161F3020243428DF83220CA
:100A80004341E3E79DF83220032113F0780F61F32F
:100A900002028DF8322014BF01230023D6E79DF80F
:100AA000303043F001038DF830300023CEE79DF95C
:100AB0003020002AB4BFDDF834904FF0FF39BAE699
:100AC0009B077FF5C7AEDDF838809DF83110002315
:100AD000CDE90D339DF8323003F00703012BC1F34C
:100AE000C30138D1CB1E042B22D8DFE803F0030961
:100AF0000921210054F8043BDA17CDE90A3206E057
:100B0000073424F00704F4E80223CDE90A239DF812
:100B1000303013F0030656D002983B4652465946F1
:100B200003F0C8FC0028C0F242810544BA46D9E56A
:100B300054F8043B01294FEAE372CDE90A3205D1AA
:100B40009DF828300A9300230B93E0E70229DED1B9
:100B5000BDF92830D0E7022B23D1CB1E042B13D8AC
:100B6000DFE803F0030A0A12120022680A92002347
:100B7000201D0B930446CAE7E01D20F00700F0E8B3
:100B80000223CDE90A23F5E754F8043B0A9301292F
:100B90004FF000030B93D3D00229B8D1BDF8283011
:100BA000D0E7042B09D1E31D23F0070303F1080468
:100BB000D3E90023CDE90A23A9E7032B04BF54F8A6
:100BC000043B0A93A3E79DF833007828AED8622847
:100BD00022D825283FF48FAD5828A7D10DF1260340
:100BE0000093DDE90A0104AB0CAA03F01DFC824668
:100BF000B8F1000F0DF126000CDB9DF83020A0EBC2
:100C00000A036FF3861298458DF8302002D9A8EBBD
:100C100003030D9380463DE06338152886D801A272
:100C200052F820F0A50C0000090D00002D0B00006B
:100C30002D0B00002D0B00002D0B0000090D0000F6
:100C40002D0B00002D0B00002D0B00002D0B0000C4
:100C5000630D0000310D0000350D00002D0B00006C
:100C60002D0B00007D0C00002D0B0000310D00004D
:100C70002D0B00002D0B0000310D0000B8F1000F0E
:100C8000DDF828A00ADB4146504603F04CFC0AEB95
:100C900000080026BAF1000F0CD147E7504603F0D8
:100CA0003BFCF4E70A9B8DF8103000260DF1100A8A
:100CB0000DF11108A8EB0A0306B101339DF83220AB
:100CC000D00668D5023352060D9948BF0E9A0B44E0
:100CD00048BF9B18B9F1000F76DD9DF83020A9EBD5
:100CE0000309C2F38003039353076DD4500661D503
:100CF00046B1029B594630469847002857DB039B74
:100D000001351E46302356E01E070FD413F010069F
:100D100018BF2026DDE90A23002BBFF65FAF524241
:100D200063EB4303CDE90A232D2657E72B26F1E792
:100D3000002653E70A9840B30DF1260300930CAA4E
:100D400004AB002103F070FBBDF8323003F0EF0379
:100D500043F4F04343F010038246ADF832300026EE
:100D600046E70A9B07293FF6E1AEDFE801F00C04F5
:100D7000060C08080C0C1D70D8E61D80D6E6EA1794
:100D8000C3E90052D2E61D60D0E6DFF8C8A00646EF
:100D90000AF105088EE7110748BF013393E71846AB
:100DA00003935946029B98470028039B04DA11B02D
:100DB000BDE8F08F20234D444A46002AA5EB0901E7
:100DC00009F1FF39EBDC0D4636B1029B594630463E
:100DD00098470028EBDB01359DF83230D90601D465
:100DE0001A0706D5029B5946302098470028DEDBBB
:100DF00001359DF83230DB0607D59DF83300029BA4
:100E0000594698470028D2DB01350D9E2E44731BAE
:100E1000002B16DC029843465246594603F04AFB23
:100E20000028C4DB0544A944A9EB0503002B7FF788
:100E30007DAE029B5946202098470028B7DB01353C
:100E4000F2E7029B5946302098470028AFDB013576
:100E5000DDE700BFAB5100002DE9F84305464FF038
:100E60002003EFF3118683F31288BFF36F8F0E4BCD
:100E70001C689CB10D4FDFF838804FF00C09D4E9A5
:100E80000132002D08BF13462BB198F8142009FB3E
:100E900002F2B85C98472468002CF0D186F31188E0
:100EA000BFF36F8FBDE8F883D8010020E001002078
:100EB000580400204209012300F01F0003FA00F04B
:100EC000074BBFF35B8FC04303EB820353E8002F54
:100ED000024043E800210029F8D1BFF35B8F70473F
:100EE000EC01002038B51A4B1C7DBFF35B8F04F07A
:100EF0001F0301229A40174B6109D04303EB810382
:100F000053E8001F01EA000543E8005CBCF1000F54
:100F1000F6D1BFF35B8F114213D00F4B0F4D8BB146
:100F20000C236343EA18E85C517803F03BFB002094
:100F3000FFF792FF0C235C432A1900232B51C2E9CF
:100F4000013338BD83F31188BFF36F8FEFE700BF24
:100F500058040020F0010020A5450000E001002019
:100F60002DE9F843324B334A1C7DBFF35B8F630995
:100F70004FEA830952F823302F4EBFF35B8F04F002
:100F80001F0843FA08F313F0010F07460AD1014680
:100F9000204600F069F828B107C80C2303FB04635E
:100FA00083E807000C236343F218F55C2DB9204653
:100FB000FFF780FF2846BDE8F8837B1C0FD0D2F8EE
:100FC00008C01E481E4A4FF4004500210023ECFBD8
:100FD0000501FFF785F80121381A03F0B7FE02F08A
:100FE00031FD0120FFF738FFBFF35B8F012303FAC8
:100FF00008F8144B994459E8003F43EA080349E8CC
:101000000032002AF7D1BFF35B8F0F4B33B10C23B3
:101010006343F218F05C517803F0B8FAFFF762FF0F
:101020002046FFF747FF02F095FE0120C3E700BF0F
:1010300058040020EC010020E00100203F420F0096
:1010400040420F00F00100208D450000054BBFF32A
:101050005B8F53F82000BFF35B8F003818BF01206F
:10106000704700BFF40100202DE9F04F85B00F4616
:1010700003A900F047F8DFF88080DFF880A0441E65
:1010800024B24FF0000B631C04D10026304605B09B
:10109000BDE8F08F039A04EB440302EB830612F8D9
:1010A0002300FFF7D3FF054610BB70684FF40049DB
:1010B000C4462946E0FB09C152465B466046FFF73D
:1010C0000FF80190B068C4462946E0FB09C15B46B1
:1010D00052466046FFF704F8094B1B68591C01D0C3
:1010E000834205D97A1CD1D0019B1844B842CDD98E
:1010F000013C24B2C7E700BF3F420F0040420F004F
:101100000400002008B9024B0B600020704700BFAC
:10111000A84F0000014910220A60704710ED00E05E
:1011200072B6404080F31188BFF36F8FBFF34F8FCB
:1011300030BF62B6BFF36F8F704700BF72B64940D1
:1011400081F3118820BF80F3118862B6704700BF19
:1011500043B2002B08DB012200F01F0002FA00F06E
:101160005B09024A42F82300704700BF00E100E03B
:1011700043B2002B0DDB01225B0900F01F0002FAD5
:1011800000F02033034A42F82300BFF34F8FBFF330
:101190006F8F704700E100E0054B420900F01F002F
:1011A00053F82220012303FA00F01040704700BFDB
:1011B00000E100E043B2002BA8BF03F1604301F15E
:1011C0000101B8BF064B4FEA4111ACBF03F56143C3
:1011D00000F00F00C9B2B4BF195483F80013704770
:1011E00014ED00E008B572B6044B9A691AB10022FA
:1011F0009A6103F0DCFC62B608BD00BF5804002011
:1012000030BFFFF7FDBF00BF08B5084B084A23F009
:101210007F039360BFF34F8FBFF36F8F02F01CFA11
:1012200002F0BAFE00F0C6F902F05AFA000000001F
:1012300000ED00E0094A0A4993680968996709497D
:1012400058674B6843F080534B60002383F3118849
:10125000BFF36F8F9368986F704700BF58040020EA
:101260009850000000ED00E012498A684FF030000D
:101270001044EFF3098C80E8F01F202080F31288DF
:10128000BFF36F8F0C4F4FF00066CA698A603E60F3
:10129000506F0023536780F3118804B5104600F0A7
:1012A00025FABDE8044002F1300090E8F01F8CF30D
:1012B000098870475804002004ED00E01EF0040F78
:1012C0000CBFEFF30880EFF30980816911F8021C6D
:1012D0000229FFD001B503F006F901BD42F8203C18
:1012E000009B42F81C3C0A49019B42F8183C029BB7
:1012F00042F8143C21F001014FF0807342F8043CA5
:1013000042F8081C0023203A02654367704700BF7B
:1013100015440000094A0346906870B113F1160F96
:10132000406E05D0A0F120029A4205D8834203D234
:10133000814228BF002070470020704758040020D9
:1013400008B5094B98600D46144600F0CFF92046C9
:1013500085F30988002163B681F31188BFF36F8F8D
:101360000022002303F056F85804002001B572B69D
:101370000B4A906900281EBF0021916103F017FC01
:1013800062B6EFF30580A0F110004FEAC0000549F6
:10139000014409C99847BDE80140034908470000D6
:1013A00058040020204E0000AD130000044B996843
:1013B000D869884203D003494FF080520A607047D1
:1013C0005804002004ED00E038B5184B14469A6A22
:1013D0009A6A9A6A0546900718D5586B9A6A120657
:1013E00014D519B19A6A22F080029A629A6A9A6AAE
:1013F000D1060ED49B6A9A070BD400200B4A936A3D
:1014000043F0FF0393620023237038BD6FF0150093
:10141000ECE7064B5B681B05EFD52946FFF77AFF23
:101420000028EAD080F309880220E7E700ED00E019
:101430000C4B9A6A9A6A9A6A920508D59A6B9A6ACC
:10144000120404D518B19A6A22F400429A62054B3C
:101450009A6A9A6A9A6A002042F47F429A620870F5
:10146000704700BF00ED00E070B5484B5B688AB084
:101470000D46C3F30803002686F31188BFF36F8F70
:1014800002F07F41B1F17F4F11D102F00C01082928
:101490000DD0110701D4054601260022033B8DF82B
:1014A0000720032B6BD8DFE803F00455595D354660
:1014B000F3E7364BDC6A14F0020460D1DA6A002AE2
:1014C00015DBDA6A520012D5AA6932F8021C4DF611
:1014D000027291420AD093F828200AB30DF1070254
:1014E00001212846FFF770FF044600E02C689DF8B4
:1014F00007309BB92022294602A803F01DF8099B5A
:10150000002E3ED0C3F3080222B96FEA53236FEADC
:101510004323099302A9204602F0E3FF0AB070BDFD
:1015200093F829202AB10DF107010120FFF780FF70
:10153000DAE75A8D92B2002AD9D09A6A9A6A9A6AE0
:101540009A6A9A6A9A6A9A6A6FEA02426FEA124241
:101550009A62CCE70DF107020021C2E70DF1070105
:101560000020E3E7094B9A6A9A6A9A6A9A6A9A6A29
:101570009A6A9A6A6FEA02426FEA12429A620024F9
:10158000B5E723F4FF7323F00103C2E700ED00E0A9
:10159000024A536943F010035361704700ED00E0C5
:1015A000EFF30880EFF3098101B57246FFF75CFFA6
:1015B00001BD00BF044800232021C2180133282B9D
:1015C00082F80013F9D1704700E100E0002080F3B9
:1015D0001488BFF36F8F03F0DDFB00200D49086016
:1015E000BFF34F8F0C4880F3088800F02BF82020C1
:1015F00080F3118809484FF40261401880F309888C
:10160000EFF314800221084380F31488BFF36F8F37
:10161000FFF7FAFD94ED00E0600F0020A01000201D
:101620000749D1F890200023C2F3072218469342BD
:1016300000D17047C1F89830C1F8A0000133F6E737
:1016400000ED00E008B572B6002383F31388FFF7BE
:10165000E7FF144B4FF0FF32C3F88020C3F884201B
:10166000C3F88820C3F88C20C3F89020C3F89420D6
:10167000C3F89820C3F89C20C3F88021C3F88421C4
:10168000C3F88821C3F88C21C3F89021C3F89421B2
:10169000C3F89821C3F89C2162B6BFF34F8FBFF304
:1016A0006F8F08BD00E100E0084B9B6883420BD1BF
:1016B000EFF3058343B1064B5A6842F080525A60FB
:1016C0005A6A22F400425A6202F014BC5804002004
:1016D00000ED00E0024B034A0348012100F06EB820
:1016E0000080002000000020A84F0000426E054B43
:1016F000203A1A60044A2021C3E901121846012148
:1017000000F066B81002002000000B15F0B51F4F66
:1017100000268E4201DB1046F0BD44689CB353B1F5
:1017200004F1FF3C14EA0C0F18D11F2C16D90568E0
:101730001CEA050F12D1202C0568D0F808C0D2B2DF
:101740000FD9B4F1004F0ED8013CB4FA84F4C4F1BF
:101750001F046400072A4CEA040406D96FF015023E
:10176000D9E70824F6E73E24F4E725F01F051543E2
:1017700045F0100544F00104C7F89820C7F89C50C4
:101780000132C7F8A04001360C30C2E700ED00E09E
:10179000044B0522C3F89420BFF34F8FBFF36F8F24
:1017A000704700BF00ED00E0BFF35F8F024B0022E7
:1017B000C3F89420704700BF00ED00E010B5034C63
:1017C00001232278FFF7A2FF207010BDD50400206E
:1017D00008B5094A00231278FFF798FF10F1160F99
:1017E00002D0064A072800DD08BDC2F89800C2F8FA
:1017F000A0300130F6E700BFD504002000ED00E086
:1018000014490868082810B521D8FFF7CDFF124CFD
:1018100049680022904201F10C0105D10F4B18706C
:10182000FFF7B6FF002010BDC4F8982051F80C3C1B
:1018300023F01F03134343F01003C4F89C3051F806
:10184000043C43F00103C4F8A0300132E2E74FF05A
:10185000FF30E8E7B44F000000ED00E0D5040020C1
:10186000014B1860704700BF080000204FF0804314
:10187000C0B2C3F81C05BFF34F8F0549054BCA68BA
:1018800002F4E0621343CB60BFF34F8F00BFFDE76C
:1018900000ED00E00400FA0520B1034B800143F0A5
:1018A00001031847704700BFA04F0000084B70B5F8
:1018B000C31A0D4607499B10044659430648402267
:1018C00002F092FE2B4601462046BDE870401847C4
:1018D0002C020020B76DDBB6D84D000073B50C4C60
:1018E0000C4A4023041B00930D460B460A49A410E2
:1018F00061430646094802F0A3FE011E05DA3046A0
:101900002B4602B0BDE87040184702B070BD00BF62
:101910002C020020B1460000B76DDBB6D84D0000A8
:10192000002270B5012104461046FFF743FC0F4822
:1019300001F08EFA0E4B984215D103F0A7F82669F4
:101940000C49304602F00AFD00280BDB24690949E6
:101950000125356404F11C0002F000FD002801DBC4
:10196000E564002070BD6FF00400FBE7AD190000D6
:101970000000AD0BFC4F000001460C2309484B430F
:1019800070B5C418D4E90E5600224033A26318443F
:1019900002F017FE2DB132462B460348BDE87040D9
:1019A000184770BD2C020020D84D000010B101284E
:1019B00004D07047034B1B6C5B0701D1FFF7DCBF02
:1019C000704700BF2C02002008B54FF02003EFF352
:1019D000118183F31288BFF36F8F124A136843F0AB
:1019E000020013F0010310600CD04FF08042D2F8D7
:1019F0000C34D2F80C2413F0010303D00A4802F08F
:101A0000E0FD012381F31188BFF36F8F23B1BDE89F
:101A100008400020FFF7B0BFBDE80840012003F0F8
:101A200042B800BF7C0200206C0200201FB50022DB
:101A30000123CDE90223094ACDF800D06B46CDF849
:101A400004D002F02EFE002805DB4FF48042002374
:101A5000684601F077FF05B05DF804FBCF46000053
:101A6000094BBFF35B8F53E8002F22F0020143E8DC
:101A700000100028F7D1BFF35B8FD30702D40120F9
:101A800003F04EB8704700BF7C0200202DE9F04102
:101A90003949BFF35B8F0746012251E8003F41E817
:101AA00000200028F9D1BFF35B8F33B933493448A4
:101AB0004B60CB608A6002F064FC7B1E012B2FD848
:101AC000012F07D14FF08043D3F81C3403F00303F8
:101AD000012B25D003F065F8044618B9294B1B7873
:101AE000002B41D14FF02003EFF3118683F31288CE
:101AF000BFF36F8F0124DFF890804FF08045D5F859
:101B00001834D5F81824D2030CD503F00303012BA5
:101B100001D0012F06D10CB386F31188BFF36F8F6C
:101B2000BDE8F081ACB13046FFF708FBD5F81835B9
:101B3000002BE4D1D5F80421002AE0D0C5F8043107
:101B4000D5F804310123C5F81835C8F88031AB60E9
:101B5000D5E70021212002F0ADF9E7E74FF08043FF
:101B60000222C3F80423DBE74FF080430222C3F8CC
:101B700008230646BFE700BF800200201C020020A9
:101B800048020020440B002000E100E008B5084BAB
:101B90000848186002F0DCFF38B10748FFF760FE24
:101BA0000548FEF7A3FC002008BD6FF01200FBE71C
:101BB00084020020084E0000BD1B00000A2838B532
:101BC000074D044604D1286883680D215B68984757
:101BD00028688368E1B25B689847204638BD00BF3B
:101BE0008402002030B54068047B01F01F05B2F587
:101BF000001F45EA441585B04FF0000404D1284683
:101C000001F096FB00202EE0B2F5800FCDE90244F2
:101C10002BD1B3F1007F0CBF042305238DF80830CE
:101C2000836823FA01F1C9072BD4B2F1A07F28D130
:101C300005F01F0303F5E0734FF0A04252F8233084
:101C4000DB071ED40DF107042146284601F0D8FA1F
:101C5000144B984214D1204601F020FB124B9842BD
:101C60000ED06FF00B0005B030BDB3F1C06F05D0E2
:101C7000B3F1007F0CBF02230123CFE70323CDE79D
:101C800003940023194602AA284601F091F9064B55
:101C9000984204D10121284601F006FBB2E76FF01B
:101CA0000400E0E70400AD0B0000AD0B10B501F03F
:101CB000E5FA044668B901F0B9FA084B98420AD12E
:101CC0000748214601F096FA224605210620FFF733
:101CD00071FA002010BD6FF00400FBE70000AD0BAF
:101CE000E51C0000430970B510D1094B596869B172
:101CF00001250C68074E85408A682A4002D04B684F
:101D00003046984714B121462468F5E770BD00BFFE
:101D100088020020F04D00002DE9F04347683B7B2E
:101D200001F01F0585B00E4645EA43151446CAB9B1
:101D300002A9284601F064FA0446284601F020FB77
:101D40004A4B984204D06FF0040005B0BDE8F08320
:101D5000844205D19DF8080001F09AFAA042F2D120
:101D60000020F2E74FF000090DF103013046CDE904
:101D7000029901F045FA4B46804602AA4946284698
:101D800001F016F9394B984202D06FF01500DCE7EC
:101D9000804503D19DF8030001F07AFAA30351D5E1
:101DA00040F20663234040F2062293423BD00CD817
:101DB000062B15D004D89BB1022BE6D104230FE0EB
:101DC000B3F5007FE1D101230AE040F202429342E1
:101DD0002BD0B3F5C06F2AD0B3F5806FD5D10223D5
:101DE0008DF8043084F48033C3F30043E0068DF8AB
:101DF000053054BFC4F34013032321038DF806308C
:101E000017D57B68012101FA06F6C3F808650022A0
:101E100001A9284601F076F9144B984214BF6FF0DF
:101E20001500002091E70723DAE70523D8E703230D
:101E3000D6E7620341BF7B68012101FA06F6C3F8C9
:101E40000C65E4E7E3064FF0000354BFC4F340140D
:101E500003241A4601A928468DF8044001F0A8F889
:101E6000024B98423FF47CAF8FE700BF0000AD0B00
:101E7000F0B54B79012B28D0032B23D110278B7978
:101E8000032B1FD1CD790DB1012D1BD10A79012A68
:101E90001DD0022A1FD0AAB914460B684668B3F5B4
:101EA000164F36686ED033D8B3F5165F6DD01CD898
:101EB000B3F5966F6BD010D8B3F5967F6AD0B3F5B3
:101EC000167F6AD06FF085005BE00027D7E74FF4FC
:101ED00080740E22E1E70024FBE7B3F5166F5FD0B4
:101EE000B3F5965FEED1394B3EE0B3F5E14F5AD0F2
:101EF00007D8B3F5615F58D0B3F5964FE2D1344BB4
:101F000032E047F6122C6345DCD14FF400032BE09E
:101F1000B3F5613F4BD013D8B3F5963F4AD009D8FB
:101F20004DF6C02C634547D0B3F5614FCAD14FF48D
:101F30006B0319E0B3F5E13FC4D14FF0EB7313E04D
:101F4000B3F5612F3BD009D8DFF888C0634539D09D
:101F5000B3F5E12FB6D14FF0E86305E0DFF878C0C4
:101F60006345AFD14FF080530069C6F82435031D97
:101F700003C92C433A432243C6F86C2583E8030087
:101F80000020F0BD4FF41D03EEE7144BECE74FF4D7
:101F90009E23E9E74FF4A033E6E74FF41C33E3E771
:101FA0004FF41D23E0E70E4BDEE70E4BDCE74FF06E
:101FB0006C73D9E70C4BD7E74FF46503D4E74FF0C8
:101FC0007063D1E74FF08063CEE700BF00B013002D
:101FD00000A04E0090D0030040420F0000502700A8
:101FE00000C0750000F03A0000903A012DE9F74377
:101FF0000746002201210220FFF7DCF80220FFF74C
:10200000A7F8D7F804803E69D8F80040D8F80C90BB
:102010000021C4F8001501AA3760484602F017FCF9
:10202000051E56DB019BD9F800201979186802F0CB
:1020300043FC051E4DDB311D3846FFF719FF0546F1
:10204000002846D1D8F80430990719D506F11200B6
:1020500001F060FA224B98423FD1B07CC30003F1FB
:10206000804303F5F83304F10C0204F59071C3F8D2
:102070001015C3F814251B4A01238340C2F8043508
:102080000823C4F8003598F808305BB9C4F810315B
:10209000D4F8103106F11103C4F834350123C4F823
:1020A00038352360D8F804309A075CBF4FF480724B
:1020B000C4F80423DB0644BF4FF48003C4F80433A0
:1020C00010360023C4F84465C4F848350123A360E2
:1020D000E360284603B0BDE8F0836FF00405F8E73D
:1020E0000000AD0B00F00140F8B5066905460F464B
:1020F00002F057FD10B92C4B1B7883B94FF0200329
:10210000EFF3118483F31288BFF36F8F686802F0D6
:1021100054FB28BB84F31188BFF36F8FEEE7642470
:10212000686802F04AFB70B9012002F05DFC013CD6
:10213000F6D10021212001F0BDFEF0E784F31188E3
:10214000BFF36F8FF5E74FF02003EFF3118483F3B4
:102150001288BFF36F8F686802F02FFB0028EDD064
:1021600006F8107F69680B680122C3F84465C3F85C
:1021700048250022C3F82021D3F82001C3F85821B4
:10218000D3F858214A68D20641BF0822C3F8002577
:102190004FF48002C3F8042301229A6084F311886B
:1021A000BFF36F8FF8BD00BF440B002010B50123B3
:1021B0008340114ABFF35B8FDC4352E8001F01EA02
:1021C000040C42E800CEBEF1000FF6D1BFF35B8FE6
:1021D0004FF4803202FA00F002F1804202F58052A0
:1021E000C2F80803BFF35F8FBFF36F8F0B4214BFBA
:1021F0000120002010BD00BF980200201949F8B549
:10220000044622F07F450868C1E90023A5F50013C4
:10221000101AB3F5400F22D2134B1B681A0A1B0683
:102220005E19124B42F10007C3E90067012601F075
:1022300091FFA30003F1804303F58833D3F84025D1
:10224000AA420BD11EB94FF40002C3F84025084B37
:102250004FF4803000FA04F4C3F84443F8BD00267C
:10226000E5E700BFC80000209C020020B00000206D
:102270000010014019B3BFF35B8F0123104A834064
:1022800052E8001F194342E8001CBCF1000FF7D1CF
:10229000BFF35B8F0B4A4FF480338340C2F80433A3
:1022A000094BBFF35B8F1B68BFF35B8F23FA00F012
:1022B000C30742BF054B4FF40032C3F800217047FB
:1022C00098020020001001409402002000E100E08C
:1022D0000D4B1868010A0006BFF35F8F0B4BD3F854
:1022E0000435181841F10001B3F5801F0AD2084BDC
:1022F000D3E90023904271EB030303D210F1807005
:1023000041F10001704700BF9C0200200010014015
:10231000B00000202DE9F04F85B0164698460546DE
:10232000FFF744FF0090FFF7D3FFB04271EB0803C3
:1023300078D2464B301A68EB0101984271F10003E4
:1023400080F08180424B03EB0513D3E902ABD84503
:1023500008BF564551D04FEA850909F1804905F17A
:10236000500709F58839BF004FF4803101FA05F3B1
:10237000BFB226F07F4207F180470193D9F84005AC
:10238000344B07F588371446D3F80415401A20F06B
:102390007F4021F07F4C0128C9F840C507D1CDE925
:1023A0000221132002F0F0FCDDE90221294B01F1AA
:1023B000020CA4EB0C0020F07F40B0F5000F88BFAA
:1023C00064460020386038680198C3F8440324F05C
:1023D0007F40C9F84005D3F80405814206D0201A91
:1023E000023820F07F40B0F5000F19D8A41A24F06D
:1023F0007F4414EB060A48F1000B15490E982B0197
:1024000001EB0512C2E902ABC8500F9B53600024D8
:1024100028460099FFF72EFF204605B0BDE8F08F53
:102420002046B1E701230C4ABFF35B8FAB4052E873
:10243000001F194342E800100028F8D1BFF35B8F5A
:10244000B246C346D9E76FF01504E1E70100000189
:10245000B8000020001001409402002073B5194B11
:10246000194D00244FF0FF304FF0FF31C5F80845FB
:10247000C3E902014FF48033C5F80433134B02263D
:102480004FF400320121C5F804631120C3F8802104
:102490002246FEF78FFE1120FEF75AFE0C4A01235A
:1024A000AB602B6013600B4B0B4A0093019400232D
:1024B0002046FFF72FFF3046FFF7E8FA204602B02C
:1024C00070BD00BFB80000200010014000E100E036
:1024D00098020020FD210000FFFF7F002DE9F74357
:1024E000354CD4F804339A070BD5D4F8043143B1F2
:1024F000324A0023C4F80431D4F80431136801339C
:1025000013604FF02003EFF3118283F31288BFF3BF
:102510006F8FD4F80433DB0312D5BFF35B8F284BE6
:1025200053E8001F21F0010043E80006002EF7D118
:10253000BFF35B8F002936D1D4F84031002B32D164
:10254000002382F31188BFF36F8F4BB3FFF7C0FEF8
:102550004FF02003EFF3118C83F31288BFF36F8FDA
:10256000184BD3E90267B04271EB07024FF000024B
:1025700020D34FF0FF384FF0FF39D3E90015C3E9FE
:1025800002891A604FF48033C4F848338CF3118801
:10259000BFF36F8F21B1009532463B46002088473C
:1025A00003B0BDE8F0830023C4F84031D4F84031D3
:1025B0000123C6E71146E9E7001001409C02002014
:1025C00094020020B8000020431C13B521D001283C
:1025D00021DDB0F5000F20DA441EFFF779FE104B25
:1025E000D3E90013401AB0F5000F28BF00240130D2
:1025F00002190C48824228BF024652184FF00000D0
:1026000009490190009143F10003FFF783FE02B0F6
:1026100010BD0448E0E70024DFE7024CDDE700BF1F
:10262000C8000020FFFF7F00FD21000008B5FFF774
:102630004FFE024B1B68C01A08BD00BFC800002037
:102640000649074BC1F81435064B5B7C5A1E064BF6
:1026500043EA0243C1F81835704700BF001000403C
:10266000060003002000002020000001074A084B5C
:10267000C2F81435074B5B7C013B40EA034343EA55
:10268000002040F08070C2F818057047001000402C
:1026900000010100200000200B4B0C4A1B7AC2F8FD
:1026A0001035042B0DD8DFE803F008030C080300F5
:1026B000074BA0221A6001207047054B4FF4967219
:1026C000F8E70020704700BF200300200010004002
:1026D000A4030020044A0023C2E908339362034A9A
:1026E000C2E9083393627047740300204803002056
:1026F00010B5074C074904F1080002F04BF9C1F886
:10270000240504F10C0002F045F9C1F8280510BDBC
:102710002000002000100040194B684620F00701FF
:10272000D3F800218D4601B54AB1D3F80423D00770
:1027300041BF0022C3F8002103F510431B68104B72
:10274000D3F80C2132B1D3F80423110744BF00227F
:10275000C3F80C21D3F8102152B1D3F80423D206C8
:1027600006D50022C3F81021064B1B6803B1984719
:10277000FEF738FDFEF71AFEBDE8014085467047BA
:102780000010004040030020684620F007018D46FD
:1027900031B51B4B82B01B6801934FF02003EFF360
:1027A000118183F31288BFF36F8F164B00221D68CF
:1027B0001A6081F31188BFF36F8F134C2368ABB19C
:1027C000E90703D58DF8002068469847AA0705D584
:1027D00001238DF800306846236898476B0705D5BC
:1027E00002238DF80030684623689847FEF7FAFC0C
:1027F000FEF7DCFD02B0BDE831408546704700BF02
:102800003C0300203803002034030020124B1348FF
:102810001A68134B10B5C3F80825124B00241C701E
:10282000114B21461C70FFF755FF202201F08FFE4F
:10283000082221460D4801F08AFE0120FEF798FC8F
:102840000A20FEF795FC1420FEF792FC084B0322A9
:10285000C3F8002210BD00BF4403002090040020F4
:1028600000F00140D7040020D6040020D804002046
:10287000001000402DE9F0470546002800F0F380E5
:102880007A4E33780BB1FFF7C1FF794B794C6A6808
:102890001A6029461422204601F04EFE0025764B90
:1028A00076481D602022294601F051FE0822744816
:1028B000294601F04CFE734BA27AC3F80C25FFF7B2
:1028C000EBFE2378704A002B00F0BD80012B01D174
:1028D0006E4B1360617A6B4B012900F0BE800229B8
:1028E00000F0B38049B94FF6FF71C3F83C15684951
:1028F000C3F838150221C3F834151368607C984773
:10290000604B644964484FF0E732C3F81C254FF030
:102910004332C3F82025614AC3F82425604AC3F82E
:102920002825FFF7D7FE0A4600230133082B40F87D
:10293000042B02F12502F8D15A4A5B4800230133E7
:10294000082B40F8042B02F12502F8D10022574B46
:1029500014460132082A19601C719C6001F125019E
:1029600003F10C03F5D1524B524DDFF84CA1DFF8C7
:102970004C91DFF84C81534FC3E90044C3E9024452
:10298000C3E90444C3E906440423C5F8103540F202
:102990000223C5F808455046C5F8003200F0BAFDDC
:1029A000484600F0B7FD404600F0B4FD384600F060
:1029B000B1FD2A4644499AF8000000F0B1FD434AAF
:1029C000434999F8000000F0ABFD424A424998F8AB
:1029D000000000F0A5FD2B4A4049387800F0A0FD2A
:1029E0009AF8003099F80020012505FA02F205FA5C
:1029F00003F3134398F8002005FA02F213433A78E0
:102A000005FA02F21343364A29461360284600228B
:102A1000FEF7D0FB002202211420FEF7CBFB0022A0
:102A200002210A20FEF7C6FB2846FEF791FB142080
:102A3000FEF78EFB0A20FEF78BFB2A4B35701C70CD
:102A40000020BDE8F087284B43E74FF6FF71C3F83D
:102A50003C150F49C3F8381545E7FF21C3F83C156D
:102A600040F20711F6E76FF01500EAE7D604002000
:102A700034030020200300203803002090040020AD
:102A8000D804002000100040A003002041260000D0
:102A9000211001000C06002074030020E743C3232B
:102AA000A363E313E404002048030020A0020020F5
:102AB0000003002000A00040E1040020E00400200A
:102AC000E2040020E30400200011004010A00040B8
:102AD000041100401010004040A1004044A10040FB
:102AE00044030020D70400206D26000038B51C4B9D
:102AF0001B7863B370B31B4CA36A73B34FF020030E
:102B0000EFF3118583F31288BFF36F8F636A54F874
:102B100023100A7802704B78437091F90230837069
:102B20000B790371CB78C3700531053001F004FDDA
:102B3000636A0133072B88BF00236362A36A013BEA
:102B4000A36285F31188BFF36F8F002038BD6FF04B
:102B50000C00FBE76FF01500F8E76FF03C00F5E7BD
:102B6000D60400204803002010B50D4B1B78014609
:102B700003F0FF046BB978B104220A4801F0DCFCD1
:102B8000084801F007FF084B00BAC3F81C052046AF
:102B900010BD6FF00F00FBE76FF01500F8E700BF06
:102BA000D7040020200000200010004010B50D4B7D
:102BB0001B78014603F0FF046BB978B104220A4880
:102BC00001F0BAFC084801F0E5FE084B00BAC3F872
:102BD0002005204610BD6FF00F00FBE76FF01500D9
:102BE000F8E700BFD70400202400002000100040B8
:102BF00070B5104B1B780C4603F0FF05A3B9B0B1BC
:102C0000082914D80C4E0A46014606F1080001F0C6
:102C100093FC3474FF22C4F1080442FA04F4B4743F
:102C2000FFF766FD284670BD6FF00F00FBE76FF001
:102C30001500F8E7D704002020000020024AD2F84F
:102C40000034002BFBD0704700E0014010B501F0CC
:102C5000BDFE40B14FF080430022C3F80C21C3F801
:102C60001021C3F8382501F0B1FE002846D04FF0FE
:102C700080524C4BD2F80414C3F82015D2F8081433
:102C8000C3F82415D2F80C14C3F82815D2F8101480
:102C9000C3F82C15D2F81414C3F83015D2F8181450
:102CA000C3F83415D2F81C14C3F84015D2F8201418
:102CB000C3F84415D2F82414C3F84815D2F82814E0
:102CC000C3F84C15D2F82C14C3F85015D2F83014B0
:102CD000C3F85415D2F83414C3F86015D2F8381478
:102CE000C3F86415D2F83C14C3F86815D2F8401440
:102CF000C3F86C15D2F84424C3F8702501F066FEC1
:102D000048B14FF08043D3F80024D20744BF6FF09E
:102D10000102C3F800244FF08053D3E94C230D2A5D
:102D200035D13BB14FF01023D3F808224FF0804348
:102D3000C3F858254FF01023D3F80022002A03DBF4
:102D4000D3F80432002B29DA174901234FF0102061
:102D5000C1F804351224FFF771FFC0F80042FFF7F5
:102D60006DFFC0F80442FFF769FF0023C1F8043586
:102D7000FFF764FFBFF34F8F0C490D4BCA6802F495
:102D8000E0621343CB60BFF34F8F00BFFDE7102A13
:102D9000D0D1032BC6D8074AD35CC2E7064B074AFB
:102DA0001A6010BD00C0004000E0014000ED00E0EE
:102DB0000400FA05D4510000340000200090D00334
:102DC00070B501250268B2FA82F3C3F11F035E1CDD
:102DD000DCB214D0BFF35B8F05FA03F322EA0303DE
:102DE00050E8006F964204D140E8003CBCF1000F6F
:102DF000F6D1BFF35B8FE5D102480C7070BD02487D
:102E0000FCE700BF0000AD0B0200AD0B0368CB4038
:102E1000DB0710B515D4012303FA01F10368BFF3F2
:102E20005B8F41EA030250E8004F9C4204D140E826
:102E3000002CBCF1000FF6D1BFF35B8FEED102483E
:102E400010BD0248FCE700BF0000AD0B0400AD0B55
:102E5000044B1A7922B9012218601A71024870478E
:102E600002487047A80300200000AD0B0C00AD0B1A
:102E70004FF0804310B5D3F8002152B10020C3F8C1
:102E80000001D3F800210122C3F80823104B1B686E
:102E900098474FF08043D3F8042172B10022C3F861
:102EA0000421D3F80421D3F81824D3F81814920776
:102EB00004D10122C3F818259A6010BD0222C3F87C
:102EC0000823034BBDE810401B680120184700BFD2
:102ED000A8030020034B083033F81000C0F3401063
:102EE000704700BF3800002070B500F108030C4C9B
:102EF00034F81330DA0505460E4607D5C3F34323ED
:102F000004EBC30254F8333052689847A3682BB1DE
:102F1000E26831462846BDE87040184770BD00BFE2
:102F200038000020124A083010B432F81030D905A9
:102F30001BD5C3F3432123F4F85322F8103002F1D8
:102F40001004002034F8023B13F4807F03D0C3F355
:102F50004323994209D001302028F3D1002342F8BD
:102F60003130044810BCFFF751BF10BC704700BFA0
:102F7000380000208C00002038B50246FFF7AAFF79
:102F8000094C02F1080540B134F8153007495B0BD4
:102F900003F5A273002041F823001046FFF7C2FF9B
:102FA000002324F8153038BD3800002000600040B0
:102FB0002DE9F34104461E4609B34D4F00F10808C0
:102FC00037F81850AB0706D5FFF784FF18B149480A
:102FD00002B0BDE8F08104F01F00800000F1A040C5
:102FE0000978D0F8003725F0020523F00F0345F0EB
:102FF000010543EA810327F81850C0F8003792B161
:103000003B4B1578526804F1080033F810108F0715
:103010000CD5002ADBD133F8102022F01C0242EA42
:10302000850223F81020CEBB3348D1E721F02001E0
:10303000C904C90C23F81010002AECD0032DC6D8FF
:1030400017782DB92D4A07F5A27142F82150E2E711
:10305000BA0002F1804202F5C04241EA4731D2F89B
:1030600010C52CF0030CC2F810C5D2F810C52CF412
:10307000473C2CF4407CC2F810C5D2F810E54FEA6A
:10308000042C0CF4F85C4EEA054E4CEA0E0C41F0B0
:10309000200123F81010C2F810C5BCE7D6E900766D
:1030A0002046FFF73FFF002FBED0114D2B689F42F7
:1030B00004D16B689E4201D1002209E010480DF155
:1030C0000701FFF77DFE0C4B984281D19DF8072048
:1030D00045F8327005EBC20308345E6035F81430F1
:1030E00043EA422343F4807325F814309CE700BF81
:1030F000380000200400AD0B0000AD0B0060004064
:103100008C000020F8B5044671B3374E00F1080773
:1031100036F81750AB0704D4FFF7DCFE08B133488C
:10312000F8BD15F01C0F4B7801D0012BF7D004F03F
:103130001F00800000F1A04091F800E0D0F800C727
:1031400089785B002CF4E16C43EA0E232CF0070C29
:1031500043EA0C0343EA810345F0030543F001030E
:1031600026F81750C0F800370AB92148D8E71E4E94
:1031700004F1080736F817008307D0D592F800C08D
:103180006146890020F0200001F18041C00401F572
:10319000C041C00C26F817000023C1F8103555783F
:1031A000002DE2D0D1F81035927823F4981323F44F
:1031B000F853C1F81035D1F810E5230203F4F853A1
:1031C0002D0443EA0E0305F4403512052B4302F4A7
:1031D000801240EA4C30134340F0200026F81700DC
:1031E000C1F81035C1E700BF380000200400AD0B66
:1031F0000000AD0B014BC3E902017047380000200D
:1032000008B50246FFF766FE38B1054B054808329F
:1032100033F812305B0B0B7008BD0348FCE700BFAE
:10322000380000200000AD0B0400AD0B38B50F4C8A
:1032300094F85850BDB94022294604F1100001F01D
:1032400086F90620FDF784FF094B0A48C3F87C5134
:10325000D3F87C214FF00042C3F80423012384F803
:103260005830636538BD0448FCE700BF38000020D3
:10327000006000400000AD0B0500AD0B034B93F860
:103280005800003818BF0120704700BF38000020E8
:1032900001460148FFF7BABD8800002001460148F9
:1032A000FFF78EBD8800002010B50246FFF712FE22
:1032B00002F108041C4B33F81430E0B113F002049F
:1032C00019D15B0B9A0002F1804000F5C24002F177
:1032D000804202F5C04204600068D2F8100540F058
:1032E0000100C2F8100529B1012202FA03F30F4AC6
:1032F000C2F8043310BDC3F38203042B10D0052B96
:1033000010D04FF0A043D3F8101502F01F03D9409E
:1033100001F001010231BDE81040104601F002BC8D
:103320000321F8E70221F6E73800002000600040A2
:1033300008B50246FFF7CEFDC0B102F108010E4B01
:1033400033F81130990711D45B0B01229A409B008E
:103350000A4903F1804303F5C043C1F80823D3F8B9
:10336000102522F00302C3F8102508BDBDE808406F
:103370000021104601F0D6BB38000020006000405C
:103380000D4B00F1080210B533F81230DB0704468C
:103390000FD5FFF7CDFF204604F01F04FFF7ECFD2B
:1033A00004F5E0744FF0A043022243F824200348C0
:1033B00010BD0348FCE700BF380000200000AD0B43
:1033C0000400AD0B2DE9F74F4E4B4F484F490025F8
:1033D00001222C461E6836B1D0F8046316421EBF87
:1033E0001C601E68154304338B424FEA4202F1D140
:1033F000454BD3F87C31BBB14FF0A046D6F8203511
:103400000193C6F8203501AF4FF00108019C6CB95B
:103410003D4BC3F87C41D3F87C31D6F8203501937D
:10342000C6F82035002BEED1012466E094FAA4F40E
:10343000B4FA84F4364A04F10803E00832F81310B1
:1034400004F0070308FA03F23B5C23EA02033B544F
:10345000A30003F1A049C1F3820AD9F80027CB06E3
:10346000D346C2F3014218D5594620465FFA82FA84
:10347000FFF73AFDD9F80037C3F301439A4507D166
:103480000021204601F04EFB5146204601F04AFB48
:1034900008FA04F4C6F82045B8E7022A0CBF032155
:1034A0000221204601F03EFBBAF1030F04D0022AAC
:1034B00007D1BAF1010FEBD159462046FFF714FDB1
:1034C000E6E7032AE4D1BAF1020FF4E795FAA5F38F
:1034D000B3FA83F304FA03F29B0003F1804303F58C
:1034E000C04325EA0205D3F81005D3F81015C0F340
:1034F0000420C1F30141FFF7F7FC002DE6D103B032
:10350000BDE8F08F00610040006000402061004095
:103510003800002001460148FFF752BC940000200B
:1035200070B5044615460E46B1B1AAB101238340D9
:10353000C3F3130393B10B4B0146186801F056FA1D
:1035400070B1E00000F1804000F5F830C0F810657F
:10355000C0F81455044870BD0448FCE70448FAE775
:103560000448F8E7940000200000AD0B0900AD0B03
:103570000400AD0B0500AD0B10B5144C144A1549F1
:10358000032323616361144BA261E3614FF4806301
:1035900023620023A3626362E36222660F4A6266CB
:1035A000E01D1022A2662367E366636700F0AAFFAE
:1035B000BFF35F8F0A49204600F0A4FFBFF35F8F7F
:1035C0002023A371BFF35F8F10BD00BFB0030020A5
:1035D000D8510000E15100004407002034070020CA
:1035E000E55100000E4B70B553F82040013053F800
:1035F0002060A64200D870BDD4E90035284698471F
:1036000065B1EB6830B10028B8BF4042FF28A8BFC1
:10361000FF2018705A7842F001025A700834E8E727
:103620008450000008B50A4B012202201A70FFF7EF
:10363000D9FF00F003FE0320FFF7D4FF00F0EAF803
:1036400000F008FE034A137B23F00103137308BD47
:10365000440B00205001002008B50348034A002114
:10366000121A01F09AFA08BDB0000020480B0020A1
:1036700070B5002386B00122CDE90423134E144D0A
:1036800001930F22CDE902321249182303FB0055A2
:1036900006EBC01604464FF4907000FB04110E4B6D
:1036A00000954FF48072304600F082F8737B0B482F
:1036B0002C7523F0040373734FF4026303FB0404BB
:1036C0001C44EE606C6006B070BD00BFD0000020EE
:1036D00058040020800F0020CD380000A0100020EA
:1036E00080B52C4BA6B083F308882B4D2B4E6B690D
:1036F0002B4F43F4007300246B61E02385F82230E4
:10370000EC772C766C76AC766B6A43F4E0236B62D4
:1037100085F82340FDF73CFFFDF7FCFC4FF0FF333D
:10372000AB62EB62FEF76CF8FDF7D4FF40F20113D9
:10373000ADF8243006ABB360CDE91F44229401F00C
:1037400006FA2046FFF74EFF0120164DFFF74AFF0D
:1037500000F01CFB144BF561059301231349009401
:10376000CDE903434FF480623B46CDE9014428464E
:1037700000F01EF86A7B064622F0040228466A73AF
:1037800001F04AFA2046FFF773FF3A4631462846D1
:10379000FDF7D6FDC018002000ED00E05804002021
:1037A0002536000050010020EC510000600B002085
:1037B0002DE9FF410E9E0673042646730D9E867307
:1037C00000F158050F46D61DC0E916550C9A002584
:1037D00026F007062037C0E90655C0E9197685604E
:1037E000C573C56606F1200802920B9A01928844BF
:1037F0000A9A009242460446FDF770FD044B656547
:103800009B6803B11B6F2367404604B0BDE8F0819D
:10381000580400202DE9F043294C2A4D87B0264654
:10382000AE4204F130040FD300F00CF9244CDFF861
:1038300098904FF4004640F2E737AC4220D307B0EF
:10384000BDE8F04300F086BA54F8043C059354F800
:10385000103C049354F8143C039354F8183C02931E
:1038600054F81C3C019354F8203C009354E90C019B
:1038700054E90A23FFF79CFF54F8303C5E65CEE71D
:10388000636A5A1C0DD023EAE37300213846C3FB58
:10389000060151EAC333D4F8008004D1404600F059
:1038A000B7F93034C9E74FF47A720023FCF718FCFB
:1038B00002460B4608F11800494600F0D1FBF0E73C
:1038C000AC000020AC000020394C000008B50B4CC7
:1038D0000B4D4FF02002EFF3118382F31288BFF3F8
:1038E0006F8F01F023FA2B78A06113B9FDF718FC54
:1038F000EFE7FDF735FB0028EBD1F7E75804002090
:10390000440B002038B504464FF02003EFF3118537
:1039100083F31288BFF36F8F01F0DAF948B1002208
:10392000826701F079F929460548BDE8384000F082
:1039300077B8D4E902329A4218BF0133A360F2E7A4
:10394000450B002013B54FF02004EFF3118184F3F1
:103950001288BFF36F8F846844B1013C846081F3A7
:103960001188BFF36F8F002002B010BD52EA03042C
:1039700006D181F31188BFF36F8F6FF00F00F3E76B
:10398000CDE900230246024800F09EF9ECE700BFB3
:10399000450B002038B5074D2C6854B1FEF746FEA4
:1039A000054B04441C6128680021BDE8384001F043
:1039B000CDB938BD8804002058040020F8B504466D
:1039C0000D464FF02003EFF3118783F31288BFF306
:1039D0006F8F104E00214FF4004C40F2E730316100
:1039E00000234FF47A72E4FB0C01FCF779FB002C06
:1039F000094B0ADC1860094BB0681D60FFF7CAFF6D
:103A000087F31188BFF36F8FF8BD0228B8BF02207B
:103A1000F0E700BF58040020880400208404002040
:103A200049B9EFF3058030B9054BDA699B689A42D2
:103A300001D0FDF7FFBB81F31188BFF36F8F704793
:103A4000580400204FF02003EFF3118183F3128814
:103A5000BFF36F8F044B9A68D37B013BD37381F321
:103A60001188BFF36F8F70475804002038B50246A5
:103A70000C480D4D01F0CAF8044600B9EC68AB687B
:103A80004AB95A7BD20606D1A26922B9DA897F2ABD
:103A900001D9EB6138BD9C4202D02046FFF77AFF86
:103AA000EC61F7E7780400205804002070B590F925
:103AB0000D20437B002A014604DA03F07F034373A1
:103AC00001F07CF84B7B154A63F07F034B73D2E91E
:103AD000083402F12005AB421BD0D3B191F90E603E
:103AE00093F90E0086420FD0801B00280CDD586829
:103AF000C1E90030016059609068431A5842BDE83E
:103B000070405841FFF7B2BFA34202D01B68002BA0
:103B1000E6D1C1E9005421605162EDE7580400206C
:103B200038B54FF02003EFF3118583F31288BFF30C
:103B30006F8F174B174A9C6811688C4207D120463B
:103B4000FFF728FF85F31188BFF36F8F38BD002181
:103B50001160114A1268C2B1E2897F2A15D8627BCE
:103B6000D20612D10D4A94F90E10126891420CDB64
:103B70000B4A944209D01A69824203DC2046FFF7BF
:103B800095FFDCE7121A1A61DCE70022FBE700BFB1
:103B900058040020800400208804002084040020B1
:103BA000D000002070B490F90D20437B002A2ADB5E
:103BB000DA0628D1826932BB144A63F07F0343736B
:103BC000D2E9083402F12005AB4217D0B3B190F925
:103BD0000E6093F90E108E420BD0891B002908DD70
:103BE0005A68C0E900321060586070BC0020FFF7CE
:103BF0003DBFA34202D01B68002BEAD1C0E90054AC
:103C000020605062F1E770BC704700BF580400208C
:103C100010B54FF02002EFF3118482F31288BFF346
:103C20006F8F427B510704D484F31188BFF36F8FE9
:103C300010BD22F004024273FFF7B4FF2146024890
:103C4000BDE81040FFF7ECBE450B002008B590F929
:103C50000D20437B002A014604DA03F07F034373FF
:103C600000F0ACFF044B9868431A58425841BDE835
:103C70000840FFF7FBBE00BF580400202DE9F041CB
:103C8000064615461C464FF02003EFF3118783F3D9
:103C90001288BFF36F8F00F0F1FF87F31188BFF335
:103CA0006F8FB4F1FF3F08BFB5F1FF3F08D02A4640
:103CB000234606F118000349BDE8F04100F0D0B9F1
:103CC000BDE8F081394C000010B5074B9868074BF0
:103CD0000C4618601146DDE90223FFF7CFFF2046AE
:103CE000BDE81040FDF7A6BA58040020800400206B
:103CF00070B50446183001F003F84FF02003EFF3DD
:103D0000118683F31288BFF36F8F94F90D20637BC4
:103D1000002A05DA03F07F036373204600F04EFFAC
:103D20000B4D637BA86843F010036373031B584279
:103D30005841FFF79BFE86F31188BFF36F8FAB6886
:103D4000A34203D1BDE8704000F056BF70BD00BF74
:103D50005804002010B54FF02003EFF3118483F3D3
:103D60001288BFF36F8F084B9A68D37B0133D373EC
:103D70000020FFF77BFE84F31188BFF36F8FBDE84F
:103D8000104000F039BF00BF58040020044B002150
:103D900003F12002C3E908220846FFF70FBE00BF67
:103DA00058040020F8B54FF02003EFF3118583F39A
:103DB0001288BFF36F8F1A498868437B03F07F0333
:103DC000437300F0FBFE8B685A7B084662F07F026B
:103DD0005A7350F8202F82421CD0DAB14F6A93F9FF
:103DE0000E6092F90E40A6420FD0A41B002C0CDDF1
:103DF0005168C3E900210B6053600120FFF736FED4
:103E00002846BDE8F840FDF715BABA4202D012685C
:103E1000002AE6D14A6AC3E9000213604B62ECE76C
:103E20005804002050EA01032DE9F04105460E46F2
:103E300003D1FFF7B7FF002033E06FF00104241A2D
:103E40004FF0FF3363EB0103012C73F1000302DA3F
:103E500000F096FF44194FF02003EFF3118883F32D
:103E60001288BFF36F8F104F104BB8681860FFF7C0
:103E7000EDFEB8680E492A463346183000F0F0F8D7
:103E8000BA68537B43F0100353734046FDF7D2F9F1
:103E900000F076FF201A63EB0303012873F100039F
:103EA000C9DBBDE8F08100BF580400208004002079
:103EB000394C0000B1F1FF3F08BFB0F1FF3F08B53A
:103EC00006D1084B9868FFF713FF4FF0FF3008BD8D
:103ED000FFF7A8FF4FF47A7380FB0303C00B40EA9F
:103EE0004340F4E758040020014B9868704700BF36
:103EF000580400202DE9F04104464FF02003EFF371
:103F0000118683F31288BFF36F8F437B1A0705D5A1
:103F100086F31188BFF36F8FBDE8F08123F0200294
:103F200042F00801D20920D14173A36813B12046A1
:103F300000F04CFE04F1180000F0E2FE04F1580716
:103F40004FF00008A56DBD4200D0B5B90120FFF7C4
:103F50008DFD104B9B68A342DAD1EFF30583002B54
:103F6000D6D13046FDF766F9D2E703F05F0343F0A0
:103F70000803437300F022FED7E7284600F026FE30
:103F800005F1180000F0BCFEC5F878802846FFF760
:103F900009FED7E75804002008B50648064A074935
:103FA000121A00F0FCFDBDE80840054A0549064824
:103FB00000F0F5BD00000020AC00002028520000F9
:103FC000000000002852000000000020034B1B6886
:103FD0000BB9FEF72BBB0020704700BF8C040020FC
:103FE000104B10B51C689C4208BF0024FFF7EEFF81
:103FF000A4B1D4E904321B1A62EBE070B3F1004FB4
:1040000070F100020ADA0028ACBF18460020064B07
:104010001B6913B19842A8BF184610BD6FF000404D
:10402000F5E700BF980000205804002030B5036871
:1040300068B10A4A5268904209D043B1D3E90421D9
:10404000D0E90445121941EB0501C3E90421426896
:1040500013605A600023C0E9003330BD980000208F
:10406000B3F1FF3F08BFB2F1FF3FF8B504461F466A
:10407000154667D081604FF02003EFF3118683F37C
:104080001288BFF36F8F6FF00102531B4FF0FF3C9C
:104090006CEB0703002B1BDB2B4BD3E90013521AED
:1040A0006CEB0303551B63EB0703012D73F1000257
:1040B000BCBF01250023C0E904532448D0E9003CDB
:1040C000834218D1C4E9000CCCF80040446026E0DB
:1040D000FFF77CFF013547F100072D1847EBE0772C
:1040E000C4E90457E9E7521A65EB07059C45C4E9A2
:1040F0000425E7D01B68002BE4D0D3E90417D4E9EA
:1041000004258A4275EB070EEDDA8A1A67EB05057E
:10411000C3E904255A68C4E9003214605C6003688E
:1041200083420BD09C4209D1FFF75AFF18B1084BCC
:104130001B69834202D00021FEF746FA86F31188FC
:10414000BFF36F8FF8BD00BFD001002098000020A2
:10415000580400202DE9F8430546FFF7E1FC4FF035
:104160002003EFF3118483F31288BFF36F8F244E83
:10417000DFF890803560244DD8F800003268404563
:10418000D5E9001E4FEAE2770BD050B1D0E9043CEC
:104190009A4277EB0C0916DA9B1A6CEB070CC0E914
:1041A000043C52184EEB0707C5E90027002535608F
:1041B000FFF716FF2946FEF707FA84F31188BFF3CD
:1041C0006F8FBDE8F88359184EEBE377D31A33604D
:1041D00000220023C0E90423C5E90017FFF726FFEA
:1041E00084F31188BFF36F8F836898474FF02003E3
:1041F000EFF3118483F31288BFF36F8FBCE700BF26
:104200008C04002098000020D001002010B54FF051
:104210002003EFF3118483F31288BFF36F8FFEF74F
:1042200005FA054AD2E90031C01841F1000184F3D2
:104230001188BFF36F8F10BDD0010020024A0349DF
:10424000034800F02FB800BF26520000F1510000D3
:104250000052000000B58BB0FCF7E6F86846FCF7AA
:104260002DF9FBE7034658B1426802F00302012A28
:1042700003D0032A04D1026812B10020986070476D
:104280006FF0150070474268816002F00302032A54
:104290004FF0000203460CBF006810465A6070479A
:1042A000002070470FB407B504A951F8040B019121
:1042B000FCF722F903B05DF804EB04B07047038B00
:1042C00013F0070305D10368002B0CBF0020032067
:1042D0007047022B05D1438B002B14BF0020042014
:1042E0007047012B05D10368002B0CBF002005206F
:1042F0007047002070472DE9F0410D4607461946EA
:10430000281D90461E46FFF7BEFF044638B13346CF
:10431000424629463846A446BDE8F0416047BDE81C
:10432000F08110B44FF02004EFF3118284F312886F
:10433000BFF36F8F416110BC0121FCF7EBB810B5E2
:104340000C4640B139B1081DFFF78CFF28B9A368AE
:1043500033F0030301D06FF0150010BD38B50C46E3
:10436000054658B151B10B6843B14B6833B11C22BB
:10437000002100F0ECF82C61002038BD6FF0150032
:10438000FBE770B504460E46FFF7D9FF051E31DB8B
:104390004FF02003EFF3118183F31288BFF36F8F87
:1043A000638B208B4FF6FF75AB4200F007022ED0D7
:1043B000022A0ED1013363831546012381F311884C
:1043C000BFF36F8FB3B1002331462046FFF793FF51
:1043D00010E0830701D0062A0ED100233360636802
:1043E00093B9C4E90066154662B90A46204602211F
:1043F000FCF790F8284670BD052A0CBF6FF08505C4
:104400006FF004050023D9E71E606660EBE76FF0EC
:104410000A05F7E7044608B5084611461A46A047BC
:10442000FFF762FDFDF740F92DE9F84F9A46D37882
:104430006F2B80460F461546A3F1410B29D024D897
:10444000582B14BF0A261026DDF828903246002388
:1044500040463946FBF744FE092AD4B21ED8303410
:10446000B045E4B277F1000309F8014D01D3D1451D
:1044700011D82B789B0605D5082E15D1AB7843F0C3
:104480000803AB704846BDE8F88F03F0F703702BC4
:10449000D7E70826D8E780460F46D7E7BBF1190FC4
:1044A00094BF37345734DBE7102EEBD1AB7843F0B1
:1044B0001003E6E72DE9F0410746884615461E46FB
:1044C0001446B442A4EB050002D33EB923782BB1C5
:1044D00014F8010B4146B8470028F2DABDE8F08134
:1044E000704700F03FBB0146006800F03BBB002175
:1044F0000120FFF7F6BF08B5FCF782FEBDE80840D3
:10450000FCF754BF0139034611F8012F0AB91A709C
:10451000704703F8012BF7E7034600201A5C02B945
:1045200070470130FAE7034600201A5C0AB188425E
:1045300000D170470130F8E710B5431E0A4491429C
:1045400000D110BD11F8014B03F8014FF7E7C9B2D4
:1045500002440346934200D1704703F8011BF9E778
:104560004FF0FF3070474FF02002EFF3118382F3DA
:104570001288BFF36F8F4FF080420121C2F8781587
:1045800083F31188BFF36F8F00207047062808D18E
:104590004FF080430122C3F80025BFF34F8F20BFA7
:1045A000FDE77047002383F31188BFF36F8F7047D7
:1045B0000369C9B20C2201FB0233186C00F007003A
:1045C00070474FF02003EFF3118283F31288BFF39B
:1045D0006F8F036803F0C00343F00203036082F3AC
:1045E0001188BFF36F8F7047034670B50069C9B279
:1045F0004FF02004EFF3118684F31288BFF36F8F1E
:104600000C2505FB0104246C14F0C00401D0A24267
:1046100010D105FB010001220264002086F31188FD
:10462000BFF36F8F28B95B6803EBC1014B689847F4
:10463000002070BD4FF0FF30F0E78022FFF7D4BFBD
:10464000F8B5069F04690546C9B24FF02000EFF3A4
:10465000118C80F31288BFF36F8F0C2606FB014686
:10466000306C00F0070EBEF1010F11D13764002647
:104670008CF31188BFF36F8F46B90C2000FB014407
:10468000C4E90E236B6853F8313098473046F8BDC3
:1046900000F0C000874214BF4FF0FF366FF077067E
:1046A000E6E713B580240094FFF7CAFF02B010BDFF
:1046B000006910B4CBB21C2403FB0400002110BC21
:1046C0001047002000F0EFB9002000F029BA104692
:1046D000FFF718B943685B68D3F810350B6000200A
:1046E000704743685B68D3F8040542400A40424083
:1046F000C3F804250020704743685B680020C3F8B6
:104700000815704743685B680020C3F80C157047B4
:1047100043685A68D2F804354B40C2F8043500208B
:1047200070470369586830B558B10024814212D1EE
:1047300008689D6854B98D42586000D19860002087
:1047400008606AB9002030BD2846EFE78D4220603E
:1047500008BF9C60F3E705680446002DF4D13AB128
:1047600098685A680A6059600028EBD19960EAE7B6
:104770006FF01500E7E702690B46D2E9010183E813
:1047800003000020704743681B68D3F88004C3F817
:1047900080047047436802691B68D3F8100148B170
:1047A000527C0A700020C3F81001D3F810210122B6
:1047B0001A6070474FF0FF30704702680346D2F826
:1047C000580140B95B689B0706D4D2F82001003835
:1047D00018BF012070470120704742681368D3F862
:1047E0000413C90518D5D3F82011A9B14FF0200042
:1047F000EFF3118180F31288BFF36F8FD3F820019C
:1048000030B10020C3F82001D3F820010120D86086
:1048100081F31188BFF36F8F5268D20615D54FF020
:104820002001EFF3118281F31288BFF36F8FD3F869
:10483000581111B10021C3F800154FF48001C3F8DD
:10484000081382F31188BFF36F8F7047704730B53C
:1048500043681360037A03F10053013BDB004568B2
:1048600014681D44AC4202D96FF0010030BD657977
:104870008D4202D008341460F1E70020F6E700F41E
:104880008053002B10B500F01F0308BF1446C0F37F
:10489000811200F4706018BF002140EA820242EAEF
:1048A000010218BF012403F5E0734FF0A04142EA72
:1048B000440241F8232010BD2DE9F0411446804602
:1048C00000EB810701254FF0A046B84502D100203A
:1048D000BDE8F081D8F800301A0C0C2A53D8DFE874
:1048E00002F007161C4321364352525252484D00E3
:1048F00003F03F03C4F80C35D8F8003003F01F0371
:1049000005FA03F3C6F808350122114618E003F052
:104910003F03C4F814350022F7E703F03F03C4F85F
:104920000835E9E703F03F03C4F80835D8F800304C
:1049300003F01F0305FA03F3C6F80C35002201212A
:10494000D8F80000FFF79BFF08F10408BDE703F06B
:104950003F03C4F80C35D8F8003003F01F0305FA04
:1049600003F3C6F80C35CFE703F03F03C4F8103566
:10497000D1E703F03F03C4F80835CCE703F03F0369
:10498000C4F80C35C7E76FF08500A1E708B5002033
:10499000FCF76CFF036893FAA3F318061A0A40EABF
:1049A000136002F47F421B02104303F47F03184399
:1049B0007047684620F007018D4601B5FCF712FCF0
:1049C000FCF7F4FCBDE80140854670474FF080538A
:1049D000D3F830010D2804D0A0F1100358425841FB
:1049E000704701207047004700F0CEB9C840C0436F
:1049F00000F001007047F7B5044618B1012824D033
:104A000003B0F0BD4FF080430222C3F80823C3F87F
:104A10000401D3F804210122DA6001239C428DF8BD
:104A2000073014BF00250DF1070542F210774FF053
:104A30008046ACB1012CE3D125B1D6F80C3403F09B
:104A400001032B70D6F80C3412E04FF080430022A3
:104A5000C3F80803C3F80021D3F800215860DCE74D
:104A600025B1D6F8183403F003032B60D6F81834B8
:104A7000DB03C5D52DB90120FFF7B6FF013FD8D123
:104A8000BEE79DF80730012BF5D0B9E708B5002047
:104A9000FCF782FB08B9FCF75BFB4FF08043002278
:104AA000C3F8182508BD08B510B101282DD008BDE0
:104AB0004FF08042D2F81814D2F8183413F480332F
:104AC0000BD1D2F81414C90710D5D2F81C349B07A7
:104AD00008D40223C2F80433E9E701F00303012BF1
:104AE00004D01BB10020FFF786FF00234FF0804267
:104AF000C2F818350023C2F80431D2F80431022379
:104B0000C2F8043301239360D1E74FF080430022C1
:104B1000C3F80021D3F80021C3F804031860C6E7E6
:104B2000FFF769BF00F01F00800000F1A040D0F83F
:104B3000003723F4403343EA0143C0F8003770479D
:104B4000FEF71ABD08B5FFF7FBFF002008BD704750
:104B500038B1C3681888C0F30800A0F580735842C4
:104B600058417047F8B505460E464FF02003EFF365
:104B7000118783F31288BFF36F8FFFF7B5F93146C2
:104B800004462846FFF702FF87F31188BFF36F8FB3
:104B90002046BDE8F840FCF787BDFFF7D8BCFFF71B
:104BA000CBBCEFF30580003818BF0120704708B573
:104BB000FCF798F9BDE80840FFF748BED0E900329D
:104BC00013605A600023C0E90033704708B5FFF74F
:104BD000F5FF437B23F0020343730023836008BD8A
:104BE000034620B9EFF305820AB9FCF723BB83F330
:104BF0001188BFF36F8F70474FF02003EFF31180E0
:104C000083F31288BFF36F8FFFF7EABF0346006894
:104C1000834208BF0020704710B54FF02003EFF328
:104C2000118483F31288BFF36F8FFEF7BBFF84F309
:104C30001188BFF36F8F10BD10B501464FF02003F0
:104C4000EFF3118483F31288BFF36F8F10F80B3CDE
:104C500013F0280F0DD151F8103C18380BB1FFF7A5
:104C6000B5FF11F80B3C23F0140301F80B3CFEF7E1
:104C700099FF84F31188BFF36F8F10BD38B50446D8
:104C80000D46FEF7E3FF637B43F00203637395B1C8
:104C90002B68A5609D4215D0A3B194F90E1093F92D
:104CA0000E20914208D0521A002A05DD5A68C4E944
:104CB000003214605C6038BD6A68934202D01B68A1
:104CC000002BECD16B68C4E900531C606C60F2E708
:104CD00038B54FF02003EFF3118583F31288BFF34B
:104CE0006F8FFFF793FF044620B1FFF76FFF183077
:104CF00000F006F885F31188BFF36F8F204638BDAA
:104D000010B54FF02002EFF3118482F31288BFF345
:104D10006F8F03683BB1FFF789F9002084F3118896
:104D2000BFF36F8F10BD6FF01500F7E710B54FF0B0
:104D30002003EFF3118483F31288BFF36F8FFFF723
:104D40004FF984F31188BFF36F8F10BD70B504461F
:104D50000D464FF02003EFF3118683F31288BFF363
:104D60006F8FFFF73DF9012805DDA04203DB2946DF
:104D70002046FDF729FC86F31188BFF36F8F70BDC5
:104D800008B5FFF743FA08BD08B1FCF785BD7047C9
:084D900070470000FDF75ABF57
:084D98007CB3FF7F0100000065
:104DA000674500000000000021190000D84D0000F8
:104DB000454B000000000000AD1C0000F04D00005D
:104DC000ED1F0000084E00008D1B000000000000D9
:084DD0005D240000000000005A
:104DD800C0510000EC4F0000D44F0000A00000209C
:104DE8002C0200206C4F0000C65100002C5000001F
:104DF80008500000A400002088020020664F000030
:104E0800CD5100007450000060500000A800002040
:084E18000C000020604F0000B7
:104E2000712E0000E749000000000000EF44000080
:104E3000084E0000DB47000000000000EF440000C7
:104E400000000000EF44000000000000EF440000FC
:104E5000C5330000E749000000000000EF440000F7
:104E600000000000EF44000000000000EF440000DC
:104E700000000000EF44000000000000EF440000CC
:104E800000000000EF44000000000000EF440000BC
:104E900000000000EF44000000000000EF440000AC
:104EA00000000000EF44000000000000DD240000CE
:104EB00000000000EF44000000000000EF4400008C
:104EC00000000000EF44000000000000EF4400007C
:104ED00000000000EF44000000000000EF4400006C
:104EE00000000000EF44000000000000EF4400005C
:104EF00000000000EF44000000000000EF4400004C
:104F000000000000EF44000000000000EF4400003B
:104F100000000000EF44000000000000EF4400002B
:104F200000000000EF44000000000000EF4400001B
:104F300000000000EF44000000000000EF4400000B
:104F400000000000EF44000000000000EF440000FB
:104F500000000000EF44000000000000EF440000EB
:104F600000800080FF7F00800080FF7F0080008045
:024F7000FF7FC1
:0E4F7200FFFFFFFFFFFFFFFFFFFFFFFFFFFF3F
:104F800001000000000000000102000058020300C0
:104F900000200000000000000000000000000000F1
:104FA0000338FDD87047000000000020000000001A
:104FB00000000B0602000000BC4F000000000000D3
:104FC000B15100002200020700000020B95100008A
:104FD0001C000B112D1A00003B460000A3460000E8
:104FE00000000000B145000000000000C9190000E9
:104FF000611A0000C3460000C9460000DD18000029
:10500000AD18000000000000191D0000D54600008A
:10501000E3460000F9460000054700001147000084
:10502000E51B00002347000000000000FFFFFFFF1A
:1050300000000050000000000000000000200040C0
:1050400058500000010000000600000005000200AA
:10505000C8000100C7000300485000000400000021
:1050600095470000E920000087470000711E0000FE
:105070007747000000200040020000000000000010
:105080003C500000A04D0000D04D0000D84D000065
:10509000D84D0000D84D0000F5FFFFFF54582053B5
:1050A000554343455353204556454E5400545820CC
:1050B0004641494C4544204556454E540050616395
:1050C0006B65742072656365697665642C206C6518
:1050D0006E202564203A203078253032782C20301C
:1050E00078253032782C203078253032782C2030DA
:1050F00078253032782C203078253032782C2030CA
:1051000078253032782C203078253032782C2030B9
:105110007825303278004572726F72207768696C3A
:10512000652072656164696E6720727820706163C2
:105130006B6574004572726F7220696E6974696183
:105140006C697A696E6720657362004572726F726E
:105150002073657474696E67206261736520616491
:1051600064726573732030004572726F72207365CC
:105170007474696E6720626173652061646472652E
:1051800073732031004572726F7220736574746995
:105190006E672061646472657373207072656669FE
:1051A0007800E7C2C3C4C5C6C7C800286E696C29A9
:1051B00000464C4153485F30005352414D5F300030
:1051C000434C4F434B004750494F5F3000554152CD
:1051D000545F3000000000015465726D696E616CAF
:1051E0000052545400534547474552006D61696E63
:1051F0000076332E302E39392D6E6373312D310008
:105200002A2A2A20426F6F74696E67205A65706877
:105210007972204F53206275696C642025732025B4
:0852200073202A2A2A0A00006B
:10522800A1420000FFFFFFFF6145000000000000F1
:1052380000C201000001030000000000000000009F
:10524800E7E7E7E7C2C2C2C2E7C2C3C4C5C6C7C868
:105258000805FF020090D0030000000000000000D5
:105268000000000000000000000000000000000036
:105278000000000000000000000000000000000026
:105288000000000000000000000000000000000016
:105298000000000000000000000000000000000006
:1052A8000000000000000000FF00000000000000F7
:1052B80000000000FFFF0F00980000209800002069
:0C52C800000000000000000000000000DA
:04000003000015CD17
:00000001FF
