:10000000402C0020C93400003DAB00009D340000AE
:100010009D3400009D3400009D340000000000006D
:100020000000000000000000000000001D2E000085
:100030009D34000000000000C92D00009D34000028
:10004000CD2E0000E15B0000CD2E0000CD2E000083
:10005000CD2E0000CD2E0000CD2E0000CD2E0000B4
:10006000CD2E0000CD2E000073B00000CD2E00007C
:10007000CD2E0000CD2E0000CD2E0000CD2E000094
:10008000CD2E0000CD2E0000CD2E0000CD2E000084
:10009000515C0000CD2E0000CD2E0000CD2E0000C2
:1000A000CD2E0000CD2E0000CD2E0000CD2E000064
:1000B000CD2E0000CD2E0000CD2E0000CD2E000054
:1000C000CD2E0000CD2E0000CD2E0000CD2E000044
:1000D000CD2E0000CD2E0000CD2E0000CD2E000034
:1000E00053B94AB9002908BF00281CBF4FF0FF319F
:1000F0004FF0FF3000F00CB8ADF1080C6DE904CE04
:1001000000F008F8DDF804E0DDE9022304B07047F0
:10011000704700BF2DE9F04F07468C460846099E00
:1001200015463C461946002B40F0C6808242B2FA82
:1001300082F746D94FB1C7F1200E24FA0EFE00FA1D
:1001400007F3BD404EEA030CBC404FEA15481FFAC6
:1001500085FEBCFBF8F9220C08FB19C309FB0EFA5B
:1001600042EA03439A4528D9EB1809F1FF3004D23B
:100170009A4502D9A9F102002B44A3EB0A03A4B2C9
:10018000B3FBF8F208FB123302FB0EFE44EA034411
:10019000A64514D92C1902F1FF3303D2A64501D983
:1001A000931E2C44A4EB0E0443EA00401EB1FC4015
:1001B000002334607360BDE8F08F4846DDE71346E6
:1001C000F0E702B9FFDE87BB831A01214FEA154E23
:1001D000AAB2B3FBFEFC200C0EFB1C330CFB02F896
:1001E00040EA0343984563D9EB180CF1FF3004D281
:1001F000984502D9ACF102002B44A3EB0803A4B24A
:10020000B3FBFEFC0EFB1C330CFB02F244EA03447E
:10021000A2424FD92C190CF1FF3304D2A24202D9C9
:10022000ACF102032C44A41ABEE7C7F1200C20FA5B
:100230000CF800FA07F324FA0CFCBD404CEA030268
:100240004FEA154EABB2B8FBFEFC110C0EFB1C8046
:100250000CFB03F941EA0040814504FA07F423D975
:1002600028180CF1FF3104D2814502D9ACF102010A
:100270002844A0EB090092B2B0FBFEFC0EFB1C0070
:100280000CFB03F842EA004398450FD9EB180CF138
:10029000FF3204D2984502D9ACF102022B44A3EB01
:1002A000080342EA014191E76146E2E76246F6E768
:1002B0006046A2E76346B6E7834205D90EB1C6E9B8
:1002C00000700021084676E7B3FA83F181B98342D2
:1002D00001D3BA420AD8BC1A60EB030301209C4642
:1002E000002E68D0C6E9004C002164E70846F7E715
:1002F000C1F1200C8B4022FA0CF41C4302FA01F5E8
:1003000000FA01F327FA0CF220FA0CFB4FEA144929
:100310001343BBFBF9F81FFA84FE09FB18BB1A0C48
:1003200008FB0EFA42EA0B42924507FA01F73ED962
:10033000A21808F1FF3004D2924502D9A8F10200B8
:100340002244A2EB0A029BB2B2FBF9F809FB182285
:1003500008FB0EFE43EA024296452AD9A21808F18C
:10036000FF3304D2964502D9A8F10203224443EA9E
:100370000040A0FB0593A2EB0E029A42CE4698469F
:1003800002D306D14F4504D2B9EB050E63EB040846
:10039000013886B1B7EB0E0362EB080707FA0CFCD5
:1003A000CB404CEA0303CF40C6E900379CE7404608
:1003B000C7E74346DBE73146FDE600007FB5144E54
:1003C00004464FF0FF324FF0FF3304F18C0008F089
:1003D00097FD4FF02003EFF3118583F31288BFF3ED
:1003E0006F8F94F87A3023B985F31188BFF36F8F3C
:1003F000E7E7214601A809F0A6FC9DF80430032B8D
:10040000EFD802990131C9B2304609F0D0FCE8E7D3
:10041000140B002010B588B0044609F08BFC0A22AA
:10042000002104F18C000BF0FBF800220023CDE941
:10043000062300236FF00802CDE90323CDE9013341
:100440000849094B00944FF4007204F1A00008F031
:10045000A5FBC4F89C00054908B0BDE810400BF0AE
:100460004BB800BFE01E0020BD030000A4C1000087
:1004700008B500214FF4004009F0B0F900214FF415
:10048000004009F0ABF90648FFF7C4FF044809F043
:1004900079FC09F086FC0021212009F09FF9FAE798
:1004A00048020020B0B500AF174C20460AF0E7FF25
:1004B00023680546A0B915496C4688B06A46C2E96A
:1004C000051302231377124B42F8103F4FF4D25119
:1004D000034610480AF09DFA2846A546BD46B0BD21
:1004E0000D496D4688B06A46C2E9051302231377A9
:1004F000074B42F8103F074800234FF4D6510AF04B
:1005000088FA2046AD46E9E758BC0000C8C10000A3
:100510000300000118BE00001CC2000008B5FFF770
:10052000C1FF084B18614FF02001EFF3118281F3F6
:100530001288BFF36F8F0221197682F31188BFF3FF
:100540006F8F08BDF80A002098B5124C00AF2069E3
:1005500083683921DB68984728B9206909F016FCBF
:10056000206909F013FC6C4688B06A460A4B536157
:100570000A4B9361032342F8103F094800234FF4CC
:10058000C8510AF046FAA5460021212009F026F9B3
:10059000BD4698BDF80A002044C2000066C20000B3
:1005A00018BE00002DE9F04F8DB01F46169B029239
:1005B000009302F00403C2F3C2020193531C8207AA
:1005C00005460E46049340F02182041D002840F0A9
:1005D000208201F00706341DC6F108064FF0000A1C
:1005E0004FF004087B1ECDF80CA05246D146414680
:1005F00005B127600498002807DCCB488742C0F08B
:100600004181CA48874280F03D81029810F0020E75
:1006100000F051814FF0010C601BBEF1000F00F0A3
:100620003781B0F5007FC0F033816FF01500FEE038
:10063000B9F1000F08D1252840F041814FF00109A0
:100640004FF0040841463AE12B2825D81F2802D84C
:100650004FF0000933E1A0F1200CBCF10B0FF7D8EB
:100660000FF2040E5EF82CF0BF08000051060000E7
:1006700051060000BF0800005106000051060000AE
:10068000510600005106000051060000510600000E
:100690004F080000BF080000A0F12D0C5FFA8CFE8F
:1006A000BEF14D0FD4D8BCF14D0FD1D80FF2040ECE
:1006B0005EF82CF0BF080000BF08000051060000E3
:1006C000BF080000BF080000BF080000BF0800000E
:1006D000BF080000BF080000BF080000BF080000FE
:1006E000BF080000BF0800005106000051060000CE
:1006F000510600005106000051060000510600009E
:10070000510600000B0800005106000051060000D1
:10071000510600000B0800000B0800000B08000049
:10072000510600005106000051060000510600006D
:10073000BF080000510600005106000051060000ED
:10074000510600005106000051060000510600004D
:10075000510600005106000051060000510600003D
:10076000ED07000051060000510600005106000090
:10077000510600005106000051060000510600001D
:10078000510600000B08000051060000ED070000B4
:10079000ED0700000B0800000B0800000B0800002C
:1007A000BF080000ED0700003F08000051060000F0
:1007B000BF0800005106000045080000ED070000DA
:1007C00045080000510600005106000045080000E1
:1007D00041060000ED070000510600005106000030
:1007E000ED070000510600004106000013F801CC9F
:1007F000BCF16C0F29D113F8021C6C294FF00009D1
:100800003DD04FF00408414621E0009800F1070B6D
:100810002BF00700F0E802890734009024F0070469
:1008200055B105982044B04204D96FF01B000DB0BB
:10083000BDE8F08FC4E9008908344FF000094FF09B
:100840000808FFE64FF00009DBE74FF00009013C24
:100850004444C8F1000C04EA0C0425B1A1EB050CDA
:10086000A444B445E1D8732852D10498DDF800B00F
:1008700001385BF8047B0490CDF800B0B8E64FF087
:100880000808C0E702984FF0000C00F0020EC3E623
:100890000F2A3FF6CAAE45B30DF1300EC0F3870004
:1008A0009644BCF1000F1AD060F07F000EF8100CD7
:1008B0000AF1010A0132C5F108000434059013F869
:1008C000010F00287FF4B4AE611BB1F5806FBFF457
:1008D000ACAE002D3ED1A6F108046018A7E70EF8D3
:1008E000100C039801300390E4E7BCF1000F01D134
:1008F000019808B10136DDE73846CDE906120593C7
:100900000AF030F90236DDE90612059B0644D1E70C
:1009100004290DD1009800F1040C0DB1006820608D
:100920000434CDF800C0CAE738BB000048E400003A
:1009300008297FF47AAE0098073020F0070000F114
:10094000080CCDF800C01DB1D0E900BCC4E900BC62
:100950000834B4E7019B2860890829709DF80C10C1
:10096000A3B16870E97085F802A0BAF1000F06D053
:1009700008A84FF0000CC5F1010E62450AD10DF137
:10098000200808EB0209C5F1010B39E0019B6970F1
:10099000EB70E8E710F8011B0B0608D504EB0E0816
:1009A000B04501F07F013FF640AF04F8011B0CF1A8
:1009B000010CE2E7BAF1000F03D098F90020002AF9
:1009C0001CDB019B03BB98F8002055F8227045F80A
:1009D000223038460AF0C6F8421C04EB0B011144E1
:1009E000B1423FF622AF98F8001004F8011B3946D7
:1009F000204600920AF0D2F8009A144408F1010847
:100A0000C145D7D1601B12E70022E6E76FF00D0069
:100A10000DE707293FF6E2AD07E700BF2DE9F04FEC
:100A20008BB00646DDF850B0049314460F46B1B1C2
:100A3000B578059535BBAA46F378019313B11BF041
:100A4000020F22D1BAF1000F1FD124B13A4631462C
:100A500020460AF0A3F838460BB0BDE8F08F90F8B6
:100A60000190B578007805EB800535448A46CA4583
:100A7000DED2013528460AF075F8013005440AF146
:100A8000010AF4E70BF0010AD6E796F800904FEA66
:100A90008903039306EB8909002C5BD1BAF1000F9F
:100AA00032D04D444D451DD1A946DDF804A0DFF8F4
:100AB00004C281490BF005084D46CA440BF00202FE
:100AC000AA45C8D015F8010B56F82000604524D37C
:100AD000884222D21BF0010F39D1B8F1000FEFD1BB
:100AE000013FEDE719F8013B56F823000AF03AF808
:100AF000159B013033B1169B9C423EBF159B23F8DA
:100B0000140001340744CDE72DB11BF00404CCD010
:100B1000A9445446C9E72C46C7E7002AD0D04FF075
:100B2000000901920AF01EF8159BDFF888C1019AAE
:100B30006149013033B1169B9C423EBF159B23F89F
:100B4000140001340744B9F1000FB9D0C5E74FF0E4
:100B50000109E6E7039A314620460AF01FF8039B95
:100B6000E3180293BAF1000F0AD049462A4606A8B4
:100B70000AF014F80023A370A944DDF808800DE002
:100B8000BDB11BF0040F14D02A46494602980AF062
:100B900005F8029BA94403EB05085546019B0BF0A1
:100BA000020E0BF001004A4609EB030C0BF0040B9C
:100BB00025E00025A570E0E712F8013BDFF8F4A07E
:100BC00056F82310514503D3DFF8ECA0514505D367
:100BD000BEF1000F03D108F8013B10E038B10DF170
:100BE000280A691C554405F8103CCDB207E0BBF15A
:100BF000000F04D008F8013BA3780133A37094459B
:100C0000DAD16378019A2B446370029BA8EB030B43
:100C1000A378ABEB030B059B84F803B01344FF1AD6
:100C2000039BFF1A019B40463A4609EB0301B84477
:100C300009F0B4FFA8EB0400002D3FF40DAF049BB6
:100C40001C1AA54202D36FF01B0005E74FF0000904
:100C500006AB159A13F8093056F82310C2B132F8D2
:100C60001970C24604F1FF3B0AF8013B97B13A46BE
:100C7000504609F093FF09F101094D45ABEB07041C
:100C80000AEB0708E4DC049B1F44A7EB0B00E3E638
:100C9000159FE6E7013901239C42D4D011F8012FBA
:100CA00008F80320581C12B91F1EE4DACBE70346EC
:100CB000F2E700BF38BB000048E40000014B1860B9
:100CC000704700BF0000002030B585B0CDE90101BC
:100CD0000446002501A90548039500F0E9F8DDE97F
:100CE00002309842B8BF255405B030BD539E000075
:100CF0002DE9F84FB0F8189019F00808044693460B
:100D00000DD001290CBF49F0100949F02009A0F8C5
:100D100018908BF31188BFF36F8FBDE8F88F09F03F
:100D20000709022907D1204609F0DAF80028F0D097
:100D30000128238B4ED16769218B002F15DA256896
:100D400021F00701C4E9008841F001012183002658
:100D5000218B01F0070ACA4502D0A368002B5AD1A3
:100D60000DB9002E71D0002356E001F007035A1F81
:100D7000012A1ED821F00701062B256889B2C4E993
:100D800000880AD13DB1638B2A46126801339BB2B9
:100D9000002AFAD1638341F002012183204609F041
:100DA0009FF806460028D3D0238B43F020032383EB
:100DB000CDE7042B0CD121F0070189B22183204615
:100DC00009F08EF805460028C1D041F020012183AA
:100DD0000025BCE7032809D1226923F00703166820
:100DE00043F00603238300252F46B1E7042806D1EC
:100DF000226923F00703566843F00403F2E705284D
:100E000006D1226923F00703966843F00503E9E75A
:100E100000252E46E8E7012341F0080121838BF3EA
:100E20001188BFF36F8FFBB985BB16B11F492046F0
:100E3000B0474FF02003EFF3118B83F31288BFF319
:100E40006F8F238B23F008032383238BDA0625D5AA
:100E500023F0100323830121B4F8189009F0070947
:100E600000297FF45EAF54E7A1680029DCD0D1F8F7
:100E70000090D1F804B03B4652462046D847B9F11D
:100E8000000FD1D04946D9F80090F2E729463B46F9
:100E9000524620462D6809F03FF8C5E713F02001BF
:100EA0001EBF23F0200323830221D5E7459F0000C6
:100EB0002DE9F04F91B08B46029092461C460025DA
:100EC0009AF8000008B928465FE325280AF10107CF
:100ED00007D0029B594698470028C0F25683013537
:100EE00012E2182200210AA809F063FE9AF80130E4
:100EF000252B78D000221046964694461646394651
:100F000017F8013B2B2B00F09D8000F29480202BE2
:100F100000F09B80232B00F09B802EB19DF8306069
:100F200046F004068DF83060BCF1000F05D09DF846
:100F3000306046F008068DF83060BEF1000F05D035
:100F40009DF8306046F010068DF8306028B19DF8AD
:100F5000300040F020008DF830002AB19DF830209C
:100F600042F040028DF830209DF8302002F044001D
:100F7000442803D16FF386128DF830209DF830207D
:100F80002A2B42F080028DF830207BD19DF8312051
:100F900042F001024B1C8DF831201A782E2A9DF860
:100FA00031200CBF0121002161F341028DF8312075
:100FB00074D15A782A2A6AD0013300210A261846A9
:100FC00010F8012BA2F13007092F40F28E809DF816
:100FD00030200E91C2F3400040EAD17161F341022A
:100FE0008DF830205AE00AF102078DF833309DF871
:100FF0003130D90740F1498154F8049BB9F1000F11
:1010000007DA9DF8302042F004028DF83020C9F153
:1010100000095A0740F1428154F8048BB8F1000FDF
:1010200080F241819DF831306FF341038DF831300A
:101030004FF0FF3837E12D2B0CD0302B7FF46DAF04
:1010400001225CE74FF0010C59E74FF0010E56E723
:10105000012054E7012652E70CFB0202303A3346E6
:101060001E4616F8010BA0F13007092FF4D999425A
:1010700093D09DF830100D92D20F62F341018DF89C
:1010800030108AE70B4600224FF00A0CE8E79DF883
:10109000312042F004028DF8312002331F4617F848
:1010A000012B6C2A41D025D8682A2BD06A2A46D039
:1010B0004C2A4CD01F4617F8012B9DF831308DF883
:1010C0003320782A00F2D980572A4DD8412A03D0FC
:1010D000453A022A00F2D1809DF83230042262F3B0
:1010E00002038DF8323001239EE006FB01213039E6
:1010F000034664E7742A26D07A2ADBD19DF8313082
:1011000006220DE05A78682A9DF8312006D1012187
:1011100061F3C6028DF831209F1CCCE713460222F2
:1011200062F3C6038DF83130C5E75A786C2A9DF812
:10113000312001D10421EBE713460322F0E79DF8AB
:1011400031300522ECE79DF831300722E8E7BDF8A1
:10115000303023F4F04323F0020343F4804343F0A0
:101160000203ADF83030A6E7A2F15801202900F2C1
:10117000848001A050F821F03D1200007B12000095
:101180007B1200007B1200007B1200007B1200002B
:101190007B1200007B1200007B120000D9100000BF
:1011A0007B1200003D120000FD110000D91000006C
:1011B000D9100000D91000007B120000FD110000C2
:1011C0007B1200007B1200007B1200007B120000EB
:1011D000451200003D120000611200007B12000069
:1011E0007B120000611200007B1200003D12000023
:1011F0007B1200007B1200003D1200009DF83210AF
:10120000012003F0780360F30201402B8DF83210C7
:1012100002BF9DF8301041F001018DF83010632AB3
:1012200031D1003B18BF01239DF83020C2F34001AB
:101230000B4363F341028DF83020D8E69DF832105D
:101240000220DEE79DF8322003F07803A3F140008E
:10125000032161F3020243428DF832204341E3E768
:101260009DF83220032113F0780F61F302028DF80C
:10127000322014BF01230023D6E79DF8303043F01D
:1012800001038DF830300023CEE79DF93020002A8D
:10129000B4BFDDF834904FF0FF39BAE69B077FF515
:1012A000C7AEDDF838809DF831100023CDE90D334D
:1012B0009DF8323003F00703012BC1F3C30138D18D
:1012C000CB1E042B22D8DFE803F0030909212100FB
:1012D00054F8043BDA17CDE90A3206E0073424F06B
:1012E0000704F4E80223CDE90A239DF8303013F017
:1012F000030656D002983B465246594609F0F2F88A
:101300000028C0F242810544BA46D9E554F8043BAE
:1013100001294FEAE372CDE90A3205D19DF8283060
:101320000A9300230B93E0E70229DED1BDF92830B0
:10133000D0E7022B23D1CB1E042B13D8DFE803F018
:10134000030A0A12120022680A920023201D0B933E
:101350000446CAE7E01D20F00700F0E80223CDE9CB
:101360000A23F5E754F8043B0A9301294FF00003E0
:101370000B93D3D00229B8D1BDF82830D0E7042B85
:1013800009D1E31D23F0070303F10804D3E9002387
:10139000CDE90A23A9E7032B04BF54F8043B0A93C1
:1013A000A3E79DF833007828AED8622822D82528F4
:1013B0003FF48FAD5828A7D10DF126030093DDE946
:1013C0000A0104AB0CAA09F047F88246B8F1000FF5
:1013D0000DF126000CDB9DF83020A0EB0A036FF323
:1013E000861298458DF8302002D9A8EB03030D939F
:1013F00080463DE06338152886D801A252F820F0D7
:1014000081140000E5140000091300000913000016
:101410000913000009130000E5140000091300007F
:101420000913000009130000091300003F15000014
:101430000D1500001115000009130000091300002C
:1014400059140000091300000D15000009130000D5
:10145000091300000D150000B8F1000FDDF828A0F9
:101460000ADB4146504609F084FB0AEB00080026DF
:10147000BAF1000F0CD147E7504609F073FBF4E7CF
:101480000A9B8DF8103000260DF1100A0DF111089D
:10149000A8EB0A0306B101339DF83220D00668D5C7
:1014A000023352060D9948BF0E9A0B4448BF9B1851
:1014B000B9F1000F76DD9DF83020A9EB0309C2F3E6
:1014C0008003039353076DD4500661D546B1029B48
:1014D000594630469847002857DB039B01351E4686
:1014E000302356E01E070FD413F0100618BF202635
:1014F000DDE90A23002BBFF65FAF524263EB4303E3
:10150000CDE90A232D2657E72B26F1E7002653E7DE
:101510000A9840B30DF1260300930CAA04AB0021F6
:1015200008F09AFFBDF8323003F0EF0343F4F043C4
:1015300043F010038246ADF83230002646E70A9B9E
:1015400007293FF6E1AEDFE801F00C04060C0808BD
:101550000C0C1D70D8E61D80D6E6EA17C3E90052D0
:10156000D2E61D60D0E6DFF8C8A006460AF10508FD
:101570008EE7110748BF013393E718460393594696
:10158000029B98470028039B04DA11B0BDE8F08F56
:1015900020234D444A46002AA5EB090109F1FF39F1
:1015A000EBDC0D4636B1029B594630469847002881
:1015B000EBDB01359DF83230D90601D41A0706D588
:1015C000029B5946302098470028DEDB01359DF804
:1015D0003230DB0607D59DF83300029B5946984709
:1015E0000028D2DB01350D9E2E44731B002B16DC28
:1015F000029843465246594608F074FF0028C4DB5F
:101600000544A944A9EB0503002B7FF77DAE029B9F
:101610005946202098470028B7DB0135F2E7029BA6
:101620005946302098470028AFDB0135DDE700BF81
:1016300086C2000030B51049104889B000220AF077
:10164000DEF90F4D0F4900220023CDE906230024C7
:101650000E23CDE90334CDE901440B4B00944FF444
:101660004072284607F09AFA0849284609F044FFD4
:10167000204609B030BD00BF911600006807002069
:10168000A007002000210020B51800008CC2000037
:10169000014807F015BC00BF80010020014B53F842
:1016A00020007047C8BE000070B5124BBFF35B8FBF
:1016B00053E8005F6A1C43E800210029F8D1BFF31A
:1016C0005B8F2DB90C4C0D4E361B3611B54200DB2D
:1016D00070BD237B53B123689B690BB120469847AB
:1016E000636804221968204600F092F9013510342D
:1016F000ECE700BF240B002070BE000080BE00009D
:1017000010B5044C237813B9034807F0D9FB012323
:10171000237010BD8A1A0020800100200C4BBFF3FB
:101720005B8F53E8002F013243E800210029F8D1F4
:10173000BFF35B8F58B1BFF35B8F064B53E8002FAD
:10174000013A43E800210029F8D1BFF35B8F7047CD
:10175000200B00201C0B00200020064BBFF35B8FEA
:10176000024653E8000F43E800210029F9D1BFF3F6
:101770005B8F7047200B0020F8B5FFF7EDFF0A4C98
:101780000A4D2D1B07462D110026AE4200DBF8BD89
:1017900063685B792BB123681B6913B13946204616
:1017A000984701361034F0E770BE000080BE00009C
:1017B0000149024808F061BFD4BE0000280B002098
:1017C000084A08B500231370074A1360074B084AFC
:1017D0001A604FF4004000F0FBFABDE80840FFF744
:1017E000E7BF00BF8B1A0020200B00200400002060
:1017F00023A90000014600220148002308F05EBF33
:10180000280B0020014808F0EFBF00BF280B002084
:101810000146014809F034B8280B0020014809F0BE
:1018200063B800BF280B00201D4B1B782DE9F04149
:10183000054603B988B309F089F8064618B16DB1B9
:101840003046FFF7E5FF2DB9164B1B68002B01DD75
:10185000FFF792FFBDE8F041FFF7E0BF124BBFF387
:101860005B8F53E8002F013A43E800210029F8D1AB
:10187000BFF35B8F0D4C0E4F3F1B3F11A846B84581
:10188000DEDA63685B7923B1236831461B68204642
:10189000984708F101081034F1E7BDE8F08100BF76
:1018A0008A1A0020200B00201C0B002070BE0000B4
:1018B00080BE000010B5FFF7F7FE07F0A9FF0C4B44
:1018C000186030B10B4B1B68092B02DD0A4807F08A
:1018D000F7FA094C0020FFF7A7FF0028FAD14FF0D4
:1018E000FF324FF0FF33204607F00AFBF2E700BF5C
:1018F000600B00201C0B00208001002013B51D4B45
:10190000BFF35B8F53E8002F511C43E80010002801
:10191000F8D1BFF35B8F184B1B7883B14FF02003D6
:10192000EFF3118483F31288BFF36F8F0020FFF76A
:101930007BFF84F31188BFF36F8F02B010BD0F4B94
:101940001B68002BF9D052B900220023CDE90023F7
:101950000B484FF40042002308F05CF9EDE70A2A37
:10196000EBD107480AF057F8064802B0BDE810402E
:1019700007F0A6BA1C0B00208B1A0020600B002079
:101980006807002080010020064B10B51B68044644
:1019900098472146A060044808F006FFBDE81040C3
:1019A000FFF7ACBF04000020280B0020F8B50E4F55
:1019B0003D7875B90D4C0E4EFFF776FE361B36118D
:1019C000B54207DB0020FFF72FFF0028FAD10123E3
:1019D0003B70F8BD63685B791BB1236820465B6987
:1019E000984701351034EBE78B1A002070BE0000D9
:1019F00080BE0000044A054B9B1AB1EBD30F34BFE5
:101A000052F8310000207047B0BD000070BE0000E9
:101A1000054A4368801A00110130012218711960CB
:101A20005A71FFF76DBE00BF70BE00000EB403B563
:101A300003AB014653F8042B04480193FFF738FA2F
:101A400002B05DF804EB03B0704700BF8DA9000041
:101A50002DE9F0471D46089B1746DA0604460E4658
:101A600005D499064CBF2A492A49FFF7DFFFDFF862
:101A7000A8904FF00008A8452ADBDFF8A080DFF827
:101A8000A090DFF894A00025BD422FD2725D494698
:101A90002046FFF7CBFF0135102D20D12149DFF87B
:101AA0007880DFF884902046FFF7C0FF0025AF4222
:101AB00028D9725DA2F120035F2B28BF2E22494650
:101AC0002046FFF7B3FF0135102D14D1BDE8F08794
:101AD00049462046FFF7AAFF08F10108CBE76A074D
:101AE000D2D151462046FFF7A1FFCDE7414620461F
:101AF000FFF79CFFCFE76B07D9D141462046FFF7A0
:101B000095FFD4E741462046FFF790FFDBE700BF93
:101B100099C2000098C20000A3C20000A1C2000048
:101B20009BC20000A5C20000A7C200002DE9F04F33
:101B300087B01C4601F0010305929DF84090BDF965
:101B400048A004930746884601F0020B01F00806FE
:101B500008F000FF0246002844D03A493846FFF713
:101B600065FF0546BBF1000F08D018F0440F3BD1CC
:101B7000354922463846FFF759FF0544049B53B1C7
:101B8000324B334953F82920324B3846002A08BFDC
:101B90001A46FFF74BFF3EB12F4B304953F829202F
:101BA0003846FFF743FF0646BAF1000F16DB059BE8
:101BB000002B45D0012303FA09F9294B294C19F0D0
:101BC000100F18BF1C4651469DF84400FFF712FF46
:101BD000214602463846FFF729FF0644701907B030
:101BE000BDE8F08F0546BDE71F4B18680028C4D03C
:101BF0001E4B4FF47A781B68B4FBF3F44FF4616129
:101C0000B4FBF0F300FB134408FB04F44FF03C0C6E
:101C1000B3FBF1F201FB1231B4FBF0FEB1FBFCF3BC
:101C200000FB1E440CFB131108FB04F40091B4FBF1
:101C3000F0F00F49CDE901E03846FFF7F7FE9CE7E9
:101C4000084CC0E7B8C20000BCC20000E8BE0000FB
:101C500078CD0000AAC20000FCBE0000E1C2000076
:101C6000B4C20000AFC20000640B0020680B00206B
:101C7000C5C2000038B50C46E107054603D5084A41
:101C80000849FFF7D3FEE20608D4A30628464CBF56
:101C900005490649BDE83840FFF7C8BE38BD00BF5A
:101CA000AAC2000078CD000099C2000098C20000CE
:101CB0002DE9FF470B8813F4E07F06460C4690465B
:101CC000C3F382194DD00A784B68C2F3C202002BCD
:101CD00044D025495B1A43F3CF03CDE90123CDF866
:101CE0000090A368002241463046FFF71FFF82465E
:101CF000254655F8103BC3F3492353B11B4F1C48ED
:101D00001C492B463246B9F1000F08BF384608F08F
:101D100053F86788C7F3CB0797B12368C3F3492308
:101D20001D44102F3C4628BF10242946CDF80080C2
:101D3000534622463046FFF78BFE3F1B2544F0D129
:101D4000B9F1000F04D04A4641463046FFF792FFF2
:101D5000304604B0BDE8F04708F00BBE4FF0FF334B
:101D6000BBE7CA46C4E700BFB0BD0000C3A900007E
:101D70008DA90000B10E000073B542F20F738B42C3
:101D800028BF0B4605680F4A04460521684608F03F
:101D900080F863680C495B6806460B22284608F009
:101DA000DBFD63683246694628465B6808F0D4FD6F
:101DB000636806495B681B22284608F0CDFD02B027
:101DC00070BD00BFF6CA000023C3000007C30000B7
:101DD000084A10B50123084C13600021A04204D822
:101DE00001B11360054B186010BD40085B00012174
:101DF000F4E700BF680B002040420F00640B002096
:101E00002DE9F04F87B0DDE911579A46109BDDF8B8
:101E10004CB00393044689469046CFB3CDF800B04A
:101E20003B462A4610210020CDF814B0FEF7BAFB3D
:101E30000646039A08F0070304F0070802F11700AA
:101E4000144C4FEAC80848EA83183044124B04EA9D
:101E5000462420F0070048EA040803EAC243800849
:101E600048EA0308FFF7C6FC044640B13FB1CDF88D
:101E700000B03B462A4631461030FEF793FB5346EE
:101E800042464946204607B0BDE8F04F08F0A6BDDF
:101E90003E46CEE700FE07000000F87F014B01221E
:101EA0001A7070479C1A0020014B0020196070477F
:101EB000740B0020024B034801221A7008F059BD30
:101EC0009D1A002030BF00000148FFF755BF00BF3A
:101ED00030BF0000064B10B518680C46FFF7DEFB5C
:101EE00021460346BDE8104002480F22184700BFB4
:101EF000740B002030BF0000054B1B781BB141F272
:101F0000883009F04DBDA420002107F067BC00BF58
:101F10009D1A00202DE9F047DFF88C90DFF88CA0A7
:101F200080460F46042499F80050CDB94FF0FF3396
:101F30004FF0FF32504606F0D5FE3A46414628465D
:101F400006F094FB0646504606F044FF184DFEB1DD
:101F500001232B7099F800306BB93846BDE8F08743
:101F60003A464146002006F081FB0646EEE75CB9A2
:101F70002C704FF0FF34002006F0F4FB0028ECD06A
:101F80002B78002BF3D1E8E7013CFFF7B5FFF2E730
:101F90002B7813B1013C04D12C702B78002BC2D1CB
:101FA000DBE7FFF7A9FFF8E79D1A00206C0100208E
:101FB0009C1A00200C4BF0B45F6A0C4E0C4BB342E1
:101FC00003D36FF08500F0BC70475D68BD4209D354
:101FD0001C693CB195F802C00579AC4502D1234695
:101FE000F0BC18472433EAE7840B002048020020A5
:101FF000240200202DE9F047134CDFF85080DFF871
:10200000509005460E461746444503D36FF08500B1
:10201000BDE8F0876268D9F824309A4212D3A369E8
:1020200083B190782979884205D13A4631462846CD
:10203000BDE8F04718475279012A03D13A463146A4
:10204000284698472434DFE7240200204802002075
:10205000840B00202DE9F0410B4CDFF83080054661
:102060000E461746444502D36FF0850009E06369C8
:102070000BB92434F6E73A463146284698470028FB
:10208000F7D1BDE8F08100BF240200204802002003
:1020900002480822002108F08CBD00BF3F0C002040
:1020A00070B50B4B0B4CA34201D3002070BD196AD5
:1020B0001E7F00220439D5B2AE4201D82433F2E7A4
:1020C000013211F832508542F5D10120EEE700BF10
:1020D00024020020480200207FB5084B059302230C
:1020E00004930748002304AA4FF4825108F091FC9E
:1020F0004FF0FF3007B05DF804FB00BF3FC30000A6
:1021000050BE000073B5C4B263060D468DF807409B
:1021100007D02046FFF7C4FF88B10F4B93F8BA00F1
:1021200068B10D4E204665B102F094F9F3690BB920
:10213000012004E008200DF107019847284602B06D
:1021400070BD02F0BFF9F369002BF1D00DF107016A
:1021500009209847ECE700BF840B002090B583B0BE
:1021600000AF83783B700379427943EA02237B8096
:10217000C378384603F003033B7102F039F910F1DC
:10218000780F0346387814D09BB1134B6C4688B057
:102190006A46C2E90530032342F8103F0F48002386
:1021A0004FF4C25108F035FC0020A5460C37BD465F
:1021B00090BD02F0C3F910F1780F08D038B13B7828
:1021C00007496C4688B06A46C2E90513E3E7054B48
:1021D000012083F8B900E9E764C3000050BE0000A5
:1021E00088C30000840B00202DE9F04FAD4E83B072
:1021F000B36900AF04468846914663B9207800F081
:102200001F00012800F0AC80022800F02B8138B1BB
:102210006FF0150099E098470028EFD1002094E076
:1022200094F900206378002A32DA062BD9F80020CE
:1022300010D0082B25D0002BEAD10121537011704A
:1022400096F8C310002918BF022343F0010313704E
:1022500002231AE063881A0A111F0129D8D9072A14
:10226000D6D8D9B2736A1C78002CD1D05D7895424B
:1022700003D1814200F0348101302344F3E71B781D
:1022800034E196F8BA3013700123C8F800305CE0EE
:10229000013B082BBCD801A252F823F03D230000DB
:1022A000112200005323000011220000C12200006F
:1022B000112200001122000011220000CD22000096
:1022C000A07802F059F80028A8D0A1E7658855B198
:1022D0004FF0FF09D6F824800020CA4698F8005035
:1022E0006DB9002894D0FFF7D3FE638886F8BA3022
:1022F000F369002B92D06C49032098478EE798F839
:102300000130042B0DD0052B0ED0022B05D198F8EF
:10231000059062884A4508BF012098F8003098442B
:10232000DCE798F803A0F8E763884B45F5D1BAF1EC
:10233000000FF2D14046FFF711FFEEE76388012B53
:102340007FF466AF002086F8C3000C37BD46BDE8B9
:10235000F08F6388012B7FF45BAF86F8C3305DE7B5
:1023600096F8BA30002B3FF453AF756AB4F804C046
:1023700020792B461A78002A3FF44AAF597802296F
:1023800004D193F804E0864500F2B3801344F1E7EA
:1023900010705070C8F80010D7E70D44B7E00B2854
:1023A0007FF436AF4FF0000B4FF0FF0AD046D9460E
:1023B00006E06B78042B10D0052B24D02B781D441D
:1023C0002B78002BF5D1F36913B1494607209847C4
:1023D000BBF1000F7FF422AF1AE795F802A0A288A4
:1023E00095F8038092455346E8D1618888451FFAE5
:1023F00088F2E3D1072B33D83344A94683F8BB20B6
:102400004FF0010BDAE7A3885345D7D1A3784345B2
:1024100021D0AB787B60184600F04AFA7B681846FA
:1024200002F0B6F810F1780FEAD07B680028E7D008
:102430001E49EB4688B06A46C2E90513032342F8F9
:10244000103F1B4800234FF4C25108F0E2FADD466A
:102450004FF0000BB2E72846FFF780FE8346ADE75A
:10246000A946F5E794F900206378002A22DA002BC8
:102470007FF4CEAE247963060AD02046FFF710FE23
:1024800000283FF4C5AE96F8BA30002B3FF4C0AE3A
:10249000D9F800502046294602F034F80020687030
:1024A000D6E600BF840B00203E0C0020A9C300002C
:1024B00050BE0000012B08D0032B7FF4A9AE638827
:1024C000002B7FF4A5AE012103E0618800297FF491
:1024D0009FAEA088FFF716FE00287FF49FAE97E618
:1024E000022AC9F800307FF4CAAE5B88C8F8003011
:1024F00094E694F900306078002BBFF650AFD9F81D
:10250000002000283FF444AF0A287FF481AE2978E8
:1025100000293FF47DAE6B78042B7FF43EAFAB789F
:102520009C457FF43AAF072B96BF9B19002393F885
:10253000BB3013700123D9E7054B064A9A62064A5D
:10254000DA62064A1A63064A58629A6100207047A6
:10255000840B0020E9210000B51F00005520000079
:10256000F51F0000094B10B593F8B84054B900F0BE
:102570006DF918B9BDE81040FFF7AEBDFFF7DCFFFD
:10258000204610BD6FF07700FBE700BF840B0020F2
:1025900030B51F4B8BB005AA03F1100518685968B8
:1025A000144603C40833AB422246F7D11B7823708C
:1025B0001022002101A808F0FCFA1222002115487F
:1025C00008F0F7FA102101A808F0ABFC00281BDD89
:1025D0000828B8BF0820083801AB0E4A184400216B
:1025E00010F8013B0AAC04EB131403F00F0314F8CA
:1025F000144C14700AAC2344013113F8143C53708A
:10260000082902F10202EBD102480BB030BD00BF35
:10261000D6C300009E1A00202DE9F04F8BB004466F
:1026200000AF00264FF0011BB2463546B046207879
:1026300038B97C4B02349C42F3D12C37BD46BDE8FF
:10264000F08F6378052B05D8DFE803F09704039734
:10265000072CA04623781C44E9E7E378002BF9D146
:10266000A378E3B10AF1010A5FFA8AFAF2E76A682D
:10267000944200F0CE8024359D42F8D36A4B6D46DB
:1026800088B06A46C2E90534032342F8103F674820
:1026900000234FF4C25108F0BCF9AD4610E0644D80
:1026A000644BE9E7002D66D1634B7B6202233B62FA
:1026B00000235E4807F120024FF4825108F0A9F987
:1026C0004FF0FF30B9E7296AA07801EBC2010B791E
:1026D000984205D001322B7F9A42F4D3574BE4E75E
:1026E0004FF00109E07894F805C000F00300387558
:1026F000207940EA0C20788294F9020000285FFAE1
:1027000089F32ADA09F110004FF0010C0CFA00F0FD
:1027100010EA0B0F29D163F07F00387407F1100025
:10272000C7E90131FA6001F039FED7E902127B688E
:10273000D8B93A7CA27012F0800F1CBF1033DBB204
:102740000A714FF0010215BF02FA03F302FA09F20F
:102750004BEA030B4BEA020B7CE7012000FA09F07D
:1027600010EA0B0F01D13B74D8E709F10109B9F167
:10277000100FB7D1AEE70022ADE7032E2AD1FFF745
:1027800007FF8146A8B108F0EDF9F86088B12C4840
:1027900008F0E8F9FA68824217D02A4B7B620223DC
:1027A0003B622248002307F120024FF4825108F0D7
:1027B00030F923786FF00201E218091B04EB530390
:1027C000D14212D50136F6B244E74946A01C08F0C2
:1027D000E5F9EEE7002EECD1B8F1000F0ED11A4B5F
:1027E0007B6202233B62434663E74FF0000002F83E
:1027F000010C13F8010902F8020DE1E7A4EB08034C
:1028000088F80230C3F3072388F8033088F804A05F
:10281000D8E7AB68002B3FF425AF514620469847D8
:1028200020E700BF22020020ADC4000048BE000027
:102830002402002048020020E7C3000028C4000052
:10284000D6C3000045C4000090C400007FB50A480C
:10285000FFF7E2FE70B1094B059302230493084889
:10286000002304AA4FF4825108F0D3F8002007B0E7
:102870005DF804FB0048FAE7A0010020CDC4000089
:1028800048BE000010B5094B00211A461C7884424E
:1028900004D15C6814B102EB811010BD0131042930
:1028A00003F14003F2D10020F7E700BF480C0020FD
:1028B00010B54FF02003EFF3118483F31288BFF3B8
:1028C0006F8FFFF7DFFF50B14368103307D16FF010
:1028D0008B03436000F12C01034808F0E7FE84F30A
:1028E0001188BFF36F8F10BD500A00202DE9F84307
:1028F00005464FF02003EFF3118683F31288BFF3F0
:102900006F8F0E4B1C689CB10D4FDFF838804FF075
:102910000C09D4E90132002D08BF13462BB198F8F9
:10292000142009FB02F2B85C98472468002CF0D10F
:1029300086F31188BFF36F8FBDE8F883480D002040
:10294000500D0020481A00204209012300F01F000A
:1029500003FA00F0074BBFF35B8FC04303EB820326
:1029600053E8002F024043E800210029F8D1BFF3CB
:102970005B8F70475C0D002038B51A4B1C7DBFF390
:102980005B8F04F01F0301229A40174B6109D0436B
:1029900003EB810353E8001F01EA000543E8005CF4
:1029A000BCF1000FF6D1BFF35B8F114213D00F4B78
:1029B0000F4D8BB10C236343EA18E85C517808F0A3
:1029C0001EF90020FFF792FF0C235C432A19002315
:1029D0002B51C2E9013338BD83F31188BFF36F8FE8
:1029E000EFE700BF481A0020600D0020FFAB000099
:1029F000500D00202DE9F843324B334A1C7DBFF3C4
:102A00005B8F63094FEA830952F823302F4EBFF3DF
:102A10005B8F04F01F0843FA08F313F0010F074619
:102A20000AD10146204600F069F828B107C80C23F6
:102A300003FB046383E807000C236343F218F55C8F
:102A40002DB92046FFF780FF2846BDE8F8837B1CA0
:102A50000FD0D2F808C01E481E4A4FF4004500218E
:102A60000023ECFB0501FDF73BFB0121381A08F0C0
:102A700079FF06F033FC0120FFF738FFBFF35B8FCF
:102A8000012303FA08F8144B994459E8003F43EA3C
:102A9000080349E80032002AF7D1BFF35B8F0F4BE0
:102AA00033B10C236343F218F05C517808F09BF8C3
:102AB000FFF762FF2046FFF747FF06F0DFFD01202A
:102AC000C3E700BF481A00205C0D0020500D002015
:102AD0003F420F0040420F00600D0020E7AB0000B6
:102AE000054BBFF35B8F53F82000BFF35B8F0038BB
:102AF00018BF0120704700BF640D00202DE9F04F82
:102B000085B00F4603A900F047F8DFF88080DFF8B2
:102B100080A0441E24B24FF0000B631C04D1002699
:102B2000304605B0BDE8F08F039A04EB440302EB96
:102B3000830612F82300FFF7D3FF054610BB706829
:102B40004FF40049C4462946E0FB09C152465B46A2
:102B50006046FDF7C5FA0190B068C4462946E0FB1F
:102B600009C15B4652466046FDF7BAFA094B1B683D
:102B7000591C01D0834205D97A1CD1D0019B18443D
:102B8000B842CDD9013C24B2C7E700BF3F420F0095
:102B900040420F000800002008B9024B0B600020E3
:102BA000704700BF40BF0000014910220A60704713
:102BB00010ED00E072B6404080F31188BFF36F8FD4
:102BC000BFF34F8F30BF62B6BFF36F8F704700BF48
:102BD00072B6494081F3118820BF80F3118862B634
:102BE000704700BF2DE9F047814600AF0C46002931
:102BF0004CD06E468AB06D46D1E90012A3682748D2
:102C0000A8464FF0050AC5E90501C5E9072348F8BC
:102C100010AF2348424600234FF4215107F0F9FE3C
:102C2000D4E9031263691F48C5F810A0B546C5E989
:102C30000501AD46C5E907231948424600234FF474
:102C4000215107F0E6FEB54688B06D46E369164AA5
:102C5000A8464FF0030AC5E9052348F810AF10480D
:102C6000424600234FF4C25107F0D3FE0F4AA36936
:102C7000C5F810A0B546C5E90523AD4608480023B0
:102C800042464FF4C25107F0C4FEB54621464846BD
:102C900005F0BCFDBD46BDE8F08700BF0BC50000D8
:102CA00000BE00003AC5000069C5000078C50000FC
:102CB00043B2002B08DB012200F01F0002FA00F0F3
:102CC0005B09024A42F82300704700BF00E100E0C0
:102CD00043B2002B0DDB01225B0900F01F0002FA5A
:102CE00000F02033034A42F82300BFF34F8FBFF3B5
:102CF0006F8F704700E100E0054B420900F01F00B4
:102D000053F82220012303FA00F01040704700BF5F
:102D100000E100E043B2002BA8BF03F1604301F1E2
:102D20000101B8BF064B4FEA4111ACBF03F5614347
:102D300000F00F00C9B2B4BF195483F800137047F4
:102D400014ED00E008B572B6044B9A691AB100227E
:102D50009A6108F0D8FB62B608BD00BF481A00208F
:102D600030BFFFF7FDBF00BF08B5084B084A23F08E
:102D70007F039360BFF34F8FBFF36F8F05F0DEFDCE
:102D800006F0B0FD00F094FB05F01CFE0000000012
:102D900000ED00E0094A0A49936809689967094902
:102DA00058674B6843F080534B60002383F31188CE
:102DB000BFF36F8F9368986F704700BF481A002069
:102DC00060C1000000ED00E012498A684FF0300059
:102DD0001044EFF3098C80E8F01F202080F3128864
:102DE000BFF36F8F0C4F4FF00066CA698A603E6078
:102DF000506F0023536780F3118804B5104600F02C
:102E0000F3FBBDE8044002F1300090E8F01F8CF3C2
:102E100009887047481A002004ED00E01EF0040FF6
:102E20000CBFEFF30880EFF30980816911F8021CF1
:102E30000229FFD001B507F079FE01BD42F8203C20
:102E4000009B42F81C3C0A49019B42F8183C029B3B
:102E500042F8143C21F001014FF0807342F8043C29
:102E600042F8081C0023203A02654367704700BF00
:102E7000B9A00000094A0346906870B113F1160F1B
:102E8000406E05D0A0F120029A4205D8834203D2B9
:102E9000814228BF0020704700207047481A002058
:102EA00008B5094B98600D46144600F09DFB20467E
:102EB00085F30988002163B681F31188BFF36F8F12
:102EC0000022002307F0F8F8481A002001B572B676
:102ED0000B4A906900281EBF0021916108F013FB86
:102EE00062B6EFF30580A0F110004FEAC00005497B
:102EF000014409C99847BDE801400349084700005B
:102F0000481A002070BC00000D2F0000044B996887
:102F1000D869884203D003494FF080520A60704755
:102F2000481A002004ED00E02DE9F04186B000AF22
:102F30003C4B7B6106460D463B48022407F11002DC
:102F40004FF482513C6107F000FE384B9B6ADB0472
:102F500009D5374B344807F110024FF48251C7E9C5
:102F6000044307F0F2FD314B9B6A1C050AD5314B37
:102F70007B612D48022307F110024FF482513B611F
:102F800007F0E3FD294CA36A980522D52A4B7B6103
:102F900007F1100202234FF4825123483B6107F0EE
:102FA000D4FDA36BA26A1104E84612D588B0234968
:102FB0001D486A46C2E90513032342F8103F4FF447
:102FC000C25107F0C2FDC5461EB1A36A23F40043F7
:102FD000A362164B9B6A5A050AD5194B7B611248AE
:102FE000022307F110024FF482513B6107F0ADFD5F
:102FF0000E4B9B6ADB050AD5124B7B610A48022304
:1030000007F110024FF482513B6107F09EFD074A21
:10301000936A002043F47F43183793622870BD46BB
:10302000BDE8F081A6C5000000BE000000ED00E094
:10303000BCC50000CDC50000E0C50000F9C500001A
:103040000EC6000029C6000010B586B0334B3448C8
:103050000593022404AA4FF48251049407F075FDED
:10306000304B9B6A9B0108D52F4B2D4804AA4FF487
:103070008251CDE9044307F068FD2A4B9B6ADC01CD
:1030800009D52A4B05932648022304AA4FF48251FE
:10309000049307F05AFD234B9B6A180309D5244B70
:1030A00005931F48022304AA4FF48251049307F0AA
:1030B0004CFD1C4B9B6A590309D51E4B05931848C0
:1030C000022304AA4FF48251049307F03EFD154BEE
:1030D0009B6A9A0309D5184B05931148022304AA49
:1030E0004FF48251049307F030FD0E4B9B6ADB03D3
:1030F00009D5124B05930A48022304AA4FF48251C2
:10310000049307F022FD074A936A6FEA03436FEACC
:1031100013430020936206B010BD00BF41C60000FB
:1031200000BE000000ED00E059C600006CC60000C3
:1031300086C60000A4C60000C9C60000E3C60000A1
:103140002DE9F04786B000AF434B7B6106468846C9
:1031500042481546022407F110024FF482513C61A7
:1031600007F0F3FC3E4B9B6AD80609D53D4B3B4824
:1031700007F110024FF48251C7E9044307F0E5FC60
:10318000374B9B6A19070AD5374B7B6133480223BB
:1031900007F110024FF482513B6107F0D6FC304C2E
:1031A000A36A9A0723D46FF0150A2D4B9B6AD807A0
:1031B0000AD52E4B7B612948022307F110024FF4F8
:1031C00082513B6107F0C1FC254B9A6AD10635D488
:1031D0009A6A920732D40020214A936A43F0FF038F
:1031E0009362183700232B70BD46BDE8F087204B53
:1031F0007B611A48022307F110024FF482513B61B0
:1032000007F0A3FCD4F834A0A36A1B06E946CAD58C
:1032100088B0184B11486A46C2E9053A032342F8C0
:10322000103F4FF4C25107F090FCCD46B8F1000FAB
:10323000BBD0A36A23F08003A362B6E75B681B05DB
:10324000C9D531465046FFF715FE0028C3D080F39C
:1032500009880220C0E700BF0EC7000000BE0000C2
:1032600000ED00E024C70000CDC5000085C70000C8
:1032700057C700006FC700002DE9F04F764B8BB0A9
:10328000D3F8048000AF0D46C8F30804002686F387
:103290001188BFF36F8F02F07F43B3F17F4F0ED1E0
:1032A00002F00C03082B0CD16C4BFB616C48022321
:1032B00007F118024FF48251BB6107F046FC354616
:1032C00003E0120701D4054601260023FB71E31E2B
:1032D000092B00F2A180DFE803F0059497919F9FEE
:1032E0009F9F9F9ADFF870815E4B5D48FB614FF0B6
:1032F000020A07F118024FF48251C7F818A007F02C
:1033000024FCD8F82C404FF0000B14EA0A04E946DC
:1033100087F807B00BD0544BC7E906A3504807F114
:1033200018024FF4825107F010FC00240DE0D8F889
:103330002C30002B25DA4D4B494807F118024FF489
:103340008251C7E906A307F000FCFB79ABB9202244
:10335000294607F1080007F021FC7B6A002E76D091
:10336000C3F3080222B96FEA53236FEA43237B6257
:1033700007F108012046FFF735FC2C37BD46BDE8B4
:10338000F08FD8F82C305B00DFD5394B344807F18B
:1033900018024FF48251C7E906A307F0D6FBAB69C8
:1033A00033F8022C4DF602739A4209D098F828306F
:1033B000BBB1FA1D01212846FFF7C2FE0446C4E74F
:1033C00088B02B682B4926486A46C2E905130323B7
:1033D00042F8103F4FF4C25107F0B7FBCD462C68BE
:1033E000B3E798F8293023B1F91D0120FFF79CFDC0
:1033F000E4E7B8F82A309BB2002BA6D0FFF724FEF2
:10340000DCE7FA1D0021D6E7F91D0020EEE71A4B94
:10341000FB610223BB6181E7184A194B1949104827
:1034200018F4F87FE8468AB018BF13466A46C2E926
:103430000513022382F82030103C134BD4614FF463
:10344000095142F8103F07F080FBC5466DE723F4B1
:10345000FF7323F001038AE700ED00E0D2C700000C
:1034600000BE0000FDC7000014C8000035C8000001
:1034700043C8000062C800007EC80000B9C7000051
:10348000A4C70000A2C8000004000001024A53695A
:1034900043F010035361704700ED00E0EFF3088044
:1034A000EFF3098101B57246FFF7E6FE01BD00BFEB
:1034B000044800232021C2180133282B82F800136E
:1034C000F9D1704700E100E0002080F31488BFF3D9
:1034D0006F8F08F02BFB00200D490860BFF34F8F62
:1034E0000C4880F3088800F02BF8202080F3118826
:1034F00009484FF40261401880F30988EFF3148003
:103500000221084380F31488BFF36F8FFFF72CFC70
:1035100094ED00E0402C0020802D00200749D1F8D8
:1035200090200023C2F307221846934200D170472F
:10353000C1F89830C1F8A0000133F6E700ED00E0D3
:1035400008B572B6002383F31388FFF7E7FF144B27
:103550004FF0FF32C3F88020C3F88420C3F88820DE
:10356000C3F88C20C3F89020C3F89420C3F89820A7
:10357000C3F89C20C3F88021C3F88421C3F88821B4
:10358000C3F88C21C3F89021C3F89421C3F8982183
:10359000C3F89C2162B6BFF34F8FBFF36F8F08BD96
:1035A00000E100E0084B9B6883420BD1EFF30583F9
:1035B00043B1064B5A6842F080525A605A6A22F46C
:1035C00000425A6206F02AB9481A002000ED00E0D5
:1035D000024B034A0348012100F090B8008000200C
:1035E0000000002040BF0000426E054B203A1A60E8
:1035F000044A2021C3E901121846012100F088B8CD
:10360000800D002000000B15F8B5DFF8B4C000AF46
:1036100000258D421ADA4468002C4DD0FBB104F12C
:10362000FF3E14EA0E0F14D0264B6C4688B06A4653
:10363000C2E90535032342F8103F234800234FF425
:10364000C25107F0E6F96FF01502A5461046BD46D7
:10365000F8BD1F2CE8D906681EEA060FE4D1202C1D
:103660000668D0F808E0D2B214D9B4F1004F13D8EC
:10367000013CB4FA84F4C4F11F046400072A4EEA42
:1036800004040BD911496C4688B06B46C3E9051296
:103690001A46CFE70824F1E73E24EFE726F01F069D
:1036A000164346F0100644F00104CCF89820CCF8FC
:1036B0009C600132CCF8A04001350C30A9E700BF76
:1036C00000ED00E0B9C80000F8BD0000DCC8000053
:1036D000044B0522C3F89420BFF34F8FBFF36F8FC5
:1036E000704700BF00ED00E0BFF35F8F024B002288
:1036F000C3F89420704700BF00ED00E010B5034C04
:1037000001232278FFF780FF207010BDB01A00203F
:1037100008B5094A00231278FFF776FF10F1160F5B
:1037200003D0064B0022072800DD08BDC3F898002F
:10373000C3F8A0200130F6E7B01A002000ED00E049
:1037400014490868082810B521D8FFF7CDFF124C9E
:1037500049680022904201F10C0105D10F4B18700D
:10376000FFF7B6FF002010BDC4F8982051F80C3CBC
:1037700023F01F03134343F01003C4F89C3051F8A7
:10378000043C43F00103C4F8A0300132E2E74FF0FB
:10379000FF30E8E74CBF000000ED00E0B01A002069
:1037A000014B1860704700BF0C0000204FF08043B1
:1037B000C0B2C3F81C05BFF34F8F0549054BCA685B
:1037C00002F4E0621343CB60BFF34F8F00BFFDE70D
:1037D00000ED00E00400FA0520B1034B800143F046
:1037E00001031847704700BFC0BE000080B5084BFA
:1037F00000AF88B06A46C2E90530032342F8103FA3
:1038000004484FF4C45107F004FABD4680BD00BF20
:1038100015C9000058BE000070B5064686B00D46BA
:103820000146354807F052F9044628B9304606B03B
:10383000BDE87040FFF7DABF0A2D5AD8DFE805F07F
:103840000611212332344059595930002B4B05932E
:103850002B48022304AA4FF48651049307F0D9F9A8
:103860001EE0284B05932648022304AA4FF48651F4
:10387000049307F0CEF9002304F8043C04F8033C59
:103880000EE0214BE3E7214B05931D48022304AAD8
:103890004FF48651049307F0BCF9012304F8043C6B
:1038A00006B070BD1A4BDDE71A4B0593144802238E
:1038B00004AA4FF48651049307F0ABF90123DDE726
:1038C000154B0F480593022504AA4FF48651049521
:1038D00007F09FF914F8033C002BE1D00F4B084888
:1038E00004AA4FF48651CDE9045307F092F900235E
:1038F000C4E70B4BABE700BFA40D002036C90000A6
:1039000058BE000043C9000059C900006AC9000040
:103910007CC9000090C90000A1C90000B0C9000026
:10392000BDC900002DE9F843044600AF884601797F
:103930002748914607F0D6F80646A0B9A38825493E
:1039400025486C4688B06A46C2E90513032342F84D
:10395000103F4FF4C45107F05CF96FF01200A54618
:10396000BD46BDE8F88394F9003000686578002B07
:1039700013DA012D05D0AB1E012B19D86FF085008D
:10398000EEE756F8083C002BF8D01D68002DF5D066
:103990004B4642462146A847E2E7092D02D0A5F151
:1039A0000A03E9E756F8083C002BE7D05D68EDE72D
:1039B0000A4B09486C4688B06A46C2E905350323BC
:1039C00042F8103F4FF4C25107F023F9A546D5E75E
:1039D000A40D0020CBC9000058BE0000F2C90000B1
:1039E0002DE9F04790F90030002B00AF04460E4659
:1039F000154620DA038823F0E0039BB240F201620F
:103A0000934218D190F8049043881D4849464FEAE4
:103A1000132A07F067F888B91A4B1B486C4688B020
:103A20006A46C2E90539032342F8103F4FF4C451F6
:103A300007F0EFF8A5466FF0150007E0BAF1210F87
:103A400007D0BAF1220F11D06FF08500BD46BDE856
:103A5000F0870368E1885B685B6813F8092F91427F
:103A600094BF316032602B600020EFE7E38850F8AC
:103A70000C2C9A4294BF3260336050F8103CF2E74D
:103A8000A40D0020CBC9000058BE000080B5084B33
:103A900000AF88B06A46C2E90530032342F8103F00
:103AA00004484FF4C45107F0B4F8BD4680BD00BFD0
:103AB0000BCA000058BE000070B504460D46014612
:103AC0000A4807F01DF820B92046BDE87040FFF70E
:103AD000DDBF022D08D150F8083C2BB11B691BB18A
:103AE000BDE870400068184770BD00BFA40D0020FD
:103AF00030B544680069057B87B045B1407B30B97B
:103B0000206A007907B0BDE8304006F0C7BF074B18
:103B100005930748022304AA4FF48451049307F045
:103B200078F86FF00A0007B030BD00BF31CA00005E
:103B300058BE000000F07F03082B42B204D010F002
:103B4000780F01D000207047002A00F00F0300F02A
:103B5000080005DA58B9084800EB43104C307047AC
:103B600038B9054800EB431000F5B67070470348BC
:103B700070470348704700BFAC130020F8140020C2
:103B8000181600200146014807F03FBD90010020B3
:103B90000149024807F08ABDD41300202008002004
:103BA00013B50B4803F002FB00240A4803F028FB7E
:103BB0004FF0FF334FF4806207490848009405F046
:103BC000CDFA0749074807F068FD204602B010BD4E
:103BD00053CC000070BF00002024002020080020EB
:103BE000D13F0000D413002002480022002305F03A
:103BF00033B900BF9001002010B5054CFFF7F4FF6A
:103C000020B1011D204607F048FCF7E710BD00BFBA
:103C10005001002010B588B018480022002301A9E7
:103C200004F05CFF30B3164B1648079306AA4FF416
:103C300082510224069407F002F8FFF7DDFF0F48D7
:103C40000022002301A904F049FF50B10E4B0D489A
:103C500006AA4FF48251CDE9064306F0F0FF00209A
:103C60000AE00198042340600374FFF78BFFFFF71D
:103C70008FFFF4E70198406008B010BD50010020AC
:103C800058CA000060BE000076CA0000F8B581780E
:103C9000064600AF0846FFF74DFF0B06F4780546D1
:103CA00023D594B1032C1ED02A4B2B486D4688B0E7
:103CB0006A46C2E905340423D16142F8103F4FF44B
:103CC000015106F0BCFFAD460DE0FFF7A3FF034630
:103CD00048B10122AC770274032202739D60FFF7A2
:103CE00051FFFFF755FFBD46F8BD54B1012CDBD1A4
:103CF000FFF790FF03460028F5D06C770474047337
:103D0000ECE7FFF787FF0028EDD0B278134B12F0F5
:103D1000800F02F0080111D041B1D3F8A836EB6052
:103D200001230374022303738560D8E702F00F02B6
:103D3000142101FB0233D3F80836F0E711B1D3F8B0
:103D4000A837ECE702F00F02142101FB0233D3F88D
:103D50000837E4E792CA000060BE0000007002402D
:103D600098B5022800AF11D8104B1C5CFFF752FF2A
:103D700050B1002202740472FFF704FF0C4B93F859
:103D800024300BB1FFF704FFBD4698BD094B6C46CC
:103D900088B06A46C2E90530032342F8103F06485E
:103DA0004FF4C25106F04BFFA546EDE750CC0000A2
:103DB000AC130020BECA000060BE000010B50F4961
:103DC000BFF35B8F01F12003002253E8000F0128AD
:103DD00003D143E80024002CF7D1BFF35B8F0BD154
:103DE000CC690C31204606F04BF9783004D12046DE
:103DF000BDE8104006F01FB910BD00BFAC13002095
:103E0000F0B589B0064600AF1422002107F10C007E
:103E100006F0CFFE3378013B052B20D8DFE803F016
:103E200097031313891503233B750024FFF7F2FE54
:103E30000346A0B1047400F10802D7E9050182E845
:103E40000300184630E00423EEE7B1780846FFF798
:103E500071FE837A05462BB1013B022B65D92437CD
:103E6000BD46F0BD0B06F47823D594B1032CF6D0F3
:103E7000384B39486D4688B06A46C2E90534042398
:103E8000D16142F8103F4FF4015106F0D8FEAD4623
:103E9000E5E7FFF7BFFE03460028E0D00122AC773C
:103EA0000274032202739D60FFF76CFEFFF770FE41
:103EB000D5E754B1012CDBD1FFF7ACFE0346002857
:103EC000CDD06C7704740473EDE7FFF7A3FE0446CE
:103ED0000028C4D00123037402230373856005F115
:103EE0000C01B07807F047FA70B11C4B6E4688B0F1
:103EF0006A46C2E90530032342F8103F16484FF4E2
:103F0000C25106F09CFEB546154AE968B2F88C32FB
:103F10008B4206D95B1AA2F88C3204F0F3F82046E3
:103F2000C2E70023A2F88C32F9E73046FFF7AEFE75
:103F300095E7381D04F0C0F87B79052B03D13B7958
:103F400013F0600F8BD0074B7B6101246EE70224D6
:103F50006CE700BF92CA000060BE0000D9CA000032
:103F6000AC1300201815002038B5002464F07F0041
:103F7000C0B2FFF7DFFD013406F04EFE082CF5D18C
:103F80000F4D0024E0B2FFF7D5FD036903B90561C9
:103F9000013406F041FE082C05F14005F2D1094C30
:103FA00004F5A67006F038FED4F87C3213B9064B3F
:103FB000C4F87C32054806F02FFE002038BD00BF53
:103FC000AC110020AC130020AC0D0020181600200E
:103FD0002DE9F047AF4CDFF8C09286B0804600AFC5
:103FE000FFF702FE064618B91837BD46BDE8F08750
:103FF00094F82520337C06F1040A3AB9002B00F02E
:10400000AD805146484607F048FAE9E7042B00F234
:104010009781DFE813F0A3000500280153017A011E
:1040200018F8043C83B9B3689C495B7A9C486D4698
:1040300088B06A46C2E90513032342F8103F4FF4E3
:10404000C25106F0FCFDAD46337BB568032BD8D8D2
:10405000DFE803F0023D6C716E69082200213046F2
:1040600006F0A7FD8F4B9048D3F880243270D3F828
:1040700084247270D3F88824D3F88C1442EA012285
:104080007280D3F89024D3F8941442EA0122B280CB
:10409000D3F89824D3F89C3442EA03230822F3800F
:1040A0003146EA6006F07AFD2B68687A002198476D
:1040B00096F90030002B06DBF38823B1A4F88C328C
:1040C00004F020F89DE70023A4F88C3299E76B7F79
:1040D000002B96D02B7F002B93D0002673486E7751
:1040E0004FF0FF324FF0FF332E7706F0ABFD6B69D8
:1040F0003B606B68C7E901363946687A03F012FE07
:104100006B4B98420ED06B4B6D4688B06A46C2E945
:104110000530032342F8103F61484FF4C25106F0C6
:104120008EFDAD46614806F08FFD6AE72B680121E0
:10413000687A984765E7AB7A6BB9EB7F5BB95B4808
:104140004FF0FF324FF0FF3306F07CFD04F00EF825
:10415000564806F079FD2B680221E9E7337A042BF3
:104160003FF64FAFDFE803F05B032569750003F00E
:1041700089FD054600287FF444AF03F01DFDBFF321
:104180005B8F4D49012351E8002F002A03D141E8FC
:1041900000300028F7D1BFF35B8F7FF432AF41F8D6
:1041A000105C41F8085CE0696361143905F0FAFEBF
:1041B00027E7002565F07F00C0B2FFF7BBFC037A5C
:1041C00013B1407A04F0C0F90135082DF2D194F80A
:1041D00054311BB194F8550104F0B6F90025E8B24A
:1041E000FFF7A8FC037A13B1407A04F0ADF901356A
:1041F000082DF4D194F874321BB194F8750204F0D0
:10420000A3F9012003F020FD012384F82530236861
:10421000002B3FF4F6AE002102209847F1E600257E
:1042200084F8255004F01AF9FFF7C8FD2368002B25
:104230003FF4E7AE29460420EFE7002A3FF4E1AE61
:1042400004F026F92368002B3FF4DBAE00210520A3
:10425000E3E72368002B3FF4D4AE002A3FF4D1AE4D
:1042600000210620D9E708F110054FF0FF334FF089
:10427000FF32284606F0E6FCFFF776FE284606F0F9
:10428000E3FC58F8283C002B3FF4BBAE0021012092
:10429000C3E700BFAC13002050010020F9CA0000A2
:1042A00060BE000000700240B0130020E413002044
:1042B0000000AD0B1FCB0000CC13002094F874322B
:1042C00093B1012584F8895284F88852FFF7A2FC43
:1042D00090B9234B7B612348022307F110024FF46E
:1042E00082513B6106F0ABFC58F8283C002B3FF4B0
:1042F00088AE00210A2090E71B4A0574057382608E
:10430000FFF740FCFFF744FCEEE7184B15487B61D4
:1043100007F1100202234FF482513B6106F08FFC3B
:1043200006F08AFF04F09AF803F03CFCFFF764FC07
:10433000FFF71AFE06F079FF0D4803F0ADFC60E6CA
:104340000C4908486D4688B06A46C2E90513032344
:1043500042F8103F4FF4C25106F071FCAD4650E6F2
:1043600045CB000060BE00001816002059CB0000AD
:10437000013E000070CB0000074B93F824203AB1B7
:1043800093F82530002B0CBF6FF01200002070470F
:104390006FF01200704700BFAC1300207FB50246DB
:1043A0000378127903F00F007AB958B10D4B0E481B
:1043B000059304AA02234FF48251049306F03FFCB4
:1043C0004FF0FF3007B05DF804FB082801D9074B18
:1043D000EDE7012A06BF83F0080040F3C00000208B
:1043E000F0E700BF87CB000060BE0000A6CB000056
:1043F00010B5154B93F8243086B001460BB3047802
:104400002046FFF797FB98B144720B798372498875
:10441000416023070FD44B1E0B420CD00B4B05936E
:104420000B48022304AA4FF48251049306F007FCC0
:104430006FF0150003E0204606F098FF002006B05C
:1044400010BD6FF01200FAE7AC130020C5CB0000DE
:1044500060BE000010B5184B93F8242086B00146CA
:104460003AB393F8253023B3FFF764FB0446E8B171
:10447000837A012B10D008D9023B012B08D963693C
:10448000A3610020E06006B010BD03F077FEF6E700
:10449000084603F0E3FDF2E7084B059308480223C2
:1044A00004AA4FF48251049306F0C9FB6FF0150083
:1044B000E9E76FF01200E6E7AC130020EDCB000057
:1044C00060BE000038B50E4B93F82420054682B13B
:1044D00093F825306BB1FFF72DFB68B115F0080498
:1044E0000AD1284603F0DCFD284604F07FF8204678
:1044F00038BD6FF01200FBE76FF01500F8E700BF62
:10450000AC13002038B50C4B93F8242005460C461C
:1045100062B193F825304BB1FFF70CFB48B141B1C4
:10452000284603F0A3FD2070002038BD6FF0120074
:10453000FBE76FF01500F8E7AC130020F8B5134F58
:1045400097F824300446BBB1FFF7F4FA0546B0B142
:10455000230705D4204603F0A3FD204604F046F8C7
:104560002E7A7EB997F8250001232B7218B12046C8
:1045700003F0EAFF3046F8BD6FF01200FBE76FF082
:104580001500F8E76FF07700F5E700BFAC130020E7
:1045900038B5114B93F8242001469AB193F8253091
:1045A00083B1FFF7C7FA054678B1037A83B10846AD
:1045B000002403F09DFF2846AC7706F02DFB2C72FB
:1045C000204638BD6FF01200FBE76FF01500F8E7EA
:1045D0006FF07700F5E700BFAC1300202DE9F0473E
:1045E000DFF81C9184B01C4699F8243000AF804657
:1045F0008A461646002B7FD099F82530002B7BD0B9
:1046000010F0800F14D0FFF795FA054680B1037AB9
:104610008BB93C4B3C486C4688B06A46C2E90538C9
:10462000032342F8103F4FF4C25106F008FBA546A1
:104630006FF015040FE04FF0FF334FF0FF3209F138
:10464000380006F0FFFAAB7F53B109F1380006F0ED
:10465000FBFA6FF00A0420461037BD46BDE8F0872C
:1046600016B9EB7F03B1EE77AB7ABBB95EB1B9F89F
:104670000A309E4207D26A68B6FBF2F302FB13636C
:104680000BB90123EB7703F081FD804506D003F0E1
:104690006DFD1E4806F0D8FA0024DCE70123AB7755
:1046A0004FF00009391D4046C7E901A6C7F80C9034
:1046B00003F038FB164B984219D085F81E900CB1C8
:1046C000C4F800906C46134B88B06A46C2E90530C6
:1046D000032342F8103F0C484FF4C25106F0AFFAE2
:1046E000A5466FF00404094806F0AEFAB3E7002CC3
:1046F000F9D026604C46F6E76FF01204ABE700BF36
:10470000AC1300200FCC000060BE0000E4130020BA
:104710000000AD0B2ECC0000084B70B5C31A0D463F
:1047200007499B10044659430648402206F0AAFA5E
:104730002B4601462046BDE8704018474C16002025
:10474000B76DDBB6C8BB000073B50C4C0C4A4023F8
:10475000041B00930D460B460A49A410614306460C
:10476000094806F0BCFA011E05DA30462B4602B0B5
:10477000BDE87040184702B070BD00BF4C16002065
:104780004DAD0000B76DDBB6C8BB0000002270B5B0
:10479000012104461046FEF7BDFA114802F058F90F
:1047A000104B984218D1206900F0DCF902F062F950
:1047B00026690D49304605F0E2FB00280BDB246931
:1047C00009490125356404F11C0005F0D8FB0028D7
:1047D00001DBE564002070BD6FF00400FBE700BF63
:1047E000214800000000AD0BA4BF000001460C23CF
:1047F00009484B4370B5C418D4E90E560022403323
:10480000A263184406F02BFA2DB132462B4603481A
:10481000BDE87040184770BD4C160020C8BB0000B2
:10482000012810B504460AD003280CD078B9084BEB
:104830001B6C5B070BD1BDE81040FFF7D7BF00F042
:104840009FF92046F7E7BDE8104000F0A7B910BD7A
:104850004C16002008B54FF02003EFF3118183F3CD
:104860001288BFF36F8F124A136843F0020013F0EF
:10487000010310600CD04FF08042D2F80C34D2F813
:104880000C2413F0010303D00A4806F0E8F90123D1
:1048900081F31188BFF36F8F23B1BDE8084000207A
:1048A000FFF7A4BFBDE80840012006F06ABC00BFC6
:1048B0009C1600208C1600201FB500220123CDE994
:1048C0000223094ACDF800D06B46CDF804D006F09B
:1048D00036FA002805DB4FF480420023684604F0D6
:1048E0000FFB05B05DF804FB65AD0000094BBFF39D
:1048F0005B8F53E8002F22F0020143E800100028EC
:10490000F7D1BFF35B8FD30702D4012006F071BC4F
:10491000704700BF9C160020024AC3B21C2003FB54
:10492000002070474C160020F8B52849BFF35B8F74
:104930000646012251E8003F41E800200028F9D155
:10494000BFF35B8F33B9224922484B60CB608A604A
:1049500005F028FB731E012B20D806F0C7FD044686
:1049600010B91D4B1B7853BB4FF02003EFF311859B
:1049700083F31288BFF36F8F01244FF08047D7F87D
:104980001834D7F81824D20309D59B0701D0012E7B
:1049900005D174B185F31188BFF36F8FF8BD1CB1D9
:1049A0002846FEF715F9EAE70021212004F016FF5A
:1049B000E5E74FF080430222C3F80423EEE74FF00F
:1049C00080430222C3F808230546D6E7A01600203C
:1049D0003C16002068160020CB1E00207FB5084B37
:1049E0000593022304930748002304AA4FF482513D
:1049F00006F00FF86FF0120007B05DF804FB00BF7F
:104A000074CC0000C8BD00000D4BBFF35B8F0122CA
:104A100053E8001F002903D143E800200028F7D104
:104A2000BFF35B8F0AD107490023CB60064B4B6075
:104A300003238B60054B186805F0B4BA704700BFBC
:104A4000A4160020A8160020394B0000B81600203C
:104A500008B5064B0648186006F011FD18B9BDE808
:104A60000840FFF7BBBF002008BD00BFBC160020F8
:104A700040BC000007B500220023CDE90023084810
:104A80004FF40032002305F0C5F8064B186805F016
:104A9000D2FA054B00221A6003B05DF804FB00BF98
:104AA00018010020B8160020A416002037B51D4DAF
:104AB000286883681C4CDB683921984770B1002353
:104AC00023701A46217809B1012A20DD174A138084
:104AD00001F0E2FF0123237003B030BD2868836832
:104AE0006A461B690C2198470028E8D1104A019BAF
:104AF00093FBF2F3009A03EB82030C4AB2F9002015
:104B00001BB29A1A002AB8BF524212B2DAE7094A17
:104B10001368013901332170136003B0BDE83040E0
:104B2000FFF7A8BFBC160020B11A0020881A002089
:104B300090D00300C416002008B5074B1B682BB9A2
:104B400001F0AAFF054B01221A7008BDBDE808401C
:104B5000034804F0FDBA00BFBC160020B11A0020C3
:104B600018000020034B044A186000231360034A16
:104B700013607047B8160020C0160020C41600202D
:104B8000024B00221A70FFF73FBF00BFB11A00208E
:104B9000014806F040BF00BF18010020024A136818
:104BA00001331360FFF766BFC016002010B5044C38
:104BB0002046FCF783F82046FEF7F2FD002010BDEA
:104BC000C54B00002DE9F341DFF85C80174E8DF8EE
:104BD0000700044603254FF0FF334FF0FF324046F5
:104BE00004F080F801220DF10701002003F08AFD96
:104BF0000746404604F0EEF82FB1012333702046FB
:104C000002B0BDE8F0813378002BF8D0013D08D028
:104C100006F06CFC0028DED10021422004F0DEFD0D
:104C2000D9E73570EBE700BF6C010020B21A002015
:104C300030B54068047B01F01F05B2F5001F45EA5E
:104C4000441585B04FF0000404D1284602F0BCF9A9
:104C500000202EE0B2F5800FCDE902442BD1B3F154
:104C6000007F0CBF042305238DF80830836823FAE6
:104C700001F1C9072BD4B2F1A07F28D105F01F03A1
:104C800003F5E0734FF0A04252F82330DB071ED447
:104C90000DF107042146284602F0FEF8144B984215
:104CA00014D1204602F046F9124B98420ED06FF014
:104CB0000B0005B030BDB3F1C06F05D0B3F1007F7C
:104CC0000CBF02230123CFE70323CDE70394002386
:104CD000194602AA284601F0B7FF064B984204D1B4
:104CE0000121284602F02CF9B2E76FF00400E0E75A
:104CF0000400AD0B0000AD0B10B502F00BF904463B
:104D000068B902F0DFF8084B98420AD107482146FB
:104D100002F0BCF8224605210620FDF7FBFF00202B
:104D200010BD6FF00400FBE70000AD0B314D00003B
:104D3000430970B510D1094B596869B101250C6858
:104D4000074E85408A682A4002D04B683046984713
:104D500014B121462468F5E770BD00BFC8160020D5
:104D6000E0BB00002DE9F04347683B7B01F01F05E5
:104D700085B00E4645EA43151446CAB902A928462D
:104D800002F08AF80446284602F046F94A4B984257
:104D900004D06FF0040005B0BDE8F083844205D173
:104DA0009DF8080002F0C0F8A042F2D10020F2E71E
:104DB0004FF000090DF103013046CDE9029902F0F0
:104DC0006BF84B46804602AA4946284601F03CFF54
:104DD000394B984202D06FF01500DCE7804503D1D3
:104DE0009DF8030002F0A0F8A30351D540F206633A
:104DF000234040F2062293423BD00CD8062B15D01C
:104E000004D89BB1022BE6D104230FE0B3F5007F59
:104E1000E1D101230AE040F2024293422BD0B3F5E4
:104E2000C06F2AD0B3F5806FD5D102238DF804303E
:104E300084F48033C3F30043E0068DF8053054BF9B
:104E4000C4F34013032321038DF8063017D57B6884
:104E5000012101FA06F6C3F80865002201A92846D7
:104E600001F09CFF144B984214BF6FF01500002016
:104E700091E70723DAE70523D8E70323D6E76203A0
:104E800041BF7B68012101FA06F6C3F80C65E4E72F
:104E9000E3064FF0000354BFC4F3401403241A4642
:104EA00001A928468DF8044001F0CEFE024B98423D
:104EB0003FF47CAF8FE700BF0000AD0B222910B597
:104EC00015D14FF02003EFF3118083F31288BFF365
:104ED0006F8F084900240B680C6080F31188BFF3C2
:104EE0006F8FC3EB031313602046546010BD6FF047
:104EF0008500FBE7D41600200B88012B14D14B88CA
:104F0000392B01D0222B0FD14FF02001EFF3118369
:104F100081F31288BFF36F8F05494A6083F31188CC
:104F2000BFF36F8F002070476FF08500704700BFA0
:104F3000D416002010B54FF02003EFF3118183F356
:104F40001288BFF36F8F00280B4B0ADD1C68C0F579
:104F5000B60202F5B662A24209DB1A681044186074
:104F600005E0FAD0054A1C68121AA242F5DD81F369
:104F70001188BFF36F8F10BDD416002050FAA4FF24
:104F800090B585B000AFC7E900013B88B3F5827FDB
:104F90001DD1B7F90200FFF7CDFF4FF02003EFF36B
:104FA000118283F31288BFF36F8F114B5B6882F31A
:104FB0001188BFF36F8F3BB10122BA8122220D48C5
:104FC000FA8107F10C0198471437BD4690BD0A4994
:104FD0006C4688B06A46C2E90513032342F8103FC5
:104FE000064800234FF4C25105F013FDA546EBE738
:104FF000D416002028BC000098CC000020BE000081
:105000007FB51A491A4802F0AFF91A4B98420FD1EE
:10501000194B0593022304931848002304AA4FF464
:10502000825105F0F6FC6FF00F0007B05DF804FB4D
:10503000134B98420DD0134B0593022304930F4852
:10504000002304AA4FF4825105F0E3FC6FF00D0039
:10505000EBE74FF0A0434FF08042C3F80C2503224A
:10506000C3F8782702F0ECF90020DEE7814F00005A
:1050700000C000000500AD0BAFCC000020BE00005A
:105080000000AD0BC3CC000007B5002201211220A7
:10509000FDF740FE0B4801AA002105F05BFF002848
:1050A0000CDB019B084A1979186805F088FF002875
:1050B00004DB03B05DF804EBFFF7A2BF03B05DF8BB
:1050C00004FB00BFE4BF000000200140014B0122AF
:1050D0001A60704700C000400C2903690BD15B6A5D
:1050E000064907484B4393FBF0F100FB1133116075
:1050F0005360002070476FF08500704790D0030028
:1051000040420F00044B00690022C3F80021D3F88D
:10511000003103F0D5BE00BF00C000407FB5056977
:10512000AB6A63B3392901D00C292BD105F11006E4
:105130004FF0FF324FF0FF33304603F0D3FD134BF7
:105140000193A86A0323002469460394029304F0A0
:1051500029FF4FF0FF324FF0FF33284603F0D0FE17
:10516000A86A04F068FF0A4BD3F808256A62012296
:105170005A60304603F02EFE204604B070BD6FF03A
:105180000A00FAE76FF08500F7E700BFCD50000096
:1051900000C0004010B504690020FFF7BDFBA0620D
:1051A0004FF0FF320021204606F03AFA04F11000D9
:1051B00006F0B8F9002201210C20FDF7ABFD0C2010
:1051C000FDF776FD024B0122C3F80423002010BD39
:1051D00000C000402DE9F04383B0044600AF0569EC
:1051E000002201210320FDF795FD63685C6A3A1DEA
:1051F0000021204605F0AEFE002830DB7B682268E7
:105200001979186805F0DBFE002828DBAC68012658
:10521000D5E9023203EBC2039C4204D3284605F0D1
:105220005EFE00201BE0206806F029F9D8B923684B
:105230001E48196823796C468AB06A46C2E905019E
:10524000D361022382F82030194B1A4842F8103FEC
:105250004FF4095105F00AFE6FF01200A5460C3715
:10526000BD46BDE8F08320682179E388D0F810E0DE
:10527000D0F80890DEF800C0DA0754BF43F4B0134A
:1052800083F4D01323F4801206FA01F8DB074CBF35
:105290004CEA08032CEA0803CEF80030D9F80030B5
:1052A00098470028DBDB0834B2E700BFFDCC0000E4
:1052B0000400000130BE0000F0B50569AB6C2C6D38
:1052C00085B07BB99CB900221146284605F0E5FD62
:1052D0002C6305F1200003F0F3FD002385F85C301A
:1052E00005B0F0BD002C35D09C4228BF1C46696C2F
:1052F000466879B173B101F06043B3F1005F09D042
:10530000082C28BF082405F15E072246384605F020
:1053100045FC3946B2686B6C0091944228BF144634
:10532000AC651BB1AB6C002B18BF23460193EB6C33
:1053300002931BB12B6D002B18BF23460022694638
:105340003046039302F086F9034B9842C8D06FF0C1
:105350000404B8E71C46CAE70000AD0B10B503789B
:1053600086B00C46002B54D18B6C63B18A6D9A4287
:105370001ED9294B05932948022304AA4FF48251D0
:10538000049305F073FD236D63B1A26D9A4227D992
:10539000214B05932148022304AA4FF48251049320
:1053A00005F064FD606D06B0BDE81040FFF784BFF6
:1053B0009B1A8B6473B94B6B08334B638B6B013B4C
:1053C0008B6301F1480204F13400383105F03DFDF2
:1053D0006064D8E74B6C002BD5D013444B64D2E704
:1053E0009B1A23657BB9E36B0833E363236C013BB2
:1053F000236404F1500204F1400104F13C0005F083
:1054000024FDE064CEE7E36C002BCBD01344E364CF
:10541000C8E706B010BD00BF21CD000030BE0000BF
:105420002DE9F04F8BB000AFC7E902328B880469D9
:105430009B0483460E4634D44FF0FF324FF0FF33C7
:1054400004F1100003F05CFD6660DBF8108098F852
:105450005D307B6023B1D8F800309E4200F0D280EE
:10546000B6F804C01CF4006F22D09B4B7B629B48B3
:10547000022307F120024FF482516FF085053B6251
:1054800005F0F4FC23689B8813F4005304D1636097
:1054900004F1100003F014FD28462C37BD46BDE88A
:1054A000F08FA369002BC7D163689942C4D1CCE7C0
:1054B0001CF0010F15D0DBF80030894987486D4694
:1054C00088B06A46C2E9051302231377854B42F878
:1054D000103F4FF4D25105F0C9FCAD466FF01505F1
:1054E000D0E71CF0080F0BD07F4B7B627B48022378
:1054F00007F120024FF482513B6205F0B7FCEDE763
:10550000CCF34513082B01D0784BEEE73568784B88
:105510009D4201D8774BE8E7DBF80490D9F80C30CE
:105520003B6009F1100ABAE80F0007F1100EAEE86F
:105530000F00DAF80030CEF800303B689D4228BFFB
:105540001D466D4B9D4245D96C4B9D4245D96C4BD8
:105550009D4245D96B4B9D4245D96B4B9D4245D9E8
:105560006A4B9D4234BF4FF080454FF000451CF020
:10557000020FBD610CF004033BD0002B14BF0323CA
:1055800002233B777B68CCF3001C87F81DC02BB14E
:10559000484602F017F8002388F85D3043465C4A1D
:1055A00007F11001484601F065FF5A4B984224D09C
:1055B0006D46594B88B06A46C2E90530032342F86C
:1055C000103F46484FF4C25105F050FCAD466FF015
:1055D000040557E74FF00075C9E74FF08065C6E74F
:1055E0004FF00065C3E74FF08055C0E74FF000551E
:1055F000BDE7003B18BF0123C3E7012388F85D30F6
:10560000C8F80060012384F85C30FB68002B52D19D
:1056100063631A46A26304F1380104F1480204F1FD
:10562000340005F012FCBB686064002B4AD1E363D0
:10563000236404F1500204F1400104F13C0005F040
:1056400004FC00263246E06401212046266305F072
:1056500024FC5846FFF730FE256DA36CA0469D4202
:1056600038BF1D464FF4FA535D4358F8203B4FF4C2
:10567000004C1B68B5FBF3F53146C83540F2E73006
:105680004FF47A720023E5FB0C01FAF729FD02467C
:105690000B46404603F034FCE0B1204B7B620F48E0
:1056A000022307F120024FF482513B626FF0730531
:1056B00005F0DCFBE6E6FB681A686263002AA9D005
:1056C0005A68A7E7BB681B68E363002BB0D0BB68D0
:1056D0005B68ADE7256BD5E63FCD000030BE00002E
:1056E00059CD0000030000017BCD00009ACD0000E1
:1056F00047E80100C9CD00008FD003001FA10700BB
:105700003F420F007F841E00FF083D0000127A0018
:105710005D5300000000AD0BFACD000021CE00006B
:1057200010B501238340114ABFF35B8FDC4352E87D
:10573000001F01EA040C42E800CEBEF1000FF6D1D2
:10574000BFF35B8F4FF4803202FA00F002F1804227
:1057500002F58052C2F80803BFF35F8FBFF36F8F6B
:105760000B4214BF0120002010BD00BF0C17002009
:105770001949F8B5044622F07F450868C1E90023BD
:10578000A5F50013101AB3F5400F22D2134B1B6876
:105790001A0A1B065E19124B42F10007C3E90067A3
:1057A000012604F07DF9A30003F1804303F588335B
:1057B000D3F84025AA420BD11EB94FF40002C3F81A
:1057C0004025084B4FF4803000FA04F4C3F84443FA
:1057D000F8BD0026E5E700BFD8080020101700201C
:1057E000C00800200010014019B3BFF35B8F0123F4
:1057F000104A834052E8001F194342E8001CBCF1E4
:10580000000FF7D1BFF35B8F0B4A4FF48033834017
:10581000C2F80433094BBFF35B8F1B68BFF35B8F88
:1058200023FA00F0C30742BF054B4FF40032C3F820
:10583000002170470C1700200010014008170020BD
:1058400000E100E00D4B1868010A0006BFF35F8F0E
:105850000B4BD3F80435181841F10001B3F5801F44
:105860000AD2084BD3E90023904271EB030303D221
:1058700010F1807041F10001704700BF1017002047
:1058800000100140C00800202DE9F04F85B01646F9
:1058900098460546FFF744FF0090FFF7D3FFB0425C
:1058A00071EB080378D2464B301A68EB010198423D
:1058B00071F1000380F08180424B03EB0513D3E9C3
:1058C00002ABD84508BF564551D04FEA850909F1CA
:1058D000804905F1500709F58839BF004FF4803140
:1058E00001FA05F3BFB226F07F4207F1804701932A
:1058F000D9F84005344B07F588371446D3F804151A
:10590000401A20F07F4021F07F4C0128C9F840C5A3
:1059100007D1CDE90221132006F042F8DDE902218A
:10592000294B01F1020CA4EB0C0020F07F40B0F5F4
:10593000000F88BF64460020386038680198C3F8BB
:10594000440324F07F40C9F84005D3F804058142A0
:1059500006D0201A023820F07F40B0F5000F19D889
:10596000A41A24F07F4414EB060A48F1000B1549F1
:105970000E982B0101EB0512C2E902ABC8500F9B38
:105980005360002428460099FFF72EFF204605B0FB
:10599000BDE8F08F2046B1E701230C4ABFF35B8FCF
:1059A000AB4052E8001F194342E800100028F8D12C
:1059B000BFF35B8FB246C346D9E76FF01504E1E74A
:1059C00001000001C8080020001001400817002055
:1059D00073B5194B194D00244FF0FF304FF0FF31D4
:1059E000C5F80845C3E902014FF48033C5F8043314
:1059F000134B02264FF400320121C5F80463112035
:105A0000C3F880212246FDF785F91120FDF750F9F2
:105A10000C4A0123AB602B6013600B4B0B4A0093C5
:105A2000019400232046FFF72FFF3046FEF77CFF4E
:105A3000204602B070BD00BFC80800200010014021
:105A400000E100E00C17002071570000FFFF7F000D
:105A50002DE9F743354CD4F804339A070BD5D4F825
:105A6000043143B1324A0023C4F80431D4F804317C
:105A70001368013313604FF02003EFF3118283F3B7
:105A80001288BFF36F8FD4F80433DB0312D5BFF352
:105A90005B8F284B53E8001F21F0010043E800060C
:105AA000002EF7D1BFF35B8F002936D1D4F84031F7
:105AB000002B32D1002382F31188BFF36F8F4BB3D9
:105AC000FFF7C0FE4FF02003EFF3118C83F3128831
:105AD000BFF36F8F184BD3E90267B04271EB070237
