:1000000080290020553E000077B70000293E0000FF
:10001000293E0000293E0000293E000000000000AB
:10002000000000000000000000000000A9370000F0
:10003000293E00000000000055370000293E000066
:1000400059380000E96700005938000059380000AD
:10005000593800005938000059380000593800005C
:100060005938000059380000F1BC00005938000030
:10007000593800005938000059380000593800003C
:10008000593800005938000059380000593800002C
:1000900059680000593800005938000059380000EC
:1000A000593800005938000059380000593800000C
:1000B00059380000593800005938000059380000FC
:1000C00059380000593800005938000059380000EC
:1000D00059380000593800005938000059380000DC
:1000E00053B94AB9002908BF00281CBF4FF0FF319F
:1000F0004FF0FF3000F00CB8ADF1080C6DE904CE04
:1001000000F008F8DDF804E0DDE9022304B07047F0
:10011000704700BF2DE9F04F07468C460846099E00
:1001200015463C461946002B40F0C6808242B2FA82
:1001300082F746D94FB1C7F1200E24FA0EFE00FA1D
:1001400007F3BD404EEA030CBC404FEA15481FFAC6
:1001500085FEBCFBF8F9220C08FB19C309FB0EFA5B
:1001600042EA03439A4528D9EB1809F1FF3004D23B
:100170009A4502D9A9F102002B44A3EB0A03A4B2C9
:10018000B3FBF8F208FB123302FB0EFE44EA034411
:10019000A64514D92C1902F1FF3303D2A64501D983
:1001A000931E2C44A4EB0E0443EA00401EB1FC4015
:1001B000002334607360BDE8F08F4846DDE71346E6
:1001C000F0E702B9FFDE87BB831A01214FEA154E23
:1001D000AAB2B3FBFEFC200C0EFB1C330CFB02F896
:1001E00040EA0343984563D9EB180CF1FF3004D281
:1001F000984502D9ACF102002B44A3EB0803A4B24A
:10020000B3FBFEFC0EFB1C330CFB02F244EA03447E
:10021000A2424FD92C190CF1FF3304D2A24202D9C9
:10022000ACF102032C44A41ABEE7C7F1200C20FA5B
:100230000CF800FA07F324FA0CFCBD404CEA030268
:100240004FEA154EABB2B8FBFEFC110C0EFB1C8046
:100250000CFB03F941EA0040814504FA07F423D975
:1002600028180CF1FF3104D2814502D9ACF102010A
:100270002844A0EB090092B2B0FBFEFC0EFB1C0070
:100280000CFB03F842EA004398450FD9EB180CF138
:10029000FF3204D2984502D9ACF102022B44A3EB01
:1002A000080342EA014191E76146E2E76246F6E768
:1002B0006046A2E76346B6E7834205D90EB1C6E9B8
:1002C00000700021084676E7B3FA83F181B98342D2
:1002D00001D3BA420AD8BC1A60EB030301209C4642
:1002E000002E68D0C6E9004C002164E70846F7E715
:1002F000C1F1200C8B4022FA0CF41C4302FA01F5E8
:1003000000FA01F327FA0CF220FA0CFB4FEA144929
:100310001343BBFBF9F81FFA84FE09FB18BB1A0C48
:1003200008FB0EFA42EA0B42924507FA01F73ED962
:10033000A21808F1FF3004D2924502D9A8F10200B8
:100340002244A2EB0A029BB2B2FBF9F809FB182285
:1003500008FB0EFE43EA024296452AD9A21808F18C
:10036000FF3304D2964502D9A8F10203224443EA9E
:100370000040A0FB0593A2EB0E029A42CE4698469F
:1003800002D306D14F4504D2B9EB050E63EB040846
:10039000013886B1B7EB0E0362EB080707FA0CFCD5
:1003A000CB404CEA0303CF40C6E900379CE7404608
:1003B000C7E74346DBE73146FDE6000070B5174B63
:1003C000174E1B79F479052B86B0054601D102F052
:1003D000FFFB28461E210AF0D3FA051E0ADA114B4C
:1003E0000593022304931048002304AA4FF482517A
:1003F0000BF02CF9EDB25DB144F00103F2799A42B1
:1004000009D0F371094806B0BDE8704009F07EBB21
:1004100004F0FE03F2E706B070BD00BF640A0020DE
:10042000000A002034CE000040CA0000A4010020D1
:1004300070B5174B174E1B79F479052B86B005461E
:1004400001D102F0C5FB284608210AF099FA051EE1
:100450000ADA114B0593022304931048002304AADF
:100460004FF482510BF0F2F8EDB25DB144F00203AB
:10047000F2799A4209D0F371094806B0BDE870409C
:1004800009F044BB04F0FD03F2E706B070BD00BF05
:10049000640A0020000A00204CCE000040CA000080
:1004A000A401002070B5174B174E1B79F479052B6A
:1004B00086B0054601D102F08BFB28461D210AF0CB
:1004C0005FFA051E0ADA114B0593022304931048C4
:1004D000002304AA4FF482510BF0B8F8EDB25DB1DD
:1004E00044F00403F2799A4209D0F371094806B046
:1004F000BDE8704009F00ABB04F0FB03F2E706B068
:1005000070BD00BF640A0020000A002064CE000015
:1005100040CA0000A401002070B5174B174E1B798C
:10052000F479052B86B0054601D102F051FB28462F
:1005300003210AF025FA051E0ADA114B059302235E
:1005400004931048002304AA4FF482510BF07EF864
:10055000EDB25DB144F00803F2799A4209D0F3712B
:10056000094806B0BDE8704009F0D0BA04F0F703BE
:10057000F2E706B070BD00BF640A0020000A002048
:100580007CCE000040CA0000A401002070B5174BCB
:10059000174E1B79F479052B86B0054601D102F080
:1005A00017FB28461C210AF0EBF9051E0ADA114B4D
:1005B0000593022304931048002304AA4FF48251A8
:1005C0000BF044F8EDB25DB144F01003F2799A42B9
:1005D00009D0F371094806B0BDE8704009F096BA39
:1005E00004F0EF03F2E706B070BD00BF640A00201C
:1005F000000A002094CE000040CA0000A4010020A0
:100600002DE9F0470568067900AF04469046284674
:100610000BF074FD034688B929684948E94688B05B
:100620006A46C2E9050102211177464942F8101FC6
:1006300045484FF4D2510BF009F8CD46B4F806A066
:10064000206821794AF48032D0F810E0D0F8089080
:10065000012303FA01FCDEF800301AF0010F14BF89
:100660004CEA030323EA0C03CEF80030D9F800303B
:100670009847002815DA2B683449E9468AB06A465B
:10068000C2E90513022382F82430314BC2E9076026
:1006900042F8103F2C4800234FF429510AF0D6FFAE
:1006A000CD46314628460AF06BF9002815DA2B684A
:1006B0002849E9468AB06A46C2E90513022382F84E
:1006C0002430234BC2E9076042F8103F1E48002344
:1006D0004FF429510AF0BAFFCD461F4BC8F8043039
:1006E000012202FA06F3C8F80830AB68DB6913B1DF
:1006F0004146284698472068217983684FF0A072C8
:100700009C694FF0C063A047002815DA2B68134995
:100710006C468AB06A46C2E90513022382F8243087
:100720000B4BC2E9076042F8103F074800234FF423
:1007300029510AF08BFFA546BD46BDE8F08700BFF2
:10074000ACCE00000300000140CA0000C6CE00008D
:1007500005000001F4CE0000BD03000029CF000019
:1007600010B50F4C0F4910482246FFF749FF04F11E
:100770000C020E490E48FFF743FF04F118020D4921
:100780000D48FFF73DFF04F124020C490C48FFF728
:1007900037FF0C480C4904F13002FFF731FF10BD60
:1007A000100A0020BD03000048CB00003104000007
:1007B00058CB0000A504000050CB00001905000034
:1007C00040CB000038CB00008D050000B0B50378A9
:1007D00000AF0446032B30D8DFE803F003202202E9
:1007E000FEE7174800F0D0F86D46164B88B06A4611
:1007F000C2E90530032342F8103F134800234FF4A9
:10080000C2510AF023FFAD4600214FF4004009F029
:100810000BFE0E4800F074F8FFF7A2FF02232370CE
:100820000B4D074C4FF0FF324FF0FF33284609F0D5
:100830008DF9204600F0E4F8F4E7BD46B0BD00BFF6
:10084000640A00206DCF000030CA0000580A002062
:10085000A401002008B54FF40040002109F0E4FD98
:10086000044800230370FFF7B1FF0021212009F0A5
:10087000DBFDFAE7DA19002080B50B4B0B491B684A
:1008800000AF88B06A46C2E9051302231377084B0C
:1008900042F8103F074800234FF4D2510AF0D6FE29
:1008A0000020BD4680BD00BFD8C8000080CF00003A
:1008B0000300000188CA000008B505480BF01EFCC3
:1008C00018B9BDE80840FFF7D7BF014808BD00BF11
:1008D000D8C8000038B504460AF066F820460AF089
:1008E00067F8054D287220460AF06CF868720348D4
:1008F000BDE8384009F00AB9000A0020A401002030
:1009000070B58AB00446FFF7D7FF0123ADF8043075
:1009100001AB636020603926ADF806600AF044F848
:100920000023CDE90233206883681D681DB102AB46
:100930000F223146A84720684FF4C8610AF04CF8EE
:10094000D4E9000183689B6863B9094B09930223CA
:1009500008930848002308AA4FF482510AF076FE53
:100960000AB070BD044A98470028F9D0EDE700BFEF
:10097000D4CF000088CA0000D5080000014B1871D0
:10098000704700BF640A002010B5044686B01648C0
:1009900008F038FD0346206048B9144A0592022247
:1009A0000492134804AA4FF482510AF04FFE1149F1
:1009B00020680023342203F061FD20680AF049FF1B
:1009C0000D4802F03DF960B10C4B059302230493EE
:1009D0000748002304AA4FF482510AF037FE4FF073
:1009E000FF3006B010BD00BF06D000000CD00000E4
:1009F000B0CA000034D000007D0900001CD0000007
:100A0000024900680023042203F04EBD070A0020BB
:100A10002DE9F04F8DB01F46169B0292009302F015
:100A20000403C2F3C2020193531C820705460E461B
:100A3000049340F02182041D002840F0208201F040
:100A40000706341DC6F108064FF0000A4FF00408EF
:100A50007B1ECDF80CA05246D146414605B1276019
:100A60000498002807DCCB488742C0F04181CA487F
:100A7000874280F03D81029810F0020E00F0518113
:100A80004FF0010C601BBEF1000F00F03781B0F594
:100A9000007FC0F033816FF01500FEE0B9F1000F68
:100AA00008D1252840F041814FF001094FF004089A
:100AB00041463AE12B2825D81F2802D84FF00009DB
:100AC00033E1A0F1200CBCF10B0FF7D80FF2040EAC
:100AD0005EF82CF02B0D0000BD0A0000BD0A0000DE
:100AE0002B0D0000BD0A0000BD0A0000BD0A000079
:100AF000BD0A0000BD0A0000BD0A0000BB0C0000DA
:100B00002B0D0000A0F12D0C5FFA8CFEBEF14D0FF5
:100B1000D4D8BCF14D0FD1D80FF2040E5EF82CF0F2
:100B20002B0D00002B0D0000BD0A00002B0D000056
:100B30002B0D00002B0D00002B0D00002B0D0000D5
:100B40002B0D00002B0D00002B0D00002B0D0000C5
:100B50002B0D0000BD0A0000BD0A0000BD0A000008
:100B6000BD0A0000BD0A0000BD0A0000BD0A000069
:100B7000770C0000BD0A0000BD0A0000BD0A00009D
:100B8000770C0000770C0000770C0000BD0A000015
:100B9000BD0A0000BD0A0000BD0A00002B0D0000C8
:100BA000BD0A0000BD0A0000BD0A0000BD0A000029
:100BB000BD0A0000BD0A0000BD0A0000BD0A000019
:100BC000BD0A0000BD0A0000BD0A0000590C00006B
:100BD000BD0A0000BD0A0000BD0A0000BD0A0000F9
:100BE000BD0A0000BD0A0000BD0A0000BD0A0000E9
:100BF000770C0000BD0A0000590C0000590C0000E1
:100C0000770C0000770C0000770C00002B0D000023
:100C1000590C0000AB0C0000BD0A00002B0D0000B9
:100C2000BD0A0000B10C0000590C0000B10C00001E
:100C3000BD0A0000BD0A0000B10C0000AD0A0000B2
:100C4000590C0000BD0A0000BD0A0000590C00004C
:100C5000BD0A0000AD0A000013F801CCBCF16C0F16
:100C600029D113F8021C6C294FF000093DD04FF038
:100C70000408414621E0009800F1070B2BF0070023
:100C8000F0E802890734009024F0070455B1059874
:100C90002044B04204D96FF01B000DB0BDE8F08FC6
:100CA000C4E9008908344FF000094FF00808FFE656
:100CB0004FF00009DBE74FF00009013C4444C8F164
:100CC000000C04EA0C0425B1A1EB050CA444B445C6
:100CD000E1D8732852D10498DDF800B001385BF8F0
:100CE000047B0490CDF800B0B8E64FF00808C0E7E8
:100CF00002984FF0000C00F0020EC3E60F2A3FF6F8
:100D0000CAAE45B30DF1300EC0F387009644BCF176
:100D1000000F1AD060F07F000EF8100C0AF1010AE3
:100D20000132C5F108000434059013F8010F0028C2
:100D30007FF4B4AE611BB1F5806FBFF4ACAE002D93
:100D40003ED1A6F108046018A7E70EF8100C03982E
:100D500001300390E4E7BCF1000F01D1019808B124
:100D60000136DDE73846CDE9061205930AF017FD96
:100D70000236DDE90612059B0644D1E704290DD1B0
:100D8000009800F1040C0DB1006820600434CDF827
:100D900000C0CAE7B8C7000058F2000008297FF475
:100DA0007AAE0098073020F0070000F1080CCDF86B
:100DB00000C01DB1D0E900BCC4E900BC0834B4E7F0
:100DC000019B2860890829709DF80C10A3B16870F8
:100DD000E97085F802A0BAF1000F06D008A84FF01C
:100DE000000CC5F1010E62450AD10DF1200808EB97
:100DF0000209C5F1010B39E0019B6970EB70E8E76E
:100E000010F8011B0B0608D504EB0E08B04501F0E5
:100E10007F013FF640AF04F8011B0CF1010CE2E743
:100E2000BAF1000F03D098F90020002A1CDB019BC7
:100E300003BB98F8002055F8227045F82230384658
:100E40000AF0ADFC421C04EB0B011144B1423FF629
:100E500022AF98F8001004F8011B39462046009292
:100E60000AF0B9FC009A144408F10108C145D7D131
:100E7000601B12E70022E6E76FF00D000DE707297F
:100E80003FF6E2AD07E700BF2DE9F04F8BB0064615
:100E9000DDF850B0049314460F46B1B1B57805950E
:100EA00035BBAA46F378019313B11BF0020F22D190
:100EB000BAF1000F1FD124B13A46314620460AF05C
:100EC0008AFC38460BB0BDE8F08F90F80190B578F9
:100ED000007805EB800535448A46CA45DED20135E7
:100EE00028460AF05CFC013005440AF1010AF4E7E7
:100EF0000BF0010AD6E796F800904FEA89030393B6
:100F000006EB8909002C5BD1BAF1000F32D04D44B9
:100F10004D451DD1A946DDF804A0DFF804C2814982
:100F20000BF005084D46CA440BF00202AA45C8D092
:100F300015F8010B56F82000604524D3884222D2D0
:100F40001BF0010F39D1B8F1000FEFD1013FEDE7F0
:100F500019F8013B56F823000AF021FC159B0130DB
:100F600033B1169B9C423EBF159B23F814000134FD
:100F70000744CDE72DB11BF00404CCD0A94454465E
:100F8000C9E72C46C7E7002AD0D04FF000090192EC
:100F90000AF005FC159BDFF888C1019A6149013010
:100FA00033B1169B9C423EBF159B23F814000134BD
:100FB0000744B9F1000FB9D0C5E74FF00109E6E7E2
:100FC000039A314620460AF006FC039BE31802937D
:100FD000BAF1000F0AD049462A4606A80AF0FBFBE0
:100FE0000023A370A944DDF808800DE0BDB11BF01B
:100FF000040F14D02A46494602980AF0ECFB029BE3
:10100000A94403EB05085546019B0BF0020E0BF0BB
:1010100001004A4609EB030C0BF0040B25E0002508
:10102000A570E0E712F8013BDFF8F4A056F82310B2
:10103000514503D3DFF8ECA0514505D3BEF1000FB5
:1010400003D108F8013B10E038B10DF1280A691C02
:10105000554405F8103CCDB207E0BBF1000F04D0B9
:1010600008F8013BA3780133A3709445DAD1637883
:10107000019A2B446370029BA8EB030BA378ABEBA4
:10108000030B059B84F803B01344FF1A039BFF1A5C
:10109000019B40463A4609EB0301B8440AF09BFB2A
:1010A000A8EB0400002D3FF40DAF049B1C1AA542D1
:1010B00002D36FF01B0005E74FF0000906AB159A4D
:1010C00013F8093056F82310C2B132F81970C2462D
:1010D00004F1FF3B0AF8013B97B13A4650460AF04B
:1010E0007AFB09F101094D45ABEB07040AEB070850
:1010F000E4DC049B1F44A7EB0B00E3E6159FE6E747
:10110000013901239C42D4D011F8012F08F80320A3
:10111000581C12B91F1EE4DACBE70346F2E700BF02
:10112000B8C7000058F20000014B1860704700BFBC
:101130000000002030B585B0CDE90101044600254E
:1011400001A90548039500F0E9F8DDE9023098426D
:10115000B8BF255405B030BD8DAA00002DE9F84F69
:10116000B0F8189019F00808044693460DD00129EC
:101170000CBF49F0100949F02009A0F818908BF332
:101180001188BFF36F8FBDE8F88F09F007090229B6
:1011900007D1204609F0C1FC0028F0D00128238B9C
:1011A0004ED16769218B002F15DA256821F00701E0
:1011B000C4E9008841F0010121830026218B01F060
:1011C000070ACA4502D0A368002B5AD10DB9002ED8
:1011D00071D0002356E001F007035A1F012A1ED8E0
:1011E00021F00701062B256889B2C4E900880AD1DD
:1011F0003DB1638B2A46126801339BB2002AFAD1B3
:10120000638341F002012183204609F086FC0646F3
:101210000028D3D0238B43F020032383CDE7042B76
:101220000CD121F0070189B22183204609F075FC19
:1012300005460028C1D041F0200121830025BCE7EC
:10124000032809D1226923F00703166843F0060337
:10125000238300252F46B1E7042806D1226923F015
:101260000703566843F00403F2E7052806D1226914
:1012700023F00703966843F00503E9E700252E46AF
:10128000E8E7012341F0080121838BF31188BFF3C4
:101290006F8FFBB985BB16B11F492046B0474FF091
:1012A0002003EFF3118B83F31288BFF36F8F238B2F
:1012B00023F008032383238BDA0625D523F01003BC
:1012C00023830121B4F8189009F0070900297FF45D
:1012D0005EAF54E7A1680029DCD0D1F80090D1F8C6
:1012E00004B03B4652462046D847B9F1000FD1D052
:1012F0004946D9F80090F2E729463B465246204637
:101300002D6809F026FCC5E713F020011EBF23F06D
:10131000200323830221D5E77FAB00002DE9F04FA6
:1013200091B08B46029092461C4600259AF8000028
:1013300008B928465FE325280AF1010707D0029B78
:10134000594698470028C0F25683013512E2182208
:1013500000210AA80AF04AFA9AF80130252B78D021
:1013600000221046964694461646394617F8013B29
:101370002B2B00F09D8000F29480202B00F09B80AE
:10138000232B00F09B802EB19DF8306046F00406C0
:101390008DF83060BCF1000F05D09DF8306046F04C
:1013A00008068DF83060BEF1000F05D09DF8306062
:1013B00046F010068DF8306028B19DF8300040F0FE
:1013C00020008DF830002AB19DF8302042F0400214
:1013D0008DF830209DF8302002F04400442803D1DD
:1013E0006FF386128DF830209DF830202A2B42F0C2
:1013F00080028DF830207BD19DF8312042F001022F
:101400004B1C8DF831201A782E2A9DF831200CBF04
:101410000121002161F341028DF8312074D15A7805
:101420002A2A6AD0013300210A26184610F8012B17
:10143000A2F13007092F40F28E809DF830200E91E6
:10144000C2F3400040EAD17161F341028DF83020CF
:101450005AE00AF102078DF833309DF83130D90790
:1014600040F1498154F8049BB9F1000F07DA9DF867
:10147000302042F004028DF83020C9F100095A07EB
:1014800040F1428154F8048BB8F1000F80F24181A1
:101490009DF831306FF341038DF831304FF0FF3854
:1014A00037E12D2B0CD0302B7FF46DAF01225CE7A0
:1014B0004FF0010C59E74FF0010E56E7012054E7B9
:1014C000012652E70CFB0202303A33461E4616F85C
:1014D000010BA0F13007092FF4D9994293D09DF860
:1014E00030100D92D20F62F341018DF830108AE76F
:1014F0000B4600224FF00A0CE8E79DF8312042F03D
:1015000004028DF8312002331F4617F8012B6C2A94
:1015100041D025D8682A2BD06A2A46D04C2A4CD0F4
:101520001F4617F8012B9DF831308DF83320782AAB
:1015300000F2D980572A4DD8412A03D0453A022AD1
:1015400000F2D1809DF83230042262F302038DF85C
:10155000323001239EE006FB01213039034664E767
:10156000742A26D07A2ADBD19DF8313006220DE08C
:101570005A78682A9DF8312006D1012161F3C6020C
:101580008DF831209F1CCCE71346022262F3C6037C
:101590008DF83130C5E75A786C2A9DF8312001D199
:1015A0000421EBE713460322F0E79DF831300522D2
:1015B000ECE79DF831300722E8E7BDF8303023F43E
:1015C000F04323F0020343F4804343F00203ADF8F9
:1015D0003030A6E7A2F15801202900F2848001A052
:1015E00050F821F0A9160000E7160000E7160000E9
:1015F000E7160000E7160000E7160000E7160000F7
:10160000E7160000E716000045150000E716000089
:10161000A9160000691600004515000045150000D8
:1016200045150000E716000069160000E7160000E7
:10163000E7160000E7160000E7160000B1160000EC
:10164000A9160000CD160000E7160000E7160000FE
:10165000CD160000E7160000A9160000E7160000EE
:10166000E7160000A91600009DF83210012003F0D3
:10167000780360F30201402B8DF8321002BF9DF811
:10168000301041F001018DF83010632A31D1003B58
:1016900018BF01239DF83020C2F340010B4363F3D0
:1016A00041028DF83020D8E69DF832100220DEE7A6
:1016B0009DF8322003F07803A3F14000032161F389
:1016C000020243428DF832204341E3E79DF8322085
:1016D000032113F0780F61F302028DF8322014BF5A
:1016E00001230023D6E79DF8303043F001038DF845
:1016F00030300023CEE79DF93020002AB4BFDDF85A
:1017000034904FF0FF39BAE69B077FF5C7AEDDF89E
:1017100038809DF831100023CDE90D339DF832302B
:1017200003F00703012BC1F3C30138D1CB1E042BF7
:1017300022D8DFE803F003090921210054F8043B13
:10174000DA17CDE90A3206E0073424F00704F4E89A
:101750000223CDE90A239DF8303013F0030656D05A
:1017600002983B465246594609F0D9FC0028C0F27F
:1017700042810544BA46D9E554F8043B01294FEAB1
:10178000E372CDE90A3205D19DF828300A9300238F
:101790000B93E0E70229DED1BDF92830D0E7022B18
:1017A00023D1CB1E042B13D8DFE803F0030A0A125F
:1017B000120022680A920023201D0B930446CAE7F8
:1017C000E01D20F00700F0E80223CDE90A23F5E749
:1017D00054F8043B0A9301294FF000030B93D3D034
:1017E0000229B8D1BDF82830D0E7042B09D1E31D78
:1017F00023F0070303F10804D3E90023CDE90A230A
:10180000A9E7032B04BF54F8043B0A93A3E79DF810
:1018100033007828AED8622822D825283FF48FAD2F
:101820005828A7D10DF126030093DDE90A0104AB86
:101830000CAA09F02EFC8246B8F1000F0DF126002B
:101840000CDB9DF83020A0EB0A036FF3861298455D
:101850008DF8302002D9A8EB03030D9380463DE0BC
:101860006338152886D801A252F820F0ED18000040
:10187000511900007517000075170000751700005A
:10188000751700005119000075170000751700004A
:101890007517000075170000AB19000079190000DA
:1018A0007D1900007517000075170000C5180000AD
:1018B00075170000791900007517000075170000F2
:1018C00079190000B8F1000FDDF828A00ADB4146C5
:1018D000504609F06BFF0AEB00080026BAF1000F32
:1018E0000CD147E7504609F05AFFF4E70A9B8DF800
:1018F000103000260DF1100A0DF11108A8EB0A03B3
:1019000006B101339DF83220D00668D50233520665
:101910000D9948BF0E9A0B4448BF9B18B9F1000FB0
:1019200076DD9DF83020A9EB0309C2F38003039311
:1019300053076DD4500661D546B1029B59463046D7
:101940009847002857DB039B01351E46302356E09D
:101950001E070FD413F0100618BF2026DDE90A2356
:10196000002BBFF65FAF524263EB4303CDE90A237E
:101970002D2657E72B26F1E7002653E70A9840B3B8
:101980000DF1260300930CAA04AB002109F081FBA2
:10199000BDF8323003F0EF0343F4F04343F010039B
:1019A0008246ADF83230002646E70A9B07293FF60B
:1019B000E1AEDFE801F00C04060C08080C0C1D7009
:1019C000D8E61D80D6E6EA17C3E90052D2E61D60CC
:1019D000D0E6DFF8C8A006460AF105088EE7110731
:1019E00048BF013393E7184603935946029B984733
:1019F0000028039B04DA11B0BDE8F08F20234D448A
:101A00004A46002AA5EB090109F1FF39EBDC0D4636
:101A100036B1029B5946304698470028EBDB01352A
:101A20009DF83230D90601D41A0706D5029B5946D3
:101A3000302098470028DEDB01359DF83230DB0688
:101A400007D59DF83300029B594698470028D2DB02
:101A500001350D9E2E44731B002B16DC0298434665
:101A60005246594609F05BFB0028C4DB0544A944F3
:101A7000A9EB0503002B7FF77DAE029B5946202082
:101A800098470028B7DB0135F2E7029B5946302022
:101A900098470028AFDB0135DDE700BF68D00000C4
:101AA00030B51049104889B000220AF0E7FD0F4D0B
:101AB0000F4900220023CDE9062300240E23CDE99F
:101AC0000334CDE901440B4B00944FF44072284697
:101AD00007F08AFE084928460AF04DFB204609B067
:101AE00030BD00BFFD1A000070060020A8060020CF
:101AF000401E0020211D00006ED00000014808F0AB
:101B000005B800BF94010020014B53F82000704736
:101B100060CB000070B5124BBFF35B8F53E8005FE2
:101B20006A1C43E800210029F8D1BFF35B8F2DB96F
:101B30000C4C0D4E361B3611B54200DB70BD237BBD
:101B400053B123689B690BB1204698476368042210
:101B50001968204600F092F901351034ECE700BF17
:101B6000740A0020E0CA0000F0CA000010B5044C5E
:101B7000237813B9034807F0C9FF0123237010BD70
:101B8000E1190020940100200C4BBFF35B8F53E858
:101B9000002F013243E800210029F8D1BFF35B8F09
:101BA00058B1BFF35B8F064B53E8002F013A43E86F
:101BB00000210029F8D1BFF35B8F7047700A002025
:101BC0006C0A00200020064BBFF35B8F024653E8EF
:101BD000000F43E800210029F9D1BFF35B8F704764
:101BE000700A0020F8B5FFF7EDFF0A4C0A4D2D1BD7
:101BF00007462D110026AE4200DBF8BD63685B7915
:101C00002BB123681B6913B139462046984701362A
:101C10001034F0E7E0CA0000F0CA000001490248B1
:101C200009F048BB6CCB0000780A0020084A08B5D0
:101C300000231370074A1360074B084A1A604FF4D9
:101C4000004000F0FBFABDE80840FFF7E7BF00BF27
:101C5000E2190020700A0020040000205DB5000099
:101C6000014600220148002309F045BB780A002004
:101C7000014809F0D6BB00BF780A002001460148A0
:101C800009F01BBC780A0020014809F04ABC00BFDB
:101C9000780A00201D4B1B782DE9F041054603B959
:101CA00088B309F070FC064618B16DB13046FFF7F5
:101CB000E5FF2DB9164B1B68002B01DDFFF792FFE6
:101CC000BDE8F041FFF7E0BF124BBFF35B8F53E875
:101CD000002F013A43E800210029F8D1BFF35B8FC0
:101CE0000D4C0E4F3F1B3F11A846B845DEDA636826
:101CF0005B7923B1236831461B682046984708F179
:101D000001081034F1E7BDE8F08100BFE1190020BF
:101D1000700A00206C0A0020E0CA0000F0CA00002F
:101D200010B5FFF7F7FE08F099FB0C4B186030B1C7
:101D30000B4B1B68092B02DD0A4807F0E7FE094C34
:101D40000020FFF7A7FF0028FAD14FF0FF324FF035
:101D5000FF33204607F0FAFEF2E700BFB00A00208A
:101D60006C0A00209401002013B51D4BBFF35B8F5C
:101D700053E8002F511C43E800100028F8D1BFF3AE
:101D80005B8F184B1B7883B14FF02003EFF3118466
:101D900083F31288BFF36F8F0020FFF77BFF84F37C
:101DA0001188BFF36F8F02B010BD0F4B1B68002B63
:101DB000F9D052B900220023CDE900230B484FF49B
:101DC0000042002308F04CFDEDE70A2AEBD107485A
:101DD0000AF060FC064802B0BDE8104007F096BE6D
:101DE0006C0A0020E2190020B00A002070060020D2
:101DF00094010020064B10B51B6804469847214605
:101E0000A060044809F0EDFABDE81040FFF7ACBF50
:101E100004000020780A0020F8B50E4F3D7875B90F
:101E20000D4C0E4EFFF776FE361B3611B54207DB22
:101E30000020FFF72FFF0028FAD101233B70F8BDE7
:101E400063685B791BB1236820465B69984701355D
:101E50001034EBE7E2190020E0CA0000F0CA0000ED
:101E6000044A054B9B1AB1EBD30F34BF52F8310033
:101E70000020704730CA0000E0CA0000054A4368ED
:101E8000801A001101300122187119605A71FFF790
:101E90006DBE00BFE0CA00000EB403B503AB01463F
:101EA00053F8042B04480193FFF738FA02B05DF8A9
:101EB00004EB03B0704700BFC7B500002DE9F04741
:101EC0001D46089B1746DA0604460E4605D49906B9
:101ED0004CBF2A492A49FFF7DFFFDFF8A8904FF0EF
:101EE0000008A8452ADBDFF8A080DFF8A090DFF823
:101EF00094A00025BD422FD2725D49462046FFF7CF
:101F0000CBFF0135102D20D12149DFF87880DFF893
:101F100084902046FFF7C0FF0025AF4228D9725DAC
:101F2000A2F120035F2B28BF2E2249462046FFF74F
:101F3000B3FF0135102D14D1BDE8F0874946204686
:101F4000FFF7AAFF08F10108CBE76A07D2D1514693
:101F50002046FFF7A1FFCDE741462046FFF79CFF53
:101F6000CFE76B07D9D141462046FFF795FFD4E76D
:101F700041462046FFF790FFDBE700BF7BD0000023
:101F80007AD0000085D0000083D000007DD0000012
:101F900087D0000089D000002DE9F04F87B01C46A3
:101FA00001F0010305929DF84090BDF948A004930B
:101FB0000746884601F0020B01F0080609F0E7FA2F
:101FC0000246002844D03A493846FFF765FF0546E7
:101FD000BBF1000F08D018F0440F3BD13549224621
:101FE0003846FFF759FF0544049B53B1324B334940
:101FF00053F82920324B3846002A08BF1A46FFF70B
:102000004BFF3EB12F4B304953F829203846FFF79C
:1020100043FF0646BAF1000F16DB059B002B45D0A7
:10202000012303FA09F9294B294C19F0100F18BFA5
:102030001C4651469DF84400FFF712FF2146024618
:102040003846FFF729FF0644701907B0BDE8F08F46
:102050000546BDE71F4B18680028C4D01E4B4FF43F
:102060007A781B68B4FBF3F44FF46161B4FBF0F3CE
:1020700000FB134408FB04F44FF03C0CB3FBF1F2FB
:1020800001FB1231B4FBF0FEB1FBFCF300FB1E447C
:102090000CFB131108FB04F40091B4FBF0F00F49A2
:1020A000CDE901E03846FFF7F7FE9CE7084CC0E7B2
:1020B0009AD000009ED0000080CB00008ADB000098
:1020C0008CD0000094CB0000C3D0000096D000005C
:1020D00091D00000B40A0020B80A0020A7D0000068
:1020E00038B50C46E107054603D5084A0849FFF70D
:1020F000D3FEE20608D4A30628464CBF054906498C
:10210000BDE83840FFF7C8BE38BD00BF8CD0000026
:102110008ADB00007BD000007AD000002DE9FF4769
:102120000B8813F4E07F06460C469046C3F38219F1
:102130004DD00A784B68C2F3C202002B44D0254927
:102140005B1A43F3CF03CDE90123CDF80090A368D8
:10215000002241463046FFF71FFF8246254655F8CC
:10216000103BC3F3492353B11B4F1C481C492B465A
:102170003246B9F1000F08BF384608F03AFC6788CC
:10218000C7F3CB0797B12368C3F349231D44102F2E
:102190003C4628BF10242946CDF8008053462246ED
:1021A0003046FFF78BFE3F1B2544F0D1B9F1000FFD
:1021B00004D04A4641463046FFF792FF304604B00D
:1021C000BDE8F04709F0F2B94FF0FF33BBE7CA466C
:1021D000C4E700BF30CA0000FDB50000C7B500006D
:1021E0001D13000073B542F20F738B4228BF0B46DC
:1021F00005680F4A04460521684608F067FC6368D5
:102200000C495B6806460B22284609F0C2F9636850
:102210003246694628465B6809F0BBF9636806499F
:102220005B681B22284609F0B4F902B070BD00BFFC
:1022300008D9000005D10000E9D00000084A10B517
:102240000123084C13600021A04204D801B113609F
:10225000054B186010BD40085B000121F4E700BF8A
:10226000B80A002040420F00B40A00202DE9F04FC8
:1022700087B0DDE911579A46109BDDF84CB0039307
:10228000044689469046CFB3CDF800B03B462A4677
:1022900010210020CDF814B0FEF7BAFB0646039AD1
:1022A00008F0070304F0070802F11700144C4FEA86
:1022B000C80848EA83183044124B04EA462420F048
:1022C000070048EA040803EAC243800848EA030812
:1022D000FFF7C6FC044640B13FB1CDF800B03B4625
:1022E0002A4631461030FEF793FB53464246494694
:1022F000204607B0BDE8F04F09F08DB93E46CEE765
:1023000000FE07000000F87F014B01221A707047A1
:10231000F3190020014B002019607047C40A002007
:10232000024B034801221A7009F040B9F419002049
:10233000C8CB00000148FFF755BF00BFC8CB000065
:10234000064B10B518680C46FFF7DEFB2146034626
:10235000BDE8104002480F22184700BFC40A002001
:10236000C8CB0000054B1B781BB141F288300AF046
:1023700056B9A420002108F057B800BFF419002076
:102380002DE9F047DFF88C90DFF88CA080460F46EF
:10239000042499F80050CDB94FF0FF334FF0FF32CD
:1023A000504607F0C5FA3A464146284606F084FFF3
:1023B0000646504607F034FB184DFEB101232B7042
:1023C00099F800306BB93846BDE8F0873A46414687
:1023D000002006F071FF0646EEE75CB92C704FF066
:1023E000FF34002006F0E4FF0028ECD02B78002B0F
:1023F000F3D1E8E7013CFFF7B5FFF2E72B7813B123
:10240000013C04D12C702B78002BC2D1DBE7FFF705
:10241000A9FFF8E7F41900206C010020F31900204F
:102420000C4BF0B45F6A0C4E0C4BB34203D36FF00D
:102430008500F0BC70475D68BD4209D31C693CB1A2
:1024400095F802C00579AC4502D12346F0BC184787
:102450002433EAE7D40A00206C020020480200205E
:102460002DE9F047134CDFF85080DFF85090054617
:102470000E461746444503D36FF08500BDE8F0874C
:102480006268D9F824309A4212D3A36983B1907854
:102490002979884205D13A4631462846BDE8F047B9
:1024A00018475279012A03D13A46314628469847BF
:1024B0002434DFE7480200206C020020D40A002008
:1024C0002DE9F0410B4CDFF8308005460E461746EB
:1024D000444502D36FF0850009E063690BB92434E9
:1024E000F6E73A463146284698470028F7D1BDE836
:1024F000F08100BF480200206C0200200248082240
:10250000002109F073B900BF8F0B002070B50B4B91
:102510000B4CA34201D3002070BD196A1E7F00221C
:102520000439D5B2AE4201D82433F2E7013211F8B2
:1025300032508542F5D10120EEE700BF480200206D
:102540006C020020094808B50378C3F341130A332D
:1025500050F823303BB100F1080200F11001984718
:10256000C043C00F08BD1846FCE700BFD40A0020D6
:102570007FB5084B0593022304930748002304AA60
:102580004FF4825109F062F84FF0FF3007B05DF868
:1025900004FB00BF21D10000C0CA000004282DE9BF
:1025A000F047DFF8888004460E460ED1FFF7A6FFFD
:1025B000DFF87C9099F8B9305BB100F01BFE042C79
:1025C00001D0012C05D11B4D16E00528F0D00128C3
:1025D000EED0184D45451ED3154B1B6A1BB3314633
:1025E0002046BDE8F0471847D5F820A000272A7FED
:1025F000FBB29A4203D824354545F5D307E00AEBF0
:10260000C3030137187902F0DDFC0028EFDA00235C
:1026100089F8B930DDE7EB681BB132462146284620
:1026200098472435D6E7BDE8F08700BF6C0200204C
:10263000D40A00204802002073B5C4B263060D46D8
:102640008DF8074007D02046FFF760FF88B10F4B99
:1026500093F8BA0068B10D4E204665B102F014FC43
:10266000F3690BB9012004E008200DF10701984738
:10267000284602B070BD02F03FFCF369002BF1D098
:102680000DF1070109209847ECE700BFD40A0020AC
:1026900090B583B000AF83783B700379427943EA09
:1026A00002237B80C378384603F003033B7102F0BA
:1026B000B9FB10F1780F0346387814D09BB1134B57
:1026C0006C4688B06A46C2E90530032342F8103FE1
:1026D0000F4800234FF4C25108F0B8FF0020A54670
:1026E0000C37BD4690BD02F043FC10F1780F08D0C6
:1026F00038B13B7807496C4688B06A46C2E9051391
:10270000E3E7054B012083F8B900E9E746D1000073
:10271000C0CA00006AD10000D40A00202DE9F04FA1
:10272000AD4E83B0B36900AF04468846914663B9A5
:10273000207800F01F00012800F0AC80022800F093
:102740002B8138B16FF0150099E098470028EFD140
:10275000002094E094F900206378002A32DA062BF6
:10276000D9F8002010D0082B25D0002BEAD1012168
:102770005370117096F8C310002918BF022343F05C
:102780000103137002231AE063881A0A111F01293A
:10279000D8D9072AD6D8D9B2736A1C78002CD1D0E0
:1027A0005D78954203D1814200F0348101302344A9
:1027B000F3E71B7834E196F8BA3013700123C8F8B8
:1027C00000305CE0013B082BBCD801A252F823F09A
:1027D00071280000452700008728000045270000D9
:1027E000F527000045270000452700004527000089
:1027F00001280000A07802F0D9FA0028A8D0A1E7AB
:10280000658855B14FF0FF09D6F824800020CA46EC
:1028100098F800506DB9002894D0FFF76FFE6388D8
:1028200086F8BA30F369002B92D06C4903209847A0
:102830008EE798F80130042B0DD0052B0ED0022B1B
:1028400005D198F8059062884A4508BF012098F89C
:1028500000309844DCE798F803A0F8E763884B451C
:10286000F5D1BAF1000FF2D14046FFF711FFEEE7C4
:102870006388012B7FF466AF002086F8C3000C3715
:10288000BD46BDE8F08F6388012B7FF45BAF86F80F
:10289000C3305DE796F8BA30002B3FF453AF756A4A
:1028A000B4F804C020792B461A78002A3FF44AAFC6
:1028B0005978022904D193F804E0864500F2B380E8
:1028C0001344F1E710705070C8F80010D7E70D44BA
:1028D000B7E00B287FF436AF4FF0000B4FF0FF0A44
:1028E000D046D94606E06B78042B10D0052B24D0B7
:1028F0002B781D442B78002BF5D1F36913B1494691
:1029000007209847BBF1000F7FF422AF1AE795F834
:1029100002A0A28895F8038092455346E8D16188C9
:1029200088451FFA88F2E3D1072B33D83344A946F0
:1029300083F8BB204FF0010BDAE7A3885345D7D1CA
:10294000A378434521D0AB787B60184600F034FC77
:102950007B68184602F036FB10F1780FEAD07B68EE
:102960000028E7D01E49EB4688B06A46C2E9051345
:10297000032342F8103F1B4800234FF4C25108F0D4
:1029800065FEDD464FF0000BB2E72846FFF780FEFC
:102990008346ADE7A946F5E794F900206378002A5D
:1029A00022DA002B7FF4CEAE247963060AD02046CB
:1029B000FFF7ACFD00283FF4C5AE96F8BA30002B07
:1029C0003FF4C0AED9F800502046294602F0B4FAD0
:1029D00000206870D6E600BFD40A00208E0B0020CD
:1029E0008BD10000C0CA0000012B08D0032B7FF45C
:1029F000A9AE6388002B7FF4A5AE012103E06188B6
:102A000000297FF49FAEA088FFF716FE00287FF410
:102A10009FAE97E6022AC9F800307FF4CAAE5B8801
:102A2000C8F8003094E694F900306078002BBFF6C7
:102A300050AFD9F8002000283FF444AF0A287FF4B3
:102A400081AE297800293FF47DAE6B78042B7FF4AA
:102A50003EAFAB789C457FF43AAF072B96BF9B19EE
:102A6000002393F8BB3013700123D9E713B5134C3F
:102A7000237DCBB9E268A168019201AB802008F008
:102A80002AFE019AA3681344A360E3689B1AE360DB
:102A900043B93AB12369E2889A4203DD9B0601D12A
:102AA0000123237502B010BD00231A461946802069
:102AB000237502B0BDE8104002F0AABAD40A002083
:102AC00070B58AB000230D460193064600286FD1E9
:102AD000002947D108220B460DEB020108F0DDFE6C
:102AE000002804DA802002F0CFF90AB070BD354C1E
:102AF0009DF809309DF808206370BDF80A306380A6
:102B0000BDF80C302270A38004F13801BDF80E30FE
:102B1000E3801206C4E90355A160257515D4802B06
:102B20000FD9294B09930223089328482B4608AA5A
:102B30004FF4825108F08AFD802002F0A5F9284662
:102B4000D1E713B1C4E90333CFE7FFF7FBFC00285B
:102B5000C8D0E28823699A42D4BFE260E360FFF7FD
:102B600085FFC2E7174CD4E90212002A01AB05DC4D
:102B7000024608F092FE0028B7DAB3E708F08DFEAF
:102B8000002804DA802002F07FF93046ABE7019993
:102B9000A268E3680A445B1AA260E360002BA4D138
:102BA00004F13803A360FFF7CDFC0028D7D199E7E3
:102BB00080289AD1034BDA68002AD0D11B7D002BE4
:102BC000CDD192E7D40A0020ADD10000C0CA0000E8
:102BD000044B93F8C3300BB108F06EBE6FF00C00DD
:102BE000704700BFD40A0020054B064A9A62064A85
:102BF000DA62064A1A63064A58629A6100207047F0
:102C0000D40A00201D27000021240000C124000058
:102C100061240000094B10B593F8B84054B900F096
:102C2000E7F918B9BDE81040FFF7A2BCFFF7DCFFD9
:102C3000204610BD6FF07700FBE700BFD40A0020EC
:102C40002DE9F3410446354D35484FF0FF324FF042
:102C5000FF3306F06DFE95F8B860002E5BD1314869
:102C60002C62E86102F044FB02F062F8041E36DBDD
:102C700000F0E8FA041E32DB40236846ADF802306B
:102C80008DF804608DF8006002F0CCF8041E26DB9D
:102C9000802768468DF8007002F0C4F8041E1EDB21
:102CA0002149304602F010FB041E18DB1E4938464D
:102CB00002F00AFB041E12DB1C4CDFF87480444552
:102CC00014D3002002F054F9041E08DB802002F027
:102CD0004FF9041E03DB012385F8B83000241048A7
:102CE00006F09EFE204602B0BDE8F081276A00266D
:102CF000227FF3B29A4201D82434E0E707EBC30203
:102D000057F83310107902F0DFFA01360028EFD0BF
:102D10004FF0FF34E3E76FF07704E0E7D40A0020D8
:102D2000800100209D250000C12A000048020020EB
:102D30006C02002030B51F4B8BB005AA03F11005C3
:102D400018685968144603C40833AB422246F7D1C9
:102D50001B7823701022002101A808F047FD1222E1
:102D60000021154808F042FD102101A808F018FFC5
:102D700000281BDD0828B8BF0820083801AB0E4A20
:102D80001844002110F8013B0AAC04EB131403F0C3
:102D90000F0314F8144C14700AAC2344013113F8D7
:102DA000143C5370082902F10202EBD102480BB027
:102DB00030BD00BFD1D10000F51900202DE9F04F42
:102DC0008BB0044600AF00264FF0011BB2463546DB
:102DD000B046207838B97C4B02349C42F3D12C3772
:102DE000BD46BDE8F08F6378052B05D8DFE803F01A
:102DF00097040397072CA04623781C44E9E7E3785F
:102E0000002BF9D1A378E3B10AF1010A5FFA8AFA3B
:102E1000F2E76A68944200F0CE8024359D42F8D3F0
:102E20006A4B6D4688B06A46C2E90534032342F80E
:102E3000103F674800234FF4C25108F007FCAD462D
:102E400010E0644D644BE9E7002D66D1634B7B6273
:102E500002233B6200235E4807F120024FF48251B7
:102E600008F0F4FB4FF0FF30B9E7296AA07801EBD6
:102E7000C2010B79984205D001322B7F9A42F4D3DC
:102E8000574BE4E74FF00109E07894F805C000F0F3
:102E900003003875207940EA0C20788294F902000A
:102EA00000285FFA89F32ADA09F110004FF0010CCB
:102EB0000CFA00F010EA0B0F29D163F07F00387490
:102EC00007F11000C7E90131FA6001F081FFD7E98D
:102ED00002127B68D8B93A7CA27012F0800F1CBF36
:102EE0001033DBB20A714FF0010215BF02FA03F38F
:102EF00002FA09F24BEA030B4BEA020B7CE70120D2
:102F000000FA09F010EA0B0F01D13B74D8E709F180
:102F10000109B9F1100FB7D1AEE70022ADE7032EDA
:102F20002AD1FFF707FF8146A8B108F038FCF86006
:102F300088B12C4808F033FCFA68824217D02A4B3B
:102F40007B6202233B622248002307F120024FF4F8
:102F5000825108F07BFB23786FF00201E218091B15
:102F600004EB5303D14212D50136F6B244E7494689
:102F7000A01C08F030FCEEE7002EECD1B8F1000FF9
:102F80000ED11A4B7B6202233B62434663E74FF04C
:102F9000000002F8010C13F8010902F8020DE1E744
:102FA000A4EB080388F80230C3F3072388F8033042
:102FB00088F804A0D8E7AB68002B3FF425AF514652
:102FC0002046984720E700BF46020020A8D2000014
:102FD000B8CA0000480200206C020020E2D10000C4
:102FE00023D20000D1D1000040D200008BD20000DB
:102FF0007FB50A48FFF7E2FE70B1094B0593022343
:1030000004930848002304AA4FF4825108F01EFBE1
:10301000002007B05DF804FB0048FAE7C401002077
:10302000C8D20000B8CA000010B5094B00211A46EA
:103030001C78844204D15C6814B102EB811010BD8D
:103040000131042903F14003F2D10020F7E700BF6A
:10305000980B00202DE9F04383B050F8283C10F87D
:103060002C5C103300AF044611D1036950F8202CBA
:1030700013F002064ED00ABB13F0040304D11A4623
:103080001946284608F027FB002344F8283C54F84A
:10309000283C10330ED054F8186C5EB154F81C8CD8
:1030A00054F8149C09F061F800286FD03F4821467D
:1030B00009F03BF90C37BD46BDE8F08350F8241CFD
:1030C0003B1D284608F007FB98B1394B6E4688B087
:1030D0006A46C2E905300423D56142F8103F3548FD
:1030E00000234FF4015108F0B1FAB5466FF0150313
:1030F000CBE77A6854F8243C134444F8243C54F851
:10310000203C9B1A44F8203C54F81C3C134444F8DF
:103110001C3CBCE750F8241C3B1D284602F016F866
:1031200088B1234BE84688B06A46C2E905300423DB
:10313000D56142F8103F1F4833464FF4015108F063
:1031400085FAC546D2E77E6854F8243C334444F8F7
:10315000243C54F8203C9B1B44F8203C54F81C3C75
:10316000334444F81C3C002E8ED0284602F0C6F8AA
:10317000B6FBF0F303FB1066002E85D154F8203C1B
:10318000002B81D0284602F047F880E744F8180C5D
:10319000A4F1100006F0BAFC54F8283C8C3389D016
:1031A0004A4641462846B04784E700BF58090020F8
:1031B000F6D20000D8CA000010B54FF02003EFF39C
:1031C000118483F31288BFF36F8FFFF72DFF50B187
:1031D0004368103307D16FF08B03436000F12C017B
:1031E000034809F0A2F884F31188BFF36F8F10BD74
:1031F000580900202DE9F041104CDFF844800425E7
:103200006FF08B074FF02003EFF3118683F31288E2
:10321000BFF36F8F6368103305D104F12C01404672
:10322000676009F082F886F31188BFF36F8F013D64
:1032300004F14004E6D1BDE8F08100BF980B002006
:103240005809002070B50A4C0A4E00253146204628
:1032500009F062F80122A4F110001146013509F0CD
:103260001EF8042D04F14004F0D1002070BD00BF11
:10327000C40B0020553000002DE9F84305464FF0FF
:103280002003EFF3118683F31288BFF36F8F0E4B89
:103290001C689CB10D4FDFF838804FF00C09D4E961
:1032A0000132002D08BF13462BB198F8142009FBFA
:1032B00002F2B85C98472468002CF0D186F311889C
:1032C000BFF36F8FBDE8F883980C0020A00C00209E
:1032D000981900204209012300F01F0003FA00F0B2
:1032E000074BBFF35B8FC04303EB820353E8002F10
:1032F000024043E800210029F8D1BFF35B8F7047FB
:10330000AC0C002038B51A4B1C7DBFF35B8F04F06A
:103310001F0301229A40174B6109D04303EB81033D
:1033200053E8001F01EA000543E8005CBCF1000F10
:10333000F6D1BFF35B8F114213D00F4B0F4D8BB102
:103340000C236343EA18E85C517808F075FA002012
:10335000FFF792FF0C235C432A1900232B51C2E98B
:10336000013338BD83F31188BFF36F8FEFE700BFE0
:1033700098190020B00C002039B80000A00C0020E3
:103380002DE9F843324B334A1C7DBFF35B8F630951
:103390004FEA830952F823302F4EBFF35B8F04F0BE
:1033A0001F0843FA08F313F0010F07460AD101463C
:1033B000204600F069F828B107C80C2303FB04631A
:1033C00083E807000C236343F218F55C2DB920460F
:1033D000FFF780FF2846BDE8F8837B1C0FD0D2F8AA
:1033E00008C01E481E4A4FF4004500210023ECFB94
:1033F0000501FCF775FE0121381A09F0F2F806F014
:1034000093FD0120FFF738FFBFF35B8F012303FA21
:1034100008F8144B994459E8003F43EA080349E887
:103420000032002AF7D1BFF35B8F0F4B33B10C236F
:103430006343F218F05C517808F0F2F9FFF762FF8D
:103440002046FFF747FF06F03FFF0120C3E700BF1C
:1034500098190020AC0C0020A00C00203F420F0067
:1034600040420F00B00C002021B80000054BBFF314
:103470005B8F53F82000BFF35B8F003818BF01202B
:10348000704700BFB40C00202DE9F04F85B00F4607
:1034900003A900F047F8DFF88080DFF880A0441E21
:1034A00024B24FF0000B631C04D10026304605B057
:1034B000BDE8F08F039A04EB440302EB830612F895
:1034C0002300FFF7D3FF054610BB70684FF4004997
:1034D000C4462946E0FB09C152465B466046FCF7FC
:1034E000FFFD0190B068C4462946E0FB09C15B4678
:1034F00052466046FCF7F4FD094B1B68591C01D08D
:10350000834205D97A1CD1D0019B1844B842CDD949
:10351000013C24B2C7E700BF3F420F0040420F000A
:103520000800002008B9024B0B600020704700BF64
:10353000D8CB0000014910220A60704710ED00E06E
:1035400072B6404080F31188BFF36F8FBFF34F8F87
:1035500030BF62B6BFF36F8F704700BF72B649408D
:1035600081F3118820BF80F3118862B6704700BFD5
:103570002DE9F047814600AF0C4600294CD06E463D
:103580008AB06D46D1E90012A3682748A8464FF0DB
:10359000050AC5E90501C5E9072348F810AF234826
:1035A000424600234FF4215108F050F8D4E90312A9
:1035B00063691F48C5F810A0B546C5E90501AD46C9
:1035C000C5E907231948424600234FF4215108F06A
:1035D0003DF8B54688B06D46E369164AA8464FF0F7
:1035E000030AC5E9052348F810AF104842460023F6
:1035F0004FF4C25108F02AF80F4AA369C5F810A089
:10360000B546C5E90523AD460848002342464FF4B8
:10361000C25108F01BF8B5462146484605F01CFF8C
:10362000BD46BDE8F08700BF23D3000070CA00008C
:1036300052D3000081D3000090D3000043B2002B8E
:1036400008DB012200F01F0002FA00F05B09024AC9
:1036500042F82300704700BF00E100E043B2002BB6
:103660000DDB01225B0900F01F0002FA00F020339D
:10367000034A42F82300BFF34F8FBFF36F8F7047A9
:1036800000E100E0054B420900F01F0053F8222042
:10369000012303FA00F01040704700BF00E100E092
:1036A00043B2002BA8BF03F1604301F10101B8BF91
:1036B000064B4FEA4111ACBF03F5614300F00F0028
:1036C000C9B2B4BF195483F80013704714ED00E079
:1036D00008B572B6044B9A691AB100229A6108F0D3
:1036E00051FD62B608BD00BF9819002030BFFFF73A
:1036F000FDBF00BF08B5084B084A23F07F03936065
:10370000BFF34F8FBFF36F8F05F03EFF06F010FF42
:1037100000F094FB05F07CFF0000000000ED00E0ED
:10372000094A0A49936809689967094958674B68C3
:1037300043F080534B60002383F31188BFF36F8FF6
:103740009368986F704700BF98190020F8CD00006B
:1037500000ED00E012498A684FF030001044EFF3AA
:10376000098C80E8F01F202080F31288BFF36F8F50
:103770000C4F4FF00066CA698A603E60506F0023AC
:10378000536780F3118804B5104600F0F3FBBDE8E1
:10379000044002F1300090E8F01F8CF30988704774
:1037A0009819002004ED00E01EF0040F0CBFEFF3A9
:1037B0000880EFF30980816911F8021C0229FFD00B
:1037C00001B507F0D0FF01BD42F8203C009B42F854
:1037D0001C3C0A49019B42F8183C029B42F8143CED
:1037E00021F001014FF0807342F8043C42F8081CBC
:1037F0000023203A02654367704700BFF3AC000026
:10380000094A0346906870B113F1160F406E05D057
:10381000A0F120029A4205D8834203D2814228BFF8
:1038200000207047002070479819002008B5094B08
:1038300098600D46144600F09DFB204685F30988EC
:10384000002163B681F31188BFF36F8F002200233C
:1038500007F04FFA9819002001B572B60B4A90692B
:1038600000281EBF0021916108F08CFC62B6EFF3C6
:103870000580A0F110004FEAC0000549014409C9C4
:103880009847BDE801400349084700009819002007
:10389000F0C8000099380000044B9968D869884244
:1038A00003D003494FF080520A60704798190020F6
:1038B00004ED00E02DE9F04186B000AF3C4B7B61A8
:1038C00006460D463B48022407F110024FF4825190
:1038D0003C6107F057FF384B9B6ADB0409D5374B37
:1038E000344807F110024FF48251C7E9044307F04E
:1038F00049FF314B9B6A1C050AD5314B7B612D4832
:10390000022307F110024FF482513B6107F03AFFA6
:10391000294CA36A980522D52A4B7B6107F1100236
:1039200002234FF4825123483B6107F02BFFA36B26
:10393000A26A1104E84612D588B023491D486A4698
:10394000C2E90513032342F8103F4FF4C25107F0B8
:1039500019FFC5461EB1A36A23F40043A362164BA8
:103960009B6A5A050AD5194B7B611248022307F15D
:1039700010024FF482513B6107F004FF0E4B9B6A2B
:10398000DB050AD5124B7B610A48022307F11002BE
:103990004FF482513B6107F0F5FE074A936A00201D
:1039A00043F47F43183793622870BD46BDE8F08129
:1039B000BED3000070CA000000ED00E0D4D30000C8
:1039C000E5D30000F8D3000011D4000026D4000095
:1039D00041D4000010B586B0334B3448059302241F
:1039E00004AA4FF48251049407F0CCFE304B9B6A3A
:1039F0009B0108D52F4B2D4804AA4FF48251CDE9E5
:103A0000044307F0BFFE2A4B9B6ADC0109D52A4B11
:103A100005932648022304AA4FF48251049307F029
:103A2000B1FE234B9B6A180309D5244B05931F480D
:103A3000022304AA4FF48251049307F0A3FE1C4B07
:103A40009B6A590309D51E4B05931848022304AA03
:103A50004FF48251049307F095FE154B9B6A9A032D
:103A600009D5184B05931148022304AA4FF482513B
:103A7000049307F087FE0E4B9B6ADB0309D5124BBC
:103A800005930A48022304AA4FF48251049307F0D5
:103A900079FE074A936A6FEA03436FEA13430020F3
:103AA000936206B010BD00BF59D4000070CA000078
:103AB00000ED00E071D4000084D400009ED400002A
:103AC000BCD40000E1D40000FBD400002DE9F04795
:103AD00086B000AF434B7B61064688464248154698
:103AE000022407F110024FF482513C6107F04AFEB4
:103AF0003E4B9B6AD80609D53D4B3B4807F1100267
:103B00004FF48251C7E9044307F03CFE374B9B6AF0
:103B100019070AD5374B7B613348022307F110029E
:103B20004FF482513B6107F02DFE304CA36A9A0797
:103B300023D46FF0150A2D4B9B6AD8070AD52E4B5C
:103B40007B612948022307F110024FF482513B6147
:103B500007F018FE254B9A6AD10635D49A6A920767
:103B600032D40020214A936A43F0FF03936218374E
:103B700000232B70BD46BDE8F087204B7B611A48BF
:103B8000022307F110024FF482513B6107F0FAFD66
:103B9000D4F834A0A36A1B06E946CAD588B0184BEE
:103BA00011486A46C2E9053A032342F8103F4FF430
:103BB000C25107F0E7FDCD46B8F1000FBBD0A36AB4
:103BC00023F08003A362B6E75B681B05C9D53146C5
:103BD0005046FFF715FE0028C3D080F30988022065
:103BE000C0E700BF26D5000070CA000000ED00E06D
:103BF0003CD50000E5D300009DD500006FD5000046
:103C000087D500002DE9F04F764B8BB0D3F80480B8
:103C100000AF0D46C8F30804002686F31188BFF3F1
:103C20006F8F02F07F43B3F17F4F0ED102F00C0390
:103C3000082B0CD16C4BFB616C48022307F1180276
:103C40004FF48251BB6107F09DFD354603E012073A
:103C500001D4054601260023FB71E31E092B00F267
:103C6000A180DFE803F0059497919F9F9F9F9F9A03
:103C7000DFF870815E4B5D48FB614FF0020A07F18F
:103C800018024FF48251C7F818A007F07BFDD8F84E
:103C90002C404FF0000B14EA0A04E94687F807B0FD
:103CA0000BD0544BC7E906A3504807F118024FF454
:103CB000825107F067FD00240DE0D8F82C30002B6E
:103CC00025DA4D4B494807F118024FF48251C7E9F4
:103CD00006A307F057FDFB79ABB92022294607F16F
:103CE000080007F078FD7B6A002E76D0C3F3080247
:103CF00022B96FEA53236FEA43237B6207F108017D
:103D00002046FFF735FC2C37BD46BDE8F08FD8F8CC
:103D10002C305B00DFD5394B344807F118024FF4E3
:103D20008251C7E906A307F02DFDAB6933F8022CD9
:103D30004DF602739A4209D098F82830BBB1FA1DAB
:103D400001212846FFF7C2FE0446C4E788B02B686D
:103D50002B4926486A46C2E90513032342F8103F5F
:103D60004FF4C25107F00EFDCD462C68B3E798F82A
:103D7000293023B1F91D0120FFF79CFDE4E7B8F8D5
:103D80002A309BB2002BA6D0FFF724FEDCE7FA1DF9
:103D90000021D6E7F91D0020EEE71A4BFB61022354
:103DA000BB6181E7184A194B1949104818F4F87F8C
:103DB000E8468AB018BF13466A46C2E905130223D3
:103DC00082F82030103C134BD4614FF4095142F873
:103DD000103F07F0D7FCC5466DE723F4FF7323F0CF
:103DE00001038AE700ED00E0EAD5000070CA000098
:103DF00015D600002CD600004DD600005BD6000082
:103E00007AD6000096D60000D1D50000BCD50000BF
:103E1000BAD6000004000001024A536943F01003BF
:103E20005361704700ED00E0EFF30880EFF3098184
:103E300001B57246FFF7E6FE01BD00BF044800234E
:103E40002021C2180133282B82F80013F9D17047C2
:103E500000E100E0002080F31488BFF36F8F08F0CA
:103E6000A5FC00200D490860BFF34F8F0C4880F37C
:103E7000088800F02BF8202080F3118809484FF4BF
:103E80000261401880F30988EFF31480022108438F
:103E900080F31488BFF36F8FFFF72CFC94ED00E0E4
:103EA00080290020C02A00200749D1F89020002353
:103EB000C2F307221846934200D17047C1F89830E8
:103EC000C1F8A0000133F6E700ED00E008B572B6D6
:103ED000002383F31388FFF7E7FF144B4FF0FF3203
:103EE000C3F88020C3F88420C3F88820C3F88C204E
:103EF000C3F89020C3F89420C3F89820C3F89C20FE
:103F0000C3F88021C3F88421C3F88821C3F88C2129
:103F1000C3F89021C3F89421C3F89821C3F89C21D9
:103F200062B6BFF34F8FBFF36F8F08BD00E100E0B3
:103F3000084B9B6883420BD1EFF3058343B1064BDB
:103F40005A6842F080525A605A6A22F400425A6219
:103F500006F08ABA9819002000ED00E0024B034AEF
:103F60000348012100F090B80080002000000020EC
:103F7000D8CB0000426E054B203A1A60044A20213B
:103F8000C3E901121846012100F088B8D00C0020C6
:103F900000000B15F8B5DFF8B4C000AF00258D4266
:103FA0001ADA4468002C4DD0FBB104F1FF3E14EA4C
:103FB0000E0F14D0264B6C4688B06A46C2E9053510
:103FC000032342F8103F234800234FF4C25107F067
:103FD0003DFB6FF01502A5461046BD46F8BD1F2CEF
:103FE000E8D906681EEA060FE4D1202C0668D0F84E
:103FF00008E0D2B214D9B4F1004F13D8013CB4FA9E
:1040000084F4C4F11F046400072A4EEA04040BD9A7
:1040100011496C4688B06B46C3E905121A46CFE7D2
:104020000824F1E73E24EFE726F01F06164346F08A
:10403000100644F00104CCF89820CCF89C600132C2
:10404000CCF8A04001350C30A9E700BF00ED00E03E
:10405000D1D6000068CA0000F4D60000044B052247
:10406000C3F89420BFF34F8FBFF36F8F704700BF2B
:1040700000ED00E0BFF35F8F024B0022C3F89420F5
:10408000704700BF00ED00E010B5034C012322781B
:10409000FFF780FF207010BD071A002008B5094AFD
:1040A00000231278FFF776FF10F1160F03D0064BAE
:1040B0000022072800DD08BDC3F89800C3F8A0203F
:1040C0000130F6E7071A002000ED00E01449086807
:1040D000082810B521D8FFF7CDFF124C49680022FF
:1040E000904201F10C0105D10F4B1870FFF7B6FF9C
:1040F000002010BDC4F8982051F80C3C23F01F0399
:10410000134343F01003C4F89C3051F8043C43F0CF
:104110000103C4F8A0300132E2E74FF0FF30E8E7D6
:10412000E4CB000000ED00E0071A0020014B18600E
:10413000704700BF0C0000204FF08043C0B2C3F8AE
:104140001C05BFF34F8F0549054BCA6802F4E062B6
:104150001343CB60BFF34F8F00BFFDE700ED00E0DE
:104160000400FA0520B1034B800143F00103184716
:10417000704700BF30CB000080B5084B00AF88B05F
:104180006A46C2E90530032342F8103F04484FF461
:10419000C45107F05BFBBD4680BD00BF2DD70000BA
:1041A000C8CA000070B5064686B00D4601463548BF
:1041B00007F0A9FA044628B9304606B0BDE87040B9
:1041C000FFF7DABF0A2D5AD8DFE805F006112123E0
:1041D00032344059595930002B4B05932B48022358
:1041E00004AA4FF48651049307F030FB1EE0284BDD
:1041F00005932648022304AA4FF48651049307F03E
:1042000025FB002304F8043C04F8033C0EE0214B9A
:10421000E3E7214B05931D48022304AA4FF486517E
:10422000049307F013FB012304F8043C06B070BDAF
:104230001A4BDDE71A4B05931448022304AA4FF4E6
:104240008651049307F002FB0123DDE7154B0F486D
:104250000593022504AA4FF48651049507F0F6FA57
:1042600014F8033C002BE1D00F4B084804AA4FF48C
:104270008651CDE9045307F0E9FA0023C4E70B4B5C
:10428000ABE700BFF40C00204ED70000C8CA000006
:104290005BD7000071D7000082D7000094D70000E0
:1042A000A8D70000B9D70000C8D70000D5D70000B4
:1042B0002DE9F843044600AF884601792748914626
:1042C00007F02DFA0646A0B9A388254925486C4673
:1042D00088B06A46C2E90513032342F8103F4FF441
:1042E000C45107F0B3FA6FF01200A546BD46BDE811
:1042F000F88394F9003000686578002B13DA012DFB
:1043000005D0AB1E012B19D86FF08500EEE756F8EB
:10431000083C002BF8D01D68002DF5D04B464246D6
:104320002146A847E2E7092D02D0A5F10A03E9E7F3
:1043300056F8083C002BE7D05D68EDE70A4B0948CA
:104340006C4688B06A46C2E90535032342F8103F3F
:104350004FF4C25107F07AFAA546D5E7F40C0020D5
:10436000E3D70000C8CA00000AD800002DE9F047D2
:1043700090F90030002B00AF04460E46154620DAB7
:10438000038823F0E0039BB240F20162934218D10C
:1043900090F8049043881D4849464FEA132A07F0D5
:1043A000BEF988B91A4B1B486C4688B06A46C2E908
:1043B0000539032342F8103F4FF4C45107F046FA81
:1043C000A5466FF0150007E0BAF1210F07D0BAF14A
:1043D000220F11D06FF08500BD46BDE8F08703685D
:1043E000E1885B685B6813F8092F914294BF3160E4
:1043F00032602B600020EFE7E38850F80C2C9A42E3
:1044000094BF3260336050F8103CF2E7F40C0020A7
:10441000E3D70000C8CA000080B5084B00AF88B0E1
:104420006A46C2E90530032342F8103F04484FF4BE
:10443000C45107F00BFABD4680BD00BF23D8000071
:10444000C8CA000070B504460D4601460A4807F088
:1044500074F920B92046BDE87040FFF7DDBF022D9A
:1044600008D150F8083C2BB11B691BB1BDE8704066
:104470000068184770BD00BFF40C002010B5046937
:10448000A36000236361074B2061C4E900125968EF
:1044900004F1140211B9C3E9002210BD0A605A6088
:1044A000FBE700BFF40C002030B544680069057BD1
:1044B00087B045B1407B30B9206A007907B0BDE8CC
:1044C000304007F008B9074B05930748022304AAB8
:1044D0004FF48451049307F0B9F96FF00A0007B064
:1044E00030BD00BF49D80000C8CA000000F07F03FB
:1044F000082B42B204D010F0780F01D00020704792
:10450000002A00F00F0300F0080005DA58B9084847
:1045100000EB43104C30704738B9054800EB4310AE
:1045200000F5B6707047034870470348704700BFF6
:10453000FC120020481400206815002001460148A4
:1045400007F0A2BEB40100200149024807F0EDBE09
:10455000241300202807002013B50B4803F02AFC81
:1045600000240A4803F050FC4FF0FF334FF4806200
:1045700007490848009405F017FC0749074807F069
:10458000CBFE204602B010BD65DA000008CC00006A
:104590006021002028070020894900002413002002
:1045A00002480022002305F07DBA00BFB4010020BC
:1045B00010B5054CFFF7F4FF20B1011D204607F0B0
:1045C000ABFDF7E710BD00BF5001002010B588B06B
:1045D00018480022002301A905F0A6F830B3164BB5
:1045E0001648079306AA4FF482510224069407F056
:1045F0004DF9FFF7DDFF0F480022002301A905F068
:1046000093F850B10E4B0D4806AA4FF48251CDE9F4
:10461000064307F03BF900200AE0019804234060BC
:104620000374FFF78BFFFFF78FFFF4E701984060FB
:1046300008B010BD500100206AD80000D0CA0000A8
:1046400088D80000F8B58178064600AF0846FFF725
:104650004DFF0B06F478054623D594B1032C1ED0EC
:104660002A4B2B486D4688B06A46C2E905340423BC
:10467000D16142F8103F4FF4015107F007F9AD4600
:104680000DE0FFF7A3FF034648B10122AC770274A7
:10469000032202739D60FFF751FFFFF755FFBD46F0
:1046A000F8BD54B1012CDBD1FFF790FF0346002881
:1046B000F5D06C7704740473ECE7FFF787FF0028EC
:1046C000EDD0B278134B12F0800F02F0080111D038
:1046D00041B1D3F8A836EB600123037402230373BE
:1046E0008560D8E702F00F02142101FB0233D3F8F2
:1046F0000836F0E711B1D3F8A837ECE702F00F0263
:10470000142101FB0233D3F80837E4E7A4D80000F2
:10471000D0CA00000070024098B5022800AF11D83E
:10472000104B1C5CFFF752FF50B100220274047260
:10473000FFF704FF0C4B93F824300BB1FFF704FF95
:10474000BD4698BD094B6C4688B06A46C2E9053043
:10475000032342F8103F06484FF4C25107F096F881
:10476000A546EDE762DA0000FC120020D0D8000078
:10477000D0CA000010B50F49BFF35B8F01F12003D1
:10478000002253E8000F012803D143E80024002C45
:10479000F7D1BFF35B8F0BD1CC690C31204606F00B
:1047A0008CFA783004D12046BDE8104006F060BA9B
:1047B00010BD00BFFC120020F0B589B0064600AF66
:1047C0001422002107F10C0007F010F83378013BA8
:1047D000052B20D8DFE803F0970313138915032373
:1047E0003B750024FFF7F2FE0346A0B1047400F10C
:1047F0000802D7E9050182E80300184630E00423E7
:10480000EEE7B1780846FFF771FE837A05462BB1D3
:10481000013B022B65D92437BD46F0BD0B06F47869
:1048200023D594B1032CF6D0384B39486D4688B067
:104830006A46C2E905340423D16142F8103F4FF4BF
:10484000015107F023F8AD46E5E7FFF7BFFE034649
:104850000028E0D00122AC770274032202739D602D
:10486000FFF76CFEFFF770FED5E754B1012CDBD1EA
:10487000FFF7ACFE03460028CDD06C7704740473B8
:10488000EDE7FFF7A3FE04460028C4D0012303741C
:1048900002230373856005F10C01B07807F0AAFBD1
:1048A00070B11C4B6E4688B06A46C2E905300323DE
:1048B00042F8103F16484FF4C25106F0E7FFB546E4
:1048C000154AE968B2F88C328B4206D95B1AA2F815
:1048D0008C3204F03DFA2046C2E70023A2F88C3265
:1048E000F9E73046FFF7AEFE95E7381D04F00AFA07
:1048F0007B79052B03D13B7913F0600F8BD0074BED
:104900007B6101246EE702246CE700BFA4D800009D
:10491000D0CA0000EBD80000FC1200206814002070
:1049200038B5002464F07F00C0B2FFF7DFFD01342A
:1049300006F099FF082CF5D10F4D0024E0B2FFF7E7
:10494000D5FD036903B90561013406F08CFF082C1D
:1049500005F14005F2D1094C04F5A67006F083FF7D
:10496000D4F87C3213B9064BC4F87C32054806F003
:104970007AFF002038BD00BFFC100020FC12002090
:10498000FC0C0020681500202DE9F047AF4CDFF843
:10499000C09286B0804600AFFFF702FE064618B907
:1049A0001837BD46BDE8F08794F82520337C06F122
:1049B000040A3AB9002B00F0AD805146484607F092
:1049C000ABFBE9E7042B00F29781DFE813F0A300CB
:1049D0000500280153017A0118F8043C83B9B36833
:1049E0009C495B7A9C486D4688B06A46C2E90513CB
:1049F000032342F8103F4FF4C25106F047FFAD4683
:104A0000337BB568032BD8D8DFE803F0023D6C7127
:104A10006E6908220021304606F0E8FE8F4B904870
:104A2000D3F880243270D3F884247270D3F88824A9
:104A3000D3F88C1442EA01227280D3F89024D3F880
:104A4000941442EA0122B280D3F89824D3F89C341B
:104A500042EA03230822F3803146EA6006F0BBFEF7
:104A60002B68687A0021984796F90030002B06DB06
:104A7000F38823B1A4F88C3204F06AF99DE700238F
:104A8000A4F88C3299E76B7F002B96D02B7F002BFC
:104A900093D0002673486E774FF0FF324FF0FF330C
:104AA0002E7706F0F6FE6B693B606B68C7E901364E
:104AB0003946687A03F05CFF6B4B98420ED06B4B23
:104AC0006D4688B06A46C2E90530032342F8103FBC
:104AD00061484FF4C25106F0D9FEAD46614806F078
:104AE000DAFE6AE72B680121687A984765E7AB7AB6
:104AF0006BB9EB7F5BB95B484FF0FF324FF0FF3390
:104B000006F0C7FE04F058F9564806F0C4FE2B68BC
:104B10000221E9E7337A042B3FF64FAFDFE803F0D9
:104B20005B032569750003F0B1FE054600287FF49C
:104B300044AF03F045FEBFF35B8F4D49012351E8BD
:104B4000002F002A03D141E800300028F7D1BFF33D
:104B50005B8F7FF432AF41F8105C41F8085CE0698C
:104B60006361143906F03BF827E7002565F07F0004
:104B7000C0B2FFF7BBFC037A13B1407A04F00AFB22
:104B80000135082DF2D194F854311BB194F8550138
:104B900004F000FB0025E8B2FFF7A8FC037A13B18C
:104BA000407A04F0F7FA0135082DF4D194F8743204
:104BB0001BB194F8750204F0EDFA012003F048FEF1
:104BC000012384F825302368002B3FF4F6AE002142
:104BD00002209847F1E6002584F8255004F064FA95
:104BE000FFF7C8FD2368002B3FF4E7AE29460420F9
:104BF000EFE7002A3FF4E1AE04F070FA2368002BDF
:104C00003FF4DBAE00210520E3E72368002B3FF4EF
:104C1000D4AE002A3FF4D1AE00210620D9E708F136
:104C200010054FF0FF334FF0FF32284606F031FEFB
:104C3000FFF776FE284606F02EFE58F8283C002B9B
:104C40003FF4BBAE00210120C3E700BFFC120020EF
:104C5000500100200BD90000D0CA000000700240B3
:104C600000130020341300200000AD0B31D90000E8
:104C70001C13002094F8743293B1012584F88952F2
:104C800084F88852FFF7A2FC90B9234B7B6123483C
:104C9000022307F110024FF482513B6106F0F6FD4A
:104CA00058F8283C002B3FF488AE00210A2090E7FA
:104CB0001B4A057405738260FFF740FCFFF744FC54
:104CC000EEE7184B15487B6107F1100202234FF401
:104CD00082513B6106F0DAFD07F0EDF804F0E4F9EB
:104CE00003F064FDFFF764FCFFF71AFE07F0DCF841
:104CF0000D4803F0F7FD60E60C4908486D4688B0A2
:104D00006A46C2E90513032342F8103F4FF4C2512B
:104D100006F0BCFDAD4650E657D90000D0CA0000F1
:104D2000681500206BD90000B947000082D9000047
:104D300038B51A4D95F824405CBB05F1380007F0F2
:104D400030FA204600F0ECFB2246E86101212720E2
:104D5000FEF7A6FC124803F0C5FD124B98421AD18B
:104D600007F0A2F8FFF7DCFD044610B9012385F82F
:104D700024300D4B1B680BB1FFF7E6FB4FF080436F
:104D8000D3F83834DB0702D50020FFF7C5FC2046F6
:104D900038BD0024FBE76FF00404F8E7FC120020A4
:104DA000B94700000000AD0BB4010020074B93F899
:104DB00024203AB193F82530002B0CBF6FF012007D
:104DC000002070476FF01200704700BFFC120020F7
:104DD0007FB502460378127903F00F007AB958B113
:104DE0000D4B0E48059304AA02234FF482510493FD
:104DF00006F04CFD4FF0FF3007B05DF804FB0828CB
:104E000001D9074BEDE7012A06BF83F0080040F304
:104E1000C0000020F0E700BF99D90000D0CA000010
:104E2000B8D9000010B5154B93F8243086B0014670
:104E30000BB304782046FFF759FB98B144720B7905
:104E400083724988416023070FD44B1E0B420CD05C
:104E50000B4B05930B48022304AA4FF48251049391
:104E600006F014FD6FF0150003E0204607F0BDF8D2
:104E7000002006B010BD6FF01200FAE7FC1200200F
:104E8000D7D90000D0CA000010B5184B93F82420E1
:104E900086B001463AB393F8253023B3FFF726FBDB
:104EA0000446E8B1837A012B10D008D9023B012BCC
:104EB00008D96369A3610020E06006B010BD03F06B
:104EC00083FFF6E7084603F0EFFEF2E7084B059391
:104ED0000848022304AA4FF48251049306F0D6FC3A
:104EE0006FF01500E9E76FF01200E6E7FC12002012
:104EF000FFD90000D0CA000038B50E4B93F824202B
:104F0000054682B193F825306BB1FFF7EFFA68B12F
:104F100015F008040AD1284603F0E8FE284604F0FC
:104F20008BF9204638BD6FF01200FBE76FF01500DB
:104F3000F8E700BFFC12002038B50C4B93F8242092
:104F400005460C4662B193F825304BB1FFF7CEFA17
:104F500048B141B1284603F0AFFE2070002038BDB3
:104F60006FF01200FBE76FF01500F8E7FC1200206D
:104F7000F8B5134F97F824300446BBB1FFF7B6FAE3
:104F80000546B0B1230705D4204603F0AFFE204606
:104F900004F052F92E7A7EB997F8250001232B727E
:104FA00018B1204604F0F6F83046F8BD6FF0120054
:104FB000FBE76FF01500F8E76FF07700F5E700BF4B
:104FC000FC12002038B5114B93F8242001469AB109
:104FD00093F8253083B1FFF789FA054678B1037A53
:104FE00083B10846002404F0A9F82846AC7706F0FF
:104FF0003AFC2C72204638BD6FF01200FBE76FF0D0
:105000001500F8E76FF07700F5E700BFFC1200200D
:105010002DE9F047DFF81C9184B01C4699F8243044
:1050200000AF80468A461646002B7FD099F825307F
:10503000002B7BD010F0800F14D0FFF757FA0546F5
:1050400080B1037A8BB93C4B3C486C4688B06A46C9
:10505000C2E90538032342F8103F4FF4C25106F06D
:1050600015FCA5466FF015040FE04FF0FF334FF02D
:10507000FF3209F1380006F00CFCAB7F53B109F1A7
:10508000380006F008FC6FF00A0420461037BD46D1
:10509000BDE8F08716B9EB7F03B1EE77AB7ABBB909
:1050A0005EB1B9F80A309E4207D26A68B6FBF2F3E5
:1050B00002FB13630BB90123EB7703F08DFE8045F0
:1050C00006D003F079FE1E4806F0E5FB0024DCE77D
:1050D0000123AB774FF00009391D4046C7E901A60F
:1050E000C7F80C9003F044FC164B984219D085F891
:1050F0001E900CB1C4F800906C46134B88B06A4601
:10510000C2E90530032342F8103F0C484FF4C25166
:1051100006F0BCFBA5466FF00404094806F0BBFB93
:10512000B3E7002CF9D026604C46F6E76FF0120486
:10513000ABE700BFFC12002021DA0000D0CA00005B
:10514000341300200000AD0B40DA00002DE9F843D5
:105150001D462D4B904693F8242000AF81460E4605
:10516000002A4DD093F82530002B49D010F0800F45
:1051700019D111B9B8F1000F15D14846FFF7B6F9AA
:10518000044680B1037A8BB9204B21486C4688B025
:105190006A46C2E90539032342F8103F4FF4C25171
:1051A00006F074FBA5466FF0150015E04FF0FF33D5
:1051B00018484FF0FF3206F06CFBE3689845C14693
:1051C00028BF99465EB9B8F1000F08D105B12B6030
:1051D000104806F060FB0020BD46BDE8F883A169D9
:1051E0004A46304606F0F7FAA3694B44A361E368E8
:1051F000A3EB0903E360002DEAD0C5F80090E7E7D0
:105200006FF01200E8E700BFFC12002021DA000076
:10521000D0CA000034130020F8B5274D95F824308B
:1052200000AF0146002B44D095F82530002B40D02C
:10523000030614D4FFF75AF9044680B1037A8BB9F8
:105240001E4B1F486C4688B06A46C2E905310323ED
:1052500042F8103F4FF4C25106F018FBA5466FF01C
:10526000150018E04FF0FF334FF0FF3205F1380022
:1052700006F00FFBE368BBB9012663692677A361DB
:10528000637F8BB1FFF7A2F938B905F1380006F05A
:1052900002FB6FF00B00BD46F8BD06748460067318
:1052A000FFF74CF9FFF750F9064806F0F4FA002032
:1052B000F1E76FF01200EEE7FC12002021DA0000A7
:1052C000D0CA00003413002008B5084B93F82430EE
:1052D0002BB1FFF70BF928B10160002008BD6FF07A
:1052E0001200FBE76FF01500F8E700BFFC1200208A
:1052F000014B1860704700BFFC12002008B5074B37
:1053000093F8243023B1FFF7F1F820B1406808BDCD
:105310006FF01200FBE76FF01500F8E7FC120020B9
:10532000084B70B5C31A0D4607499B1004465943F4
:105330000648402206F0E5FA2B4601462046BDE825
:10534000704018479C150020B76DDBB648C80000B8
:1053500073B50C4C0C4A4023041B00930D460B46BE
:105360000A49A41061430646094806F0F7FA011EEF
:1053700005DA30462B4602B0BDE87040184702B04F
:1053800070BD00BF9C150020CBB90000B76DDBB627
:1053900048C80000002270B5012104461046FEF7FF
:1053A0007FF9114802F058F9104B984218D1206942
:1053B00000F0DCF902F062F926690D49304605F08B
:1053C000FBFB00280BDB246909490125356404F146
:1053D0001C0005F0F1FB002801DBE564002070BD36
:1053E0006FF00400FBE700BF295400000000AD0B84
:1053F0003CCC000001460C2309484B4370B5C4184F
:10540000D4E90E5600224033A263184406F066FA2F
:105410002DB132462B460348BDE87040184770BD99
:105420009C15002048C80000012810B504460AD089
:1054300003280CD078B9084B1B6C5B070BD1BDE877
:105440001040FFF7D7BF00F09FF92046F7E7BDE80F
:10545000104000F0A7B910BD9C15002008B54FF012
:105460002003EFF3118183F31288BFF36F8F124A89
:10547000136843F0020013F0010310600CD04FF0EA
:105480008042D2F80C34D2F80C2413F0010303D07C
:105490000A4806F023FA012381F31188BFF36F8FC6
:1054A00023B1BDE808400020FFF7A4BFBDE80840D5
:1054B000012006F0A5BC00BFEC150020DC15002083
:1054C0001FB500220123CDE90223094ACDF800D0FF
:1054D0006B46CDF804D006F071FA002805DB4FF4D6
:1054E00080420023684604F031FB05B05DF804FB00
:1054F000E3B90000094BBFF35B8F53E8002F22F0A4
:10550000020143E800100028F7D1BFF35B8FD307F7
:1055100002D4012006F0ACBC704700BFEC1500209F
:10552000024AC3B21C2003FB002070479C150020D8
:10553000F8B52849BFF35B8F0646012251E8003FCA
:1055400041E800200028F9D1BFF35B8F33B922492D
:1055500022484B60CB608A6005F041FB731E012B33
:1055600020D806F002FE044610B91D4B1B7853BB31
:105570004FF02003EFF3118583F31288BFF36F8F91
:1055800001244FF08047D7F81834D7F81824D203F5
:1055900009D59B0701D0012E05D174B185F311887F
:1055A000BFF36F8FF8BD1CB12846FDF7D7FFEAE7C0
:1055B0000021212004F038FFE5E74FF0804302226C
:1055C000C3F80423EEE74FF080430222C3F8082318
:1055D0000546D6E7F01500208C150020B8150020F0
:1055E000221E00207FB5084B059302230493074831
:1055F000002304AA4FF4825106F028F86FF012003D
:1056000007B05DF804FB00BF86DA000048CA00005E
:105610000D4BBFF35B8F012253E8001F002903D11C
:1056200043E800200028F7D1BFF35B8F0AD1074978
:105630000023CB60064B4B6003238B60054B18683F
:1056400005F0CDBA704700BFF4150020F815002012
:10565000415700000816002008B5064B06481860A0
:1056600006F04CFD18B9BDE80840FFF7BBBF0020AD
:1056700008BD00BF0C160020C0C8000007B50022FE
:105680000023CDE9002308484FF40032002305F041
:10569000E7F8064B186805F0EBFA054B00221A6094
:1056A00003B05DF804FB00BF1801002008160020BD
:1056B000F415002037B51D4D286883681C4CDB6845
:1056C0003921984770B1002323701A46217809B117
:1056D000012A20DD174A138001F0E2FF0123237025
:1056E00003B030BD286883686A461B690C2198475F
:1056F0000028E8D1104A019B93FBF2F3009A03EBD8
:1057000082030C4AB2F900201BB29A1A002AB8BFD1
:10571000524212B2DAE7094A1368013901332170A3
:10572000136003B0BDE83040FFF7A8BF0C1600209F
:10573000081A0020D819002090D003001416002069
:1057400008B5074B1B682BB901F0AAFF054B0122D6
:105750001A7008BDBDE80840034804F01FBB00BF35
:105760000C160020081A002018000020034B044AE1
:10577000186000231360034A136070470816002066
:105780001016002014160020024B00221A70FFF79A
:105790003FBF00BF081A0020014806F07BBF00BFD2
:1057A00018010020024A136801331360FFF766BF37
:1057B0001016002010B5044C2046FBF7B5FC20461F
:1057C000FEF7B4FC002010BDCD5700002DE9F341D9
:1057D000DFF85C80174E8DF80700044603254FF074
:1057E000FF334FF0FF32404604F0A2F801220DF1E2
:1057F0000701002003F0ACFD0746404604F010F915
:105800002FB101233370204602B0BDE8F081337818
:10581000002BF8D0013D08D006F0A7FC0028DED10F
:105820000021422004F000FED9E73570EBE700BF0D
:105830006C010020091A002030B54068047B01F09B
:105840001F05B2F5001F45EA441585B04FF000046E
:1058500004D1284602F0BCF900202EE0B2F5800FFA
:10586000CDE902442BD1B3F1007F0CBF0423052303
:105870008DF80830836823FA01F1C9072BD4B2F1FF
:10588000A07F28D105F01F0303F5E0734FF0A0427D
:1058900052F82330DB071ED40DF1070421462846B9
:1058A00002F0FEF8144B984214D1204602F046F95B
:1058B000124B98420ED06FF00B0005B030BDB3F123
:1058C000C06F05D0B3F1007F0CBF02230123CFE7E7
:1058D0000323CDE703940023194602AA284601F0CA
:1058E000B7FF064B984204D10121284602F02CF95B
:1058F000B2E76FF00400E0E70400AD0B0000AD0B71
:1059000010B502F00BF9044668B902F0DFF8084B55
:1059100098420AD10748214602F0BCF822460521E8
:105920000620FDF7BDFE002010BD6FF00400FBE770
:105930000000AD0B39590000430970B510D1094B77
:10594000596869B101250C68074E85408A682A406C
:1059500002D04B683046984714B121462468F5E7D9
:1059600070BD00BF1816002060C800002DE9F0438C
:1059700047683B7B01F01F0585B00E4645EA43159D
:105980001446CAB902A9284602F08AF804462846F5
:1059900002F046F94A4B984204D06FF0040005B07B
:1059A000BDE8F083844205D19DF8080002F0C0F8FC
:1059B000A042F2D10020F2E74FF000090DF10301FF
:1059C0003046CDE9029902F06BF84B46804602AAB8
:1059D0004946284601F03CFF394B984202D06FF00F
:1059E0001500DCE7804503D19DF8030002F0A0F824
:1059F000A30351D540F20663234040F206229342AE
:105A00003BD00CD8062B15D004D89BB1022BE6D185
:105A100004230FE0B3F5007FE1D101230AE040F257
:105A2000024293422BD0B3F5C06F2AD0B3F5806FFA
:105A3000D5D102238DF8043084F48033C3F30043BE
:105A4000E0068DF8053054BFC4F34013032321034F
:105A50008DF8063017D57B68012101FA06F6C3F8E8
:105A60000865002201A9284601F09CFF144B9842CA
:105A700014BF6FF01500002091E70723DAE7052334
:105A8000D8E70323D6E7620341BF7B68012101FA0F
:105A900006F6C3F80C65E4E7E3064FF0000354BFD5
:105AA000C4F3401403241A4601A928468DF8044083
:105AB00001F0CEFE024B98423FF47CAF8FE700BF6F
:105AC0000000AD0B222910B515D14FF02003EFF3E4
:105AD000118083F31288BFF36F8F084900240B688D
