:100000004038002019510000ADCA0000ED5000003A
:10001000ED500000ED500000ED5000000000000029
:10002000000000000000000000000000414A000045
:10003000ED50000000000000ED490000ED50000010
:10004000F14A000095750000F14A0000F14A0000F5
:10005000F14A0000F14A0000F14A0000F14A0000B4
:10006000F14A0000F14A000065950000F14A0000E5
:10007000F14A0000F14A0000F14A0000F14A000094
:10008000F14A0000F14A0000F14A0000F14A000084
:100090007D770000F14A0000F14A0000F14A0000BB
:1000A000F14A0000F14A0000F14A0000F14A000064
:1000B000F14A0000F14A0000F14A0000F14A000054
:1000C000F14A0000F14A0000F14A0000F14A000044
:1000D000F14A0000F14A0000F14A0000F14A000034
:1000E00053B94AB9002908BF00281CBF4FF0FF319F
:1000F0004FF0FF3000F00CB8ADF1080C6DE904CE04
:1001000000F004F9DDF804E0DDE9022304B07047F3
:10011000704700BF70B5174C6078002823D10120CC
:10012000607000F061FA6FF0270528B900F072FAEC
:1001300010B900F079FA20B10F486060A57008206E
:1001400010E000F033FA40B900F03AFA28B900F0B4
:1001500041FA10B900F052FA30B10748313060600E
:10016000A5700420E07070BD40F23F11742000F0D3
:1001700055F8000000000020D4060000064A00B533
:1001800092F90320904201DB104600BD00F008F810
:100190000249085600BD000000000020C60600000D
:1001A0000246134810B590F903309A4201DB0D2046
:1001B00010BD90F902309A4201DC002010BD01B15F
:1001C0000121D41A4368185D0A4C24569442F5D094
:1001D000084C08443F34C0B2D2B2A342EED1002949
:1001E000ECD0012A01D0022AE8D1401CC0B210BDD7
:1001F00000000020C6060000BFF34F8F05480168CD
:10020000054A01F4E06111430160BFF34F8F00BF65
:10021000FDE700000CED00E00400FA050EB572B633
:100220000F4A5568D5B1002203466E460A2403E002
:10023000B0FBF4F0521CD2B20028F9D1B05409E05E
:10024000B3FBF4F004FB1030B3FBF4F3521ED2B254
:100250003030B054002AF3D13046A847FFF7CCFF26
:1002600008000020550600008D06000077060000FB
:1002700065060000710600005F06000053060000DE
:1002800051060000890600007D0600006B06000094
:10029000590600004B060000430600004706000018
:1002A0003D060000014909688969084710000020DF
:1002B00001480068006800471000002001480068FD
:1002C0004069004710000020014A1268D2681047B8
:1002D000100000200148006800690047100000205D
:1002E000014A12689268104710000020014909680D
:1002F000496A08471000002030B4034C2468646841
:10030000A44630BC60470000100000202DE9F047F3
:1003100086468C460846089E154674461946002BAC
:1003200040F0C2808542B2FA82F245D94AB1C2F1A8
:10033000200300FA02FC2EFA03F3954043EA0C0C6A
:1003400094404FEA154EA8B2BCFBFEF8230C0EFBFE
:1003500018CC08FB00F943EA0C43994528D9EB185F
:1003600008F1FF3704D2994502D9A8F102072B44BE
:10037000A3EB0903A4B2B3FBFEFC0EFB1C330CFB86
:1003800000F044EA0344A04214D92C190CF1FF33C5
:1003900004D2A04202D9ACF102032C44241A43EA4D
:1003A00007401EB1D440002334607360BDE8F0877D
:1003B0004746DDE76346F1E792BB431B01214FEA65
:1003C000154EAFB2B3FBFEFC200C0EFB1C330CFB36
:1003D00007F840EA0343984562D9EB180CF1FF3067
:1003E00004D2984502D9ACF102002B44A3EB0803D8
:1003F000A4B2B3FBFEFC0EFB1C330CFB07F744EA74
:100400000344A7424ED92C190CF1FF3304D2A74262
:1004100002D9ACF102032C44E41B43EA0040C0E7DC
:10042000C2F1200320FA03F1954090402EFA03F325
:1004300003434FEA154EAFB2B1FBFEFC0EFB1C109E
:10044000190C0CFB07F841EA0041884504FA02F454
:1004500022D969180CF1FF3004D2884502D9ACF1D9
:1004600002002944A1EB08019BB2B1FBFEFC0EFB8C
:100470001C110CFB07F743EA01439F420ED9EB180E
:100480000CF1FF3104D29F4202D9ACF102012B449E
:10049000DB1B41EA004192E76046E3E76146F7E78C
:1004A0006046A3E76346B7E7834206D916B9002141
:1004B00008467BE7C6E900E0F9E7B3FA83F78FB9AE
:1004C000834201D3724508D8BEEB020460EB0303FC
:1004D00001209C461EB9002168E73846FAE7C6E9C4
:1004E000004CF8E7C7F1200CBB4022FA0CF41C4387
:1004F0002EFA0CF120FA0CF3B84001434FEA1449EC
:100500000EFA07F5B3FBF9F81FFA84FE09FB183061
:100510000B0C08FB0EFA43EA00439A4502FA07F275
:1005200040D9E31808F1FF3004D29A4502D9A8F166
:1005300002002344A3EB0A0389B2B3FBF9F809FBD9
:10054000183308FB0EFE41EA03418E452CD9611891
:1005500008F1FF3304D28E4502D9A8F102032144E9
:1005600043EA0040A0FB0298A1EB0E014145CE46B4
:10057000434602D306D14D4504D2B9EB020E68EBD7
:1005800004030138002EA6D0B5EB0E0261EB030187
:1005900001FA0CFC22FA07F34CEA0303F940C6E91E
:1005A000003198E74046C5E74346D9E74FF0805011
:1005B000D0F830010F2801D000207047012070478B
:1005C0004FF08050D0F830010A2801D00020704749
:1005D000012070474FF08050D0F830010E2801D034
:1005E00000207047012070474FF08050D0F8300154
:1005F000102801D000207047012070474FF0805034
:10060000D0F83001062803D0401C01D000207047EC
:10061000012070474FF08050D0F830010D2801D0F4
:1006200000207047012070474FF08050D0F8300113
:10063000082801D000207047012070474FF0FF309C
:10064000704700207047002070474FF0FF30704720
:1006500070477047002070470021017070474FF0CD
:10066000FF3070474FF0FF30704700210170704736
:100670004FF0FF3070474FF0FF3070470078002890
:1006800001D06FF01500704700207047002200F085
:1006900002B8FFF73FBD70B514460D46001B6FF062
:1006A0007F01884201DA084602E07F2800DD7F20D2
:1006B000194640B2FFF762FD28706C70002120449B
:1006C000A97040B270BDD8ECF0F4F8FC000203044D
:1006D0000506070800000000000000000000000000
:1006E00000000000000000000101010102020202FE
:1006F00003030303040404040505050506060708AF
:10070000090A0B0C0D0000000000000000000000B2
:1007100000000000000000000001010101020202CF
:100720000203030303040404040505050506060685
:10073000080900002DE9F84304460568067900AF72
:10074000884628460CF0F6FD034690B9E94688B085
:1007500029686A464748C2E905014FF40071918350
:10076000454942F8101F45484FF4E25102F088FC19
:10077000CD46E3882068217943F48032D0F810E038
:10078000D0F8089013F0010F4FF0010CDEF80030A4
:100790000CFA01FC14BF4CEA030323EA0C03CEF865
:1007A0000030D9F800309847002815DAE9468AB0B9
:1007B0002B686A463249C2E905134FF400739384EB
:1007C000304BC2E9076042F8103F2C4800234FF439
:1007D000315102F055FCCD46314628460BF0D2F996
:1007E000002815DAE9468AB02B686A462649C2E92C
:1007F00005134FF400739384224BC2E9076042F85B
:10080000103F1E4800234FF4315102F039FCCD4611
:100810001E4BC8F80430012202FA06F3C8F808306B
:10082000AB68DB6913B141462846984720682179B7
:1008300083684FF0A0729C694FF0C063A047002806
:1008400015DA6C468AB02B686A461149C2E905136D
:100850004FF4007393840B4BC2E9076042F8103FDA
:10086000064800234FF4315102F00AFCA546BD466C
:10087000BDE8F88350DF00000300000174DB0000D6
:100880006ADF00000500000198DF0000B5BB000032
:10089000CDDF000010B501220F4C104811460CF0BE
:1008A0003BFE21460E48FFF745FF04F10C010D48C1
:1008B000FFF740FF04F118010B48FFF73BFF04F17D
:1008C00024010A48FFF736FF094804F13001FFF719
:1008D00031FF012010BD00BF800B0020BC0B0020A9
:1008E00098DC000090DC000088DC000080DC000068
:1008F00078DC000010B504460A480BF057F9207068
:1009000009480BF053F9607008480BF04FF9A070DC
:1009100007480BF04BF9E07006480BF047F92071DF
:1009200010BD00BF98DC000090DC000088DC0000F7
:1009300080DC000078DC000010B586B0104B059319
:1009400002240494002304AA4FF486510D4802F0B7
:1009500097FB00F03DF80C4BCDE90443002304AABB
:100960004FF48651074802F08BFB012000F0CAF8D3
:100970004FF4004000210AF025FE00F0C9F8FCE722
:1009800011E00000B4DB000020E0000010B586B0EC
:1009900000F0D2FC044678B14FF448700BF00DF92A
:1009A00070B1094B0593022304930848002304AA5D
:1009B0004FF4825102F064FB0024204606B010BDC3
:1009C00000F0D2FDF9E700BF37E00000BCDB00001B
:1009D00010B586B00BF0EFF800285FD0414B0593BF
:1009E000022304934048002304AA4FF4865102F0E6
:1009F00047FB00F0A1FC002855D03C4B0593022397
:100A000004933948002304AA4FF4865102F038FBBE
:100A1000FFF740FF00284BD0354B0593022304938A
:100A20003148002304AA4FF4865102F029FB00F05C
:100A3000CFFF0346002840D12E4A0592022204929D
:100A4000294804AA4FF4865102F01AFBFFF79EFFD3
:100A5000002837D000F03CFF0346002837D1264A53
:100A6000059202220492204804AA4FF4865102F013
:100A700007FB00F079FE044670BB204B0593022370
:100A800004934FF48651034604AA174802F0F8FA7B
:100A90001B480CF02EFD204606B010BD2120002181
:100AA0000BF0A4F896E7212000210BF09FF8A0E7B7
:100AB000212000210BF09AF8AAE7212000210BF059
:100AC00095F8B4E7212000210BF090F8BEE7212033
:100AD00000210BF08BF8BDE7212000210BF086F8F8
:100AE000C7E700BF57E00000C4DB00006FE0000074
:100AF00080E0000092E00000A9E00000B6E0000005
:100B000020030020014B9870704700BF081C002094
:100B1000F0B585B001AD28460BF06AF8264C236885
:100B20006BB30022002320460AF096F8BDF8062099
:100B3000C3881344C380BDF808200389134403818C
:100B4000BDF80420838813440146838020460CF0BE
:100B5000D8FC1A4DAB7843B300F0A6FE68B9236801
:100B60005BB10023144800220AF076F8AB78043019
:100B7000F3B100F03FFE00F06BFE05B0F0BD104E8B
:100B8000104B326803EB021395E807001F1D87E83E
:100B90000700194620460CF0B4FC3368013303F01B
:100BA000010348BF5B423360D3E700F00BFFD5E79A
:100BB00000F0D2FEE1E700BF20030020081C002067
:100BC000EC0B0020CC0B0020F0B587B06D4600AFD9
:100BD00088B090F8303004466A4627495161274969
:100BE0002748C2E90613042342F8103F4FF404518A
:100BF0000BF010F8234B94F83020AD4653F8223018
:100C000098470146606368B11F4B7B6102233B61DB
:100C100007F110024FF4825119480AF0FBFF1C370C
:100C2000BD46F0BD94F830300133DBB2052B84F8BB
:100C300030300BD1012384F83830144B7B61022310
:100C40003B6107F110024FF48651E5E7104A52F874
:100C500023504FF4004625EAE57540F2E7304FF4A3
:100C60007A720023C5FB0601FFF73AFA02460B46EB
:100C700020460AF0DFF9D2E7C3E0000038E50000C3
:100C8000E4DB0000A0DC0000E2E0000000E1000086
:100C9000B4DC000070B5144C86B026690546D0B1AE
:100CA00033685A061DD4A368DB680F484021984773
:100CB000044648B10D4B05930D48022304AA4FF496
:100CC000825104930AF0A6FF15B101200AF0A0FF9B
:100CD000204606B070BD01200AF09AFF33685B061B
:100CE000E1D4A3681B69E0E7BCDA000014E100006E
:100CF000E4DB0000F0B5A0F1640242F67C638DB045
:100D00009A4200AF14D96C4688B06A462B4BC2E9B0
:100D10000530032342F8103F29484FF4C2510AF02E
:100D200079FFA5466FF0150420463437BD46F0BD67
:100D30006D4664248AB0B0FBF4F4013CE4B26A4628
:100D4000204B5361204B1462C2E90630052342F860
:100D5000103F1B484FF424510AF05CFF8F233B7176
:100D60003B1DBB60AD460023022601207C71C7E914
:100D700003637B61FFF78EFF04460028D4D102464F
:100D800007F10801114808F0FDFA114B9842054699
:100D90000ED0104B0A4807F128024FF48251C7E9E0
:100DA0000A630AF037FF2046FFF774FF2C46BBE7C3
:100DB0002046FFF76FFF0446B6E700BF27E10000BB
:100DC000E4DB000041E100002DE50000C8DC00008C
:100DD0000000AD0B68E10000F0B517288DB00446A7
:100DE00000AF58D01A2812D014285AD03B4BFB62BF
:100DF00002233B48BB6207F128024FF482516FF097
:100E000085040AF007FF20463437BD46F0BDB1F532
:100E1000486F4AD34FF448636E468AB06A46B1FBC6
:100E2000F3F5304B5361304B2D48C2E90631EBB23C
:100E30001362052342F8103F4FF424510AF0EAFEF2
:100E40003B1DB54664F07F04BB60022600230120F1
:100E50003C71C7E903637D717B61FFF71BFF0446AB
:100E60000028D0D1024607F10801204808F08AFA8C
:100E70001F4B984205462CD01E4B1948C7E90A6300
:100E800007F128024FF482510AF0C4FE2046FFF712
:100E900001FF2C46B7E7184B994206D84FF4A073D0
:100EA000BAE740F6F613994211D96C4688B06A4603
:100EB000124B0B48C2E90531032342F8103F4FF4AF
:100EC000C4510AF0A7FEA5466FF015049BE70A235C
:100ED000A2E72046FFF7DEFE044694E77DE100002E
:100EE000E4DB0000AAE1000017E50000C8DC000018
:100EF0000000AD0BDBE10000C03E01008BE1000013
:100F00007FB5124B1248059304AA02234FF4865171
:100F100004930AF07FFE4FF44870FFF7EBFE90B9A0
:100F20004FF4FA711420FFF757FF60B942F2044101
:100F30001720FFF751FF30B906491A2007B05DF8B6
:100F400004EBFFF749BF07B05DF804FBFBE10000CD
:100F5000E4DB0000F0490200F0B591B00E468DF8D8
:100F600007000120FFF796FE0446D0B901270DF1D6
:100F70000703CDE903700590024602A91E480293BB
:100F800008F000FA1D4B984205460DD01C4B0F93FC
:100F90001C4802230EAA4FF482512C460E930AF0ED
:100FA00039FE204611B0F0BDA0200AF031FE1248F3
:100FB000224606A9CDE90867CDE9064408F0E2F922
:100FC000A84206460BD0104B0F930E4802230EAAE0
:100FD0004FF482510E9334460AF01CFEE1E720469E
:100FE000FFF758FE04460028DBD113200AF010FE5C
:100FF000064B83F85140D4E7C8DC00000000AD0B7D
:1010000007E20000E4DB000024E20000E803002027
:1010100070B58CB060F07F008DF8040001208DF871
:101020000510FFF737FE0446D8B9022601ABCDE91B
:1010300003600590024602A91348029308F0A2F942
:10104000124B984205460FD0114B12480AAA4FF492
:101050008251CDE90A630AF0DDFD2046FFF71AFE52
:101060002C4620460CB070BD22200AF0D1FD20464F
:10107000FFF710FE04460028F3D192200AF0C8FDC5
:10108000054B83F85140ECE7C8DC00000000AD0BD5
:1010900040E20000E4DB0000E8030020B0B588B0C7
:1010A00000AFB91D2A20FFF757FF044658B1244B63
:1010B000FB6102232348BB6107F118024FF4825100
:1010C0000AF0A8FD21E06D4688B0BB796A461E494A
:1010D00051611E491B48C2E90613042342F8103F20
:1010E0004FF404510AF096FDBB79042BAD4610D0A5
:1010F000174BFB6102231348BB6107F118024FF441
:1011000082516FF004040AF085FD20462037BD4669
:10111000B0BD2046F91DFFF71FFF044608B10D4B77
:10112000C6E7FB79422B01D00B4BE2E720211020D0
:10113000FFF76EFF04460028E7D0084BB8E700BF72
:101140005EE20000E4DB000078E20000F5E400006D
:101150009BE20000BAE20000D3E20000E7E20000F8
:1011600030B5022587B028466946FFF7F5FE013500
:10117000EDB2072D04460ED00028F4D00F4B059396
:101180000F48022304AA4FF4825104930AF042FD4F
:10119000204607B030BD0028F0D101461020FFF7EF
:1011A00037FF044608B1074BE9E71D211320FFF77D
:1011B0002FFF04460028EBD0034BE0E700E30000DC
:1011C000E4DB000020E3000039E300007FB5084BBA
:1011D00005930848022304AA4FF4865104930AF0A9
:1011E00019FD5A213A2007B05DF804EBFFF710BF54
:1011F00050E30000E4DB00002DE9F04B8EB0434BE0
:1012000043480D930CAA4FF4865102250C950AF021
:1012100001FD18211320FFF7FBFE044660B13D4B92
:101220003B480CAA4FF48251CDE90C530AF0F2FC72
:1012300020460EB0BDE8F08B374B07941B68019336
:101240000120E2230DF10F06CDE905048DF80F30E2
:101250000496FFF71FFD044660B105462F4B0D9322
:101260002B4802230CAA4FF482510C932C460AF00F
:10127000D1FCDDE7024604A9294808F083F8294B90
:101280009842804613D1284FDFF894B0A146019BC5
:101290004B451CD10020FFF7FDFC05460028DDD1A1
:1012A00001200AF0B5FC214B83F85150C0E7204BD8
:1012B00017480CAA4FF48251CDE90C530AF0AAFC4E
:1012C0002046FFF7E7FC4546002DB1D0C6E717F8EA
:1012D000013B8DF80F30002204A95846049608F00F
:1012E00051F8404505460AD0124B0D930848022399
:1012F0000CAA4FF482510C930AF08CFCE4E70F2007
:101300000AF086FC09F10109C1E700BF59E30000BA
:10131000E4DB00007EE30000D0DC0000E0E300003E
:10132000C8DC00000000AD0B53E50000E80300201E
:1013300099E30000B9E30000014B93F850007047B7
:10134000E8030020F0B53149314D32484FF00042FA
:1013500000238A6003228A8187B01A4685F85030BC
:101360000B7107F061FF2C4B98424CD12B4C20465F
:101370000BF0E0FF70B92A4B05932A48022304AA18
:101380004FF482516FF0120404930AF043FC20469C
:1013900007B0F0BD2269A168136843F040031360F1
:1013A0000B68214A204606219847044650B11F4B3E
:1013B00005931C48022304AA4FF4825104930AF0B7
:1013C00029FCE4E785F85100194905F118000CF0F3
:1013D0000EF995F84820174B53F822604FF4004758
:1013E00026EAE676214640F2E7304FF47A7200238F
:1013F000C6FB0701FEF774FE02460B4605F1180016
:1014000009F018FEC3E74FF0FF34C0E714000020D6
:10141000E8030020C8DC00000000AD0BBCDA0000CF
:1014200000E40000E4DB000001000A0018E4000012
:10143000C90B0000B4DC00002DE9F0433F4D93B030
:1014400095F8503000AFB3B96C4688B06A463C4B53
:1014500053613C4B9361032342F8103F3A484FF4E9
:10146000C8510AF0D7FBA5466FF00F0420464C3751
:10147000BD46BDE8F08395F851105020F87121B3B6
:101480000120FFF707FC044620BB4FF00109FB1DBC
:10149000C7E90590F861024607F110012B483B614E
:1014A00085F8519007F06EFF294B9842064618D0F8
:1014B000284B7B64022324483B6407F140024FF42D
:1014C00082510AF0A7FB344604E0FFF7A1FD044671
:1014D0000028D5D07B89B7F90C20EA815B42AB812B
:1014E000C4E723200AF094FB07F10803BB62174806
:1014F0000623224607F12001C7E90844FB6207F0F2
:1015000041FFB04280460CD0134B7B6402230E484F
:101510003B6407F140024FF482510AF07BFB4446E2
:10152000D8E72046FFF7B6FB04460028D2D148464C
:101530000AF06EFB85F85190CCE700BFE80300206D
:1015400035E40000E7E40000E4DB0000C8DC000054
:101550000000AD0B57E4000078E40000014B186078
:10156000FFF7C8BBF00B0020B0B588B000AFF91D85
:101570000F20FFF7F1FC1A4CD8B11A4B1A48FB6147
:101580000225BD6107F118024FF482510AF042FBB7
:10159000164B1548C7E9065307F118024FF482515C
:1015A0000AF038FB4FF0FF33236020682037BD4638
:1015B000B0BDFA79642302FB03336D4688B0236023
:1015C0006A460B4951610B490748C2E906130423D7
:1015D00042F8103F4FF404510AF01CFBAD46E4E71B
:1015E000F00B002098E40000E4DB0000B4E400000D
:1015F000C7E40000DEE40000014BB3F90C007047C3
:10160000E8030020014BB3F90E007047E803002007
:1016100010B5064C012384F84A300378022B04D11C
:10162000204606F09FFC0128F9E710BDF8000020D5
:10163000B0B586B0002000AF05F0CAF880B91B4BEA
:101640007B6102231A483B6107F110024FF482517B
:101650006FF005040AF0E1FA20461837BD46B0BD28
:1016600000237B60FB600123BB6039460AF0AAFDC2
:10167000041E0FDA6D4688B06A460E4B0C48C2E96C
:101680000534032342F8103F4FF4C2510AF0C5FA63
:10169000AD46E1E7BB689B07FCD1FC68002CDBD0C2
:1016A0006D4688B06A46044BE8E700BF51F500007C
:1016B00094DB000071F500008AF5000030B54FF0B2
:1016C000E73291B04FF0C233CDE901231E4A1F4DDE
:1016D0001068516803AB03C31C460FCD0FC42B68C1
:1016E000236001238DF81D30194B069305A840F2A5
:1016F0000113ADF8263006F061FA044660B1154BCF
:101700000F93154802230EAA4FF482510E930AF04C
:1017100084FA204611B030BD01A806F08FFC0446C3
:1017200008B10E4BECE702A806F0AAFC044608B18B
:101730000B4BE5E7082103A806F0C4FC044600288B
:10174000E7D0084BDCE700BF17F6000050DC0000D4
:1017500011160000A9F5000094DB0000C0F50000A0
:10176000DDF50000FAF50000F0B587B06E4600AF79
:101770001B4B1C487B61022507F110024FF4865178
:101780003D610AF04AFAFFF753FF88B9FFF796FF69
:10179000044698B188B06A46134BC2E9053003236A
:1017A00042F8103F0F484FF4C2510AF036FAB546DE
:1017B0004FF0FF3420461C37BD46F0BD0B4B0948A7
:1017C000C7E9045307F110024FF486510AF025FAD5
:1017D000074B012283F84A2083F82840EAE700BF3C
:1017E00020F6000094DB000040F6000058F60000F0
:1017F000F8000020002330B5421D1C46012112F8DC
:10180000015F1DB101FA03F52C43E4B20133052B4E
:10181000F5D10E49B0F902200379B0F9045081F8EE
:101820002A40008881F82C20C2F3032242EA0312E6
:1018300081F82D201B09C5F3072243EA021381F822
:101840002B0081F82E30002030BD00BFF8000020B2
:1018500098B5124C94F84A3000AF1BB94FF0FF30E6
:10186000BD4698BD002384F84A3006F0CBFB04F156
:10187000250006F0D1FA0028F2D06C4688B06A46FE
:10188000074BC2E90530032342F8103F05484FF4E7
:10189000C2510AF0C2F9A546E0E700BFF8000020F7
:1018A00070F6000094DB0000024B93F84A0080F0D1
:1018B00001007047F8000020014B00221A707047A9
:1018C0002C1C0020014B1871704700BFF40B002046
:1018D00010B586B01848194C08F05AFE034620602F
:1018E00070B9174A059202220492164804AA4FF4CE
:1018F00082516FF0120401F0C3FB204606B010BD08
:10190000114B12493E2203F01DFF20680BF03CF9F9
:10191000044658B10E4B0593022304930948002353
:1019200004AA4FF4825101F0ABFBE6E7094806B088
:10193000BDE8104002F048BC99F60000F40B00200E
:101940009FF6000004DC0000D4DC0000E1F600009B
:10195000C0F60000C5180000002370B5421D1D46EA
:10196000012112F8014F1CB101FA03F42543EDB235
:101970000133052BF5D11049B0F9022003794D70E0
:1019800001240C70B0F904600088CA70C2F303220D
:1019900042EA031288700A710848C6F307221B093D
:1019A00043EA02134B7100680023062203F0E0FEB5
:1019B00008B9034B1C7070BD2D1C0020F40B0020D7
:1019C0002C1C0020014B1878704700BF2C1C0020F5
:1019D0007FB50B480BF0AEFC034670B9094A05927F
:1019E00002220492084804AA4FF4825101F048FBF5
:1019F0004FF0FF3007B05DF804FB0020FAE700BFAE
:101A0000ECDA00001FF7000034DC000037B5074CAB
:101A1000A5683921EB682046984722212B696A4640
:101A2000204698470098404203B030BDECDA0000F1
:101A30002DE9F04F91B08407009302F00403029364
:101A4000C2F3C20303F10103DDF868800392054687
:101A50000E46059340F0BE81041D30B1072909D818
:101A60006FF01B0011B0BDE8F08F01F00706341DC8
:101A7000C6F10806009B4FF00009591E4FF0040AFA
:101A80004FF0FF330193CDF810904F46CB465346AD
:101A90000DB1009A22600598002800F3EB809A4867
:101AA000009A824203D399488242C0F0E380039AAD
:101AB000A4EB050E92074FEA9E0000F106810F2F5E
:101AC00000F2B480002D00F0088107F140020DEB18
:101AD000020C019A0CF8200C0CF8102C0498013020
:101AE0000490EAE07A2860D84B280ED847285CD8C2
:101AF00029282FD8252855D057D820287DD02338FD
:101B0000D0F1000B4BEB000B77E0A0F14C0CBCF1DB
:101B10002E0F4AD8DFE80CF0714949494949494933
:101B2000494949494C49494949494949495A494C0E
:101B30004C5A5A5A714C6E497149184C184949838C
:101B4000804C49494C49800000204FF0000B4FF079
:101B5000040A39E0A0F12A0C5FFA8CFC012202FA97
:101B60000CFC1CEA0E0F48D11CF062502ED11CEA6E
:101B7000020B42D0013C5444CAF1000C04EA0C04AC
:101B8000002D61D0A3EB050CA444B4453FF668AF2B
:101B9000002868D1042B47D158F8043B2360043453
:101BA00004232AE0019A013A01924FF0000B24E04D
:101BB00011F8010C6C2834D111F8023C00206C2B78
:101BC0008346C4D14FF0080A5346D3E708F107080B
:101BD00028F007080734F8E802AB24F0070435B111
:101BE00006982044B0423FF63BAFC4E900AB08344E
:101BF0004FF0000B4FF0080A534611F8010F002870
:101C000078D0BBF1000F7FF46DAF2528F5D1019B93
:101C1000013301934FF0010B4FF0040AECE75846F3
:101C200093E700208346A5E7082B02D06FF015004C
:101C300018E708F1070828F00708F8E80223C4E9C4
:101C4000002308340823D8E768B9042B02D108F12F
:101C50000408A4E7082BE9D108F1070828F00708D1
:101C600008F10808EDE7059A013A059258F8042BA7
:101C700000920DE7039A900720D5A4EB050E4FEADA
:101C80009E004FF0010CBEF5007FCFD20F2FCDD8B4
:101C9000F5B107F140020DEB020EC0B2019A0EF849
:101CA000200C0EF8102CBCF1000F3FF417AF60F0C1
:101CB0007F000EF8200C09F101090137C5F1080277
:101CC000043406924FF6DA7E97E74FF0000CDAE71D
:101CD000BCF1000F01D00136EFE702980236002870
:101CE000EBD10098CDE906310AF0F4FEDDE90631CA
:101CF0000644E2E7631BB3F5806F97D245B9A6F1BE
:101D00000804E018AEE600BF24DA00005805010020
:101D1000029A28609B082B709DF81030C2B1EB70BE
:101D200085F80290B9F1000F05D008A80022C5F18E
:101D3000010C97420ED1C5F101030DF120084FF0BF
:101D4000000A01930DF1300B574512D1601B89E653
:101D50006B70E5E710F8013B190608D504EB0C0E93
:101D6000B64503F07F033FF67BAE04F8013B01323A
:101D7000DFE7B9F1000F03D098F90020002A17DB44
:101D8000029BD3B11AF80B2004F8012B0022019B0F
:101D900098182044B0423FF663AE98F8000004F86B
:101DA000010B0099039220460AF0B0FE039A1444F6
:101DB0000AF1010A08F10108C6E798F8002055F871
:101DC00022300093029B45F8223000980AF082FEF0
:101DD000421CDCE76FF00D0044E600BF2DE9F04F38
:101DE00095B000AF0446D7F878B0BB61CBF3C00321
:101DF0007A623B61396251B903784678807800EBAA
:101E0000830020443B6A9E421AD8031B3B6294F82D
:101E100002A0E3787B615646BAF1000F02D01BF0B6
:101E2000010F17D17B695BBB7B6A1BB1BA69396A49
:101E3000204698473D6A28465437BD46BDE8F08F96
:101E4000451C28460AF046FE3B6A0130013328440F
:101E50003B62D7E794F800806368FB617B6A4FEAD6
:101E60008802FA6004EB8808002B40F001813D6A8B
:101E7000C1460AEB080300264B454ED1D04413E07F
:101E80001BF0020FD0D094F800804FEA8803FB606B
:101E90006368FB617B6A04EB8808002B78D13D6A9C
:101EA000BAF1000F4ED156461BF0050F0CBF0223AE
:101EB00001237B627B6908EB430A0BF002033B6260
:101EC000D045B8D018F8021B18F8013C54F82390FC
:101ED000AC4B994502D3AC4B994539D33B69002BA8
:101EE00043D0F86909F0CDFE00283ED0E9468AB01B
:101EF0006A46A64B5361FB69C2E906314FF4007391
:101F00001384A34B42F8103FA24800234FF4125110
:101F100001F0B6F8023DCD46D2E719F8012B7B62FD
:101F200054F822000AF0D6FDFA6F7B6A01303AB10C
:101F3000D7F8802096423EBFFA6F22F8160001368D
:101F4000054499E71BF004061CBF7E6AD044ABE74A
:101F50003B6923B1F86909F094FE0028C6D11BF053
:101F6000010F05D17B6AED1AAAE73B6A002BA7D0C7
:101F700048460AF0AFFDFB6F43B1D7F880309E4270
:101F80003FBFFA6F431C22F816300136054497E72D
:101F9000BAF1000F71D01BF0040671D0D1460026B3
:101FA00007F14000524641460AF0B0FD7B695B00F4
:101FB000BB607B69D04408EB43037B610BF00203F9
:101FC0007B607B6998455DD12378FB6163781BF06A
:101FD000020F06EB03020CBF4FEA590100211BF070
:101FE000010FD2B240F09D801BF0040F14BF484691
:101FF000002094F802B094F803803B616270A070F6
:10200000E170BA69F9687B6A20469847051EFFF6B9
:1020100012AFFB6923703B69637084F80380BA696F
:102020007B6A84F802B0494607F140009847B0F156
:102030000008C0F2A3803B6ABA697869A3EB0A0181
:10204000FB68C91ABB68C91A7B6A98470028C0F2A6
:102050009780A84408EB00054FF0000B07F1300A09
:10206000B34560D30021BA697B6A08469847E2E627
:102070004FF0000907F1300094E75646D14695E746
:10208000B14693E718F8021B3E4A18F8015C54F871
:102090002530934202D33C4A93421CD33B6923B17F
:1020A000F86909F0EEFD00288BD17B68F3B909F1DE
:1020B000280207F12800024409F1010302F8101C6C
:1020C00007F1500252FA83F309F102095FFA89F924
:1020D00003F8105C75E73B692BB1F86909F0D1FD95
:1020E00000287FF46EAF1BF0010F09D006F1280223
:1020F00007F12801731C561806F8205CDEB260E771
:102100001BF0040F3FF45DAF09F1280207F128012D
:1021100009F1010302EB010909F8105C5FFA83F988
:102120004FE7002065E71BF80A3087F82F3054F896
:102130002390FB6FFBB133F81B80BA697B6A0121E6
:1021400007F12F00984700281ADB0544B8F1000F6B
:1021500006D148460AF0BEFC00F101081FFA88F8D3
:10216000BA697B6A414648469847002808DB05441F
:102170000BF1010B74E7D7F87C80DEE745465AE6A1
:10218000054658E624DA00005805010035F700003E
:10219000040000017CDB0000014B1860704700BFA9
:1021A0002800002030B587B00025CDE903010446A2
:1021B000009503A90548059500F018F9DDE90430FC
:1021C0009842B8BF255407B030BD00BFD1BC000055
:1021D0002DE9F047058B04462807904611D40229C3
:1021E00005F0070540F0CD80204609F088FF78B162
:1021F0000138218B042811D8DFE800F0C3106D8569
:10220000950001290CBF45F0100545F020052583F8
:1022100088F31188BFF36F8FBDE8F08701F0070ADC
:10222000AA4500F0A6800027B9463E46A368002BC9
:1022300000F0BD8041F00801218388F31188BFF3CD
:102240006F8FA168002900F0BB800D68002900F0A5
:10225000B780D1F80480334652462046C047002D4F
:1022600076D02B6829461D46F0E701F007035A1F78
:10227000012A1BD8002221F00701062B276889B20A
:10228000C4E9002209D13B4603E0628B013262833C
:102290001B68002BF9D141F002012183204609F08F
:1022A0002EFF00287BD041F0200177E0042B0AD1DB
:1022B00021F0070189B22183204609F020FF10B1E7
:1022C00041F020012183218B01F0070AAA4550D05B
:1022D0000027B946AAE7236921F0070141F006016A
:1022E000062DD3F8009021832DD1B9F1000F40D0F5
:1022F00041F00801218388F31188BFF36F8F3A49B9
:102300002046C84729E021F00701236941F0040174
:1023100089B2042DD3F804902183E6D000273E46ED
:102320004FF0040A82E721F00701236941F005011B
:1023300089B2052DD3F808902183D6D000273E46D8
:102340004FF0050A72E700273E464FF0060A6DE798
:102350002B4687E7B9F1000FD1D14FF04003EFF3DF
:10236000118883F31288BFF36F8F238B23F0080348
:102370002383258BEA062ED525F01003238305F051
:1023800007056669218B002EBFF66FAF0023276813
:10239000C4E9003321F0070141F001012183218BC1
:1023A00001F0070AAA454FF000097FF43FAF002F64
:1023B0009BD041F00801218388F31188BFF36F8F10
:1023C000002FC7D03D68394633465246204609F0B3
:1023D000C2FE2F46F4E7AB067FF51AAF25F02003C7
:1023E000238305F00705FFE683C100002DE9F04FC8
:1023F000814695B08B4617461C460025387808B9AB
:10240000284658E37B1C2528039306D05946C84725
:102410000028C0F250830135FBE1182200210EA8EC
:102420000AF07FFB7B78252B7DD00023781C984613
:102430009E469C461E46014610F8012B2B2A00F0B2
:10244000A18000F29880202A00F09F80232A00F0CB
:102450009F802BB19DF8403043F040038DF8403011
:10246000B8F1000F05D09DF8403043F020038DF8FF
:102470004030BEF1000F05D09DF8403043F010030E
:102480008DF84030BCF1000F05D09DF8403043F08E
:1024900008038DF840302EB19DF8403043F004031E
:1024A0008DF840309DF8403003F04400442803D1BB
:1024B0006FF386138DF840309DF840302A2A43F0A0
:1024C00080038DF840307FD19DF8412042F0010219
:1024D0004B1C8DF841201A782E2A9DF841200CBF04
:1024E0000121002161F341028DF8412078D15A7811
:1024F0002A2A6ED0013300224FF00A0C194611F837
:10250000010BA0F13006092E40F295809DF8401095
:102510001292C1F3400040EAD2700A4660F34102D1
:102520008DF840205CE0BA1C03928DF843309DF892
:102530004130DA0740F12E8154F8048BB8F1000FD6
:1025400007DA9DF8402042F004028DF84020C8F1DF
:1025500000085E0740F1278154F804ABBAF1000F80
:1025600080F226819DF841306FF341038DF84130B0
:102570004FF0FF3A1CE12D2A0DD0302A7FF469AFCD
:10258000012358E74FF0010C55E74FF0010E52E7D9
:102590004FF001084FE701264DE70EFB0262303A8B
:1025A0000346184610F8016BA6F1300CBCF1090F78
:1025B000F3D999428FD09DF840101192D20F62F357
:1025C00041018DF8401086E70B4600224FF00A0EBD
:1025D000E7E79DF8412042F004028DF841200233E4
:1025E0001A786C2A47D02BD8682A31D06A2A4BD067
:1025F0004C2A51D01A4612F8013B0392782B9DF8D1
:1026000041208DF8433000F2BE806D2B51D8692BEC
:1026100000F2B980572B67D8412B03D0453B022BE2
:1026200000F2B1809DF84230042262F302038DF87B
:102630004230012373E00CFB0202303A0B465DE7A7
:10264000742A25D07A2AD5D19DF8412006210CE0A4
:102650005A78682A9DF8412006D1012161F3C6020B
:102660008DF841200233C5E7022161F3C6028DF8DF
:1026700041200133BEE75A786C2A9DF8412001D1F0
:102680000421EBE70321F0E79DF841200521ECE769
:102690009DF841200721E8E7BDF8402022F4F042F0
:1026A00022F0020242F4804242F00202ADF84020E1
:1026B000DFE76E3BD9B201238B4040F282410B42EF
:1026C00037D113F0240F51D1D8075CD59DF8423093
:1026D000032161F302038DF8423002F07803A3F185
:1026E00040014B424B411AE0A3F15801C9B201200D
:1026F00000FA01F111F4624F94D140F60106314223
:102700001DD111F4043F3ED09DF8423060F3020326
:1027100002F07802402A8DF8423034D000239DF830
:102720004020C2F340010B4363F341028DF8402087
:10273000FDE69DF84230022161F30203E8E79DF8CF
:102740004210022002F0780260F30201402A8DF864
:10275000421002BF9DF8401041F001018DF8401079
:10276000632BDBD1131E18BF0123D8E79DF842303D
:10277000032161F3020312F0780F8DF8423014BF89
:1027800001230023CBE79DF8403043F001038DF88F
:102790004030C3E79DF94020002AB4BFDDF84480F3
:1027A0004FF0FF38D5E698077FF5E2AEDDF848A098
:1027B0009DF841100023CDE911339DF8423003F01C
:1027C0000703012BC1F3C30133D1CB1E042B04D863
:1027D000DFE803F0214646212100236801294FEA62
:1027E000E372CDE90E321CD19DF93830DA17CDE90C
:1027F0000E3204349DF8403013F0030650D0039B92
:102800003A465946484609F0DAFD0028C0F253819D
:102810000544039FF2E554F8043BDA17CDE90E3284
:10282000E8E70229E5D11AB243F3C033CDE90E231C
:10283000DFE7022B24D1CB1E042B04D8DFE803F002
:10284000181010181800012954F8043B4FF000022A
:1028500014D00229CDE90E32CCD19BB20E93C9E738
:10286000073424F00704F4E80223CDE90E23C1E77E
:1028700054F8043B0E9300230F93BBE7DBB2CDE784
:10288000042B08D1073424F00704D4E900230834CA
:10289000CDE90E23AEE7032BACD154F8043BDDE7C2
:1028A0009DF843007828B4D862281CD825283FF426
:1028B000ADAD5828ADD10DF136030093DDE90E0121
:1028C00008AB10AA09F035FDBAF1000F074680F2F7
:1028D0009A80002F9DD00DF13603D81B002E00F0FA
:1028E000C1800130BEE06338152892D801A252F8A9
:1028F00020F000BFC9290000DB29000013280000D8
:10290000132800001328000013280000DB29000012
:1029100013280000132800001328000013280000CB
:10292000692A0000012A0000272A0000132800005D
:10293000132800004D29000013280000012A000080
:102940001328000013280000012A0000BAF1000F2C
:102950000E9F35DB514638460AF0C3F807EB000AF4
:10296000002F3FF456AF00269DF8423013F01002BE
:10297000059200F0938002305B06119A48BF129BCB
:102980000492104448BFC018B8F1000F40F3A08073
:102990009DF84020A8EB0008C2F38003500706937F
:1029A00000F19680510640F189803EB1594630468B
:1029B000C84700287FDB069B01351E4630227EE09B
:1029C00038460AF087F8C9E70E9B8DF820300026BC
:1029D00008AF0DF1210A0120C6E719075CBFC3F358
:1029E00000135E01DDE90E2348BF2B26002BBFF646
:1029F00062AF524263EB4303CDE90E232D265AE723
:102A0000002658E700269DF840200DF13603DB1B19
:102A10006FF386129A458DF840207FF65AAFAAEBE5
:102A20000303119355E70E9890B30DF1360300930D
:102A300010AA08AB002109F07CFCBDF8423003F07D
:102A4000EF0343F4F04343F01003BAF1000F0746DD
:102A5000ADF84230D6DA00283FF4DBAE0DF1360394
:102A6000181A00269A467FE70E9B07293FF6D1AE3B
:102A7000DFE801F00C04060C08080C0C1D70C8E619
:102A80001D80C6E6EA17C3E90052C2E61D60C0E633
:102A90002E4F064607F1050A052065E71A0748BFCD
:102AA000013069E70793104606925946C847002847
:102AB000DDE9062304DA15B0BDE8F08F2022434695
:102AC0001946002903F1FF33ECDC45446D1A9846A2
:102AD0002EB159463046C8470028ECDB01359DF839
:102AE0004230DA0601D41B0705D559463020C847C5
:102AF0000028E0DB0135059B33B19DF843005946C2
:102B0000C8470028D7DB0135049E2E4405E059460E
:102B10003020C8470028CEDB0135731B002BF6DCC4
:102B200053463A465946484609F049FC0028C2DB5C
:102B30000544A844A8EB0503002B7FF76AAE59466D
:102B40002020C8470028B6DB0135F3E7E9F700008D
:102B500005F074BD2DE9F047DFF8588004460746BC
:102B60004FF0010914B93846BDE8F08794FAA4F58E
:102B7000B5FA85F509FA05F32E0108EB05156FEA9C
:102B8000030A24EA03042B7B002BEBD058F8063011
:102B90001B694BB94644042273682846196807EA42
:102BA0000A0700F059FADDE7284698470028D9D1EE
:102BB000F0E700BF3CDC000030B51049104889B098
:102BC00000220AF088FE0F4D0F4900220023CDE9B4
:102BD000062300240E23CDE90334CDE901440B4B39
:102BE00000944FF44072284607F0DCFE084928465E
:102BF0000AF0F4FB204609B030BD00BF152C0000E0
:102C0000C80800204004002040230020052F0000B9
:102C1000EFF70000014808F053B800BF1003002090
:102C20002DE9F04780461F480F4609F048FE06464A
:102C3000002830D000252846BDE8F087237B73B1FB
:102C40002368DB680BB12046984723681B69D3B91A
:102C5000636804221968204600F0FEF9013610343A
:102C60004C45EBD3B8F1000FE5D0002DE2D028465B
:102C7000FFF770FF0546002FF7D000214FF4A47036
:102C800008F0A0FCF1E7204698470028E0D00AFAB7
:102C900006F31D43E2E7044CDFF8109005464FF0C1
:102CA000010ADDE70C0C00203CDC00004CDC0000DD
:102CB000014B53F820007047FCDC000008B50346C8
:102CC00008462BB1044A136000F078FC002008BDD0
:102CD0006FF01500FBE700BF2C00002010B5044C7E
:102CE000237813B9034807F0EBFF0123237010BDCD
:102CF000331C00201003002010B50446084809F0DA
:102D0000DEFD5CB1BFF35B8F064B53E8001F01395A
:102D100043E80012002AF8D1BFF35B8F10BD00BF5B
:102D2000040C0020080C00200020064BBFF35B8F32
:102D3000014653E8000F43E80012002AF9D1BFF31F
:102D40005B8F7047040C002070B5FFF7EDFF084C57
:102D5000084E0546B44200D370BD63685B792BB161
:102D600023685B6813B12946204698471034F1E781
:102D70003CDC00004CDC000010B5044C044920464B
:102D800009F02EFC034B1C6010BD00BF9002002018
:102D9000E8DC0000FC0B0020084A094808B50023C5
:102DA0001370084A1360084A4FF400411360FFF79C
:102DB00085FFBDE80840FFF7DFBF00BF341C0020DF
:102DC000BBC80000040C0020080C002001460022B3
:102DD0000148002309F025BC90020020014809F0B9
:102DE000BEBC00BF90020020024B0146186809F0EB
:102DF00008BD00BFFC0B0020014809F03EBD00BF2C
:102E00009002002070B5284B187800284BD0FFF7AF
:102E1000E5FF054690B1BFF35B8F244B53E8001FDD
:102E2000013943E80012002AF8D1BFF35B8F204C30
:102E3000204EB4422DD32846FFF7D6FF1E4B1F4C21
:102E40001B68002B19DD0AF01EFD4FF47A72A0FBFF
:102E5000020302FB0131C30BD4E9002043EA4143E2
:102E60009B1A4FEAD13140F2E93261EB0001934203
:102E700071F1000101D3FFF767FFD4E9003213F5C8
:102E80007A7342F10002C4E90032BDE87040FFF7F6
:102E9000B3BF63685B7923B1236829461B6820466A
:102EA00098471034C5E770BD331C0020080C002083
:102EB0003CDC00004CDC0000040C0020C0080020BA
:102EC00070B50D4D297861B90120FFF7A9FE0B4CB3
:102ED0000B4EB44206D3FFF795FF0028FBD1012328
:102EE0002B7070BD63685B791BB1236820469B68BB
:102EF00098471034EDE700BF341C00203CDC000094
:102F00004CDC000000212DE9F0470846FFF788FE61
:102F1000044648B340F267684FF0000908F086FBAA
:102F20001A4B186030B11A4B1B68092B02DD194887
:102F300007F0C6FE184FDFF85CA0002544B120461C
:102F4000FFF708FE044618B94FF0FF384FF0FF397D
:102F5000FFF758FF064628B9B5B942464B465046DA
:102F600007F0CEFE3546E9E74FF0FF384FF0FF3966
:102F7000D4E72B689B691BB100221146284698476D
:102F80001035BD42F5D3E8E7044DFAE7000C002008
:102F9000080C0020100300204CDC00003CDC00008A
:102FA00013B5184809F08BFC174B1B787BB14FF019
:102FB0004003EFF3118483F31288BFF36F8FFFF7A1
:102FC00021FF84F31188BFF36F8F02B010BD0F4B48
:102FD0001B68002BF9D050B900220023CDE9002353
:102FE0000B484FF40042002308F064FDEDE70A2887
:102FF000EBD107480AF07BFC064802B0BDE8104060
:1030000007F05EBE080C0020341C0020000C0020DD
:10301000C80800201003002010B5064B1B680446AA
:1030200098472146A060044809F079FBBDE81040AC
:10303000FFF7B6BF2C00002090020020044A054B89
:103040009B1AB1EBD30F34BF52F831000020704708
:103050003CDB00003CDC0000084BC31A10B41B1121
:1030600044680133237143689A7143681960436867
:1030700001225A7110BCFFF731BE00BF3CDC0000DA
:103080002DE9F04F8FB004AFC1F34A28B8600D4668
:1030900091467B600C0DB8F1000F63D0002607F15C
:1030A00014034FF0040B4FF00A0AC7F80C80C7E96D
:1030B00007667E620193CDF808B0CDF800A007F155
:1030C0001C03F96832464846FEF788FEB0F5006FEB
:1030D00003461CD36C468AB0D9F8041004AB2648CA
:1030E000C3E9050140F2FF71D9611A464FF400713E
:1030F0001984224B42F8103F214833464FF41251B5
:10310000FFF7BEFFA5462C37BD46BDE8F08FC0F3E4
:103110000A0804F11700184420F0070080083B60FB
:10312000FFF754FE68F35325044690B13B68154AF7
:10313000C7E9083600F1100107F11403F961CDE980
:1031400000A3CDF808B0F96807F11C034846FEF764
:1031500045FE68F353257B68B9682A46204609F086
:10316000E4FBD0E704F1170020F007008008FFF728
:103170002DFE0446EDE700BF04F800000400000146
:10318000A4DB0000FFC800002DE9F04F87B0DDE9A7
:103190001269DDE9105A04460F4693469846A6B3D5
:1031A0001021CDF80090334652460020CDF81490FF
:1031B000FEF73EFC014605F117000844144B03914D
:1031C00004F007040BF0070BE40020F0070003EA0B
:1031D000412344EA8B1480081C43FFF7F7FD44EABF
:1031E0000554054640B13EB10399CDF800903346F1
:1031F00052461030FEF71CFC43462246394628460C
:1032000007B0BDE8F04F09F090BB3146D3E700BFEF
:1032100000FE0F000EB403B503AB014653F8042BB8
:103220000448019309F0A7FB02B05DF804EB03B07A
:10323000704700BF9FC90000CA0605D48B064CBF6B
:1032400002490349FFF7E6BF704700BF44F800009A
:1032500043F800002DE9F04F89B09B469DF84830B7
:103260000493DDE913930593049B0692DDE915763B
:1032700004460D46002B00F0878006F008030793F4
:1032800009F03BFB06F0020A024600284BD08649B3
:103290002046FFF7BFFF8046BAF1000F08D016F0B6
:1032A000440F42D181492A462046FFF7B3FF8044AC
:1032B00006F001035BB17E4B049A7E4953F822204D
:1032C0007D4B2046002A08BF1A46FFF7A3FF06F0F1
:1032D0000803002B55D0794B049A794953F82220E2
:1032E0002046FFF797FF0546069B2BB175491A4606
:1032F0002046FFF78FFF0544BBF1000F05D0724950
:103300005A462046FFF786FF05444544B9F1000FB1
:1033100049D1002F4FD1F30700F1C080314620463C
:10332000FFF78AFFB4E08046B6E7684B18680028CC
:10333000BDD0674B4FF47A7E1B68B5FBF3F54FF4B5
:103340006162B5FBF0F300FB1355B3FBF2FA0EFB21
:1033500005F502FB1A323C21B5FBF0FCB2FBF1F3A0
:1033600000FB1C5501FB13220EFB05F50092B5FB7B
:10337000F0F55849CDE901C552462046FFF74AFF0E
:1033800095E706F00805AFE7BBF1010F06D1B9F1EB
:10339000000F64D1002F7BD000250CE0B9F1000FA5
:1033A000F8D04D485CE04D484D494B46224608F068
:1033B00037FC002F68D0DFF82C91DFF82CA1102FFC
:1033C00031462046B84628BF4FF01008FFF734FFBB
:1033D0004FF0000B5D4545DC059B51461A782046B1
:1033E000FFF718FF4FF0010B1BF0070F03D1494601
:1033F0002046FFF70FFFD8453BD9059B514613F8F0
:103400000B202046FFF706FF0BF1010BBBF1100F5D
:10341000EAD1364920464FF0000BFFF7FBFE5A4633
:10342000059B9A5CA2F120015F2928BF2E2230491A
:103430002046FFF7EFFE0BF1010BBBF1100F1DD083
:103440001BF0070F03D149462046FFF7E3FED8459E
:103450005A46E5D849462046FFF7DCFEEBE71F4811
:10346000049DA1E749462046FFF7D4FE0BF1010B6E
:10347000B0E720492046FFF7CDFEC5E7059BB7EB37
:103480000807434405939AD1049B002B7FF443AF74
:10349000204609B0BDE8F04F09F074BA064A054964
:1034A0002046FFF7B7FE39E74BF800004FF8000061
:1034B0000CDD000074F8000046F8000020DD00007C
:1034C00077F800007DF8000081F80000140C00205F
:1034D000100C002058F80000D5C900009FC900005A
:1034E00077C900008EF8000086F8000090F8000010
:1034F00092F800008CF800002DE9F0410F884B682D
:103500008E6886B005460C469046C7F382175BB1BD
:10351000134A9B1A43F3CF0100291FDB2078C0F325
:10352000C200FFF78BFD03462146608851F8102B3F
:103530000097C2F34A22002A01EB0204C0F30B10E9
:1035400008BF0021CDE90308CDE90114002231466E
:103550002846FFF77FFE06B0BDE8F0810023E3E7D1
:103560003CDB000073B542F20F738B4228BF0B4661
:1035700005680F4A04460521684608F0C9FB6368E0
:103580000C495B6806460B22284609F0E7F9636898
:103590003246694628465B6809F0E0F963680649E7
:1035A0005B681B22284609F0D9F902B070BD00BF44
:1035B00087F50000B1F8000095F80000074A0021E7
:1035C0000123904206D8064A01B901231360054B36
:1035D0001860704740085B000121F2E740420F008D
:1035E000100C0020140C0020014B01221A707047AF
:1035F000351C0020014B0020196070472C0C002066
:10360000024B034801221A7009F0BCB9361C002095
:1036100050DD00000148FFF7A5BF00BF50DD0000EE
:1036200010B5064B18680C46FFF742FB21460346CF
:10363000BDE8104002480F22184700BF2C0C0020A4
:1036400050DD000010B9074B18707047064B1B780F
:103650001BB141F288300AF018B9A420002107F00C
:10366000B1BF00BF351C0020361C00202DE9F843F7
:10367000DFF874901D4F80460E46042499F80050E0
:1036800095B906F075FF28463246414606F0F2FE2F
:10369000054606F077FFE5B101233B7099F800304D
:1036A00073B93046BDE8F88332464146002006F043
:1036B000E1FE0546EFE72046FFF7C4FF651E2C46F6
:1036C000002006F04BFF0028EBD03B78002BF2D116
:1036D000E7E73B78002BE4D0013C2046FFF7B2FF40
:1036E0003B78002BCAD1DCE7361C0020351C0020BB
:1036F0002DE9F84305464FF04003EFF3118683F3BD
:103700001288BFF36F8F0E4B0E4F1C68DFF83880A6
:103710004FF00C092CB986F31188BFF36F8FBDE809
:10372000F883D4E90123002D18BF13462BB198F874
:10373000102009FB02F2B85C98472468EAE700BF52
:10374000480C00203C0C0020CC1B002070B5194B0D
:103750001C7CBFF35B8F04F01F0301229A40164BC1
:10376000610903EB8103D04353E8001F01EA000520
:1037700043E80056002EF7D1BFF35B8F0A4213D007
:103780000E4B0F4D8BB10C236343EA18E85C517864
:1037900009F0EDF90020FFF7ABFF0C235C432A1979
:1037A00000232B51C2E9013370BD83F31188BFF3AD
:1037B0006F8FEFE7CC1B0020500C00206FCB000078
:1037C0003C0C00202DE9F041354B07461D7C4FF0A5
:1037D0004003EFF3118883F31288BFF36F8F0C243B
:1037E000304B314E6C431A19195D00294CD007CA71
:1037F00006EB040C8CE8070000221A5588F31188A8
:10380000BFF36F8F0C236B43F218F05C002839D0A4
:103810007B1C10D0D2F808C0244C254A4FF400403D
:103820000021ECFB004100232046FCF759FC01215C
:10383000381A03F0E7FC07F00BFE0120FFF758FFF2
:10384000BFF35B8F1B4B6A0903EB820305F01F017B
:1038500001228A4053E8000F104343E80001002989
:10386000F8D1BFF35B8F144B3BB10C2303FB05F086
:103870003318305C597809F06EF9FFF767FF07F0ED
:10388000FBFD0120BDE8F0810146284600F016F856
:103890000028B3D007C8344484E80700AEE700BF6F
:1038A000CC1B0020300C00203C0C00203F420F00BD
:1038B00040420F00500C002057CB00002DE9F04F84
:1038C00085B00E4603A900F043F81E4B039DD3F8C4
:1038D00000A0DFF87480431E1BB203EB43030446D1
:1038E00005EB83054FF400474FF0000B24B9A146C8
:1038F000484605B0BDE8F08F6868144AC44659468A
:10390000E0FB07C100236046FCF7EAFB0190A868D2
:103910000E4AC4465946E0FB07C100236046FCF747
:10392000DFFBBAF1FF3FA94601D0824505D9731CE0
:10393000DED0019B1844B042DAD9013CA4B20C3D60
:10394000D4E700BF300000203F420F0040420F008C
:1039500008B9024B0B600020704700BF60DD00001B
:10396000F0B40C4B0C4E5F6A0C4BB34203D36FF0B8
:103970008500F0BC70475D68BD4209D31C693CB14D
:1039800095F802C00579AC4502D12346F0BC184732
:103990002433EAE7540C0020E8030020C40300208D
:1039A0002DE9F047134CDFF85080DFF850900546C2
:1039B0000E461746444503D36FF08500BDE8F087F7
:1039C0006268D9F824309A4212D3A36983B19078FF
:1039D0002979884205D13A4631462846BDE8F04764
:1039E00018475279012A03D13A463146284698476A
:1039F0002434DFE7C4030020E8030020540C002037
:103A00002DE9F0410B4CDFF8308005460E46174695
:103A1000444502D36FF0850009E063690BB9243493
:103A2000F6E73A463146284698470028F7D1BDE8E0
:103A3000F08100BFC4030020E803002002480822F0
:103A4000002109F06EB800BF0F0D002070B50B4BC0
:103A50000B4CA34201D3002070BD196A1E7F0022C7
:103A60000439D5B2AE4201D82433F2E7013211F85D
:103A700032508542F5D10120EEE700BFC40300209B
:103A8000E803002008B509480378C3F341130A335B
:103A900050F823303BB100F1080200F110019847C3
:103AA000C043C00F08BD1846FCE700BF540C0020FF
:103AB0007FB5084B0593022304930748002304AA0B
:103AC0004FF48251FFF7DCFA4FF0FF3007B05DF89A
:103AD00004FB00BFF0F8000014DC000073B5C4B2B2
:103AE00063060D468DF8074007D02046FFF7AEFF6E
:103AF00078B10D4B93F8BA0058B10B4E204655B132
:103B000002F046FBF3691BB10DF10701082098474D
:103B1000012002B070BD02F075FBF369002BF7D0F5
:103B20000DF107010920F2E7540C002080B500AF29
:103B300088B06A46074BC2E90530032342F8103FBC
:103B4000054800234FF4C251FFF79AFA0020BD4602
:103B500080BD00BF15F9000014DC000004282DE929
:103B6000F74FDFF89C9004460F4615D001282FD15F
:103B7000DFF8908098F8B93053B300F0F3FD224D90
:103B80004D4522D22A6A4FF0000A2B7F5FFA8AF64F
:103B9000B34204D82435F3E7FFF750FFE8E702EB20
:103BA000C6060192307909F013F88346307908F09F
:103BB0001FFFD8F8C430019A23EA0003BBF1000FBD
:103BC000C8F8C4300AF1010ADFDA002388F8B930F6
:103BD0000D4D4D4508D30B4B1B6A6BB13946204642
:103BE00003B0BDE8F04F1847EB681BB13A462146D9
:103BF000284698472435ECE703B0BDE8F08F00BFB6
:103C0000E8030020540C0020C4030020F8B500AFE6
:103C1000054608F0DDFF10F1780F044613D090B18F
:103C20006E4688B06A460E4BC2E90535032342F85A
:103C3000103F0C4800234FF4C251FFF721FAB5465C
:103C40002046BD46F8BD284608F0D2FE064AD2F806
:103C5000C43023EA0003C2F8C4300024F0E700BFF8
:103C600030F9000014DC0000540C0020F0B583B0E3
:103C700000AF04468078387023796279274D43EA93
:103C800002237B80E37803F003033B7108F0B0FE6E
:103C9000D5F8C430184206460CD0A478204600F06F
:103CA00043FD2046FFF7B2FF09F092FB10B99620C2
:103CB00007F0A2FC384602F037FA10F1780F0346FD
:103CC000387814D09BB16C4688B06A46144BC2E970
:103CD0000530032342F8103F124800234FF4C2512D
:103CE000FFF7CEF90020A5460C37BD46F0BD02F027
:103CF000C5FA10F1780F08D038B16C4688B03B781F
:103D00006A460949C2E90513E3E7D5F8C430012042
:103D1000334385F8B900C5F8C430E5E7540C0020FA
:103D200052F9000014DC000076F900002DE9F0479C
:103D3000A34EB36904460F461546FBB9237803F03A
:103D40001F03012B00F09D80022B00F0048133BB88
:103D500094F900002A686178002834DA062912D024
:103D600008292BD0D9B901231370517096F8C330AC
:103D70005B0043F00103137002232AE198470028F7
:103D8000DCD100200DE06288100A011F0129844661
:103D900005D9072803D8716AD2B20C781CB96FF024
:103DA0001500BDE8F0874E78664503D19A4200F0D1
:103DB0000B8101332144F0E70B780AE196F8BA3021
:103DC0001370012305E101390829E8D801A353F84C
:103DD00021F000BF6D3E00009F3D00007B3E0000D3
:103DE0009F3D0000F93D00009F3D00009F3D000009
:103DF0009F3D0000053E0000A07802F051F9002828
:103E0000BFD0CCE76388756A63BBFFF717FE638892
:103E100086F8BA30F369002BB3D06A49032098477B
:103E2000AFE76B78042B10D0052B11D0022B04D1F7
:103E30006F796388BB4208BF01202B781D442B7823
:103E4000002BEED10028AAD0DFE795F80380F4E735
:103E50006388BB42F1D1B8F1000FEED12846FFF7DD
:103E600005FFEAE7FF270020B846E8E76388012B53
:103E700095D1002386F8C33083E76388012B8ED168
:103E8000F8E796F8BA30D5F800C0002B87D0756AED
:103E9000A38894F804E02A46107800283FF47FAF06
:103EA0005178022904D192F80480F04500F2938001
:103EB0000244F1E78CF800208CF80120396060E7BB
:103EC000154494E00B2A7FF46AAF00274FF0FF08F7
:103ED000C146BA4606E06B78042B0FD0052B21D0E3
:103EE0002B781D442B78002BF5D1F36913B1514683
:103EF00007209847002F7FF444AF50E795F80280E1
:103F0000A38895F803909845EAD163889945E7D14D
:103F1000B8F1070F1CD806EB0803AA4683F8BB903C
:103F20000127DDE7A3884345DAD1A3784B450AD0C2
:103F3000AF78384600F0F8FB3846FFF767FEB0FA76
:103F400080F77F09CCE72846FFF790FE0746C7E7D2
:103F5000AA460027C4E794F900206378002A18DAFB
:103F6000002B7FF41CAF24792D6863060AD020460D
:103F7000FFF76CFD00283FF412AF96F8BA30002B23
:103F80003FF40DAF2946204602F05CF900236B7028
:103F9000F2E6012B08D0032B7FF401AF6388002BDE
:103FA0007FF4FDAE012103E0618800297FF4F7AEC4
:103FB000A088FFF793FD00287FF4E3AEEFE600BF93
:103FC000540C00200E0D0020022829607FF4F4AE6E
:103FD0004B883B60D5E694F9000062780028BFF674
:103FE00071AF002A3FF466AF0A2A7FF4D8AE2A7870
:103FF000002A3FF4D4AE697804297FF461AFA97830
:104000008B427FF45DAF072B96BF9B19002393F87B
:10401000BB308CF80030D4E613B5134C237DCBB9FC
:10402000E268A168019201AB802008F0EFFC019AE0
:10403000A3681344A360E3689B1AE36043B93AB1F1
:104040002369E2889A4203DD9B0601D1012323758F
:1040500002B010BD00231A4619468020237502B015
:10406000BDE8104002F034B9540C002070B58AB09D
:1040700000230D4601930646002868D1002940D14F
:1040800008220B460DEB020108F0BBFD002804DA04
:10409000802002F07DF80AB070BD324C029A226096
:1040A000039A626004F13802A2609DF90820BDF80D
:1040B0000E302575002AC4E9035515DB802B0FD976
:1040C000294B09930223089328482B4608AA4FF44A
:1040D0008251FEF7D5FF802002F05AF82846D8E733
:1040E00013B1C4E90333D6E7FFF7CCFC0028CFD0E7
:1040F000E28823699A42D4BFE260E360FFF78CFF55
:10410000C9E7184CD4E90212002A01AB05DC0246CB
:1041100008F077FD0028BEDABAE708F072FD002843
:1041200004DA802002F034F83046B2E7019AA3683E
:104130001344A360E3689B1AE360002BABD104F146
:104140003803A360FFF79EFC0028D7D1A0E78028A2
:10415000A1D1044BDA68002AD0D11B7D002BCDD130
:1041600099E700BF540C002097F9000014DC000010
:10417000054B064A9A62064ADA62064A1A63064AFA
:1041800058629A6100207047540C00202D3D0000B9
:1041900061390000013A0000A139000010B5094B57
:1041A00093F8B84054B900F0D9F818B9BDE81040F8
:1041B000FFF77EBCFFF7DCFF204610BD6FF07700F5
:1041C000FBE700BF540C00202DE9F34104463B4DB2
:1041D0003B484FF0FF324FF0FF3306F087FC95F875
:1041E000B860002E67D137482C62E86102F0E4F92C
:1041F00001F024FF041E42DB00F0D8FA041E3EDB6F
:1042000040236846ADF802308DF804608DF80060F8
:1042100001F08AFF041E32DB802768468DF80070AB
:1042200001F082FF041E2ADB2749304602F0B0F974
:10423000041E24DB2449384602F0AAF9041E1EDBC2
:10424000224CDFF88C80444520D3002002F016F881
:10425000041E14DBD5F8C430802043F00103C5F8F8
:10426000C43002F00BF8041E09DBD5F8C43043F467
:104270008033C5F8C430012385F8B83000241048D5
:1042800006F0AEFC204602B0BDE8F081276A0026A9
:10429000227FF3B29A4201D82434D4E707EBC30259
:1042A00057F83310107902F073F901360028EFD077
:1042B0004FF0FF34E3E76FF07704E0E7540C0020A1
:1042C000FC0200205D3B00006D400000C4030020A4
:1042D000E803002030B51F4B8BB005AA03F1100591
:1042E00018685968144603C40833AB422246F7D114
:1042F0001B7823701022002101A808F012FC122262
:104300000021154808F00DFC102101A808F06CFDF3
:1043100000281BDD0828B8BF0820093801AB0E496A
:104320001A18002012F8013F0AAC04EB131403F032
:104330000F0328336B44013014F8144C13F8143C69
:104340000C7008284B7001F10201EBD102480BB050
:1043500030BD00BFBBF90000471C00202DE9F04F25
:10436000834C8BB000AF00264FF0011BB2463546A0
:10437000B046237843B97F4B02349C42F3D17C484A
:104380002C37BD46BDE8F08F6378052B05D8DFE8F4
:1043900003F0A60403A6073FA04623781C44E8E7E1
:1043A000E378002BF9D1A37843B30AF1010A5FFA4D
:1043B0008AFAF2E76A68944223D024359D42F9D301
:1043C0006D4688B06A466C4BC2E90534032342F857
:1043D000103F6A4800234FF4C251FEF751FEAD462C
:1043E000674B7B6202233B626448002307F1200293
:1043F0004FF48251FEF744FE0020C1E7614D624B4D
:10440000DCE7AB68002BD0D0514620469847CCE77C
:10441000002D62D15D4B7B6202233B625748002333
:1044200007F120024FF48251FEF72AFED8E7296AED
:10443000A07801EBC2010B79984205D001322B7FA5
:104440009A42F4D3524BE6E74FF00109E07800F0CE
:1044500003003875207994F805C040EA0C20788272
:1044600094F9020000285FFA89F328DA09F11000B4
:104470004FF0010C0CFA00F010EA0B0F27D143F0BB
:104480008000387407F11000C7E90131FA6001F0CB
:1044900019FED7E902127B68C8B93A7CA27012F003
:1044A000800F18BF10330A7118BFDBB24FF0010242
:1044B00014BF9A4002FA09F24BEA020B6DE70120A1
:1044C00000FA09F010EA0B0F01D11846D9E709F1FB
:1044D0000109B9F1100FB9D1B0E70022AFE7032EFF
:1044E0002AD1FFF7F7FE8146A8B108F0F3FAF86089
:1044F00088B1284808F0EEFAFA68824217D0264BB5
:104500007B6202233B621D48002307F120024FF427
:104510008251FEF7B5FD23786FF00201E218091B06
:1045200004EB5303D1420ED50136F6B235E74946C6
:10453000A01C08F0EBFAEEE7002EECD1B8F1000F6A
:104540000AD1164B67E74FF0000002F8010C13F890
:10455000010902F8020DE5E7A4EB080388F8023030
:10456000C3F3072388F8033088F804A0DCE700BF12
:1045700040030020C2030020CCF900000CDC000046
:10458000B2FA0000C4030020E8030020ECF90000A8
:104590002DFA0000BBF900004AFA000095FA00006D
:1045A00010B5094B00211A461C78844204D15C687E
:1045B00014B102EB811010BD0131042903F1400355
:1045C000F2D10020F7E700BF1C0D00202DE9F043D9
:1045D00083B050F8283C10F82C5C103300AF044630
:1045E00011D1036950F8202C13F002064ED00ABBFB
:1045F00013F0040304D11A461946284608F006FAB7
:10460000002344F8283C54F8283C10330ED054F8CA
:10461000186C5EB154F81C8C54F8149C08F0D8FE49
:1046200000286FD03D48214608F0D0FF0C37BD462A
:10463000BDE8F08350F8241C3B1D284608F0E6F93D
:1046400098B16E4688B06A46354BD561C2E90530EF
:10465000042342F8103F334800234FF40151FEF782
:104660000FFDB5466FF01503CBE77A6854F8243C8C
:10467000134444F8243C54F8203C9B1A44F8203C52
:1046800054F81C3C134444F81C3CBCE750F8241C70
:104690003B1D284601F0BEFE88B1E84688B06A4658
:1046A0001F4BD561C2E90530042342F8103F1D4875
:1046B00033464FF40151FEF7E3FCC546D2E77E686E
:1046C00054F8243C334444F8243C54F8203C9B1BCD
:1046D00044F8203C54F81C3C334444F81C3C002E65
:1046E0008ED0284601F06EFFB6FBF0F303FB106698
:1046F000002E85D154F8203C002B81D0284601F0B3
:10470000EFFE80E744F8180CA4F1100006F0D8FA88
:104710004A4641462846B04788E700BFC00A002005
:10472000E0FA00002CDC000010B54FF04003EFF37E
:10473000118483F31288BFF36F8FFFF731FF50B1FD
:104740004368103307D16FF08B03436000F12C01F5
:10475000034808F03BFF84F31188BFF36F8F10BD4F
:10476000C00A002070B50F4C04254FF04003EFF352
:10477000118683F31288BFF36F8F6368103307D1FC
:104780006FF08B030848636004F12C0108F01EFFF2
:1047900086F31188BFF36F8F013D04F14004E4D12B
:1047A00070BD00BF1C0D0020C00A002070B50A4C6F
:1047B0000A4E00253146204608F0EBFE0122A4F106
:1047C00010001146013508F0A7FE042D04F1400445
:1047D000F0D1002070BD00BF480D0020CD45000085
:1047E000014910220A60704710ED00E072B64040A7
:1047F00080F31188BFF36F8FBFF34F8F30BF62B666
:10480000BFF36F8F704700BF2DE9F047814600AFBF
:104810000C4600294CD06E468AB0D1E90012A3683C
:104820006D462748A8464FF0050AC5E90501C5E9C8
:10483000072348F810AF2348424600234FF4215184
:10484000FEF71EFCB546D4E903126369AD461E4867
:10485000C5F810A0C5E90501C5E9072319480023DB
:1048600042464FF42151FEF70BFCB54688B0E36990
:104870006D46164AA8464FF0030AC5E9052348F8D5
:1048800010AF1048002342464FF4C251FEF7F8FB28
:10489000B546A369AD460E4AC5F810A0C5E9052383
:1048A0000848002342464FF4C251FEF7E9FBB546E3
:1048B0002146484605F096FEBD46BDE8F08700BF9C
:1048C0000AFB0000D4DB000039FB000068FB00009D
:1048D00077FB000040B2002807DB044A41090123AE
:1048E00000F01F00834042F82130704700E100E0F3
:1048F00040B200280CDB4309064900F01F002033BA
:104900000122824041F82320BFF34F8FBFF36F8F06
:10491000704700BF00E100E0054B420900F01F00B6
:1049200053F82220012303FA00F01040704700BF23
:1049300000E100E040B2D30754BF0231002100285B
:10494000ACBF00F16040074A4FEA4113ACBF00F52D
:10495000614000F00F00DBB2B4BF135480F80033A5
:10496000704700BF14ED00E008B572B6044B5A69F9
:104970001AB100225A6108F038FD62B608BD00BFC6
:10498000CC1B002030BFFFF7FDBF00BF08B5084BB0
:10499000084A23F07F039360BFF34F8FBFF36F8FFD
:1049A00005F0DCFE06F0BAFE00F0AAFB05F01AFFE7
:1049B0000000000000ED00E0094A0A499368096818
:1049C0009967094958674B6843F080534B6000234F
:1049D00083F31188BFF36F8F9368986F704700BFA0
:1049E000CC1B0020FCDE000000ED00E012498A68CC
:1049F0004FF030001044EFF3098C80E8F01F4020A6
:104A000080F31288BFF36F8F0C4F4FF000668A69F6
:104A10008A603E60506F0023536780F3118804B5AD
:104A2000104600F009FCBDE8044002F1300090E8B7
:104A3000F01F8CF309887047CC1B002004ED00E0C8
:104A40001EF0040F0CBFEFF30880EFF309808169BB
:104A500011F8021C0229FFD001B508F01FF801BDB2
:104A600042F8203C009B42F81C3C0A49019B42F85A
:104A7000183C029B42F8143C21F001014FF0807376
:104A800042F8043C42F8081C0023203A02654367C0
:104A9000704700BF2BBD0000094A0346906870B103
:104AA00013F1160F406E05D0A0F140029A4205D8CE
:104AB000834203D2814228BF002070470020704704
:104AC000CC1B002008B5094B0D461446986000F039
:104AD000B3FB204685F30988002163B681F3118872
:104AE000BFF36F8F0022002307F01FF9CC1B0020BB
:104AF00001B572B60B4A506900281EBF00215161F2
:104B000008F073FC62B6EFF30580A0F110004FEAE5
:104B1000C0000549014409C99847BDE8014003495F
:104B200008470000CC1B002044010020314B00004E
:104B3000044B99689869884203D003494FF080522A
:104B40000A607047CC1B002004ED00E02DE9F04125
:104B500086B0064600AF0D463F4B7B6102244FF402
:104B600082513E483C6107F1100207F0A6FF3C4B22
:104B70009B6AD9046DD53B4B3848C7E9044307F11C
:104B800010024FF4825107F098FF1720344B9B6AB4
:104B90001A050BD5344B7B61022330483B6107F18A
:104BA00010024FF4825107F088FF18202C4CA36AA2
:104BB0009B0523D5E8462D4B7B6102233B6107F122
:104BC00010024FF48251254807F077FFA36BA26AC9
:104BD000110412D588B06A4625492048C2E9051358
:104BE000032342F8103F4FF4C25107F066FFC54659
:104BF0001EB1A36A23F40043A3621920184B9B6AD9
:104C00005A050BD51B4B7B61022314483B6107F10E
:104C100010024FF4825107F050FF1A20104B9B6A8C
:104C2000DB050BD5144B7B6102230C483B6107F17C
:104C300010024FF4825107F040FF1B20084A936A8C
:104C400043F47F439362183700232B70BD46BDE8C1
:104C5000F08116209AE700BFA5FB0000D4DB00001E
:104C600000ED00E0BBFB0000CCFB0000DFFB000020
:104C7000F8FB00000DFC000028FC000010B586B019
:104C8000364B3748059304AA02244FF4825104940A
:104C900007F013FF334B9B6A9A015DD5324B3048C6
:104CA00004AA4FF48251CDE9044307F006FF1E2009
:104CB0002C4B9B6ADB010AD52C4B2948059304AA8F
:104CC00002234FF48251049307F0F7FE1F20254B77
:104CD0009B6A1C030AD5264B2148059304AA02238C
:104CE0004FF48251049307F0E8FE21201D4B9B6A8C
:104CF00059030AD51F4B1A48059304AA02234FF4FF
:104D00008251049307F0D9FE2220164B9B6A9A0326
:104D10000AD5194B1248059304AA02234FF4825175
:104D2000049307F0CAFE23200E4B9B6ADB030AD5CF
:104D3000124B0B48059304AA02234FF482510493AB
:104D400007F0BBFE2420074A936A6FEA03436FEA29
:104D50001343936206B010BD1D20A9E740FC00007C
:104D6000D4DB000000ED00E058FC00006BFC00000C
:104D700085FC0000A3FC0000C8FC0000E2FC000071
:104D80002DE9F04786B0814600AF8A469046454BF4
:104D900045487B6102243C6107F110024FF48251C7
:104DA00007F08BFE414B9B6AD80645D5404B3E48E9
:104DB000C7E9044307F110024FF48251112407F0B0
:104DC0007CFE3A4B9B6A19070BD53A4B7B61022359
:104DD00035483B6107F110024FF48251122407F06D
:104DE0006CFE324DAB6A9A0728D56C46324B7B611C
:104DF00002233B612C4807F110024FF4825107F067
:104E00005CFE6E6BAB6A1B0649D588B06A462B4BBD
:104E10002548C2E90536032342F8103F4FF4C2513A
:104E200007F04BFEA546BAF1000F03D0AB6A23F0A2
:104E30008003AB62132403E01024C2E76FF0150671
:104E40001A4B9B6AD8070BD51D4B7B610223164872
:104E50003B6107F110024FF48251142407F02DFE3C
:104E6000124B9A6AD10602D49A6A92070AD55B68F5
:104E70001B0507D549463046FFF70EFE10B180F3FB
:104E800009880224094A936A43F0FF03936220468B
:104E90000023183788F80030BD46BDE8F0876FF072
:104EA0001506C7E70DFD0000D4DB000000ED00E0B3
:104EB00023FD0000CCFB000056FD00006EFD00004D
:104EC00084FD00002DE9F043774B8BB0D3F80480CC
:104ED00000AF0546C8F30804002686F31188BFF327
:104EE0006F8F02F07F43B3F17F4F0ED102F00C03BE
:104EF000082B19D16D4BFB6102236D48BB6107F193
:104F000018024FF4825107F0D8FD002635460023E1
:104F1000FB71E31E092B00F2A680DFE803F00A997B
:104F20009C95A4A4A4A4A49F10074CBF0D460126E1
:104F3000EDE7E9465F4BFB614FF0020807F118020D
:104F40005B48C7F818804FF4825107F0B6FD002384
:104F5000554CFB71E36A9A070BD5574BC7E906839B
:104F6000534807F118024FF4825107F0A6FD0024C0
:104F700041E0E36A002B01DA504BEFE7E36A5B00A4
:104F8000F5D54F4B4A48C7E9068307F118024FF49D
:104F9000825107F092FD6369AA6943F480736361EB
:104FA000BFF34F8FBFF36F8F636932F8022C23F486
:104FB00080736361BFF34F8FBFF36F8F4DF6027342
:104FC0009A4208D0A36ADBB28BB3FA1D01212846AE
:104FD000FFF7D6FE3AE088B02B686A463949344874
:104FE000C2E90513032342F8103F4FF4C25107F002
:104FF00064FD2C68CD46FB79ABB92022294607F128
:10500000080007F083FD7B6A002E47D0C3F3080237
:1050100022B96FEA53236FEA43237B6207F1080149
:105020002046FFF7F1FB2C37BD46BDE8F083A36AAD
:1050300013F47F4F04D0F91D0120FFF787FD05E031
:10504000A36AB3F5803F92D3FFF718FE0446D2E778
:10505000FA1D0021BBE7F91D0020EEE71A4BFB61AA
:105060000223BB617CE7194A194B18F4F87FE84624
:105070008AB018BF13466A4616490D48C2E905139F
:105080004FF400731384103C134BD4614FF411514F
:1050900042F8103F07F011FDC54668E723F4FF739F
:1050A00023F00103B9E700BF00ED00E0D1FD0000EF
:1050B000D4DB0000FCFD000013FE000034FE000005
:1050C00042FE000061FE00007DFE0000B8FD000011
:1050D000A3FD0000A1FE000004000001024A536984
:1050E00043F010035361704700ED00E0EFF30880D8
:1050F000EFF3098101B57246FFF7E4FE01BD00BF81
:10510000044800234021C2180133282B82F80013E1
:10511000F9D1704700E100E0002080F31488BFF36C
:105120006F8FFDF715FD00200D490860BFF34F8F0D
:105130000C4880F3088800F02BF8402080F3118899
:1051400009484FF40461401880F30988EFF3148094
:105150000221084380F31488BFF36F8FFFF716FC1A
:1051600094ED00E040380020C02A00200749D1F823
:1051700090200023C2F307221846934200DB7047B9
:10518000C1F89830C1F8A0000133F6E700ED00E067
:1051900008B572B6002383F31388FFF7E7FF144BBB
:1051A0004FF0FF32C3F88020C3F88420C3F8882072
:1051B000C3F88C20C3F89020C3F89420C3F898203B
:1051C000C3F89C20C3F88021C3F88421C3F8882148
:1051D000C3F88C21C3F89021C3F89421C3F8982117
:1051E000C3F89C2162B6BFF34F8FBFF36F8F08BD2A
:1051F00000E100E0084B9B6883420BD1EFF305838D
:1052000043B1064B5A6842F080525A605A6A22F4FF
:1052100000425A6206F010BACC1B002000ED00E0FC
:10522000024B034A0348012100F092B8008000209D
:105230000000002060DD0000426E054B403A1A601D
:10524000044A4021C3E901121846012100F08AB83E
:105250001C0E002000000B152DE9F041DFF8B4E032
:105260009C4600AF154600238B421ADA4468002C96
:105270004DD0BCF1000F1DD0661E344215D06C46D7
:1052800088B06A462449C2E90513032342F8103F57
:10529000224800234FF4C251FDF7F2FE6FF01505CE
:1052A000A5462846BD46BDE8F0811F2CE7D9026817
:1052B0001642E4D1202C026886685FFA85F814D97A
:1052C000B4F1004F13D8013CB4FA84F4C4F11F04C4
:1052D0006400B8F1070F46EA04060AD96C4688B0A4
:1052E0006A460F4BC2E90535CFE70824F1E73E24B3
:1052F000EFE722F01F022A4342F0100246F00106B7
:10530000CEF89850CEF89C200135CEF8A06001333D
:105310000C30A9E700ED00E0B8FE0000CCDB000097
:10532000DBFE0000044B0522C3F89420BFF34F8F2F
:10533000BFF36F8F704700BF00ED00E0BFF35F8FDA
:10534000024B0022C3F89420704700BF00ED00E03C
:1053500010B5034C01232278FFF77EFF207010BDAB
:10536000591C002008B5094A00231278FFF774FF82
:1053700010F1160F03D0064B0022072800DD08BDF0
:10538000C3F89800C3F8A0200130F6E7591C0020AC
:1053900000ED00E014490868082810B521D8FFF78F
:1053A000CDFF124C49680022904201F10C0105D159
:1053B0000F4B1870FFF7B6FF002010BDC4F89820FF
:1053C00051F80C3C23F01F03134343F01003C4F8BF
:1053D0009C3051F8043C43F00103C4F8A030013282
:1053E000E2E74FF0FF30E8E76CDD000000ED00E0A1
:1053F000591C0020014B1860704700BF340000208A
:105400004FF08043C0B2C3F81C05BFF34F8F05496E
:10541000054BCA6802F4E0621343CB60BFF34F8FC1
:1054200000BFFDE700ED00E00400FA0520B1034BEA
:10543000800143F001031847704700BF70DC000093
:1054400080B500AF88B06A46064BC2E90530032339
:1054500042F8103F04484FF4C45107F092FBBD4698
:1054600080BD00BF14FF00001CDC000070B50646C4
:1054700086B00D460146354807F0E0FA044628B9E3
:10548000304606B0BDE87040FFF7DABF0A2D5AD8A3
:10549000DFE805F006112123323440595959300014
:1054A0002B4B05932B48022304AA4FF486510493F7
:1054B00007F067FB1EE0284B05932648022304AA49
:1054C0004FF48651049307F05CFB002304F8043C7E
:1054D00004F8033C0EE0214BE3E7214B05931D4804
:1054E000022304AA4FF48651049307F04AFB0123D8
:1054F00004F8043C06B070BD1A4BDDE71A4B059367
:105500001448022304AA4FF48651049307F039FB90
:105510000123DDE7154B0F480593022504AA4FF43C
:105520008651049507F02DFB14F8033C002BE1D0C5
:105530000F4B084804AA4FF48651CDE9045307F0F5
:1055400020FB0023C4E70B4BABE700BF400E00205D
:1055500035FF00001CDC000042FF000058FF000087
:1055600069FF00007BFF00008FFF0000A0FF00002C
:10557000AFFF0000BCFF00002DE9F843044600AF78
:10558000884601792648914607F064FA0646A0B994
:10559000A3886C4688B06A4622492348C2E90513AD
:1055A000032342F8103F4FF4C45107F0EAFA6FF0BA
:1055B0001200A546BD46BDE8F88394F900300068A6
:1055C0006578002B1CDA012D12D0AB1E012B14D9EB
:1055D0006C4688B06A46154B1348C2E9053503236B
:1055E00042F8103F4FF4C25107F0CBFAA54604E051
:1055F00056F8083C0BB11D686DB96FF08500D9E70E
:10560000092D02D0A5F10A03E0E756F8083C002B6B
:10561000F3D05D68F0E74B4642462146A847C9E70C
:10562000400E0020CAFF00001CDC0000F1FF00005B
:105630002DE9F84390F90030002B00AF04460D46E9
:10564000164604DB6FF01500BD46BDE8F8830388FD
:1056500023F0E0039BB240F201629342F2D190F852
:105660000490B0F802801B4849464FEA182807F01A
:10567000F1F978B96C4688B06A46174B1748C2E909
:105680000539032342F8103F4FF4C45107F079FA6B
:10569000A546D7E7B8F1210F05D0B8F1220F0FD0FA
:1056A0006FF08500D0E70368E1885B685B6813F8FA
:1056B000092F914294BF29602A6033600020C3E71C
:1056C000E38850F80C2C9A4294BF2A602B6050F863
:1056D000103CF2E7400E0020CAFF00001CDC000076
:1056E00080B500AF88B06A46064BC2E90530032397
:1056F00042F8103F04484FF4C45107F042FABD4647
:1057000080BD00BF0A0001001CDC000070B504462B
:105710000D4601460A4807F0ABF920B92046BDE81E
:105720007040FFF7DDBF022D08D150F8083C2BB1C7
:105730001B691BB1BDE870400068184770BD00BF11
:10574000400E002010B50469C4E90012A3600023D4
:105750006361064B2061596804F1140211B9C3E971
:10576000002210BD0A605A60FBE700BF400E002017
:1057700030B544680069057B87B045B1407B30B9DE
:10578000206A007907B0BDE8304007F03FB9074B09
:1057900005930748022304AA4FF48451049307F0A9
:1057A000F0F96FF00A0007B030BD00BF3000010013
:1057B0001CDC0000020600F07F0312D5082B05D187
:1057C000010700F00F0306D50E48704710F0780F60
:1057D00012D100F00F034C2000EB43100A4B184489
:1057E0007047082B05D1020700F00F0306D50748C4
:1057F000704710F0780FF6D000207047044800EB97
:1058000043107047940F0020480E0020B410002071
:10581000B40F00200149024807F0D8BE700E0020E6
:10582000000900200146014807F06BBE300300204C
:1058300002480022002305F00FBA00BF3003002009
:1058400010B5054CFFF7F4FF20B1011D204607F00D
:1058500096FDF7E710BD00BFCC02002010B588B060
:1058600018480022002301A905F03CF830B3164B7C
:105870001648079306AA4FF482510224069407F0B3
:10588000A0F9FFF7DDFF0F480022002301A905F072
:1058900029F850B10E4B0D4806AA4FF48251CDE9BC
:1058A000064307F08EF900200AE0019804234060C7
:1058B0000374FFF7B7FFFFF7ADFFF4E7019840600F
:1058C00008B010BDCC0200205100010024DC000013
:1058D0006F00010098B5022800AF11D8104B1C5C76
:1058E000FFF7BCFF50B1002202740472FFF79AFF69
:1058F0000C4B93F824300BB1FFF78CFFBD4698BDDD
:105900006C4688B06A46084BC2E90530032342F86A
:10591000103F06484FF4C25107F053F9A546EDE792
:1059200061020100480E00208B00010024DC000011
:105930002DE9F04190F80280064600AF4046FFF79F
:1059400039FF18F0800FF478054625D09CB1032C60
:105950001FD06D4688B06A462A4BC2F81C80C2E947
:105960000534042342F8103F27484FF4015107F053
:1059700028F9AD460DE0FFF771FF034648B101225B
:10598000AC770274032202739D60FFF74BFFFFF7B1
:1059900041FFBD46BDE8F08154B1012CD9D1FFF7DC
:1059A0005DFF03460028F4D06C7704740473EBE7C2
:1059B000FFF754FF0028ECD0B278144B12F0800FA0
:1059C00002F0080111D041B1D3F8A836EB600123F1
:1059D0000374022303738560D7E702F00F021421DA
:1059E00001FB0233D3F80836F0E711B1D3F8A8373A
:1059F000ECE702F00F02142101FB0233D3F8083761
:105A0000E4E700BFA600010024DC000000700240B3
:105A100013B5124804F080F8114B98421AD111487E
:105A200003F06EFA0024104803F094FA0F4910486E
:105A300000944FF0FF334FF4806205F099FA0D495E
:105A40000B4807F0CBFC0C480C4907F0A2FD2046A0
:105A500002B010BD6FF00400FAE700BFC15A0000A9
:105A60000000AD0B6402010090DD000080260020E4
:105A700000090020D2000100700E0020995C000097
:105A800010B50E49BFF35B8F002351E8002F012AA8
:105A900003D141E800300028F7D1BFF35B8F0CD170
:105AA00051F8044C1439204606F009FC783004D132
:105AB0002046BDE8104006F0DDBB10BD680E00209A
:105AC0002DE9F04188B0064600AF1422002107F10D
:105AD0000C0007F026F83378013B052B21D8DFE8CE
