:1000000040330020F93D0000239E0000CD3D00005C
:10001000CD3D0000CD3D0000CD3D000000000000C2
:100020000000000000000000000000002137000078
:10003000CD3D000000000000CD360000CD3D0000A9
:10004000D13700009D5B0000D1370000D1370000A0
:10005000D1370000D1370000D1370000D137000080
:10006000D1370000D1370000596A0000D1370000B5
:10007000D1370000D1370000D1370000D137000060
:10008000D1370000D1370000D1370000D137000050
:10009000E15B0000D1370000D1370000D13700000C
:1000A000D1370000D1370000D1370000D137000030
:1000B000D1370000D1370000D1370000D137000020
:1000C000D1370000D1370000D1370000D137000010
:1000D000D1370000D1370000D1370000D137000000
:1000E00053B94AB9002908BF00281CBF4FF0FF319F
:1000F0004FF0FF3000F00CB8ADF1080C6DE904CE04
:1001000000F072F8DDF804E0DDE9022304B0704786
:10011000704700BF70B5174C6078002823D10120CC
:10012000607000F0CFF96FF0270528B900F0E0F912
:1001300010B900F0E7F920B10F486060A570082001
:1001400010E000F0A1F940B900F0A8F928B900F0DA
:10015000AFF910B900F0C0F930B107483130606034
:10016000A5700420E07070BD40F23F11742000F0D3
:1001700017F80000000000202A050000BFF34F8F91
:1001800005480168054A01F4E06111430160BFF3CD
:100190004F8F00BFFDE700000CED00E00400FA0502
:1001A0000EB572B60F4A5568D5B1002203466E46A9
:1001B0000A2403E0B0FBF4F0521CD2B20028F9D1BB
:1001C000B05409E0B3FBF4F004FB1030B3FBF4F3DC
:1001D000521ED2B23030B054002AF3D13046A84774
:1001E000FFF7CCFF080000202DE9F04786468C463B
:1001F0000846089E154674461946002B40F0C280FA
:100200008542B2FA82F245D94AB1C2F1200300FA1E
:1002100002FC2EFA03F3954043EA0C0C94404FEA9B
:10022000154EA8B2BCFBFEF8230C0EFB18CC08FB45
:1002300000F943EA0C43994528D9EB1808F1FF3738
:1002400004D2994502D9A8F102072B44A3EB090374
:10025000A4B2B3FBFEFC0EFB1C330CFB00F044EA23
:100260000344A04214D92C190CF1FF3304D2A0424C
:1002700002D9ACF102032C44241A43EA07401EB110
:10028000D440002334607360BDE8F0874746DDE763
:100290006346F1E792BB431B01214FEA154EAFB213
:1002A000B3FBFEFC200C0EFB1C330CFB07F840EAF2
:1002B0000343984562D9EB180CF1FF3004D29845FE
:1002C00002D9ACF102002B44A3EB0803A4B2B3FBA8
:1002D000FEFC0EFB1C330CFB07F744EA0344A74269
:1002E0004ED92C190CF1FF3304D2A74202D9ACF13C
:1002F00002032C44E41B43EA0040C0E7C2F12003A0
:1003000020FA03F1954090402EFA03F303434FEA9D
:10031000154EAFB2B1FBFEFC0EFB1C10190C0CFB12
:1003200007F841EA0041884504FA02F422D9691825
:100330000CF1FF3004D2884502D9ACF10200294407
:10034000A1EB08019BB2B1FBFEFC0EFB1C110CFBE8
:1003500007F743EA01439F420ED9EB180CF1FF3136
:1003600004D29F4202D9ACF102012B44DB1B41EACB
:10037000004192E76046E3E76146F7E76046A3E79E
:100380006346B7E7834206D916B9002108467BE7E2
:10039000C6E900E0F9E7B3FA83F78FB9834201D3E6
:1003A000724508D8BEEB020460EB030301209C46B3
:1003B0001EB9002168E73846FAE7C6E9004CF8E7BD
:1003C000C7F1200CBB4022FA0CF41C432EFA0CF1AE
:1003D00020FA0CF3B84001434FEA14490EFA07F52E
:1003E000B3FBF9F81FFA84FE09FB18300B0C08FB6D
:1003F0000EFA43EA00439A4502FA07F240D9E3189D
:1004000008F1FF3004D29A4502D9A8F10200234432
:10041000A3EB0A0389B2B3FBF9F809FB183308FB15
:100420000EFE41EA03418E452CD9611808F1FF33D5
:1004300004D28E4502D9A8F10203214443EA0040C8
:10044000A0FB0298A1EB0E014145CE46434602D3E4
:1004500006D14D4504D2B9EB020E68EB0403013816
:10046000002EA6D0B5EB0E0261EB030101FA0CFCE5
:1004700022FA07F34CEA0303F940C6E9003198E792
:100480004046C5E74346D9E74FF08050D0F83001E9
:100490000F2801D000207047012070474FF0805096
:1004A000D0F830010A2801D00020704701207047A1
:1004B0004FF08050D0F830010E2801D00020704756
:1004C000012070474FF08050D0F83001102801D043
:1004D00000207047012070474FF08050D0F8300165
:1004E000062803D0401C01D000207047012070472F
:1004F0004FF08050D0F830010D2801D00020704717
:10050000012070474FF08050D0F83001082801D00A
:100510000020704701207047FFF7FCBDD8ECF0F4D5
:10052000F8FC0002030405060708000000000000B4
:1005300000000000000000000000000000000101B9
:10054000010102020202030303030404040405057B
:10055000050506060708090A0B0C0D00000000003F
:10056000000000000000000000000000000000018A
:10057000010101020202020303030304040404054F
:10058000050505060606080910B586B00E4B05934D
:1005900002240494002304AA4FF486510B4801F06E
:1005A0006BFE08F009FD0A4BCDE904430748002320
:1005B00004AA4FF4865101F05FFE4FF48030002111
:1005C00008F01AFAFEE700BF04B1000018AE000000
:1005D00013B1000038B50B4AD478034604F01F0469
:1005E000012000FA04F44FF0A0452BB1C5F80845EE
:1005F00008F0E4FC002038BD08F0E0FCC5F80C452C
:10060000F8E700BF10000020F0B517288DB00446B1
:1006100000AF58D01A2812D014285AD03B4BFB6296
:1006200002233B48BB6207F128024FF482516FF06E
:10063000850408F0C5FC20463437BD46F0BDB1F551
:10064000486F4AD34FF448636E468AB06A46B1FB9E
:10065000F3F5304B5361304B2D48C2E90631EBB214
:100660001362052342F8103F4FF4245108F0A8FC10
:100670003B1DB54664F07F04BB60022600230120C9
:100680003C71C7E903637D717B61FFF7A3FF0446FB
:100690000028D0D1024607F10801204806F060F991
:1006A0001F4B984205462CD01E4B1948C7E90A63D8
:1006B00007F128024FF4825108F082FC2046FFF730
:1006C00089FF2C46B7E7184B994206D84FF4A07320
:1006D000BAE740F6F613994211D96C4688B06A46DB
:1006E000124B0B48C2E90531032342F8103F4FF487
:1006F000C45108F065FCA5466FF015049BE70A237A
:10070000A2E72046FFF766FF044694E738B10000F1
:1007100048AE000065B10000F5B30000B8AE0000BF
:100720000000AD0B96B10000C03E010046B10000D4
:1007300070B58CB00E468DF806000120FFF74AFF19
:100740000446E0B90DF1060302930DF107020123FF
:10075000CDE9042302A902461448039306F000F9E8
:10076000134B984205460DD0124B0B9312480223AF
:100770000AAA4FF482512C460A9308F021FC204625
:100780000CB070BDA02008F019FC9DF80730337044
:100790002046FFF71FFF04460028F0D1132008F081
:1007A0000DFC064B83F85140E9E700BFB8AE0000EE
:1007B0000000AD0BB6B1000048AE000028030020D9
:1007C00070B58CB060F07F008DF8040001208DF8CA
:1007D0000510FFF7FFFE0446D8B9022601ABCDE9AC
:1007E00003600590024602A91348029306F0B8F888
:1007F000124B984205460FD0114B12480AAA4FF4EB
:100800008251CDE90A6308F0DBFB2046FFF7E2FEE8
:100810002C4620460CB070BD222008F0CFFB2046AD
:10082000FFF7D8FE04460028F3D1922008F0C6FB5B
:10083000054B83F85140ECE7B8AE00000000AD0B6B
:10084000D3B1000048AE000028030020F0B5A0F1AD
:10085000640242F67C638DB09A4200AF14D96C46B4
:1008600088B06A462B4BC2E90530032342F8103F9B
:1008700029484FF4C25108F0A3FBA5466FF01504B8
:1008800020463437BD46F0BD6D4664248AB0B0FBC7
:10089000F4F4013CE4B26A46204B5361204B1462ED
:1008A000C2E90630052342F8103F1B484FF424519B
:1008B00008F086FB8F233B713B1DBB60AD460023D8
:1008C000022601207C71C7E903637B61FFF782FE8A
:1008D00004460028D4D1024607F10801114806F069
:1008E0003FF8114B984205460ED0104B0A4807F1CD
:1008F00028024FF48251C7E90A6308F061FB2046E1
:10090000FFF768FE2C46BBE72046FFF763FE044670
:10091000B6E700BFF1B1000048AE00000BB2000026
:100920000BB40000B8AE00000000AD0B32B2000006
:100930002DE9F04FA349A44EA4488FB04FF00053C7
:1009400000248B6003238B8100AF2346224686F868
:10095000504005F057FF9E4B984240F0308186F89A
:1009600051409C4B7B63022407F130029A483C6360
:100970004FF4865108F024FB5A213A20FFF720FF5C
:1009800081460120002108F037F807F120012046B8
:10099000FFF7CEFE0134E4B2072C01462FD0002829
:1009A000F3D08E4B7B6302238B483B6307F130020D
:1009B0004FF4825108F004FB0021022008F01CF8DB
:1009C000874B85487B634FF0020B07F130024FF4F1
:1009D0008651C7F830B008F0F3FA18211320FFF75A
:1009E000EFFE07F10F05D0B17E4BC7E90CB37A4893
:1009F00007F130024FF4825108F0E2FA39E00028A2
:100A0000CFD11020FFF7DCFE08B1774BCAE71D21DC
:100A10001320FFF7D5FE0028CED0744BC2E7744BED
:100A20001B687B60E223FB730120FFF7D3FD0446C4
:100A3000002870D10123C7E90530F86102463D6105
:100A4000624807F1100105F08BFF614B9842804628
:100A500051D1DFF8A0B17B68A34261D10020FFF73C
:100A6000B9FD0446002856D1012008F0A7FA86F8FF
:100A700051400021012007F0BFFF29462A20FFF73F
:100A800057FE044600286DD05B4B7B63022352481F
:100A90003B6307F130024FF4825108F091FA0021D4
:100AA000012007F0A9FF554B7B6302234A483B63B3
:100AB00007F130024FF4865108F082FA4FF4487083
:100AC000FFF7C4FE78B94FF4FA711420FFF79CFDCC
:100AD00048B942F204411720FFF796FD18B948497A
:100AE0001A20FFF791FD012386F8503048463C3725
:100AF000BD46BDE8F08F434B3748C7E90CB307F15B
:100B000030024FF4825108F05BFA2046FFF762FD95
:100B10004346002BADD03C4B7B6302233B6366E72F
:100B20001BF8013B2948FB733D61002207F11001CE
:100B300005F016FF404582460FD0344A7A63022200
:100B400025483A634FF4825107F1300208F038FA31
:100B50000020FFF73FFD5346DBE70F2008F02EFA99
:100B6000013478E76D4688B0FB7B6A4628495161BD
:100B700028491948C2E90613042342F8103F4FF4EC
:100B8000045108F01DFAFB7B042BAD4601D0224B2B
:100B90007BE707F110012046FFF7CAFD08B11F4BA4
:100BA00073E73B7C422B01D01D4B6EE720211020C8
:100BB000FFF706FE00283FF472AF1A4B65E74FF0CF
:100BC000FF3993E71000002028030020B8AE000092
:100BD0000000AD0B47B2000048AE000050B200006C
:100BE000A0B20000C5B2000070B2000089B20000DF
:100BF000C0AE000040B4000047B30000E9B30000FD
:100C0000F0490200E0B2000027B3000000B300008A
:100C100061B3000016B4000084B30000A3B3000069
:100C2000BCB30000D0B300002DE9F04F91B08407B1
:100C3000009302F004030293C2F3C20303F1010321
:100C4000DDF86880039205460E46059340F0BE81AC
:100C5000041D30B1072909D86FF01B0011B0BDE8A1
:100C6000F08F01F00706341DC6F10806009B4FF017
:100C70000009591E4FF0040A4FF0FF330193CDF8DD
:100C800010904F46CB4653460DB1009A226005980E
:100C9000002800F3EB809A48009A824203D39948D7
:100CA0008242C0F0E380039AA4EB050E92074FEA5C
:100CB0009E0000F106810F2F00F2B480002D00F09D
:100CC000088107F140020DEB020C019A0CF8200C90
:100CD0000CF8102C049801300490EAE07A2860D8CF
:100CE0004B280ED847285CD829282FD8252855D03E
:100CF00057D820287DD02338D0F1000B4BEB000BC8
:100D000077E0A0F14C0CBCF12E0F4AD8DFE80CF0D4
:100D10007149494949494949494949494C49494918
:100D200049494949495A494C4C5A5A5A714C6E4999
:100D30007149184C18494983804C49494C498000F5
:100D400000204FF0000B4FF0040A39E0A0F12A0C0C
:100D50005FFA8CFC012202FA0CFC1CEA0E0F48D14F
:100D60001CF062502ED11CEA020B42D0013C5444CC
:100D7000CAF1000C04EA0C04002D61D0A3EB050CB1
:100D8000A444B4453FF668AF002868D1042B47D18E
:100D900058F8043B2360043404232AE0019A013A02
:100DA00001924FF0000B24E011F8010C6C2834D1B3
:100DB00011F8023C00206C2B8346C4D14FF0080A86
:100DC0005346D3E708F1070828F007080734F8E886
:100DD00002AB24F0070435B106982044B0423FF638
:100DE0003BAFC4E900AB08344FF0000B4FF0080AEA
:100DF000534611F8010F002878D0BBF1000F7FF4A3
:100E00006DAF2528F5D1019B013301934FF0010B04
:100E10004FF0040AECE7584693E700208346A5E725
:100E2000082B02D06FF0150018E708F1070828F02A
:100E30000708F8E80223C4E9002308340823D8E7A8
:100E400068B9042B02D108F10408A4E7082BE9D102
:100E500008F1070828F0070808F10808EDE7059AE7
:100E6000013A059258F8042B00920DE7039A900777
:100E700020D5A4EB050E4FEA9E004FF0010CBEF505
:100E8000007FCFD20F2FCDD8F5B107F140020DEB87
:100E9000020EC0B2019A0EF8200C0EF8102CBCF114
:100EA000000F3FF417AF60F07F000EF8200C09F13F
:100EB00001090137C5F10802043406924FF6DA7EC3
:100EC00097E74FF0000CDAE7BCF1000F01D00136D4
:100ED000EFE7029802360028EBD10098CDE9063101
:100EE00008F0B3FFDDE906310644E2E7631BB3F522
:100EF000806F97D245B9A6F10804E018AEE600BFAE
:100F000088AC000050D10000029A28609B082B702A
:100F10009DF81030C2B1EB7085F80290B9F1000F66
:100F200005D008A80022C5F1010C97420ED1C5F1E9
:100F300001030DF120084FF0000A01930DF1300B71
:100F4000574512D1601B89E66B70E5E710F8013B4D
:100F5000190608D504EB0C0EB64503F07F033FF6E7
:100F60007BAE04F8013B0132DFE7B9F1000F03D09B
:100F700098F90020002A17DB029BD3B11AF80B2046
:100F800004F8012B0022019B98182044B0423FF640
:100F900063AE98F8000004F8010B00990392204614
:100FA00008F063FF039A14440AF1010A08F10108EA
:100FB000C6E798F8002055F822300093029B45F8C8
:100FC0002230009808F041FF421CDCE76FF00D0072
:100FD00044E600BF2DE9F04F95B000AF0446D7F8C6
:100FE00078B0BB61CBF3C0037A623B61396251B91F
:100FF00003784678807800EB830020443B6A9E4269
:101000001AD8031B3B6294F802A0E3787B61564632
:10101000BAF1000F02D01BF0010F17D17B695BBB47
:101020007B6A1BB1BA69396A204698473D6A2846EF
:101030005437BD46BDE8F08F451C284608F005FF33
:101040003B6A0130013328443B62D7E794F80080C3
:101050006368FB617B6A4FEA8802FA6004EB8808E8
:10106000002B40F001813D6AC1460AEB08030026CF
:101070004B454ED1D04413E01BF0020FD0D094F872
:1010800000804FEA8803FB606368FB617B6A04EBC6
:101090008808002B78D13D6ABAF1000F4ED1564630
:1010A0001BF0050F0CBF022301237B627B6908EB59
:1010B000430A0BF002033B62D045B8D018F8021B7C
:1010C00018F8013C54F82390AC4B994502D3AC4B33
:1010D000994539D33B69002B43D0F86907F0A4FF49
:1010E00000283ED0E9468AB06A46A64B5361FB69A8
:1010F000C2E906314FF400731384A34B42F8103F4A
:10110000A24800234FF4125101F0B6F8023DCD463B
:10111000D2E719F8012B7B6254F8220008F095FE03
:10112000FA6F7B6A01303AB1D7F8802096423EBF11
:10113000FA6F22F816000136054499E71BF0040601
:101140001CBF7E6AD044ABE73B6923B1F86907F066
:101150006BFF0028C6D11BF0010F05D17B6AED1A89
:10116000AAE73B6A002BA7D0484608F06EFEFB6F4B
:1011700043B1D7F880309E423FBFFA6F431C22F83C
:1011800016300136054497E7BAF1000F71D01BF015
:10119000040671D0D146002607F140005246414670
:1011A00008F063FE7B695B00BB607B69D04408EBA1
:1011B00043037B610BF002037B607B6998455DD143
:1011C0002378FB6163781BF0020F06EB03020CBF70
:1011D0004FEA590100211BF0010FD2B240F09D806F
:1011E0001BF0040F14BF4846002094F802B094F896
:1011F00003803B616270A070E170BA69F9687B6A34
:1012000020469847051EFFF612AFFB6923703B6925
:10121000637084F80380BA697B6A84F802B0494637
:1012200007F140009847B0F10008C0F2A3803B6A84
:10123000BA697869A3EB0A01FB68C91ABB68C91AC5
:101240007B6A98470028C0F29780A84408EB000505
:101250004FF0000B07F1300AB34560D30021BA69A3
:101260007B6A08469847E2E64FF0000907F1300034
:1012700094E75646D14695E7B14693E718F8021B26
:101280003E4A18F8015C54F82530934202D33C4A98
:1012900093421CD33B6923B1F86907F0C5FE0028CF
:1012A0008BD17B68F3B909F1280207F128000244C9
:1012B00009F1010302F8101C07F1500252FA83F3FE
:1012C00009F102095FFA89F903F8105C75E73B69D7
:1012D0002BB1F86907F0A8FE00287FF46EAF1BF071
:1012E000010F09D006F1280207F12801731C5618D6
:1012F00006F8205CDEB260E71BF0040F3FF45DAF40
:1013000009F1280207F1280109F1010302EB0109A3
:1013100009F8105C5FFA83F94FE7002065E71BF8D6
:101320000A3087F82F3054F82390FB6FFBB133F865
:101330001B80BA697B6A012107F12F0098470028BA
:101340001ADB0544B8F1000F06D1484608F07DFDD0
:1013500000F101081FFA88F8BA697B6A41464846DD
:101360009847002808DB05440BF1010B74E7D7F818
:101370007C80DEE745465AE6054658E688AC000024
:1013800050D1000058C4000004000001E0AD00008E
:10139000014B1860704700BF2400002030B587B0B3
:1013A0000025CDE903010446009503A905480595EC
:1013B00000F018F9DDE904309842B8BF255407B0B1
:1013C00030BD00BF779000002DE9F047058B044643
:1013D0002807904611D4022905F0070540F0CD807A
:1013E000204608F05FF878B10138218B042811D825
:1013F000DFE800F0C3106D85950001290CBF45F0B2
:10140000100545F02005258388F31188BFF36F8F01
:10141000BDE8F08701F0070AAA4500F0A680002782
:10142000B9463E46A368002B00F0BD8041F008019C
:10143000218388F31188BFF36F8FA168002900F022
:10144000BB800D68002900F0B780D1F804803346D6
:1014500052462046C047002D76D02B6829461D46AF
:10146000F0E701F007035A1F012A1BD8002221F0E0
:101470000701062B276889B2C4E9002209D13B463F
:1014800003E0628B013262831B68002BF9D141F0CB
:1014900002012183204608F005F800287BD041F0A6
:1014A000200177E0042B0AD121F0070189B22183C2
:1014B000204607F0F7FF10B141F020012183218B76
:1014C00001F0070AAA4550D00027B946AAE72369C8
:1014D00021F0070141F00601062DD3F80090218389
:1014E0002DD1B9F1000F40D041F00801218388F3DC
:1014F0001188BFF36F8F3A492046C84729E021F091
:101500000701236941F0040189B2042DD3F8049046
:101510002183E6D000273E464FF0040A82E721F0FF
:101520000701236941F0050189B2052DD3F8089020
:101530002183D6D000273E464FF0050A72E70027E8
:101540003E464FF0060A6DE72B4687E7B9F1000FDC
:10155000D1D14FF04003EFF3118883F31288BFF32A
:101560006F8F238B23F008032383258BEA062ED568
:1015700025F01003238305F007056669218B002EF3
:10158000BFF66FAF00232768C4E9003321F00701DD
:1015900041F001012183218B01F0070AAA454FF098
:1015A00000097FF43FAF002F9BD041F00801218359
:1015B00088F31188BFF36F8F002FC7D03D6839467D
:1015C00033465246204607F099FF2F46F4E7AB0614
:1015D0007FF51AAF25F02003238305F00705FFE60A
:1015E000299500002DE9F04F814695B08B461746AE
:1015F0001C460025387808B9284658E37B1C252866
:10160000039306D05946C8470028C0F250830135DD
:10161000FBE1182200210EA808F032FC7B78252B74
:101620007DD00023781C98469E469C461E46014667
:1016300010F8012B2B2A00F0A18000F29880202ABC
:1016400000F09F80232A00F09F802BB19DF840304E
:1016500043F040038DF84030B8F1000F05D09DF8FD
:10166000403043F020038DF84030BEF1000F05D02C
:101670009DF8403043F010038DF84030BCF1000F6E
:1016800005D09DF8403043F008038DF840302EB16E
:101690009DF8403043F004038DF840309DF8403011
:1016A00003F04400442803D16FF386138DF84030D3
:1016B0009DF840302A2A43F080038DF840307FD1D6
:1016C0009DF8412042F001024B1C8DF841201A7810
:1016D0002E2A9DF841200CBF0121002161F3410217
:1016E0008DF8412078D15A782A2A6ED00133002211
:1016F0004FF00A0C194611F8010BA0F13006092E23
:1017000040F295809DF840101292C1F3400040EAEB
:10171000D2700A4660F341028DF840205CE0BA1CAA
:1017200003928DF843309DF84130DA0740F12E8165
:1017300054F8048BB8F1000F07DA9DF8402042F00E
:1017400004028DF84020C8F100085E0740F12781AF
:1017500054F804ABBAF1000F80F226819DF84130B5
:101760006FF341038DF841304FF0FF3A1CE12D2A11
:101770000DD0302A7FF469AF012358E74FF0010CF8
:1017800055E74FF0010E52E74FF001084FE70126F1
:101790004DE70EFB0262303A0346184610F8016B23
:1017A000A6F1300CBCF1090FF3D999428FD09DF806
:1017B00040101192D20F62F341018DF8401086E77C
:1017C0000B4600224FF00A0EE7E79DF8412042F059
:1017D00004028DF8412002331A786C2A47D02BD8A6
:1017E000682A31D06A2A4BD04C2A51D01A4612F8B6
:1017F000013B0392782B9DF841208DF8433000F295
:10180000BE806D2B51D8692B00F2B980572B67D859
:10181000412B03D0453B022B00F2B1809DF84230B2
:10182000042262F302038DF84230012373E00CFBC3
:101830000202303A0B465DE7742A25D07A2AD5D1C8
:101840009DF8412006210CE05A78682A9DF8412035
:1018500006D1012161F3C6028DF841200233C5E7AC
:10186000022161F3C6028DF841200133BEE75A78A8
:101870006C2A9DF8412001D10421EBE70321F0E718
:101880009DF841200521ECE79DF841200721E8E77C
:10189000BDF8402022F4F04222F0020242F48042DD
:1018A00042F00202ADF84020DFE76E3BD9B20123DF
:1018B0008B4040F282410B4237D113F0240F51D1BB
:1018C000D8075CD59DF84230032161F302038DF8FF
:1018D000423002F07803A3F140014B424B411AE041
:1018E000A3F15801C9B2012000FA01F111F4624FCD
:1018F00094D140F6010631421DD111F4043F3ED08F
:101900009DF8423060F3020302F07802402A8DF81D
:10191000423034D000239DF84020C2F340010B43F5
:1019200063F341028DF84020FDE69DF8423002212C
:1019300061F30203E8E79DF84210022002F078020A
:1019400060F30201402A8DF8421002BF9DF840105A
:1019500041F001018DF84010632BDBD1131E18BF3D
:101960000123D8E79DF84230032161F3020312F00E
:10197000780F8DF8423014BF01230023CBE79DF888
:10198000403043F001038DF84030C3E79DF940201B
:10199000002AB4BFDDF844804FF0FF38D5E6980741
:1019A0007FF5E2AEDDF848A09DF841100023CDE9B7
:1019B00011339DF8423003F00703012BC1F3C3013B
:1019C00033D1CB1E042B04D8DFE803F02146462197
:1019D0002100236801294FEAE372CDE90E321CD1C0
:1019E0009DF93830DA17CDE90E3204349DF84030D5
:1019F00013F0030650D0039B3A465946484607F079
:101A0000B1FE0028C0F253810544039FF2E554F86B
:101A1000043BDA17CDE90E32E8E70229E5D11AB224
:101A200043F3C033CDE90E23DFE7022B24D1CB1ED5
:101A3000042B04D8DFE803F018101018180001294F
:101A400054F8043B4FF0000214D00229CDE90E32C5
:101A5000CCD19BB20E93C9E7073424F00704F4E815
:101A60000223CDE90E23C1E754F8043B0E93002373
:101A70000F93BBE7DBB2CDE7042B08D1073424F08A
:101A80000704D4E900230834CDE90E23AEE7032B85
:101A9000ACD154F8043BDDE79DF843007828B4D876
:101AA00062281CD825283FF4ADAD5828ADD10DF1E2
:101AB00036030093DDE90E0108AB10AA07F00CFE17
:101AC000BAF1000F074680F29A80002F9DD00DF1E9
:101AD0003603D81B002E00F0C1800130BEE0633811
:101AE000152892D801A252F820F000BFC11B0000B7
:101AF000D31B00000B1A00000B1A00000B1A000089
:101B00000B1A0000D31B00000B1A00000B1A000078
:101B10000B1A00000B1A0000611C0000F91B0000EA
:101B20001F1C00000B1A00000B1A0000451B0000D0
:101B30000B1A0000F91B00000B1A00000B1A000022
:101B4000F91B0000BAF1000F0E9F35DB51463846F5
:101B500008F082F907EB000A002F3FF456AF002689
:101B60009DF8423013F01002059200F0938002308D
:101B70005B06119A48BF129B0492104448BFC018DC
:101B8000B8F1000F40F3A0809DF84020A8EB0008BA
:101B9000C2F380035007069300F19680510640F18E
:101BA00089803EB159463046C84700287FDB069BF6
:101BB00001351E4630227EE0384608F046F9C9E776
:101BC0000E9B8DF82030002608AF0DF1210A012070
:101BD000C6E719075CBFC3F300135E01DDE90E23FE
:101BE00048BF2B26002BBFF662AF524263EB430384
:101BF000CDE90E232D265AE7002658E700269DF84A
:101C000040200DF13603DB1B6FF386129A458DF8E9
:101C100040207FF65AAFAAEB0303119355E70E98C5
:101C200090B30DF13603009310AA08AB002107F022
:101C300053FDBDF8423003F0EF0343F4F04343F0AB
:101C40001003BAF1000F0746ADF84230D6DA00288B
:101C50003FF4DBAE0DF13603181A00269A467FE7F3
:101C60000E9B07293FF6D1AEDFE801F00C04060C0D
:101C700008080C0C1D70C8E61D80C6E6EA17C3E90B
:101C80000052C2E61D60C0E62E4F064607F1050A67
:101C9000052065E71A0748BF013069E7079310463A
:101CA00006925946C8470028DDE9062304DA15B034
:101CB000BDE8F08F202243461946002903F1FF3387
:101CC000ECDC45446D1A98462EB159463046C8475B
:101CD0000028ECDB01359DF84230DA0601D41B0701
:101CE00005D559463020C8470028E0DB0135059B63
:101CF00033B19DF843005946C8470028D7DB01356A
:101D0000049E2E4405E059463020C8470028CEDB0B
:101D10000135731B002BF6DC53463A4659464846BC
:101D200007F020FD0028C2DB0544A844A8EB05030A
:101D3000002B7FF76AAE59462020C8470028B6DB43
:101D40000135F3E70CC5000003F094BF2DE9F0471F
:101D5000DFF85880044607464FF0010914B93846A9
:101D6000BDE8F08794FAA4F5B5FA85F509FA05F30C
:101D70002E0108EB05156FEA030A24EA03042B7B06
:101D8000002BEBD058F806301B694BB946440422AF
:101D900073682846196807EA0A0700F059FADDE770
:101DA000284698470028D9D1F0E700BFA0AE000030
:101DB00030B51049104889B0002208F0BDFE0F4D23
:101DC0000F4900220023CDE9062300240E23CDE98C
:101DD0000334CDE901440B4B00944FF44072284684
:101DE00006F02AF80849284608F05CFC204609B0AD
:101DF00030BD00BF0D1E0000080800208003002039
:101E0000401E0020FD20000012C50000014806F021
:101E1000A1B900BF5C0200202DE9F04780461F48B1
:101E20000F4607F01FFF0646002830D00025284641
:101E3000BDE8F087237B73B12368DB680BB12046D4
:101E4000984723681B69D3B9636804221968204640
:101E500000F0FEF9013610344C45EBD3B8F1000F19
:101E6000E5D0002DE2D02846FFF770FF0546002F91
:101E7000F7D000214FF4A47006F0BEFDF1E7204634
:101E800098470028E0D00AFA06F31D43E2E7044C25
:101E9000DFF8109005464FF0010ADDE7D00A002078
:101EA000A0AE0000B0AE0000014B53F82000704718
:101EB000D8AE000008B5034608462BB1044A1360AB
:101EC00000F078FC002008BD6FF01500FBE700BFB4
:101ED0002800002010B5044C237813B9034806F0FD
:101EE00039F90123237010BDD01900205C020020B5
:101EF00010B50446084807F0B5FE5CB1BFF35B8F30
:101F0000064B53E8001F013943E80012002AF8D1BC
:101F1000BFF35B8F10BD00BFC80A0020CC0A0020B1
:101F20000020064BBFF35B8F014653E8000F43E8E8
:101F30000012002AF9D1BFF35B8F7047C80A002056
:101F400070B5FFF7EDFF084C084E0546B44200D3CC
:101F500070BD63685B792BB123685B6813B1294658
:101F6000204698471034F1E7A0AE0000B0AE000064
:101F700010B5044C0449204607F005FD034B1C60D6
:101F800010BD00BFF0010020C4AE0000C00A002058
:101F9000084A094808B500231370084A1360084A24
:101FA0004FF400411360FFF785FFBDE80840FFF7DD
:101FB000DFBF00BFD1190020619C0000C80A0020CB
:101FC000CC0A0020014600220148002307F0FCBC97
:101FD000F0010020014807F095BD00BFF00100208E
:101FE000024B0146186807F0DFBD00BFC00A0020A1
:101FF000014807F015BE00BFF001002070B5284B66
:10200000187800284BD0FFF7E5FF054690B1BFF3E5
:102010005B8F244B53E8001F013943E80012002A6C
:10202000F8D1BFF35B8F204C204EB4422DD328460D
:10203000FFF7D6FF1E4B1F4C1B68002B19DD08F065
:1020400053FD4FF47A72A0FB020302FB0131C30B74
:10205000D4E9002043EA41439B1A4FEAD13140F2D0
:10206000E93261EB0001934271F1000101D3FFF706
:1020700067FFD4E9003213F57A7342F10002C4E934
:102080000032BDE87040FFF7B3BF63685B7923B1EE
:10209000236829461B68204698471034C5E770BD61
:1020A000D0190020CC0A0020A0AE0000B0AE000085
:1020B000C80A00200008002070B50D4D297861B9CC
:1020C0000120FFF7A9FE0B4C0B4EB44206D3FFF7DD
:1020D00095FF0028FBD101232B7070BD63685B79ED
:1020E0001BB1236820469B6898471034EDE700BF7A
:1020F000D1190020A0AE0000B0AE000000212DE9F3
:10210000F0470846FFF788FE044648B340F2676888
:102110004FF0000906F0A4FC1A4B186030B11A4BBE
:102120001B68092B02DD194806F014F8184FDFF878
:102130005CA0002544B12046FFF708FE044618B90C
:102140004FF0FF384FF0FF39FFF758FF064628B928
:10215000B5B942464B46504606F01CF83546E9E70D
:102160004FF0FF384FF0FF39D4E72B689B691BB164
:1021700000221146284698471035BD42F5D3E8E7BE
:10218000044DFAE7C40A0020CC0A00205C020020BB
:10219000B0AE0000A0AE000013B5184807F062FD15
:1021A000174B1B787BB14FF04003EFF3118483F39F
:1021B0001288BFF36F8FFFF721FF84F31188BFF3FD
:1021C0006F8F02B010BD0F4B1B68002BF9D050B9B8
:1021D00000220023CDE900230B484FF400420023E6
:1021E00006F082FEEDE70A28EBD1074808F0B0FCC4
:1021F000064802B0BDE8104005F0ACBFCC0A002094
:10220000D1190020C40A0020080800205C02002028
:1022100010B5064B1B68044698472146A060044849
:1022200007F050FCBDE81040FFF7B6BF28000020C3
:10223000F0010020044A054B9B1AB1EBD30F34BFC9
:1022400052F8310000207047A0AD0000A0AE0000A1
:10225000084BC31A10B41B1144680133237143683F
:102260009A7143681960436801225A7110BCFFF7E4
:1022700031BE00BFA0AE00002DE9F04F8FB004AF1B
:10228000C1F34A28B8600D4691467B600C0DB8F149
:10229000000F63D0002607F114034FF0040B4FF03A
:1022A0000A0AC7F80C80C7E907667E620193CDF879
:1022B00008B0CDF800A007F11C03F9683246484683
:1022C000FEF788FEB0F5006F03461CD36C468AB05B
:1022D000D9F8041004AB2648C3E9050140F2FF71A8
:1022E000D9611A464FF400711984224B42F8103F0D
:1022F000214833464FF41251FFF7BEFFA5462C3755
:10230000BD46BDE8F08FC0F30A0804F11700184479
:1023100020F0070080083B60FFF754FE68F3532568
:10232000044690B13B68154AC7E9083600F1100130
:1023300007F11403F961CDE900A3CDF808B0F968FD
:1023400007F11C034846FEF745FE68F353257B68FA
:10235000B9682A46204607F0BBFCD0E704F1170015
:1023600020F007008008FFF72DFE0446EDE700BFD0
:1023700027C500000400000108AE0000A59C000075
:102380002DE9F04F87B0DDE91269DDE9105A044606
:102390000F4693469846A6B31021CDF800903346D9
:1023A00052460020CDF81490FEF73EFC014605F1A0
:1023B00017000844144B039104F007040BF0070BBB
:1023C000E40020F0070003EA412344EA8B1480086C
:1023D0001C43FFF7F7FD44EA0554054640B13EB102
:1023E0000399CDF80090334652461030FEF71CFC9E
:1023F000434622463946284607B0BDE8F04F07F06D
:1024000067BC3146D3E700BF00FE0F000EB403B532
:1024100003AB014653F8042B0448019307F07EFCFC
:1024200002B05DF804EB03B0704700BF459D0000AB
:10243000CA0605D48B064CBF02490349FFF7E6BF25
:10244000704700BF67C5000066C500002DE9F04F6A
:1024500089B09B469DF848300493DDE913930593BA
:10246000049B0692DDE9157604460D46002B00F02C
:10247000878006F00803079307F012FC06F0020AB3
:10248000024600284BD086492046FFF7BFFF804612
:10249000BAF1000F08D016F0440F42D181492A4604
:1024A0002046FFF7B3FF804406F001035BB17E4B8B
:1024B000049A7E4953F822207D4B2046002A08BF0B
:1024C0001A46FFF7A3FF06F00803002B55D0794BFF
:1024D000049A794953F822202046FFF797FF0546D2
:1024E000069B2BB175491A462046FFF78FFF05441E
:1024F000BBF1000F05D072495A462046FFF786FF10
:1025000005444544B9F1000F49D1002F4FD1F307DD
:1025100000F1C08031462046FFF78AFFB4E08046D4
:10252000B6E7684B18680028BDD0674B4FF47A7E39
:102530001B68B5FBF3F54FF46162B5FBF0F300FBEC
:102540001355B3FBF2FA0EFB05F502FB1A323C21E0
:10255000B5FBF0FCB2FBF1F300FB1C5501FB1322B1
:102560000EFB05F50092B5FBF0F55849CDE901C524
:1025700052462046FFF74AFF95E706F00805AFE709
:10258000BBF1010F06D1B9F1000F64D1002F7BD050
:1025900000250CE0B9F1000FF8D04D485CE04D4843
:1025A0004D494B46224606F00EFD002F68D0DFF85D
:1025B0002C91DFF82CA1102F31462046B84628BFB9
:1025C0004FF01008FFF734FF4FF0000B5D4545DC7E
:1025D000059B51461A782046FFF718FF4FF0010B74
:1025E0001BF0070F03D149462046FFF70FFFD845E0
:1025F0003BD9059B514613F80B202046FFF706FFF9
:102600000BF1010BBBF1100FEAD1364920464FF018
:10261000000BFFF7FBFE5A46059B9A5CA2F12001D6
:102620005F2928BF2E2230492046FFF7EFFE0BF12D
:10263000010BBBF1100F1DD01BF0070F03D1494652
:102640002046FFF7E3FED8455A46E5D849462046DE
:10265000FFF7DCFEEBE71F48049DA1E74946204653
:10266000FFF7D4FE0BF1010BB0E720492046FFF73E
:10267000CDFEC5E7059BB7EB0807434405939AD108
:10268000049B002B7FF443AF204609B0BDE8F04F18
:1026900007F04BBB064A05492046FFF7B7FE39E76E
:1026A0006EC5000072C50000E8AE000097C50000CE
:1026B00069C50000FCAE00009AC50000A0C500007E
:1026C000A4C50000D80A0020D40A00207BC5000061
:1026D0007B9D0000459D00001D9D0000B1C50000D0
:1026E000A9C50000B3C50000B5C50000AFC5000016
:1026F0002DE9F0410F884B688E6886B005460C4680
:102700009046C7F382175BB1134A9B1A43F3CF017C
:1027100000291FDB2078C0F3C200FFF78BFD0346C2
:102720002146608851F8102B0097C2F34A22002AF4
:1027300001EB0204C0F30B1008BF0021CDE9030830
:10274000CDE90114002231462846FFF77FFE06B08E
:10275000BDE8F0810023E3E7A0AD000073B542F2CD
:102760000F738B4228BF0B4605680F4A04460521AC
:10277000684606F0A0FC63680C495B6806460B22BD
:10278000284607F0BEFA63683246694628465B6809
:1027900007F0B7FA636806495B681B22284607F012
:1027A000B0FA02B070BD00BFD4CD0000D4C50000A7
:1027B000B8C50000074A00210123904206D8064A06
:1027C00001B901231360054B1860704740085B0096
:1027D0000121F2E740420F00D40A0020D80A00206D
:1027E000014B01221A707047D2190020014B0020C2
:1027F00019607047F00A0020024B034801221A704A
:1028000007F093BAD31900202CAF00000148FFF75E
:10281000A5BF00BF2CAF000010B5064B18680C46D2
:10282000FFF742FB21460346BDE8104002480F2255
:10283000184700BFF00A00202CAF000010B9074B6A
:1028400018707047064B1B781BB141F2883008F0B6
:102850004DB9A420002106F0CFB800BFD219002046
:10286000D31900202DE9F843DFF874901D4F8046FE
:102870000E46042499F8005095B905F0EDF8284665
:102880003246414605F06AF8054605F0EFF8E5B135
:1028900001233B7099F8003073B93046BDE8F883E6
:1028A00032464146002005F059F80546EFE720463C
:1028B000FFF7C4FF651E2C46002005F0C3F8002872
:1028C000EBD03B78002BF2D1E7E73B78002BE4D04C
:1028D000013C2046FFF7B2FF3B78002BCAD1DCE772
:1028E000D3190020D21900202DE9F84305464FF0F6
:1028F0004003EFF3118683F31288BFF36F8F0E4B03
:102900000E4F1C68DFF838804FF00C092CB986F3A5
:102910001188BFF36F8FBDE8F883D4E90123002D40
:1029200018BF13462BB198F8102009FB02F2B85CCF
:1029300098472468EAE700BF0C0B0020000B00203A
:102940009419002070B5194B1C7CBFF35B8F04F009
:102950001F0301229A40164B610903EB8103D04308
:1029600053E8001F01EA000543E80056002EF7D1A6
:10297000BFF35B8F0A4213D00E4B0F4D8BB10C236C
:102980006343EA18E85C517807F0A0FA0020FFF7EB
:10299000ABFF0C235C432A1900232B51C2E90133FE
:1029A00070BD83F31188BFF36F8FEFE79419002098
:1029B000140B0020CD9E0000000B00202DE9F041FB
:1029C000354B07461D7C4FF04003EFF3118883F32E
:1029D0001288BFF36F8F0C24304B314E6C431A19A1
:1029E000195D00294CD007CA06EB040C8CE80700DF
:1029F00000221A5588F31188BFF36F8F0C236B43A5
:102A0000F218F05C002839D07B1C10D0D2F808C036
:102A1000244C254A4FF400400021ECFB00410023E8
:102A20002046FDF75DFB0121381A03F065F805F03B
:102A300029FF0120FFF758FFBFF35B8F1B4B6A098B
:102A400003EB820305F01F0101228A4053E8000FC7
:102A5000104343E800010029F8D1BFF35B8F144B0A
:102A60003BB10C2303FB05F03318305C597807F0B9
:102A700021FAFFF767FF05F019FF0120BDE8F0819B
:102A80000146284600F016F80028B3D007C83444A1
:102A900084E80700AEE700BF94190020F40A002084
:102AA000000B00203F420F0040420F00140B00209B
:102AB000B59E00002DE9F04F85B00E4603A900F049
:102AC00043F81E4B039DD3F800A0DFF87480431E2B
:102AD0001BB203EB4303044605EB83054FF40047A9
:102AE0004FF0000B24B9A146484605B0BDE8F08F71
:102AF0006868144AC4465946E0FB07C10023604693
:102B0000FDF7EEFA0190A8680E4AC4465946E0FB6C
:102B100007C100236046FDF7E3FABAF1FF3FA9467B
:102B200001D0824505D9731CDED0019B1844B04208
:102B3000DAD9013CA4B20C3DD4E700BF2C00002040
:102B40003F420F0040420F0008B9024B0B600020CB
:102B5000704700BF3CAF0000F0B40C4B0C4E5F6AF6
:102B60000C4BB34203D36FF08500F0BC70475D6837
:102B7000BD4209D31C693CB195F802C00579AC454A
:102B800002D12346F0BC18472433EAE7180B002093
:102B900024030020000300202DE9F047134CDFF848
:102BA0005080DFF8509005460E461746444503D343
:102BB0006FF08500BDE8F0876268D9F824309A424A
:102BC00012D3A36983B190782979884205D13A4616
:102BD00031462846BDE8F04718475279012A03D10B
:102BE0003A463146284698472434DFE70003002060
:102BF00024030020180B00202DE9F0410B4CDFF8D6
:102C0000308005460E461746444502D36FF08500D6
:102C100009E063690BB92434F6E73A4631462846A1
:102C200098470028F7D1BDE8F08100BF00030020DD
:102C30002403002002480822002107F021B900BF28
:102C4000D30B002070B50B4B0B4CA34201D30020DB
:102C500070BD196A1E7F00220439D5B2AE4201D878
:102C60002433F2E7013211F832508542F5D10120C8
:102C7000EEE700BF00030020240300207FB5084BCF
:102C80000593022304930748002304AA4FF48251BA
:102C9000FFF7F2FA4FF0FF3007B05DF804FB00BF1A
:102CA00013C6000078AE000073B5C4B263060D46CB
:102CB0008DF8074007D02046FFF7C4FF78B10D4BD1
:102CC00093F8BA0058B10B4E204655B102F066F8A1
:102CD000F3691BB10DF1070108209847012002B0EC
:102CE00070BD02F095F8F369002BF7D00DF10701E4
:102CF0000920F2E7180B002080B500AF88B06A46C3
:102D0000074BC2E90530032342F8103F0548002372
:102D10004FF4C251FFF7B0FA0020BD4680BD00BF9E
:102D200038C6000078AE0000F8B500AF054607F0E1
:102D3000F4F810F1780F044613D090B16E4688B0C5
:102D40006A460E4BC2E90535032342F8103F0C4892
:102D500000234FF4C251FFF78FFAB5462046BD4617
:102D6000F8BD284607F017F8064AD2F8C43023EA1F
:102D70000003C2F8C4300024F0E700BF53C60000CF
:102D800078AE0000180B0020F0B583B000AF044609
:102D90008078387023796279274D43EA02237B805B
:102DA000E37803F003033B7106F0F5FFD5F8C43078
:102DB000184206460CD0A478204600F063FB20465B
:102DC000FFF7B2FF07F068FC10B9962005F02EFE61
:102DD000384601F0AFFF10F1780F0346387814D071
:102DE0009BB16C4688B06A46144BC2E90530032398
:102DF00042F8103F124800234FF4C251FFF73CFA4B
:102E00000020A5460C37BD46F0BD02F03DF810F19C
:102E1000780F08D038B16C4688B03B786A460949CB
:102E2000C2E90513E3E7D5F8C4300120334385F840
:102E3000B900C5F8C430E5E7180B002075C60000DE
:102E400078AE000099C600002DE9F047A34EB369A3
:102E500004460F461546FBB9237803F01F03012BE8
:102E600000F09D80022B00F0048133BB94F9000038
:102E70002A686178002834DA062912D008292BD074
:102E8000D9B901231370517096F8C3305B0043F039
:102E90000103137002232AE198470028DCD10020A7
:102EA0000DE06288100A011F0129844605D9072810
:102EB00003D8716AD2B20C781CB96FF01500BDE866
:102EC000F0874E78664503D19A4200F00B810133BA
:102ED0002144F0E70B780AE196F8BA301370012329
:102EE00005E101390829E8D801A353F821F000BF12
:102EF000892F0000BB2E0000972F0000BB2E000082
:102F0000152F0000BB2E0000BB2E0000BB2E0000C2
:102F1000212F0000A07801F0C9FE0028BFD0CCE727
:102F20006388756A63BBFFF785FE638886F8BA30ED
:102F3000F369002BB3D06A4903209847AFE76B7859
:102F4000042B10D0052B11D0022B04D16F7963888C
:102F5000BB4208BF01202B781D442B78002BEED1FB
:102F60000028AAD0DFE795F80380F4E76388BB4226
:102F7000F1D1B8F1000FEED12846FFF705FFEAE7DF
:102F8000FF270020B846E8E76388012B95D100238E
:102F900086F8C33083E76388012B8ED1F8E796F873
:102FA000BA30D5F800C0002B87D0756AA38894F892
:102FB00004E02A46107800283FF47FAF51780229B8
:102FC00004D192F80480F04500F293800244F1E7C6
:102FD0008CF800208CF80120396060E7154494E0FB
:102FE0000B2A7FF46AAF00274FF0FF08C146BA46AC
:102FF00006E06B78042B0FD0052B21D02B781D44D5
:103000002B78002BF5D1F36913B15146072098476F
:10301000002F7FF444AF50E795F80280A38895F81D
:1030200003909845EAD163889945E7D1B8F1070F35
:103030001CD806EB0803AA4683F8BB900127DDE7FE
:10304000A3884345DAD1A3784B450AD0AF783846F8
:1030500000F018FA3846FFF767FEB0FA80F77F09EC
:10306000CCE72846FFF790FE0746C7E7AA460027A9
:10307000C4E794F900206378002A18DA002B7FF463
:103080001CAF24792D6863060AD02046FFF7DAFDCD
:1030900000283FF412AF96F8BA30002B3FF40DAF82
:1030A0002946204601F0D4FE00236B70F2E6012B86
:1030B00008D0032B7FF401AF6388002B7FF4FDAEB3
:1030C000012103E0618800297FF4F7AEA088FFF7B3
:1030D000EBFD00287FF4E3AEEFE600BF180B002005
:1030E000D20B0020022829607FF4F4AE4B883B60AD
:1030F000D5E694F9000062780028BFF671AF002A87
:103100003FF466AF0A2A7FF4D8AE2A78002A3FF44B
:10311000D4AE697804297FF461AFA9788B427FF43B
:103120005DAF072B96BF9B19002393F8BB308CF83B
:103130000030D4E6054B064A9A62064ADA62064A2D
:103140001A63064A58629A6100207047180B0020E3
:10315000492E0000592B0000F92B0000992B00008C
:1031600010B5094B93F8B84054B900F053F818B9AA
:10317000BDE81040FFF782BDFFF7DCFF204610BD21
:103180006FF07700FBE700BF180B002030B51F4B36
:103190008BB005AA03F1100518685968144603C4DA
:1031A0000833AB422246F7D11B782370102200214E
:1031B00001A806F065FE12220021154806F060FE07
:1031C000102101A806F0A6FF00281BDD0828B8BFC3
:1031D0000820093801AB0E491A18002012F8013FE7
:1031E0000AAC04EB131403F00F0328336B440130D3
:1031F00014F8144C13F8143C0C7008284B7001F1AF
:103200000201EBD102480BB030BD00BFC5C60000C3
:10321000E41900202DE9F04F834C8BB000AF00265D
:103220004FF0011BB2463546B046237843B97F4B79
:1032300002349C42F3D17C482C37BD46BDE8F08F68
:103240006378052B05D8DFE803F0A60403A6073F43
:10325000A04623781C44E8E7E378002BF9D1A37853
:1032600043B30AF1010A5FFA8AFAF2E76A68944204
:1032700023D024359D42F9D36D4688B06A466C4B05
:10328000C2E90534032342F8103F6A4800234FF493
:10329000C251FEF7F1FFAD46674B7B6202233B62F2
:1032A0006448002307F120024FF48251FEF7E4FF47
:1032B0000020C1E7614D624BDCE7AB68002BD0D04A
:1032C000514620469847CCE7002D62D15D4B7B628A
:1032D00002233B625748002307F120024FF482513A
:1032E000FEF7CAFFD8E7296AA07801EBC2010B7983
:1032F000984205D001322B7F9A42F4D3524BE6E735
:103300004FF00109E07800F003003875207994F857
:1033100005C040EA0C20788294F9020000285FFA88
:1033200089F328DA09F110004FF0010C0CFA00F0D3
:1033300010EA0B0F27D143F08000387407F110001A
:10334000C7E90131FA6001F0C3FCD7E902127B68DA
:10335000C8B93A7CA27012F0800F18BF10330A71FE
:1033600018BFDBB24FF0010214BF9A4002FA09F213
:103370004BEA020B6DE7012000FA09F010EA0B0F8F
:1033800001D11846D9E709F10109B9F1100FB9D1F6
:10339000B0E70022AFE7032E2AD1FFF7F7FE814600
:1033A000A8B106F052FDF86088B1284806F04DFD3E
:1033B000FA68824217D0264B7B6202233B621D488B
:1033C000002307F120024FF48251FEF755FF2378C6
:1033D0006FF00201E218091B04EB5303D1420ED532
:1033E0000136F6B235E74946A01C06F03EFDEEE791
:1033F000002EECD1B8F1000F0AD1164B67E74FF061
:10340000000002F8010C13F8010902F8020DE5E7CB
:10341000A4EB080388F80230C3F3072388F80330CD
:1034200088F804A0DCE700BF7C020020FE02002038
:10343000D6C6000070AE0000BCC70000000300202C
:1034400024030020F6C6000037C70000C5C60000F0
:1034500054C700009FC7000010B5094B00211A4651
:103460001C78844204D15C6814B102EB811010BD59
:103470000131042903F14003F2D10020F7E700BF36
:10348000E00B002010B54FF04003EFF3118483F3FD
:103490001288BFF36F8FFFF7DFFF50B1436810331F
:1034A00007D16FF08B03436000F12C01034807F054
:1034B000CAF984F31188BFF36F8F10BD000A002092
:1034C000014910220A60704710ED00E072B64040DA
:1034D00080F31188BFF36F8FBFF34F8F30BF62B699
:1034E000BFF36F8F704700BF2DE9F047814600AFF3
:1034F0000C4600294CD06E468AB0D1E90012A36870
:103500006D462748A8464FF0050AC5E90501C5E9FB
:10351000072348F810AF2348424600234FF42151B7
:10352000FEF7AAFEB546D4E903126369AD461E480C
:10353000C5F810A0C5E90501C5E90723194800230E
:1035400042464FF42151FEF797FEB54688B0E36935
:103550006D46164AA8464FF0030AC5E9052348F808
:1035600010AF1048002342464FF4C251FEF784FECC
:10357000B546A369AD460E4AC5F810A0C5E90523B6
:103580000848002342464FF4C251FEF775FEB54687
:103590002146484604F070FABD46BDE8F08700BFFA
:1035A000F7C7000038AE000026C8000055C800006C
:1035B00064C8000040B2002807DB044A4109012327
:1035C00000F01F00834042F82130704700E100E026
:1035D00040B200280CDB4309064900F01F002033ED
:1035E0000122824041F82320BFF34F8FBFF36F8F3A
:1035F000704700BF00E100E0054B420900F01F00EA
:1036000053F82220012303FA00F01040704700BF56
:1036100000E100E040B2D30754BF0231002100288E
:10362000ACBF00F16040074A4FEA4113ACBF00F560
:10363000614000F00F00DBB2B4BF135480F80033D8
:10364000704700BF14ED00E008B572B6044B5A692C
:103650001AB100225A6107F02CF862B608BD00BF0B
:103660009419002030BFFFF7FDBF00BF08B5084B1D
:10367000084A23F07F039360BFF34F8FBFF36F8F30
:1036800004F0B6FA05F064FA00F0AAFB04F0F4FACC
:103690000000000000ED00E0094A0A49936809684B
:1036A0009967094958674B6843F080534B60002382
:1036B00083F31188BFF36F8F9368986F704700BFD3
:1036C00094190020A8B0000000ED00E012498A68BB
:1036D0004FF030001044EFF3098C80E8F01F4020D9
:1036E00080F31288BFF36F8F0C4F4FF000668A692A
:1036F0008A603E60506F0023536780F3118804B5E1
:10370000104600F009FCBDE8044002F1300090E8EA
:10371000F01F8CF3098870479419002004ED00E035
:103720001EF0040F0CBFEFF30880EFF309808169EE
:1037300011F8021C0229FFD001B506F06AFB01BD99
:1037400042F8203C009B42F81C3C0A49019B42F88D
:10375000183C029B42F8143C21F001014FF08073A9
:1037600042F8043C42F8081C0023203A02654367F3
:10377000704700BFD1900000094A0346906870B1BD
:1037800013F1160F406E05D0A0F140029A4205D801
:10379000834203D2814228BF002070470020704737
:1037A0009419002008B5094B0D461446986000F0A6
:1037B000B3FB204685F30988002163B681F31188A5
:1037C000BFF36F8F0022002305F082FC94190020C4
:1037D00001B572B60B4A506900281EBF0021516125
:1037E00006F067FF62B6EFF30580A0F110004FEA24
:1037F000C0000549014409C99847BDE80140034993
:103800000847000094190020A4000020113800008F
:10381000044B99689869884203D003494FF080525D
:103820000A6070479419002004ED00E02DE9F04192
:1038300086B0064600AF0D463F4B7B6102244FF435
:1038400082513E483C6107F1100206F0F1FA3C4B10
:103850009B6AD9046DD53B4B3848C7E9044307F14F
:1038600010024FF4825106F0E3FA1720344B9B6AA2
:103870001A050BD5344B7B61022330483B6107F1BD
:1038800010024FF4825106F0D3FA18202C4CA36A90
:103890009B0523D5E8462D4B7B6102233B6107F155
:1038A00010024FF48251254806F0C2FAA36BA26AB7
:1038B000110412D588B06A4625492048C2E905138B
:1038C000032342F8103F4FF4C25106F0B1FAC54647
:1038D0001EB1A36A23F40043A3621920184B9B6A0C
:1038E0005A050BD51B4B7B61022314483B6107F142
:1038F00010024FF4825106F09BFA1A20104B9B6A7B
:10390000DB050BD5144B7B6102230C483B6107F1AF
:1039100010024FF4825106F08BFA1B20084A936A7A
:1039200043F47F439362183700232B70BD46BDE8F4
:10393000F08116209AE700BF92C8000038AE000060
:1039400000ED00E0A8C80000B9C80000CCC8000025
:10395000E5C80000FAC8000015C9000010B586B01F
:10396000364B3748059304AA02244FF4825104943D
:1039700006F05EFA334B9B6A9A015DD5324B3048B4
:1039800004AA4FF48251CDE9044306F051FA1E20F7
:103990002C4B9B6ADB010AD52C4B2948059304AAC2
:1039A00002234FF48251049306F042FA1F20254B64
:1039B0009B6A1C030AD5264B2148059304AA0223BF
:1039C0004FF48251049306F033FA21201D4B9B6A79
:1039D00059030AD51F4B1A48059304AA02234FF432
:1039E0008251049306F024FA2220164B9B6A9A0314
:1039F0000AD5194B1248059304AA02234FF48251A9
:103A0000049306F015FA23200E4B9B6ADB030AD5BC
:103A1000124B0B48059304AA02234FF482510493DE
:103A200006F006FA2420074A936A6FEA03436FEA16
:103A30001343936206B010BD1D20A9E72DC90000F5
:103A400038AE000000ED00E045C9000058C9000094
:103A500072C9000090C90000B5C90000CFC90000BC
:103A60002DE9F04786B0814600AF8A469046454B27
:103A700045487B6102243C6107F110024FF48251FA
:103A800006F0D6F9414B9B6AD80645D5404B3E48D7
:103A9000C7E9044307F110024FF48251112406F0E4
:103AA000C7F93A4B9B6A19070BD53A4B7B61022346
:103AB00035483B6107F110024FF48251122406F0A1
:103AC000B7F9324DAB6A9A0728D56C46324B7B6109
:103AD00002233B612C4807F110024FF4825106F09B
:103AE000A7F96E6BAB6A1B0649D588B06A462B4BAB
:103AF0002548C2E90536032342F8103F4FF4C2516E
:103B000006F096F9A546BAF1000F03D0AB6A23F090
:103B10008003AB62132403E01024C2E76FF01506A4
:103B20001A4B9B6AD8070BD51D4B7B6102231648A5
:103B30003B6107F110024FF48251142406F078F92A
:103B4000124B9A6AD10602D49A6A92070AD55B6828
:103B50001B0507D549463046FFF70EFE10B180F32E
:103B600009880224094A936A43F0FF0393622046BE
:103B70000023183788F80030BD46BDE8F0876FF0A5
:103B80001506C7E7FAC9000038AE000000ED00E0F6
:103B900010CA0000B9C8000043CA00005BCA000098
:103BA00071CA00002DE9F043774B8BB0D3F8048045
:103BB00000AF0546C8F30804002686F31188BFF35A
:103BC0006F8F02F07F43B3F17F4F0ED102F00C03F1
:103BD000082B19D16D4BFB6102236D48BB6107F1C6
:103BE00018024FF4825106F023F9002635460023CF
:103BF000FB71E31E092B00F2A680DFE803F00A99AF
:103C00009C95A4A4A4A4A49F10074CBF0D46012614
:103C1000EDE7E9465F4BFB614FF0020807F1180240
:103C20005B48C7F818804FF4825106F001F9002371
:103C3000554CFB71E36A9A070BD5574BC7E90683CE
:103C4000534807F118024FF4825106F0F1F80024AE
:103C500041E0E36A002B01DA504BEFE7E36A5B00D7
:103C6000F5D54F4B4A48C7E9068307F118024FF4D0
:103C7000825106F0DDF86369AA6943F480736361D9
:103C8000BFF34F8FBFF36F8F636932F8022C23F4B9
:103C900080736361BFF34F8FBFF36F8F4DF6027375
:103CA0009A4208D0A36ADBB28BB3FA1D01212846E1
:103CB000FFF7D6FE3AE088B02B686A4639493448A7
:103CC000C2E90513032342F8103F4FF4C25106F036
:103CD000AFF82C68CD46FB79ABB92022294607F115
:103CE000080006F0C2F87B6A002E47D0C3F3080232
:103CF00022B96FEA53236FEA43237B6207F108017D
:103D00002046FFF7F1FB2C37BD46BDE8F083A36AE0
:103D100013F47F4F04D0F91D0120FFF787FD05E064
:103D2000A36AB3F5803F92D3FFF718FE0446D2E7AB
:103D3000FA1D0021BBE7F91D0020EEE71A4BFB61DD
:103D40000223BB617CE7194A194B18F4F87FE84657
:103D50008AB018BF13466A4616490D48C2E90513D2
:103D60004FF400731384103C134BD4614FF4115182
:103D700042F8103F06F05CF8C54668E723F4FF738D
:103D800023F00103B9E700BF00ED00E0BECA000068
:103D900038AE0000E9CA000000CB000021CB0000D3
:103DA0002FCB00004ECB00006ACB0000A5CA00005C
:103DB00090CA00008ECB000004000001024A536943
:103DC00043F010035361704700ED00E0EFF308800B
:103DD000EFF3098101B57246FFF7E4FE01BD00BFB4
:103DE000044800234021C2180133282B82F8001315
:103DF000F9D1704700E100E0002080F31488BFF3A0
:103E00006F8FFDF7A1FF00200D490860BFF34F8FB2
:103E10000C4880F3088800F02BF8402080F31188CC
:103E200009484FF40461401880F30988EFF31480C7
:103E30000221084380F31488BFF36F8FFFF716FC4D
:103E400094ED00E040330020C02500200749D1F860
:103E500090200023C2F307221846934200DB7047EC
:103E6000C1F89830C1F8A0000133F6E700ED00E09A
:103E700008B572B6002383F31388FFF7E7FF144BEE
:103E80004FF0FF32C3F88020C3F88420C3F88820A5
:103E9000C3F88C20C3F89020C3F89420C3F898206E
:103EA000C3F89C20C3F88021C3F88421C3F888217B
:103EB000C3F88C21C3F89021C3F89421C3F898214A
:103EC000C3F89C2162B6BFF34F8FBFF36F8F08BD5D
:103ED00000E100E0084B9B6883420BD1EFF30583C0
:103EE00043B1064B5A6842F080525A605A6A22F433
:103EF00000425A6204F0BABD9419002000ED00E0BF
:103F0000024B034A0348012100F092B800800020D0
:103F1000000000203CAF0000426E054B403A1A60A2
:103F2000044A4021C3E901121846012100F08AB871
:103F3000E00C002000000B152DE9F041DFF8B4E0A3
:103F40009C4600AF154600238B421ADA4468002CC9
:103F50004DD0BCF1000F1DD0661E344215D06C460A
:103F600088B06A462449C2E90513032342F8103F8A
:103F7000224800234FF4C251FEF77EF96FF0150579
:103F8000A5462846BD46BDE8F0811F2CE7D902684A
:103F90001642E4D1202C026886685FFA85F814D9AD
:103FA000B4F1004F13D8013CB4FA84F4C4F11F04F7
:103FB0006400B8F1070F46EA04060AD96C4688B0D7
:103FC0006A460F4BC2E90535CFE70824F1E73E24E6
:103FD000EFE722F01F022A4342F0100246F00106EA
:103FE000CEF89850CEF89C200135CEF8A060013371
:103FF0000C30A9E700ED00E0A5CB000030AE0000DA
:10400000C8CB0000044B0522C3F89420BFF34F8FA8
:10401000BFF36F8F704700BF00ED00E0BFF35F8F0D
:10402000024B0022C3F89420704700BF00ED00E06F
:1040300010B5034C01232278FFF77EFF207010BDDE
:10404000F619002008B5094A00231278FFF774FF1B
:1040500010F1160F03D0064B0022072800DD08BD23
:10406000C3F89800C3F8A0200130F6E7F619002045
:1040700000ED00E014490868082810B521D8FFF7C2
:10408000CDFF124C49680022904201F10C0105D18C
:104090000F4B1870FFF7B6FF002010BDC4F8982032
:1040A00051F80C3C23F01F03134343F01003C4F8F2
:1040B0009C3051F8043C43F00103C4F8A0300132B5
:1040C000E2E74FF0FF30E8E748AF000000ED00E026
:1040D000F6190020014B1860704700BF3000002027
:1040E0004FF08043C0B2C3F81C05BFF34F8F0549A2
:1040F000054BCA6802F4E0621343CB60BFF34F8FF5
:1041000000BFFDE700ED00E00400FA0520B1034B1D
:10411000800143F001031847704700BFB0AE0000B4
:1041200080B500AF88B06A46064BC2E9053003236C
:1041300042F8103F04484FF4C45105F0D1FEBD468B
:1041400080BD00BF01CC000080AE000070B5064607
:1041500086B00D460146354805F02BFE044628B9C9
:10416000304606B0BDE87040FFF7DABF0A2D5AD8D6
:10417000DFE805F006112123323440595959300047
:104180002B4B05932B48022304AA4FF4865104932A
:1041900005F0A6FE1EE0284B05932648022304AA3C
:1041A0004FF48651049305F09BFE002304F8043C71
:1041B00004F8033C0EE0214BE3E7214B05931D4837
:1041C000022304AA4FF48651049305F089FE0123CB
:1041D00004F8043C06B070BD1A4BDDE71A4B05939A
:1041E0001448022304AA4FF48651049305F078FE84
:1041F0000123DDE7154B0F480593022504AA4FF470
:104200008651049505F06CFE14F8033C002BE1D0B8
:104210000F4B084804AA4FF48651CDE9045305F02A
:104220005FFE0023C4E70B4BABE700BF040D00208B
:1042300022CC000080AE00002FCC000045CC000056
:1042400056CC000068CC00007CCC00008DCC000077
:104250009CCC0000A9CC00002DE9F843044600AF37
:10426000884601792648914605F0AFFD0646A0B97B
:10427000A3886C4688B06A4622492348C2E90513E0
:10428000032342F8103F4FF4C45105F029FE6FF0AC
:104290001200A546BD46BDE8F88394F900300068D9
:1042A0006578002B1CDA012D12D0AB1E012B14D91E
:1042B0006C4688B06A46154B1348C2E9053503239E
:1042C00042F8103F4FF4C25105F00AFEA54604E043
:1042D00056F8083C0BB11D686DB96FF08500D9E741
:1042E000092D02D0A5F10A03E0E756F8083C002B9F
:1042F000F3D05D68F0E74B4642462146A847C9E740
:10430000040D0020B7CC000080AE0000DECC000021
:104310002DE9F84390F90030002B00AF04460D461C
:10432000164604DB6FF01500BD46BDE8F883038830
:1043300023F0E0039BB240F201629342F2D190F885
:104340000490B0F802801B4849464FEA182805F04F
:104350003CFD78B96C4688B06A46174B1748C2E9ED
:104360000539032342F8103F4FF4C45105F0B8FD5E
:10437000A546D7E7B8F1210F05D0B8F1220F0FD02D
:104380006FF08500D0E70368E1885B685B6813F82D
:10439000092F914294BF29602A6033600020C3E74F
:1043A000E38850F80C2C9A4294BF2A602B6050F896
:1043B000103CF2E7040D0020B7CC000080AE0000F6
:1043C00080B500AF88B06A46064BC2E905300323CA
:1043D00042F8103F04484FF4C45105F081FDBD463A
:1043E00080BD00BFF7CC000080AE000070B5044671
:1043F0000D4601460A4805F0F6FC20B92046BDE806
:104400007040FFF7DDBF022D08D150F8083C2BB1FA
:104410001B691BB1BDE870400068184770BD00BF44
:10442000040D0020020600F07F0312D5082B05D1F1
:10443000010700F00F0306D50E48704710F0780F03
:1044400012D100F00F034C2000EB43100A4B18442C
:104450007047082B05D1020700F00F0306D5074867
:10446000704710F0780FF6D000207047044800EB3A
:1044700043107047580E00200C0D0020780F0020CC
:10448000780E00200149024806F0DDB9340D002005
:10449000400800200146014806F08FB96C02002058
:1044A00002480022002303F021BE00BF6C0200205E
:1044B00010B5054CFFF7F4FF20B1011D204606F0B2
:1044C000C2F8F7E710BD00BF2C02002010B588B07D
:1044D00018480022002301A903F04EFC30B3164B0C
:1044E0001648079306AA4FF482510224069405F059
:1044F0000DFDFFF7DDFF0F480022002301A903F0A7
:104500003BFC50B10E4B0D4806AA4FF48251CDE949
:10451000064305F0FBFC00200AE0019804234060FC
:104520000374FFF7B7FFFFF7ADFFF4E701984060B2
:1045300008B010BD2C0200202BCD000088AE00007A
:1045400049CD000098B5022800AF11D8104B1C5C73
:10455000FFF7BCFF50B1002202740472FFF79AFF0C
:104560000C4B93F824300BB1FFF78CFFBD4698BD80
:104570006C4688B06A46084BC2E90530032342F80E
:10458000103F06484FF4C25105F0C0FCA546EDE7C8
:1045900003CF00000C0D002065CD000088AE0000A8
:1045A0002DE9F04190F80280064600AF4046FFF743
:1045B00039FF18F0800FF478054625D09CB1032C04
:1045C0001FD06D4688B06A462A4BC2F81C80C2E9EB
:1045D0000534042342F8103F27484FF4015105F0F9
:1045E00095FCAD460DE0FFF771FF034648B101228F
:1045F000AC770274032202739D60FFF74BFFFFF755
:1046000041FFBD46BDE8F08154B1012CD9D1FFF77F
:104610005DFF03460028F4D06C7704740473EBE765
:10462000FFF754FF0028ECD0B278144B12F0800F43
:1046300002F0080111D041B1D3F8A836EB60012394
:104640000374022303738560D7E702F00F0214217D
:1046500001FB0233D3F80836F0E711B1D3F8A837DD
:10466000ECE702F00F02142101FB0233D3F8083704
:10467000E4E700BF80CD000088AE0000007002407B
:1046800013B5124802F0C2FC114B98421AD11148DE
:1046900001F052FF0024104801F078FF0F49104844
:1046A00000944FF0FF334FF4806203F0ABFE0D49EE
:1046B0000B4805F0F7FF0C480C4906F0A7F8204618
:1046C00002B010BD6FF00400FAE700BF31470000F0
:1046D0000000AD0B06CF00006CAF00008021002071
:1046E00040080020ACCD0000340D00200949000036
:1046F00010B50E49BFF35B8F002351E8002F012A4C
:1047000003D141E800300028F7D1BFF35B8F0CD113
:1047100051F8044C1439204604F0A4FF783004D139
:104720002046BDE8104004F078BF10BD2C0D0020DD
:104730002DE9F04188B0064600AF1422002107F1B0
:104740000C0005F09DFB3378013B052B21D8DFE8F9
:1047500003F09B0313138D1503233B750024FFF710
:10476000B5FE0346A8B1047400F10802D7E90501BB
:1047700082E80300184634E00423EEE796F802804E
:104780004046FFF74FFE837A054633B1013B022BCB
:1047900068D92037BD46BDE8F08118F0800FF47865
:1047A00024D09CB1032CF4D06D4688B06A46374BB8
:1047B000C2F81C80C2E90534042342F8103F344893
:1047C0004FF4015105F0A2FBAD46E2E7FFF77EFE94
:1047D00003460028DDD00122AC7702740322027365
:1047E0009D60FFF757FEFFF74DFED2E754B1012C55
:1047F000DAD1FFF76BFE03460028CAD06C77047449
:104800000473EDE7FFF762FE04460028C1D00123E0
:104810000374022303738560B07805F10C0105F081
:1048200074FE70B16E4688B06A461A4BC2E9053014
:10483000032342F8103F16484FF4C25105F066FBBF
:10484000B546154AE968B2F88C328B4206D95B1A34
:10485000A2F88C3202F00EFE2046C2E70023A2F836
:104860008C32F9E73046FFF79BFE92E7381D02F0E5
:10487000DBFD7B79052B03D13B7913F0600F88D0EA
:10488000064B7B6101246AE7022468E780CD0000C3
:1048900088AE0000B7CD00000C0D0020780E00207F
:1048A00038B5002464F07F00C0B2FFF7BBFD0134CF
:1048B00005F019FB082CF5D10E4D0024E0B2FFF7EE
:1048C000B1FD036903B90561013405F00CFB082C47
:1048D00005F14005F2D1084805F005FB074BD3F878
:1048E0007C2212B9064AC3F87C22064805F0FBFA7E
:1048F000002038BD9C130020580E00200C0D002015
:104900009C0F0020780F00202DE9F047A34CDFF822
:1049100090A286B0804600AFFFF7C2FD064618B9E8
:104920001837BD46BDE8F08794F82520337C06F1A2
:1049300004093AB9002B00F0AF809948494605F0C8
:1049400082FEE9E7042B00F29581DFE813F0A50071
:1049500005003B015101780118F8043C83B9B368A4
:104960006D4688B05B7A6A468E498F48C2E9051366
:10497000032342F8103F4FF4C25105F0C7FAAD4689
:10498000337BB568032B39D8DFE803F0023F6E7341
:104990006E6908220021304605F072FA834B844884
:1049A000D3F880243270D3F884247270D3F888242A
:1049B000D3F88C1442EA01227280D3F89024D3F801
:1049C000941442EA0122B280D3F89824D3F89C349C
:1049D00042EA03230822F3803146EA6005F045FAF3
:1049E0002B68687A0021984796F90030002B08DB85
:1049F000F38833B1A4F88C3202F03CFD49465046AE
:104A00009DE70023A4F88C32F8E76B7F002BF5D0EC
:104A10002B7F002BF2D0002666486E774FF0FF32D6
:104A20004FF0FF332E7705F074FA6B693B606B68CB
:104A3000C7E901363946687A02F02AFB5E4B984294
:104A40000ED06D4688B06A465C4BC2E90530032340
:104A500042F8103F54484FF4C25105F057FAAD46A2
:104A6000544805F058FAC9E72B680121687A98473D
:104A7000C4E7AB7A6BB9EB7F5BB94E484FF0FF32BE
:104A80004FF0FF3305F045FA02F028FD494805F0E4
:104A900042FA2B680221E9E7337A042BAED8DFE82B
:104AA00003F059032367730002F07AFA05460028E1
:104AB000A4D102F007FABFF35B8F4149012351E80B
:104AC000002F002A03D141E800300028F7D1BFF3BE
:104AD0005B8F93D141F8085C41F8105CE069636139
:104AE000143904F042FD89E7002565F07F00C0B26B
:104AF000FFF798FC037A13B1407A02F09BFE013570
:104B0000082DF2D194F854311BB194F8550102F0FC
:104B100091FE0025E8B2FFF785FC037A13B1407AD5
:104B200002F088FE0135082DF4D194F874321BB1DF
:104B300094F8750202F07EFE012002F013FA0123C0
:104B400084F825302368002B3FF458AF0021022061
:104B5000984753E7002584F8255002F025FEFFF71B
:104B6000C7FD2368002B3FF449AF29460420EFE737
:104B7000002A3FF443AF02F01DFA2368002B3FF4F4
:104B80003DAF00210520E3E72368002B3FF436AF5B
:104B9000002A3FF433AF00210620D9E70C0D002096
:104BA0002C020020D7CD000088AE0000007002402B
:104BB000100D0020440D00200000AD0BFDCD0000C5
:104BC0002C0D002008F110054FF0FF334FF0FF329D
:104BD000284605F09EF9FFF763FE284605F09BF98D
:104BE00058F8283C002B3FF409AF00210120AFE723
:104BF00094F8743293B1012584F8895284F888526C
:104C0000FFF764FC90B9234B7B61022322483B6190
:104C100007F110024FF4825105F078F958F8283C5A
:104C2000002B3FF4EBAE00210A2091E71B4A0574EC
:104C300005738260FFF72EFCFFF724FCEEE7184BAC
:104C40007B6102233B6107F110024FF4825112484D
:104C500005F05CF905F0CFFB02F0A6FD02F028F9A3
:104C6000FFF726FCFFF71CFE05F0BEFB0D4802F027
:104C7000CDF9C3E66D4688B06A460B490648C2E9DD
:104C80000513032342F8103F4FF4C25105F03EF9DB
:104C9000AD46B3E623CE000088AE0000780F0020BA
:104CA00037CE0000314700004ECE0000074B93F88E
:104CB00024203AB193F82530002B14BF00206FF068
:104CC000120070476FF01200704700BF0C0D0020FB
:104CD0007FB5034602781B7902F00F007BB958B10B
:104CE000104B05930223049304AA4FF482510E48FB
:104CF00005F00CF94FF0FF3007B05DF804FB082811
:104D000001D90A4BEDE7012B09D1130707D4084B52
:104D100005930223049304AA4FF48451E7E700208B
:104D2000EAE700BF65CE000088AE000084CE000038
:104D3000A3CE000030B5164B93F8243087B004465C
:104D40001BB305782846FFF76DFBB0B14572237998
:104D50008372638843602078618810F0080F10D157
:104D60004B1E0B420DD00B4B05930B48022304AA9C
:104D70004FF48251049305F0C9F86FF0150007B0A5
:104D800030BD05F0BDFB0020F9E76FF01200F6E73B
:104D90000C0D0020B9CE000088AE000030B5194BD4
:104DA00093F8242087B0054642B393F825302BB3FF
:104DB000FFF738FB044618B96FF0150007B030BD97
:104DC000837A012B0FD007D9023B012B07D96369E6
:104DD000A3610020E060F1E702F088FBF7E72846D6
:104DE00002F0F4FAF3E7084B05930848022304AAFB
:104DF0004FF48251049305F089F8DDE76FF012005B
:104E0000DCE700BF0C0D0020E1CE000088AE000002
:104E100038B50E4B93F82420054682B193F825301F
:104E20006BB1FFF7FFFA68B115F008040AD1284604
:104E300002F0EEFA284602F051FD204638BD6FF030
:104E40001200FBE76FF01500F8E700BF0C0D002023
:104E500038B50C4B93F8242005460C4662B193F804
:104E600025304BB1FFF7DEFA48B144B1284602F0D5
:104E7000B5FA2070002038BD6FF01200FBE76FF02C
:104E80001500F8E70C0D002070B5134E96F824308D
:104E90000446C3B1FFF7C6FA0546B8B1230705D4E7
:104EA000204602F0B5FA204602F018FD2B7A83B9AD
:104EB00001232B7296F825300BB9002070BD2046D7
:104EC00002F0B8FCF9E76FF01200F7E76FF0150099
:104ED000F4E76FF07700F1E70C0D0020084B70B598
:104EE000C31A0D4607499B10044659430648402201
:104EF00005F048F82B4601462046BDE870401847AB
:104F0000B0150020B76DDBB608AD000073B50C4CD2
:104F10000C4A4023041B00930D460B460A49A4107B
:104F200061430646094805F059F8011E05DA304686
:104F30002B4602B0BDE87040184702B070BD00BFFC
:104F4000B015002047A00000B76DDBB608AD00002B
:104F5000002270B5012104461046FEF75BFB0F48A6
:104F600000F074FF0E4B984215D100F07FFF2669C8
:104F70000C49304604F0E6FA00280BDB01253564C5
:104F80002469084904F11C0004F0DCFA002801DB64
:104F9000E564002070BD6FF00400FBE7DD4F00000A
:104FA0000000AD0B70AF000070B501460C2309483E
:104FB0004B43C418D4E90E56403300221844A26370
:104FC00004F0CDFF2DB132462B460348BDE87040BA
:104FD000184770BDB015002008AD000010B10128C1
:104FE00004D07047034B1B6C5B0701D1FFF7DCBF9C
:104FF000704700BFB015002008B54FF04003EFF335
:10500000118183F31288BFF36F8F124A136843F044
:1050100002001060DA0708D481F31188BFF36F8FA4
:105020000120BDE8084005F088B94FF08043D3F86F
:105030000C24D3F80C34D307EED5074804F08FFFC7
:1050400081F31188BFF36F8F0020BDE80840FFF7A0
:10505000ABBF00BF00160020F01500201FB50022D6
:105060000123CDE90223094ACDF800D06B46CDF8E3
:1050700004D004F0E1FF002805DB4FF48042002358
:10508000684603F087F805B05DF804FB65A00000F2
:1050900010B54FF04003EFF3118483F31288BFF390
:1050A0006F8F074A136823F00201DB07116002D4F7
:1050B000012005F07DF984F31188BFF36F8F10BDD7
:1050C00000160020024AC3B21C2003FB00207047D8
:1050D000B015002038B52449BFF35B8F0446012288
:1050E00051E8003F41E800200028F9D1BFF35B8F71
:1050F00033B91E491E484B60CB608A6004F035FA14
:10510000631E012B1ED805F0C7FAE0B9194B1B78B6
:10511000CBB14FF080430222C3F8082303464FF07F
:105120008041D1F81824D1F81854ED03F9D502F0D4
:105130000302022A01D0012CF3D170B183F311884C
:10514000BFF36F8F38BD4FF04002EFF3118382F34E
:105150001288BFF36F8F0120E1E74FF080430222F6
:10516000C3F80423EEE700BFAC1500209C15002017
:10517000CC150020101E002010B5044C2046FCF772
:1051800007F92046FEF7A6FF002010BD9151000050
:10519000F7B5134E8DF807000446032502F05CFCBA
:1051A00001220DF10701002002F020FC074602F069
:1051B0005DFC27B101233370204603B0F0BD337886
:1051C000002BF9D0013D08D005F066FA0028E5D1A2
:1051D0000021422003F010FCE0E73570ECE700BF4F
:1051E000F719002030B54068057B01F01F04B2F5C7
:1051F000001F85B044EA451405D1204601F0A8F807
:10520000002005B030BD0025B2F5800FCDE9025574
:1052100014D1B3F1007F0CBF042305238DF80830AF
:105220000023194602AA204600F0C8FE1D4B9842F2
:1052300035D10121204601F047F8E1E7B3F1C06F15
:1052400022D0B3F1007F14BF012302238DF8083070
:105250008368CB40D907E3D4B2F1A07FE0D104F05A
:105260001F0303F5E0734FF0A04252F82330DB0731
:10527000D6D40DF107052946204600F0D1FF0A4B90
:10528000984203D00395CBE70323DFE7284601F0DC
:1052900015F8044B9842F5D06FF00B00B1E76FF0B2
:1052A0001500AEE70000AD0B0400AD0B10B500F02B
:1052B000F5FF044668B900F0C9FF084B98420AD1CF
:1052C0000748214600F0A6FF224605210620FEF7EA
:1052D000A1F9002010BD6FF00400FBE70000AD0B4A
:1052E000E5520000430970B507D10B4B596821B155
:1052F00001250C68094E854001B970BD8A682A40B5
:1053000002D04B68304698471CB1236821461C46A2
:10531000F2E72346FAE700BF0416002020AD0000A4
:105320002DE9FF4147683B7B01F01F0545EA431526
:105330000E4628460DF10301144600F071FF14F4E7
:10534000403F80460BD1284601F02AF83D4B984556
:1053500003D19DF8030000F0ABFF00200CE0002318
:10536000194602AA2846CDE9023300F027FE354B44
:10537000984204D06FF0150004B0BDE8F08180457C
:1053800003D19DF8030000F093FFA3034BD540F237
:1053900006332340B3F5837F19D00CD8062B17D0E2
:1053A00004D8ABB1022BE5D1042311E0B3F5807F23
:1053B000E0D101230CE040F20222934227D0B3F562
:1053C000407F26D0B3F5007FD4D1022300E007232D
:1053D0008DF8043084F48033C3F30043E0068DF885
:1053E000053054BFC4F34013032321038DF8063066
:1053F00011D57A680123B340C2F80835002201A90B
:10540000284600F089FE0F4B9842A6D0B2E705234C
:10541000DEE70323DCE7620341BF01237A68B34080
:10542000C2F80C35EAE7E3064FF0000354BFC4F3BB
:10543000401403241A4601A928468DF8044000F0C0
:10544000BDFDE0E70000AD0B222910B514D14FF0EF
:105450004003EFF3118483F31288BFF36F8F084981
:1054600000200B68086084F31188BFF36F8FC3EBD3
:105470000313C2E9003010BD6FF08500FBE700BFE9
:10548000101600200B88012B15D14B88392B01D029
:10549000222B10D14FF04003EFF3118083F31288D9
:1054A000BFF36F8F054BC3E9012180F31188BFF370
:1054B0006F8F002070476FF0850070471016002036
:1054C00010B54FF04003EFF3118183F31288BFF35F
:1054D0006F8F00280B4B0ADD1C68C0F5B60202F581
:1054E000B662A24209DB1A6802441A6005E0FAD0EB
:1054F000054A1C68121AA242F5DD81F31188BFF338
:105500006F8F10BD1016002050FAA4FF90B583B025
:1055100000AF07F1080303E903003B88B3F5827F7E
:1055200018D1B7F90200FFF7CBFF4FF04003EFF3BC
:10553000118083F31288BFF36F8F0F4AD2E90131D4
:1055400080F31188BFF36F8F0BB10C4898470C376D
:10555000BD4690BD6C4688B06A460949C2E905134C
:10556000032342F8103F074800234FF4C251FCF7D1
:1055700083FEA546EBE700BF1016002050AD0000EB
:1055800047CF000050AE00007FB51A491A4801F01D
:10559000B1F81A4B98420FD1194B0593022304938B
:1055A0001848002304AA4FF48251FCF765FE6FF0FF
:1055B0000F0007B05DF804FB134B98420DD0134B5E
:1055C0000593022304930F48002304AA4FF4825149
:1055D000FCF752FE6FF00D00EBE74FF0A0434FF0E9
:1055E0008042C3F80C250322C3F8782701F0F0F8B5
:1055F0000020DEE70D550000E4AF00000500AD0B14
:105600005ECF000050AE00000000AD0B72CF000076
:1056100007B5002201211220FDF7FCFF0B4801AA6B
:10562000002104F08BFD00280CDB019B084A19794E
:10563000186804F096FD002804DB03B05DF804EB65
:10564000FFF7A2BF03B05DF804FB00BF14B0000079
:1056500000200140014B01221A60704700C0004049
:105660000C2903690BD15B6A064907484B4393FB3E
:10567000F0F100FB113311605360002070476FF0B0
:105680008500704790D0030040420F00044B006932
:105690000022C3F80021D3F8003102F05BBD00BF47
:1056A00000C000407FB50569AB6A63B3392901D0FA
:1056B0000C292BD105F110064FF0FF324FF0FF33CC
:1056C000304602F05DFC134B0193A86A03230024CB
:1056D00069460394029303F048FF4FF0FF324FF006
:1056E000FF33284602F056FDA86A03F096FF0A4BE6
:1056F000D3F808256A6201225A60304602F0BAFCEB
:10570000204604B070BD6FF00A00FAE76FF0850024
:10571000F7E700BF5556000000C0004010B504690F
:105720000020FFF7CFFCA0624FF0FF32002120469F
:1057300005F04EF804F1100004F0CAFF0022012128
:105740000C20FDF767FF0C20FDF734FF024B012210
:10575000C3F80423002010BD00C0004070B5012331
:1057600083400E4ABFF35B8FDC4352E8001F01EA1F
:10577000040542E80056002EF7D1BFF35B8F4FF4CB
:10578000803282400648C0F80823BFF35F8FBFF322
:105790006F8F0B4214BF0120002070BD4C160020FB
:1057A0000010014070B40E49D1E90034D01AC3187A
:1057B00044F1000422F07F46C1E90034A6F500134D
:1057C000B3F5400F09D2074B1B681A0A1B069C1938
:1057D000054B42F10005C3E9004570BC03F08EBAE9
:1057E000F008002050160020F808002011B3BFF385
:1057F0005B8F0123104A834052E800CF4CEA030C30
:1058000042E800C10029F7D1BFF35B8F0B4A4FF488
:1058100080338340C2F80433094BBFF35B8F1B68AE
:10582000BFF35B8FC340DB0742BF064B4FF4003230
:10583000C3F80021704700BF4C1600200010014043
:105840004816002000E100E00D4B1868010A000630
:10585000BFF35F8F0B4BD3F80435181841F10001EB
:10586000B3F5801F0AD2084BD3E90023904271EBB5
:10587000030303D210F1807041F10001704700BFB3
:105880005016002000100140F80800202DE9F74FC5
:1058900016461F460446FFF761FF0090FFF7D4FF4E
:1058A000B04271EB070351D23A4B301A67EB01015A
:1058B000984271F100016AD2374B03EB0413D3E92C
:1058C00002239F4208BF96424ED034494FF480399C
:1058D00004F1500509FA04F9AD00C1F848932046D7
:1058E000ADB204F0B8FC26F07F4B05F1804504F51D
:1058F000A8732B4A019305F58835DC464FF0030A5F
:10590000019B2CF07F4041F82300C1F84493D1F86B
:1059100004856FF00200A0EB0800604420F07F4097
:10592000904221D9286860B1D1F80485A8EB0B001A
:1059300020F07F40B0F5000F16D9204604F08BFC14
:10594000174A0AEB080C0AF1010AD9E70123154AA4
:10595000BFF35B8FA34052E8000F184342E80001F9
:105960000029F8D1BFF35B8F0B490C98230101EBA1
:105970000412C2E90267C8500D9B536000252046FF
:105980000099FFF733FF284603B0BDE8F08F6FF0B2
:105990001505F4E701008000E00800200010014038
:1059A000FDFF7F004816002073B51B4C1B4BC4F84D
:1059B0000833C4F848331A4B00254FF0FF304FF03E
:1059C000FF31C4F80855C3E902014FF48033C4F82D
:1059D0000433144B02264FF400320121C4F804634F
:1059E0001120C3F880212A46FDF714FE1120FDF78F
:1059F000E1FD0D4A0123A360236013600B4B0C4AA9
:105A00000093019500232846FFF740FF3046FFF73B
:105A100061FB284602B070BD0010014003000F007A
:105A2000E008002000E100E04C160020A55700002F
:105A3000FFFF7F002DE9F7432B4CD4F8043399077F
:105A40000BD5D4F8043143B1284A0023C4F80431FB
:105A5000D4F80431136801331360D4F80433DA0343
:105A600023D5BFF35B8F224B53E8002F22F00101B7
:105A700043E800100028F7D1BFF35B8FD30702D4AF
:105A8000D4F840318BB10025C4F84051D4F84031EE
:105A9000FFF7DAFEEFF3108272B6164BD3E9026716
:105AA000B042B94104D282F3108803B0BDE8F0835C
:105AB0004FF0FF384FF0FF39C3E90289D3E90010F6
:105AC0001D604FF48033C4F84833C4F84051D4F813
:105AD000403182F310880029E7D0009032463B46DF
