:1000000080160020992D0000837B00006D2D0000DC
:100010006D2D00006D2D00006D2D00000000000012
:10002000000000000000000000000000ED260000BD
:100030006D2D000000000000992600006D2D0000CD
:100040009D270000754300009D2700009D270000AC
:100050009D2700009D2700009D2700009D27000090
:100060009D2700009D270000EF7F00009D270000D6
:100070009D2700009D2700009D2700009D27000070
:100080009D2700009D2700009D2700009D27000060
:10009000E54300009D2700009D2700009D270000EC
:1000A0009D2700009D2700009D2700009D27000040
:1000B0009D2700009D2700009D2700009D27000030
:1000C0009D2700009D2700009D2700009D27000020
:1000D0009D2700009D2700009D2700009D27000010
:1000E00053B94AB9002908BF00281CBF4FF0FF319F
:1000F0004FF0FF3000F00CB8ADF1080C6DE904CE04
:1001000000F008F8DDF804E0DDE9022304B07047F0
:10011000704700BF2DE9F04F07468C460846099E00
:1001200015463C461946002B40F0C6808242B2FA82
:1001300082F746D94FB1C7F1200E24FA0EFE00FA1D
:1001400007F3BD404EEA030CBC404FEA15481FFAC6
:1001500085FEBCFBF8F9220C08FB19C309FB0EFA5B
:1001600042EA03439A4528D9EB1809F1FF3004D23B
:100170009A4502D9A9F102002B44A3EB0A03A4B2C9
:10018000B3FBF8F208FB123302FB0EFE44EA034411
:10019000A64514D92C1902F1FF3303D2A64501D983
:1001A000931E2C44A4EB0E0443EA00401EB1FC4015
:1001B000002334607360BDE8F08F4846DDE71346E6
:1001C000F0E702B9FFDE87BB831A01214FEA154E23
:1001D000AAB2B3FBFEFC200C0EFB1C330CFB02F896
:1001E00040EA0343984563D9EB180CF1FF3004D281
:1001F000984502D9ACF102002B44A3EB0803A4B24A
:10020000B3FBFEFC0EFB1C330CFB02F244EA03447E
:10021000A2424FD92C190CF1FF3304D2A24202D9C9
:10022000ACF102032C44A41ABEE7C7F1200C20FA5B
:100230000CF800FA07F324FA0CFCBD404CEA030268
:100240004FEA154EABB2B8FBFEFC110C0EFB1C8046
:100250000CFB03F941EA0040814504FA07F423D975
:1002600028180CF1FF3104D2814502D9ACF102010A
:100270002844A0EB090092B2B0FBFEFC0EFB1C0070
:100280000CFB03F842EA004398450FD9EB180CF138
:10029000FF3204D2984502D9ACF102022B44A3EB01
:1002A000080342EA014191E76146E2E76246F6E768
:1002B0006046A2E76346B6E7834205D90EB1C6E9B8
:1002C00000700021084676E7B3FA83F181B98342D2
:1002D00001D3BA420AD8BC1A60EB030301209C4642
:1002E000002E68D0C6E9004C002164E70846F7E715
:1002F000C1F1200C8B4022FA0CF41C4302FA01F5E8
:1003000000FA01F327FA0CF220FA0CFB4FEA144929
:100310001343BBFBF9F81FFA84FE09FB18BB1A0C48
:1003200008FB0EFA42EA0B42924507FA01F73ED962
:10033000A21808F1FF3004D2924502D9A8F10200B8
:100340002244A2EB0A029BB2B2FBF9F809FB182285
:1003500008FB0EFE43EA024296452AD9A21808F18C
:10036000FF3304D2964502D9A8F10203224443EA9E
:100370000040A0FB0593A2EB0E029A42CE4698469F
:1003800002D306D14F4504D2B9EB050E63EB040846
:10039000013886B1B7EB0E0362EB080707FA0CFCD5
:1003A000CB404CEA0303CF40C6E900379CE7404608
:1003B000C7E74346DBE73146FDE600002DE9F84F8D
:1003C000524C534E00AF4FF000092568284607F005
:1003D00066FF0346A0B929684E4888B06A46C2E95C
:1003E0000501022111774C4942F8101F4B484FF488
:1003F000D25107F079FB4FF0FF30BD46BDE8F88FD2
:10040000E3882068217943F48032D0F810E0D0F8F6
:10041000088013F0010F4FF0010CDEF800300CFAE9
:1004200001FC14BF4CEA030323EA0C03CEF80030AE
:10043000D8F80030984721798046B0B12B68384809
:100440006C468AB06A46C2E90508C2E9073103234F
:1004500082F82430334B42F8103F304800234FF4E9
:10046000295107F041FBA546C7E720680269836868
:100470001268D3F818B04FF0010A0AFA01FC1CEA1E
:10048000020F0CBF4FF080634FF000734FF0A0726B
:10049000D84794F804B048B12B6823496C468AB019
:1004A0006A46C2E90510C2E9073BD0E71F4B7360FB
:1004B0000AFA0BF3B360AB68DB691BB152463146F5
:1004C000284698472B681A496D468AB06A4651619A
:1004D0001849C2F820B0C2E90613032382F8243079
:1004E000104B42F8103F0D4800234FF42C5109F1F6
:1004F000010907F0F9FAB9F1050FAD4604F1080456
:1005000006F10C063FF479AF5FE700BF7889000081
:1005100058080020988B000003000001C8880000E4
:10052000B68B000005000001DE8B00005372000056
:10053000138C00003A8C000038B50D4D0446284657
:1005400006F072FE206005F1080006F06DFE6060A6
:1005500005F1100006F068FEA06005F1180006F035
:1005600063FEE06005F1200006F05EFE206138BD0C
:10057000788900002DE9F04387B000AF00F040F823
:100580000446FFF71BFF00214FF4004006F0B8FBC4
:10059000204600F0C1F8DFF86080184E204606F0D3
:1005A0005CFE381DFFF7C8FF204606F05AFE0546E0
:1005B000204606F05FFEE9468EB06A467B6813620D
:1005C000BB685362FB6893623B69D3627B691363C8
:1005D0000923C2E90585D06142F8103F002344F6A3
:1005E000C001304607F080FACD4600214FF40040AC
:1005F00006F086FBD2E700BF478C0000C0880000F1
:10060000F8B500AF234D284605F0E4FB0446A0B939
:10061000214B6E4688B06A46C2E90535022313773E
:100620001E4B42F8103F4FF4D25103461C4807F0CE
:100630005BFAB5462046BD46F8BD07F030FE23689C
:10064000054698B917496C4688B06A46C2E9051351
:1006500002231377114B42F8103F4FF4D251034657
:100660000F4807F041FAA5462C46E3E70E496D46D0
:1006700088B06A46C2E9051302231377074B42F894
:10068000103F074800234FF4D65107F02DFAAD462E
:10069000D0E700BF858C00008D8C000003000001B6
:1006A00010890000A68C0000FA8C000090B583B081
:1006B000002200AFC7E9001283681C68C4B13B4642
:1006C0000E223921A0470346A0B96C4688B06A467D
:1006D0000E49516139689161032142F8101F0C489D
:1006E0004FF4C65107F000FA0C37A546BD4690BD41
:1006F0006FF0570307496C4688B06A46C2E9051394
:10070000032342F8103F0023E9E700BF228D0000D9
:1007100010890000328D0000F0B583B0044600AFB0
:1007200083681E4DDB68392198476E4688B06A465B
:100730001B4B53610423C2E9065042F8103F19488D
:1007400000234FF4045107F0CFF90023C7E9003329
:10075000B546A3681E68EEB13B460F2239212046FC
:10076000B047114B6E4688B06A46C2E9053504238E
:10077000D06142F8103F00230A484FF4045107F0BB
:10078000B3F94FF44871B5462046FFF78FFF0C3799
:10079000BD46F0BD6FF05700E3E700BF7F8D00005E
:1007A0004F8D0000108900005E8D00002DE9F04F94
:1007B0008DB01F46169B0292009302F00403C2F311
:1007C000C2020193531C820705460E46049340F073
:1007D0002182041D002840F0208201F00706341D0C
:1007E000C6F108064FF0000A4FF004087B1ECDF852
:1007F0000CA05246D146414605B127600498002816
:1008000007DCCB488742C0F04181CA48874280F06C
:100810003D81029810F0020E00F051814FF0010C62
:10082000601BBEF1000F00F03781B0F5007FC0F013
:1008300033816FF01500FEE0B9F1000F08D12528D3
:1008400040F041814FF001094FF0040841463AE180
:100850002B2825D81F2802D84FF0000933E1A0F13A
:10086000200CBCF10B0FF7D80FF2040E5EF82CF041
:10087000C70A00005908000059080000C70A000014
:1008800059080000590800005908000059080000E4
:100890005908000059080000570A0000C70A000064
:1008A000A0F12D0C5FFA8CFEBEF14D0FD4D8BCF137
:1008B0004D0FD1D80FF2040E5EF82CF0C70A0000DD
:1008C000C70A000059080000C70A0000C70A000054
:1008D000C70A0000C70A0000C70A0000C70A0000D4
:1008E000C70A0000C70A0000C70A0000C70A0000C4
:1008F0005908000059080000590800005908000074
:10090000590800005908000059080000130A0000A7
:10091000590800005908000059080000130A000097
:10092000130A0000130A00005908000059080000CB
:100930005908000059080000C70A000059080000C3
:100940005908000059080000590800005908000023
:100950005908000059080000590800005908000013
:100960005908000059080000F50900005908000066
:1009700059080000590800005908000059080000F3
:10098000590800005908000059080000130A000027
:1009900059080000F5090000F5090000130A0000DD
:1009A000130A0000130A0000C70A0000F50900003E
:1009B000470A000059080000C70A00005908000053
:1009C0004D0A0000F50900004D0A0000590800001A
:1009D000590800004D0A000049080000F509000010
:1009E0005908000059080000F509000059080000E6
:1009F0004908000013F801CCBCF16C0F29D113F8A1
:100A0000021C6C294FF000093DD04FF0040841460C
:100A100021E0009800F1070B2BF00700F0E80289B5
:100A20000734009024F0070455B105982044B042E3
:100A300004D96FF01B000DB0BDE8F08FC4E9008948
:100A400008344FF000094FF00808FFE64FF00009A6
:100A5000DBE74FF00009013C4444C8F1000C04EA14
:100A60000C0425B1A1EB050CA444B445E1D87328CE
:100A700052D10498DDF800B001385BF8047B049093
:100A8000CDF800B0B8E64FF00808C0E702984FF084
:100A9000000C00F0020EC3E60F2A3FF6CAAE45B3C3
:100AA0000DF1300EC0F387009644BCF1000F1AD050
:100AB00060F07F000EF8100C0AF1010A0132C5F156
:100AC00008000434059013F8010F00287FF4B4AE39
:100AD000611BB1F5806FBFF4ACAE002D3ED1A6F125
:100AE00008046018A7E70EF8100C03980130039073
:100AF000E4E7BCF1000F01D1019808B10136DDE750
:100B00003846CDE90612059307F04FF80236DDE9C5
:100B10000612059B0644D1E704290DD1009800F187
:100B2000040C0DB1006820600434CDF800C0CAE7A1
:100B3000A0860000F0A9000008297FF47AAE009892
:100B4000073020F0070000F1080CCDF800C01DB1FF
:100B5000D0E900BCC4E900BC0834B4E7019B2860BC
:100B6000890829709DF80C10A3B16870E97085F8A8
:100B700002A0BAF1000F06D008A84FF0000CC5F192
:100B8000010E62450AD10DF1200808EB0209C5F1FA
:100B9000010B39E0019B6970EB70E8E710F8011B6D
:100BA0000B0608D504EB0E08B04501F07F013FF6B7
:100BB00040AF04F8011B0CF1010CE2E7BAF1000FA1
:100BC00003D098F90020002A1CDB019B03BB98F896
:100BD000002055F8227045F82230384606F0E5FF2F
:100BE000421C04EB0B011144B1423FF622AF98F8CE
:100BF000001004F8011B39462046009206F0F1FF70
:100C0000009A144408F10108C145D7D1601B12E7CE
:100C10000022E6E76FF00D000DE707293FF6E2AD91
:100C200007E700BF2DE9F04F8BB00646DDF850B066
:100C3000049314460F46B1B1B578059535BBAA4665
:100C4000F378019313B11BF0020F22D1BAF1000F18
:100C50001FD124B13A463146204606F0C2FF38463D
:100C60000BB0BDE8F08F90F80190B578007805EBF7
:100C7000800535448A46CA45DED20135284606F04D
:100C800094FF013005440AF1010AF4E70BF0010A70
:100C9000D6E796F800904FEA8903039306EB89099B
:100CA000002C5BD1BAF1000F32D04D444D451DD11F
:100CB000A946DDF804A0DFF804C281490BF005085D
:100CC0004D46CA440BF00202AA45C8D015F8010BE4
:100CD00056F82000604524D3884222D21BF0010F31
:100CE00039D1B8F1000FEFD1013FEDE719F8013B21
:100CF00056F8230006F059FF159B013033B1169BBF
:100D00009C423EBF159B23F8140001340744CDE7F5
:100D10002DB11BF00404CCD0A9445446C9E72C469D
:100D2000C7E7002AD0D04FF00009019206F03DFF3E
:100D3000159BDFF888C1019A6149013033B1169BD8
:100D40009C423EBF159B23F8140001340744B9F1BF
:100D5000000FB9D0C5E74FF00109E6E7039A314625
:100D6000204606F03EFF039BE3180293BAF1000F02
:100D70000AD049462A4606A806F033FF0023A3708E
:100D8000A944DDF808800DE0BDB11BF0040F14D0BC
:100D90002A464946029806F024FF029BA94403EB29
:100DA00005085546019B0BF0020E0BF001004A4668
:100DB00009EB030C0BF0040B25E00025A570E0E720
:100DC00012F8013BDFF8F4A056F82310514503D385
:100DD000DFF8ECA0514505D3BEF1000F03D108F8B0
:100DE000013B10E038B10DF1280A691C554405F8A3
:100DF000103CCDB207E0BBF1000F04D008F8013B76
:100E0000A3780133A3709445DAD16378019A2B4417
:100E10006370029BA8EB030BA378ABEB030B059B62
:100E200084F803B01344FF1A039BFF1A019B40464A
:100E30003A4609EB0301B84406F0D3FEA8EB0400E0
:100E4000002D3FF40DAF049B1C1AA54202D36FF096
:100E50001B0005E74FF0000906AB159A13F809309F
:100E600056F82310C2B132F81970C24604F1FF3BA4
:100E70000AF8013B97B13A46504606F0B2FE09F136
:100E800001094D45ABEB07040AEB0708E4DC049BC2
:100E90001F44A7EB0B00E3E6159FE6E701390123AA
:100EA0009C42D4D011F8012F08F80320581C12B925
:100EB0001F1EE4DACBE70346F2E700BFA08600007E
:100EC000F0A90000014B1860704700BF000000202F
:100ED00030B585B0CDE901010446002501A90548DA
:100EE000039500F0E9F8DDE902309842B8BF2554D7
:100EF00005B030BD217300002DE9F84FB0F818900F
:100F000019F00808044693460DD001290CBF49F09A
:100F1000100949F02009A0F818908BF31188BFF34D
:100F20006F8FBDE8F88F09F00709022907D1204625
:100F300006F023FA0028F0D00128238B4ED16769F0
:100F4000218B002F15DA256821F00701C4E90088FC
:100F500041F0010121830026218B01F0070ACA45D7
:100F600002D0A368002B5AD10DB9002E71D00023F6
:100F700056E001F007035A1F012A1ED821F007018D
:100F8000062B256889B2C4E900880AD13DB1638B7C
:100F90002A46126801339BB2002AFAD1638341F0DA
:100FA00002012183204606F0E8F906460028D3D046
:100FB000238B43F020032383CDE7042B0CD121F0B6
:100FC000070189B22183204606F0D7F9054600289B
:100FD000C1D041F0200121830025BCE7032809D1BD
:100FE000226923F00703166843F0060323830025D4
:100FF0002F46B1E7042806D1226923F0070356687B
:1010000043F00403F2E7052806D1226923F0070321
:10101000966843F00503E9E700252E46E8E701233B
:1010200041F0080121838BF31188BFF36F8FFBB967
:1010300085BB16B11F492046B0474FF02003EFF3A0
:10104000118B83F31288BFF36F8F238B23F0080378
:101050002383238BDA0625D523F010032383012174
:10106000B4F8189009F0070900297FF45EAF54E73F
:10107000A1680029DCD0D1F80090D1F804B03B463B
:1010800052462046D847B9F1000FD1D04946D9F889
:101090000090F2E729463B46524620462D6806F06E
:1010A00088F9C5E713F020011EBF23F02003238336
:1010B0000221D5E7DF7300002DE9F04F91B08B4698
:1010C000029092461C4600259AF8000008B928466E
:1010D0005FE325280AF1010707D0029B594698478C
:1010E0000028C0F25683013512E2182200210AA816
:1010F00006F082FD9AF80130252B78D000221046A8
:10110000964694461646394617F8013B2B2B00F0BD
:101110009D8000F29480202B00F09B80232B00F018
:101120009B802EB19DF8306046F004068DF830604B
:10113000BCF1000F05D09DF8306046F008068DF830
:101140003060BEF1000F05D09DF8306046F010060B
:101150008DF8306028B19DF8300040F020008DF807
:1011600030002AB19DF8302042F040028DF8302046
:101170009DF8302002F04400442803D16FF386121A
:101180008DF830209DF830202A2B42F080028DF817
:1011900030207BD19DF8312042F001024B1C8DF8AC
:1011A00031201A782E2A9DF831200CBF0121002110
:1011B00061F341028DF8312074D15A782A2A6AD01D
:1011C000013300210A26184610F8012BA2F130073E
:1011D000092F40F28E809DF830200E91C2F340001E
:1011E00040EAD17161F341028DF830205AE00AF1F2
:1011F00002078DF833309DF83130D90740F149812D
:1012000054F8049BB9F1000F07DA9DF8302042F042
:1012100004028DF83020C9F100095A0740F14281DB
:1012200054F8048BB8F1000F80F241819DF8313001
:101230006FF341038DF831304FF0FF3837E12D2B3C
:101240000CD0302B7FF46DAF01225CE74FF0010C26
:1012500059E74FF0010E56E7012054E7012652E707
:101260000CFB0202303A33461E4616F8010BA0F181
:101270003007092FF4D9994293D09DF830100D9280
:10128000D20F62F341018DF830108AE70B4600223D
:101290004FF00A0CE8E79DF8312042F004028DF887
:1012A000312002331F4617F8012B6C2A41D025D874
:1012B000682A2BD06A2A46D04C2A4CD01F4617F8F1
:1012C000012B9DF831308DF83320782A00F2D98037
:1012D000572A4DD8412A03D0453A022A00F2D1803C
:1012E0009DF83230042262F302038DF8323001237C
:1012F0009EE006FB01213039034664E7742A26D0BC
:101300007A2ADBD19DF8313006220DE05A78682A1E
:101310009DF8312006D1012161F3C6028DF83120FC
:101320009F1CCCE71346022262F3C6038DF83130CE
:10133000C5E75A786C2A9DF8312001D10421EBE7EA
:1013400013460322F0E79DF831300522ECE79DF8C3
:1013500031300722E8E7BDF8303023F4F04323F0C2
:10136000020343F4804343F00203ADF83030A6E7B4
:10137000A2F15801202900F2848001A050F821F048
:10138000451400008314000083140000831400003F
:1013900083140000831400008314000083140000F1
:1013A00083140000E11200008314000045140000C3
:1013B00005140000E1120000E1120000E11200003B
:1013C000831400000514000083140000831400003F
:1013D00083140000831400004D1400004514000025
:1013E00069140000831400008314000069140000D5
:1013F00083140000451400008314000083140000CF
:10140000451400009DF83210012003F0780360F3CA
:101410000201402B8DF8321002BF9DF8301041F0D0
:1014200001018DF83010632A31D1003B18BF012330
:101430009DF83020C2F340010B4363F341028DF865
:101440003020D8E69DF832100220DEE79DF83220E9
:1014500003F07803A3F14000032161F30202434249
:101460008DF832204341E3E79DF83220032113F049
:10147000780F61F302028DF8322014BF012300239C
:10148000D6E79DF8303043F001038DF8303000236B
:10149000CEE79DF93020002AB4BFDDF834904FF03C
:1014A000FF39BAE69B077FF5C7AEDDF838809DF8B7
:1014B00031100023CDE90D339DF8323003F00703DE
:1014C000012BC1F3C30138D1CB1E042B22D8DFE896
:1014D00003F003090921210054F8043BDA17CDE990
:1014E0000A3206E0073424F00704F4E80223CDE9C9
:1014F0000A239DF8303013F0030656D002983B467D
:101500005246594606F059F80028C0F24281054477
:10151000BA46D9E554F8043B01294FEAE372CDE914
:101520000A3205D19DF828300A9300230B93E0E797
:101530000229DED1BDF92830D0E7022B23D1CB1E02
:10154000042B13D8DFE803F0030A0A121200226802
:101550000A920023201D0B930446CAE7E01D20F0E9
:101560000700F0E80223CDE90A23F5E754F8043B2D
:101570000A9301294FF000030B93D3D00229B8D16D
:10158000BDF82830D0E7042B09D1E31D23F0070371
:1015900003F10804D3E90023CDE90A23A9E7032BCB
:1015A00004BF54F8043B0A93A3E79DF8330078285E
:1015B000AED8622822D825283FF48FAD5828A7D16D
:1015C0000DF126030093DDE90A0104AB0CAA05F036
:1015D000AEFF8246B8F1000F0DF126000CDB9DF83E
:1015E0003020A0EB0A036FF3861298458DF8302067
:1015F00002D9A8EB03030D9380463DE0633815281C
:1016000086D801A252F820F089160000ED160000DD
:101610001115000011150000111500001115000032
:10162000ED16000011150000111500001115000045
:1016300011150000471700001517000019170000CA
:1016400011150000111500006116000011150000B1
:1016500015170000111500001115000015170000E6
:10166000B8F1000FDDF828A00ADB4146504606F02D
:10167000A3FA0AEB00080026BAF1000F0CD147E7E5
:10168000504606F092FAF4E70A9B8DF810300026D7
:101690000DF1100A0DF11108A8EB0A0306B1013390
:1016A0009DF83220D00668D5023352060D9948BF06
:1016B0000E9A0B4448BF9B18B9F1000F76DD9DF8D8
:1016C0003020A9EB0309C2F38003039353076DD4C1
:1016D000500661D546B1029B5946304698470028CE
:1016E00057DB039B01351E46302356E01E070FD4FF
:1016F00013F0100618BF2026DDE90A23002BBFF6E1
:101700005FAF524263EB4303CDE90A232D2657E72F
:101710002B26F1E7002653E70A9840B30DF1260384
:1017200000930CAA04AB002105F001FFBDF8323094
:1017300003F0EF0343F4F04343F010038246ADF8A7
:101740003230002646E70A9B07293FF6E1AEDFE884
:1017500001F00C04060C08080C0C1D70D8E61D8066
:10176000D6E6EA17C3E90052D2E61D60D0E6DFF8FC
:10177000C8A006460AF105088EE7110748BF0133E5
:1017800093E7184603935946029B98470028039B0A
:1017900004DA11B0BDE8F08F20234D444A46002AF8
:1017A000A5EB090109F1FF39EBDC0D4636B1029BCF
:1017B0005946304698470028EBDB01359DF832301A
:1017C000D90601D41A0706D5029B594630209847FE
:1017D0000028DEDB01359DF83230DB0607D59DF8A9
:1017E0003300029B594698470028D2DB01350D9EF5
:1017F0002E44731B002B16DC029843465246594672
:1018000005F0DBFE0028C4DB0544A944A9EB050371
:10181000002B7FF77DAE029B594620209847002879
:10182000B7DB0135F2E7029B594630209847002884
:10183000AFDB0135DDE700BF9C8D000030B51049FE
:10184000104889B0002206F0FBFE0F4D0F49002220
:101850000023CDE9062300240E23CDE90334CDE98E
:1018600001440B4B00944FF44072284604F076FC80
:101870000849284606F027FD204609B030BD00BFC4
:101880009918000068050020A0050020600F0020C6
:10189000BD1A0000A28D0000014804F0BDBD00BFCC
:1018A00054010020014B53F820007047A08900002C
:1018B00070B5124BBFF35B8F53E8005F6A1C43E8BF
:1018C00000210029F8D1BFF35B8F2DB90C4C0D4ED0
:1018D000361B3611B54200DB70BD237B53B1236844
:1018E0009B690BB12046984763680422196820461B
:1018F00000F092F901351034ECE700BF9C0800209D
:10190000308900004089000010B5044C237813B9D9
:10191000034804F081FD0123237010BD320B002029
:10192000540100200C4BBFF35B8F53E8002F0132B2
:1019300043E800210029F8D1BFF35B8F58B1BFF312
:101940005B8F064B53E8002F013A43E80021002942
:10195000F8D1BFF35B8F70479808002094080020EF
:101960000020064BBFF35B8F024653E8000F43E8AD
:1019700000210029F9D1BFF35B8F70479808002040
:10198000F8B5FFF7EDFF0A4C0A4D2D1B07462D1148
:101990000026AE4200DBF8BD63685B792BB123689B
:1019A0001B6913B139462046984701361034F0E7D9
:1019B00030890000408900000149024805F0C8BE96
:1019C000AC890000A0080020084A08B50023137065
:1019D000074A1360074B084A1A604FF4004000F0B2
:1019E000FBFABDE80840FFF7E7BF00BF330B00205C
:1019F0009808002004000020F97900000146002228
:101A00000148002305F0C5BEA0080020014805F0EC
:101A100056BF00BFA00800200146014805F09BBF4B
:101A2000A0080020014805F0CABF00BFA0080020A0
:101A30001D4B1B782DE9F041054603B988B305F02D
:101A4000F0FF064618B16DB13046FFF7E5FF2DB93E
:101A5000164B1B68002B01DDFFF792FFBDE8F0413C
:101A6000FFF7E0BF124BBFF35B8F53E8002F013A43
:101A700043E800210029F8D1BFF35B8F0D4C0E4FD6
:101A80003F1B3F11A846B845DEDA63685B7923B196
:101A9000236831461B682046984708F10108103436
:101AA000F1E7BDE8F08100BF320B0020980800206C
:101AB00094080020308900004089000010B5FFF72D
:101AC000F7FE05F037F90C4B186030B10B4B1B6873
:101AD000092B02DD0A4804F09FFC094C0020FFF7A7
:101AE000A7FF0028FAD14FF0FF324FF0FF33204616
:101AF00004F0B2FCF2E700BFD808002094080020F0
:101B00005401002013B51D4BBFF35B8F53E8002F2A
:101B1000511C43E800100028F8D1BFF35B8F184B2D
:101B20001B7883B14FF02003EFF3118483F3128805
:101B3000BFF36F8F0020FFF77BFF84F31188BFF3A3
:101B40006F8F02B010BD0F4B1B68002BF9D052B93C
:101B500000220023CDE900230B484FF4004200236C
:101B600005F0EAFAEDE70A2AEBD1074806F074FD22
:101B7000064802B0BDE8104004F04EBC94080020B6
:101B8000330B0020D80800206805002054010020F5
:101B9000064B10B51B68044698472146A0600448D0
:101BA00005F06DFEBDE81040FFF7ACBF040000205B
:101BB000A0080020F8B50E4F3D7875B90D4C0E4EBB
:101BC000FFF776FE361B3611B54207DB0020FFF724
:101BD0002FFF0028FAD101233B70F8BD63685B79C1
:101BE0001BB1236820465B69984701351034EBE749
:101BF000330B00203089000040890000044A054B67
:101C00009B1AB1EBD30F34BF52F83100002070475C
:101C1000C088000030890000054A4368801A00111E
:101C200001300122187119605A71FFF76DBE00BFB3
:101C3000308900000EB403B503AB014653F8042B02
:101C400004480193FFF738FA02B05DF804EB03B0E3
:101C5000704700BF637A00002DE9F0471D46089BDE
:101C60001746DA0604460E4605D499064CBF2A49A3
:101C70002A49FFF7DFFFDFF8A8904FF00008A845DA
:101C80002ADBDFF8A080DFF8A090DFF894A0002521
:101C9000BD422FD2725D49462046FFF7CBFF01358A
:101CA000102D20D12149DFF87880DFF8849020467C
:101CB000FFF7C0FF0025AF4228D9725DA2F12003D3
:101CC0005F2B28BF2E2249462046FFF7B3FF013580
:101CD000102D14D1BDE8F08749462046FFF7AAFF32
:101CE00008F10108CBE76A07D2D151462046FFF739
:101CF000A1FFCDE741462046FFF79CFFCFE76B07EA
:101D0000D9D141462046FFF795FFD4E7414620460A
:101D1000FFF790FFDBE700BFAF8D0000AE8D000046
:101D2000B98D0000B78D0000B18D0000BB8D0000A3
:101D3000BD8D00002DE9F04F87B01C4601F0010376
:101D400005929DF84090BDF948A004930746884647
:101D500001F0020B01F0080605F067FE02460028BC
:101D600044D03A493846FFF765FF0546BBF1000FFE
:101D700008D018F0440F3BD1354922463846FFF7CA
:101D800059FF0544049B53B1324B334953F8292082
:101D9000324B3846002A08BF1A46FFF74BFF3EB1C8
:101DA0002F4B304953F829203846FFF743FF0646AA
:101DB000BAF1000F16DB059B002B45D0012303FA77
:101DC00009F9294B294C19F0100F18BF1C46514630
:101DD0009DF84400FFF712FF214602463846FFF700
:101DE00029FF0644701907B0BDE8F08F0546BDE72E
:101DF0001F4B18680028C4D01E4B4FF47A781B681C
:101E0000B4FBF3F44FF46161B4FBF0F300FB134453
:101E100008FB04F44FF03C0CB3FBF1F201FB123170
:101E2000B4FBF0FEB1FBFCF300FB1E440CFB1311F2
:101E300008FB04F40091B4FBF0F00F49CDE901E098
:101E40003846FFF7F7FE9CE7084CC0E7CE8D000050
:101E5000D28D0000C089000032930000C08D0000C8
:101E6000D4890000F78D0000CA8D0000C58D0000E8
:101E7000DC080020E0080020DB8D000038B50C46AF
:101E8000E107054603D5084A0849FFF7D3FEE206F5
:101E900008D4A30628464CBF05490649BDE838408A
:101EA000FFF7C8BE38BD00BFC08D000032930000F0
:101EB000AF8D0000AE8D00002DE9FF470B8813F4B5
:101EC000E07F06460C469046C3F382194DD00A784F
:101ED0004B68C2F3C202002B44D025495B1A43F37E
:101EE000CF03CDE90123CDF80090A368002241463D
:101EF0003046FFF71FFF8246254655F8103BC3F3D7
:101F0000492353B11B4F1C481C492B463246B9F19B
:101F1000000F08BF384605F0B6F96788C7F3CB074E
:101F200097B12368C3F349231D44102F3C4628BFB3
:101F300010242946CDF80080534622463046FFF74C
:101F40008BFE3F1B2544F0D1B9F1000F04D04A4667
:101F500041463046FFF792FF304604B0BDE8F047F7
:101F600005F072BD4FF0FF33BBE7CA46C4E700BFC0
:101F7000C0880000997A0000637A0000B910000060
:101F800073B542F20F738B4228BF0B4605680F4AA8
:101F900004460521684605F0E3F963680C495B686F
:101FA00006460B22284605F042FD63683246694624
:101FB00028465B6805F03BFD636806495B681B22A9
:101FC000284605F034FD02B070BD00BF5B8D0000F7
:101FD000398E00001D8E0000084A10B50123084C00
:101FE00013600021A04204D801B11360054B1860B2
:101FF00010BD40085B000121F4E700BFE0080020AD
:1020000040420F00DC0800202DE9F04F87B0DDE9E9
:1020100011579A46109BDDF84CB00393044689464D
:102020009046CFB3CDF800B03B462A4610210020A1
:10203000CDF814B0FEF7BAFB0646039A08F0070382
:1020400004F0070802F11700144C4FEAC80848EAE8
:1020500083183044124B04EA462420F0070048EA73
:10206000040803EAC243800848EA0308FFF7C6FCF5
:10207000044640B13FB1CDF800B03B462A46314658
:102080001030FEF793FB534642464946204607B0C0
:10209000BDE8F04F05F00DBD3E46CEE700FE07005F
:1020A0000000F87F014B01221A707047440B00209A
:1020B000014B002019607047EC080020024B0348D8
:1020C00001221A7005F0C0BC450B0020088A0000F0
:1020D0000148FFF755BF00BF088A0000064B10B546
:1020E00018680C46FFF7DEFB21460346BDE81040AA
:1020F00002480F22184700BFEC080020088A0000A1
:10210000054B1B781BB141F2883006F095BAA4202C
:10211000002104F0F5BD00BF450B00202DE9F0477C
:10212000DFF88C90DFF88CA080460F46042499F8E5
:102130000050CDB94FF0FF334FF0FF32504604F05E
:10214000B1F83A464146284603F09EFD0646504601
:1021500004F020F9184DFEB101232B7099F80030DE
:102160006BB93846BDE8F0873A464146002003F097
:102170008BFD0646EEE75CB92C704FF0FF34002073
:1021800003F0FEFD0028ECD02B78002BF3D1E8E71C
:10219000013CFFF7B5FFF2E72B7813B1013C04D106
:1021A0002C702B78002BC2D1DBE7FFF7A9FFF8E7F3
:1021B000450B002040010020440B00202DE9F8438E
:1021C00005464FF02003EFF3118683F31288BFF327
:1021D0006F8F0E4B1C689CB10D4FDFF838804FF0AD
:1021E0000C09D4E90132002D08BF13462BB198F831
:1021F000142009FB02F2B85C98472468002CF0D147
:1022000086F31188BFF36F8FBDE8F883FC080020C8
:1022100004090020F00A00204209012300F01F00F9
:1022200003FA00F0074BBFF35B8FC04303EB82035D
:1022300053E8002F024043E800210029F8D1BFF302
:102240005B8F70471009002038B51A4B1C7DBFF317
:102250005B8F04F01F0301229A40174B6109D043A2
:1022600003EB810353E8001F01EA000543E8005C2B
:10227000BCF1000FF6D1BFF35B8F114213D00F4BAF
:102280000F4D8BB10C236343EA18E85C517805F0DD
:10229000D9FC0020FFF792FF0C235C432A1900238E
:1022A0002B51C2E9013338BD83F31188BFF36F8F1F
:1022B000EFE700BFF00A002014090020457C000071
:1022C000040900202DE9F843324B334A1C7DBFF34B
:1022D0005B8F63094FEA830952F823302F4EBFF317
:1022E0005B8F04F01F0843FA08F313F0010F074651
:1022F0000AD10146204600F069F828B107C80C232E
:1023000003FB046383E807000C236343F218F55CC6
:102310002DB92046FFF780FF2846BDE8F8837B1CD7
:102320000FD0D2F808C01E481E4A4FF400450021C5
:102330000023ECFB0501FDF7D3FE0121381A06F05E
:102340005DF904F05DFA0120FFF738FFBFF35B8F02
:10235000012303FA08F8144B994459E8003F43EA73
:10236000080349E80032002AF7D1BFF35B8F0F4B17
:1023700033B10C236343F218F05C517805F056FC3E
:10238000FFF762FF2046FFF747FF04F009FC01203A
:10239000C3E700BFF00A0020100900200409002054
:1023A0003F420F0040420F00140900202D7C000026
:1023B000054BBFF35B8F53F82000BFF35B8F0038F2
:1023C00018BF0120704700BF180900202DE9F04F09
:1023D00085B00F4603A900F047F8DFF88080DFF8EA
:1023E00080A0441E24B24FF0000B631C04D10026D1
:1023F000304605B0BDE8F08F039A04EB440302EBCE
:10240000830612F82300FFF7D3FF054610BB706860
:102410004FF40049C4462946E0FB09C152465B46D9
:102420006046FDF75DFE0190B068C4462946E0FBBA
:1024300009C15B4652466046FDF752FE094B1B68D8
:10244000591C01D0834205D97A1CD1D0019B184474
:10245000B842CDD9013C24B2C7E700BF3F420F00CC
:1024600040420F000800002008B9024B0B6000201A
:10247000704700BF188A0000014910220A607047A7
:1024800010ED00E072B6404080F31188BFF36F8F0B
:10249000BFF34F8F30BF62B6BFF36F8F704700BF7F
:1024A00072B6494081F3118820BF80F3118862B66B
:1024B000704700BF2DE9F047814600AF0C46002968
:1024C0004CD06E468AB06D46D1E90012A368274809
:1024D000A8464FF0050AC5E90501C5E9072348F8F4
:1024E00010AF2348424600234FF4215105F0FCFA77
:1024F000D4E9031263691F48C5F810A0B546C5E9C1
:102500000501AD46C5E907231948424600234FF4AB
:10251000215105F0E9FAB54688B06D46E369164ADF
:10252000A8464FF0030AC5E9052348F810AF104844
:10253000424600234FF4C25105F0D6FA0F4AA36970
:10254000C5F810A0B546C5E90523AD4608480023E7
:1025500042464FF4C25105F0C7FAB54621464846F7
:1025600003F062FCBD46BDE8F08700BF588E000056
:10257000F8880000878E0000B68E0000C58E00002F
:1025800043B2002B08DB012200F01F0002FA00F02A
:102590005B09024A42F82300704700BF00E100E0F7
:1025A00043B2002B0DDB01225B0900F01F0002FA91
:1025B00000F02033034A42F82300BFF34F8FBFF3EC
:1025C0006F8F704700E100E0054B420900F01F00EB
:1025D00053F82220012303FA00F01040704700BF97
:1025E00000E100E043B2002BA8BF03F1604301F11A
:1025F0000101B8BF064B4FEA4111ACBF03F561437F
:1026000000F00F00C9B2B4BF195483F8001370472B
:1026100014ED00E008B572B6044B9A691AB10022B5
:102620009A6105F057FE62B608BD00BFF00A0020AF
:1026300030BFFFF7FDBF00BF08B5084B084A23F0C5
:102640007F039360BFF34F8FBFF36F8F03F084FC62
:1026500004F0DAFB00F094FB03F0C2FC0000000081
:1026600000ED00E0094A0A49936809689967094939
:1026700058674B6843F080534B60002383F3118805
:10268000BFF36F8F9368986F704700BFF00A002008
:10269000808B000000ED00E012498A684FF03000A6
:1026A0001044EFF3098C80E8F01F202080F312889B
:1026B000BFF36F8F0C4F4FF00066CA698A603E60AF
:1026C000506F0023536780F3118804B5104600F063
:1026D000F3FBBDE8044002F1300090E8F01F8CF3FA
:1026E00009887047F00A002004ED00E01EF0040F96
:1026F0000CBFEFF30880EFF30980816911F8021C29
:102700000229FFD001B505F034FA01BD42F8203CA2
:10271000009B42F81C3C0A49019B42F8183C029B72
:1027200042F8143C21F001014FF0807342F8043C60
:1027300042F8081C0023203A02654367704700BF37
:102740001B750000094A0346906870B113F1160F1B
:10275000406E05D0A0F120029A4205D8834203D2F0
:10276000814228BF0020704700207047F00A0020F7
:1027700008B5094B98600D46144600F09DFB2046B5
:1027800085F30988002163B681F31188BFF36F8F49
:102790000022002304F0C1FEF00A002001B572B649
:1027A0000B4A906900281EBF0021916105F092FD3F
:1027B00062B6EFF30580A0F110004FEAC0000549B2
:1027C000014409C99847BDE8014003490847000092
:1027D000F00A002080870000DD270000044B996884
:1027E000D869884203D003494FF080520A6070478D
:1027F000F00A002004ED00E02DE9F04186B000AFC2
:102800003C4B7B6106460D463B48022407F1100213
:102810004FF482513C6105F0BBF9384B9B6ADB04F5
:1028200009D5374B344807F110024FF48251C7E9FC
:10283000044305F0ADF9314B9B6A1C050AD5314BB9
:102840007B612D48022307F110024FF482513B6156
:1028500005F09EF9294CA36A980522D52A4B7B6185
:1028600007F1100202234FF4825123483B6105F027
:102870008FF9A36BA26A1104E84612D588B02349E8
:102880001D486A46C2E90513032342F8103F4FF47E
:10289000C25105F07DF9C5461EB1A36A23F4004379
:1028A000A362164B9B6A5A050AD5194B7B611248E5
:1028B000022307F110024FF482513B6105F068F9E1
:1028C0000E4B9B6ADB050AD5124B7B610A4802233B
:1028D00007F110024FF482513B6105F059F9074AA4
:1028E000936A002043F47F43183793622870BD46F3
:1028F000BDE8F081F38E0000F888000000ED00E0F4
:10290000098F00001A8F00002D8F0000468F0000F5
:102910005B8F0000768F000010B586B0334B3448D3
:102920000593022404AA4FF48251049405F030F96F
:10293000304B9B6A9B0108D52F4B2D4804AA4FF4BE
:102940008251CDE9044305F023F92A4B9B6ADC014F
:1029500009D52A4B05932648022304AA4FF4825135
:10296000049305F015F9234B9B6A180309D5244BF2
:1029700005931F48022304AA4FF48251049305F0E3
:1029800007F91C4B9B6A590309D51E4B0593184840
:10299000022304AA4FF48251049305F0F9F8154B71
:1029A0009B6A9A0309D5184B05931148022304AA80
:1029B0004FF48251049305F0EBF80E4B9B6ADB0356
:1029C00009D5124B05930A48022304AA4FF48251F9
:1029D000049305F0DDF8074A936A6FEA03436FEA50
:1029E00013430020936206B010BD00BF8E8F00001D
:1029F000F888000000ED00E0A68F0000B98F00000D
:102A0000D38F0000F18F000016900000309000007E
:102A10002DE9F04786B000AF434B7B610646884600
:102A200042481546022407F110024FF482513C61DE
:102A300005F0AEF83E4B9B6AD80609D53D4B3B48A6
:102A400007F110024FF48251C7E9044305F0A0F8E2
:102A5000374B9B6A19070AD5374B7B6133480223F2
:102A600007F110024FF482513B6105F091F8304CB0
:102A7000A36A9A0723D46FF0150A2D4B9B6AD807D7
:102A80000AD52E4B7B612948022307F110024FF42F
:102A900082513B6105F07CF8254B9A6AD10635D40A
:102AA0009A6A920732D40020214A936A43F0FF03C6
:102AB0009362183700232B70BD46BDE8F087204B8A
:102AC0007B611A48022307F110024FF482513B61E7
:102AD00005F05EF8D4F834A0A36A1B06E946CAD50F
:102AE00088B0184B11486A46C2E9053A032342F8F8
:102AF000103F4FF4C25105F04BF8CD46B8F1000F2E
:102B0000BBD0A36A23F08003A362B6E75B681B0512
:102B1000C9D531465046FFF715FE0028C3D080F3D3
:102B200009880220C0E700BF5B900000F888000021
:102B300000ED00E0719000001A8F0000D2900000BC
:102B4000A4900000BC9000002DE9F04F764B8BB0B4
:102B5000D3F8048000AF0D46C8F30804002686F3BE
:102B60001188BFF36F8F02F07F43B3F17F4F0ED117
:102B700002F00C03082B0CD16C4BFB616C48022358
:102B800007F118024FF48251BB6105F001F8354698
:102B900003E0120701D4054601260023FB71E31E62
:102BA000092B00F2A180DFE803F0059497919F9F25
:102BB0009F9F9F9ADFF870815E4B5D48FB614FF0ED
:102BC000020A07F118024FF48251C7F818A004F066
:102BD000DFFFD8F82C404FF0000B14EA0A04E94656
:102BE00087F807B00BD0544BC7E906A3504807F14C
:102BF00018024FF4825104F0CBFF00240DE0D8F806
:102C00002C30002B25DA4D4B494807F118024FF4C0
:102C10008251C7E906A304F0BBFFFB79ABB92022C0
:102C2000294607F1080004F0DCFF7B6A002E76D00D
:102C3000C3F3080222B96FEA53236FEA43237B628E
:102C400007F108012046FFF735FC2C37BD46BDE8EB
:102C5000F08FD8F82C305B00DFD5394B344807F1C2
:102C600018024FF48251C7E906A304F091FFAB6943
:102C700033F8022C4DF602739A4209D098F82830A6
:102C8000BBB1FA1D01212846FFF7C2FE0446C4E786
:102C900088B02B682B4926486A46C2E905130323EE
:102CA00042F8103F4FF4C25104F072FFCD462C6839
:102CB000B3E798F8293023B1F91D0120FFF79CFDF7
:102CC000E4E7B8F82A309BB2002BA6D0FFF724FE29
:102CD000DCE7FA1D0021D6E7F91D0020EEE71A4BCC
:102CE000FB610223BB6181E7184A194B194910485F
:102CF00018F4F87FE8468AB018BF13466A46C2E95E
:102D00000513022382F82030103C134BD4614FF49A
:102D1000095142F8103F04F03BFFC5466DE723F42C
:102D2000FF7323F001038AE700ED00E01F9100002C
:102D3000F88800004A910000619100008291000033
:102D400090910000AF910000CB910000069100002F
:102D5000F1900000EF91000004000001024A536965
:102D600043F010035361704700ED00E0EFF308807B
:102D7000EFF3098101B57246FFF7E6FE01BD00BF22
:102D8000044800232021C2180133282B82F80013A5
:102D9000F9D1704700E100E0002080F31488BFF310
:102DA0006F8F05F077FC00200D490860BFF34F8F4F
:102DB0000C4880F3088800F02BF8202080F311885D
:102DC00009484FF40261401880F30988EFF314803A
:102DD0000221084380F31488BFF36F8FFFF72CFCA8
:102DE00094ED00E080160020C01700200749D1F8BC
:102DF00090200023C2F307221846934200D1704767
:102E0000C1F89830C1F8A0000133F6E700ED00E00A
:102E100008B572B6002383F31388FFF7E7FF144B5E
:102E20004FF0FF32C3F88020C3F88420C3F8882015
:102E3000C3F88C20C3F89020C3F89420C3F89820DE
:102E4000C3F89C20C3F88021C3F88421C3F88821EB
:102E5000C3F88C21C3F89021C3F89421C3F89821BA
:102E6000C3F89C2162B6BFF34F8FBFF36F8F08BDCD
:102E700000E100E0084B9B6883420BD1EFF3058330
:102E800043B1064B5A6842F080525A605A6A22F4A3
:102E900000425A6203F054BFF00A002000ED00E047
:102EA000024B034A0348012100F090B80080002043
:102EB00000000020188A0000426E054B203A1A607C
:102EC000044A2021C3E901121846012100F088B804
:102ED0003409002000000B15F8B5DFF8B4C000AFCE
:102EE00000258D421ADA4468002C4DD0FBB104F164
:102EF000FF3E14EA0E0F14D0264B6C4688B06A468B
:102F0000C2E90535032342F8103F234800234FF45C
:102F1000C25104F0E9FD6FF01502A5461046BD460A
:102F2000F8BD1F2CE8D906681EEA060FE4D1202C54
:102F30000668D0F808E0D2B214D9B4F1004F13D823
:102F4000013CB4FA84F4C4F11F046400072A4EEA79
:102F500004040BD911496C4688B06B46C3E90512CD
:102F60001A46CFE70824F1E73E24EFE726F01F06D4
:102F7000164346F0100644F00104CCF89820CCF833
:102F80009C600132CCF8A04001350C30A9E700BFAD
:102F900000ED00E006920000F08800002992000099
:102FA000044B0522C3F89420BFF34F8FBFF36F8FFC
:102FB000704700BF00ED00E0BFF35F8F024B0022BF
:102FC000C3F89420704700BF00ED00E010B5034C3B
:102FD00001232278FFF780FF207010BD460B0020F0
:102FE00008B5094A00231278FFF776FF10F1160F93
:102FF00003D0064B0022072800DD08BDC3F8980067
:10300000C3F8A0200130F6E7460B002000ED00E0F9
:1030100014490868082810B521D8FFF7CDFF124CD5
:1030200049680022904201F10C0105D10F4B187044
:10303000FFF7B6FF002010BDC4F8982051F80C3CF3
:1030400023F01F03134343F01003C4F89C3051F8DE
:10305000043C43F00103C4F8A0300132E2E74FF032
:10306000FF30E8E7248A000000ED00E0460B002076
:10307000014B1860704700BF0C0000204FF08043E8
:10308000C0B2C3F81C05BFF34F8F0549054BCA6892
:1030900002F4E0621343CB60BFF34F8F00BFFDE744
:1030A00000ED00E00400FA0520B1034B800143F07D
:1030B00001031847704700BF70890000084B70B5C6
:1030C000C31A0D4607499B1004465943064840223F
:1030D00004F0DAFD2B4601462046BDE87040184753
:1030E00050090020B76DDBB60887000073B50C4CA3
:1030F0000C4A4023041B00930D460B460A49A410BA
:1031000061430646094804F0ECFD011E05DA30462D
:103110002B4602B0BDE87040184702B070BD00BF3A
:1031200050090020517D0000B76DDBB60887000014
:10313000002270B5012104461046FFF753FA1148EA
:1031400002F050F8104B984218D1206900F0DCF9D9
:1031500004F0D5FF26690D49304604F05DF90028DA
:103160000BDB246909490125356404F11C0004F0D6
:1031700053F9002801DBE564002070BD6FF0040006
:10318000FBE700BFC53100000000AD0B748A0000F2
:1031900001460C2309484B4370B5C418D4E90E56B8
:1031A00000224033A263184404F05BFD2DB1324687
:1031B0002B460348BDE87040184770BD50090020F9
:1031C00008870000012810B504460AD003280CD057
:1031D00078B9084B1B6C5B070BD1BDE81040FFF7BB
:1031E000D7BF00F09FF92046F7E7BDE8104000F098
:1031F000A7B910BD5009002008B54FF02003EFF328
:10320000118183F31288BFF36F8F124A136843F062
:10321000020013F0010310600CD04FF08042D2F88E
:103220000C34D2F80C2413F0010303D00A4804F044
:1032300018FD012381F31188BFF36F8F23B1BDE81F
:1032400008400020FFF7A4BFBDE80840012004F0BB
:1032500063BF00BFA0090020900900201FB5002215
:103260000123CDE90223094ACDF800D06B46CDF801
:1032700004D004F066FD002805DB4FF480420023F3
:10328000684603F0E9F805B05DF804FB697D0000CD
:10329000094BBFF35B8F53E8002F22F0020143E894
:1032A00000100028F7D1BFF35B8FD30702D40120B1
:1032B00004F06ABF704700BFA0090020024AC3B2F1
:1032C0001C2003FB0020704750090020F8B5284956
:1032D000BFF35B8F0646012251E8003F41E8002022
:1032E0000028F9D1BFF35B8F33B9224922484B60E4
:1032F000CB608A6004F0A3F8731E012B20D804F081
:10330000DCFF044610B91D4B1B7853BB4FF0200364
:10331000EFF3118583F31288BFF36F8F01244FF011
:103320008047D7F81834D7F81824D20309D59B075B
:1033300001D0012E05D174B185F31188BFF36F8FD1
:10334000F8BD1CB12846FFF7ABF8EAE700212120C1
:1033500003F0D6FCE5E74FF080430222C3F80423D4
:10336000EEE74FF080430222C3F808230546D6E774
:10337000A4090020400900206C090020590F0020FA
:103380007FB5084B0593022304930748002304AA42
:103390004FF4825104F0A8FB6FF0120007B05DF803
:1033A00004FB00BF82920000D08800000D4BBFF3E9
:1033B0005B8F012253E8001F002903D143E800205E
:1033C0000028F7D1BFF35B8F0AD107490023CB60F8
:1033D000064B4B6003238B60054B186804F02FB835
:1033E000704700BFA8090020AC090020DD340000B0
:1033F000BC09002008B5064B0648186004F04FFFD2
:1034000018B9BDE80840FFF7BBBF002008BD00BFEA
:10341000C00900205087000007B500220023CDE935
:10342000002308484FF40032002303F085FE064BCA
:10343000186804F04DF8054B00221A6003B05DF8DF
:1034400004FB00BF08010020BC090020A8090020DF
:1034500037B51D4D286883681C4CDB6839219847B7
:1034600070B1002323701A46217809B1012A20DDAA
:10347000174A138001F0C8FE0123237003B030BD4A
:10348000286883686A461B690C2198470028E8D1A0
:10349000104A019B93FBF2F3009A03EB82030C4A60
:1034A000B2F900201BB29A1A002AB8BF524212B2D7
:1034B000DAE7094A1368013901332170136003B058
:1034C000BDE83040FFF7A8BFC0090020470B00202F
:1034D000300B002090D00300C809002008B5074B2E
:1034E0001B682BB901F090FE054B01221A7008BD34
:1034F000BDE80840034803F0BDB800BFC009002084
:10350000470B002010000020034B044A18600023E2
:103510001360034A13607047BC090020C4090020EF
:10352000C8090020024B00221A70FFF73FBF00BFFE
:10353000470B0020014805F08FB800BF08010020AC
:10354000024A136801331360FFF766BFC409002005
:1035500010B5044C2046FDF7B5FC2046FFF788FD6A
:10356000002010BD693500002DE9F341DFF85C80D3
:10357000174E8DF80700044603254FF0FF334FF038
:10358000FF32404602F08EFE01220DF107010020BD
:1035900002F0C6FB0746404602F0FCFE2FB10123B5
:1035A0003370204602B0BDE8F0813378002BF8D0AC
:1035B000013D08D004F081FE0028DED10021422028
:1035C00003F09EFBD9E73570EBE700BF4001002018
:1035D000480B002030B54068047B01F01F05B2F5B0
:1035E000001F45EA441585B04FF0000404D1284679
:1035F00002F0A2F800202EE0B2F5800FCDE90244DF
:103600002BD1B3F1007F0CBF042305238DF80830C4
:10361000836823FA01F1C9072BD4B2F1A07F28D126
:1036200005F01F0303F5E0734FF0A04252F823307A
:10363000DB071ED40DF107042146284601F0E4FF04
:10364000144B984214D1204602F02CF8124B9842A9
:103650000ED06FF00B0005B030BDB3F1C06F05D0D8
:10366000B3F1007F0CBF02230123CFE70323CDE793
:1036700003940023194602AA284601F09DFE064B3A
:10368000984204D10121284602F012F8B2E76FF007
:103690000400E0E70400AD0B0000AD0B10B501F035
:1036A000F1FF044668B901F0C5FF084B98420AD102
:1036B0000748214601F0A2FF224605210620FEF719
:1036C00091FF002010BD6FF00400FBE70000AD0B80
:1036D000D5360000430970B510D1094B596869B15E
:1036E00001250C68074E85408A682A4002D04B6845
:1036F0003046984714B121462468F5E770BD00BFF5
:10370000CC090020208700002DE9F04347683B7B6F
:1037100001F01F0585B00E4645EA43151446CAB9A7
:1037200002A9284601F070FF0446284602F02CF852
:103730004A4B984204D06FF0040005B0BDE8F08316
:10374000844205D19DF8080001F0A6FFA042F2D105
:103750000020F2E74FF000090DF103013046CDE9FA
:10376000029901F051FF4B46804602AA494628467D
:1037700001F022FE394B984202D06FF01500DCE7D1
:10378000804503D19DF8030001F086FFA30351D5C6
:1037900040F20663234040F2062293423BD00CD80D
:1037A000062B15D004D89BB1022BE6D104230FE0E1
:1037B000B3F5007FE1D101230AE040F202429342D7
:1037C0002BD0B3F5C06F2AD0B3F5806FD5D10223CB
:1037D0008DF8043084F48033C3F30043E0068DF8A1
:1037E000053054BFC4F34013032321038DF8063082
:1037F00017D57B68012101FA06F6C3F80865002297
:1038000001A9284601F082FE144B984214BF6FF0C4
:103810001500002091E70723DAE70523D8E7032303
:10382000D6E7620341BF7B68012101FA06F6C3F8BF
:103830000C65E4E7E3064FF0000354BFC4F3401403
:1038400003241A4601A928468DF8044001F0B4FD6E
:10385000024B98423FF47CAF8FE700BF0000AD0BF6
:10386000014B01221A60704700C000400C29036917
:103870000BD15B6A064907484B4393FBF0F100FB11
:10388000113311605360002070476FF0850070475E
:1038900090D0030040420F00044B00690022C3F89F
:1038A0000021D3F8003102F0B7BD00BF00C00040D6
:1038B0007FB50569AB6A63B3392901D00C292BD1D7
:1038C00005F110064FF0FF324FF0FF33304602F0A3
:1038D000E9FC134B0193A86A03230024694603946F
:1038E000029303F0ACFD4FF0FF324FF0FF33284658
:1038F00002F0B2FDA86A03F0EBFD0A4BD3F80825ED
:103900006A6201225A60304602F044FD204604B04B
:1039100070BD6FF00A00FAE76FF08500F7E700BFAF
:103920006138000000C0004010B504690020FFF7B6
:10393000C5FCA0624FF0FF320021204604F0E0FCFD
:1039400004F1100004F0D5FC002201210C20FEF748
:1039500049FE0C20FEF714FE024B0122C3F804239B
:10396000002010BD00C000402DE9F04383B00446A4
:1039700000AF0569002201210320FEF733FE6368D2
:103980005C6A3A1D0021204604F0BDFA002830DBB5
:103990007B6822681979186804F0EAFA002828DBA5
:1039A000AC680126D5E9023203EBC2039C4204D382
:1039B000284604F081FA00201BE0206804F06FFC28
:1039C000D8B923681E48196823796C468AB06A46BC
:1039D000C2E90501D361022382F82030194B1A484D
:1039E00042F8103F4FF4095104F02DFA6FF0120025
:1039F000A5460C37BD46BDE8F08320682179E388F1
:103A0000D0F810E0D0F80890DEF800C0DA0754BF14
:103A100043F4B01383F4D01323F4801206FA01F8B0
:103A2000DB074CBF4CEA08032CEA0803CEF8003051
:103A3000D9F8003098470028DBDB0834B2E700BF34
:103A4000B79200000400000120890000F0B505696C
:103A5000AB6C2C6D85B07BB99CB900221146284611
:103A600004F008FA2C6305F1200002F0D5FC0023D5
:103A700085F85C3005B0F0BD002C35D09C4228BFE5
:103A80001C46696C466879B173B101F06043B3F1CB
:103A9000005F09D0082C28BF082405F15E072246E4
:103AA000384604F09EF83946B2686B6C0091944237
:103AB00028BF1446AC651BB1AB6C002B18BF234666
:103AC0000193EB6C02931BB12B6D002B18BF2346A7
:103AD000002269463046039302F010F8034B9842E7
:103AE000C8D06FF00404B8E71C46CAE70000AD0B6D
:103AF00010B5037886B00C46002B54D18B6C63B1A3
:103B00008A6D9A421ED9294B05932948022304AA9B
:103B10004FF48251049304F096F9236D63B1A26DC2
:103B20009A4227D9214B05932148022304AA4FF436
:103B30008251049304F087F9606D06B0BDE810402F
:103B4000FFF784BF9B1A8B6473B94B6B08334B63CD
:103B50008B6B013B8B6301F1480204F13400383177
:103B600004F060F96064D8E74B6C002BD5D01344A7
:103B70004B64D2E79B1A23657BB9E36B0833E3639D
:103B8000236C013B236404F1500204F1400104F171
:103B90003C0004F047F9E064CEE7E36C002BCBD0A7
:103BA0001344E364C8E706B010BD00BFDB92000019
:103BB000208900002DE9F04F8BB000AFC7E9023239
:103BC0008B8804699B0483460E4634D44FF0FF3241
:103BD0004FF0FF3304F1100002F03EFC6660DBF8AA
:103BE000108098F85D307B6023B1D8F800309E4299
:103BF00000F0D280B6F804C01CF4006F22D09B4BBA
:103C00007B629B48022307F120024FF482516FF040
:103C100085053B6204F017F923689B8813F4005371
:103C200004D1636004F1100002F0F6FB28462C3743
:103C3000BD46BDE8F08FA369002BC7D163689942E8
:103C4000C4D1CCE71CF0010F15D0DBF80030894956
:103C500087486D4688B06A46C2E905130223137788
:103C6000854B42F8103F4FF4D25104F0ECF8AD46CA
:103C70006FF01505D0E71CF0080F0BD07F4B7B626F
:103C80007B48022307F120024FF482513B6204F08B
:103C9000DAF8EDE7CCF34513082B01D0784BEEE7CB
:103CA0003568784B9D4201D8774BE8E7DBF8049004
:103CB000D9F80C303B6009F1100ABAE80F0007F19F
:103CC000100EAEE80F00DAF80030CEF800303B6896
:103CD0009D4228BF1D466D4B9D4245D96C4B9D4270
:103CE00045D96C4B9D4245D96B4B9D4245D96B4B99
:103CF0009D4245D96A4B9D4234BF4FF080454FF0FD
:103D000000451CF0020FBD610CF004033BD0002BFA
:103D100014BF032302233B777B68CCF3001C87F896
:103D20001DC02BB1484601F0A1FE002388F85D308C
:103D300043465C4A07F11001484601F0EFFD5A4B3B
:103D4000984224D06D46594B88B06A46C2E9053086
:103D5000032342F8103F46484FF4C25104F073F871
:103D6000AD466FF0040557E74FF00075C9E74FF017
:103D70008065C6E74FF00065C3E74FF08055C0E7A8
:103D80004FF00055BDE7003B18BF0123C3E70123F7
:103D900088F85D30C8F80060012384F85C30FB6867
:103DA000002B52D163631A46A26304F1380104F177
:103DB000480204F1340004F035F8BB686064002B5D
:103DC0004AD1E363236404F1500204F1400104F199
:103DD0003C0004F027F800263246E064012120462A
:103DE000266304F047F85846FFF730FE256DA36CB4
:103DF000A0469D4238BF1D464FF4FA535D4358F824
:103E0000203B4FF4004C1B68B5FBF3F53146C83539
:103E100040F2E7304FF47A720023E5FB0C01FCF727
:103E20005FF902460B46404602F016FBE0B1204B1C
:103E30007B620F48022307F120024FF482513B625C
:103E40006FF0730503F0FFFFE6E6FB681A68626334
:103E5000002AA9D05A68A7E7BB681B68E363002B58
:103E6000B0D0BB685B68ADE7256BD5E6F992000082
:103E70002089000013930000030000013593000027
:103E80005493000047E80100839300008FD00300A3
:103E90001FA107003F420F007F841E00FF083D0066
:103EA00000127A00F13A00000000AD0BB49300005C
:103EB000DB93000010B501238340114ABFF35B8FF1
:103EC000DC4352E8001F01EA040C42E800CEBEF1D8
:103ED000000FF6D1BFF35B8F4FF4803202FA00F08F
:103EE00002F1804202F58052C2F80803BFF35F8FEF
:103EF000BFF36F8F0B4214BF0120002010BD00BF25
:103F0000080A00201949F8B5044622F07F450868E0
:103F1000C1E90023A5F50013101AB3F5400F22D212
:103F2000134B1B681A0A1B065E19124B42F100075D
:103F3000C3E90067012603F045F8A30003F18043BD
:103F400003F58833D3F84025AA420BD11EB94FF4AC
:103F50000002C3F84025084B4FF4803000FA04F407
:103F6000C3F84443F8BD0026E5E700BF380600204B
:103F70000C0A0020200600200010014019B3BFF3F6
:103F80005B8F0123104A834052E8001F194342E827
:103F9000001CBCF1000FF7D1BFF35B8F0B4A4FF44D
:103FA00080338340C2F80433094BBFF35B8F1B6837
:103FB000BFF35B8F23FA00F0C30742BF054B4FF4FA
:103FC0000032C3F800217047080A002000100140A9
:103FD000040A002000E100E00D4B1868010A000609
:103FE000BFF35F8F0B4BD3F80435181841F1000174
:103FF000B3F5801F0AD2084BD3E90023904271EB3E
:10400000030303D210F1807041F10001704700BF3B
:104010000C0A002000100140200600202DE9F04F7E
:1040200085B0164698460546FFF744FF0090FFF717
:10403000D3FFB04271EB080378D2464B301A68EBDD
:104040000101984271F1000380F08180424B03EB43
:104050000513D3E902ABD84508BF564551D04FEA06
:10406000850909F1804905F1500709F58839BF0034
:104070004FF4803101FA05F3BFB226F07F4207F119
:1040800080470193D9F84005344B07F5883714462B
:10409000D3F80415401A20F07F4021F07F4C01280E
:1040A000C9F840C507D1CDE90221132004F0C4FAB4
:1040B000DDE90221294B01F1020CA4EB0C0020F0F8
:1040C0007F40B0F5000F88BF644600203860386834
:1040D0000198C3F8440324F07F40C9F84005D3F8A1
:1040E0000405814206D0201A023820F07F40B0F546
:1040F000000F19D8A41A24F07F4414EB060A48F1E3
:10410000000B15490E982B0101EB0512C2E902AB19
:10411000C8500F9B5360002428460099FFF72EFFDC
:10412000204605B0BDE8F08F2046B1E701230C4AD8
:10413000BFF35B8FAB4052E8001F194342E8001009
:104140000028F8D1BFF35B8FB246C346D9E76FF0C2
:104150001504E1E7010000012806002000100140DD
:10416000040A002073B5194B194D00244FF0FF309D
:104170004FF0FF31C5F80845C3E902014FF4803321
:10418000C5F80433134B02264FF400320121C5F861
:1041900004631120C3F880212246FEF723FA112080
:1041A000FEF7EEF90C4A0123AB602B6013600B4B5A
:1041B0000B4A0093019400232046FFF72FFF30465F
:1041C000FFF784F8204602B070BD00BF280600202B
:1041D0000010014000E100E0080A0020053F000057
:1041E000FFFF7F002DE9F743354CD4F804339A07DD
:1041F0000BD5D4F8043143B1324A0023C4F804315A
:10420000D4F804311368013313604FF02003EFF347
:10421000118283F31288BFF36F8FD4F80433DB036A
:1042200012D5BFF35B8F284B53E8001F21F001002C
:1042300043E80006002EF7D1BFF35B8F002936D18B
:10424000D4F84031002B32D1002382F31188BFF320
:104250006F8F4BB3FFF7C0FE4FF02003EFF3118CCD
:1042600083F31288BFF36F8F184BD3E90267B04214
:1042700071EB07024FF0000220D34FF0FF384FF0F0
:10428000FF39D3E90015C3E902891A604FF480337E
:10429000C4F848338CF31188BFF36F8F21B10095B8
:1042A00032463B460020884703B0BDE8F083002338
:1042B000C4F84031D4F840310123C6E71146E9E79C
:1042C000001001400C0A0020040A002028060020EB
:1042D000431C13B521D0012821DDB0F5000F20DAF1
:1042E000441EFFF779FE104BD3E90013401AB0F5D6
:1042F000000F28BF0024013002190C48824228BF59
:10430000024652184FF0000009490190009143F114
:104310000003FFF783FE02B010BD0448E0E700246D
:10432000DFE7024CDDE700BF38060020FFFF7F001B
:10433000053F000008B5FFF74FFE024B1B68C01A8F
:1043400008BD00BF380600207FB5FDF733FC074BE2
:104350000593022304930648002304AA4FF48251D4
:1043600003F0C2FB0020FEF789FE00BF1594000099
:10437000E0880000194B684620F00701D3F80021BF
:104380008D4601B54AB1D3F80423D00741BF0022BE
:10439000C3F8002103F510431B68104BD3F80C2120
:1043A00032B1D3F80423110744BF0022C3F80C2113
:1043B000D3F8102152B1D3F80423D20606D5002237
:1043C000C3F81021064B1B6803B19847FEF722F98A
:1043D000FEF704FABDE80140854670470010004032
:1043E0001C0A0020684620F007018D4631B51B4BA2
:1043F00082B01B6801934FF02003EFF3118183F328
:104400001288BFF36F8F164B00221D681A6081F36C
:104410001188BFF36F8F134C2368ABB1E90703D545
:104420008DF8002068469847AA0705D501238DF826
:1044300000306846236898476B0705D502238DF83E
:104440000030684623689847FEF7E4F8FEF7C6F99F
:1044500002B0BDE831408546704700BF180A002011
:10446000140A0020100A00200B4B93F8680078B162
:10447000232904D0242908D06FF085007047B3F9B0
:1044800018301360002050607047B3F91A30F8E715
:104490006FF00F00704700BF4006002070B5224C3F
:1044A000224B94F8602086B053F82230204698477B
:1044B0000146606658B11E4B05930223049304AA7B
:1044C0004FF482511B4803F0A1FD06B070BD94F873
:1044D00060300133DBB2052B84F860300AD1012350
:1044E00084F86830144B05930223049304AA4FF414
:1044F0008651E7E7114A52F823504FF4004625EA67
:10450000E57540F2E7304FF47A720023C5FB0601EF
:10451000FBF7E6FD02460B4604F1300006B0BDE8AD
:10452000704002F00FB900BF40060020348B00003D
:10453000329400000889000050940000208B000095
:1045400010B40A46836803491C680023A44610BCC3
:10455000604700BF5C8B000030B5044687B00D4655
:1045600011B9012003F050FD2068B5B98368DB68FC
:1045700040219847044648B1094B05930948022356
:1045800004AA4FF48251049303F040FD15B10120B9
:1045900003F03AFD204607B030BD83681B69E7E7AA
:1045A000649400000889000070B58CB001AB61F024
:1045B0007F01029302AB8DF804100493054601239A
:1045C00080688DF80520022604A903960593FFF75D
:1045D000B7FF044658B10E4B0E480AAA4FF4825159
:1045E000CDE90A6303F012FD20460CB070BD222015
:1045F00003F00AFD21462846FFF7AEFF04460028D7
:10460000F2D1922003F000FD85F86940ECE700BF8D
:104610007794000008890000F0B5A1F1640242F629
:104620007C6387B09A42054600AF14D96C461E4B96
:104630001E4888B06A46C2E90531032342F8103F9C
:104640004FF4C25103F0E2FCA5466FF0150420467A
:104650001C37BD46F0BD164B14486E4688B06A46FE
:104660006424B1FBF4F4013CC2E90531E4B2042353
:10467000D4614FF4035142F8103F03F0C7FC2246C7
:10468000B5460F21284603F0C4FC04460028DED0BE
:10469000084B7B610548022307F110024FF4825159
:1046A0003B6103F0B3FCD2E7959400000889000059
:1046B000AF940000D29400002DE9F041172986B094
:1046C000064600AF0D46144615D01A292CD01429E1
:1046D0002ED02D4B7B612D48022307F110024FF4A1
:1046E00082516FF085043B6103F090FC204618373F
:1046F000BD46BDE8F081264A4FF4A073944201D82C
:104700009C4219D2234B21486D4688B06A46C2E9C3
:104710000534032342F8103F4FF4C45103F076FCF4
:104720006FF01504AD46E1E71B4A4FF44863E5E737
:104730000A2340F6F612E1E71849B4FBF3F3E84622
:1047400088B06A46C2E90514DCB20423D4610F487C
:1047500042F8103F4FF4035103F058FC2246C5467F
:104760002946304603F055FC04460028BED00C4BC9
:104770007B610648022307F110024FF482513B612E
:1047800003F044FCB2E700BFE79400000889000092
:10479000C03E0100F594000080730C0014950000E9
:1047A0004195000010B54FF448710446FFF734FFFF
:1047B000A0B94FF4FA7214212046FFF77DFF68B9C3
:1047C00042F2044217212046FFF776FF30B9204617
:1047D000034ABDE810401A21FFF76EBF10BD00BFAD
:1047E000F04902002DE9F041561E86B0B6F51B6F68
:1047F000044600AF0D46134615D36C461F492048AA
:1048000088B06A46C2E90513032342F8103F4FF40B
:10481000C45103F0FBFBA5466FF015042046183782
:10482000BD46BDE8F08117491548E84688B06A469C
:10483000C2E90513032342F8103F4FF4C65103F0B9
:10484000E5FB21461048C546F2B203F0E2FB044600
:1048500038B90D48C6F30722294603F0DAFB0446AF
:10486000DCE70A4B7B610648022307F110024FF494
:1048700082513B6103F0CAFBD0E700BF61950000A5
:10488000088900007D9500004006002096950000F4
:10489000F0B58FB0354B0D9305460CAA34484FF454
:1048A000865102260C9603F0B1FB182213212846EC
:1048B00003F0AFFB044648B12E4BCDE90C632C4806
:1048C0000CAA4FF4825103F0A1FB29E02A4B0121ED
:1048D0001B6801932846FFF73FFE044660BBE223B6
:1048E0008DF80F300DF10F03049304AA0123A8687B
:1048F000059306A9CDE90623FFF722FE044690B9E9
:104900001E4F0646019BB3421BD100212846FFF7EC
:1049100023FE044680B9012003F076FB85F8694048
:1049200020460FB0F0BD164BCDE90C6310480CAA21
:104930004FF4825103F06AFB124B0D9302230C9348
:10494000BDE717F8013BA8688DF80F3006A9FFF7FF
:10495000F7FD044620B10C4B0D9302230C93E5E7C1
:104960000F2003F051FB0136CCE700BFB3950000E8
:1049700008890000D8950000688B0000D0980000DE
:10498000F39500003A960000139600007FB50E4B99
:104990004FF40011586803F050FB78B10B4B0593AE
:1049A0000B48022304AA4FF48251049303F02EFB18
:1049B000404080F311884FF0040002DF054807B043
:1049C0005DF804EB01F056BE400600205A96000048
:1049D000088900006006002030B589B04FF0200340
:1049E000EFF3118283F31288BFF36F8F1A4CE369E0
:1049F00082F31188BFF36F8F63B30122ADF80420F7
:104A000039221648ADF8062001A998474FF0200337
:104A1000EFF3118583F31288BFF36F8FE06920B144
:104A200060684FF0107103F008FB85F31188BFF345
:104A30006F8F78B10A4B07930A48022306AA4FF4F6
:104A40008251069303F0E2FA404080F311884FF060
:104A5000040002DF09B030BD400600206887000076
:104A60006D960000088900000B88012B70B5154673
:104A70001ED14B88392B1BD1104C94F86830D3B120
:104A80004FF02003EFF3118683F31288BFF36F8F8B
:104A90005AB14FF01071606803F0CFFA00B9E561C8
:104AA00086F31188BFF36F8F70BD4FF40011F2E7EA
:104AB0006FF08500F8E76FF00F00F5E74006002083
:104AC000F0B591B007468DF8071001211646FFF7A3
:104AD00043FD0446B8B90DF107030293012502AB6B
:104AE000B868039504A9CDE90435FFF729FD04460C
:104AF00060B1164B0F93164802230EAA4FF4825151
:104B00000E9303F083FA204611B0F0BDA02003F00D
:104B10007BFA06ABCDE90665CDE90835B868836850
:104B20000C491D68224608ABA847044608B10A4B49
:104B3000E0E701463846FFF70FFD04460028E2D1C2
:104B4000132003F061FA87F86940DCE782960000E1
:104B5000088900005C8B00009F96000030B589B08A
:104B60000DF106022A210546FFF7AAFF044650B1BF
:104B70001B4B07931B48022306AA4FF4825106934E
:104B800003F044FA0FE09DF80630042B0ED0164BCC
:104B900007931448022306AA4FF482516FF00404CD
:104BA000069303F033FA204609B030BD01460DF1FB
:104BB00007022846FFF784FF044608B10B4BD8E7ED
:104BC0009DF80730422B01D0094BE1E7202210214C
:104BD000284603F01EFA04460028E4D0054BC8E737
:104BE000BB96000008890000D5960000F4960000EE
:104BF0000D9700002197000070B5064686B002258B
:104C000029466A463046FFF75BFF0135EDB2072DB6
:104C100004460ED00028F3D0104B05931048022311
:104C200004AA4FF48251049303F0F0F9204606B031
:104C300070BD0028F0D102461021304603F0E9F99A
:104C4000044608B1074BE8E71D221321304603F064
:104C5000E0F904460028E9D0034BDEE73A9700006C
:104C6000088900005A97000073970000B0B53929F1
:104C700088B000AF79D1404991F86810002977D009
:104C80000E3A072A66D8DFE802F0040A4B5154575F
:104C90005D6119683848FFF7BFFC044612E03648EA
:104CA0001D68FA1D1021FFF70BFF044670B1334B4E
:104CB000FB610223BB61324807F118024FF48251B5
:104CC00003F0A4F920462037BD46B0BDFB7925B3DB
:104CD00043F020032B4AFB712B4B2C4928486C4690
:104CE00088B0002D08BF13466A46C2E905130225A5
:104CF000274B15774FF4D65142F8103F03F086F951
:104D00001D48FA79A546102103F083F904460028CE
:104D1000D8D0204BC7E90653CDE703F0DF03D9E72E
:104D20001A6814211448FFF7C7FCB6E71A68172160
:104D3000F8E71A681A21F5E71A6816211520FFF717
:104D400051FDAAE71A6819211820F8E71A681C21F2
:104D50001B20F4E7104BFB610948022307F11802FE
:104D60004FF48251BB6103F051F96FF08504A9E75C
:104D70006FF00F04A6E700BF4006002091970000E7
:104D8000088900008D9700008A970000B197000005
:104D900003000001C3970000DB970000F0B539293C
:104DA00093B05BD1304D95F86830002B59D095F811
:104DB000692002B32C480121FFF7CEFB044608BB53
:104DC00050238DF8043001AB0493012604ABA8688E
:104DD000059606A9CDE90636FFF7B2FB0446A0B159
:104DE000224B11932248022310AA4FF482511093B0
:104DF00003F00CF906E05021284603F00AF90446B6
:104E00000028D7D0204613B0F0BD232003F0FCF8D3
:104E100002AB08930623099308ABCDE90A36A868CC
:104E2000836814491F6822460AABB847044608B194
:104E3000114BD6E701460C48FFF78EFB04460028CD
:104E4000E0D1304603F0E0F8BDF80A30BDF90C209F
:104E500085F869605B422B836A83D3E76FF0850432
:104E6000D0E76FF00F04CDE740060020ED9700007B
:104E7000088900005C8B00000E980000F0B5454DDD
:104E8000454987B005F1200003F077FA434800F068
:104E9000A1FF286060B9424B05934248022304AA4F
:104EA0004FF4825104936FF0050403F0AFF812E061
:104EB00002698168136823F0400313600B684FF4A4
:104EC000003206219847044640B901462846FFF7BC
:104ED00043FB044668B1204607B0F0BD324B059352
:104EE0003048022304AA4FF48251049303F08EF851
:104EF000F1E72A4800F06EFF686008B92B4BCBE75A
:104F000002698168136823F4801313600B68284AD0
:104F100014219847044608B1264BE0E7264B686801
:104F20002B614FF480136B618368DB693BB1012215
:104F300005F10C019847044618B3204BCFE76FF0FA
:104F40008504FAE705F130001D4903F041FA95F8B0
:104F500060201C4B53F822604FF4004726EAE676A7
:104F6000214640F2E7304FF47A720023C6FB070176
:104F7000FBF7B6F802460B4605F1300001F0E2FB04
:104F8000A9E7114800F026FFA8600028DAD10F4BEE
:104F900082E700BF40060020D94900009F92000030
:104FA0002E980000088900004898000060980000D2
:104FB000100001007B9800008D49000095980000CA
:104FC0009D440000208B000001940000B298000076
:104FD000024AD2F80034002BFBD0704700E00140B9
:104FE00010B503F035F840B14FF080430022C3F80C
:104FF0000C21C3F81021C3F8382503F029F8002844
:1050000046D04FF080524C4BD2F80414C3F8201510
:10501000D2F80814C3F82415D2F80C14C3F82815D4
:10502000D2F81014C3F82C15D2F81414C3F83015A4
:10503000D2F81814C3F83415D2F81C14C3F840156C
:10504000D2F82014C3F84415D2F82414C3F8481534
:10505000D2F82814C3F84C15D2F82C14C3F8501504
:10506000D2F83014C3F85415D2F83414C3F86015CC
:10507000D2F83814C3F86415D2F83C14C3F8681594
:10508000D2F84014C3F86C15D2F84424C3F8702544
:1050900002F0DEFF48B14FF08043D3F80024D2077E
:1050A00044BF6FF00102C3F800244FF08053D3F8DF
:1050B0003021102A0ED1D3F83431032B02D81F4AE5
:1050C000D35C3BB14FF01023D3F808224FF080435C
:1050D000C3F858254FF01023D3F80022002A03DB31
:1050E000D3F80432002B22DA154901234FF01020A7
:1050F000C1F804351224FFF76BFFC0F80042FFF738
:1051000067FFC0F80442FFF763FF0023C1F80435CE
:10511000FFF75EFFBFF34F8F0A490B4BCA6802F4DB
:10512000E0621343CB60BFF34F8F00BFFDE7074B37
:10513000074A1A6010BD00BF00C00040CEA80000A2
:1051400000E0014000ED00E00400FA0588000020C6
:105150000090D00370B501250268B2FA82F3C3F162
:105160001F035E1CDCB214D0BFF35B8F05FA03F3A0
:1051700022EA030350E8006F964204D140E8003C65
:10518000BCF1000FF6D1BFF35B8FE5D102480C7084
:1051900070BD0248FCE700BF0000AD0B0200AD0B84
:1051A0000368CB40DB0710B515D4012303FA01F1E6
:1051B0000368BFF35B8F41EA030250E8004F9C4253
:1051C00004D140E8002CBCF1000FF6D1BFF35B8F97
:1051D000EED1024810BD0248FCE700BF0000AD0B55
:1051E0000400AD0B054B1A792AB95A7101221860D7
:1051F0001A71034870470348704700BF200A002017
:105200000000AD0B0C00AD0B4FF08043D3F80C2425
:10521000D3F80C14C80316D5D10714D5D3F8182425
:10522000D20310D50A494A7902F0FF006AB9C3F8DF
:105230000C01D3F80C2107480822C3F804230122EB
:105240004A711A617047044870470448704700BFAC
:10525000200A00200000AD0B0500AD0B0B00AD0BCC
:105260004FF0804310B5D3F8002152B10020C3F8AD
:105270000001D3F800210122C3F80823164B1B6854
:1052800098474FF08043D3F804215AB10022C3F865
:105290000421D3F804210222C3F808230E4B012075
:1052A0001B6898474FF08043D3F80C2192B1D3F894
:1052B000042312070ED50022C3F80C21D3F80C11D9
:1052C0000821C3F80813044B5A71BDE810401B684D
:1052D0000320184710BD00BF200A0020034B0830F0
:1052E00033F81000C0F34010704700BF8C0000205E
:1052F00070B500F108030C4C34F81330DA0505469C
:105300000E4607D5C3F3432304EBC30254F83330EE
:1053100052689847A3682BB1E26831462846BDE839
:105320007040184770BD00BF8C000020124A083042
:1053300010B432F81030D9051BD5C3F3432123F440
:10534000F85322F8103002F11004002034F8023B28
:1053500013F4807F03D0C3F34323994209D0013073
:105360002028F3D1002342F83130044810BCFFF765
:1053700017BF10BC704700BF8C000020E000002069
:1053800038B50246FFF7AAFF094C02F1080540B103
:1053900034F8153007495B0B03F5A273002041F880
:1053A00023001046FFF7C2FF002324F8153038BD54
:1053B0008C000020006000402DE9F34104461E46A9
:1053C00009B34D4F00F1080837F81850AB0706D560
:1053D000FFF784FF18B1494802B0BDE8F08104F03E
:1053E0001F00800000F1A0400978D0F8003725F0B8
:1053F000020523F00F0345F0010543EA810327F876
:105400001850C0F8003792B13B4B1578526804F140
:10541000080033F810108F070CD5002ADBD133F8C1
:10542000102022F01C0242EA850223F81020CEBB95
:105430003348D1E721F02001C904C90C23F810102A
:10544000002AECD0032DC6D817782DB92D4A07F5C0
:10545000A27142F82150E2E7BA0002F1804202F55F
:10546000C04241EA4731D2F810C52CF0030CC2F813
:1054700010C5D2F810C52CF4473C2CF4407CC2F87F
:1054800010C5D2F810E54FEA042C0CF4F85C4EEA93
:10549000054E4CEA0E0C41F0200123F81010C2F822
:1054A00010C5BCE7D6E900762046FFF73FFF002F86
:1054B000BED0114D2B689F4204D16B689E4201D132
:1054C000002209E010480DF10701FFF743FE0C4BE5
:1054D000984281D19DF8072045F8327005EBC20350
:1054E00008345E6035F8143043EA422343F4807395
:1054F00025F814309CE700BF8C0000200400AD0BA1
:105500000000AD0B00600040E0000020F8B504464C
:1055100071B3374E00F1080736F81750AB0704D4C3
:10552000FFF7DCFE08B13348F8BD15F01C0F4B78CF
:1055300001D0012BF7D004F01F00800000F1A04043
:1055400091F800E0D0F800C789785B002CF4E16C9A
:1055500043EA0E232CF0070C43EA0C0343EA8103D1
:1055600045F0030543F0010326F81750C0F8003753
:105570000AB92148D8E71E4E04F1080736F817008B
:105580008307D0D592F800C06146890020F0200042
:1055900001F18041C00401F5C041C00C26F817009C
:1055A0000023C1F810355578002DE2D0D1F8103520
:1055B000927823F4981323F4F853C1F81035D1F8F6
:1055C00010E5230203F4F8532D0443EA0E0305F417
:1055D000403512052B4302F4801240EA4C3013434D
:1055E00040F0200026F81700C1F81035C1E700BFD1
:1055F0008C0000200400AD0B0000AD0B014BC3E993
:10560000020170478C00002008B50246FFF766FED5
:1056100038B1054B0548083233F812305B0B0B707C
:1056200008BD0348FCE700BF8C0000200000AD0B64
:105630000400AD0B38B50F4C94F85850BDB940225A
:10564000294604F1100002F0D7FA0620FCF798FF73
:10565000094B0A48C3F87C51D3F87C214FF0004233
:10566000C3F80423012384F85830636538BD044827
:10567000FCE700BF8C000020006000400000AD0B84
:105680000500AD0B034B93F85800003818BF0120FC
:10569000704700BF8C00002001460148FFF780BD25
:1056A000DC00002001460148FFF754BDDC0000206B
:1056B00010B50246FFF712FE02F108041C4B33F846
:1056C0001430E0B113F0020419D15B0B9A0002F11F
:1056D000804000F5C24002F1804202F5C042046001
:1056E0000068D2F8100540F00100C2F8100529B199
:1056F000012202FA03F30F4AC2F8043310BDC3F3C8
:105700008203042B10D0052B10D04FF0A043D3F808
:10571000101502F01F03D94001F001010231BDE86C
:105720001040104602F032BD0321F8E70221F6E7EF
:105730008C0000200060004008B50246FFF7CEFD57
:10574000C0B102F108010E4B33F81130990711D4A2
:105750005B0B01229A409B000A4903F1804303F549
:10576000C043C1F80823D3F8102522F00302C3F880
:10577000102508BDBDE808400021104602F006BD16
:105780008C000020006000400D4B00F1080210B5B5
:1057900033F81230DB0704460FD5FFF7CDFF204664
:1057A00004F01F04FFF7ECFD04F5E0744FF0A04394
:1057B000022243F82420034810BD0348FCE700BF41
:1057C0008C0000200000AD0B0400AD0B2DE9F74F5D
:1057D0004E4B4F484F49002501222C461E6836B1DA
:1057E000D0F8046316421EBF1C601E6815430433C4
:1057F0008B424FEA4202F1D1454BD3F87C31BBB129
:105800004FF0A046D6F820350193C6F8203501AFF9
:105810004FF00108019C6CB93D4BC3F87C41D3F8B3
:105820007C31D6F820350193C6F82035002BEED117
:10583000012466E094FAA4F4B4FA84F4364A04F13C
:105840000803E00832F8131004F0070308FA03F223
:105850003B5C23EA02033B54A30003F1A049C1F3DC
:10586000820AD9F80027CB06D346C2F3014218D5E5
:10587000594620465FFA82FAFFF73AFDD9F8003719
:10588000C3F301439A4507D10021204602F07EFC74
:105890005146204602F07AFC08FA04F4C6F8204586
:1058A000B8E7022A0CBF03210221204602F06EFC59
:1058B000BAF1030F04D0022A07D1BAF1010FEBD1DC
:1058C00059462046FFF714FDE6E7032AE4D1BAF172
:1058D000020FF4E795FAA5F3B3FA83F304FA03F29F
:1058E0009B0003F1804303F5C04325EA0205D3F88A
:1058F0001005D3F81015C0F30420C1F30141FFF7E0
:10590000F7FC002DE6D103B0BDE8F08F0061004048
:1059100000600040206100408C0000202DE9F04133
:1059200006464F4D0C4631794F0105EB41111046AB
:105930000A7F002A40F092803268E8514B60E07B99
:105940008B7F94F804C060F300036CF341038B7702
:10595000E378CB77D6F8008000283DD1217B2078F2
:10596000012994BF0021012102F02AFC237803F0D1
:105970001F0303F5E0734FF0A040012140F823100E
:105980006378FF2B09D003F01F03994003F5E07300
:10599000C0F80C15032140F82310A378FF2B09D081
:1059A000A17B03F01F0303F5E0734FF0A0408900D3
:1059B00040F82310E078FF280ED0217981F0010112
:1059C00002F0FEFBE37803F01F0303F5E0734FF0F2
:1059D000A041032041F82300237C93B96378207809
:1059E000FF2B18BF1946A378C8F8080508BF4FF069
:1059F000FF31FF2B08BF4FF0FF33C8F80C15C8F874
:105A00001035A368C2F82435637B217B003B18BFA7
:105A1000012302291CD003291DD0012901D143F003
:105A20000203C2F85435A379C2F8C0350723C2F87F
:105A30000035EB5923B1306840F30730FCF7A0FD87
:105A40003D4400236B77074801232B77BDE8F081A5
:105A500043F00403E5E743F00603E2E70248F5E715
:105A6000280A00200000AD0B0500AD0BF8B5037946
:105A7000204D04685E0105EB4317AB59B3B144F305
:105A80000730FCF78DFD1C4BC4F808337B7F6BB1EE
:105A9000012363616427D4F8043123B9012002F0A3
:105AA000E1FA013FF7D1AB1900225A770023A91977
:105AB000C4F800358B7FDB0717D4D4F8080502F053
:105AC00073FBD4F8100502F06FFBD4F80C0502F05C
:105AD0006BFBCB7FFF2B08D003F01F0303F5E073B4
