:100000000024002039320000BF8400000D320000BF
:100010000D3200000D3200000D3200000000000023
:10002000000000000000000000000000612B000044
:100030000D320000000000000D2B00000D3200000A
:10004000112C0000214B0000112C0000112C00008D
:10005000112C0000112C0000112C0000112C0000AC
:10006000112C0000112C000061640000112C000014
:10007000112C0000112C0000112C0000112C00008C
:10008000112C0000112C0000112C0000112C00007C
:10009000654B0000112C0000112C0000112C0000F9
:1000A000112C0000112C0000112C0000112C00005C
:1000B000112C0000112C0000112C0000112C00004C
:1000C000112C0000112C0000112C0000112C00003C
:1000D000112C0000112C0000112C0000112C00002C
:1000E00053B94AB9002908BF00281CBF4FF0FF319F
:1000F0004FF0FF3000F00CB8ADF1080C6DE904CE04
:1001000000F004F9DDF804E0DDE9022304B07047F3
:10011000704700BF70B5174C6078002823D10120CC
:10012000607000F061FA6FF0270528B900F072FAEC
:1001300010B900F079FA20B10F486060A57008206E
:1001400010E000F033FA40B900F03AFA28B900F0B4
:1001500041FA10B900F052FA30B10748313060600E
:10016000A5700420E07070BD40F23F11742000F0D3
:1001700055F8000000000020D4060000064A00B533
:1001800092F90320904201DB104600BD00F008F810
:100190000249085600BD000000000020C60600000D
:1001A0000246134810B590F903309A4201DB0D2046
:1001B00010BD90F902309A4201DC002010BD01B15F
:1001C0000121D41A4368185D0A4C24569442F5D094
:1001D000084C08443F34C0B2D2B2A342EED1002949
:1001E000ECD0012A01D0022AE8D1401CC0B210BDD7
:1001F00000000020C6060000BFF34F8F05480168CD
:10020000054A01F4E06111430160BFF34F8F00BF65
:10021000FDE700000CED00E00400FA050EB572B633
:100220000F4A5568D5B1002203466E460A2403E002
:10023000B0FBF4F0521CD2B20028F9D1B05409E05E
:10024000B3FBF4F004FB1030B3FBF4F3521ED2B254
:100250003030B054002AF3D13046A847FFF7CCFF26
:1002600008000020550600008D06000077060000FB
:1002700065060000710600005F06000053060000DE
:1002800051060000890600007D0600006B06000094
:10029000590600004B060000430600004706000018
:1002A0003D060000014909688969084710000020DF
:1002B00001480068006800471000002001480068FD
:1002C0004069004710000020014A1268D2681047B8
:1002D000100000200148006800690047100000205D
:1002E000014A12689268104710000020014909680D
:1002F000496A08471000002030B4034C2468646841
:10030000A44630BC60470000100000202DE9F047F3
:1003100086468C460846089E154674461946002BAC
:1003200040F0C2808542B2FA82F245D94AB1C2F1A8
:10033000200300FA02FC2EFA03F3954043EA0C0C6A
:1003400094404FEA154EA8B2BCFBFEF8230C0EFBFE
:1003500018CC08FB00F943EA0C43994528D9EB185F
:1003600008F1FF3704D2994502D9A8F102072B44BE
:10037000A3EB0903A4B2B3FBFEFC0EFB1C330CFB86
:1003800000F044EA0344A04214D92C190CF1FF33C5
:1003900004D2A04202D9ACF102032C44241A43EA4D
:1003A00007401EB1D440002334607360BDE8F0877D
:1003B0004746DDE76346F1E792BB431B01214FEA65
:1003C000154EAFB2B3FBFEFC200C0EFB1C330CFB36
:1003D00007F840EA0343984562D9EB180CF1FF3067
:1003E00004D2984502D9ACF102002B44A3EB0803D8
:1003F000A4B2B3FBFEFC0EFB1C330CFB07F744EA74
:100400000344A7424ED92C190CF1FF3304D2A74262
:1004100002D9ACF102032C44E41B43EA0040C0E7DC
:10042000C2F1200320FA03F1954090402EFA03F325
:1004300003434FEA154EAFB2B1FBFEFC0EFB1C109E
:10044000190C0CFB07F841EA0041884504FA02F454
:1004500022D969180CF1FF3004D2884502D9ACF1D9
:1004600002002944A1EB08019BB2B1FBFEFC0EFB8C
:100470001C110CFB07F743EA01439F420ED9EB180E
:100480000CF1FF3104D29F4202D9ACF102012B449E
:10049000DB1B41EA004192E76046E3E76146F7E78C
:1004A0006046A3E76346B7E7834206D916B9002141
:1004B00008467BE7C6E900E0F9E7B3FA83F78FB9AE
:1004C000834201D3724508D8BEEB020460EB0303FC
:1004D00001209C461EB9002168E73846FAE7C6E9C4
:1004E000004CF8E7C7F1200CBB4022FA0CF41C4387
:1004F0002EFA0CF120FA0CF3B84001434FEA1449EC
:100500000EFA07F5B3FBF9F81FFA84FE09FB183061
:100510000B0C08FB0EFA43EA00439A4502FA07F275
:1005200040D9E31808F1FF3004D29A4502D9A8F166
:1005300002002344A3EB0A0389B2B3FBF9F809FBD9
:10054000183308FB0EFE41EA03418E452CD9611891
:1005500008F1FF3304D28E4502D9A8F102032144E9
:1005600043EA0040A0FB0298A1EB0E014145CE46B4
:10057000434602D306D14D4504D2B9EB020E68EBD7
:1005800004030138002EA6D0B5EB0E0261EB030187
:1005900001FA0CFC22FA07F34CEA0303F940C6E91E
:1005A000003198E74046C5E74346D9E74FF0805011
:1005B000D0F830010F2801D000207047012070478B
:1005C0004FF08050D0F830010A2801D00020704749
:1005D000012070474FF08050D0F830010E2801D034
:1005E00000207047012070474FF08050D0F8300154
:1005F000102801D000207047012070474FF0805034
:10060000D0F83001062803D0401C01D000207047EC
:10061000012070474FF08050D0F830010D2801D0F4
:1006200000207047012070474FF08050D0F8300113
:10063000082801D000207047012070474FF0FF309C
:10064000704700207047002070474FF0FF30704720
:1006500070477047002070470021017070474FF0CD
:10066000FF3070474FF0FF30704700210170704736
:100670004FF0FF3070474FF0FF3070470078002890
:1006800001D06FF01500704700207047002200F085
:1006900002B8FFF73FBD70B514460D46001B6FF062
:1006A0007F01884201DA084602E07F2800DD7F20D2
:1006B000194640B2FFF762FD28706C70002120449B
:1006C000A97040B270BDD8ECF0F4F8FC000203044D
:1006D0000506070800000000000000000000000000
:1006E00000000000000000000101010102020202FE
:1006F00003030303040404040505050506060708AF
:10070000090A0B0C0D0000000000000000000000B2
:1007100000000000000000000001010101020202CF
:100720000203030303040404040505050506060685
:100730000809000070B5134C134D144E86B02068A4
:1007400008F063FA98B1E36863B9114B059302238B
:1007500004930E48002304AA4FF4865101F054FC80
:1007600006B070BD186808F050FA0028EDD10223D9
:1007700005950493002304AA4FF48251304601F0FA
:1007800043FCDCE71400002079950000189300007A
:10079000879500007FB5064B05930648022304AAFF
:1007A0004FF48651049307F084F907B05DF804FB19
:1007B000A1950000E892000008B50346074890F8AC
:1007C00025204AB11B78022B06D104F093FC18B9FE
:1007D000BDE80840FFF7DEBF08BD00BF420C0020A7
:1007E000B0B58AB0002000AF02F0C2FF80B9204B44
:1007F0007B6202231F483B6207F120024FF48251C3
:100800006FF0050407F055F920462837BD46B0BD06
:1008100000237B60FB6039460123BB6007F03EFA92
:10082000041E0FDA6D4688B06A46134B1148C2E9C0
:100830000534032342F8103F4FF4C25107F039F951
:10084000AD46E1E7BB689B07FCD1FC6824B16D466F
:1008500088B06A46094BE9E7094B7B6202230548E9
:100860003B6207F120024FF4865107F022F9CBE7F3
:10087000B3950000E8920000D3950000EC950000CD
:100880000B96000030B54FF0E73291B04FF0C23315
:10089000CDE901231D4A1E4D1068516803AB03C307
:1008A0001C460FCD0FC42B6823601A4A0692012301
:1008B00005A88DF815308DF8263004F0EDFA0446C1
:1008C00060B1154B0F93154802230EAA4FF48251C5
:1008D0000E9307F0EEF8204611B030BD01A804F0E9
:1008E000B1FC044608B10E4BECE702A804F0CCFCC6
:1008F000044608B10B4BE5E7082103A804F0E6FC29
:1009000004460028E7D0084BDCE700BF8A960000C9
:1009100060930000B90700001C960000E8920000F8
:1009200033960000509600006D960000F0B51D4E05
:1009300087B0002500AF86F82550FFF751FF041E51
:1009400012DBFFF79FFF041E12DA6D4688B06A467D
:10095000154B1648C2E90534032342F8103F4FF403
:10096000C25107F0A6F8AD4620461C37BD46F0BD83
:1009700004F010FC041E04DA6D4688B06A460C4B85
:10098000E7E70C4B7B610948022307F110024FF4A3
:1009900086513B6107F08DF8012386F825302C46FF
:1009A000E2E700BF420C002093960000E8920000AE
:1009B000AB960000C39600002DE9F04F91B084077C
:1009C000009302F004030293C2F3C20303F1010394
:1009D000DDF86880039205460E46059340F0BE811F
:1009E000041D30B1072909D86FF01B0011B0BDE814
:1009F000F08F01F00706341DC6F10806009B4FF08A
:100A00000009591E4FF0040A4FF0FF330193CDF84F
:100A100010904F46CB4653460DB1009A2260059880
:100A2000002800F3EB809A48009A824203D3994849
:100A30008242C0F0E380039AA4EB050E92074FEACE
:100A40009E0000F106810F2F00F2B480002D00F00F
:100A5000088107F140020DEB020C019A0CF8200C02
:100A60000CF8102C049801300490EAE07A2860D841
:100A70004B280ED847285CD829282FD8252855D0B0
:100A800057D820287DD02338D0F1000B4BEB000B3A
:100A900077E0A0F14C0CBCF12E0F4AD8DFE80CF047
:100AA0007149494949494949494949494C4949498B
:100AB00049494949495A494C4C5A5A5A714C6E490C
:100AC0007149184C18494983804C49494C49800068
:100AD00000204FF0000B4FF0040A39E0A0F12A0C7F
:100AE0005FFA8CFC012202FA0CFC1CEA0E0F48D1C2
:100AF0001CF062502ED11CEA020B42D0013C54443F
:100B0000CAF1000C04EA0C04002D61D0A3EB050C23
:100B1000A444B4453FF668AF002868D1042B47D100
:100B200058F8043B2360043404232AE0019A013A74
:100B300001924FF0000B24E011F8010C6C2834D125
:100B400011F8023C00206C2B8346C4D14FF0080AF8
:100B50005346D3E708F1070828F007080734F8E8F8
:100B600002AB24F0070435B106982044B0423FF6AA
:100B70003BAFC4E900AB08344FF0000B4FF0080A5C
:100B8000534611F8010F002878D0BBF1000F7FF415
:100B90006DAF2528F5D1019B013301934FF0010B77
:100BA0004FF0040AECE7584693E700208346A5E798
:100BB000082B02D06FF0150018E708F1070828F09D
:100BC0000708F8E80223C4E9002308340823D8E71B
:100BD00068B9042B02D108F10408A4E7082BE9D175
:100BE00008F1070828F0070808F10808EDE7059A5A
:100BF000013A059258F8042B00920DE7039A9007EA
:100C000020D5A4EB050E4FEA9E004FF0010CBEF577
:100C1000007FCFD20F2FCDD8F5B107F140020DEBF9
:100C2000020EC0B2019A0EF8200C0EF8102CBCF186
:100C3000000F3FF417AF60F07F000EF8200C09F1B1
:100C400001090137C5F10802043406924FF6DA7E35
:100C500097E74FF0000CDAE7BCF1000F01D0013646
:100C6000EFE7029802360028EBD10098CDE9063173
:100C700007F039FCDDE906310644E2E7631BB3F512
:100C8000806F97D245B9A6F10804E018AEE600BF20
:100C90009490000074A00000029A28609B082B70BA
:100CA0009DF81030C2B1EB7085F80290B9F1000FD9
:100CB00005D008A80022C5F1010C97420ED1C5F15C
:100CC00001030DF120084FF0000A01930DF1300BE4
:100CD000574512D1601B89E66B70E5E710F8013BC0
:100CE000190608D504EB0C0EB64503F07F033FF65A
:100CF0007BAE04F8013B0132DFE7B9F1000F03D00E
:100D000098F90020002A17DB029BD3B11AF80B20B8
:100D100004F8012B0022019B98182044B0423FF6B2
:100D200063AE98F8000004F8010B00990392204686
:100D300007F0E9FB039A14440AF1010A08F10108DB
:100D4000C6E798F8002055F822300093029B45F83A
:100D50002230009807F0C7FB421CDCE76FF00D0063
:100D600044E600BF2DE9F04F95B000AF0446D7F838
:100D700078B0BB61CBF3C0037A623B61396251B991
:100D800003784678807800EB830020443B6A9E42DB
:100D90001AD8031B3B6294F802A0E3787B615646A5
:100DA000BAF1000F02D01BF0010F17D17B695BBBBA
:100DB0007B6A1BB1BA69396A204698473D6A284662
:100DC0005437BD46BDE8F08F451C284607F08BFB25
:100DD0003B6A0130013328443B62D7E794F8008036
:100DE0006368FB617B6A4FEA8802FA6004EB88085B
:100DF000002B40F001813D6AC1460AEB0803002642
:100E00004B454ED1D04413E01BF0020FD0D094F8E4
:100E100000804FEA8803FB606368FB617B6A04EB38
:100E20008808002B78D13D6ABAF1000F4ED15646A2
:100E30001BF0050F0CBF022301237B627B6908EBCB
:100E4000430A0BF002033B62D045B8D018F8021BEE
:100E500018F8013C54F82390AC4B994502D3AC4BA5
:100E6000994539D33B69002B43D0F86906F055FE0C
:100E700000283ED0E9468AB06A46A64B5361FB691A
:100E8000C2E906314FF400731384A34B42F8103FBC
:100E9000A24800234FF4125101F0B6F8023DCD46AE
:100EA000D2E719F8012B7B6254F8220007F01BFBF4
:100EB000FA6F7B6A01303AB1D7F8802096423EBF84
:100EC000FA6F22F816000136054499E71BF0040674
:100ED0001CBF7E6AD044ABE73B6923B1F86906F0DA
:100EE0001CFE0028C6D11BF0010F05D17B6AED1A4C
:100EF000AAE73B6A002BA7D0484607F0F4FAFB6F3D
:100F000043B1D7F880309E423FBFFA6F431C22F8AE
:100F100016300136054497E7BAF1000F71D01BF087
:100F2000040671D0D146002607F1400052464146E2
:100F300007F0E9FA7B695B00BB607B69D04408EB92
:100F400043037B610BF002037B607B6998455DD1B5
:100F50002378FB6163781BF0020F06EB03020CBFE2
:100F60004FEA590100211BF0010FD2B240F09D80E1
:100F70001BF0040F14BF4846002094F802B094F808
:100F800003803B616270A070E170BA69F9687B6AA6
:100F900020469847051EFFF612AFFB6923703B6998
:100FA000637084F80380BA697B6A84F802B04946AA
:100FB00007F140009847B0F10008C0F2A3803B6AF7
:100FC000BA697869A3EB0A01FB68C91ABB68C91A38
:100FD0007B6A98470028C0F29780A84408EB000578
:100FE0004FF0000B07F1300AB34560D30021BA6916
:100FF0007B6A08469847E2E64FF0000907F13000A7
:1010000094E75646D14695E7B14693E718F8021B98
:101010003E4A18F8015C54F82530934202D33C4A0A
:1010200093421CD33B6923B1F86906F076FD002892
:101030008BD17B68F3B909F1280207F1280002443B
:1010400009F1010302F8101C07F1500252FA83F370
:1010500009F102095FFA89F903F8105C75E73B6949
:101060002BB1F86906F059FD00287FF46EAF1BF034
:10107000010F09D006F1280207F12801731C561848
:1010800006F8205CDEB260E71BF0040F3FF45DAFB2
:1010900009F1280207F1280109F1010302EB010916
:1010A00009F8105C5FFA83F94FE7002065E71BF849
:1010B0000A3087F82F3054F82390FB6FFBB133F8D8
:1010C0001B80BA697B6A012107F12F00984700282D
:1010D0001ADB0544B8F1000F06D1484607F003FAC1
:1010E00000F101081FFA88F8BA697B6A4146484650
:1010F0009847002808DB05440BF1010B74E7D7F88B
:101100007C80DEE745465AE6054658E694900000A6
:1011100074A00000E896000004000001D0920000D6
:10112000014B1860704700BF3000002030B587B019
:101130000025CDE903010446009503A9054805955E
:1011400000F018F9DDE904309842B8BF255407B023
:1011500030BD00BF697B00002DE9F047058B0446D8
:101160002807904611D4022905F0070540F0CD80EC
:10117000204606F030FD78B10138218B042811D8C3
:10118000DFE800F0C3106D85950001290CBF45F024
:10119000100545F02005258388F31188BFF36F8F74
:1011A000BDE8F08701F0070AAA4500F0A6800027F5
:1011B000B9463E46A368002B00F0BD8041F008010F
:1011C000218388F31188BFF36F8FA168002900F095
:1011D000BB800D68002900F0B780D1F80480334649
:1011E00052462046C047002D76D02B6829461D4622
:1011F000F0E701F007035A1F012A1BD8002221F053
:101200000701062B276889B2C4E9002209D13B46B1
:1012100003E0628B013262831B68002BF9D141F03D
:1012200002012183204606F0D6FC00287BD041F045
:10123000200177E0042B0AD121F0070189B2218334
:10124000204606F0C8FC10B141F020012183218B1B
:1012500001F0070AAA4550D00027B946AAE723693A
:1012600021F0070141F00601062DD3F800902183FB
:101270002DD1B9F1000F40D041F00801218388F34E
:101280001188BFF36F8F3A492046C84729E021F003
:101290000701236941F0040189B2042DD3F80490B9
:1012A0002183E6D000273E464FF0040A82E721F072
:1012B0000701236941F0050189B2052DD3F8089093
:1012C0002183D6D000273E464FF0050A72E700275B
:1012D0003E464FF0060A6DE72B4687E7B9F1000F4F
:1012E000D1D14FF04003EFF3118883F31288BFF39D
:1012F0006F8F238B23F008032383258BEA062ED5DB
:1013000025F01003238305F007056669218B002E65
:10131000BFF66FAF00232768C4E9003321F007014F
:1013200041F001012183218B01F0070AAA454FF00A
:1013300000097FF43FAF002F9BD041F008012183CB
:1013400088F31188BFF36F8F002FC7D03D683946EF
:1013500033465246204606F06AFC2F46F4E7AB06B9
:101360007FF51AAF25F02003238305F00705FFE67C
:101370005B7C00002DE9F04F814695B08B46174607
:101380001C460025387808B9284658E37B1C2528D8
:10139000039306D05946C8470028C0F25083013550
:1013A000FBE1182200210EA807F0B8F87B78252B66
:1013B0007DD00023781C98469E469C461E460146DA
:1013C00010F8012B2B2A00F0A18000F29880202A2F
:1013D00000F09F80232A00F09F802BB19DF84030C1
:1013E00043F040038DF84030B8F1000F05D09DF870
:1013F000403043F020038DF84030BEF1000F05D09F
:101400009DF8403043F010038DF84030BCF1000FE0
:1014100005D09DF8403043F008038DF840302EB1E0
:101420009DF8403043F004038DF840309DF8403083
:1014300003F04400442803D16FF386138DF8403045
:101440009DF840302A2A43F080038DF840307FD148
:101450009DF8412042F001024B1C8DF841201A7882
:101460002E2A9DF841200CBF0121002161F3410289
:101470008DF8412078D15A782A2A6ED00133002283
:101480004FF00A0C194611F8010BA0F13006092E95
:1014900040F295809DF840101292C1F3400040EA5E
:1014A000D2700A4660F341028DF840205CE0BA1C1D
:1014B00003928DF843309DF84130DA0740F12E81D8
:1014C00054F8048BB8F1000F07DA9DF8402042F081
:1014D00004028DF84020C8F100085E0740F1278122
:1014E00054F804ABBAF1000F80F226819DF8413028
:1014F0006FF341038DF841304FF0FF3A1CE12D2A84
:101500000DD0302A7FF469AF012358E74FF0010C6A
:1015100055E74FF0010E52E74FF001084FE7012663
:101520004DE70EFB0262303A0346184610F8016B95
:10153000A6F1300CBCF1090FF3D999428FD09DF878
:1015400040101192D20F62F341018DF8401086E7EE
:101550000B4600224FF00A0EE7E79DF8412042F0CB
:1015600004028DF8412002331A786C2A47D02BD818
:10157000682A31D06A2A4BD04C2A51D01A4612F828
:10158000013B0392782B9DF841208DF8433000F207
:10159000BE806D2B51D8692B00F2B980572B67D8CC
:1015A000412B03D0453B022B00F2B1809DF8423025
:1015B000042262F302038DF84230012373E00CFB36
:1015C0000202303A0B465DE7742A25D07A2AD5D13B
:1015D0009DF8412006210CE05A78682A9DF84120A8
:1015E00006D1012161F3C6028DF841200233C5E71F
:1015F000022161F3C6028DF841200133BEE75A781B
:101600006C2A9DF8412001D10421EBE70321F0E78A
:101610009DF841200521ECE79DF841200721E8E7EE
:10162000BDF8402022F4F04222F0020242F480424F
:1016300042F00202ADF84020DFE76E3BD9B2012351
:101640008B4040F282410B4237D113F0240F51D12D
:10165000D8075CD59DF84230032161F302038DF871
:10166000423002F07803A3F140014B424B411AE0B3
:10167000A3F15801C9B2012000FA01F111F4624F3F
:1016800094D140F6010631421DD111F4043F3ED001
:101690009DF8423060F3020302F07802402A8DF890
:1016A000423034D000239DF84020C2F340010B4368
:1016B00063F341028DF84020FDE69DF8423002219F
:1016C00061F30203E8E79DF84210022002F078027D
:1016D00060F30201402A8DF8421002BF9DF84010CD
:1016E00041F001018DF84010632BDBD1131E18BFB0
:1016F0000123D8E79DF84230032161F3020312F081
:10170000780F8DF8423014BF01230023CBE79DF8FA
:10171000403043F001038DF84030C3E79DF940208D
:10172000002AB4BFDDF844804FF0FF38D5E69807B3
:101730007FF5E2AEDDF848A09DF841100023CDE929
:1017400011339DF8423003F00703012BC1F3C301AD
:1017500033D1CB1E042B04D8DFE803F02146462109
:101760002100236801294FEAE372CDE90E321CD132
:101770009DF93830DA17CDE90E3204349DF8403047
:1017800013F0030650D0039B3A465946484606F0EC
:1017900075FB0028C0F253810544039FF2E554F81D
:1017A000043BDA17CDE90E32E8E70229E5D11AB297
:1017B00043F3C033CDE90E23DFE7022B24D1CB1E48
:1017C000042B04D8DFE803F01810101818000129C2
:1017D00054F8043B4FF0000214D00229CDE90E3238
:1017E000CCD19BB20E93C9E7073424F00704F4E888
:1017F0000223CDE90E23C1E754F8043B0E930023E6
:101800000F93BBE7DBB2CDE7042B08D1073424F0FC
:101810000704D4E900230834CDE90E23AEE7032BF7
:10182000ACD154F8043BDDE79DF843007828B4D8E8
:1018300062281CD825283FF4ADAD5828ADD10DF154
:1018400036030093DDE90E0108AB10AA06F0D0FACA
:10185000BAF1000F074680F29A80002F9DD00DF15B
:101860003603D81B002E00F0C1800130BEE0633883
:10187000152892D801A252F820F000BF511900009B
:10188000631900009B1700009B1700009B170000C6
:101890009B170000631900009B1700009B170000B6
:1018A0009B1700009B170000F11900008919000028
:1018B000AF1900009B1700009B170000D51800000F
:1018C0009B170000891900009B1700009B17000060
:1018D00089190000BAF1000F0E9F35DB51463846DA
:1018E00006F008FE07EB000A002F3FF456AF002673
:1018F0009DF8423013F01002059200F09380023000
:101900005B06119A48BF129B0492104448BFC0184E
:10191000B8F1000F40F3A0809DF84020A8EB00082C
:10192000C2F380035007069300F19680510640F100
:1019300089803EB159463046C84700287FDB069B68
:1019400001351E4630227EE0384606F0CCFDC9E760
:101950000E9B8DF82030002608AF0DF1210A0120E2
:10196000C6E719075CBFC3F300135E01DDE90E2370
:1019700048BF2B26002BBFF662AF524263EB4303F6
:10198000CDE90E232D265AE7002658E700269DF8BC
:1019900040200DF13603DB1B6FF386129A458DF85C
:1019A00040207FF65AAFAAEB0303119355E70E9838
:1019B00090B30DF13603009310AA08AB002106F096
:1019C00017FABDF8423003F0EF0343F4F04343F05D
:1019D0001003BAF1000F0746ADF84230D6DA0028FE
:1019E0003FF4DBAE0DF13603181A00269A467FE766
:1019F0000E9B07293FF6D1AEDFE801F00C04060C80
:101A000008080C0C1D70C8E61D80C6E6EA17C3E97D
:101A10000052C2E61D60C0E62E4F064607F1050AD9
:101A2000052065E71A0748BF013069E707931046AC
:101A300006925946C8470028DDE9062304DA15B0A6
:101A4000BDE8F08F202243461946002903F1FF33F9
:101A5000ECDC45446D1A98462EB159463046C847CD
:101A60000028ECDB01359DF84230DA0601D41B0773
:101A700005D559463020C8470028E0DB0135059BD5
:101A800033B19DF843005946C8470028D7DB0135DC
:101A9000049E2E4405E059463020C8470028CEDB7E
:101AA0000135731B002BF6DC53463A46594648462F
:101AB00006F0E4F90028C2DB0544A844A8EB0503BE
:101AC000002B7FF76AAE59462020C8470028B6DBB6
:101AD0000135F3E79C97000003F0FCBD2DE9F047CA
:101AE000DFF85880044607464FF0010914B938461C
:101AF000BDE8F08794FAA4F5B5FA85F509FA05F37F
:101B00002E0108EB05156FEA030A24EA03042B7B78
:101B1000002BEBD058F806301B694BB94644042221
:101B200073682846196807EA0A0700F059FADDE7E2
:101B3000284698470028D9D1F0E700BF4893000015
:101B400030B51049104889B0002207F00DFA0F4D4A
:101B50000F4900220023CDE9062300240E23CDE9FE
:101B60000334CDE901440B4B00944FF440722846F6
:101B700004F0FCFE0849284607F05CF8204609B04E
:101B800030BD00BF9D1B0000B006002028020020D1
:101B9000401300208D1E0000A2970000014805F0B0
:101BA0003FB800BF0C0200202DE9F04780461F48D7
:101BB0000F4606F0E3FB0646002830D000252846F5
:101BC000BDE8F087237B73B12368DB680BB1204647
:101BD000984723681B69D3B96368042219682046B3
:101BE00000F0FEF9013610344C45EBD3B8F1000F8C
:101BF000E5D0002DE2D02846FFF770FF0546002F04
:101C0000F7D000214FF4A47005F070FCF1E72046F6
:101C100098470028E0D00AFA06F31D43E2E7044C97
:101C2000DFF8109005464FF0010ADDE7D8080020E4
:101C30004893000058930000014B53F82000704770
:101C40009C93000008B5034608462BB1044A136074
:101C500000F078FC002008BD6FF01500FBE700BF26
:101C60003400002010B5044C237813B9034804F065
:101C7000D7FF0123237010BD680C00200C02002048
:101C800010B50446084806F079FB5CB1BFF35B8FE2
:101C9000064B53E8001F013943E80012002AF8D12F
:101CA000BFF35B8F10BD00BFD0080020D408002018
:101CB0000020064BBFF35B8F014653E8000F43E85B
:101CC0000012002AF9D1BFF35B8F7047D0080020C3
:101CD00070B5FFF7EDFF084C084E0546B44200D33F
:101CE00070BD63685B792BB123685B6813B12946CB
:101CF000204698471034F1E74893000058930000BD
:101D000010B5044C0449204606F0C9F9034B1C6089
:101D100010BD00BF7801002088930000C808002093
:101D2000084A094808B500231370084A1360084A96
:101D30004FF400411360FFF785FFBDE80840FFF74F
:101D4000DFBF00BF690C002079830000D0080020AD
:101D5000D4080020014600220148002306F0C0B943
:101D600078010020014806F059BA00BF7801002030
:101D7000024B0146186806F0A3BA00BFC80800204D
:101D8000014806F0D9BA00BF7801002070B5284B91
:101D9000187800284BD0FFF7E5FF054690B1BFF358
:101DA0005B8F244B53E8001F013943E80012002ADF
:101DB000F8D1BFF35B8F204C204EB4422DD3284680
:101DC000FFF7D6FF1E4B1F4C1B68002B19DD07F0D9
:101DD000C5F84FF47A72A0FB020302FB0131C30B7A
:101DE000D4E9002043EA41439B1A4FEAD13140F243
:101DF000E93261EB0001934271F1000101D3FFF779
:101E000067FFD4E9003213F57A7342F10002C4E9A6
:101E10000032BDE87040FFF7B3BF63685B7923B160
:101E2000236829461B68204698471034C5E770BDD3
:101E3000680C0020D408002048930000589300004C
:101E4000D0080020A806002070B50D4D297861B992
:101E50000120FFF7A9FE0B4C0B4EB44206D3FFF74F
:101E600095FF0028FBD101232B7070BD63685B795F
:101E70001BB1236820469B6898471034EDE700BFEC
:101E8000690C0020489300005893000000212DE9C0
:101E9000F0470846FFF788FE044648B340F26768FB
:101EA0004FF0000905F03CFB1A4B186030B11A4B9B
:101EB0001B68092B02DD194804F0B2FE184FDFF849
:101EC0005CA0002544B12046FFF708FE044618B97F
:101ED0004FF0FF384FF0FF39FFF758FF064628B99B
:101EE000B5B942464B46504604F0C0FE3546E9E7D8
:101EF0004FF0FF384FF0FF39D4E72B689B691BB1D7
:101F000000221146284698471035BD42F5D3E8E730
:101F1000044DFAE7CC080020D40800200C02002071
:101F2000589300004893000013B5184806F026FAAD
:101F3000174B1B787BB14FF04003EFF3118483F311
:101F40001288BFF36F8FFFF721FF84F31188BFF36F
:101F50006F8F02B010BD0F4B1B68002BF9D050B92A
:101F600000220023CDE900230B484FF40042002358
:101F700005F01AFDEDE70A28EBD1074807F000F855
:101F8000064802B0BDE8104004F04ABED408002064
:101F9000690C0020CC080020B00600200C020020B4
:101FA00010B5064B1B68044698472146A0600448BC
:101FB00006F014F9BDE81040FFF7B6BF340000206A
:101FC00078010020044A054B9B1AB1EBD30F34BFB4
:101FD00052F8310000207047A8920000489300009A
:101FE000084BC31A10B41B114468013323714368B2
:101FF0009A7143681960436801225A7110BCFFF757
:1020000031BE00BF489300002DE9F04F8FB004AF00
:10201000C1F34A28B8600D4691467B600C0DB8F1BB
:10202000000F63D0002607F114034FF0040B4FF0AC
:102030000A0AC7F80C80C7E907667E620193CDF8EB
:1020400008B0CDF800A007F11C03F96832464846F5
:10205000FEF788FEB0F5006F03461CD36C468AB0CD
:10206000D9F8041004AB2648C3E9050140F2FF711A
:10207000D9611A464FF400711984224B42F8103F7F
:10208000214833464FF41251FFF7BEFFA5462C37C7
:10209000BD46BDE8F08FC0F30A0804F117001844EC
:1020A00020F0070080083B60FFF754FE68F35325DB
:1020B000044690B13B68154AC7E9083600F11001A3
:1020C00007F11403F961CDE900A3CDF808B0F96870
:1020D00007F11C034846FEF745FE68F353257B686D
:1020E000B9682A46204606F07FF9D0E704F11700C8
:1020F00020F007008008FFF72DFE0446EDE700BF43
:10210000B797000004000001F8920000BD830000B2
:102110002DE9F04F87B0DDE91269DDE9105A044678
:102120000F4693469846A6B31021CDF8009033464B
:1021300052460020CDF81490FEF73EFC014605F112
:1021400017000844144B039104F007040BF0070B2D
:10215000E40020F0070003EA412344EA8B148008DE
:102160001C43FFF7F7FD44EA0554054640B13EB174
:102170000399CDF80090334652461030FEF71CFC10
:10218000434622463946284607B0BDE8F04F06F0E0
:102190002BB93146D3E700BF00FE0F000EB403B5E4
:1021A00003AB014653F8042B0448019306F042F9AF
:1021B00002B05DF804EB03B0704700BF5D8400001F
:1021C000CA0605D48B064CBF02490349FFF7E6BF98
:1021D000704700BFF7970000F69700002DE9F04F19
:1021E00089B09B469DF848300493DDE9139305932D
:1021F000049B0692DDE9157604460D46002B00F09F
:10220000878006F00803079306F0D6F806F0020A66
:10221000024600284BD086492046FFF7BFFF804684
:10222000BAF1000F08D016F0440F42D181492A4676
:102230002046FFF7B3FF804406F001035BB17E4BFD
:10224000049A7E4953F822207D4B2046002A08BF7D
:102250001A46FFF7A3FF06F00803002B55D0794B71
:10226000049A794953F822202046FFF797FF054644
:10227000069B2BB175491A462046FFF78FFF054490
:10228000BBF1000F05D072495A462046FFF786FF82
:1022900005444544B9F1000F49D1002F4FD1F30750
:1022A00000F1C08031462046FFF78AFFB4E0804647
:1022B000B6E7684B18680028BDD0674B4FF47A7EAC
:1022C0001B68B5FBF3F54FF46162B5FBF0F300FB5F
:1022D0001355B3FBF2FA0EFB05F502FB1A323C2153
:1022E000B5FBF0FCB2FBF1F300FB1C5501FB132224
:1022F0000EFB05F50092B5FBF0F55849CDE901C597
:1023000052462046FFF74AFF95E706F00805AFE77B
:10231000BBF1010F06D1B9F1000F64D1002F7BD0C2
:1023200000250CE0B9F1000FF8D04D485CE04D48B5
:102330004D494B46224605F0BFFB002F68D0DFF821
:102340002C91DFF82CA1102F31462046B84628BF2B
:102350004FF01008FFF734FF4FF0000B5D4545DCF0
:10236000059B51461A782046FFF718FF4FF0010BE6
:102370001BF0070F03D149462046FFF70FFFD84552
:102380003BD9059B514613F80B202046FFF706FF6B
:102390000BF1010BBBF1100FEAD1364920464FF08B
:1023A000000BFFF7FBFE5A46059B9A5CA2F1200149
:1023B0005F2928BF2E2230492046FFF7EFFE0BF1A0
:1023C000010BBBF1100F1DD01BF0070F03D14946C5
:1023D0002046FFF7E3FED8455A46E5D84946204651
:1023E000FFF7DCFEEBE71F48049DA1E749462046C6
:1023F000FFF7D4FE0BF1010BB0E720492046FFF7B1
:10240000CDFEC5E7059BB7EB0807434405939AD17A
:10241000049B002B7FF443AF204609B0BDE8F04F8A
:1024200006F00FB8064A05492046FFF7B7FE39E720
:10243000FE97000002980000AC930000749D00001D
:10244000F9970000C0930000279800002D98000025
:1024500031980000E0080020DC0800200B98000004
:10246000938400005D840000358400003E980000E5
:102470003698000040980000429800003C98000008
:102480002DE9F0410F884B688E6886B005460C46F2
:102490009046C7F382175BB1134A9B1A43F3CF01EF
:1024A00000291FDB2078C0F3C200FFF78BFD034635
:1024B0002146608851F8102B0097C2F34A22002A67
:1024C00001EB0204C0F30B1008BF0021CDE90308A3
:1024D000CDE90114002231462846FFF77FFE06B001
:1024E000BDE8F0810023E3E7A892000073B542F253
:1024F0000F738B4228BF0B4605680F4A044605211F
:10250000684605F051FB63680C495B6806460B2280
:10251000284605F082FF63683246694628465B68B4
:1025200005F07BFF636806495B681B22284605F0BF
:1025300074FF02B070BD00BFE99500006198000013
:1025400045980000074A00210123904206D8064A18
:1025500001B901231360054B1860704740085B0008
:102560000121F2E740420F00DC080020E0080020D3
:10257000014B01221A7070476A0C0020014B0020A9
:1025800019607047F8080020024B034801221A70B6
:1025900005F057BF6B0C0020F09300000148FFF7D7
:1025A000A5BF00BFF093000010B5064B18680C469D
:1025B000FFF742FB21460346BDE8104002480F22C8
:1025C000184700BFF8080020F093000010B9074B2F
:1025D00018707047064B1B781BB141F2883006F02B
:1025E000BFBCA420002104F081BF00BF6A0C002002
:1025F0006B0C00202DE9F843DFF874901D4F8046E6
:102600000E46042499F8005095B903F0FFFF2846C0
:102610003246414603F07CFF054604F001F8E5B17F
:1026200001233B7099F8003073B93046BDE8F88358
:1026300032464146002003F06BFF0546EFE7204697
:10264000FFF7C4FF651E2C46002003F0D5FF0028CD
:10265000EBD03B78002BF2D1E7E73B78002BE4D0BE
:10266000013C2046FFF7B2FF3B78002BCAD1DCE7E4
:102670006B0C00206A0C00202DE9F84305464FF052
:102680004003EFF3118683F31288BFF36F8F0E4B75
:102690000E4F1C68DFF838804FF00C092CB986F318
:1026A0001188BFF36F8FBDE8F883D4E90123002DB3
:1026B00018BF13462BB198F8102009FB02F2B85C42
:1026C00098472468EAE700BF1409002008090020A1
:1026D000E40B002070B5194B1C7CBFF35B8F04F03A
:1026E0001F0301229A40164B610903EB8103D0437B
:1026F00053E8001F01EA000543E80056002EF7D119
:10270000BFF35B8F0A4213D00E4B0F4D8BB10C23DE
:102710006343EA18E85C517805F026FF0020FFF7D4
:10272000ABFF0C235C432A1900232B51C2E9013370
:1027300070BD83F31188BFF36F8FEFE7E40B0020C8
:102740001C09002069850000080900202DE9F041DE
:10275000354B07461D7C4FF04003EFF3118883F3A0
:102760001288BFF36F8F0C24304B314E6C431A1913
:10277000195D00294CD007CA06EB040C8CE8070051
:1027800000221A5588F31188BFF36F8F0C236B4317
:10279000F218F05C002839D07B1C10D0D2F808C0A9
:1027A000244C254A4FF400400021ECFB004100235B
:1027B0002046FDF795FC0121381A01F099FF04F03D
:1027C000DBFD0120FFF758FFBFF35B8F1B4B6A094E
:1027D00003EB820305F01F0101228A4053E8000F3A
:1027E000104343E800010029F8D1BFF35B8F144B7D
:1027F0003BB10C2303FB05F03318305C597805F02E
:10280000A7FEFFF767FF04F0CBFD0120BDE8F081D4
:102810000146284600F016F80028B3D007C8344413
:1028200084E80700AEE700BFE40B0020FC080020AE
:10283000080900203F420F0040420F001C09002001
:10284000518500002DE9F04F85B00E4603A900F038
:1028500043F81E4B039DD3F800A0DFF87480431E9D
:102860001BB203EB4303044605EB83054FF400471B
:102870004FF0000B24B9A146484605B0BDE8F08FE3
:102880006868144AC4465946E0FB07C10023604605
:10289000FDF726FC0190A8680E4AC4465946E0FBA5
:1028A00007C100236046FDF71BFCBAF1FF3FA946B4
:1028B00001D0824505D9731CDED0019B1844B0427B
:1028C000DAD9013CA4B20C3DD4E700BF38000020A7
:1028D0003F420F0040420F0008B9024B0B6000203E
:1028E000704700BF00940000014910220A60704741
:1028F00010ED00E072B6404080F31188BFF36F8F97
:10290000BFF34F8F30BF62B6BFF36F8F704700BF0A
:1029100072B6494081F31188BFF34F8F20BF80F317
:10292000118862B6704700BF2DE9F047814600AFBD
:102930000C4600294CD06E468AB0D1E90012A3683B
:102940006D462748A8464FF0050AC5E90501C5E9C7
:10295000072348F810AF2348424600234FF4215183
:10296000FFF752FBB546D4E903126369AD461E4832
:10297000C5F810A0C5E90501C5E9072319480023DA
:1029800042464FF42151FFF73FFBB54688B0E3695B
:102990006D46164AA8464FF0030AC5E9052348F8D4
:1029A00010AF1048002342464FF4C251FFF72CFBF2
:1029B000B546A369AD460E4AC5F810A0C5E9052382
:1029C0000848002342464FF4C251FFF71DFBB546AD
:1029D0002146484603F02AFEBD46BDE8F08700BF09
:1029E000A098000020930000CF980000FE980000FF
:1029F0000D99000040B2002807DB044A4109012379
:102A000000F01F00834042F82130704700E100E0F1
:102A100040B200280CDB4309064900F01F002033B8
:102A20000122824041F82320BFF34F8FBFF36F8F05
:102A3000704700BF00E100E0054B420900F01F00B5
:102A400053F82220012303FA00F01040704700BF22
:102A500000E100E040B2D30754BF0231002100285A
:102A6000ACBF00F16040074A4FEA4113ACBF00F52C
:102A7000614000F00F00DBB2B4BF135480F80033A4
:102A8000704700BF14ED00E008B572B6044B5A69F8
:102A90001AB100225A6106F0D4F862B608BD00BF30
:102AA000E40B002030BFFFF7FDBF00BF08B5084BA7
:102AB000084A23F07F039360BFF34F8FBFF36F8FFC
:102AC00003F070FE04F0A4FD00F0AAFB03F0AEFEDC
:102AD0000000000000ED00E0094A0A499368096817
:102AE000D967094998674B6843F080534B600023CE
:102AF00083F31188BFF36F8F9368D86F704700BF5F
:102B0000E40B00204495000000ED00E012498A68C3
:102B10004FF030001044EFF3098C80E8F01F4020A4
:102B200080F31288BFF36F8F0C4F4FF000668A69F5
:102B30008A603E60906F0023936780F3118804B52C
:102B4000104600F009FCBDE8044002F1300090E8B6
:102B5000F01F8CF309887047E40B002004ED00E0BF
:102B60001EF0040F0CBFEFF30880EFF309808169BA
:102B700011F8021C0229FFD001B505F098FC01BD37
:102B800042F8203C009B42F81C3C0A49019B42F859
:102B9000183C029B42F8143C21F001014FF0807375
:102BA00042F8043C42F8081C0023203A026583677F
:102BB000704700BFC37B0000094A0346906870B1AC
:102BC00013F1160F806E05D0A0F140029A4205D88D
:102BD000834203D2814228BF002070470020704703
:102BE000E40B002008B5094B0D461446986000F030
:102BF000B3FB204685F30988002163B681F3118871
:102C0000BFF36F8F0022002304F0DBFFE40B0020F2
:102C100001B572B60B4A506900281EBF00215161F0
:102C200006F00FF862B6EFF30580A0F110004FEA4E
:102C3000C0000549014409C99847BDE8014003495E
:102C400008470000E40B00204C910000512C0000CC
:102C5000044B99689869884203D003494FF0805229
:102C60000A607047E40B002004ED00E02DE9F0411C
:102C700086B0064600AF0D463F4B7B6102244FF401
:102C800082513E483C6107F1100205F01FFC3C4BAD
:102C90009B6AD9046DD53B4B3848C7E9044307F11B
:102CA00010024FF4825105F011FC1720344B9B6A3F
:102CB0001A050BD5344B7B61022330483B6107F189
:102CC00010024FF4825105F001FC18202C4CA36A2D
:102CD0009B0523D5E8462D4B7B6102233B6107F121
:102CE00010024FF48251254805F0F0FBA36BA26A55
:102CF000110412D588B06A4625492048C2E9051357
:102D0000032342F8103F4FF4C25105F0DFFBC546E4
:102D10001EB1A36A23F40043A3621920184B9B6AD7
:102D20005A050BD51B4B7B61022314483B6107F10D
:102D300010024FF4825105F0C9FB1A20104B9B6A18
:102D4000DB050BD5144B7B6102230C483B6107F17B
:102D500010024FF4825105F0B9FB1B20084A936A18
:102D600043F47F439362183700232B70BD46BDE8C0
:102D7000F08116209AE700BF3B99000020930000E5
:102D800000ED00E051990000629900007599000083
:102D90008E990000A3990000BE99000010B586B07E
:102DA000364B3748059304AA02244FF48251049409
:102DB00005F08CFB334B9B6A9A015DD5324B304852
:102DC00004AA4FF48251CDE9044305F07FFB1E2095
:102DD0002C4B9B6ADB010AD52C4B2948059304AA8E
:102DE00002234FF48251049305F070FB1F20254B02
:102DF0009B6A1C030AD5264B2148059304AA02238B
:102E00004FF48251049305F061FB21201D4B9B6A16
:102E100059030AD51F4B1A48059304AA02234FF4FD
:102E20008251049305F052FB2220164B9B6A9A03B1
:102E30000AD5194B1248059304AA02234FF4825174
:102E4000049305F043FB23200E4B9B6ADB030AD55A
:102E5000124B0B48059304AA02234FF482510493AA
:102E600005F034FB2420074A936A6FEA03436FEAB4
:102E70001343936206B010BD1D20A9E7D699000048
:102E80002093000000ED00E0EE990000019A0000A0
:102E90001B9A0000399A00005E9A0000789A0000A0
:102EA0002DE9F04786B0814600AF8A469046454BF3
:102EB00045487B6102243C6107F110024FF48251C6
:102EC00005F004FB414B9B6AD80645D5404B3E4874
:102ED000C7E9044307F110024FF48251112405F0B1
:102EE000F5FA3A4B9B6A19070BD53A4B7B610223E3
:102EF00035483B6107F110024FF48251122405F06E
:102F0000E5FA324DAB6A9A0728D56C46324B7B61A5
:102F100002233B612C4807F110024FF4825105F067
:102F2000D5FA6E6BAB6A1B0649D588B06A462B4B47
:102F30002548C2E90536032342F8103F4FF4C25139
:102F400005F0C4FAA546BAF1000F03D0AB6A23F02E
:102F50008003AB62132403E01024C2E76FF0150670
:102F60001A4B9B6AD8070BD51D4B7B610223164871
:102F70003B6107F110024FF48251142405F0A6FAC8
:102F8000124B9A6AD10602D49A6A92070AD55B68F4
:102F90001B0507D549463046FFF70EFE10B180F3FA
:102FA00009880224094A936A43F0FF03936220468A
:102FB0000023183788F80030BD46BDE8F0876FF071
:102FC0001506C7E7A39A00002093000000ED00E07B
:102FD000B99A000062990000EC9A0000049B00007E
:102FE0001A9B00002DE9F043774B8BB0D3F8048097
:102FF00000AF0546C8F30804002686F31188BFF326
:103000006F8F02F07F43B3F17F4F0ED102F00C03BC
:10301000082B19D16D4BFB6102236D48BB6107F191
:1030200018024FF4825105F051FA0026354600236C
:10303000FB71E31E092B00F2A680DFE803F00A997A
:103040009C95A4A4A4A4A49F10074CBF0D460126E0
:10305000EDE7E9465F4BFB614FF0020807F118020C
:103060005B48C7F818804FF4825105F02FFA00230F
:10307000554CFB71E36A9A070BD5574BC7E906839A
:10308000534807F118024FF4825105F01FFA00244B
:1030900041E0E36A002B01DA504BEFE7E36A5B00A3
:1030A000F5D54F4B4A48C7E9068307F118024FF49C
:1030B000825105F00BFA6369AA6943F48073636176
:1030C000BFF34F8FBFF36F8F636932F8022C23F485
:1030D00080736361BFF34F8FBFF36F8F4DF6027341
:1030E0009A4208D0A36ADBB28BB3FA1D01212846AD
:1030F000FFF7D6FE3AE088B02B686A463949344873
:10310000C2E90513032342F8103F4FF4C25105F002
:10311000DDF92C68CD46FB79ABB92022294607F1B1
:10312000080005F0F0F97B6A002E47D0C3F30802CF
:1031300022B96FEA53236FEA43237B6207F1080148
:103140002046FFF7F1FB2C37BD46BDE8F083A36AAC
:1031500013F47F4F04D0F91D0120FFF787FD05E030
:10316000A36AB3F5803F92D3FFF718FE0446D2E777
:10317000FA1D0021BBE7F91D0020EEE71A4BFB61A9
:103180000223BB617CE7194A194B18F4F87FE84623
:103190008AB018BF13466A4616490D48C2E905139E
:1031A0004FF400731384103C134BD4614FF411514E
:1031B00042F8103F05F08AF9C54668E723F4FF732B
:1031C00023F00103B9E700BF00ED00E0679B0000BA
:1031D00020930000929B0000A99B0000CA9B000066
:1031E000D89B0000F79B0000139C00004E9B000042
:1031F000399B0000379C000004000001024A53691B
:1032000043F010035361704700ED00E0EFF30880D6
:10321000EFF3098101B57246FFF7E4FE01BD00BF7F
:10322000044800234021C2180133282B82F80013E0
:10323000F9D1704700E100E0002080F31488BFF36B
:103240006F8FFEF749FC00200D490860BFF34F8FD8
:103250000C4880F3088800F02BF8402080F3118898
:1032600009484FF40461401880F30988EFF3148093
:103270000221084380F31488BFF36F8FFFF716FC19
:1032800094ED00E000240020801600200749D1F8CA
:1032900090200023C2F307221846934200DB7047B8
:1032A000C1F89830C1F8A0000133F6E700ED00E066
:1032B00008B572B6002383F31388FFF7E7FF144BBA
:1032C0004FF0FF32C3F88020C3F88420C3F8882071
:1032D000C3F88C20C3F89020C3F89420C3F898203A
:1032E000C3F89C20C3F88021C3F88421C3F8882147
:1032F000C3F88C21C3F89021C3F89421C3F8982116
:10330000C3F89C2162B6BFF34F8FBFF36F8F08BD28
:1033100000E100E0084B9B6883420BD1EFF305838B
:1033200043B1064B5A6842F080525A605A6A22F4FE
:1033300000425A6204F0FAB8E40B002000ED00E00D
:10334000024B034A0348012100F092B8008000209C
:103350000000002000940000826E054B403A1A6085
:10336000044A4021C3E901121846012100F08AB83D
:103370002009002000000B152DE9F041DFF8B4E032
:103380009C4600AF154600238B421ADA4468002C95
:103390004DD0BCF1000F1DD0661E344215D06C46D6
:1033A00088B06A462449C2E90513032342F8103F56
:1033B000224800234FF4C251FEF726FE6FF0150598
:1033C000A5462846BD46BDE8F0811F2CE7D9026816
:1033D0001642E4D1202C026886685FFA85F814D979
:1033E000B4F1004F13D8013CB4FA84F4C4F11F04C3
:1033F0006400B8F1070F46EA04060AD96C4688B0A3
:103400006A460F4BC2E90535CFE70824F1E73E24B1
:10341000EFE722F01F022A4342F0100246F00106B5
:10342000CEF89850CEF89C200135CEF8A06001333C
:103430000C30A9E700ED00E04E9C00001093000066
:10344000719C0000044B0522C3F89420BFF34F8FFA
:10345000BFF36F8F704700BF00ED00E0BFF35F8FD9
:10346000024B0022C3F89420704700BF00ED00E03B
:1034700010B5034C01232278FFF77EFF207010BDAA
:103480007C0C002008B5094A00231278FFF774FF6E
:1034900010F1160F03D0064B0022072800DD08BDEF
:1034A000C3F89800C3F8A0200130F6E77C0C002098
:1034B00000ED00E014490868082810B521D8FFF78E
:1034C000CDFF124C49680022904201F10C0105D158
:1034D0000F4B1870FFF7B6FF002010BDC4F89820FE
:1034E00051F80C3C23F01F03134343F01003C4F8BE
:1034F0009C3051F8043C43F00103C4F8A030013281
:10350000E2E74FF0FF30E8E70C94000000ED00E048
:103510007C0C0020014B1860704700BF3C0000206D
:103520004FF08043C0B2C3F81C05BFF34F8F05496D
:10353000054BCA6802F4E0621343CB60BFF34F8FC0
:1035400000BFFDE700ED00E00400FA0520B1034BE9
:10355000800143F001031847704700BF80930000CB
:10356000084B70B5C31A0D4607499B1004465943D2
:103570000648402205F01AF82B4601462046BDE8D1
:103580007040184740090020B76DDBB6EC90000092
:1035900073B50C4C0C4A4023041B00930D460B469C
:1035A0000A49A41061430646094805F02BF8011E9C
:1035B00005DA30462B4602B0BDE87040184702B02D
:1035C00070BD00BF400900206F860000B76DDBB6FC
:1035D000EC90000010B54FF04003EFF3118483F33B
:1035E0001288BFF36F8F074A136823F00201DB07CD
:1035F000116002D4012005F07DFA84F31188BFF335
:103600006F8F10BD90090020002270B50121044683
:103610001046FFF71FFA114802F048F9104B984284
:1036200018D1206900F0A0F905F01FFA26690D49AC
:10363000304604F020FB00280BDB012535642469AB
:10364000084904F11C0004F016FB002801DBE564C6
:10365000002070BD6FF00400FBE700BF9D36000046
:103660000000AD0B2C94000070B501460C230948F6
:103670004B43C418D4E90E56403300221844A263C9
:1036800004F081FF2DB132462B460348BDE870405F
:10369000184770BD40090020EC900000012810B5CB
:1036A00004460AD003280CD078B9084B1B6C5B0782
:1036B0000BD1BDE81040FFF7D7BF00F063F92046FB
:1036C000F7E7BDE8104000F06BB910BD40090020DD
:1036D00008B54FF04003EFF3118183F31288BFF375
:1036E0006F8F124A136843F002001060DA0708D4A3
:1036F00081F31188BFF36F8F0120BDE8084005F00A
:10370000C1B94FF08043D3F80C24D3F80C34D3075D
:10371000EED5074804F037FF81F31188BFF36F8FB0
:103720000020BDE80840FFF79FBF00BF90090020C0
:10373000800900207FB500220123CDE9022304ABDC
:10374000CDE90433094ACDF800D06B46CDF804D05A
:1037500004F086FF002805DB4FF480420023684612
:1037600003F084FA07B05DF804FB00BF8786000011
:10377000024AC3B21C2003FB00207047400900200E
:10378000F8B52849BFF35B8F0646012251E8003F98
:1037900041E800200028F9D1BFF35B8F33B92249FB
:1037A00022484B60CB608A6004F078FA731E012BCC
:1037B0001DD805F039FA0446D0B91D4B1B78BBB1B2
:1037C0004FF080430222C3F8082305464FF080479C
:1037D000D7F81834D7F81824D20313D59B0701D093
:1037E000012E0FD1C4B185F31188BFF36F8FF8BDDF
:1037F0004FF04003EFF3118583F31288BFF36F8F0F
:103800000124E3E71CB12846FFF782F8E0E7002136
:10381000212003F06BFEDBE74FF080430222C3F868
:103820000423E4E73C0900202C0900205C09002067
:103830003C1300200D4BBFF35B8F012253E8001FA8
:10384000002903D143E800200028F7D1BFF35B8FA4
:103850000AD107490023CB60064B4B6003238B60E2
:10386000054B186804F01ABA704700BFB009002071
:10387000980900203D3900009409002007B5002276
:103880000023CDE9002308484FF40032002304F060
:103890008BF8064B186804F059FA054B00221A60A1
:1038A00003B05DF804FB00BFC001002094090020B4
:1038B000B0090020F7B51C4E1C4CB7681C4DFB68C6
:1038C00039213046984740B1002323702B8001F006
:1038D000FFFF0123237003B0F0BD0C213B696A4652
:1038E000304698470028EFD1124A019B93FBF2F330
:1038F000009A217803EB82031BB2B5F9002000295E
:10390000E4D09A1A002AB8BF524212B2012ADDDC72
:10391000094A1368013901332170136003B0BDE80F
:10392000F040FFF7ABBF00BF349100007D0C0020DA
:10393000200C002090D00300A809002008B50748FB
:1039400005F063F928B901F0C3FF054B01221A7095
:1039500008BDBDE80840034803F0C8BA3491000030
:103960007D0C002040000020034B044A1860002317
:103970001360034A1360704794090020AC090020CB
:10398000A8090020024B00221A70FFF753BF00BFA6
:103990007D0C0020014805F0F3BA00BFC0010020F3
:1039A000024A136801331360FFF768BFAC090020B7
:1039B00010B5044C2046FDF7B3FB2046FFF7AAFDE7
:1039C000002010BDC9390000F7B5134E8DF807006F
:1039D0000446032502F01AFE01220DF10701002022
:1039E00002F0DEFD074602F01BFE27B10123337013
:1039F000204603B0F0BD3378002BF9D0013D08D04C
:103A000005F012F90028E5D10021422003F06EFDF7
:103A1000E0E73570ECE700BF7E0C002030B5406871
:103A2000057B01F01F04B2F5001F85B044EA451480
:103A300005D1204602F0EEF9002005B030BD00258A
:103A4000B2F5800FCDE9025514D1B3F1007F0CBF60
:103A5000042305238DF808300023194602AA2046C6
:103A600002F00EF81D4B984235D10121204602F09C
:103A70008DF9E1E7B3F1C06F22D0B3F1007F14BF3D
:103A8000012302238DF808308368CB40D907E3D4A3
:103A9000B2F1A07FE0D104F01F0303F5E0734FF013
:103AA000A04252F82330DB07D6D40DF10705294692
:103AB000204602F017F90A4B984203D00395CBE752
:103AC0000323DFE7284602F05BF9044B9842F5D068
:103AD0006FF00B00B1E76FF01500AEE70000AD0B23
:103AE0000400AD0B10B502F03BF9044668B902F0D2
:103AF0000FF9084B98420AD10748214602F0ECF82A
:103B0000224605210620FEF7A5FF002010BD6FF01C
:103B10000400FBE70000AD0B1D3B0000430970B53E
:103B200007D10B4B596821B101250C68094E85401E
:103B300001B970BD8A682A4002D04B683046984768
:103B40001CB1236821461C46F2E72346FAE700BF72
:103B5000B4090020049100002DE9FF4147683B7B38
:103B600001F01F0545EA43150E4628460DF10301F5
:103B7000144602F0B7F814F4403F80460BD12846B3
:103B800002F070F93D4B984503D19DF8030002F017
:103B9000F1F800200CE00023194602AA2846CDE9DE
:103BA000023301F06DFF354B984204D06FF01500E1
:103BB00004B0BDE8F081804503D19DF8030002F018
:103BC000D9F8A3034BD540F206332340B3F5837FE6
:103BD00019D00CD8062B17D004D8ABB1022BE5D1E5
:103BE000042311E0B3F5807FE0D101230CE040F223
:103BF0000222934227D0B3F5407F26D0B3F5007F51
:103C0000D4D1022300E007238DF8043084F48033FC
:103C1000C3F30043E0068DF8053054BFC4F34013EE
:103C2000032321038DF8063011D57A680123B340B0
:103C3000C2F80835002201A9284601F0CFFF0F4B3A
:103C40009842A6D0B2E70523DEE70323DCE7620350
:103C500041BF01237A68B340C2F80C35EAE7E306B6
:103C60004FF0000354BFC4F3401403241A4601A9C3
:103C700028468DF8044001F003FFE0E70000AD0B9B
:103C8000014B01221A60704700C000400C290369F3
:103C90000BD1DB6A064907484B4393FBF0F100FB6D
:103CA000113311605360002070476FF0850070473A
:103CB00090D0030040420F00044B00690022C3F87B
:103CC0000021D3F8003102F0ABBF00BF00C00040BC
:103CD0007FB505692B6B63B3392901D00C292BD132
:103CE00005F118064FF0FF324FF0FF33304602F077
:103CF000E1FE134B0193286B0323002469460394D0
:103D0000029303F0CBFF4FF0FF324FF0FF33284612
:103D100002F0ACFF286B04F019F80A4BD3F8082521
:103D2000EA6201225A60304602F03EFF204604B0AB
:103D300070BD6FF00A00FAE76FF08500F7E700BF8B
:103D4000813C000000C0004010B504690020FFF76E
:103D50000FFD20634FF0FF320021204604F087FF63
:103D600004F1180004F07CFF002201210C20FEF772
:103D700071FE0C20FEF73EFE024B0122C3F8042325
:103D8000002010BD00C000402DE9F04383B044681E
:103D90000569A66A00AF3A1D0021304604F0D5FC43
:103DA000002832DB7B6832681979186804F0E0FC7F
:103DB00000282ADB236A9847AC680126D5E902323D
:103DC00003EBC2039C4204D3284604F072FD00209A
:103DD0001BE0206804F019FFD8B92368196823791B
:103DE0006C468AB06A461C48D3614FF40073138452
:103DF0001A4BC2E905011A4842F8103F4FF411511D
:103E000004F01EFD6FF01200A5460C37BD46BDE85C
:103E1000F08320682179E388D0F810E0D0F808908A
:103E2000DEF800C0DA0754BF43F4B01383F4D013B4
:103E300023F4801206FA01F8DB074CBF4CEA0803B2
:103E40002CEA0803CEF80030D9F800309847002853
:103E5000DBDB0834B2E700BFF99C0000040000017E
:103E600038930000F0B504694768666EE36E85B06C
:103E700005463EB96BBB1946284605B0BDE8F04083
:103E800004F039BD216E03BB31BBBA8C236E0091A7
:103E9000B24228BF324662671BB1636E002B18BF67
:103EA00013460193A36E02931BB1E36E002B18BF60
:103EB0001346002269463846039302F0C3F90E4BBD
:103EC000984217D06FF00401D6E79E4228BF1E46E5
:103ED000DAE7216E1E46D8E701F06043B3F1005FD8
:103EE000D3D0082E28BF0826E06F324604F00BFB23
:103EF000E16FCAE705B0F0BD0000AD0B10B5037867
:103F000086B00C46002B5DD14A6F3AB9206F6FF036
:103F1000730106B0BDE8104004F0EDBC4B6E5BB120
:103F20009A421ED9284B05932848022304AA4FF42D
:103F30008251049304F084FCE36E626F5BB19A4299
:103F400027D9214B05932148022304AA4FF482511B
:103F5000049304F075FC206F06B0BDE81040FFF735
:103F600081BF9B1A4B6673B90B6D08330B654B6DA4
:103F7000013B4B6501F1640204F15000543104F03F
:103F80004CFC2066D8E70B6E002BD5D013440B6693
:103F9000D2E79B1AE3667BB9A36D0833A365E36D93
:103FA000013BE36504F16C0204F15C0104F158008B
:103FB00004F033FCA066CEE7A36E002BCBD01344F5
:103FC000A366C8E706B010BD1D9D00003893000031
:103FD0002DE9F04F8DB000AF9A464368BB608B88E7
:103FE00004693A619B040646884639D44FF0FF3392
:103FF0004FF0FF3204F1100002F038FE97F858300D
:1040000084F84C30FB6D63643B6EC4F80480A36499
:104010007368D6F810907B619B687B6099F8793063
:10402000FB6023B1D9F80030984500F0C980B8F89A
:1040300004C01CF4006F1AD0B44BFB620223B448D6
:10404000BB6207F128024FF482516FF0850504F03E
:10405000F7FB0023636004F1100002F0E1FD50E182
:10406000A369002BC2D163689942BFD1D0E71CF08D
:10407000010F15D06D4688B033686A46A549A4483B
:10408000C2E905134FF400739383A34B42F8103F2A
:104090004FF4E25104F0D4FBAD466FF01505D8E7BC
:1040A0001CF0080F0BD09D4BFB6202239848BB62AB
:1040B00007F128024FF4825104F0C2FBEDE7CCF384
:1040C0004513082B01D0964BEEE7D8F80050954BDE
:1040D0009D4201D8944BE7E77B6903F10C0BBBE8E9
:1040E0000F0007F1180EAEE80F00DBF80030CEF835
:1040F00000307B68AB4228BF2B461D468B4B9D4250
:1041000046D98B4B9D4246D98A4B9D4246D98A4B14
:104110009D4246D9894B9D4246D9894B9D422CBF31
:104120004FF000454FF080451CF0020F3D620CF04F
:1041300004033CD0002B14BF0323022387F8243050
:10414000FB68CCF3001C87F825C02BB1786902F01E
:1041500031F8002389F879304B467A4A786907F1BB
:10416000180101F079FF784B984224D06D4688B051
:104170006A46764BC2E90530032342F8103F644893
:104180004FF4C25104F05CFBAD466FF0040560E7EC
:104190004FF00075C8E74FF08065C5E74FF0006548
:1041A000C2E74FF08055BFE74FF00055BCE7003B3A
:1041B00018BF0123C2E7012389F87930C9F80080CC
:1041C000012384F878303B69002B70D123650023EC
:1041D000636504F1640204F1540104F1500004F039
:1041E0001CFB2066BAF1000F69D1C4F858A0002367
:1041F000E36504F16C0204F15C0104F1580004F081
:104200000CFB00252A46A06601212046256404F007
:104210002EFB3046FFF726FE94F84C20002A70D182
:10422000606D1346834252D10023E56D1946A942C1
:1042300054D19342A04638BF13464FF4FA5202FBC2
:1042400003F558F8283B4FF4004C1B68B5FBF3F519
:1042500040F2E730C83500214FF47A720023E5FBC5
:104260000C01FBF73DFF02460B46404602F0FEFC08
:1042700000283AD0364BFB6202232548BB6207F187
:1042800028024FF4825104F0DBFA0025B868656714
:1042900001F090FF84F879506FF07301304604F01C
:1042A0002AFB404602F00AFD6FF07305D1E63B6938
:1042B0001B682365002B8AD03B695B6888E7DAF8C6
:1042C0000030A365002B92D0DAF8043090E7216D1E
:1042D00001EBC301013349680A44A3E7A06D00EB79
:1042E000C100013140680344A1E7256C15F1740F4A
:1042F000CBD094F84C30002B3FF4ABAE002DFFF642
:10430000A8AE28463437BD46BDE8F08F3B9D00007F
:1043100038930000559D000003000001779D0000C8
:10432000969D000047E80100C59D00008FD0030066
:104330001FA107003F420F007F841E00FF083D00C1
:1043400000127A00FD3E00000000AD0BF69D00005B
:104350001D9E000070B5012383400E4ABFF35B8FA2
:10436000DC4352E8001F01EA040542E80056002E33
:10437000F7D1BFF35B8F4FF4803282400648C0F81C
:104380000823BFF35F8FBFF36F8F0B4214BF012071
:10439000002070BDF80900200010014070B40E49E3
:1043A000D1E90034D01AC31844F1000422F07F464A
:1043B000C1E90034A6F50013B3F5400F09D2074B4D
:1043C0001B681A0A1B069C19054B42F10005C3E93C
:1043D000004570BC03F0F2B9F8060020FC0900208B
:1043E0000007002011B3BFF35B8F0123104A834005
:1043F00052E800CF4CEA030C42E800C10029F7D193
:10440000BFF35B8F0B4A4FF480338340C2F8043311
:10441000094BBFF35B8F1B68BFF35B8FC340DB07A8
:1044200042BF064B4FF40032C3F80021704700BF73
:10443000F809002000100140F409002000E100E02C
:104440000D4B1868010A0006BFF35F8F0B4BD3F8C2
:104450000435181841F10001B3F5801F0AD2084B4A
:10446000D3E90023904271EB030303D210F1807073
:1044700041F10001704700BFFC090020001001401D
:10448000000700202DE9F74F16461F460446FFF7A8
:1044900061FF0090FFF7D4FFB04271EB070351D2E8
:1044A0003A4B301A67EB0101984271F100016AD270
:1044B000374B03EB0413D3E902239F4208BF964214
:1044C0004ED034494FF4803904F1500509FA04F90B
:1044D000AD00C1F848932046ADB204F045FA26F08D
:1044E0007F4B05F1804504F5A8732B4A019305F530
:1044F0008835DC464FF0030A019B2CF07F4041F8E1
:104500002300C1F84493D1F804856FF00200A0EBBA
:104510000800604420F07F40904221D9286860B1B3
:10452000D1F80485A8EB0B0020F07F40B0F5000F18
:1045300016D9204604F018FA174A0AEB080C0AF1BB
:10454000010AD9E70123154ABFF35B8FA34052E864
:10455000000F184342E800010029F8D1BFF35B8F38
:104560000B490C98230101EB0412C2E90267C85001
:104570000D9B5360002520460099FFF733FF284626
:1045800003B0BDE8F08F6FF01505F4E7010080007F
:10459000E806002000100140FDFF7F00F409002024
:1045A00073B51B4C1B4BC4F80833C4F848331A4B83
:1045B00000254FF0FF304FF0FF31C4F80855C3E934
:1045C00002014FF48033C4F80433144B02264FF435
:1045D00000320121C4F804631120C3F880212A4667
:1045E000FEF738FA1120FEF705FA0D4A0123A36001
:1045F000236013600B4B0C4A00930195002328465F
:10460000FFF740FF3046FFF7BBF8284602B070BD09
:104610000010014003000F00E806002000E100E068
:10462000F80900209D430000FFFF7F002DE9F743BC
:104630002B4CD4F8043399070BD5D4F8043143B18B
:10464000284A0023C4F80431D4F804311368013334
:104650001360D4F80433DA0323D5BFF35B8F224B06
:1046600053E8002F22F0010143E800100028F7D1A1
:10467000BFF35B8FD30702D4D4F840318BB1002550
:10468000C4F84051D4F84031FFF7DAFEEFF310825E
:1046900072B6164BD3E90267B042B94104D282F335
:1046A000108803B0BDE8F0834FF0FF384FF0FF39BA
:1046B000C3E90289D3E900101D604FF48033C4F8C8
:1046C0004833C4F84051D4F8403182F310880029AF
:1046D000E7D0009032463B4628468847E1E700BFD6
:1046E00000100140FC090020F4090020E806002029
:1046F000431C13B522D0012822DD124A124B9042EE
:10470000D4BF04461C46FFF79BFE104B0E49D3E96D
:104710000023801AB0F5000F28BF002404448C4207
:1047200028BF0C46A2180A4900914FF000000190E2
:1047300043F10003FFF7A6FE02B010BD024CE2E712
:104740000124E0E7FEFF7F00FFFF7F00F806002066
:104750009D43000008B5FFF773FE024B1B68C01AAB
:1047600008BD00BFF80600207FB5FDF76DFB074BC5
:104770000593022304930648002304AA4FF48251B0
:10478000FDF742FC0020FEF7CBFE00BF5E9E00005E
:10479000F09200000B4B0C4A1B7AC2F81035042B28
:1047A0000DD8DFE803F008030C080300074BA02234
:1047B0001A6001207047054B4FF49672F8E700200D
:1047C000704700BFF40A002000100040080A0020D3
:1047D000044A0023C2E908339362034AC2E908335A
:1047E00093627047C00A0020940A0020054B1B68A2
:1047F000D3F80423920342BF0022C3F84421D3F824
:1048000044317047FC00002010B5FBF763FD0C4CF1
:104810000C490D48FBF758FD40F21713C4F800325D
:104820000A4A0B4B507C1B6898470A4BC4F8043566
:10483000094B0A4A1A600A4B04221A7010BD00BFC5
:1048400000100040D00000202C950000F40A002049
:10485000000A0020DF0E0020040A0020E94B0000BF
:10486000230F002008B5084B1B6801221A61FBF7D3
:1048700025FDFBF72FFD00F06BFD0320FBF712FD7C
:10488000BDE80840FBF714BDFC00002007B50B4B4A
:104890000B48DA7C90F90A00002302F5166201A9A0
:1048A000FBF72AFD0DF10500FBF720FD9DF8042024
:1048B000044BC3F80C2503B05DF804FBE8000020AE
:1048C000F40A00200010004010B5064C06492046AE
:1048D00004F05AF8C1F82405201D04F055F8C1F879
:1048E000280510BDF00000200010004008B5074961
:1048F0000748FBF7E9FC38B900F00EFD054B1B68D3
:1049000040F20442C3F8002208BD00BFD0000020DE
:104910002C950000FC00002038B51B4B1B4C1B687D
:1049200001251D6100F014FDFBF7C8FCFBF7C0FC7E
:104930000021284600F08EFD40F21313C4F8003227
:10494000134A144B507C1B689847134BC4F804352A
:104950000023C4F81031D4F810312561D4F8103197
:10496000002BFBD00021C4F81011D4F8103140F214
:104970001713C4F80032012000F000FDFFF7B6FF66
:10498000064B01229A6138BDFC0000200010004057
:10499000F40A0020000A0020DF0E00200040014041
:1049A0002DE9F041224B234F1A78012A80460E460A
:1049B00030D13B78C3F3050203F03F03202B34D8FA
:1049C0001D4B196A53F821301A701B4C1B49236A7E
:1049D00054F8230010F8052B03F095FD236A184ABC
:1049E00054F8235085F80180D2F848252E71013300
:1049F00002F07F02082BAA707A7828BF0023236276
:104A0000A36AD24302F001020133EA70A3620120DB
:104A1000BDE8F081084A116A52F82120597809B995
:104A20001170D2E75B7C1370CFE70020F0E700BF86
:104A3000F40A0020DF0E0020940A0020E10E00207E
:104A400000100040837842781B0443EA0223027876
:104A50001343C27843EA0253027943EA825342790C
:104A600043EA0263827943EA8263C27943EA42738A
:104A7000094AC2F81435837A417A1B0443EA0123B8
:104A8000017A0B43C17A43EA0163017B43EA416344
:104A9000C2F81835704700BF001000401FB504462B
:104AA0000D220021684603F039FD0A4B00930A4BA2
:104AB0005B7CE0B2013B8DF808008DF809008DF8B1
:104AC0000A30684601238DF80B30FFF7BBFF04B0B6
:104AD00010BD00BF00010100E80000201FB5002349
:104AE000CDF80930CDF80130CDF8053003238DF82D
:104AF000023006238DF8003001238DF80B30074B70
:104B00005B7C013B8DF80A30684620238DF8083025
:104B1000FFF798FF05B05DF804FB00BFE800002038
:104B2000684620F007018D4601B50C4BD3F80423ED
:104B3000D2060BD5D3F8102142B10022C3F81021C0
:104B4000D3F81031064B1B6803B19847FDF79CFF63
:104B5000FEF77EF8BDE80140854670470010004032
:104B6000040A0020684620F007018D4631B51B4B32
:104B700082B01B6801934FF04003EFF3118183F380
:104B80001288BFF36F8F164B00221D681A6081F3E5
:104B90001188BFF36F8F134C2368ABB1E90703D5BE
:104BA0008DF8002068469847AA0705D501238DF89F
:104BB00000306846236898476B0705D502238DF8B7
:104BC0000030684623689847FDF75EFFFEF740F81F
:104BD00002B0BDE831408546704700BF0C0A002096
:104BE000100A0020F00A00202DE9F84F7B4AD2F885
:104BF000007417F0010703D1BDE8F84FFFF78CBE32
:104C0000DFF8DCA1DAF82830072BF5D8D2F8083421
:104C1000744DDFF8D491D2F80C4499F80120DBB23E
:104C2000C2F3410135F8230084424FEA830640F085
:104C3000AB80A8198078814240F0A680B846002752
:104C4000AA196A4C9170654AD2F80C2425F82320E1
:104C5000A37C23B199F80130DB0740F1BC80FBF75E
:104C60002DFB63496348FBF73BFB5C4B40F21B1297
:104C7000C3F8002294F800B05F4CBBF1000F00F0C5
:104C80009B80BBF1010F55D1DFF870C1D3F8081438
:104C9000DCF82830002B00F085805948C9B250F864
:104CA0002120002A7ED0DFF85CB1D2F800E0CBF8FA
:104CB00000E005EB060E9EF803E0BEF1000F17D0F2
:104CC000B8F1000F14D182F8048050F82120013B84
:104CD000926840F82120CCF82830002B57D002B140
:104CE0001268CBF80020484A136843F001031360B0
:104CF000464BDBF800801A68AB19B8F1000F48D0BA
:104D00000121D97098F800009047DBF80010237853
:104D10000A783F4862F30503237011F8052B03F06E
:104D2000F2FB637899F8012023F0070302F00702F1
:104D300013436370374B05221A70FFF7A7FD274B0B
:104D4000D3F80824D2B2C3F82C25C3F80445324B5B
:104D5000324A1A60B7B1214BD3F80804DAF8283088
:104D60003544072BA9780DD8C0B2FFF719FE48B11A
:104D7000254A136843F004031360294B4FF4801253
:104D8000C3F80021BDE8F88F4FF0000858E742460D
:104D9000A7E783F8038040469047237868F305032C
:104DA0002370BEE7AB194FF0000883F80380174B60
:104DB00040461B689847F0E7144B58461B689847D5
:104DC00099F80030227884F801B0C3F3010363F34B
:104DD00001022270AEE7FFF79FFDBBE70010004025
:104DE000940A0020220C0020DF0E0020F40A00208C
:104DF000D000002014950000010F0020C00A002000
:104E0000140A0020EC0A0020100A0020000A0020EA
:104E1000030F0020230F0020040A0020094800008F
:104E200000E100E010B500F0E1FBFFF71BFD1448C6
:104E300001F0F8FA00F004FC124A1348D2F8503698
:104E400003F44073C2F85036104B00241C70104B12
:104E500021461C70FFF7BCFC202203F05FFB2146BB
:104E600008220C4803F05AFB0120FDF7D1FD142065
:104E7000FDF7CEFDBDE810400A20FDF7C9BD00BF1B
:104E8000FC00002000100040220C0020230F002016
:104E9000240F0020D70E0020F0B587B0044600AFE5
:104EA000002800F0EC80774D2B780BB1FFF7BAFFAC
:104EB000754B764E62681A6021461422304603F024
:104EC00022FB0024724B73481C602022214603F011
:104ED00025FB08222146704803F020FBFFF75AFC0F
:104EE00033786E497BB1012B01D16D4B0B60727A27
:104EF0006C4B012A6FD0022A07D07AB9C3F83C253F
:104F0000C3F8342508E0684BF0E74FF6FF70C3F8AC
:104F10003C05C3F83425654AC3F838250B68707C16
:104F20009847604B624863494FF0E732C3F81C254D
:104F30004FF04332C3F820255F4AC3F824255F4A67
:104F4000C3F82825FFF744FC024600230133082B51
:104F500041F8042B02F12502F8D1594A594900239E
:104F60000133082B41F8042B02F12502F8D100216E
:104F7000554A0B460131082910601371936000F106
:104F8000250002F10C02F5D1504A5148C2E9003324
:104F9000C2E90233C2E90433C2E90633C7E9003388
:104FA00004233B704B4A394601F0E6F94A4B9842DC
:104FB00019D100F0ADFA0446002836D0474B7B618A
:104FC00002233B614648002307F110024FF482514F
:104FD000FDF71AF825E0FF20C3F83C05C3F8342597
:104FE00040F2071298E76C4688B06A463D4BC2E92A
:104FF0000530032342F8103F394800234FF4C251D3
:10500000FDF702F8A546384B7B6102233B6134482B
:10501000002307F110024FF482516FF00D04FCF7EA
:10502000F3FF20461C37BD46F0BD00F0DBFA2F4BE6
:105030001C4A5860D2F85036F17C03F440730B439D
:105040000121C2F8503608462246FDF703FD2246EC
:1050500002211420FDF7FEFC224602210A20FDF762
:10506000F9FC0120FDF7C6FC1420FDF7C3FC0A2063
:10507000FDF7C0FC1E4B1C7001232B70D1E76FF0B5
:105080001504CEE7240F0020F00A0020F40A0020C7
:10509000100A0020220C0020D70E0020000A002059
:1050A000DD4A0000001000409D4A00002110010070
:1050B000AF0D0020C00A0020E743C323A363E3131E
:1050C000870C0020940A0020340A0020140A0020D3
:1050D000FC000020ED4700000000AD0BCA9E000060
:1050E000E09200007B9E0000A49E0000D000002003
:1050F000230F002038B5254B1B78002B3DD000280E
:105100003ED0234CA36A002B3DD04FF04003EFF379
:10511000118583F31288BFF36F8F636A54F82330CD
:105120001A780270636A54F823305B784370636ABC
:1051300054F8233093F902308370636A54F82330B3
:105140001B790371636A54F82330DB78C370636A98
:1051500054F823100530053103F0D5F9636A0133A3
:10516000082B28BF00236362A36A013BA36285F377
:105170001188BFF36F8F002038BD6FF00C00FBE784
:105180006FF01500F8E76FF03C00F5E7240F002002
:10519000940A002038B5234B1A7802F0FF05002A44
:1051A0003CD1214C21494FF0FF32C4F80823C4F808
:1051B0001051D4F810211E4A116040F21712C4F8A1
:1051C00000221022C4F8042304221A70194B9A7C7E
:1051D000C4F83025DB7CC4F80835174BC4F8043517
:1051E000164B0222C3F880210120FDF703FCC4F80E
:1051F0000451D4F80431C4F80851D4F80831C4F883
:10520000105101202946D4F8103100F0B7F8FFF70B
:105210006DFB0B4B01229A61284638BD6FF00F00E1
:10522000FBE700BF230F002000100040E94B000007
:10523000040A0020E8000020DF0E002000E100E06A
:105240000040014010B50D4B1B78014603F0FF04F0
:105250006BB978B104220A4803F055F9084803F005
:1052600093FB084B00BAC3F81C05204610BD6FF035
:105270000F00FBE76FF01500F8E700BF230F0020D9
:10528000E80000200010004010B50D4B1B780146CF
:1052900003F0FF046BB978B104220A4803F033F934
:1052A000084803F071FB084B00BAC3F820052046FC
:1052B00010BD6FF00F00FBE76FF01500F8E700BFBF
:1052C000230F0020EC0000200010004038B50F4BE9
:1052D0001B780C4603F0FF0593B9A0B1082912D83A
:1052E0000A4601460A4803F00EF90A4AFF231474DD
:1052F000C4F1080423419374FFF7E6FA284638BD49
:105300006FF00F00FBE76FF01500F8E7230F0020A8
:10531000F0000020E8000020094B0A491A78D30069
:1053200003F1804303F5F833C3F810150649C3F8B9
:10533000141501239340054AC2F80435704700BF95
:10534000270F00201841014000A0004000F001405C
:10535000084B09491B7801229A40DB0003F1804386
:1053600003F5F833C1F808250022C3F81025C3F867
:1053700014257047270F002000F00140F0B52B4B9B
:105380002B4C1B782B4FDA0014442B4A0025C2F813
:105390001851D2F81821294A15788000EA00C0B2C5
:1053A00002F1804202F5F83200F1804000F58050B1
:1053B000C2F81075C2F81405214A05F5117042F8BB
:1053C0002040204A20481678F20002F1804202F57F
:1053D000F8320124C2F8100500F5973000F584700A
:1053E000C2F8140504FA06F604FA05F0304369B170
:1053F000164A174E1178CA0002F1804202F5F832BF
:105400008C40C2F810752043C2F814659B0003F16C
:10541000804303F5F8330122D3F80018AA400A4369
:10542000C3F80028064BC3F80405F0BD250F002083
:1054300004F001401841014000400140280F0020C5
:1054400000F00140260F002010110040270F00201F
:1054500000A00040F0B5294B294E1878294B1A7846
:10546000012404FA02F304FA00F51D4300F5117754
:10547000C3004FEAC20C19BB03F1804303F5F833B4
:10548000C6F80855C3F81015C3F8141546F82710C8
:105490000CF1804303F5F833C3F81015C3F8141565
:1054A000194B1B789B0003F1804303F5F83301216E
:1054B000D3F80028814022EA0102C3F80028F0BD99
:1054C000124A127803F1804303F5F8339440002127
:1054D0002C43C6F80845C3F81015C3F814150CF191
:1054E000804303F5F83346F82710C3F81015C3F8C6
:1054F0001415D30003F18043CCE700BF280F002030
:1055000000F00140260F0020250F0020270F00206B
:10551000B0B52948294D00AF00F070FDA8420446FF
:1055200036D1274800F06AFDA842044630D125480C
:1055300000F064FDA84204462AD1234800F05EFD35
:10554000A842044624D1214800F058FDA842044650
:105550001ED11F4800F052FDA842044618D11D4834
:1055600000F066FDA04224D06C4688B06A461A4B13
:10557000C2E90530032342F8103F184800234FF4D6
:10558000C251FCF741FDA5466FF01200BD46B0BD0B
:105590006D4688B06A46124BC2E90534032342F8CF
:1055A000103F0E4800234FF4C251FCF72DFDAD46CD
:1055B000EAE70020EAE700BF280F00200000AD0B5B
:1055C000260F0020270F00202B0F00202A0F00207D
:1055D000290F0020250F0020E39E0000E09200002C
:1055E000059F000000487047101100400E4B0F4906
:1055F0001B780978012202FA01F102FA03F30B4346
:105600000B49097802FA01F10B430A49097802FAB9
:1056100001F10B43084909788A401343074A43F0D4
:105620000103C2F808357047280F00202A0F002018
:10563000260F0020270F00202B0F002000F0014034
:1056400038B5184B187800F0DFFC174B9842044629
:1056500027D1164B187800F0D7FCA042054620D180
:10566000134B187800F0D0FCA842044619D1114B16
:10567000187800F0C9FCA042054612D10E4B1878EC
:1056800000F0C2FCA84204460BD10C4B187800F085
:10569000BBFCA04205D10A4B1878BDE8384000F0A9
:1056A000CDBC38BD280F00200000AD0B260F002018
:1056B000270F00202B0F00202A0F0020290F002089
:1056C000250F0020024AD2F80034002BFBD070478F
:1056D00000E0014010B54FF08053D3F83021102A7C
:1056E00055D14FF080410022C1F80C21C1F81021A2
:1056F000C1F83825484AD3F80404C2F82005D3F885
:105700000804C2F82405D3F80C04C2F82805D3F81D
:105710001004C2F82C05D3F81404C2F83005D3F8ED
:105720001804C2F83405D3F81C04C2F84005D3F8B5
:105730002004C2F84405D3F82404C2F84805D3F87D
:105740002804C2F84C05D3F82C04C2F85005D3F84D
:105750003004C2F85405D3F83404C2F86005D3F815
:105760003804C2F86405D3F83C04C2F86805D3F8DD
:105770004004C2F86C05D3F84434C2F87035D1F84F
:105780000034DB0709D56FF00103C1F800344FF096
:105790008053D3F83031102B10D14FF08053D3F811
:1057A0003431032B02D81D4AD35C3BB14FF0102398
:1057B000D3F808224FF08043C3F858254FF0102348
:1057C000D3F80022002A03DBD3F80432002B22DABC
:1057D000134901234FF01020C1F804351224FFF7BC
:1057E00071FFC0F80042FFF76DFFC0F80442FFF7F9
:1057F00069FF0023C1F80435FFF764FFBFF34F8F43
:105800000849094BCA6802F4E0621343CB60BFF356
:105810004F8F00BFFDE710BD00C00040299F000072
:1058200000E0014000ED00E00400FA0570B501253C
:105830000268BFF35B8FB2FA82F3C3F11F03DBB2DE
:1058400005FA03F422EA040450E8006F964204D1FA
:1058500040E8004CBCF1000FF6D1BFF35B8FE7D1FD
:1058600001480B7070BD00BF0000AD0B10B50368A0
:10587000CB40DB0714D401238B400268BFF35B8F5E
:1058800043EA020150E8004F944204D140E8001C72
:10589000BCF1000FF6D1BFF35B8FEED1014810BD14
:1058A0000148FCE70000AD0B0400AD0B054B1A7975
:1058B0002AB95A71012218601A71034870470348C7
:1058C000704700BF080B00200000AD0B0C00AD0BB3
:1058D0004FF08043D3F80C24D3F80C14C80316D52A
:1058E000D10714D5D3F81824D20310D50A494A7920
:1058F00002F0FF006AB9C3F80C01D3F80C21074885
:105900000822C3F8042301224A711A61704704482F
:1059100070470448704700BF080B00200000AD0B23
:105920000500AD0B0B00AD0B10B54FF08043D3F865
:10593000002152B10020C3F80001D3F80021012258
:10594000C3F80823164B1B6898474FF08043D3F8E1
:1059500004215AB10022C3F80421D3F80421022201
:10596000C3F808230E4B01201B6898474FF0804373
:10597000D3F80C2192B1D3F8042312070ED50022DC
:10598000C3F80C21D3F80C110821C3F80813044BF9
:105990005A71BDE810401B680320184710BD00BFB6
:1059A000080B0020034B083033F81000C0F3401000
:1059B000704700BF0401002070B500F108030C4CD3
:1059C00034F81330DA0505460E4607D5C3F34323F2
:1059D00004EBC30254F8333052689847A3682BB1E4
:1059E000E26831462846BDE87040184770BD00BFE8
:1059F0000401002010B4124A083032F81030D905E2
:105A00001BD5C3F3432123F4F85322F8103002F1DD
:105A10000E04002034F8023F13F4807F03D0C3F358
:105A20004323994209D001302028F3D1002342F8C2
:105A30003130044810BCFFF719BF10BC704700BFDD
:105A4000040100205801002038B50246FFF7AAFFE4
:105A5000094C02F1080540B134F8153007495B0BD9
:105A600003F5A273002041F823001046FFF7C2FFA0
:105A7000002324F8153038BD0401002000600040E8
:105A80002DE9F34104461D4609B34F4F00F10808C4
:105A900037F81860B30706D5FFF784FF18B14B48F5
:105AA00002B0BDE8F08104F01F039B0003F1A043A6
:105AB0000978D3F8000726F0020620F00F0046F020
:105AC000010640EA810127F81860C3F800179AB16F
:105AD0003D4B1778506804F1080633F8161011F0A2
