:100000004023002075310000917900004931000043
:100010004931000049310000493100000000000072
:10002000000000000000000000000000C12A0000E5
:1000300049310000000000006D2A00004931000035
:10004000712B000061440000712B0000712B000037
:10005000712B0000712B0000712B0000712B000030
:10006000712B0000712B0000795A0000712B0000E9
:10007000712B0000712B0000712B0000712B000010
:10008000712B0000712B0000712B0000712B000000
:10009000A5440000712B0000712B0000712B0000A3
:1000A000712B0000712B0000712B0000712B0000E0
:1000B000712B0000712B0000712B0000712B0000D0
:1000C000712B0000712B0000712B0000712B0000C0
:1000D000712B0000712B0000712B0000712B0000B0
:1000E00053B94AB9002908BF00281CBF4FF0FF319F
:1000F0004FF0FF3000F00CB8ADF1080C6DE904CE04
:1001000000F004F9DDF804E0DDE9022304B07047F3
:10011000704700BF70B5174C6078002823D10120CC
:10012000607000F061FA6FF0270528B900F072FAEC
:1001300010B900F079FA20B10F486060A57008206E
:1001400010E000F033FA40B900F03AFA28B900F0B4
:1001500041FA10B900F052FA30B10748313060600E
:10016000A5700420E07070BD40F23F11742000F0D3
:1001700055F8000000000020D4060000064A00B533
:1001800092F90320904201DB104600BD00F008F810
:100190000249085600BD000000000020C60600000D
:1001A0000246134810B590F903309A4201DB0D2046
:1001B00010BD90F902309A4201DC002010BD01B15F
:1001C0000121D41A4368185D0A4C24569442F5D094
:1001D000084C08443F34C0B2D2B2A342EED1002949
:1001E000ECD0012A01D0022AE8D1401CC0B210BDD7
:1001F00000000020C6060000BFF34F8F05480168CD
:10020000054A01F4E06111430160BFF34F8F00BF65
:10021000FDE700000CED00E00400FA050EB572B633
:100220000F4A5568D5B1002203466E460A2403E002
:10023000B0FBF4F0521CD2B20028F9D1B05409E05E
:10024000B3FBF4F004FB1030B3FBF4F3521ED2B254
:100250003030B054002AF3D13046A847FFF7CCFF26
:1002600008000020550600008D06000077060000FB
:1002700065060000710600005F06000053060000DE
:1002800051060000890600007D0600006B06000094
:10029000590600004B060000430600004706000018
:1002A0003D060000014909688969084710000020DF
:1002B00001480068006800471000002001480068FD
:1002C0004069004710000020014A1268D2681047B8
:1002D000100000200148006800690047100000205D
:1002E000014A12689268104710000020014909680D
:1002F000496A08471000002030B4034C2468646841
:10030000A44630BC60470000100000202DE9F047F3
:1003100086468C460846089E154674461946002BAC
:1003200040F0C2808542B2FA82F245D94AB1C2F1A8
:10033000200300FA02FC2EFA03F3954043EA0C0C6A
:1003400094404FEA154EA8B2BCFBFEF8230C0EFBFE
:1003500018CC08FB00F943EA0C43994528D9EB185F
:1003600008F1FF3704D2994502D9A8F102072B44BE
:10037000A3EB0903A4B2B3FBFEFC0EFB1C330CFB86
:1003800000F044EA0344A04214D92C190CF1FF33C5
:1003900004D2A04202D9ACF102032C44241A43EA4D
:1003A00007401EB1D440002334607360BDE8F0877D
:1003B0004746DDE76346F1E792BB431B01214FEA65
:1003C000154EAFB2B3FBFEFC200C0EFB1C330CFB36
:1003D00007F840EA0343984562D9EB180CF1FF3067
:1003E00004D2984502D9ACF102002B44A3EB0803D8
:1003F000A4B2B3FBFEFC0EFB1C330CFB07F744EA74
:100400000344A7424ED92C190CF1FF3304D2A74262
:1004100002D9ACF102032C44E41B43EA0040C0E7DC
:10042000C2F1200320FA03F1954090402EFA03F325
:1004300003434FEA154EAFB2B1FBFEFC0EFB1C109E
:10044000190C0CFB07F841EA0041884504FA02F454
:1004500022D969180CF1FF3004D2884502D9ACF1D9
:1004600002002944A1EB08019BB2B1FBFEFC0EFB8C
:100470001C110CFB07F743EA01439F420ED9EB180E
:100480000CF1FF3104D29F4202D9ACF102012B449E
:10049000DB1B41EA004192E76046E3E76146F7E78C
:1004A0006046A3E76346B7E7834206D916B9002141
:1004B00008467BE7C6E900E0F9E7B3FA83F78FB9AE
:1004C000834201D3724508D8BEEB020460EB0303FC
:1004D00001209C461EB9002168E73846FAE7C6E9C4
:1004E000004CF8E7C7F1200CBB4022FA0CF41C4387
:1004F0002EFA0CF120FA0CF3B84001434FEA1449EC
:100500000EFA07F5B3FBF9F81FFA84FE09FB183061
:100510000B0C08FB0EFA43EA00439A4502FA07F275
:1005200040D9E31808F1FF3004D29A4502D9A8F166
:1005300002002344A3EB0A0389B2B3FBF9F809FBD9
:10054000183308FB0EFE41EA03418E452CD9611891
:1005500008F1FF3304D28E4502D9A8F102032144E9
:1005600043EA0040A0FB0298A1EB0E014145CE46B4
:10057000434602D306D14D4504D2B9EB020E68EBD7
:1005800004030138002EA6D0B5EB0E0261EB030187
:1005900001FA0CFC22FA07F34CEA0303F940C6E91E
:1005A000003198E74046C5E74346D9E74FF0805011
:1005B000D0F830010F2801D000207047012070478B
:1005C0004FF08050D0F830010A2801D00020704749
:1005D000012070474FF08050D0F830010E2801D034
:1005E00000207047012070474FF08050D0F8300154
:1005F000102801D000207047012070474FF0805034
:10060000D0F83001062803D0401C01D000207047EC
:10061000012070474FF08050D0F830010D2801D0F4
:1006200000207047012070474FF08050D0F8300113
:10063000082801D000207047012070474FF0FF309C
:10064000704700207047002070474FF0FF30704720
:1006500070477047002070470021017070474FF0CD
:10066000FF3070474FF0FF30704700210170704736
:100670004FF0FF3070474FF0FF3070470078002890
:1006800001D06FF01500704700207047002200F085
:1006900002B8FFF73FBD70B514460D46001B6FF062
:1006A0007F01884201DA084602E07F2800DD7F20D2
:1006B000194640B2FFF762FD28706C70002120449B
:1006C000A97040B270BDD8ECF0F4F8FC000203044D
:1006D0000506070800000000000000000000000000
:1006E00000000000000000000101010102020202FE
:1006F00003030303040404040505050506060708AF
:10070000090A0B0C0D0000000000000000000000B2
:1007100000000000000000000001010101020202CF
:100720000203030303040404040505050506060685
:100730000809000098B50378012B00AF14D0022BF4
:1007400017D07BB96C4688B06A46144B5361144B82
:100750009361032342F8103F4FF4C851114806F04B
:1007600078FCA546BD4698BD6C4688B06A460E4BDF
:10077000ECE70E4C204604F04BF90028F2D1237828
:100780006C4688B06A460A4951610549C2E90613B8
:10079000042342F8103F4FF40451DFE7698600005C
:1007A000D78700004C8400007E8600005E0B00208E
:1007B00092860000B0B58AB0002000AF02F072FF50
:1007C00080B9204B7B6202231F483B6207F1200265
:1007D0004FF482516FF0050406F03BFC20462837A9
:1007E000BD46B0BD00237B60FB600123BB60394682
:1007F00006F024FD041E0FDA6D4688B06A46134BDE
:100800001148C2E90534032342F8103F4FF4C251A6
:1008100006F01FFCAD46E1E7BB689B07FCD1FC6816
:1008200024B16D4688B06A46094BE9E7094B7B6203
:10083000022305483B6207F120024FF4865106F07F
:1008400008FCCBE7AF8600004C840000CF86000098
:10085000E88600000787000030B54FF0E73291B01E
:100860004FF0C233CDE901231D4A1E4D1068516877
:1008700003AB03C31C460FCD0FC42B6823601A4A79
:100880000692012305A88DF815308DF8263003F067
:1008900099FF044660B1154B0F93154802230EAA29
:1008A0004FF482510E9306F0D4FB204611B030BDB8
:1008B00001A804F055F9044608B10E4BECE702A874
:1008C00004F070F9044608B10B4BE5E7082103A8D2
:1008D00004F08AF904460028E7D0084BDCE700BFA3
:1008E00086870000B08400003507000018870000EC
:1008F0004C8400002F8700004C87000069870000AF
:10090000B0B586B000AFFFF755FF041E12DBFFF74E
:10091000A3FF041E12DA6D4688B06A46124B1348D4
:10092000C2E90534032342F8103F4FF4C25106F0E8
:1009300090FBAD4620461837BD46B0BD04F0B8F870
:10094000041E04DA6D4688B06A46094BE7E7094B96
:100950007B61022305483B6107F110024FF4865189
:1009600006F077FB0024E5E78F8700004C84000049
:10097000A7870000BF8700002DE9F04F91B08407E2
:10098000009302F004030293C2F3C20303F10103D4
:10099000DDF86880039205460E46059340F0BE815F
:1009A000041D30B1072909D86FF01B0011B0BDE854
:1009B000F08F01F00706341DC6F10806009B4FF0CA
:1009C0000009591E4FF0040A4FF0FF330193CDF890
:1009D00010904F46CB4653460DB1009A22600598C1
:1009E000002800F3EB809A48009A824203D399488A
:1009F0008242C0F0E380039AA4EB050E92074FEA0F
:100A00009E0000F106810F2F00F2B480002D00F04F
:100A1000088107F140020DEB020C019A0CF8200C42
:100A20000CF8102C049801300490EAE07A2860D881
:100A30004B280ED847285CD829282FD8252855D0F0
:100A400057D820287DD02338D0F1000B4BEB000B7A
:100A500077E0A0F14C0CBCF12E0F4AD8DFE80CF087
:100A60007149494949494949494949494C494949CB
:100A700049494949495A494C4C5A5A5A714C6E494C
:100A80007149184C18494983804C49494C498000A8
:100A900000204FF0000B4FF0040A39E0A0F12A0CBF
:100AA0005FFA8CFC012202FA0CFC1CEA0E0F48D102
:100AB0001CF062502ED11CEA020B42D0013C54447F
:100AC000CAF1000C04EA0C04002D61D0A3EB050C64
:100AD000A444B4453FF668AF002868D1042B47D141
:100AE00058F8043B2360043404232AE0019A013AB5
:100AF00001924FF0000B24E011F8010C6C2834D166
:100B000011F8023C00206C2B8346C4D14FF0080A38
:100B10005346D3E708F1070828F007080734F8E838
:100B200002AB24F0070435B106982044B0423FF6EA
:100B30003BAFC4E900AB08344FF0000B4FF0080A9C
:100B4000534611F8010F002878D0BBF1000F7FF455
:100B50006DAF2528F5D1019B013301934FF0010BB7
:100B60004FF0040AECE7584693E700208346A5E7D8
:100B7000082B02D06FF0150018E708F1070828F0DD
:100B80000708F8E80223C4E9002308340823D8E75B
:100B900068B9042B02D108F10408A4E7082BE9D1B5
:100BA00008F1070828F0070808F10808EDE7059A9A
:100BB000013A059258F8042B00920DE7039A90072A
:100BC00020D5A4EB050E4FEA9E004FF0010CBEF5B8
:100BD000007FCFD20F2FCDD8F5B107F140020DEB3A
:100BE000020EC0B2019A0EF8200C0EF8102CBCF1C7
:100BF000000F3FF417AF60F07F000EF8200C09F1F2
:100C000001090137C5F10802043406924FF6DA7E75
:100C100097E74FF0000CDAE7BCF1000F01D0013686
:100C2000EFE7029802360028EBD10098CDE90631B3
:100C300006F0C2FEDDE906310644E2E7631BB3F5C8
:100C4000806F97D245B9A6F10804E018AEE600BF60
:100C500028820000D08F0000029A28609B082B7029
:100C60009DF81030C2B1EB7085F80290B9F1000F19
:100C700005D008A80022C5F1010C97420ED1C5F19C
:100C800001030DF120084FF0000A01930DF1300B24
:100C9000574512D1601B89E66B70E5E710F8013B00
:100CA000190608D504EB0C0EB64503F07F033FF69A
:100CB0007BAE04F8013B0132DFE7B9F1000F03D04E
:100CC00098F90020002A17DB029BD3B11AF80B20F9
:100CD00004F8012B0022019B98182044B0423FF6F3
:100CE00063AE98F8000004F8010B009903922046C7
:100CF00006F072FE039A14440AF1010A08F1010891
:100D0000C6E798F8002055F822300093029B45F87A
:100D10002230009806F050FE421CDCE76FF00D0018
:100D200044E600BF2DE9F04F95B000AF0446D7F878
:100D300078B0BB61CBF3C0037A623B61396251B9D1
:100D400003784678807800EB830020440D46AE425D
:100D50001AD8031B3B6294F80290E3787B614E46FD
:100D6000B9F1000F02D01BF0010F16D17B6953BB04
:100D70007B6A1BB1BA69396A204698473D6A2846A2
:100D80005437BD46BDE8F08F00F10108404606F03B
:100D900013FE013040440135D9E794F800A06368A0
:100DA000FB617B6A4FEA8A02FA6004EB8A0A002B35
:100DB00040F001813D6AD04609EB0A030026434515
:100DC0004ED1CA4413E01BF0020FD1D094F800A01A
:100DD0004FEA8A03FB606368FB617B6A04EB8A0A63
:100DE000002B78D13D6AB9F1000F4ED14E461BF071
:100DF000050F0CBF022301237B627B690AEB4309C9
:100E00000BF002033B62CA45B9D01AF8021B1AF86C
:100E1000013C54F82380AD4B984502D3AC4B984528
:100E200039D33B69002B43D0F86906F046F9002816
:100E30003ED0E8468AB06A46A64B5361FB69C2E9D8
:100E400006314FF400731384A34B42F8103FA348BC
:100E500000234FF4125101F0B3F8023DC546D2E72A
:100E600018F8012B7B6254F8220006F0A5FDFA6FFA
:100E70007B6A01303AB1D7F8802096423EBFFA6FC4
:100E800022F816000136054499E71BF004061CBF42
:100E90007E6ACA44ABE73B6923B1F86906F00DF9F5
:100EA0000028C6D11BF0010F05D17B6AED1AAAE715
:100EB0003B6A002BA7D0404606F07EFDFB6F43B196
:100EC000D7F880309E423FBFFA6F431C22F816309D
:100ED0000136054497E7B9F1000F71D01BF0040605
:100EE00071D0C846002607F140004A46514606F038
:100EF00073FD7B695B00BB607B69CA440AEB4303FB
:100F00007B610BF002037B607B699A455DD123789E
:100F1000FB6163781BF0020F06EB03020CBF4FEA84
:100F2000580100211BF0010FD2B240F09D801BF050
:100F3000040F14BF4046002094F802B094F803A0B8
:100F40003B616270A070E170BA69F9687B6A204603
:100F50009847051EFFF613AFFB6923703B6963706A
:100F60004146BA697B6A84F802B084F803A007F1AD
:100F700040009847B0F10008C0F2A3803B6ABA690C
:100F80007869A3EB0901FB68C91ABB68C91A7B6AB7
:100F900098470028C0F29780A84408EB00054FF05E
:100FA000000B07F1300AB34560DB0021BA697B6AA8
:100FB00008469847E3E64FF0000807F1300094E751
:100FC0004E46C84695E7B04693E71AF8021B3F4ADB
:100FD0001AF8015C54F82530934202D33C4A9342FC
:100FE0001CD33B6923B1F86906F067F800288BD160
:100FF0007B68F3B908F1280207F12800024408F1E0
:10100000010302F8101C07F1500252FA83F308F1B1
:1010100002085FFA88F803F8105C75E73B692BB1AA
:10102000F86906F04AF800287FF46EAF1BF0010F54
:1010300009D006F1280207F12801731C561806F89A
:10104000205CDEB260E71BF0040F3FF45DAF08F1F7
:10105000280207F1280108F1010302EB010808F852
:10106000105C5FFA83F84FE7002065E71BF80A3051
:1010700087F82F3054F82390FB6FFBB133F81B80B7
:10108000BA697B6A012107F12F00984700281ADB13
:101090000544B8F1000F06D1484606F08DFC00F17A
:1010A00001081FFA88F8BA697B6A414648469847A2
:1010B000002808DB05440BF1010B74E7D7F87C80AE
:1010C000DEE745465BE6054659E600BF288200009C
:1010D000D08F0000F287000004000001348400007B
:1010E000014B1860704700BF1400002030B587B076
:1010F0000025CDE903010446009503A9054805959F
:1011000000F018F9DDE904309842B8BF255407B063
:1011100030BD00BF097100002DE9F047058B044682
:101120002807904611D4022905F0070540F0CD802C
:10113000204606F020F878B10138218B042811D818
:10114000DFE800F0C3106D85950001290CBF45F064
:10115000100545F02005258388F31188BFF36F8FB4
:10116000BDE8F08701F0070AAA4500F0A680002735
:10117000B9463E46A368002B00F0BD8041F008014F
:10118000218388F31188BFF36F8FA168002900F0D5
:10119000BB800D68002900F0B780D1F80480334689
:1011A00052462046C047002D76D02B6829461D4662
:1011B000F0E701F007035A1F012A1BD8002221F093
:1011C0000701062B276889B2C4E9002209D13B46F2
:1011D00003E0628B013262831B68002BF9D141F07E
:1011E00002012183204605F0C6FF00287BD041F094
:1011F000200177E0042B0AD121F0070189B2218375
:10120000204605F0B8FF10B141F020012183218B69
:1012100001F0070AAA4550D00027B946AAE723697A
:1012200021F0070141F00601062DD3F8009021833B
:101230002DD1B9F1000F40D041F00801218388F38E
:101240001188BFF36F8F3A492046C84729E021F043
:101250000701236941F0040189B2042DD3F80490F9
:101260002183E6D000273E464FF0040A82E721F0B2
:101270000701236941F0050189B2052DD3F80890D3
:101280002183D6D000273E464FF0050A72E700279B
:101290003E464FF0060A6DE72B4687E7B9F1000F8F
:1012A000D1D14FF04003EFF3118883F31288BFF3DD
:1012B0006F8F238B23F008032383258BEA062ED51B
:1012C00025F01003238305F007056669218B002EA6
:1012D000BFF66FAF00232768C4E9003321F0070190
:1012E00041F001012183218B01F0070AAA454FF04B
:1012F00000097FF43FAF002F9BD041F0080121830C
:1013000088F31188BFF36F8F002FC7D03D6839462F
:1013100033465246204605F05AFF2F46F4E7AB0607
:101320007FF51AAF25F02003238305F00705FFE6BC
:10133000FB7100002DE9F04F814695B08B461746B2
:101340001C460025387808B9284658E37B1C252818
:10135000039306D05946C8470028C0F25083013590
:10136000FBE1182200210EA806F041FB7B78252B1B
:101370007DD00023781C98469E469C461E4601461A
:1013800010F8012B2B2A00F0A18000F29880202A6F
:1013900000F09F80232A00F09F802BB19DF8403001
:1013A00043F040038DF84030B8F1000F05D09DF8B0
:1013B000403043F020038DF84030BEF1000F05D0DF
:1013C0009DF8403043F010038DF84030BCF1000F21
:1013D00005D09DF8403043F008038DF840302EB121
:1013E0009DF8403043F004038DF840309DF84030C4
:1013F00003F04400442803D16FF386138DF8403086
:101400009DF840302A2A43F080038DF840307FD188
:101410009DF8412042F001024B1C8DF841201A78C2
:101420002E2A9DF841200CBF0121002161F34102C9
:101430008DF8412078D15A782A2A6ED001330022C3
:101440004FF00A0C194611F8010BA0F13006092ED5
:1014500040F295809DF840101292C1F3400040EA9E
:10146000D2700A4660F341028DF840205CE0BA1C5D
:1014700003928DF843309DF84130DA0740F12E8118
:1014800054F8048BB8F1000F07DA9DF8402042F0C1
:1014900004028DF84020C8F100085E0740F1278162
:1014A00054F804ABBAF1000F80F226819DF8413068
:1014B0006FF341038DF841304FF0FF3A1CE12D2AC4
:1014C0000DD0302A7FF469AF012358E74FF0010CAB
:1014D00055E74FF0010E52E74FF001084FE70126A4
:1014E0004DE70EFB0262303A0346184610F8016BD6
:1014F000A6F1300CBCF1090FF3D999428FD09DF8B9
:1015000040101192D20F62F341018DF8401086E72E
:101510000B4600224FF00A0EE7E79DF8412042F00B
:1015200004028DF8412002331A786C2A47D02BD858
:10153000682A31D06A2A4BD04C2A51D01A4612F868
:10154000013B0392782B9DF841208DF8433000F247
:10155000BE806D2B51D8692B00F2B980572B67D80C
:10156000412B03D0453B022B00F2B1809DF8423065
:10157000042262F302038DF84230012373E00CFB76
:101580000202303A0B465DE7742A25D07A2AD5D17B
:101590009DF8412006210CE05A78682A9DF84120E8
:1015A00006D1012161F3C6028DF841200233C5E75F
:1015B000022161F3C6028DF841200133BEE75A785B
:1015C0006C2A9DF8412001D10421EBE70321F0E7CB
:1015D0009DF841200521ECE79DF841200721E8E72F
:1015E000BDF8402022F4F04222F0020242F4804290
:1015F00042F00202ADF84020DFE76E3BD9B2012392
:101600008B4040F282410B4237D113F0240F51D16D
:10161000D8075CD59DF84230032161F302038DF8B1
:10162000423002F07803A3F140014B424B411AE0F3
:10163000A3F15801C9B2012000FA01F111F4624F7F
:1016400094D140F6010631421DD111F4043F3ED041
:101650009DF8423060F3020302F07802402A8DF8D0
:10166000423034D000239DF84020C2F340010B43A8
:1016700063F341028DF84020FDE69DF842300221DF
:1016800061F30203E8E79DF84210022002F07802BD
:1016900060F30201402A8DF8421002BF9DF840100D
:1016A00041F001018DF84010632BDBD1131E18BFF0
:1016B0000123D8E79DF84230032161F3020312F0C1
:1016C000780F8DF8423014BF01230023CBE79DF83B
:1016D000403043F001038DF84030C3E79DF94020CE
:1016E000002AB4BFDDF844804FF0FF38D5E69807F4
:1016F0007FF5E2AEDDF848A09DF841100023CDE96A
:1017000011339DF8423003F00703012BC1F3C301ED
:1017100033D1CB1E042B04D8DFE803F02146462149
:101720002100236801294FEAE372CDE90E321CD172
:101730009DF93830DA17CDE90E3204349DF8403087
:1017400013F0030650D0039B3A465946484605F02D
:1017500056FE0028C0F253810544039FF2E554F879
:10176000043BDA17CDE90E32E8E70229E5D11AB2D7
:1017700043F3C033CDE90E23DFE7022B24D1CB1E88
:10178000042B04D8DFE803F0181010181800012902
:1017900054F8043B4FF0000214D00229CDE90E3278
:1017A000CCD19BB20E93C9E7073424F00704F4E8C8
:1017B0000223CDE90E23C1E754F8043B0E93002326
:1017C0000F93BBE7DBB2CDE7042B08D1073424F03D
:1017D0000704D4E900230834CDE90E23AEE7032B38
:1017E000ACD154F8043BDDE79DF843007828B4D829
:1017F00062281CD825283FF4ADAD5828ADD10DF195
:1018000036030093DDE90E0108AB10AA05F0B1FD27
:10181000BAF1000F074680F29A80002F9DD00DF19B
:101820003603D81B002E00F0C1800130BEE06338C3
:10183000152892D801A252F820F000BF111900001B
:10184000231900005B1700005B1700005B17000006
:101850005B170000231900005B1700005B170000F6
:101860005B1700005B170000B11900004919000068
:101870006F1900005B1700005B170000951800004F
:101880005B170000491900005B1700005B170000A0
:1018900049190000BAF1000F0E9F35DB514638465A
:1018A00006F091F807EB000A002F3FF456AF002630
:1018B0009DF8423013F01002059200F09380023040
:1018C0005B06119A48BF129B0492104448BFC0188F
:1018D000B8F1000F40F3A0809DF84020A8EB00086D
:1018E000C2F380035007069300F19680510640F141
:1018F00089803EB159463046C84700287FDB069BA9
:1019000001351E4630227EE0384606F055F8C9E71C
:101910000E9B8DF82030002608AF0DF1210A012022
:10192000C6E719075CBFC3F300135E01DDE90E23B0
:1019300048BF2B26002BBFF662AF524263EB430336
:10194000CDE90E232D265AE7002658E700269DF8FC
:1019500040200DF13603DB1B6FF386129A458DF89C
:1019600040207FF65AAFAAEB0303119355E70E9878
:1019700090B30DF13603009310AA08AB002105F0D7
:10198000F8FCBDF8423003F0EF0343F4F04343F0BA
:101990001003BAF1000F0746ADF84230D6DA00283E
:1019A0003FF4DBAE0DF13603181A00269A467FE7A6
:1019B0000E9B07293FF6D1AEDFE801F00C04060CC0
:1019C00008080C0C1D70C8E61D80C6E6EA17C3E9BE
:1019D0000052C2E61D60C0E62E4F064607F1050A1A
:1019E000052065E71A0748BF013069E707931046ED
:1019F00006925946C8470028DDE9062304DA15B0E7
:101A0000BDE8F08F202243461946002903F1FF3339
:101A1000ECDC45446D1A98462EB159463046C8470D
:101A20000028ECDB01359DF84230DA0601D41B07B3
:101A300005D559463020C8470028E0DB0135059B15
:101A400033B19DF843005946C8470028D7DB01351C
:101A5000049E2E4405E059463020C8470028CEDBBE
:101A60000135731B002BF6DC53463A46594648466F
:101A700005F0C5FC0028C2DB0544A844A8EB05031B
:101A8000002B7FF76AAE59462020C8470028B6DBF6
:101A90000135F3E7A688000003F0B0BA2DE9F0475E
:101AA000DFF85880044607464FF0010914B938465C
:101AB000BDE8F08794FAA4F5B5FA85F509FA05F3BF
:101AC0002E0108EB05156FEA030A24EA03042B7BB9
:101AD000002BEBD058F806301B694BB94644042262
:101AE00073682846196807EA0A0700F055FADDE727
:101AF000284698470028D9D1F0E700BF9C84000011
:101B000030B51049104889B0002206F05EFB0F4D39
:101B10000F4900220023CDE9062300240E23CDE93E
:101B20000334CDE901440B4B00944FF44072284636
:101B300004F026FA0849284606F0B3F9204609B011
:101B400030BD00BF5D1B00000806002080010020A2
:101B500080120020451E0000AC880000014804F0FF
:101B600069BB00BF6C0100202DE9F04780461F488B
:101B70000F4605F06BFE0646002830D000252846AB
:101B8000BDE8F087237B73B12368DB680BB1204687
:101B9000984723681B69D3B96368042219682046F3
:101BA00000F0FAF9013610344C45EBD3B8F1000FD0
:101BB000E5D0002DE2D02846FFF770FF0546002F44
:101BC000F7D000214FF4A47004F078FFF1E720462D
:101BD00098470028E0D00AFA06F31D43E2E7044CD8
:101BE000DFF8109005464FF0010ADDE718080020E5
:101BF0009C840000AC840000014B53F82000704727
:101C0000EC84000008B5034608462BB1044A136073
:101C100000F048FC002008BD6FF01500FBE700BF96
:101C20001800002010B5044C237813B9034804F0C1
:101C300001FB0123237010BD830B00206C010020E9
:101C400010B50446084805F001FE5CB1BFF35B8F98
:101C5000064B53E8001F013943E80012002AF8D16F
:101C6000BFF35B8F10BD00BF1008002014080020D8
:101C70000020064BBFF35B8F014653E8000F43E89B
:101C80000012002AF9D1BFF35B8F704710080020C3
:101C900070B5FFF7EDFF084C084E0546B44200D37F
:101CA00070BD63685B792BB123685B6813B129460B
:101CB000204698471034F1E79C840000AC84000073
:101CC00010B5044C0449204605F05DFC034B1C6034
:101CD00010BD00BFE0000020D884000008080020EC
:101CE00008B5074A074800231370074A4FF400411C
:101CF0001360FFF787FFBDE80840FFF7E1BF00BFB3
:101D0000840B0020497800001008002001460022C2
:101D10000148002305F058BCE0000020014805F010
:101D2000F1BC00BFE0000020024B0146186805F03E
:101D300039BD00BF08080020014805F067BD00BF9D
:101D4000E000002070B5284B187800284BD0FFF732
:101D5000E5FF054690B1BFF35B8F244B53E8001FAE
:101D6000013943E80012002AF8D1BFF35B8F204C01
:101D7000204EB4422DD32846FFF7D6FF1E4B1F4CF2
:101D80001B68002B19DD06F01AFA4FF47A72A0FBDB
:101D9000020302FB0131C30BD4E9002043EA4143B3
:101DA0009B1A4FEAD13140F2E93261EB00019342D4
:101DB00071F1000101D3FFF76BFFD4E9003213F595
:101DC0007A7342F10002C4E90032BDE87040FFF7C7
:101DD000B3BF63685B7923B1236829461B6820463B
:101DE00098471034C5E770BD830B0020140800200D
:101DF0009C840000AC840000100800200006002035
:101E000070B50D4D297861B90120FFF7ADFE0B4C7F
:101E10000B4EB44206D3FFF795FF0028FBD10123F8
:101E20002B7070BD63685B791BB1236820469B688B
:101E300098471034EDE700BF840B00209C8400001D
:101E4000AC84000000212DE9F0470846FFF78CFE26
:101E5000044648B340F267684FF0000904F048FEBA
:101E60001A4B186030B11A4B1B68092B02DD194858
:101E700004F0E0F9184FDFF85CA0002544B12046DB
:101E8000FFF70CFE044618B94FF0FF384FF0FF394A
:101E9000FFF758FF064628B9B5B942464B465046AB
:101EA00004F0E8F93546E9E74FF0FF384FF0FF3925
:101EB000D4E72B689B691BB100221146284698473E
:101EC0001035BD42F5D3E8E7044DFAE70C080020D1
:101ED000140800206C010020AC8400009C840000E9
:101EE00013B5184805F0B2FC174B1B787BB14FF0C7
:101EF0004003EFF3118483F31288BFF36F8FFFF772
:101F000021FF84F31188BFF36F8F02B010BD0F4B18
:101F10001B68002BF9D050B900220023CDE9002323
:101F20000B484FF40042002305F01EF8EDE70A28A5
:101F3000EBD1074806F055F9064802B0BDE810405D
:101F400004F078B914080020840B00200C0800204D
:101F5000080600206C01002010B5064B1B680446E3
:101F600098472146A060044805F0ACFBBDE810404E
:101F7000FFF7B6BF18000020E0000020044A054B20
:101F80009B1AB1EBD30F34BF52F8310000207047D9
:101F9000148400009C840000084BC31A10B41B1169
:101FA00044680133237143689A7143681960436838
:101FB00001225A7110BCFFF735BE00BF9C8400009F
:101FC0002DE9F04F8FB0C1F3CB44C1F34926059002
:101FD0000D46904699461734002E3CD04FF0040B26
:101FE00009AF4FF00A0A002231460BABCDF808B01A
:101FF0000197CDF800A04046CDE90B220D9207963F
:10200000FEF790FEC0F30903181920F007008008BE
:102010001E4663F352250693FFF778FE044678B117
:10202000069B0C93103000220B900D92CDE9017BA2
:102030000C4A0799CDF800A00BAB4046FEF772FEA4
:1020400066F3522505994B462A4620460FB0BDE857
:10205000F04F05F031BC24F007008008FFF756FE72
:102060000446EDE78D7800002DE9F04F87B0DDE9FB
:102070001269DDE9105A04460F4693469846B6B3F6
:102080001021CDF80090334652460020CDF8149030
:10209000FEF772FC0146174B039104F007040BF0A6
:1020A000070BE40003EA412305F1170044EA8B140F
:1020B0001C430844104B20F0070003EAC543800886
:1020C0001C43FFF723FE054640B13EB10399CDF80E
:1020D0000090334652461030FEF74EFC43462246EF
:1020E0003946284607B0BDE8F04F05F0E5BB31465C
:1020F000D1E700BF00FE07000000F87F0EB403B573
:1021000003AB014653F8042B0448019305F0FBFB95
:1021100002B05DF804EB03B0704700BF2F790000F8
:10212000CA0605D48B064CBF02490349FFF7E6BF38
:10213000704700BFC2880000C18800002DE9F04F41
:1021400089B09B469DF848300493DDE913930593CD
:10215000049B0692DDE9157604460D46002B00F03F
:10216000878006F00803079305F08EFB06F0020A4D
:10217000024600284BD086492046FFF7BFFF804625
:10218000BAF1000F08D016F0440F42D181492A4617
:102190002046FFF7B3FF804406F001035BB17E4B9E
:1021A000049A7E4953F822207D4B2046002A08BF1E
:1021B0001A46FFF7A3FF06F00803002B55D0794B12
:1021C000049A794953F822202046FFF797FF0546E5
:1021D000069B2BB175491A462046FFF78FFF054431
:1021E000BBF1000F05D072495A462046FFF786FF23
:1021F00005444544B9F1000F49D1002F4FD1F307F1
:1022000000F1C08031462046FFF78AFFB4E08046E7
:10221000B6E7684B18680028BDD0674B4FF47A7E4C
:102220001B68B5FBF3F54FF46162B5FBF0F300FBFF
:102230001355B3FBF2FA0EFB05F502FB1A323C21F3
:10224000B5FBF0FCB2FBF1F300FB1C5501FB1322C4
:102250000EFB05F50092B5FBF0F55849CDE901C537
:1022600052462046FFF74AFF95E706F00805AFE71C
:10227000BBF1010F06D1B9F1000F64D1002F7BD063
:1022800000250CE0B9F1000FF8D04D485CE04D4856
:102290004D494B46224604F0DFFE002F68D0DFF8A0
:1022A0002C91DFF82CA1102F31462046B84628BFCC
:1022B0004FF01008FFF734FF4FF0000B5D4545DC91
:1022C000059B51461A782046FFF718FF4FF0010B87
:1022D0001BF0070F03D149462046FFF70FFFD845F3
:1022E0003BD9059B514613F80B202046FFF706FF0C
:1022F0000BF1010BBBF1100FEAD1364920464FF02C
:10230000000BFFF7FBFE5A46059B9A5CA2F12001E9
:102310005F2928BF2E2230492046FFF7EFFE0BF140
:10232000010BBBF1100F1DD01BF0070F03D1494665
:102330002046FFF7E3FED8455A46E5D849462046F1
:10234000FFF7DCFEEBE71F48049DA1E74946204666
:10235000FFF7D4FE0BF1010BB0E720492046FFF751
:10236000CDFEC5E7059BB7EB0807434405939AD11B
:10237000049B002B7FF443AF204609B0BDE8F04F2B
:1023800005F0C8BA064A05492046FFF7B7FE39E707
:10239000C9880000CD880000FC840000F28800009D
:1023A000C488000010850000F5880000FB8800004C
:1023B000FF880000200800201C080020D6880000AC
:1023C000657900002F790000077900000C89000072
:1023D000048900000E890000108900000A890000AD
:1023E0002DE9F0410F884B688E6886B005460C4693
:1023F0009046C7F382175BB1134A9B1A43F3CF0190
:1024000000291FDB2078C0F3C200FFF7B7FD0346A9
:102410002146608851F8102B0097C2F34922002A08
:1024200001EB0204C0F3CB0008BF0021CDE9030893
:10243000CDE90114002231462846FFF77FFE06B0A1
:10244000BDE8F0810023E3E71484000073B542F295
:102450000F738B4228BF0B4605680F4A04460521BF
:10246000684604F071FE63680C495B6806460B22FF
:10247000284605F03BFA63683246694628465B68A1
:1024800005F034FA636806495B681B22284605F0AC
:102490002DFA02B070BD00BFE58600002F89000054
:1024A00013890000074A00210123904206D8064AFA
:1024B00001B901231360054B1860704740085B00A9
:1024C0000121F2E740420F001C08002020080020F4
:1024D000014B01221A707047850B0020014B002030
:1024E0001960704738080020024B034801221A7017
:1024F00005F010BA860B0020408500000148FFF768
:10250000A5BF00BF4085000010B5064B18680C46FB
:10251000FFF772FB21460346BDE8104002480F2238
:10252000184700BF380800204085000010B9074B4D
:1025300018707047064B1B781BB141F2883005F0CC
:1025400040BEA420002104F0B9BA00BF850B0020D2
:10255000860B00202DE9F843DFF874901D4F80466C
:102560000E46042499F8005095B903F05BFB284609
:102570003246414603F0D8FA054603F05DFBE5B16B
:1025800001233B7099F8003073B93046BDE8F883F9
:1025900032464146002003F0C7FA0546EFE72046E1
:1025A000FFF7C4FF651E2C46002003F031FB002816
:1025B000EBD03B78002BF2D1E7E73B78002BE4D05F
:1025C000013C2046FFF7B2FF3B78002BCAD1DCE785
:1025D000860B0020850B00202DE9F84305464FF0BF
:1025E0004003EFF3118683F31288BFF36F8F0E4B16
:1025F0000E4F1C68DFF838804FF00C092CB986F3B9
:102600001188BFF36F8FBDE8F883D4E90123002D53
:1026100018BF13462BB198F8142009FB02F2B85CDE
:1026200098472468EAE700BF5408002048080020C3
:10263000FC0A002070B5194B1C7DBFF35B8F04F0C2
:102640001F0301229A40164B610903EB8103D0431B
:1026500053E8001F01EA000543E80056002EF7D1B9
:10266000BFF35B8F0A4213D00E4B0F4D8BB10C237F
:102670006343EA18E85C517805F0DFF90020FFF7C2
:10268000ABFF0C235C432A1900232B51C2E9013311
:1026900070BD83F31188BFF36F8FEFE7FC0A002052
:1026A0005C0800203B7A0000480800202DE9F0413A
:1026B000354B07461D7D4FF04003EFF3118883F340
:1026C0001288BFF36F8F0C24304B314E6C431A19B4
:1026D000195D00294CD007CA06EB040C8CE80700F2
:1026E00000221A5588F31188BFF36F8F0C236B43B8
:1026F000F218F05C002839D07B1C10D0D2F808C04A
:10270000244C254A4FF400400021ECFB00410023FB
:102710002046FDF7E5FC0121381A05F030FD04F0F4
:102720000FF90120FFF758FFBFF35B8F1B4B6A09BE
:1027300003EB820305F01F0101228A4053E8000FDA
:10274000104343E800010029F8D1BFF35B8F144B1D
:102750003BB10C2303FB05F03318305C597805F0CE
:1027600060F9FFF767FF04F0FFF80120BDE8F08192
:102770000146284600F016F80028B3D007C83444B4
:1027800084E80700AEE700BFFC0A00203C080020F8
:10279000480800203F420F0040420F005C08002024
:1027A000237A00002DE9F04F85B00E4603A900F012
:1027B00043F81E4B039DD3F800A0DFF87480431E3E
:1027C0001BB203EB4303044605EB83054FF40047BC
:1027D0004FF0000B24B9A146484605B0BDE8F08F84
:1027E0006868144AC4465946E0FB07C100236046A6
:1027F000FDF776FC0190A8680E4AC4465946E0FBF6
:1028000007C100236046FDF76BFCBAF1FF3FA94604
:1028100001D0824505D9731CDED0019B1844B0421B
:10282000DAD9013CA4B20C3DD4E700BF1C00002063
:102830003F420F0040420F0008B9024B0B600020DE
:10284000704700BF50850000014910220A607047A0
:1028500010ED00E072B6404080F31188BFF36F8F37
:10286000BFF34F8F30BF62B6BFF36F8F704700BFAB
:1028700072B6494081F31188BFF34F8F20BF80F3B8
:10288000118862B6704700BF2DE9F047814600AF5E
:102890000C4600294CD06E468AB0D1E90012A368DC
:1028A0006D462748A8464FF0050AC5E90501C5E968
:1028B000072348F810AF2348424600234FF4215124
:1028C000FFF77EFBB546D4E903126369AD461E48A7
:1028D000C5F810A0C5E90501C5E90723194800237B
:1028E00042464FF42151FFF76BFBB54688B0E369D0
:1028F0006D46164AA8464FF0030AC5E9052348F875
:1029000010AF1048002342464FF4C251FFF758FB66
:10291000B546A369AD460E4AC5F810A0C5E9052322
:102920000848002342464FF4C251FFF749FBB54621
:102930002146484603F086F9BD46BDE8F08700BF52
:102940006E8900007C8400009D890000CC89000015
:10295000DB89000040B2002807DB044A410901235B
:1029600000F01F00834042F82130704700E100E092
:1029700040B200280CDB4309064900F01F00203359
:102980000122824041F82320BFF34F8FBFF36F8FA6
:10299000704700BF00E100E0054B420900F01F0056
:1029A00053F82220012303FA00F01040704700BFC3
:1029B00000E100E040B2D30754BF023100210028FB
:1029C000ACBF00F16040074A4FEA4113ACBF00F5CD
:1029D000614000F00F00DBB2B4BF135480F8003345
:1029E000704700BF14ED00E008B572B6044B9A6959
:1029F0001AB100229A6105F05BFA62B608BD00BF09
:102A0000FC0A002030BFFFF7FDBF00BF08B5084B30
:102A1000084A23F07F039360BFF34F8FBFF36F8F9C
:102A200003F0CAF904F0DCF800F098FB03F008FAB0
:102A30000000000000ED00E0094A0A4993680968B7
:102A40009967094958674B6843F080534B600023EE
:102A500083F31188BFF36F8F9368986F704700BF3F
:102A6000FC0A00203486000000ED00E012498A686C
:102A70004FF030001044EFF3098C80E8F01F402045
:102A800080F31288BFF36F8F0C4F4FF00066CA6956
:102A90008A603E60506F0023536780F3118804B54D
:102AA000104600F0F7FBBDE8044002F1300090E86A
:102AB000F01F8CF309887047FC0A002004ED00E049
:102AC0001EF0040F0CBFEFF30880EFF3098081695B
:102AD00011F8021C0229FFD001B504F051FF01BD1D
:102AE00042F8203C009B42F81C3C0A49019B42F8FA
:102AF000183C029B42F8143C21F001014FF0807316
:102B000042F8043C42F8081C0023203A026543675F
:102B1000704700BF63710000094A0346906870B1B6
:102B200013F1160F406E05D0A0F140029A4205D86D
:102B3000834203D2814228BF0020704700207047A3
:102B4000FC0A002008B5094B98600D46144600F0B9
:102B5000A1FB204685F30988002163B681F3118823
:102B6000BFF36F8F0022002304F0FBFAFC0A002061
:102B700001B572B60B4A906900281EBF0021916111
:102B800005F096F962B6EFF30580A0F110004FEA68
:102B9000C0000549014409C99847BDE801400349FF
:102BA00008470000FC0A0020C0820000B12B000092
:102BB000044B9968D869884203D003494FF080528A
:102BC0000A607047FC0A002004ED00E02DE9F041A6
:102BD00086B0064600AF0D463B4B7B6102243B4866
:102BE0003C6107F110024FF4825104F0D8FE384BDB
:102BF0009B6ADB0409D5374B3448C7E9044307F126
:102C000010024FF4825104F0CAFE314B9B6A1C053E
:102C10000AD5314B7B6102232C483B6107F110023E
:102C20004FF4825104F0BBFE294CA36A980522D5CB
:102C3000E8462A4B7B6102233B6107F110024FF407
:102C40008251224804F0ABFEA36BA26A110412D594
:102C500088B06A4622491D48C2E90513032342F899
:102C6000103F4FF4C25104F09AFEC5461EB1A36A4C
:102C700023F40043A362164B9B6A5A050AD5194BED
:102C80007B61022311483B6107F110024FF482512E
:102C900004F085FE0E4B9B6ADB050AD5124B7B6167
:102CA00002230A483B6107F110024FF4825104F0FD
:102CB00076FE074A936A002043F47F4318379362F5
:102CC0002870BD46BDE8F081098A00007C840000C0
:102CD00000ED00E01F8A0000308A0000438A0000F7
:102CE0005C8A0000718A00008C8A000010B586B0F2
:102CF000334B34480593022404AA4FF482510494C0
:102D000004F04DFE304B9B6A9B0108D52F4B2D489C
:102D100004AA4FF48251CDE9044304F040FE2A4B4B
:102D20009B6ADC0109D52A4B05932648022304AA95
:102D30004FF48251049304F032FE234B9B6A180334
:102D400009D5244B05931F48022304AA4FF482514E
:102D5000049304F024FE1C4B9B6A590309D51E4BB7
:102D600005931848022304AA4FF48251049304F0F7
:102D700016FE154B9B6A9A0309D5184B059311480B
:102D8000022304AA4FF48251049304F008FE0E4B70
:102D90009B6ADB0309D5124B05930A48022304AA58
:102DA0004FF48251049304F0FAFD074A936A6FEAE4
:102DB00003436FEA13430020936206B010BD00BFC7
:102DC000A48A00007C84000000ED00E0BC8A0000C2
:102DD000CF8A0000E98A0000078B00002C8B0000DE
:102DE000468B00002DE9F04786B0804600AF0C46C8
:102DF0001546434B43487B6102263E6107F11002B2
:102E00004FF4825104F0CBFD3F4B9B6AD80609D5A5
:102E10003E4B3C48C7E9046307F110024FF482516E
:102E200004F0BDFD384B9B6A19070AD5384B7B610E
:102E3000022334483B6107F110024FF4825104F041
:102E4000AEFDDFF8C4A0DAF828309A0722D46FF07C
:102E500015062D4B9B6AD8070AD52E4B7B610223A2
:102E600028483B6107F110024FF4825104F097FDAE
:102E7000254CA36AD90636D4A36A9A0733D4002016
:102E8000A36A43F0FF03A362183700232B70BD46EB
:102E9000BDE8F087E946204B7B6102233B6119487E
:102EA00007F110024FF4825104F079FDDAF8346032
:102EB000DAF828301B06CAD588B06A46174B114885
:102EC000C2E90536032342F8103F4FF4C25104F023
:102ED00066FDCD46002CBCD0DAF8283023F0800304
:102EE000CAF82830B5E763681B05C8D541463046A7
:102EF000FFF712FE0028C2D080F309880220BFE746
:102F0000718B00007C84000000ED00E0878B0000E6
:102F1000308A0000E88B0000BA8B0000D28B0000E2
:102F20002DE9F043774B8BB0D3F8048000AF054612
:102F3000C8F30804002686F31188BFF36F8F02F0F0
:102F40007F43B3F17F4F0ED102F00C03082B19D150
:102F50006D4BFB6102236D48BB6107F118024FF412
:102F6000825104F01CFD002635460023FB71E31E50
:102F7000092B00F2A680DFE803F00A999C95A4A42F
:102F8000A4A4A49F10074CBF0D460126EDE7E94617
:102F90005F4BFB614FF0020807F118025B48C7F86E
:102FA00018804FF4825104F0FAFC0023554CFB7159
:102FB000E36A9A070BD5574BC7E90683534807F1D5
:102FC00018024FF4825104F0EAFC002441E0E36A65
:102FD000002B01DA504BEFE7E36A5B00F5D54F4B6E
:102FE0004A48C7E9068307F118024FF4825104F0FA
:102FF000D6FC6369AA6943F480736361BFF34F8FA2
:10300000BFF36F8F636932F8022C23F4807363611E
:10301000BFF34F8FBFF36F8F4DF602739A4208D004
:10302000A36ADBB28BB3FA1D01212846FFF7DAFE53
:103030003AE088B02B686A4639493448C2E905133A
:10304000032342F8103F4FF4C25104F0A8FC2C684F
:10305000CD46FB79ABB92022294607F1080004F0E0
:10306000BBFC7B6A002E47D0C3F3080222B96FEA8B
:1030700053236FEA43237B6207F108012046FFF7E1
:1030800003FC2C37BD46BDE8F083A36A13F47F4FE1
:1030900004D0F91D0120FFF799FD05E0A36AB3F5FF
:1030A000803F92D3FFF722FE0446D2E7FA1D0021AB
:1030B000BBE7F91D0020EEE71A4BFB610223BB6161
:1030C0007CE7194A194B18F4F87FE8468AB018BF14
:1030D00013466A4616490D48C2E905134FF40073BA
:1030E0001384103C134BD4614FF4115142F8103F3C
:1030F00004F055FCC54668E723F4FF7323F0010391
:10310000B9E700BF00ED00E0358C00007C840000D2
:10311000608C0000778C0000988C0000A68C00006A
:10312000C58C0000E18C00001C8C0000078C0000A6
:10313000058D000004000001024A536943F01003AA
:103140005361704700ED00E0EFF30880EFF3098171
:1031500001B57246FFF7E4FE01BD00BF044800233D
:103160004021C2180133282B82F80013F9D170478F
:1031700000E100E0002080F31488BFF36F8FFEF7BA
:103180008BFC00200D490860BFF34F8F0C4880F383
:10319000088800F02BF8402080F3118809484FF48C
:1031A0000461401880F30988EFF31480022108437A
:1031B00080F31488BFF36F8FFFF728FC94ED00E0D5
:1031C00040230020C01500200749D1F8902000239B
:1031D000C2F307221846934200DB7047C1F89830CB
:1031E000C1F8A0000133F6E700ED00E008B572B6C3
:1031F000002383F31388FFF7E7FF144B4FF0FF32F0
:10320000C3F88020C3F88420C3F88820C3F88C203A
:10321000C3F89020C3F89420C3F89820C3F89C20EA
:10322000C3F88021C3F88421C3F88821C3F88C2116
:10323000C3F89021C3F89421C3F89821C3F89C21C6
:1032400062B6BFF34F8FBFF36F8F08BD00E100E0A0
:10325000084B9B6883420BD1EFF3058343B1064BC8
:103260005A6842F080525A605A6A22F400425A6206
:1032700003F044BCFC0A002000ED00E0024B034ACE
:103280000348012100F092B80080002000000020D7
:1032900050850000426E054B403A1A60044A4021B6
:1032A000C3E901121846012100F08AB86008002025
:1032B00000000B152DE9F041DFF8B4E09C4600AFAB
:1032C000154600238B421ADA4468002C4DD0BCF11D
:1032D000000F1DD0661E344215D06C4688B06A4679
:1032E0002449C2E90513032342F8103F2248002372
:1032F0004FF4C251FEF764FE6FF01505A54628464F
:10330000BD46BDE8F0811F2CE7D902681642E4D122
:10331000202C026886685FFA85F814D9B4F1004F52
:1033200013D8013CB4FA84F4C4F11F046400B8F16A
:10333000070F46EA04060AD96C4688B06A460F4B66
:10334000C2E90535CFE70824F1E73E24EFE722F094
:103350001F022A4342F0100246F00106CEF89850B0
:10336000CEF89C200135CEF8A06001330C30A9E7DF
:1033700000ED00E01C8D0000748400003F8D000013
:10338000044B0522C3F89420BFF34F8FBFF36F8F18
:10339000704700BF00ED00E0BFF35F8F024B0022DB
:1033A000C3F89420704700BF00ED00E010B5034C57
:1033B00001232278FFF77EFF207010BD970B0020BD
:1033C00008B5094A00231278FFF774FF10F1160FB1
:1033D00003D0064B0022072800DD08BDC3F8980083
:1033E000C3F8A0200130F6E7970B002000ED00E0C5
:1033F00014490868082810B521D8FFF7CDFF124CF2
:1034000049680022904201F10C0105D10F4B187060
:10341000FFF7B6FF002010BDC4F8982051F80C3C0F
:1034200023F01F03134343F01003C4F89C3051F8FA
:10343000043C43F00103C4F8A0300132E2E74FF04E
:10344000FF30E8E75C85000000ED00E0970B00200E
:10345000014B1860704700BF200000204FF08043F0
:10346000C0B2C3F81C05BFF34F8F0549054BCA68AE
:1034700002F4E0621343CB60BFF34F8F00BFFDE760
:1034800000ED00E00400FA0520B1034B800143F099
:1034900001031847704700BFD0840000084B70B587
:1034A000C31A0D4607499B1004465943064840225B
:1034B00004F0E5FA2B4601462046BDE87040184767
:1034C00080080020B76DDBB67882000073B50C4C25
:1034D0000C4A4023041B00930D460B460A49A410D6
:1034E00061430646094804F0F6FA011E05DA304643
:1034F0002B4602B0BDE87040184702B070BD00BF57
:1035000080080020417B0000B76DDBB678820000A8
:1035100010B54FF04003EFF3118483F31288BFF32B
:103520006F8F074A136823F00201DB07116002D492
:10353000012004F03BFC84F31188BFF36F8F10BDB2
:10354000D0080020002270B5012104461046FFF784
:1035500031FA114801F046FE104B984218D120690B
:1035600000F09CF904F0DDFB26690D49304603F0BC
:1035700052FE00280BDB012535642469084904F15B
:103580001C0003F048FE002801DBE564002070BD4C
:103590006FF00400FBE700BFD93500000000AD0B61
:1035A0007C85000070B501460C2309484B43C418C4
:1035B000D4E90E5600224033A263184404F04CFABA
:1035C0002DB132462B460348BDE87040184770BD08
:1035D0008008002078820000012810B504460AD037
:1035E00003280CD078B9084B1B6C5B070BD1BDE8E6
:1035F0001040FFF7D7BF00F05FF92046F7E7BDE8BE
:10360000104000F067B910BD8008002008B54FF0E9
:103610004003EFF3118183F31288BFF36F8F124AD7
:10362000136843F002001060DA0708D481F31188B0
:10363000BFF36F8F0120BDE8084004F07FBB4FF05F
:103640008043D3F80C24D3F80C34D307EED50748C5
:1036500004F002FA81F31188BFF36F8F0020BDE8F8
:103660000840FFF79FBF00BFD0080020C00800201F
:103670001FB500220123CDE90223094ACDF800D06D
:103680006B46CDF804D004F054FA002805DB4FF463
:1036900080420023684602F0EDFD05B05DF804FBB2
:1036A000597B0000024AC3B21C2003FB0020704774
:1036B00080080020F8B52849BFF35B8F0646012239
:1036C00051E8003F41E800200028F9D1BFF35B8FAB
:1036D00033B9224922484B60CB608A6003F0AEFDCB
:1036E000731E012B1DD804F0D6FB0446D0B91D4B28
:1036F0001B78BBB14FF080430222C3F80823054674
:103700004FF08047D7F81834D7F81824D20313D5D0
:103710009B0701D0012E0FD1C4B185F31188BFF3EF
:103720006F8FF8BD4FF04003EFF3118583F31288DC
:10373000BFF36F8F0124E3E71CB12846FFF798F829
:10374000E0E70021212003F0B9F9DBE74FF08043E7
:103750000222C3F80423E4E77C0800206C08002060
:103760009C0800204F1200200D4BBFF35B8F0122FD
:1037700053E8001F002903D143E800200028F7D1B7
:10378000BFF35B8F0AD107490023CB60064B4B6028
:1037900003238B60054B186803F050BD704700BFD2
:1037A000F0080020D808002071380000D40800205C
:1037B00007B500220023CDE9002308484FF400326A
:1037C000002303F0D1FB064B186803F08FFD054B77
:1037D00000221A6003B05DF804FB00BF2001002046
:1037E000D4080020F0080020F7B51C4E1C4CB76828
:1037F0001C4DFB6839213046984740B100232370A7
:103800002B8001F001FD0123237003B0F0BD0C21DA
:103810003B696A46304698470028EFD1124A019B1F
:1038200093FBF2F3009A217803EB82031BB2B5F904
:1038300000200029E4D09A1A002AB8BF524212B2DE
:10384000012ADDDC094A1368013901332170136054
:1038500003B0BDE8F040FFF7ABBF00BFA882000097
:10386000980B00203C0B002090D00300E8080020BB
:1038700008B5074804F000FB28B901F0C5FC054B6A
:1038800001221A7008BDBDE80840034802F010BECE
:10389000A8820000980B002024000020034B044A5B
:1038A000186000231360034A13607047D408002097
:1038B000EC080020E8080020024B00221A70FFF7F5
:1038C00053BF00BF980B0020014804F08ABC00BF22
:1038D00020010020024A136801331360FFF768BF1C
:1038E000EC08002010B5044C2046FDF7F9FB2046FB
:1038F000FFF7AEFD002010BDFD380000F7B5134EF8
:103900008DF807000446032502F08CF901220DF121
:103910000701002002F050F9074602F08DF927B1A7
:1039200001233370204603B0F0BD3378002BF9D06B
:10393000013D08D004F0AFFA0028E5D10021422073
:1039400003F0BCF8E0E73570ECE700BF990B00200E
:1039500030B54068057B01F01F04B2F5001F85B04B
:1039600044EA451405D1204601F0F0FE002005B0E0
:1039700030BD0025B2F5800FCDE9025514D1B3F169
:10398000007F0CBF042305238DF80830002319465F
:1039900002AA204601F010FD1D4B984235D10121AD
:1039A000204601F08FFEE1E7B3F1C06F22D0B3F102
:1039B000007F14BF012302238DF808308368CB40B9
:1039C000D907E3D4B2F1A07FE0D104F01F0303F5DF
:1039D000E0734FF0A04252F82330DB07D6D40DF14C
:1039E00007052946204601F019FE0A4B984203D0EC
:1039F0000395CBE70323DFE7284601F05DFE044B88
:103A00009842F5D06FF00B00B1E76FF01500AEE70C
:103A10000000AD0B0400AD0B10B501F03DFE0446F7
:103A200068B901F011FE084B98420AD107482146B7
:103A300001F0EEFD224605210620FEF7BBFF002027
:103A400010BD6FF00400FBE70000AD0B513A000021
:103A5000430970B507D10B4B596821B101250C689A
:103A6000094E854001B970BD8A682A4002D04B6872
:103A7000304698471CB1236821461C46F2E723468E
:103A8000FAE700BFF4080020908200002DE9FF4112
:103A900047683B7B01F01F0545EA43150E46284663
:103AA0000DF10301144601F0B9FD14F4403F8046C6
:103AB0000BD1284601F072FE3D4B984503D19DF88D
:103AC000030001F0F3FD00200CE00023194602AAD8
:103AD0002846CDE9023301F06FFC354B984204D003
:103AE0006FF0150004B0BDE8F081804503D19DF86A
:103AF000030001F0DBFDA3034BD540F20633234066
:103B0000B3F5837F19D00CD8062B17D004D8ABB1EE
:103B1000022BE5D1042311E0B3F5807FE0D101232E
:103B20000CE040F20222934227D0B3F5407F26D02A
:103B3000B3F5007FD4D1022300E007238DF80430D1
:103B400084F48033C3F30043E0068DF8053054BF9E
:103B5000C4F34013032321038DF8063011D57A688E
:103B60000123B340C2F80835002201A9284601F01C
:103B7000D1FC0F4B9842A6D0B2E70523DEE7032322
:103B8000DCE7620341BF01237A68B340C2F80C3519
:103B9000EAE7E3064FF0000354BFC4F340140324E4
:103BA0001A4601A928468DF8044001F005FCE0E71B
:103BB0000000AD0B014B01221A60704700C00040AD
:103BC0000C2903690BD15B6A064907484B4393FBF9
:103BD000F0F100FB113311605360002070476FF06B
:103BE0008500704790D0030040420F00044B0069ED
:103BF0000022C3F80021D3F8003102F01BBB00BF44
:103C000000C000407FB50569AB6A63B3392901D0B4
:103C10000C292BD105F110064FF0FF324FF0FF3386
:103C2000304602F051FA134B0193A86A0323002493
:103C300069460394029303F001FB4FF0FF324FF00B
:103C4000FF33284602F016FBA86A03F04FFB0A4B2D
:103C5000D3F808256A6201225A60304602F0AEFAB3
:103C6000204604B070BD6FF00A00FAE76FF08500DF
:103C7000F7E700BFB53B000000C0004010B5046985
:103C80000020FFF70FFDA0624FF0FF320021204619
:103C900004F024F904F1100004F019F900220121C4
:103CA0000C20FEF787FE0C20FEF754FE024B01228B
:103CB000C3F80423002010BD00C0004070B50123EC
:103CC00083400E4ABFF35B8FDC4352E8001F01EADA
:103CD000040542E80056002EF7D1BFF35B8F4FF486
:103CE000803282400648C0F80823BFF35F8FBFF3DD
:103CF0006F8F0B4214BF0120002070BD30090020DF
:103D00000010014070B40E49D1E90034D01AC31834
:103D100044F1000422F07F46C1E90034A6F5001307
:103D2000B3F5400F09D2074B1B681A0A1B069C19F2
:103D3000054B42F10005C3E9004570BC03F036B8FD
:103D400050060020340900205806002011B3BFF3AC
:103D50005B8F0123104A834052E800CF4CEA030CEA
:103D600042E800C10029F7D1BFF35B8F0B4A4FF443
:103D700080338340C2F80433094BBFF35B8F1B6869
:103D8000BFF35B8FC340DB0742BF064B4FF40032EB
:103D9000C3F80021704700BF300900200010014027
:103DA0002C09002000E100E00D4B1868010A000614
:103DB000BFF35F8F0B4BD3F80435181841F10001A6
:103DC000B3F5801F0AD2084BD3E90023904271EB70
:103DD000030303D210F1807041F10001704700BF6E
:103DE0003409002000100140580600202DE9F74F4B
:103DF00016461F460446FFF761FF0090FFF7D4FF09
:103E0000B04271EB070351D23A4B301A67EB010114
:103E1000984271F100016AD2374B03EB0413D3E9E6
:103E200002239F4208BF96424ED034494FF4803956
:103E300004F1500509FA04F9AD00C1F84893204691
:103E4000ADB203F0ECFE26F07F4B05F1804504F5A2
:103E5000A8732B4A019305F58835DC464FF0030A19
:103E6000019B2CF07F4041F82300C1F84493D1F826
:103E700004856FF00200A0EB0800604420F07F4052
:103E8000904221D9286860B1D1F80485A8EB0B00D5
:103E900020F07F40B0F5000F16D9204603F0BFFE9A
:103EA000174A0AEB080C0AF1010AD9E70123154A5F
:103EB000BFF35B8FA34052E8000F184342E80001B4
:103EC0000029F8D1BFF35B8F0B490C98230101EB5C
:103ED0000412C2E90267C8500D9B536000252046BA
:103EE0000099FFF733FF284603B0BDE8F08F6FF06D
:103EF0001505F4E701008000400600200010014095
:103F0000FDFF7F002C09002073B5194B194D0024CB
:103F10004FF0FF304FF0FF31C5F80845C3E902010B
:103F20004FF48033C5F80433134B02264FF40032AC
:103F30000121C5F804631120C3F880212246FEF751
:103F400039FD1120FEF706FD0C4A0123AB602B6002
:103F500013600B4B0B4A0093019400232046FFF79C
:103F600045FF3046FFF7A6FB204602B070BD00BFFC
:103F7000400600200010014000E100E03009002070
:103F8000053D0000FFFF7F002DE9F7432B4CD4F8DF
:103F9000043399070BD5D4F8043143B1284A0023E0
:103FA000C4F80431D4F80431136801331360D4F831
:103FB0000433DA0323D5BFF35B8F224B53E8002F82
:103FC00022F0010143E800100028F7D1BFF35B8F16
:103FD000D30702D4D4F840318BB10025C4F8405146
:103FE000D4F84031FFF7E0FEEFF3108272B6164BC3
:103FF000D3E90267B042B94104D282F3108803B01A
:10400000BDE8F0834FF0FF384FF0FF39C3E9028974
:10401000D3E900101D604FF48033C4F84833C4F86E
:104020004051D4F8403182F310880029E7D0009045
:1040300032463B4628468847E1E700BF0010014072
:10404000340900202C09002040060020431C13B531
:1040500022D0012822DD124A124B9042D4BF0446DE
:104060001C46FFF7A1FE104B0E49D3E90023801A2E
:10407000B0F5000F28BF002404448C4228BF0C4632
:10408000A2180A4900914FF00000019043F100038B
:10409000FFF7ACFE02B010BD024CE2E70124E0E7FE
:1040A000FEFF7F00FFFF7F0050060020053D00005F
:1040B00008B5FFF779FE024B1B68C01A08BD00BFA8
:1040C000500600207FB5FDF79BFE074B05930223AA
:1040D00004930648002304AA4FF48251FDF770FFB1
:1040E0000020FFF7BBF900BFC78D0000548400001B
:1040F0000B4B0C4A1B7AC2F81035042B0DD8DFE8A5
:1041000003F008030C080300074BA0221A600120EB
:104110007047054B4FF49672F8E70020704700BFD8
:104120002C0A00200010004040090020044A00230F
:10413000C2E908339362034AC2E9083393627047C5
:10414000F8090020CC09002010B5FCF7C3F80C4C8E
:104150000C490D48FCF7B8F840F21713C4F80032C8
:104160000A4A0B4B507C1B6898470A4BC4F804352D
:10417000094B0A4A1A600A4B04221A7010BD00BF8C
:1041800000100040340000201C8600002C0A002093
:1041900038090020F20D00203C09002029450000CC
:1041A000360E002008B5084B1B6801221A61FCF787
:1041B00085F8FCF78FF800F059FD0320FCF772F842
:1041C000BDE80840FCF774B86000002007B50B4B51
:1041D0000B48DA7C90F90A00002302F5166201A967
:1041E000FCF78AF80DF10500FCF780F89DF8042033
:1041F000044BC3F80C2503B05DF804FB4C00002011
:104200002C0A00200010004010B5064C064920463C
:1042100003F015FDC1F82405201D03F010FDC1F8C1
:10422000280510BD540000200010004008B50749C3
:104230000748FCF749F838B900F0FCFC054B1B684F
:1042400040F20442C3F8002208BD00BF3400002041
:104250001C8600006000002038B51B4B1B4C1B68FF
:1042600001251D6100F002FDFCF728F8FCF720F89D
:104270000021284600F07CFD40F21313C4F8003200
:10428000134A144B507C1B689847134BC4F80435F1
:104290000023C4F81031D4F810312561D4F810315E
:1042A000002BFBD00021C4F81011D4F8103140F2DB
:1042B0001713C4F80032012000F0EEFCFFF7B6FF40
:1042C000064B01229A6138BD6000002000100040BA
:1042D0002C0A002038090020F20D00200040014087
:1042E0002DE9F041224B234F1A78012A80460E46D1
:1042F00030D13B78C3F3050203F03F03202B34D8C1
:104300001D4B196A53F821301A701B4C1B49236A44
:1043100054F8230010F8052B03F05EFB236A184ABB
:1043200054F8235085F80180D2F848252E710133C6
:1043300002F07F02082BAA707A7828BF002323623C
:10434000A36AD24302F001020133EA70A3620120A2
:10435000BDE8F081084A116A52F82120597809B95C
:104360001170D2E75B7C1370CFE70020F0E700BF4D
:104370002C0A0020F20D0020CC090020F40D0020B2
:1043800000100040837842781B0443EA022302783D
:104390001343C27843EA0253027943EA82534279D3
:1043A00043EA0263827943EA8263C27943EA427351
:1043B000094AC2F81435837A417A1B0443EA01237F
:1043C000017A0B43C17A43EA0163017B43EA41630B
:1043D000C2F81835704700BF001000401FB50446F2
:1043E0000D220021684603F002FB0A4B00930A4BA2
:1043F0005B7CE0B2013B8DF808008DF809008DF878
:104400000A30684601238DF80B30FFF7BBFF04B07C
:1044100010BD00BF000101004C0000201FB50023AB
:10442000CDF80930CDF80130CDF8053003238DF8F3
:10443000023006238DF8003001238DF80B30074B36
:104440005B7C013B8DF80A30684620238DF80830EC
:10445000FFF798FF05B05DF804FB00BF4C0000209B
:10446000684620F007018D4601B50C4BD3F80423B4
:10447000D2060BD5D3F8102142B10022C3F8102187
:10448000D3F81031064B1B6803B19847FEF7ACFA1E
:10449000FEF78EFBBDE801408546704700100040E6
:1044A0003C090020684620F007018D4631B51B4BC2
:1044B00082B01B6801934FF04003EFF3118183F347
:1044C0001288BFF36F8F164B00221D681A6081F3AC
:1044D0001188BFF36F8F134C2368ABB1E90703D585
:1044E0008DF8002068469847AA0705D501238DF866
:1044F00000306846236898476B0705D502238DF87E
:104500000030684623689847FEF76EFAFEF750FBC6
:1045100002B0BDE831408546704700BF4409002025
:1045200048090020280A00202DE9F84F7B4AD2F8DC
:10453000007417F0010703D1BDE8F84FFFF78CBEF8
:10454000DFF8DCA1DAF82830072BF5D8D2F80834E8
:10455000744DDFF8D491D2F80C4499F80120DBB205
:10456000C2F3410135F8230084424FEA830640F04C
:10457000AB80A8198078814240F0A680B846002719
:10458000AA196A4C9170654AD2F80C2425F82320A8
:10459000A37C23B199F80130DB0740F1BC80FBF725
:1045A0008DFE63496348FBF79BFE5C4B40F21B1298
:1045B000C3F8002294F800B05F4CBBF1000F00F08C
:1045C0009B80BBF1010F55D1DFF870C1D3F80814FF
:1045D000DCF82830002B00F085805948C9B250F82B
:1045E0002120002A7ED0DFF85CB1D2F800E0CBF8C1
:1045F00000E005EB060E9EF803E0BEF1000F17D0B9
:10460000B8F1000F14D182F8048050F82120013B4A
:10461000926840F82120CCF82830002B57D002B106
:104620001268CBF80020484A136843F00103136076
:10463000464BDBF800801A68AB19B8F1000F48D080
:104640000121D97098F800009047DBF8001023781A
:104650000A783F4862F30503237011F8052B03F035
:10466000BBF9637899F8012023F0070302F00702F1
:1046700013436370374B05221A70FFF7A7FD274BD2
:10468000D3F80824D2B2C3F82C25C3F80445324B22
:10469000324A1A60B7B1214BD3F80804DAF828304F
:1046A0003544072BA9780DD8C0B2FFF719FE48B1E1
:1046B000254A136843F004031360294B4FF480121A
:1046C000C3F80021BDE8F88F4FF0000858E74246D4
:1046D000A7E783F8038040469047237868F30503F3
:1046E0002370BEE7AB194FF0000883F80380174B27
:1046F00040461B689847F0E7144B58461B6898479C
:1047000099F80030227884F801B0C3F3010363F311
:1047100001022270AEE7FFF79FFDBBE700100040EB
:10472000CC0900203E0B0020F20D00202C0A0020B6
:104730003400002004860000140E0020F809002038
:104740004C090020240A00204809002038090020D4
:10475000160E0020360E00203C09002049410000C2
:1047600000E100E010B500F0CFFBFFF71BFD1048A3
:1047700001F064F900F0F8FB0E4B0F4800241C70A8
:104780000E4B21461C70FFF7D1FC202203F02FF9BD
:10479000214608220A4803F02AF90120FEF7E8F82A
:1047A0001420FEF7E5F8BDE810400A20FEF7E0B857
:1047B00060000020360E00203E0B0020370E002047
:1047C000EA0D0020F0B587B0044600AF002800F0E5
:1047D000E380734D2B780BB1FFF7C4FF714B724E22
:1047E00062681A6021461422304603F0F5F800246E
:1047F0006E4B6F481C602022214603F0F8F8082217
:1048000021466C4803F0F3F8FFF772FC33786A49ED
:104810007BB1012B01D1694B0B60727A684B012A85
:104820006FD0022A07D07AB9C3F83C25C3F83425E3
:1048300008E0644BF0E74FF6FF70C3F83C05C3F89F
:104840003425614AC3F838250B68707C98475C4B67
:104850005E485F494FF0E732C3F81C254FF0433202
:10486000C3F820255B4AC3F824255B4AC3F82825F2
:10487000FFF75CFC024600230133082B41F8042BB0
:1048800002F12502F8D1554A554900230133082B7E
:1048900041F8042B02F12502F8D10021514A0B46C0
:1048A0000131082910601371936000F1250002F1B5
:1048B0000C02F5D14C4A4D48C2E90033C2E902333B
:1048C000C2E90433C2E90633C7E9003304233B706D
:1048D000474A394601F05CF8464B984219D100F03E
:1048E000A5FA0446002836D0434B7B6102233B6186
:1048F0004248002307F110024FF48251FDF760FB9C
:1049000025E0FF20C3F83C05C3F8342540F2071228
:1049100098E76C4688B06A46394BC2E905300323F4
:1049200042F8103F354800234FF4C251FDF748FBD1
:10493000A546344B7B6102233B613048002307F1DD
:1049400010024FF482516FF00D04FDF739FB204641
:104950001C37BD46F0BD00F0D3FA2B4B0121586047
:1049600022460846FEF726F8224602211420FEF7CA
:1049700021F8224602210A20FEF71CF80120FDF74B
:10498000E9FF1420FDF7E6FF0A20FDF7E3FF1F4BC8
:104990001C7001232B70DAE76FF01504D7E700BF16
:1049A000370E0020280A00202C0A00204809002089
:1049B0003E0B0020EA0D0020380900201D440000B5
:1049C00000100040DD43000021100100C20C002057
:1049D000F8090020E743C323A363E3139A0B0020E5
:1049E000CC0900206C0900204C0900206000002048
:1049F0005D7C00000000AD0B338E0000448400009D
:104A0000E48D00000D8E000034000020360E0020E2
:104A100038B5254B1B78002B3DD000283ED0234CC9
:104A2000A36A002B3DD04FF04003EFF3118583F3D1
:104A30001288BFF36F8F636A54F823301A780270BC
:104A4000636A54F823305B784370636A54F8233008
:104A500093F902308370636A54F823301B79037131
:104A6000636A54F82330DB78C370636A54F8231008
:104A70000530053102F0B0FF636A0133082B28BF0F
:104A800000236362A36A013BA36285F31188BFF32D
:104A90006F8F002038BD6FF00C00FBE76FF0150042
:104AA000F8E76FF03C00F5E7370E0020CC09002056
:104AB00038B5234B1A7802F0FF05002A3CD1214C6F
:104AC00021494FF0FF32C4F80823C4F81051D4F83C
:104AD00010211E4A116040F21712C4F80022102261
:104AE000C4F8042304221A70194B9A7CC4F83025A8
:104AF000DB7CC4F80835174BC4F80435164B02228A
:104B0000C3F880210120FDF725FFC4F80451D4F833
:104B10000431C4F80851D4F80831C4F81051012008
:104B20002946D4F8103100F0B7F8FFF77FFB0B4BA4
:104B300001229A61284638BD6FF00F00FBE700BFE5
:104B4000360E002000100040294500003C090020DE
:104B50004C000020F20D002000E100E00040014088
:104B600010B50D4B1B78014603F0FF046BB978B10B
:104B700004220A4802F030FF084803F060F8084BAE
:104B800000BAC3F81C05204610BD6FF00F00FBE70C
:104B90006FF01500F8E700BF360E00204C00002033
:104BA0000010004010B50D4B1B78014603F0FF04C8
:104BB0006BB978B104220A4802F00EFF084803F0EE
:104BC0003EF8084B00BAC3F82005204610BD6FF030
:104BD0000F00FBE76FF01500F8E700BF360E00206E
:104BE000500000200010004038B50F4B1B780C46D9
:104BF00003F0FF0593B9A0B1082912D80A4601466F
:104C00000A4802F0E9FE0A4AFF231474C4F10804BA
:104C100023419374FFF7F8FA284638BD6FF00F0070
:104C2000FBE76FF01500F8E7360E00205400002077
:104C30004C000020094B0A491A78D30003F1804345
:104C400003F5F833C3F810150649C3F8141501230A
:104C50009340054AC2F80435704700BF3A0E002061
:104C60001841014000A0004000F00140084B0949F4
:104C70001B7801229A40DB0003F1804303F5F833EF
:104C8000C1F808250022C3F81025C3F81425704781
:104C90003A0E002000F00140F0B52B4B2B4C1B7856
:104CA0002B4FDA0014442B4A0025C2F81851D2F8D1
:104CB0001821294A15788000EA00C0B202F180422A
:104CC00002F5F83200F1804000F58050C2F810750E
:104CD000C2F81405214A05F5117042F82040204A17
:104CE00020481678F20002F1804202F5F8320124E1
:104CF000C2F8100500F5973000F58470C2F814056D
:104D000004FA06F604FA05F0304369B1164A174E64
:104D10001178CA0002F1804202F5F8328C40C2F8E4
:104D200010752043C2F814659B0003F1804303F51E
:104D3000F8330122D3F80018AA400A43C3F8002828
:104D4000064BC3F80405F0BD380E002004F0014006
:104D500018410140004001403B0E002000F001409E
:104D6000390E0020101100403A0E002000A0004033
:104D7000F0B5294B294E1878294B1A78012404FAEA
:104D800002F304FA00F51D4300F51177C3004FEA62
:104D9000C20C19BB03F1804303F5F833C6F808557C
:104DA000C3F81015C3F8141546F827100CF180430A
:104DB00003F5F833C3F81015C3F81415194B1B7815
:104DC0009B0003F1804303F5F8330121D3F8002859
:104DD000814022EA0102C3F80028F0BD124A12788D
:104DE00003F1804303F5F833944000212C43C6F8C7
:104DF0000845C3F81015C3F814150CF1804303F5EA
:104E0000F83346F82710C3F81015C3F81415D3006B
:104E100003F18043CCE700BF3B0E002000F00140CF
:104E2000390E0020380E00203A0E0020B0B5294877
:104E3000294D00AF00F07EFDA842044636D1274838
:104E400000F078FDA842044630D1254800F072FDFC
:104E5000A84204462AD1234800F06CFDA84204462B
:104E600024D1214800F066FDA84204461ED11F4807
:104E700000F060FDA842044618D11D4800F074FD02
:104E8000A04224D06C4688B06A461A4BC2E905306D
:104E9000032342F8103F184800234FF4C251FDF796
:104EA0008FF8A5466FF01200BD46B0BD6D4688B0C4
:104EB0006A46124BC2E90534032342F8103F0E48FC
:104EC00000234FF4C251FDF77BF8AD46EAE700201E
:104ED000EAE700BF3B0E00200000AD0B390E0020BA
:104EE0003A0E00203E0E00203D0E00203C0E002019
:104EF000380E00204C8E0000448400006E8E0000AE
:104F00000048704710110040104B11491B78097878
:104F1000012202FA01F102FA03F30B430D49097869
:104F200002FA01F10B430C49097802FA01F10B4333
:104F30000A49097802FA01F10B43094909788A40C4
:104F40001343084AC2F80835704700BF3B0E0020E3
:104F5000390E00203A0E00203E0E00203D0E0020AB
:104F60003C0E002000F0014038B5184B187800F0D6
:104F7000E7FC174B9842044627D1164B187800F0EF
:104F8000DFFCA042054620D1134B187800F0D8FC76
:104F9000A842044619D1114B187800F0D1FCA04268
:104FA000054612D10E4B187800F0CAFCA842044600
:104FB0000BD10C4B187800F0C3FCA04205D10A4B72
:104FC0001878BDE8384000F0D5BC38BD3B0E002055
:104FD0000000AD0B390E00203A0E00203E0E0020DE
:104FE0003D0E00203C0E0020380E0020024AD2F870
:104FF0000034002BFBD0704700E0014010B54FF0AB
:105000008053D3F83021102A55D14FF0804100222F
:10501000C1F80C21C1F81021C1F838254A4AD3F84B
:105020000404C2F82005D3F80804C2F82405D3F814
:105030000C04C2F82805D3F81004C2F82C05D3F8E4
:105040001404C2F83005D3F81804C2F83405D3F8B4
:105050001C04C2F84005D3F82004C2F84405D3F874
:105060002404C2F84805D3F82804C2F84C05D3F844
:105070002C04C2F85005D3F83004C2F85405D3F814
:105080003404C2F86005D3F83804C2F86405D3F8D4
:105090003C04C2F86805D3F84004C2F86C05D3F8A4
:1050A0004434C2F87035D1F80034DB0709D56FF00D
:1050B0000103C1F800344FF08053D3F83031102B86
:1050C00010D14FF08053D3F83431032B02D81F4A4C
:1050D000D35C3BB14FF01023D3F808224FF080434C
:1050E000C3F858254FF01023D3F80022002A03DB21
:1050F000D3F80432002B22DA154901234FF0102097
:10510000C1F804351224FFF771FFC0F80042FFF721
:105110006DFFC0F80442FFF769FF0023C1F80435B2
:10512000FFF764FFBFF34F8F0A490B4BCA6802F4C5
:10513000E0621343CB60BFF34F8F00BFFDE7074B27
:10514000074A1A6010BD00BF00C00040928E0000E8
:1051500000E0014000ED00E00400FA0568000020D6
:105160000090D00370B501250268BFF35B8FB2FADF
:1051700082F3C3F11F03DBB205FA03F422EA04044D
:1051800050E8006F964204D140E8004CBCF1000F9B
:10519000F6D1BFF35B8FE7D101480B7070BD00BF44
:1051A0000000AD0B10B50368CB40DB0714D401231E
:1051B0008B400268BFF35B8F43EA020150E8004F67
:1051C000944204D140E8001CBCF1000FF6D1BFF3BB
:1051D0005B8FEED1014810BD0148FCE70000AD0B2C
:1051E0000400AD0B054B1A792AB95A7101221860D7
:1051F0001A71034870470348704700BF400A0020F7
:105200000000AD0B0C00AD0B4FF08043D3F80C2425
:10521000D3F80C14C80316D5D10714D5D3F8182425
:10522000D20310D50A494A7902F0FF006AB9C3F8DF
:105230000C01D3F80C2107480822C3F804230122EB
:105240004A711A617047044870470448704700BFAC
:10525000400A00200000AD0B0500AD0B0B00AD0BAC
:1052600010B54FF08043D3F8002152B10020C3F8AD
:105270000001D3F800210122C3F80823164B1B6854
:1052800098474FF08043D3F804215AB10022C3F865
:105290000421D3F804210222C3F808230E4B012075
:1052A0001B6898474FF08043D3F80C2192B1D3F894
:1052B000042312070ED50022C3F80C21D3F80C11D9
:1052C0000821C3F80813044B5A71BDE810401B684D
:1052D0000320184710BD00BF400A0020034B0830D0
:1052E00033F81000C0F34010704700BF6C0000207E
:1052F00070B500F108030C4C34F81330DA0505469C
:105300000E4607D5C3F3432304EBC30254F83330EE
:1053100052689847A3682BB1E26831462846BDE839
:105320007040184770BD00BF6C00002010B4124AD6
:10533000083032F81030D9051BD5C3F3432123F4CC
:10534000F85322F8103002F10E04002034F8023F26
:1053500013F4807F03D0C3F34323994209D0013073
:105360002028F3D1002342F83130044810BCFFF765
:1053700019BF10BC704700BF6C000020C0000020A7
:1053800038B50246FFF7AAFF094C02F1080540B103
:1053900034F8153007495B0B03F5A273002041F880
:1053A00023001046FFF7C2FF002324F8153038BD54
:1053B0006C000020006000402DE9F34104461D46CA
:1053C00009B34F4F00F1080837F81860B30706D546
:1053D000FFF784FF18B14B4802B0BDE8F08104F03C
:1053E0001F039B0003F1A0430978D3F8000726F0C0
:1053F000020620F00F0046F0010640EA810127F87E
:105400001860C3F800179AB13D4B1778506804F143
:10541000080633F8161011F0020F0DD00028DAD16B
:1054200033F8162022F01C0242EA870223F81620E5
:10543000002D3BD13448CFE721F02001C904C90C2D
:1054400023F816100028EBD0032FC4D8526892F826
:1054500000C02FB92D4A0CF5A27C42F82C70DFE772
:105460004FEA8C0202F1804202F5C04241EA4C311F
:10547000D2F8100520F00300C2F81005D2F810058C
:1054800020F4473020F44070C2F810052002D2F812
:1054900010E500F4F85040EA074040EA0E0041F001
:1054A000200123F81610C2F81005B9E7D5E9006706
:1054B0002046FFF73BFF002EBCD0114DD5E900235D
:1054C000964201D19F4219D011480DF10701FFF713
:1054D00049FE0D4B98427FF47FAF9DF8072045F8B9
:1054E000326005EBC20308345F6035F8143043EADC
:1054F000422343F4807325F814309BE70022EEE743
:105500006C0000200400AD0B0000AD0B00600040FB
:10551000C0000020F8B5044689B33A4E00F10807F0
:1055200036F81750AB0704D4FFF7D8FE08B1364859
:10553000F8BD15F01C0F4B7824D104F01F0000F5C6
:10554000E07E4FF0A04C5B005CF82EC091F802E0CA
:1055500009782CF4E16C43EA8E032CF0070C43EA43
:105560000C0343EA012300F5E0704FF0A04143F043
:10557000010345F0030541F8203026F8175022B901
:105580002248D5E7012BD8D1D1E71E4E04F10807F8
:1055900036F817008307CAD592F800C06146890023
:1055A00020F0200001F18041C00401F5C041C00C91
:1055B00026F817000023C1F810355578002DDFD0EC
:1055C000D1F81035927823F4981323F4F853C1F8E6
:1055D0001035D1F810E5230203F4F8532D0443EA03
:1055E0000E0305F4403512052B4302F4801240EA05
:1055F0004C30134340F0200026F81700C1F8103556
:10560000BEE700BF6C0000200400AD0B0000AD0B36
:10561000014BC3E9020170476C00002008B5024647
:10562000FFF75CFE38B1054B0548083233F81230FD
:105630005B0B0B7008BD0348FCE700BF6C0000204B
:105640000000AD0B0400AD0B38B50F4C94F858506A
:10565000BDB94022294604F1100002F0C8F9062025
:10566000FDF778F9094B0A48C3F87C51D3F87C213F
:105670004FF00042C3F80423012384F858306365D7
:1056800038BD0448FCE700BF6C000020006000400B
:105690000000AD0B0500AD0B034B93F8580000382C
:1056A00018BF0120704700BF6C0000200146014870
:1056B000FFF778BDBC00002001460148FFF752BD4E
:1056C000BC00002010B50246FFF708FE02F10804F6
:1056D0001C4B33F81430E0B113F0020419D15B0B0A
:1056E0009A0002F1804000F5C24002F1804202F5CA
:1056F000C04204600068D2F8100540F00100C2F812
:10570000100529B1012202FA03F30F4AC2F804334B
:1057100010BDC3F38203042B10D0052B10D04FF023
:10572000A043D3F8101502F01F03D94001F0010186
:105730000231BDE81040104602F03ABB0321F8E701
:105740000221F6E76C0000200060004008B5024628
:10575000FFF7C4FDC0B102F108010E4B33F8113060
:10576000990711D45B0B01229A409B000A4903F16F
:10577000804303F5C043C1F80823D3F8102522F075
:105780000302C3F8102508BDBDE8084000211046FB
:1057900002F00EBB6C0000200060004010B50D4B05
:1057A00000F10802044633F81230DB070FD5FFF78B
:1057B000CDFF204604F01F04FFF7E2FD04F5E0747E
:1057C0004FF0A043022243F82420034810BD0348B1
:1057D000FCE700BF6C0000200000AD0B0400AD0B27
:1057E0002DE9F74F4F4B50485049002501222C46D8
:1057F0001E6836B1D0F8046316421EBF1C601E68D6
:10580000154304338B424FEA4202F1D1464BD3F8A1
:105810007C31BBB14FF0A046D6F820350193C6F8D5
:10582000203501AF4FF00108019C8CB93E4BC3F805
:105830007C41D3F87C31D6F820350193C6F8203569
:10584000002BEED10124002D53D103B0BDE8F08F21
:1058500094FAA4F4B4FA84F4354A04F10803E00895
:1058600032F813103B5C04F0070208FA02F223EA54
:1058700002033B54A30003F1A049C1F3820AD9F803
:105880000027CB06D346C2F3014218D5594620461D
:105890005FFA82FAFFF72CFDD9F80037C3F3014312
:1058A0009A4507D10021204602F082FA514620464F
:1058B00002F07EFA08FA04F4C6F82045B4E7022A9A
:1058C0000CD10321204602F073FA0AF00503012BE4
:1058D000F0D159462046FFF70BFDEBE702212046A9
:1058E00002F066FABAF1030FF3D0032AE2D18A4537
:1058F000EEE795FAA5F3B3FA83F304FA03F29B00FB
:1059000003F1804303F5C04325EA0205D3F81005EF
:10591000D3F81015C0F30420C1F30141FFF7E8FCF0
:1059200091E700BF0061004000600040206100403E
:105930006C00002001460148FFF714BCCC00002099
:1059400001238340C3F3130201462AB1034A0448EA
:10595000C2F80835FFF726BC0248704700F0014046
:10596000CC0000200400AD0B01460148FFF7FABB54
:10597000C8000020C30003F1804303F5F83301227F
:1059800001465A600148FFF70DBC00BFC800002067
:10599000F8B50779204E0D460C217943044670185E
:1059A000037A002B35D172506A6842609C46617957
:1059B0002068DAB2914224D840F30730FCF7CAFFDE
:1059C00021686B78D1F80425144822F0030203F013
:1059D00003031343C1F804352168AB78D1F80825D7
:1059E00003F0030322F003021343C1F808352368D0
:1059F0002A78C3F810250C2303FB076601233372B2
:105A0000F8BD920002F5A072013340F802C082583E
:105A1000CDE70348F4E700BF480A00200000AD0BC3
:105A20000500AD0B036801221A610179024B0C20BD
:105A300000FB01331A727047480A002038B504464B
:105A4000006840F30730FCF793FF23680025D3F884
:105A50000022C3F8005223684FF0FF32C3F8082336
:105A60002046FFF7DFFF2279024B0C2101FB0233B6
:105A70001D7238BD480A00202DE9F0410F4C104F2F
:105A8000104E00254FF4803823687BB1D7F80433DB
:105A900008FA05F21A4209D000232360236833680C
:105AA00023B104F5C040716880B298470135042DD8
:105AB00004F10404E8D1BDE8F08100BF40A100403A
:105AC00000A00040480A002010B5114C114A1249AC
:105AD000032323616361114BA261E3614FF480638F
