:1000000000190020712B0000FB690000452B000047
:10001000452B0000452B0000452B00000000000090
:10002000000000000000000000000000C5240000E7
:10003000452B00000000000071240000452B00004B
:1000400075250000D93C00007525000075250000CD
:100050007525000075250000752500007525000038
:100060007525000075250000AD6C000075250000A9
:100070007525000075250000752500007525000018
:100080007525000075250000752500007525000008
:10009000493D00007525000075250000752500000C
:1000A00075250000752500007525000075250000E8
:1000B00075250000752500007525000075250000D8
:1000C00075250000752500007525000075250000C8
:1000D00075250000752500007525000075250000B8
:1000E00053B94AB9002908BF00281CBF4FF0FF319F
:1000F0004FF0FF3000F00CB8ADF1080C6DE904CE04
:1001000000F008F8DDF804E0DDE9022304B07047F0
:10011000704700BF2DE9F04F07468C460846099E00
:1001200015463C461946002B40F0C6808242B2FA82
:1001300082F746D94FB1C7F1200E24FA0EFE00FA1D
:1001400007F3BD404EEA030CBC404FEA15481FFAC6
:1001500085FEBCFBF8F9220C08FB19C309FB0EFA5B
:1001600042EA03439A4528D9EB1809F1FF3004D23B
:100170009A4502D9A9F102002B44A3EB0A03A4B2C9
:10018000B3FBF8F208FB123302FB0EFE44EA034411
:10019000A64514D92C1902F1FF3303D2A64501D983
:1001A000931E2C44A4EB0E0443EA00401EB1FC4015
:1001B000002334607360BDE8F08F4846DDE71346E6
:1001C000F0E702B9FFDE87BB831A01214FEA154E23
:1001D000AAB2B3FBFEFC200C0EFB1C330CFB02F896
:1001E00040EA0343984563D9EB180CF1FF3004D281
:1001F000984502D9ACF102002B44A3EB0803A4B24A
:10020000B3FBFEFC0EFB1C330CFB02F244EA03447E
:10021000A2424FD92C190CF1FF3304D2A24202D9C9
:10022000ACF102032C44A41ABEE7C7F1200C20FA5B
:100230000CF800FA07F324FA0CFCBD404CEA030268
:100240004FEA154EABB2B8FBFEFC110C0EFB1C8046
:100250000CFB03F941EA0040814504FA07F423D975
:1002600028180CF1FF3104D2814502D9ACF102010A
:100270002844A0EB090092B2B0FBFEFC0EFB1C0070
:100280000CFB03F842EA004398450FD9EB180CF138
:10029000FF3204D2984502D9ACF102022B44A3EB01
:1002A000080342EA014191E76146E2E76246F6E768
:1002B0006046A2E76346B6E7834205D90EB1C6E9B8
:1002C00000700021084676E7B3FA83F181B98342D2
:1002D00001D3BA420AD8BC1A60EB030301209C4642
:1002E000002E68D0C6E9004C002164E70846F7E715
:1002F000C1F1200C8B4022FA0CF41C4302FA01F5E8
:1003000000FA01F327FA0CF220FA0CFB4FEA144929
:100310001343BBFBF9F81FFA84FE09FB18BB1A0C48
:1003200008FB0EFA42EA0B42924507FA01F73ED962
:10033000A21808F1FF3004D2924502D9A8F10200B8
:100340002244A2EB0A029BB2B2FBF9F809FB182285
:1003500008FB0EFE43EA024296452AD9A21808F18C
:10036000FF3304D2964502D9A8F10203224443EA9E
:100370000040A0FB0593A2EB0E029A42CE4698469F
:1003800002D306D14F4504D2B9EB050E63EB040846
:10039000013886B1B7EB0E0362EB080707FA0CFCD5
:1003A000CB404CEA0303CF40C6E900379CE7404608
:1003B000C7E74346DBE73146FDE6000030B591B0C4
:1003C00000F07CF8074D084C06A800F0CBF802239B
:1003D00005950493002304AA4FF48651204606F0A5
:1003E000BFFAF1E74C760000707400002DE9F04789
:1003F00086B00578012D00AF16D0022D19D07DB939
:100400006C46274B88B06A465361264B93610323A1
:1004100042F8103F4FF4C851234805F06DFEA54641
:100420001837BD46BDE8F0876C4688B01F4B6A465A
:10043000EAE71F4C204603F039FE28BBE17A237B14
:1004400094F8009094F8058094F806E094F807C0BA
:10045000267A657AA07ADFF85CA06C4690B06A468E
:10046000C2E90E13C2F814A0DFF838A00C23C2E9C9
:1004700006A9C2E9088EC2E90AC6C2E90C504FF4C7
:10048000C24142F8103FC7E70B4B074807F1100283
:100490004FF48251C7E9045305F02EFEC0E700BFB8
:1004A000567600007E770000587400006B760000DE
:1004B000260B00207F760000DC76000030B54FF080
:1004C000E73291B04FF0C233CDE901231D4A1E4DF2
:1004D0001068516803AB03C31C460FCD0FC42B68D3
:1004E00023601A4A0692012305A88DF815308DF86D
:1004F000263003F09FFC044660B1154B0F9315485E
:1005000002230EAA4FF482510E9305F0F5FD20460A
:1005100011B030BD01A803F007FE044608B10E4B30
:10052000ECE702A803F022FE044608B10B4BE5E716
:10053000082103A803F03CFE04460028E7D0084B3E
:10054000DCE700BF68770000D0740000ED03000016
:10055000FA76000058740000117700002E77000032
:100560004B77000010B5064B024603F1240153F807
:10057000044B42F8044B8B42F9D11B78137010BD29
:10058000260B00202DE9F04F8DB01F46169B0292DE
:10059000009302F00403C2F3C2020193531C8207CA
:1005A00005460E46049340F02182041D002840F0C9
:1005B000208201F00706341DC6F108064FF0000A3C
:1005C0004FF004087B1ECDF80CA05246D1464146A0
:1005D00005B127600498002807DCCB488742C0F0AB
:1005E0004181CA48874280F03D81029810F0020E96
:1005F00000F051814FF0010C601BBEF1000F00F0C4
:100600003781B0F5007FC0F033816FF01500FEE058
:10061000B9F1000F08D1252840F041814FF00109C0
:100620004FF0040841463AE12B2825D81F2802D86C
:100630004FF0000933E1A0F1200CBCF10B0FF7D80B
:100640000FF2040E5EF82CF09F0800003106000047
:10065000310600009F08000031060000310600004E
:1006600031060000310600003106000031060000AE
:100670002F0800009F080000A0F12D0C5FFA8CFEEF
:10068000BEF14D0FD4D8BCF14D0FD1D80FF2040EEE
:100690005EF82CF09F0800009F0800003106000063
:1006A0009F0800009F0800009F0800009F080000AE
:1006B0009F0800009F0800009F0800009F0800009E
:1006C0009F0800009F08000031060000310600006E
:1006D000310600003106000031060000310600003E
:1006E00031060000EB070000310600003106000073
:1006F00031060000EB070000EB070000EB070000ED
:10070000310600003106000031060000310600000D
:100710009F0800003106000031060000310600008D
:1007200031060000310600003106000031060000ED
:1007300031060000310600003106000031060000DD
:10074000CD07000031060000310600003106000030
:1007500031060000310600003106000031060000BD
:1007600031060000EB07000031060000CD07000055
:10077000CD070000EB070000EB070000EB070000CF
:100780009F080000CD0700001F0800003106000090
:100790009F0800003106000025080000CD0700007A
:1007A0002508000031060000310600002508000081
:1007B00021060000CD0700003106000031060000D0
:1007C000CD070000310600002106000013F801CC1F
:1007D000BCF16C0F29D113F8021C6C294FF00009F1
:1007E0003DD04FF00408414621E0009800F1070B8E
:1007F0002BF00700F0E802890734009024F007048A
:1008000055B105982044B04204D96FF01B000DB0DB
:10081000BDE8F08FC4E9008908344FF000094FF0BB
:100820000808FFE64FF00009DBE74FF00009013C44
:100830004444C8F1000C04EA0C0425B1A1EB050CFA
:10084000A444B445E1D8732852D10498DDF800B02F
:1008500001385BF8047B0490CDF800B0B8E64FF0A7
:100860000808C0E702984FF0000C00F0020EC3E643
:100870000F2A3FF6CAAE45B30DF1300EC0F3870024
:100880009644BCF1000F1AD060F07F000EF8100CF7
:100890000AF1010A0132C5F108000434059013F889
:1008A000010F00287FF4B4AE611BB1F5806FBFF477
:1008B000ACAE002D3ED1A6F108046018A7E70EF8F3
:1008C000100C039801300390E4E7BCF1000F01D154
:1008D000019808B10136DDE73846CDE906120593E7
:1008E00006F09FF80236DDE90612059B0644D1E7C3
:1008F00004290DD1009800F1040C0DB100682060AE
:100900000434CDF800C0CAE770720000E47D000036
:1009100008297FF47AAE0098073020F0070000F134
:10092000080CCDF800C01DB1D0E900BCC4E900BC82
:100930000834B4E7019B2860890829709DF80C10E1
:10094000A3B16870E97085F802A0BAF1000F06D073
:1009500008A84FF0000CC5F1010E62450AD10DF157
:10096000200808EB0209C5F1010B39E0019B697011
:10097000EB70E8E710F8011B0B0608D504EB0E0836
:10098000B04501F07F013FF640AF04F8011B0CF1C8
:10099000010CE2E7BAF1000F03D098F90020002A19
:1009A0001CDB019B03BB98F8002055F8227045F82A
:1009B0002230384606F035F8421C04EB0B01114496
:1009C000B1423FF622AF98F8001004F8011B3946F7
:1009D0002046009206F035F8009A144408F1010808
:1009E000C145D7D1601B12E70022E6E76FF00D008A
:1009F0000DE707293FF6E2AD07E700BF2DE9F04F0D
:100A00008BB00646DDF850B0049314460F46B1B1E2
:100A1000B578059535BBAA46F378019313B11BF061
:100A2000020F22D1BAF1000F1FD124B13A4631464C
:100A3000204606F006F838460BB0BDE8F08F90F877
:100A40000190B578007805EB800535448A46CA45A3
:100A5000DED20135284605F0E4FF013005440AF1F5
:100A6000010AF4E70BF0010AD6E796F800904FEA86
:100A70008903039306EB8909002C5BD1BAF1000FBF
:100A800032D04D444D451DD1A946DDF804A0DFF814
:100A900004C281490BF005084D46CA440BF002021E
:100AA000AA45C8D015F8010B56F82000604524D39C
:100AB000884222D21BF0010F39D1B8F1000FEFD1DB
:100AC000013FEDE719F8013B56F8230005F0A9FFB7
:100AD000159B013033B1169B9C423EBF159B23F8FA
:100AE000140001340744CDE72DB11BF00404CCD031
:100AF000A9445446C9E72C46C7E7002AD0D04FF096
:100B00000009019205F08DFF159BDFF888C1019A5D
:100B10006149013033B1169B9C423EBF159B23F8BF
:100B2000140001340744B9F1000FB9D0C5E74FF004
:100B30000109E6E7039A3146204605F082FF039B50
:100B4000E3180293BAF1000F0AD049462A4606A8D4
:100B500005F077FF0023A370A944DDF808800DE0BD
:100B6000BDB11BF0040F14D02A464946029805F087
:100B700068FF029BA94403EB05085546019B0BF057
:100B8000020E0BF001004A4609EB030C0BF0040BBC
:100B900025E00025A570E0E712F8013BDFF8F4A09E
:100BA00056F82310514503D3DFF8ECA0514505D387
:100BB000BEF1000F03D108F8013B10E038B10DF190
:100BC000280A691C554405F8103CCDB207E0BBF17A
:100BD000000F04D008F8013BA3780133A3709445BB
:100BE000DAD16378019A2B446370029BA8EB030B64
:100BF000A378ABEB030B059B84F803B01344FF1AF7
:100C0000039BFF1A019B40463A4609EB0301B84497
:100C100005F017FFA8EB0400002D3FF40DAF049B77
:100C20001C1AA54202D36FF01B0005E74FF0000924
:100C300006AB159A13F8093056F82310C2B132F8F2
:100C40001970C24604F1FF3B0AF8013B97B13A46DE
:100C5000504605F0F6FE09F101094D45ABEB0704DE
:100C60000AEB0708E4DC049B1F44A7EB0B00E3E658
:100C7000159FE6E7013901239C42D4D011F8012FDA
:100C800008F80320581C12B91F1EE4DACBE703460C
:100C9000F2E700BF70720000E47D0000014B1860B5
:100CA000704700BF0000002030B585B0CDE90101DC
:100CB0000446002501A90548039500F0E9F8DDE99F
:100CC00002309842B8BF255405B030BD996100008C
:100CD0002DE9F84FB0F8189019F00808044693462B
:100CE0000DD001290CBF49F0100949F02009A0F8E6
:100CF00018908BF31188BFF36F8FBDE8F88F09F060
:100D00000709022907D1204605F073FA0028F0D020
:100D10000128238B4ED16769218B002F15DA2568B6
:100D200021F00701C4E9008841F001012183002678
:100D3000218B01F0070ACA4502D0A368002B5AD1C3
:100D40000DB9002E71D0002356E001F007035A1FA1
:100D5000012A1ED821F00701062B256889B2C4E9B3
:100D600000880AD13DB1638B2A46126801339BB2D9
:100D7000002AFAD1638341F002012183204605F065
:100D800038FA06460028D3D0238B43F02003238370
:100D9000CDE7042B0CD121F0070189B22183204635
:100DA00005F027FA05460028C1D041F02001218333
:100DB0000025BCE7032809D1226923F00703166840
:100DC00043F00603238300252F46B1E7042806D10C
:100DD000226923F00703566843F00403F2E705286D
:100DE00006D1226923F00703966843F00503E9E77B
:100DF00000252E46E8E7012341F0080121838BF30B
:100E00001188BFF36F8FFBB985BB16B11F49204610
:100E1000B0474FF02003EFF3118B83F31288BFF339
:100E20006F8F238B23F008032383238BDA0625D5CA
:100E300023F0100323830121B4F8189009F0070967
:100E400000297FF45EAF54E7A1680029DCD0D1F817
:100E50000090D1F804B03B4652462046D847B9F13D
:100E6000000FD1D04946D9F80090F2E729463B4619
:100E7000524620462D6805F0D8F9C5E713F0200149
:100E80001EBF23F0200323830221D5E75762000011
:100E90002DE9F04F91B08B46029092461C460025FA
:100EA0009AF8000008B928465FE325280AF10107EF
:100EB00007D0029B594698470028C0F25683013557
:100EC00012E2182200210AA805F0C6FD9AF80130A6
:100ED000252B78D000221046964694461646394671
:100EE00017F8013B2B2B00F09D8000F29480202B03
:100EF00000F09B80232B00F09B802EB19DF830608A
:100F000046F004068DF83060BCF1000F05D09DF866
:100F1000306046F008068DF83060BEF1000F05D055
:100F20009DF8306046F010068DF8306028B19DF8CD
:100F3000300040F020008DF830002AB19DF83020BC
:100F400042F040028DF830209DF8302002F044003D
:100F5000442803D16FF386128DF830209DF830209D
:100F60002A2B42F080028DF830207BD19DF8312071
:100F700042F001024B1C8DF831201A782E2A9DF880
:100F800031200CBF0121002161F341028DF8312095
:100F900074D15A782A2A6AD0013300210A261846C9
:100FA00010F8012BA2F13007092F40F28E809DF836
:100FB00030200E91C2F3400040EAD17161F341024A
:100FC0008DF830205AE00AF102078DF833309DF891
:100FD0003130D90740F1498154F8049BB9F1000F31
:100FE00007DA9DF8302042F004028DF83020C9F174
:100FF00000095A0740F1428154F8048BB8F1000F00
:1010000080F241819DF831306FF341038DF831302A
:101010004FF0FF3837E12D2B0CD0302B7FF46DAF24
:1010200001225CE74FF0010C59E74FF0010E56E743
:10103000012054E7012652E70CFB0202303A334606
:101040001E4616F8010BA0F13007092FF4D999427A
:1010500093D09DF830100D92D20F62F341018DF8BC
:1010600030108AE70B4600224FF00A0CE8E79DF8A3
:10107000312042F004028DF8312002331F4617F868
:10108000012B6C2A41D025D8682A2BD06A2A46D059
:101090004C2A4CD01F4617F8012B9DF831308DF8A3
:1010A0003320782A00F2D980572A4DD8412A03D01C
:1010B000453A022A00F2D1809DF83230042262F3D0
:1010C00002038DF8323001239EE006FB0121303906
:1010D000034664E7742A26D07A2ADBD19DF83130A2
:1010E00006220DE05A78682A9DF8312006D10121A8
:1010F00061F3C6028DF831209F1CCCE71346022213
:1011000062F3C6038DF83130C5E75A786C2A9DF832
:10111000312001D10421EBE713460322F0E79DF8CB
:1011200031300522ECE79DF831300722E8E7BDF8C1
:10113000303023F4F04323F0020343F4804343F0C0
:101140000203ADF83030A6E7A2F15801202900F2E1
:10115000848001A050F821F01D1200005B120000F5
:101160005B1200005B1200005B1200005B120000CB
:101170005B1200005B1200005B120000B91000005F
:101180005B1200001D120000DD110000B91000000C
:10119000B9100000B91000005B120000DD11000062
:1011A0005B1200005B1200005B1200005B1200008B
:1011B000251200001D120000411200005B12000009
:1011C0005B120000411200005B1200001D120000C3
:1011D0005B1200005B1200001D1200009DF832102F
:1011E000012003F0780360F30201402B8DF83210E8
:1011F00002BF9DF8301041F001018DF83010632AD4
:1012000031D1003B18BF01239DF83020C2F34001CB
:101210000B4363F341028DF83020D8E69DF832107D
:101220000220DEE79DF8322003F07803A3F14000AE
:10123000032161F3020243428DF832204341E3E788
:101240009DF83220032113F0780F61F302028DF82C
:10125000322014BF01230023D6E79DF8303043F03D
:1012600001038DF830300023CEE79DF93020002AAD
:10127000B4BFDDF834904FF0FF39BAE69B077FF535
:10128000C7AEDDF838809DF831100023CDE90D336D
:101290009DF8323003F00703012BC1F3C30138D1AD
:1012A000CB1E042B22D8DFE803F00309092121001B
:1012B00054F8043BDA17CDE90A3206E0073424F08B
:1012C0000704F4E80223CDE90A239DF8303013F037
:1012D000030656D002983B465246594605F0A9F8F7
:1012E0000028C0F242810544BA46D9E554F8043BCF
:1012F00001294FEAE372CDE90A3205D19DF8283081
:101300000A9300230B93E0E70229DED1BDF92830D0
:10131000D0E7022B23D1CB1E042B13D8DFE803F038
:10132000030A0A12120022680A920023201D0B935E
:101330000446CAE7E01D20F00700F0E80223CDE9EB
:101340000A23F5E754F8043B0A9301294FF0000300
:101350000B93D3D00229B8D1BDF82830D0E7042BA5
:1013600009D1E31D23F0070303F10804D3E90023A7
:10137000CDE90A23A9E7032B04BF54F8043B0A93E1
:10138000A3E79DF833007828AED8622822D8252814
:101390003FF48FAD5828A7D10DF126030093DDE966
:1013A0000A0104AB0CAA04F0FEFF8246B8F1000F5C
:1013B0000DF126000CDB9DF83020A0EB0A036FF343
:1013C000861298458DF8302002D9A8EB03030D93BF
:1013D00080463DE06338152886D801A252F820F0F7
:1013E00061140000C5140000E9120000E9120000B9
:1013F000E9120000E9120000C5140000E912000023
:10140000E9120000E9120000E91200001F150000B7
:10141000ED140000F1140000E9120000E9120000D0
:1014200039140000E9120000ED140000E912000078
:10143000E9120000ED140000B8F1000FDDF828A05B
:101440000ADB4146504605F0F3FA0AEB0008002695
:10145000BAF1000F0CD147E7504605F0E2FAF4E785
:101460000A9B8DF8103000260DF1100A0DF11108BD
:10147000A8EB0A0306B101339DF83220D00668D5E7
:10148000023352060D9948BF0E9A0B4448BF9B1871
:10149000B9F1000F76DD9DF83020A9EB0309C2F306
:1014A0008003039353076DD4500661D546B1029B68
:1014B000594630469847002857DB039B01351E46A6
:1014C000302356E01E070FD413F0100618BF202655
:1014D000DDE90A23002BBFF65FAF524263EB430303
:1014E000CDE90A232D2657E72B26F1E7002653E7FF
:1014F0000A9840B30DF1260300930CAA04AB002117
:1015000004F051FFBDF8323003F0EF0343F4F04331
:1015100043F010038246ADF83230002646E70A9BBE
:1015200007293FF6E1AEDFE801F00C04060C0808DD
:101530000C0C1D70D8E61D80D6E6EA17C3E90052F0
:10154000D2E61D60D0E6DFF8C8A006460AF105081D
:101550008EE7110748BF013393E7184603935946B6
:10156000029B98470028039B04DA11B0BDE8F08F76
:1015700020234D444A46002AA5EB090109F1FF3911
:10158000EBDC0D4636B1029B5946304698470028A1
:10159000EBDB01359DF83230D90601D41A0706D5A8
:1015A000029B5946302098470028DEDB01359DF824
:1015B0003230DB0607D59DF83300029B5946984729
:1015C0000028D2DB01350D9E2E44731B002B16DC48
:1015D000029843465246594604F02BFF0028C4DBCC
:1015E0000544A944A9EB0503002B7FF77DAE029BC0
:1015F0005946202098470028B7DB0135F2E7029BC7
:101600005946302098470028AFDB0135DDE700BFA1
:101610008C77000030B51049104889B0002205F0E1
:10162000F6FD0F4D0F4900220023CDE906230024CB
:101630000E23CDE90334CDE901440B4B00944FF464
:101640004072284603F022FD0849284605F056FC62
:10165000204609B030BD00BF711600001005002003
:1016600048050020E0110020951800009277000046
:10167000014803F069BE00BFFC000020014B53F895
:1016800020007047F874000070B5124BBFF35B8FF9
:1016900053E8005F6A1C43E800210029F8D1BFF33A
:1016A0005B8F2DB90C4C0D4E361B3611B54200DB4D
:1016B00070BD237B53B123689B690BB120469847CB
:1016C000636804221968204600F092F9013510344D
:1016D000ECE700BF98070020A0740000B074000081
:1016E00010B5044C237813B9034803F02DFE0123F1
:1016F000237010BD4B0B0020FC0000200C4BBFF3EF
:101700005B8F53E8002F013243E800210029F8D114
:10171000BFF35B8F58B1BFF35B8F064B53E8002FCD
:10172000013A43E800210029F8D1BFF35B8F7047ED
:1017300094070020900700200020064BBFF35B8F2A
:10174000024653E8000F43E800210029F9D1BFF316
:101750005B8F704794070020F8B5FFF7EDFF0A4C48
:101760000A4D2D1B07462D110026AE4200DBF8BDA9
:1017700063685B792BB123681B6913B13946204636
:10178000984701361034F0E7A0740000B0740000F0
:101790000149024804F018BF047500009C070020AE
:1017A000084A08B500231370074A1360074B084A1C
:1017B0001A604FF4004000F0FBFABDE80840FFF764
:1017C000E7BF00BF4C0B002094070020040000205E
:1017D00071680000014600220148002304F015BF93
:1017E0009C070020014804F0A6BF00BF9C07002012
:1017F0000146014804F0EBBF9C070020014805F0BA
:101800001AB800BF9C0700201D4B1B782DE9F04142
:10181000054603B988B305F040F8064618B16DB126
:101820003046FFF7E5FF2DB9164B1B68002B01DD95
:10183000FFF792FFBDE8F041FFF7E0BF124BBFF3A7
:101840005B8F53E8002F013A43E800210029F8D1CB
:10185000BFF35B8F0D4C0E4F3F1B3F11A846B845A1
:10186000DEDA63685B7923B1236831461B68204662
:10187000984708F101081034F1E7BDE8F08100BF96
:101880004B0B00209407002090070020A07400005C
:10189000B074000010B5FFF7F7FE04F0B3F90C4B7D
:1018A000186030B10B4B1B68092B02DD0A4803F0AE
:1018B0004BFD094C0020FFF7A7FF0028FAD14FF09D
:1018C000FF324FF0FF33204603F05EFDF2E700BF2A
:1018D000D407002090070020FC00002013B51D4B0A
:1018E000BFF35B8F53E8002F511C43E80010002822
:1018F000F8D1BFF35B8F184B1B7883B14FF02003F7
:10190000EFF3118483F31288BFF36F8F0020FFF78A
:101910007BFF84F31188BFF36F8F02B010BD0F4BB4
:101920001B68002BF9D052B900220023CDE9002317
:101930000B484FF40042002304F066FBEDE70A2A4F
:10194000EBD1074805F06FFC064802B0BDE8104037
:1019500003F0FABC900700204C0B0020D4070020B5
:1019600010050020FC000020064B10B51B68044643
:1019700098472146A060044804F0BDFEBDE8104031
:10198000FFF7ACBF040000209C070020F8B50E4F05
:101990003D7875B90D4C0E4EFFF776FE361B3611AD
:1019A000B54207DB0020FFF72FFF0028FAD1012303
:1019B0003B70F8BD63685B791BB1236820465B69A7
:1019C000984701351034EBE74C0B0020A074000061
:1019D000B0740000044A054B9B1AB1EBD30F34BF1F
:1019E00052F831000020704750740000A0740000CD
:1019F000054A4368801A00110130012218711960EC
:101A00005A71FFF76DBE00BFA07400000EB403B59D
:101A100003AB014653F8042B04480193FFF738FA4F
:101A200002B05DF804EB03B0704700BFDB68000054
:101A30002DE9F0471D46089B1746DA0604460E4678
:101A400005D499064CBF2A492A49FFF7DFFFDFF882
:101A5000A8904FF00008A8452ADBDFF8A080DFF847
:101A6000A090DFF894A00025BD422FD2725D4946B8
:101A70002046FFF7CBFF0135102D20D12149DFF89B
:101A80007880DFF884902046FFF7C0FF0025AF4242
:101A900028D9725DA2F120035F2B28BF2E22494670
:101AA0002046FFF7B3FF0135102D14D1BDE8F087B4
:101AB00049462046FFF7AAFF08F10108CBE76A076D
:101AC000D2D151462046FFF7A1FFCDE7414620463F
:101AD000FFF79CFFCFE76B07D9D141462046FFF7C0
:101AE00095FFD4E741462046FFF790FFDBE700BFB4
:101AF0009F7700009E770000A9770000A77700007D
:101B0000A1770000AB770000AD7700002DE9F04F22
:101B100087B01C4601F0010305929DF84090BDF985
:101B200048A004930746884601F0020B01F008061E
:101B300004F0B7FE0246002844D03A493846FFF781
:101B400065FF0546BBF1000F08D018F0440F3BD1EC
:101B5000354922463846FFF759FF0544049B53B1E7
:101B6000324B334953F82920324B3846002A08BFFC
:101B70001A46FFF74BFF3EB12F4B304953F829204F
:101B80003846FFF743FF0646BAF1000F16DB059B08
:101B9000002B45D0012303FA09F9294B294C19F0F0
:101BA000100F18BF1C4651469DF84400FFF712FF66
:101BB000214602463846FFF729FF0644701907B050
:101BC000BDE8F08F0546BDE71F4B18680028C4D05C
:101BD0001E4B4FF47A781B68B4FBF3F44FF4616149
:101BE000B4FBF0F300FB134408FB04F44FF03C0C8F
:101BF000B3FBF1F201FB1231B4FBF0FEB1FBFCF3DD
:101C000000FB1E440CFB131108FB04F40091B4FB11
:101C1000F0F00F49CDE901E03846FFF7F7FE9CE709
:101C2000084CC0E7BE770000C277000018750000BE
:101C3000E7770000B07700002C750000EA7700001D
:101C4000BA770000B5770000D8070020DC07002035
:101C5000CB77000038B50C46E107054603D5084AA6
:101C60000849FFF7D3FEE20608D4A30628464CBF76
:101C700005490649BDE83840FFF7C8BE38BD00BF7A
:101C8000B0770000E77700009F7700009E770000A4
:101C90002DE9FF470B8813F4E07F06460C4690467B
:101CA000C3F382194DD00A784B68C2F3C202002BED
:101CB00044D025495B1A43F3CF03CDE90123CDF886
:101CC0000090A368002241463046FFF71FFF82467E
:101CD000254655F8103BC3F3492353B11B4F1C480D
:101CE0001C492B463246B9F1000F08BF384604F0B4
:101CF00006FA6788C7F3CB0797B12368C3F3492374
:101D00001D44102F3C4628BF10242946CDF80080E2
:101D1000534622463046FFF78BFE3F1B2544F0D149
:101D2000B9F1000F04D04A4641463046FFF792FF12
:101D3000304604B0BDE8F04704F0C2BD4FF0FF33B9
:101D4000BBE7CA46C4E700BF507400001169000039
:101D5000DB680000910E000073B542F20F738B42F6
:101D600028BF0B4605680F4A04460521684604F063
:101D700033FA63680C495B6806460B22284604F078
:101D800092FD63683246694628465B6804F08BFD25
:101D9000636806495B681B22284604F084FD02B094
:101DA00070BD00BF1A7D00002C7800001078000084
:101DB000084A10B50123084C13600021A04204D842
:101DC00001B11360054B186010BD40085B00012194
:101DD000F4E700BFDC07002040420F00D8070020D6
:101DE0002DE9F04F87B0DDE911579A46109BDDF8D9
:101DF0004CB00393044689469046CFB3CDF800B06B
:101E00003B462A4610210020CDF814B0FEF7BAFB5D
:101E10000646039A08F0070304F0070802F11700CA
:101E2000144C4FEAC80848EA83183044124B04EABD
:101E3000462420F0070048EA040803EAC243800869
:101E400048EA0308FFF7C6FC044640B13FB1CDF8AD
:101E500000B03B462A4631461030FEF793FB53460E
:101E600042464946204607B0BDE8F04F04F05DBD4C
:101E70003E46CEE700FE07000000F87F014B01223E
:101E80001A7070475D0B0020014B002019607047ED
:101E9000E8070020024B034801221A7004F010BD2D
:101EA0005E0B0020607500000148FFF755BF00BFC2
:101EB00060750000064B10B518680C46FFF7DEFB96
:101EC00021460346BDE8104002480F22184700BFD4
:101ED000E807002060750000054B1B781BB141F23C
:101EE000883005F090B9A420002103F071BE00BF36
:101EF0005E0B00202DE9F047DFF88C90DFF88CA016
:101F000080460F46042499F80050CDB94FF0FF33B6
:101F10004FF0FF32504603F05DF93A4641462846FD
:101F200002F074FE0646504603F0CCF9184DFEB19F
:101F300001232B7099F800306BB93846BDE8F08763
:101F40003A464146002002F061FE0646EEE75CB9E3
:101F50002C704FF0FF34002002F0D4FE0028ECD0AB
:101F60002B78002BF3D1E8E7013CFFF7B5FFF2E750
:101F70002B7813B1013C04D12C702B78002BC2D1EB
:101F8000DBE7FFF7A9FFF8E75E0B0020E800002081
:101F90005D0B00202DE9F84305464FF02003EFF3D9
:101FA000118683F31288BFF36F8F0E4B1C689CB1B0
:101FB0000D4FDFF838804FF00C09D4E90132002DC5
:101FC00008BF13462BB198F8142009FB02F2B85C45
:101FD00098472468002CF0D186F31188BFF36F8FE7
:101FE000BDE8F883F807002000080020C40A00209C
:101FF0004209012300F01F0003FA00F0074BBFF372
:102000005B8FC04303EB820353E8002F024043E899
:1020100000210029F8D1BFF35B8F70470C08002026
:1020200038B51A4B1C7DBFF35B8F04F01F030122F0
:102030009A40174B6109D04303EB810353E8001F1B
:1020400001EA000543E8005CBCF1000FF6D1BFF3E4
:102050005B8F114213D00F4B0F4D8BB10C23634399
:10206000EA18E85C517804F01DFD0020FFF792FFAC
:102070000C235C432A1900232B51C2E9013338BDDC
:1020800083F31188BFF36F8FEFE700BFC40A00200E
:1020900010080020A56A0000000800202DE9F84380
:1020A000324B334A1C7DBFF35B8F63094FEA8309D0
:1020B00052F823302F4EBFF35B8F04F01F0843FA12
:1020C00008F313F0010F07460AD10146204600F03D
:1020D00069F828B107C80C2303FB046383E80700F1
:1020E0000C236343F218F55C2DB92046FFF780FFFF
:1020F0002846BDE8F8837B1C0FD0D2F808C01E48E4
:102100001E4A4FF4004500210023ECFB0501FDF7BA
:10211000E7FF0121381A05F058F803F0D9FA012039
:10212000FFF738FFBFF35B8F012303FA08F8144B66
:10213000994459E8003F43EA080349E80032002A7D
:10214000F7D1BFF35B8F0F4B33B10C236343F2180E
:10215000F05C517804F09AFCFFF762FF2046FFF72D
:1021600047FF03F085FC0120C3E700BFC40A00203D
:102170000C080020000800203F420F0040420F00E2
:10218000100800208D6A0000054BBFF35B8F53F8E9
:102190002000BFF35B8F003818BF0120704700BFDD
:1021A000140800202DE9F04F85B00F4603A900F078
:1021B00047F8DFF88080DFF880A0441E24B24FF09B
:1021C000000B631C04D10026304605B0BDE8F08F3B
:1021D000039A04EB440302EB830612F82300FFF793
:1021E000D3FF054610BB70684FF40049C44629462A
:1021F000E0FB09C152465B466046FDF771FF019066
:10220000B068C4462946E0FB09C15B4652466046B9
:10221000FDF766FF094B1B68591C01D0834205D9A5
:102220007A1CD1D0019B1844B842CDD9013C24B2CC
:10223000C7E700BF3F420F0040420F0008000020E8
:1022400008B9024B0B600020704700BF707500009A
:10225000014910220A60704710ED00E072B640405C
:1022600080F31188BFF36F8FBFF34F8F30BF62B61B
:10227000BFF36F8F704700BF72B6494081F311887A
:1022800020BF80F3118862B6704700BF2DE9F04788
:10229000814600AF0C4600294CD06E468AB06D4690
:1022A000D1E90012A3682748A8464FF0050AC5E9FE
:1022B0000501C5E9072348F810AF2348424600232B
:1022C0004FF4215104F04CFBD4E9031263691F4819
:1022D000C5F810A0B546C5E90501AD46C5E9072317
:1022E0001948424600234FF4215104F039FBB5460A
:1022F00088B06D46E369164AA8464FF0030AC5E95F
:10230000052348F810AF1048424600234FF4C2514D
:1023100004F026FB0F4AA369C5F810A0B546C5E92D
:102320000523AD460848002342464FF4C25104F04D
:1023300017FBB5462146484602F00EFDBD46BDE8F6
:10234000F08700BF4B780000807400007A780000AE
:10235000A9780000B878000043B2002B08DB012206
:1023600000F01F0002FA00F05B09024A42F8230065
:10237000704700BF00E100E043B2002B0DDB0122FB
:102380005B0900F01F0002FA00F02033034A42F814
:102390002300BFF34F8FBFF36F8F704700E100E062
:1023A000054B420900F01F0053F82220012303FAD5
:1023B00000F01040704700BF00E100E043B2002B86
:1023C000A8BF03F1604301F10101B8BF064B4FEA1A
:1023D0004111ACBF03F5614300F00F00C9B2B4BFB7
:1023E000195483F80013704714ED00E008B572B675
:1023F000044B9A691AB100229A6104F086FD62B614
:1024000008BD00BFC40A002030BFFFF7FDBF00BFFA
:1024100008B5084B084A23F07F039360BFF34F8F42
:10242000BFF36F8F02F030FD03F056FC00F094FB19
:1024300002F06EFD0000000000ED00E0094A0A49CC
:10244000936809689967094958674B6843F0805356
:102450004B60002383F31188BFF36F8F9368986FED
:10246000704700BFC40A00203476000000ED00E091
:1024700012498A684FF030001044EFF3098C80E86D
:10248000F01F202080F31288BFF36F8F0C4F4FF0A6
:102490000066CA698A603E60506F0023536780F30C
:1024A000118804B5104600F0F3FBBDE8044002F1CA
:1024B000300090E8F01F8CF309887047C40A0020B0
:1024C00004ED00E01EF0040F0CBFEFF30880EFF303
:1024D0000980816911F8021C0229FFD001B504F0BE
:1024E00084FA01BD42F8203C009B42F81C3C0A499A
:1024F000019B42F8183C029B42F8143C21F0010178
:102500004FF0807342F8043C42F8081C0023203A44
:1025100002654367704700BF93630000094A0346A2
:10252000906870B113F1160F406E05D0A0F1200233
:102530009A4205D8834203D2814228BF00207047C7
:1025400000207047C40A002008B5094B98600D466A
:10255000144600F09DFB204685F30988002163B6F0
:1025600081F31188BFF36F8F0022002303F011FF66
:10257000C40A002001B572B60B4A906900281EBF3C
:102580000021916104F0C1FC62B6EFF30580A0F177
:1025900010004FEAC0000549014409C99847BDE849
:1025A0000140034908470000C40A002010730000DE
:1025B000B5250000044B9968D869884203D00349C7
:1025C0004FF080520A607047C40A002004ED00E01A
:1025D0002DE9F04186B000AF3C4B7B6106460D46CD
:1025E0003B48022407F110024FF482513C6104F091
:1025F0000BFA384B9B6ADB0409D5374B344807F19B
:1026000010024FF48251C7E9044304F0FDF9314B45
:102610009B6A1C050AD5314B7B612D48022307F1CB
:1026200010024FF482513B6104F0EEF9294CA36A89
:10263000980522D52A4B7B6107F1100202234FF443
:10264000825123483B6104F0DFF9A36BA26A1104B5
:10265000E84612D588B023491D486A46C2E90513E9
:10266000032342F8103F4FF4C25104F0CDF9C546A0
:102670001EB1A36A23F40043A362164B9B6A5A055A
:102680000AD5194B7B611248022307F110024FF45F
:1026900082513B6104F0B8F90E4B9B6ADB050AD509
:1026A000124B7B610A48022307F110024FF482515A
:1026B0003B6104F0A9F9074A936A002043F47F4381
:1026C000183793622870BD46BDE8F081E6780000B7
:1026D0008074000000ED00E0FC7800000D7900003F
:1026E00020790000397900004E79000069790000F6
:1026F00010B586B0334B34480593022404AA4FF436
:102700008251049404F080F9304B9B6A9B0108D5F8
:102710002F4B2D4804AA4FF48251CDE9044304F015
:1027200073F92A4B9B6ADC0109D52A4B059326488D
:10273000022304AA4FF48251049304F065F9234B59
:102740009B6A180309D5244B05931F48022304AA4A
:102750004FF48251049304F057F91C4B9B6A5903C0
:1027600009D51E4B05931848022304AA4FF4825141
:10277000049304F049F9154B9B6A9A0309D5184B49
:1027800005931148022304AA4FF48251049304F0E4
:102790003BF90E4B9B6ADB0309D5124B05930A48A4
:1027A000022304AA4FF48251049304F02DF9074A3E
:1027B000936A6FEA03436FEA13430020936206B003
:1027C00010BD00BF817900008074000000ED00E0C2
:1027D00099790000AC790000C6790000E479000026
:1027E000097A0000237A00002DE9F04786B000AF97
:1027F000434B7B610646884642481546022407F152
:1028000010024FF482513C6104F0FEF83E4B9B6A8B
:10281000D80609D53D4B3B4807F110024FF48251D1
:10282000C7E9044304F0F0F8374B9B6A19070AD54F
:10283000374B7B613348022307F110024FF482517A
:102840003B6104F0E1F8304CA36A9A0723D46FF09F
:10285000150A2D4B9B6AD8070AD52E4B7B61294858
:10286000022307F110024FF482513B6104F0CCF8CF
:10287000254B9A6AD10635D49A6A920732D4002041
:10288000214A936A43F0FF039362183700232B70A9
:10289000BD46BDE8F087204B7B611A48022307F153
:1028A00010024FF482513B6104F0AEF8D4F834A02A
:1028B000A36A1B06E946CAD588B0184B11486A4678
:1028C000C2E9053A032342F8103F4FF4C25104F025
:1028D0009BF8CD46B8F1000FBBD0A36A23F080036C
:1028E000A362B6E75B681B05C9D531465046FFF7C2
:1028F00015FE0028C3D080F309880220C0E700BF7E
:102900004E7A00008074000000ED00E0647A000060
:102910000D790000C57A0000977A0000AF7A0000B8
:102920002DE9F04F764B8BB0D3F8048000AF0D4605
:10293000C8F30804002686F31188BFF36F8F02F0F6
:102940007F43B3F17F4F0ED102F00C03082B0CD163
:102950006C4BFB616C48022307F118024FF4825163
:10296000BB6104F051F8354603E0120701D4054677
:1029700001260023FB71E31E092B00F2A180DFE892
:1029800003F0059497919F9F9F9F9F9ADFF8708116
:102990005E4B5D48FB614FF0020A07F118024FF4ED
:1029A0008251C7F818A004F02FF8D8F82C404FF047
:1029B000000B14EA0A04E94687F807B00BD0544B21
:1029C000C7E906A3504807F118024FF4825104F0FA
:1029D0001BF800240DE0D8F82C30002B25DA4D4BE5
:1029E000494807F118024FF48251C7E906A304F0E1
:1029F0000BF8FB79ABB92022294607F1080004F057
:102A000020F87B6A002E76D0C3F3080222B96FEA61
:102A100053236FEA43237B6207F108012046FFF747
:102A200035FC2C37BD46BDE8F08FD8F82C305B0064
:102A3000DFD5394B344807F118024FF48251C7E90A
:102A400006A303F0E1FFAB6933F8022C4DF60273E5
:102A50009A4209D098F82830BBB1FA1D01212846C6
:102A6000FFF7C2FE0446C4E788B02B682B4926480E
:102A70006A46C2E90513032342F8103F4FF4C251DE
:102A800003F0C2FFCD462C68B3E798F8293023B194
:102A9000F91D0120FFF79CFDE4E7B8F82A309BB24E
:102AA000002BA6D0FFF724FEDCE7FA1D0021D6E7B5
:102AB000F91D0020EEE71A4BFB610223BB6181E7A1
:102AC000184A194B1949104818F4F87FE8468AB09B
:102AD00018BF13466A46C2E90513022382F8203064
:102AE000103C134BD4614FF4095142F8103F03F0EE
:102AF0008BFFC5466DE723F4FF7323F001038AE7DC
:102B000000ED00E0127B0000807400003D7B0000BF
:102B1000547B0000757B0000837B0000A27B0000DB
:102B2000BE7B0000F97A0000E47A0000E27B00003E
:102B300004000001024A536943F0100353617047D7
:102B400000ED00E0EFF30880EFF3098101B5724674
:102B5000FFF7E6FE01BD00BF044800232021C21894
:102B60000133282B82F80013F9D1704700E100E00F
:102B7000002080F31488BFF36F8F04F073FB0020F4
:102B80000D490860BFF34F8F0C4880F3088800F0B0
:102B90002BF8202080F3118809484FF40261401877
:102BA00080F30988EFF314800221084380F314882E
:102BB000BFF36F8FFFF72CFC94ED00E000190020AD
:102BC000401A00200749D1F890200023C2F30722C1
:102BD0001846934200D17047C1F89830C1F8A00060
:102BE0000133F6E700ED00E008B572B6002383F389
:102BF0001388FFF7E7FF144B4FF0FF32C3F8802034
:102C0000C3F88420C3F88820C3F88C20C3F8902030
:102C1000C3F89420C3F89820C3F89C20C3F88021FF
:102C2000C3F88421C3F88821C3F88C21C3F890210C
:102C3000C3F89421C3F89821C3F89C2162B6BFF36E
:102C40004F8FBFF36F8F08BD00E100E0084B9B681A
:102C500083420BD1EFF3058343B1064B5A6842F030
:102C600080525A605A6A22F400425A6202F0D0BF7F
:102C7000C40A002000ED00E0024B034A0348012192
:102C800000F090B800800020000000207075000067
:102C9000426E054B203A1A60044A2021C3E9011212
:102CA0001846012100F088B83008002000000B15FC
:102CB000F8B5DFF8B4C000AF00258D421ADA4468D9
:102CC000002C4DD0FBB104F1FF3E14EA0E0F14D0DE
:102CD000264B6C4688B06A46C2E90535032342F8A4
:102CE000103F234800234FF4C25103F039FE6FF028
:102CF0001502A5461046BD46F8BD1F2CE8D906684A
:102D00001EEA060FE4D1202C0668D0F808E0D2B203
:102D100014D9B4F1004F13D8013CB4FA84F4C4F1CF
:102D20001F046400072A4EEA04040BD911496C46BB
:102D300088B06B46C3E905121A46CFE70824F1E7CD
:102D40003E24EFE726F01F06164346F0100644F037
:102D50000104CCF89820CCF89C600132CCF8A0405B
:102D600001350C30A9E700BF00ED00E0F97B000061
:102D7000787400001C7C0000044B0522C3F89420EA
:102D8000BFF34F8FBFF36F8F704700BF00ED00E0C0
:102D9000BFF35F8F024B0022C3F89420704700BF3F
:102DA00000ED00E010B5034C01232278FFF780FF0F
:102DB000207010BD5F0B002008B5094A002312786F
:102DC000FFF776FF10F1160F03D0064B00220728FD
:102DD00000DD08BDC3F89800C3F8A0200130F6E775
:102DE0005F0B002000ED00E014490868082810B5CA
:102DF00021D8FFF7CDFF124C49680022904201F123
:102E00000C0105D10F4B1870FFF7B6FF002010BD65
:102E1000C4F8982051F80C3C23F01F03134343F0EF
:102E20001003C4F89C3051F8043C43F00103C4F88B
:102E3000A0300132E2E74FF0FF30E8E77C75000098
:102E400000ED00E05F0B0020014B1860704700BFF1
:102E50000C0000204FF08043C0B2C3F81C05BFF344
:102E60004F8F0549054BCA6802F4E0621343CB60FB
:102E7000BFF34F8F00BFFDE700ED00E00400FA054F
:102E800020B1034B800143F001031847704700BF96
:102E9000F0740000084B70B5C31A0D4607499B102B
:102EA000044659430648402203F01EFE2B460146C5
:102EB0002046BDE8704018474C080020B76DDBB6CF
:102EC000C872000073B50C4C0C4A4023041B0093DD
:102ED0000D460B460A49A41061430646094803F013
:102EE00030FE011E05DA30462B4602B0BDE87040C8
:102EF000184702B070BD00BF4C080020B16B000045
:102F0000B76DDBB6C8720000002270B5012104461F
:102F10001046FFF753FA114801F07AFA104B984225
:102F200018D1206900F0DCF903F029FF26690D496A
:102F3000304603F0ADF900280BDB2469094901256F
:102F4000356404F11C0003F0A3F9002801DBE564FB
:102F5000002070BD6FF00400FBE700BF9D2F000054
:102F60000000AD0BCC75000001460C2309484B4313
:102F700070B5C418D4E90E5600224033A263184439
:102F800003F09FFD2DB132462B460348BDE870404B
:102F9000184770BD4C080020C8720000012810B509
:102FA00004460AD003280CD078B9084B1B6C5B0789
:102FB0000BD1BDE81040FFF7D7BF00F09FF92046C6
:102FC000F7E7BDE8104000F0A7B910BD4C0800209D
:102FD00008B54FF02003EFF3118183F31288BFF39C
:102FE0006F8F124A136843F0020013F00103106060
:102FF0000CD04FF08042D2F80C34D2F80C2413F0ED
:10300000010303D00A4803F05CFD012381F311881A
:10301000BFF36F8F23B1BDE808400020FFF7A4BFC6
:10302000BDE80840012003F0B7BE00BF9C080020A7
:103030008C0800201FB500220123CDE90223094A94
:10304000CDF800D06B46CDF804D003F0AAFD0028DF
:1030500005DB4FF480420023684602F095F905B085
:103060005DF804FBC96B0000094BBFF35B8F53E8AD
:10307000002F22F0020143E800100028F7D1BFF32F
:103080005B8FD30702D4012003F0BEBE704700BFA0
:103090009C080020024AC3B21C2003FB002070479A
:1030A0004C080020F8B52849BFF35B8F0646012283
:1030B00051E8003F41E800200028F9D1BFF35B8FC1
:1030C00033B9224922484B60CB608A6003F0F3F8A1
:1030D000731E012B20D803F00BFF044610B91D4BC3
:1030E0001B7853BB4FF02003EFF3118583F3128855
:1030F000BFF36F8F01244FF08047D7F81834D7F80B
:103100001824D20309D59B0701D0012E05D174B133
:1031100085F31188BFF36F8FF8BD1CB12846FFF708
:10312000ABF8EAE70021212002F052FDE5E74FF07D
:1031300080430222C3F80423EEE74FF080430222CB
:10314000C3F808230546D6E7A00800203C08002065
:1031500068080020D01100207FB5084B059302239A
:1031600004930748002304AA4FF4825103F0F8FBAC
:103170006FF0120007B05DF804FB00BF757C000023
:10318000507400000D4BBFF35B8F012253E8001F0A
:10319000002903D143E800200028F7D1BFF35B8F5B
:1031A0000AD107490023CB60064B4B6003238B6099
:1031B000054B186803F07FB8704700BFA4080020D3
:1031C000A8080020B5320000B808002008B5064B5A
:1031D0000648186003F07EFE18B9BDE80840FFF706
:1031E000BBBF002008BD00BFBC080020F872000073
:1031F00007B500220023CDE9002308484FF4003230
:10320000002302F001FF064B186803F09DF8054B00
:1032100000221A6003B05DF804FB00BFB00000207C
:10322000B8080020A408002037B51D4D2868836821
:103230001C4CDB683921984770B1002323701A4673
:10324000217809B1012A20DD174A138001F0F2F834
:103250000123237003B030BD286883686A461B6968
:103260000C2198470028E8D1104A019B93FBF2F308
:10327000009A03EB82030C4AB2F900201BB29A1A9F
:10328000002AB8BF524212B2DAE7094A136801397C
:1032900001332170136003B0BDE83040FFF7A8BFD1
:1032A000BC080020600B0020040B002090D003001D
:1032B000C408002008B5074B1B682BB901F0BAF809
:1032C000054B01221A7008BDBDE80840034802F012
:1032D00069B900BFBC080020600B0020100000206E
:1032E000034B044A186000231360034A13607047BD
:1032F000B8080020C0080020C4080020024B0022AB
:103300001A70FFF73FBF00BF600B0020014803F0B9
:103310008ABF00BFB0000020024A13680133136067
:10332000FFF766BFC008002010B5044C2046FDF72B
:10333000B5FC2046FFF788FD002010BD413300009A
:103340002DE9F341DFF85C80174E8DF80700044645
:1033500003254FF0FF334FF0FF32404601F03AFFB4
:1033600001220DF10701002001F09CFC07464046B8
:1033700001F0A8FF2FB101233370204602B0BDE851
:10338000F0813378002BF8D0013D08D003F0B0FD78
:103390000028DED10021422002F01AFCD9E7357066
:1033A000EBE700BFE8000020610B002030B540686B
:1033B000047B01F01F05B2F5001F45EA441585B0F6
:1033C0004FF0000404D1284601F0CCFA00202EE092
:1033D000B2F5800FCDE902442BD1B3F1007F0CBFD1
:1033E000042305238DF80830836823FA01F1C90707
:1033F0002BD4B2F1A07F28D105F01F0303F5E073B1
:103400004FF0A04252F82330DB071ED40DF1070421
:103410002146284601F00EFA144B984214D120465A
:1034200001F056FA124B98420ED06FF00B0005B027
:1034300030BDB3F1C06F05D0B3F1007F0CBF0223E4
:103440000123CFE70323CDE703940023194602AA03
:10345000284601F0C7F8064B984204D101212846BE
:1034600001F03CFAB2E76FF00400E0E70400AD0BB6
:103470000000AD0B10B501F01BFA044668B901F06D
:10348000EFF9084B98420AD10748214601F0CCF9E0
:10349000224605210620FEF791FF002010BD6FF0A7
:1034A0000400FBE70000AD0BAD340000430970B52C
:1034B00010D1094B596869B101250C68074E854048
:1034C0008A682A4002D04B683046984714B121469A
:1034D0002468F5E770BD00BFC8080020E072000056
:1034E0002DE9F04347683B7B01F01F0585B00E4690
:1034F00045EA43151446CAB902A9284601F09AF9CB
:103500000446284601F056FA4A4B984204D06FF020
:10351000040005B0BDE8F083844205D19DF80800A1
:1035200001F0D0F9A042F2D10020F2E74FF00009FB
:103530000DF103013046CDE9029901F07BF94B46CC
:10354000804602AA4946284601F04CF8394B984279
:1035500002D06FF01500DCE7804503D19DF8030031
:1035600001F0B0F9A30351D540F20663234040F2C5
:10357000062293423BD00CD8062B15D004D89BB121
:10358000022BE6D104230FE0B3F5007FE1D1012344
:103590000AE040F2024293422BD0B3F5C06F2AD02A
:1035A000B3F5806FD5D102238DF8043084F48033D5
:1035B000C3F30043E0068DF8053054BFC4F3401355
:1035C000032321038DF8063017D57B68012101FA0A
:1035D00006F6C3F80865002201A9284601F0ACF8F8
:1035E000144B984214BF6FF01500002091E7072399
:1035F000DAE70523D8E70323D6E7620341BF7B68F8
:10360000012101FA06F6C3F80C65E4E7E3064FF082
:10361000000354BFC4F3401403241A4601A92846EA
:103620008DF8044000F0DEFF024B98423FF47CAF7F
:103630008FE700BF0000AD0B014B01221A607047FD
:1036400000C000400C2903690BD15B6A064907489A
:103650004B4393FBF0F100FB1133116053600020EA
:1036600070476FF08500704790D0030040420F0014
:10367000044B00690022C3F80021D3F8003101F0A7
:1036800063BE00BF00C000407FB50569AB6A63B38D
:10369000392901D00C292BD105F110064FF0FF324A
:1036A0004FF0FF33304601F095FD134B0193A86AAC
:1036B0000323002469460394029302F0FCFD4FF0BB
:1036C000FF324FF0FF33284601F05EFEA86A02F099
:1036D0003BFE0A4BD3F808256A6201225A60304645
:1036E00001F0F0FD204604B070BD6FF00A00FAE76B
:1036F0006FF08500F7E700BF3936000000C00040DA
:1037000010B504690020FFF7C5FCA0624FF0FF323E
:103710000021204603F00FFC04F1100003F004FC2C
:10372000002201210C20FEF749FE0C20FEF714FEBA
:10373000024B0122C3F80423002010BD00C000404A
:1037400010B501238340114ABFF35B8FDC4352E87D
:10375000001F01EA040C42E800CEBEF1000FF6D1D2
:10376000BFF35B8F4FF4803202FA00F002F1804227
:1037700002F58052C2F80803BFF35F8FBFF36F8F6B
:103780000B4214BF0120002010BD00BF040900201F
:103790001949F8B5044622F07F450868C1E90023BD
:1037A000A5F50013101AB3F5400F22D2134B1B6876
:1037B0001A0A1B065E19124B42F10007C3E90067A3
:1037C000012602F067FBA30003F1804303F5883371
:1037D000D3F84025AA420BD11EB94FF40002C3F81A
:1037E0004025084B4FF4803000FA04F4C3F84443FA
:1037F000F8BD0026E5E700BFE0050020080900202D
:10380000C80500200010014019B3BFF35B8F0123EE
:10381000104A834052E8001F194342E8001CBCF1E3
:10382000000FF7D1BFF35B8F0B4A4FF48033834017
:10383000C2F80433094BBFF35B8F1B68BFF35B8F88
:1038400023FA00F0C30742BF054B4FF40032C3F820
:1038500000217047040900200010014000090020E9
:1038600000E100E00D4B1868010A0006BFF35F8F0E
:103870000B4BD3F80435181841F10001B3F5801F44
:103880000AD2084BD3E90023904271EB030303D221
:1038900010F1807041F10001704700BF080900205D
:1038A00000100140C80500202DE9F04F85B01646F4
:1038B00098460546FFF744FF0090FFF7D3FFB0425C
:1038C00071EB080378D2464B301A68EB010198423D
:1038D00071F1000380F08180424B03EB0513D3E9C3
:1038E00002ABD84508BF564551D04FEA850909F1CA
:1038F000804905F1500709F58839BF004FF4803140
:1039000001FA05F3BFB226F07F4207F18047019329
:10391000D9F84005344B07F588371446D3F8041519
:10392000401A20F07F4021F07F4C0128C9F840C5A3
:1039300007D1CDE90221132003F065FCDDE9022166
:10394000294B01F1020CA4EB0C0020F07F40B0F5F4
:10395000000F88BF64460020386038680198C3F8BB
:10396000440324F07F40C9F84005D3F804058142A0
:1039700006D0201A023820F07F40B0F5000F19D889
:10398000A41A24F07F4414EB060A48F1000B1549F1
:103990000E982B0101EB0512C2E902ABC8500F9B38
:1039A0005360002428460099FFF72EFF204605B0FB
:1039B000BDE8F08F2046B1E701230C4ABFF35B8FCF
:1039C000AB4052E8001F194342E800100028F8D12C
:1039D000BFF35B8FB246C346D9E76FF01504E1E74A
:1039E00001000001D0050020001001400009002066
:1039F00073B5194B194D00244FF0FF304FF0FF31D4
:103A0000C5F80845C3E902014FF48033C5F8043313
:103A1000134B02264FF400320121C5F80463112034
:103A2000C3F880212246FEF7C9FC1120FEF794FC62
:103A30000C4A0123AB602B6013600B4B0B4A0093C5
:103A4000019400232046FFF72FFF3046FFF72AFBA3
:103A5000204602B070BD00BFD0050020001001401C
:103A600000E100E00409002091370000FFFF7F0023
:103A70002DE9F743354CD4F804339A070BD5D4F825
:103A8000043143B1324A0023C4F80431D4F804317C
:103A90001368013313604FF02003EFF3118283F3B7
:103AA0001288BFF36F8FD4F80433DB0312D5BFF352
:103AB0005B8F284B53E8001F21F0010043E800060C
:103AC000002EF7D1BFF35B8F002936D1D4F84031F7
:103AD000002B32D1002382F31188BFF36F8F4BB3D9
:103AE000FFF7C0FE4FF02003EFF3118C83F3128831
:103AF000BFF36F8F184BD3E90267B04271EB070237
:103B00004FF0000220D34FF0FF384FF0FF39D3E9D8
:103B10000015C3E902891A604FF48033C4F84833B2
:103B20008CF31188BFF36F8F21B1009532463B466D
:103B30000020884703B0BDE8F0830023C4F840317B
:103B4000D4F840310123C6E71146E9E700100140EF
:103B50000809002000090020D0050020431C13B5EF
:103B600021D0012821DDB0F5000F20DA441EFFF737
:103B700079FE104BD3E90013401AB0F5000F28BFAF
:103B80000024013002190C48824228BF0246521814
:103B90004FF0000009490190009143F10003FFF745
:103BA00083FE02B010BD0448E0E70024DFE7024CCA
:103BB000DDE700BFE0050020FFFF7F009137000038
:103BC00008B5FFF74FFE024B1B68C01A08BD00BFC7
:103BD000E00500207FB5FDF7D9FE074B05930223D2
:103BE00004930648002304AA4FF4825102F0B8FE61
:103BF0000020FFF72FF900BFAA7C000060740000CE
:103C00000649074BC1F81435064B5B7C5A1E064B20
:103C100043EA0243C1F81835704700BF0010004066
:103C2000060003002000002020000001074A084B86
:103C3000C2F81435074B5B7C013B40EA034343EA7F
:103C4000002040F08070C2F8180570470010004056
:103C500000010100200000200B4B0C4A1B7AC2F827
:103C60001035042B0DD8DFE803F008030C0803001F
:103C7000074BA0221A6001207047054B4FF4967243
:103C8000F8E70020704700BF8C09002000100040BA
:103C9000100A0020044A0023C2E908339362034A51
:103CA000C2E9083393627047E0090020B40900209C
:103CB00010B5074C074904F1080002F0E8FFC1F80D
:103CC000240504F10C0002F0E2FFC1F8280510BD44
:103CD0002000002000100040194B684620F007012A
:103CE000D3F800218D4601B54AB1D3F80423D0079B
:103CF00041BF0022C3F8002103F510431B68104B9D
:103D0000D3F80C2132B1D3F80423110744BF0022A9
:103D1000C3F80C21D3F8102152B1D3F80423D206F2
:103D200006D50022C3F81021064B1B6803B1984743
:103D3000FEF75CFBFEF73EFCBDE8014085467047A0
:103D400000100040AC090020684620F007018D46B5
:103D500031B51B4B82B01B6801934FF02003EFF38A
:103D6000118183F31288BFF36F8F164B00221D68F9
:103D70001A6081F31188BFF36F8F134C2368ABB1C6
:103D8000E90703D58DF8002068469847AA0705D5AE
:103D900001238DF800306846236898476B0705D5E6
:103DA00002238DF80030684623689847FEF71EFB13
:103DB000FEF700FC02B0BDE831408546704700BF09
:103DC000A8090020A4090020A0090020124B1348D4
:103DD0001A68134B10B5C3F80825124B00241C7049
:103DE000114B21461C70FFF755FF202202F034FED4
:103DF000082221460D4802F02FFE0120FEF7BCFAF2
:103E00000A20FEF7B9FA1420FEF7B6FA084B03228F
:103E1000C3F8002210BD00BFB0090020060B00202F
:103E200000F00140630B0020620B0020640B0020B7
:103E3000001000402DE9F0470546002800F0F3800F
:103E40007A4E33780BB1FFF7C1FF794B794C6A6832
:103E50001A6029461422204602F0F3FD0025764B15
:103E600076481D602022294602F0F6FD082274489B
:103E7000294602F0F1FD734BA27AC3F80C25FFF737
:103E8000EBFE2378704A002B00F0BD80012B01D19E
:103E90006E4B1360617A6B4B012900F0BE800229E2
:103EA00000F0B38049B94FF6FF71C3F83C1568497B
:103EB000C3F838150221C3F834151368607C98479D
:103EC000604B644964484FF0E732C3F81C254FF05B
:103ED0004332C3F82025614AC3F82425604AC3F859
:103EE0002825FFF7D7FE0A4600230133082B40F8A8
:103EF000042B02F12502F8D15A4A5B480023013312
:103F0000082B40F8042B02F12502F8D10022574B70
:103F100014460132082A19601C719C6001F12501C8
:103F200003F10C03F5D1524B524DDFF84CA1DFF8F1
:103F30004C91DFF84C81534FC3E90044C3E902447C
:103F4000C3E90444C3E906440423C5F8103540F22C
:103F50000223C5F808455046C5F8003200F0F4FDCC
:103F6000484600F0F1FD404600F0EEFD384600F016
:103F7000EBFD2A4644499AF8000000F0EBFD434A65
:103F8000434999F8000000F0E5FD424A424998F89B
:103F9000000000F0DFFD2B4A4049387800F0DAFDE0
:103FA0009AF8003099F80020012505FA02F205FA86
:103FB00003F3134398F8002005FA02F213433A780A
:103FC00005FA02F21343364A2946136028460022B6
:103FD000FEF7F4F9002202211420FEF7EFF9002287
:103FE00002210A20FEF7EAF92846FEF7B5F9142067
:103FF000FEF7B2F90A20FEF7AFF92A4B35701C70B4
:104000000020BDE8F087284B43E74FF6FF71C3F867
:104010003C150F49C3F8381545E7FF21C3F83C1597
:1040200040F20711F6E76FF01500EAE7620B002097
:10403000A00900208C090020A4090020060B002004
:10404000640B0020001000400C0A0020013C00001E
:1040500021100100980C0020E0090020E743C32351
:10406000A363E313700B0020B40900200C090020A7
:104070006C09002000A000406D0B00206C0B00209C
:104080006E0B00206F0B00200011004010A00040BC
:10409000041100401010004040A1004044A1004025
:1040A000B0090020630B00202D3C000038B51C4BEC
:1040B0001B7863B370B31B4CA36A73B34FF0200338
:1040C000EFF3118583F31288BFF36F8F636A54F89F
:1040D00023100A7802704B78437091F90230837094
:1040E0000B790371CB78C3700531053002F0A9FC60
:1040F000636A0133072B88BF00236362A36A013B15
:10410000A36285F31188BFF36F8F002038BD6FF075
:104110000C00FBE76FF01500F8E76FF03C00F5E7E7
:10412000620B0020B409002010B50D4B1B7801462E
:1041300003F0FF046BB978B104220A4802F081FC55
:10414000084802F0A4FD084B00BAC3F81C0520463D
:1041500010BD6FF00F00FBE76FF01500F8E700BF30
:10416000630B0020200000200010004010B50D4B14
:104170001B78014603F0FF046BB978B104220A48AA
:1041800002F05FFC084802F082FD084B00BAC3F859
:104190002005204610BD6FF00F00FBE76FF0150003
:1041A000F8E700BF630B002024000020001000404F
:1041B00070B5104B1B780C4603F0FF05A3B9B0B1E6
:1041C000082914D80C4E0A46014606F1080002F0F0
:1041D00038FC3474FF22C4F1080442FA04F4B474C5
:1041E000FFF766FD284670BD6FF00F00FBE76FF02C
:1041F0001500F8E7630B002020000020024AD2F8E7
:104200000034002BFBD0704700E0014010B502F0F5
:104210005AFD40B14FF080430022C3F80C21C3F88F
:104220001021C3F8382502F04EFD002846D04FF08B
:1042300080524C4BD2F80414C3F82015D2F808145D
:10424000C3F82415D2F80C14C3F82815D2F81014AA
:10425000C3F82C15D2F81414C3F83015D2F818147A
:10426000C3F83415D2F81C14C3F84015D2F8201442
:10427000C3F84415D2F82414C3F84815D2F828140A
:10428000C3F84C15D2F82C14C3F85015D2F83014DA
:10429000C3F85415D2F83414C3F86015D2F83814A2
:1042A000C3F86415D2F83C14C3F86815D2F840146A
:1042B000C3F86C15D2F84424C3F8702502F003FD4E
:1042C00048B14FF08043D3F80024D20744BF6FF0C9
:1042D0000102C3F800244FF08053D3F83021102A94
:1042E0000ED1D3F83431032B02D81F4AD35C3BB133
:1042F0004FF01023D3F808224FF08043C3F858251D
:104300004FF01023D3F80022002A03DBD3F8043245
:10431000002B22DA154901234FF01020C1F8043593
:104320001224FFF76BFFC0F80042FFF767FFC0F8E9
:104330000442FFF763FF0023C1F80435FFF75EFF77
:10434000BFF34F8F0A490B4BCA6802F4E062134374
:10435000CB60BFF34F8F00BFFDE7074B074A1A60E2
:1043600010BD00BF00C00040C77C000000E001405D
:1043700000ED00E00400FA05340000200090D003B6
:1043800070B501250268B2FA82F3C3F11F035E1C07
:10439000DCB214D0BFF35B8F05FA03F322EA030308
:1043A00050E8006F964204D140E8003CBCF1000F99
:1043B000F6D1BFF35B8FE5D102480C7070BD0248A7
:1043C000FCE700BF0000AD0B0200AD0B0368CB4063
:1043D000DB0710B515D4012303FA01F10368BFF31D
:1043E0005B8F41EA030250E8004F9C4204D140E851
:1043F000002CBCF1000FF6D1BFF35B8FEED1024869
:1044000010BD0248FCE700BF0000AD0B0400AD0B7F
:10441000054B1A792AB95A71012218601A7103489A
:1044200070470348704700BF140A00200000AD0B1E
:104430000C00AD0B4FF08043D3F80C24D3F80C14D0
:10444000C80316D5D10714D5D3F81824D20310D534
:104450000A494A7902F0FF006AB9C3F80C01D3F89F
:104460000C2107480822C3F8042301224A711A616B
:104470007047044870470448704700BF140A002082
:104480000000AD0B0500AD0B0B00AD0B4FF08043F2
:1044900010B5D3F8002152B10020C3F80001D3F8C1
:1044A00000210122C3F80823164B1B6898474FF0E0
:1044B0008043D3F804215AB10022C3F80421D3F871
:1044C00004210222C3F808230E4B01201B689847E1
:1044D0004FF08043D3F80C2192B1D3F80423120794
:1044E0000ED50022C3F80C21D3F80C110821C3F813
:1044F0000813044B5A71BDE810401B68032018478D
:1045000010BD00BF140A0020034B083033F8100020
:10451000C0F34010704700BF3800002070B500F1B4
:1045200008030C4C34F81330DA0505460E4607D55F
:10453000C3F3432304EBC30254F833305268984763
:10454000A3682BB1E26831462846BDE870401847A1
:1045500070BD00BF38000020124A083010B432F895
:104560001030D9051BD5C3F3432123F4F85322F8A7
:10457000103002F11004002034F8023B13F4807F65
:1045800003D0C3F34323994209D001302028F3D14B
:10459000002342F83130044810BCFFF717BF10BCAD
:1045A000704700BF380000208C00002038B502465C
:1045B000FFF7AAFF094C02F1080540B134F81530A5
:1045C00007495B0B03F5A273002041F82300104656
:1045D000FFF7C2FF002324F8153038BD3800002053
:1045E000006000402DE9F34104461E4609B34D4FDB
:1045F00000F1080837F81850AB0706D5FFF784FF1D
:1046000018B1494802B0BDE8F08104F01F008000F5
:1046100000F1A0400978D0F8003725F0020523F01A
:104620000F0345F0010543EA810327F81850C0F84D
:10463000003792B13B4B1578526804F1080033F80B
:1046400010108F070CD5002ADBD133F8102022F090
:104650001C0242EA850223F81020CEBB3348D1E782
:1046600021F02001C904C90C23F81010002AECD055
:10467000032DC6D817782DB92D4A07F5A27142F837
:104680002150E2E7BA0002F1804202F5C04241EA5D
:104690004731D2F810C52CF0030CC2F810C5D2F87F
:1046A00010C52CF4473C2CF4407CC2F810C5D2F85D
:1046B00010E54FEA042C0CF4F85C4EEA054E4CEA87
:1046C0000E0C41F0200123F81010C2F810C5BCE711
:1046D000D6E900762046FFF73FFF002FBED0114DF0
:1046E0002B689F4204D16B689E4201D1002209E0F1
:1046F00010480DF10701FFF743FE0C4B984281D1A2
:104700009DF8072045F8327005EBC20308345E605F
:1047100035F8143043EA422343F4807325F814300B
:104720009CE700BF380000200400AD0B0000AD0B7B
:10473000006000408C000020F8B5044671B3374E8D
:1047400000F1080736F81750AB0704D4FFF7DCFE7A
:1047500008B13348F8BD15F01C0F4B7801D0012B80
:10476000F7D004F01F00800000F1A04091F800E0B5
:10477000D0F800C789785B002CF4E16C43EA0E2383
:104780002CF0070C43EA0C0343EA810345F00305D0
:1047900043F0010326F81750C0F800370AB9214842
:1047A000D8E71E4E04F1080736F817008307D0D566
:1047B00092F800C06146890020F0200001F180419C
:1047C000C00401F5C041C00C26F817000023C1F851
:1047D00010355578002DE2D0D1F81035927823F4B9
:1047E000981323F4F853C1F81035D1F810E52302DB
:1047F00003F4F8532D0443EA0E0305F44035120583
:104800002B4302F4801240EA4C30134340F0200066
:1048100026F81700C1F81035C1E700BF38000020A6
:104820000400AD0B0000AD0B014BC3E90201704762
:104830003800002008B50246FFF766FE38B1054B88
:104840000548083233F812305B0B0B7008BD034883
:10485000FCE700BF380000200000AD0B0400AD0BEA
:1048600038B50F4C94F85850BDB94022294604F190
:10487000100002F0F1F80620FDF76EFD094B0A4822
:10488000C3F87C51D3F87C214FF00042C3F80423D5
:10489000012384F85830636538BD0448FCE700BF45
:1048A00038000020006000400000AD0B0500AD0B9B
:1048B000034B93F85800003818BF0120704700BF21
:1048C0003800002001460148FFF780BD8800002025
:1048D00001460148FFF754BD8800002010B502468C
:1048E000FFF712FE02F108041C4B33F81430E0B15C
:1048F00013F0020419D15B0B9A0002F1804000F51D
:10490000C24002F1804202F5C04204600068D2F861
:10491000100540F00100C2F8100529B1012202FA89
:1049200003F30F4AC2F8043310BDC3F38203042B10
:1049300010D0052B10D04FF0A043D3F8101502F083
:104940001F03D94001F001010231BDE810401046BB
:1049500002F05CBA0321F8E70221F6E738000020F4
:104960000060004008B50246FFF7CEFDC0B102F17D
:1049700008010E4B33F81130990711D45B0B01225B
:104980009A409B000A4903F1804303F5C043C1F8F4
:104990000823D3F8102522F00302C3F8102508BD20
:1049A000BDE808400021104602F030BA380000206F
:1049B000006000400D4B00F1080210B533F81230D2
:1049C000DB0704460FD5FFF7CDFF204604F01F0498
:1049D000FFF7ECFD04F5E0744FF0A043022243F82A
:1049E0002420034810BD0348FCE700BF3800002026
:1049F0000000AD0B0400AD0B2DE9F74F4E4B4F48B7
:104A00004F49002501222C461E6836B1D0F80463B8
:104A100016421EBF1C601E68154304338B424FEACA
:104A20004202F1D1454BD3F87C31BBB14FF0A046E7
:104A3000D6F820350193C6F8203501AF4FF00108B4
:104A4000019C6CB93D4BC3F87C41D3F87C31D6F85E
:104A500020350193C6F82035002BEED1012466E005
:104A600094FAA4F4B4FA84F4364A04F10803E00892
:104A700032F8131004F0070308FA03F23B5C23EA50
:104A800002033B54A30003F1A049C1F3820AD9F801
:104A90000027CB06D346C2F3014218D5594620461B
:104AA0005FFA82FAFFF73AFDD9F80037C3F3014302
:104AB0009A4507D10021204602F0A8F95146204628
:104AC00002F0A4F908FA04F4C6F82045B8E7022A6F
:104AD0000CBF03210221204602F098F9BAF1030F1E
:104AE00004D0022A07D1BAF1010FEBD15946204672
:104AF000FFF714FDE6E7032AE4D1BAF1020FF4E769
:104B000095FAA5F3B3FA83F304FA03F29B0003F1D9
:104B1000804303F5C04325EA0205D3F81005D3F816
:104B20001015C0F30420C1F30141FFF7F7FC002D7D
:104B3000E6D103B0BDE8F08F0061004000600040A6
:104B4000206100403800002001460148FFF718BCF2
:104B50009400002070B5044615460E46B1B1AAB1C6
:104B600001238340C3F3130393B10B4B0146186831
:104B700002F0B5F870B1E00000F1804000F5F830C7
:104B8000C0F81065C0F81455044870BD0448FCE72F
:104B90000448FAE70448F8E7940000200000AD0B51
:104BA0000900AD0B0400AD0B0500AD0B10B5114CA9
:104BB000114A1249032323616361114BA261E3612E
:104BC0004FF4806323620023A3626362E362226680
:104BD0000C4A6266E01D1022A2662367E3666367E3
:104BE00001F015FF0849204601F011FF2023A371B1
:104BF00010BD00BF1C0A0020CB7C0000D47C00004C
:104C0000D00D0020C00D0020D87C00002DE9F84F09
:104C1000234F4FF0180B14460BFB00720646936AA5
:104C2000556AAB42884634D8D2F820A0AAEB0509D1
:104C300009F1FF32944211D84FF0180906FB09938D
:104C40003B44224658684146284401F0FAFE09FBDD
:104C500006762C4474620120BDE8F88F13449C4210
:104C60001BD800FB0BBBBB444A46DBF804002C44BA
:104C7000284401F0E6FEB4EB0A0406D0DBF8040099
:104C8000224608EB090101F0DCFE182000FB067645
:104C9000E0E7013B5B1BA342CED20020DCE700BF74
:104CA0001C0A002070B5164B182400FB04451D4457
:104CB00004FB00331646DC6A012C0ED0022C18D0FF
:104CC000E4B9284602F0B0F8864204D832462846B5
:104CD00002F0B3F83446204670BD284602F0A4F82E
:104CE0008642344628BF04462246284602F0A5F8EC
:104CF000F1E72846BDE8704002F0BBB80024EAE7BF
:104D00001C0A0020034B182202FB00339A6A586ADF
:104D1000801A70471C0A00200E4B70B553F82040D3
:104D2000013053F82060A64200D870BDD4E90035A8
:104D30002846984765B1EB6830B10028B8BF4042BB
:104D4000FF28A8BFFF2018705A7842F001025A705D
:104D50000834E8E7207600002DE9F04786B00546E4
:104D600000AF0E464FF02003EFF3118883F3128853
:104D7000BFF36F8F00F046FF042D96BF2C4B2D4BD9
:104D800053F825302C49E9468AB06A464FF0000AAC
:104D9000D361032382F82430284BC2F820A0C2E953
:104DA0000515044642F8103F254853464FF4295153
:104DB00001F0D6FDCD467EB1F369C3F308035BB1C4
:104DC000204B7B6102233B611D48534607F11002D3
:104DD0004FF4825101F0C4FD2CB1204602F091F84D
:104DE00008B1037803B91848184BE9468AB06A46F7
:104DF000C2E90534032382F82030154BD06142F814
:104E0000103F00230E484FF4095101F0A9FD31462F
:104E1000CD462846FEF7DEFE88F31188BFF36F8F7C
:104E20002046FDF713FF1837BD46BDE8F08700BFE9
:104E300038760000DF7C0000F57C000005000001F2
:104E4000807400001D7D0000ED7C00003E7D0000B0
:104E50000400000108B50A4B012202201A70FFF776
:104E60005BFF01F023F90320FFF756FF00F03AF94A
:104E7000FBF7A4FA034A137B23F00103137308BD65
:104E8000D01100206806002008B50348034A00211D
:104E9000121A02F029F808BD10010020D4110020D8
:104EA00070B5002386B00122CDE90423134E144DC2
:104EB00001930F22CDE902321249182303FB00555A
:104EC00006EBC01604464FF4907000FB04110E4B25
:104ED00000954FF48072304600F0A6F8737B0B48C3
:104EE0002C7523F0040373734FF4026303FB040473
:104EF0001C44EE606C6006B070BD00BFE805002089
:104F0000C40A0020201900209D510000401A0020F2
:104F100080B52D4BA6B083F308882C4D2C4E6B69C1
:104F20002C4F43F4007300246B61E02385F822309A
:104F3000EC772C766C76AC766B6A43F4E0236B628C
:104F400085F82340FDF7F6FDFDF782F94FF0FF33BA
:104F5000AB62EB62FDF748FFFDF78EFEFCF720FC2D
:104F600040F20113ADF8243006ABB360CDE91F4425
:104F7000229401F0AEFF2046FFF7CEFE0120164D31
:104F8000FFF7CAFE00F090FD144BF5610593012375
:104F900013490094CDE903434FF480623B46CDE9C9
:104FA0000144284600F040F86A7B064622F00402DD
:104FB00028466A7302F03DF82046FFF771FF3A4633
:104FC00031462846FDF7C0FA6022002000ED00E0DF
:104FD000C40A0020554E00006806002051760000EB
:104FE0000015002070B50E4B0E4CA34201D30020DB
:104FF00070BDD3E9030141EA000212F003020BD1B4
:105000009D685A61AA4201D11C33EEE75E690E60C9
:10501000013259610144F5E76FF01500E8E700BF80
:10502000E8000020E80000202DE9FF410E9E0673F5
:10503000042646730D9E867300F158050F46D61D53
:10504000C0E916550C9A002526F007062037C0E95E
:105050000655C0E919768560C573C56606F1200856
:1050600002920B9A019288440A9A009242460446A0
:10507000FDF738FA044B65659B6803B11B6F236726
:10508000404604B0BDE8F081C40A0020F0B587B006
:1050900000270597109F04970F9F03970E9F029775
:1050A000DDE912650D9F01970C9F00970446FFF7FD
:1050B000BBFFB5F1FF3F08BFB6F1FF3F05D055EA92
:1050C000060305D1204600F0E9FB204607B0F0BDFD
:1050D000034932462B4604F1180000F061FEF4E764
:1050E000537000002DE9F043294C2A4D87B0264625
:1050F000AE4204F130040FD300F0EAFA244CDFF89A
:1051000098904FF4004640F2E737AC4220D307B006
:10511000BDE8F04300F0ACBC54F8043C059354F8EF
:10512000103C049354F8143C039354F8183C029335
:1051300054F81C3C019354F8203C009354E90C01B2
:1051400054E90A23FFF770FF54F8303C5E65CEE760
:10515000636A5A1C0DD023EAE37300213846C3FB6F
:10516000060151EAC333D4F8008004D1404600F070
:1051700095FB3034C9E74FF47A720023FAF7B0FF99
:1051800002460B4608F11800494600F009FEF0E718
:10519000AC000020AC0000205370000008B50B4CA0
:1051A0000B4D4FF02002EFF3118382F31288BFF30F
:1051B0006F8F01F0FAFF2B78A06113B9FDF74EF85D
:1051C000EFE7FCF76BFF0028EBD1F7E7C40A0020FC
:1051D000D01100202DE9F341044617461E464FF03A
:1051E0002003EFF3118883F31288BFF36F8FC36836
:1051F000324A6BB180689168884219D057EA060339
:1052000018D188F31188BFF36F8F6FF00F000CE097
:10521000916891F90E1021610133E3609368A360F6
:1052200088F31188BFF36F8F002002B0BDE8F081D2
:105230002169F0E791F90E1090F90E309942A8BF5C
:1052400019466FF07E029142B8BF11468B422EDDA7
:1052500001F062FE0546CDE9007619482246414636
:1052600000F078FB0028E0D04FF02003EFF3118628
:1052700083F31288BFF36F8F236821699C420AD0A1
:105280004BB193F90E309942A8BF19466FF07E03D7
:105290009942B8BF1946A06801F03EFE00B945B179
:1052A0000748314600F002FA6FF00A00BDE700251A
:1052B000D1E786F31188BFF36F8FF5E7C40A0020AA
:1052C000D111002038B583680446002B32D01C4A27
:1052D0009268934231D1DA7B013ADA73C368012BC9
:1052E00005D9013BC36000F0C3FB002038BD4FF07F
:1052F0002003EFF3118583F31288BFF36F8F0169E9
:10530000806801F009FE204601F004FFA06058B15A
:1053100090F90E2022610022826701F08AFE09487E
:10532000294600F0C3F9DEE7E06085F31188BFF39A
:105330006F8FD8E76FF01500D8E74FF0FF30D5E753
:10534000C40A0020D111002038B504464FF02003D4
:10535000EFF3118583F31288BFF36F8F01F0DAFE4C
:1053600048B10022826701F064FE29460548BDE885
:10537000384000F09BB9D4E902329A4218BF013399
:10538000A360F2E7D111002013B54FF02004EFF332
:10539000118184F31288BFF36F8F846844B1013C9C
:1053A000846081F31188BFF36F8F002002B010BDBD
:1053B00052EA030406D181F31188BFF36F8F6FF0B7
:1053C0000F00F3E7CDE900230246024800F0C2FADD
:1053D000ECE700BFD11100202DE9F04F474E85B01A
:1053E00004464FF0FF384FF0FF394FF02003EFF342
:1053F000118783F31288BFF36F8FD4F880508DB973
:10540000022104F1980001F0A2FD002835D100230B
:10541000CDE90089029304F188023946384800F04A
:1054200049FCE2E7D4F884202B68C4F88030954228
:1054300001D1C4F88430D4F8983043F00203C4F8A2
:105440009830EB6823F0040343F00103EB606B68D2
:1054500087F31188BFF36F8F284698474FF02003DA
:10546000EFF3118B83F31288BFF36F8FEB6899070B
:1054700023F001020BD4EA600EE004F19005002253
:105480000121284601F05EFE0028F8D1BFE7306810
:1054900023F00303EB6070B9D4F8983023F00203D3
:1054A000C4F898308BF31188BFF36F8FD8059CD464
:1054B00000F006FB99E70027D0F800A03B464268C1
:1054C000954201460CD1016897B9726831608242F9
:1054D00000D1716040F8083BFFF736FF39460023E2
:1054E000BAF1000FD8D050460F46DAF800A0E6E730
:1054F00072683960904208BF7760EBE7EC0A0020E1
:10550000D1110020F8B5C3689A0704460E46C3F3CC
:1055100040051FD45F071FD40A680AB982680A6071
:10552000D80744BFA368336037684CBF0225012504
:105530007FB31B4B9B68BB4211D101F0D9FC80F0BB
:105540000100C0B2D7F89830D907C3F3800223D541
:105550003AB140B96FF00F050023336013E000202B
:10556000F0E71B07F6D400232360D7F8843063B933
:10557000C7E92044384601F0F5FCE36843F0040332
:10558000E3603368A3602846F8BD1C60C7F8844018
:10559000F0E76FF01505DFE76FF01205DCE700BFFD
:1055A000C40A00200146014801F0E3BCF0060020D7
:1055B000F0B589B004460020C4E920000E9D04F136
:1055C0008800C4E9220004F19000C4E924001DB35E
:1055D0002879002840F2011008BF0120C4F8980083
:1055E00000204FF0FF364FF0FF37CDE90330CDE913
:1055F0000100CDE90667094B00942046FFF746FD00
:1056000025B1296811B1204601F078FC204609B087
:10561000BDE8F04001F077BC0120DFE7D95300007E
:1056200038B5074D2C6854B1FEF7CAFA054B04444F
:105630001C6128680021BDE8384001F0C6BD38BDB6
:10564000FC0A0020C40A0020F8B504460D464FF0BD
:105650002003EFF3118783F31288BFF36F8F104E8F
:1056600000214FF4004C40F2E730316100234FF449
:105670007A72E4FB0C01FAF733FD002C094B0ADCCB
:105680001860094BB0681D60FFF7CAFF87F31188E7
:10569000BFF36F8FF8BD0228B8BF0220F0E700BF4C
:1056A000C40A0020FC0A0020F80A002049B9EFF3E0
:1056B000058030B9054BDA699B689A4201D0FCF746
:1056C000BDBE81F31188BFF36F8F7047C40A0020FD
:1056D0004FF02003EFF3118183F31288BFF36F8F34
:1056E000044B9A68D37B013BD37381F31188BFF3DA
:1056F0006F8F7047C40A002038B502460C480D4D24
:1057000001F091FC044600B9EC68AB684AB95A7BD9
:10571000D20606D1A26922B9DA897F2A01D9EB61C2
:1057200038BD9C4202D02046FFF77AFFEC61F7E7D4
:10573000E40A0020C40A002070B590F90D20437BD4
:10574000002A014604DA03F07F03437301F033FCBF
:105750004B7B154A63F07F034B73D2E9083402F1A7
:105760002005AB421BD0D3B191F90E6093F90E0026
:1057700086420FD0801B00280CDD5868C1E900303C
:10578000016059609068431A5842BDE87040584122
:10579000FFF7B2BFA34202D01B68002BE6D1C1E9DC
:1057A000005421605162EDE7C40A002038B54FF083
:1057B0002003EFF3118583F31288BFF36F8F174B2C
:1057C000174A9C6811688C4207D12046FFF728FFD2
:1057D00085F31188BFF36F8F38BD00211160114A26
:1057E0001268C2B1E2897F2A15D8627BD20612D133
:1057F0000D4A94F90E10126891420CDB0B4A944248
:1058000009D01A69824203DC2046FFF795FFDCE7E6
:10581000121A1A61DCE70022FBE700BFC40A00206D
:10582000F40A0020FC0A0020F80A0020E805002005
:1058300070B490F90D20437B002A2ADBDA0628D1C8
:10584000826932BB144A63F07F034373D2E90834A0
:1058500002F12005AB4217D0B3B190F90E6093F975
:105860000E108E420BD0891B002908DD5A68C0E952
:1058700000321060586070BC0020FFF73DBFA342AB
:1058800002D01B68002BEAD1C0E9005420605062AE
:10589000F1E770BC704700BFC40A002010B54FF09C
:1058A0002002EFF3118482F31288BFF36F8F427BE3
:1058B000510704D484F31188BFF36F8F10BD22F019
:1058C00004024273FFF7B4FF21460248BDE81040CE
:1058D000FFF7ECBED111002008B590F90D20437BF5
:1058E000002A014604DA03F07F03437301F063FBEF
:1058F000044B9868431A58425841BDE80840FFF7E6
:10590000FBBE00BFC40A00202DE9F0410646154643
:105910001C464FF02003EFF3118783F31288BFF387
:105920006F8F01F0B8FB87F31188BFF36F8FB4F16D
:10593000FF3F08BFB5F1FF3F08D02A46234606F1D6
:1059400018000349BDE8F04100F02ABABDE8F08133
:105950005370000010B5074B9868074B0C46186051
:105960001146DDE90223FFF7CFFF2046BDE81040D6
:10597000FCF764BDC40A0020F40A0020F8B5044610
:105980004FF02003EFF3118683F31288BFF36F8F7C
:10599000437BDA0649B233D182698ABB03F07F03C5
:1059A000437301F008FB437B174A817363F07F0365
:1059B0004373104650F8203F83421BD0D3B1576A3F
:1059C00093F90E50A94210D06D1A002D0DDD5A68C2
:1059D000C4E9003214605C600120FFF78DFE0120F5
:1059E00086F31188BFF36F8FF8BDBB4202D01B68EE
:1059F000002BE5D1536AC4E900031C605462EBE755
:105A0000A1730020ECE700BFC40A002070B5044673
:105A1000183001F0B4FB4FF02003EFF3118683F34D
:105A20001288BFF36F8F94F90D20637B002A05DA8B
:105A300003F07F036373204601F0BDFA0B4D637BD7
:105A4000A86843F010036373031B58425841FFF7E3
:105A500053FE86F31188BFF36F8FAB68A34203D167
:105A6000BDE8704001F0D5BA70BD00BFC40A002087
:105A700010B54FF02003EFF3118483F31288BFF3C6
:105A80006F8F084B9A68D37B0133D3730020FFF7E5
:105A900033FE84F31188BFF36F8FBDE8104001F02F
:105AA000B8BA00BFC40A0020044B002103F1200251
:105AB000C3E908220846FFF7C7BD00BFC40A00209B
:105AC000F8B54FF02003EFF3118583F31288BFF38D
:105AD0006F8F1A498868437B03F07F03437301F09B
