:1000000000290020F1340000398C0000C5340000C4
:10001000C5340000C5340000C534000000000000F5
:10002000000000000000000000000000192E000089
:10003000C534000000000000C52D0000C5340000DC
:10004000C92E0000D94D0000C92E0000C92E0000A5
:10005000C92E0000C92E0000C92E0000C92E0000C4
:10006000C92E0000C92E000019670000C92E00002B
:10007000C92E0000C92E0000C92E0000C92E0000A4
:10008000C92E0000C92E0000C92E0000C92E000094
:100090001D4E0000C92E0000C92E0000C92E000010
:1000A000C92E0000C92E0000C92E0000C92E000074
:1000B000C92E0000C92E0000C92E0000C92E000064
:1000C000C92E0000C92E0000C92E0000C92E000054
:1000D000C92E0000C92E0000C92E0000C92E000044
:1000E00053B94AB9002908BF00281CBF4FF0FF319F
:1000F0004FF0FF3000F00CB8ADF1080C6DE904CE04
:1001000000F004F9DDF804E0DDE9022304B07047F3
:10011000704700BF70B5174C6078002823D10120CC
:10012000607000F061FA6FF0270528B900F072FAEC
:1001300010B900F079FA20B10F486060A57008206E
:1001400010E000F033FA40B900F03AFA28B900F0B4
:1001500041FA10B900F052FA30B10748313060600E
:10016000A5700420E07070BD40F23F11742000F0D3
:1001700055F8000000000020D4060000064A00B533
:1001800092F90320904201DB104600BD00F008F810
:100190000249085600BD000000000020C60600000D
:1001A0000246134810B590F903309A4201DB0D2046
:1001B00010BD90F902309A4201DC002010BD01B15F
:1001C0000121D41A4368185D0A4C24569442F5D094
:1001D000084C08443F34C0B2D2B2A342EED1002949
:1001E000ECD0012A01D0022AE8D1401CC0B210BDD7
:1001F00000000020C6060000BFF34F8F05480168CD
:10020000054A01F4E06111430160BFF34F8F00BF65
:10021000FDE700000CED00E00400FA050EB572B633
:100220000F4A5568D5B1002203466E460A2403E002
:10023000B0FBF4F0521CD2B20028F9D1B05409E05E
:10024000B3FBF4F004FB1030B3FBF4F3521ED2B254
:100250003030B054002AF3D13046A847FFF7CCFF26
:1002600008000020550600008D06000077060000FB
:1002700065060000710600005F06000053060000DE
:1002800051060000890600007D0600006B06000094
:10029000590600004B060000430600004706000018
:1002A0003D060000014909688969084710000020DF
:1002B00001480068006800471000002001480068FD
:1002C0004069004710000020014A1268D2681047B8
:1002D000100000200148006800690047100000205D
:1002E000014A12689268104710000020014909680D
:1002F000496A08471000002030B4034C2468646841
:10030000A44630BC60470000100000202DE9F047F3
:1003100086468C460846089E154674461946002BAC
:1003200040F0C2808542B2FA82F245D94AB1C2F1A8
:10033000200300FA02FC2EFA03F3954043EA0C0C6A
:1003400094404FEA154EA8B2BCFBFEF8230C0EFBFE
:1003500018CC08FB00F943EA0C43994528D9EB185F
:1003600008F1FF3704D2994502D9A8F102072B44BE
:10037000A3EB0903A4B2B3FBFEFC0EFB1C330CFB86
:1003800000F044EA0344A04214D92C190CF1FF33C5
:1003900004D2A04202D9ACF102032C44241A43EA4D
:1003A00007401EB1D440002334607360BDE8F0877D
:1003B0004746DDE76346F1E792BB431B01214FEA65
:1003C000154EAFB2B3FBFEFC200C0EFB1C330CFB36
:1003D00007F840EA0343984562D9EB180CF1FF3067
:1003E00004D2984502D9ACF102002B44A3EB0803D8
:1003F000A4B2B3FBFEFC0EFB1C330CFB07F744EA74
:100400000344A7424ED92C190CF1FF3304D2A74262
:1004100002D9ACF102032C44E41B43EA0040C0E7DC
:10042000C2F1200320FA03F1954090402EFA03F325
:1004300003434FEA154EAFB2B1FBFEFC0EFB1C109E
:10044000190C0CFB07F841EA0041884504FA02F454
:1004500022D969180CF1FF3004D2884502D9ACF1D9
:1004600002002944A1EB08019BB2B1FBFEFC0EFB8C
:100470001C110CFB07F743EA01439F420ED9EB180E
:100480000CF1FF3104D29F4202D9ACF102012B449E
:10049000DB1B41EA004192E76046E3E76146F7E78C
:1004A0006046A3E76346B7E7834206D916B9002141
:1004B00008467BE7C6E900E0F9E7B3FA83F78FB9AE
:1004C000834201D3724508D8BEEB020460EB0303FC
:1004D00001209C461EB9002168E73846FAE7C6E9C4
:1004E000004CF8E7C7F1200CBB4022FA0CF41C4387
:1004F0002EFA0CF120FA0CF3B84001434FEA1449EC
:100500000EFA07F5B3FBF9F81FFA84FE09FB183061
:100510000B0C08FB0EFA43EA00439A4502FA07F275
:1005200040D9E31808F1FF3004D29A4502D9A8F166
:1005300002002344A3EB0A0389B2B3FBF9F809FBD9
:10054000183308FB0EFE41EA03418E452CD9611891
:1005500008F1FF3304D28E4502D9A8F102032144E9
:1005600043EA0040A0FB0298A1EB0E014145CE46B4
:10057000434602D306D14D4504D2B9EB020E68EBD7
:1005800004030138002EA6D0B5EB0E0261EB030187
:1005900001FA0CFC22FA07F34CEA0303F940C6E91E
:1005A000003198E74046C5E74346D9E74FF0805011
:1005B000D0F830010F2801D000207047012070478B
:1005C0004FF08050D0F830010A2801D00020704749
:1005D000012070474FF08050D0F830010E2801D034
:1005E00000207047012070474FF08050D0F8300154
:1005F000102801D000207047012070474FF0805034
:10060000D0F83001062803D0401C01D000207047EC
:10061000012070474FF08050D0F830010D2801D0F4
:1006200000207047012070474FF08050D0F8300113
:10063000082801D000207047012070474FF0FF309C
:10064000704700207047002070474FF0FF30704720
:1006500070477047002070470021017070474FF0CD
:10066000FF3070474FF0FF30704700210170704736
:100670004FF0FF3070474FF0FF3070470078002890
:1006800001D06FF01500704700207047002200F085
:1006900002B8FFF73FBD70B514460D46001B6FF062
:1006A0007F01884201DA084602E07F2800DD7F20D2
:1006B000194640B2FFF762FD28706C70002120449B
:1006C000A97040B270BDD8ECF0F4F8FC000203044D
:1006D0000506070800000000000000000000000000
:1006E00000000000000000000101010102020202FE
:1006F00003030303040404040505050506060708AF
:10070000090A0B0C0D0000000000000000000000B2
:1007100000000000000000000001010101020202CF
:100720000203030303040404040505050506060685
:100730000809000070B586B000F054FA00F01CF80B
:100740004FF40040002107F0A1F8094E094C0225A2
:10075000CDE90456002304AA4FF48651204601F047
:10076000AFFD002140F6CD4007F090F8F0E700BF64
:10077000C49F0000609D000070B5294C294D2A4E91
:100780008EB0206808F0FEFD002837D0E368002B0B
:100790002FD1264B24480D9302240CAA4FF48651E6
:1007A0000C9407F07BFB224B1F480CAA4FF4865198
:1007B000CDE90C4307F072FB00220023CDE90623AC
:1007C0000023CDE90333CDE90133009319491A4BD6
:1007D0001A484FF4806206F065FAC8B9184BCDE9A3
:1007E0000C430CAA4FF482510F4807F057FB0EB090
:1007F00070BD186808F0C6FD0028CAD102230CAAF3
:100800004FF4825130460D950C9307F047FBB8E743
:100810000C4B0CAACDE90C434FF48651E4E700BF22
:1008200014000020CE9F0000709D0000DC9F00009F
:10083000E99F000000140020AD08000058020020CD
:10084000FD9F000018A0000010B58AB0036813498E
:10085000009343680193012351F8040BCDF808D0AD
:100860000393836802AA1C680023A04748B10C4B7D
:1008700009930C48022308AA4FF48251089307F009
:100880000DFB094B09930748022308AA4FF4865130
:10089000089307F003FB0AB010BD00BF140000204E
:1008A0002BA00000709D000043A00000F0B5144F85
:1008B000144E154C89B04FF0FF324FF0FF333846DD
:1008C00006F04AFB01900028F5D04FF4865106AAA5
:1008D000204602250796069507F0E0FA01980430B5
:1008E000FFF7B2FF094B204606AA4FF48651CDE927
:1008F000065307F0D3FA064801A908F068FDDAE7C5
:10090000400200204FA00000709D00005BA000008E
:10091000F801002010B588B00446002211480023D9
:1009200001A906F05FF9A8B9019808222146043010
:1009300008F0A6F901990C4808F007FE0B4B079345
:100940000223069306AA4FF48651094807F0A6FA37
:1009500008B010BD074B07930223069306AA4FF475
:100960008251F2E7F80100204002002064A000005C
:10097000709D000075A000002DE9F04F89B0E84699
:1009800000AF364BFB61364D36480223BB6107F1A1
:1009900018024FF4865107F084FA284604F006FD49
:1009A000002857D1297A95F807B095F906303B60B1
:1009B0000A0202F470624BEA02036A7A7B60160351
:1009C000120146EA111602F47062AA46164388B074
:1009D0001AF8051F36B26A4623484FF00309C2E9E8
:1009E000050142F8109F1F484FF4C65107F059FA0D
:1009F0006C46A3463B681D4A6261A3614BF8109F99
:100A000018485A464FF4C65107F04BFAC546A5465A
:100A1000174B63617B681348A361C4F810905A4672
:100A20004FF4C65107F03DFAC546A546114B0D4897
:100A3000C4F81090C4E905365A464FF4C65107F081
:100A400030FA2B78C7F808A0C546FB6007F108000C
:100A5000FFF760FF2437BD46BDE8F08FA8A0000077
:100A6000F20C0020409D0000B1A00000C6A00000D4
:100A7000D0A00000D7A00000044B93F8253023B18C
:100A80000378022B01D1FFF777BF7047F20C0020EB
:100A9000B0B58AB0002000AF02F0C6FF80B9204B8D
:100AA0007B6202231F483B6207F120024FF4825110
:100AB0006FF0050407F0F5F920462837BD46B0BDB4
:100AC00000237B60FB6039460123BB6007F0A3FC79
:100AD000041E0FDA6D4688B06A46134B1148C2E90E
:100AE0000534032342F8103F4FF4C25107F0D9F9FF
:100AF000AD46E1E7BB689B07FCD1FC6824B16D46BD
:100B000088B06A46094BE9E7094B7B620223054836
:100B10003B6207F120024FF4865107F0C2F9CBE7A0
:100B2000DEA00000409D0000FEA0000017A1000014
:100B300036A1000030B54FF0E73291B04FF0C2332C
:100B4000CDE901231F4A204D1068516803AB03C350
:100B50001C460FCD0FC42B68236001238DF8153080
:100B60008DF81D30194B069305A840F20113ADF81E
:100B7000263004F0EDFA044660B1154B0F9315488A
:100B800002230EAA4FF482510E9307F08AF92046F1
:100B900011B030BD01A804F0B1FC044608B10E4B01
:100BA000ECE702A804F0CCFC044608B10B4BE5E7E7
:100BB000082103A804F0E6FC04460028E7D0084B0F
:100BC000DCE700BFB5A10000B09D0000790A00007D
:100BD00047A10000409D00005EA100007BA1000035
:100BE00098A10000F0B51D4E87B0002500AF86F833
:100BF0002550FFF74DFF041E12DBFFF79BFF041E7D
:100C000012DA6D4688B06A46154B1648C2E90534BB
:100C1000032342F8103F4FF4C25107F042F9AD46AA
:100C200020461C37BD46F0BD04F010FC041E04DA5B
:100C30006D4688B06A460C4BE7E70C4B7B61094870
:100C4000022307F110024FF486513B6107F029F9A6
:100C5000012386F825302C46E2E700BFF20C002085
:100C6000BEA10000409D0000D6A10000EEA1000042
:100C70002DE9F04F91B08407009302F00403029332
:100C8000C2F3C20303F10103DDF868800392054655
:100C90000E46059340F0BE81041D30B1072909D8E6
:100CA0006FF01B0011B0BDE8F08F01F00706341D96
:100CB000C6F10806009B4FF00009591E4FF0040AC8
:100CC0004FF0FF330193CDF810904F46CB4653467B
:100CD0000DB1009A22600598002800F3EB809A4835
:100CE000009A824203D399488242C0F0E380039A7B
:100CF000A4EB050E92074FEA9E0000F106810F2F2C
:100D000000F2B480002D00F0088107F140020DEBE5
:100D1000020C019A0CF8200C0CF8102C04980130ED
:100D20000490EAE07A2860D84B280ED847285CD88F
:100D300029282FD8252855D057D820287DD02338CA
:100D4000D0F1000B4BEB000B77E0A0F14C0CBCF1A9
:100D50002E0F4AD8DFE80CF0714949494949494901
:100D6000494949494C49494949494949495A494CDC
:100D70004C5A5A5A714C6E497149184C184949835A
:100D8000804C49494C49800000204FF0000B4FF047
:100D9000040A39E0A0F12A0C5FFA8CFC012202FA65
:100DA0000CFC1CEA0E0F48D11CF062502ED11CEA3C
:100DB000020B42D0013C5444CAF1000C04EA0C047A
:100DC000002D61D0A3EB050CA444B4453FF668AFF9
:100DD000002868D1042B47D158F8043B2360043421
:100DE00004232AE0019A013A01924FF0000B24E01B
:100DF00011F8010C6C2834D111F8023C00206C2B46
:100E00008346C4D14FF0080A5346D3E708F10708D8
:100E100028F007080734F8E802AB24F0070435B1DE
:100E200006982044B0423FF63BAFC4E900AB08341B
:100E30004FF0000B4FF0080A534611F8010F00283D
:100E400078D0BBF1000F7FF46DAF2528F5D1019B61
:100E5000013301934FF0010B4FF0040AECE75846C1
:100E600093E700208346A5E7082B02D06FF015001A
:100E700018E708F1070828F00708F8E80223C4E992
:100E8000002308340823D8E768B9042B02D108F1FD
:100E90000408A4E7082BE9D108F1070828F007089F
:100EA00008F10808EDE7059A013A059258F8042B75
:100EB00000920DE7039A900720D5A4EB050E4FEAA8
:100EC0009E004FF0010CBEF5007FCFD20F2FCDD882
:100ED000F5B107F140020DEB020EC0B2019A0EF817
:100EE000200C0EF8102CBCF1000F3FF417AF60F08F
:100EF0007F000EF8200C09F101090137C5F1080245
:100F0000043406924FF6DA7E97E74FF0000CDAE7EA
:100F1000BCF1000F01D00136EFE70298023600283D
:100F2000EBD10098CDE9063107F09AFEDDE90631F4
:100F30000644E2E7631BB3F5806F97D245B9A6F18B
:100F40000804E018AEE600BFDC9A0000A0AB000089
:100F5000029A28609B082B709DF81030C2B1EB708C
:100F600085F80290B9F1000F05D008A80022C5F15C
:100F7000010C97420ED1C5F101030DF120084FF08D
:100F8000000A01930DF1300B574512D1601B89E621
:100F90006B70E5E710F8013B190608D504EB0C0E61
:100FA000B64503F07F033FF67BAE04F8013B013208
:100FB000DFE7B9F1000F03D098F90020002A17DB12
:100FC000029BD3B11AF80B2004F8012B0022019BDD
:100FD00098182044B0423FF663AE98F8000004F839
:100FE000010B00990392204607F04AFE039A14442D
:100FF0000AF1010A08F10108C6E798F8002055F83F
:1010000022300093029B45F82230009807F028FE1A
:10101000421CDCE76FF00D0044E600BF2DE9F04F05
:1010200095B000AF0446D7F878B0BB61CBF3C003EE
:101030007A623B61396251B903784678807800EB77
:10104000830020443B6A9E421AD8031B3B6294F8FB
:1010500002A0E3787B615646BAF1000F02D01BF084
:10106000010F17D17B695BBB7B6A1BB1BA69396A17
:10107000204698473D6A28465437BD46BDE8F08F64
:10108000451C284607F0ECFD3B6A0130013328443B
:101090003B62D7E794F800806368FB617B6A4FEAA4
:1010A0008802FA6004EB8808002B40F001813D6A59
:1010B000C1460AEB080300264B454ED1D04413E04D
:1010C0001BF0020FD0D094F800804FEA8803FB6039
:1010D0006368FB617B6A04EB8808002B78D13D6A6A
:1010E000BAF1000F4ED156461BF0050F0CBF02237C
:1010F00001237B627B6908EB430A0BF002033B622E
:10110000D045B8D018F8021B18F8013C54F82390C9
:10111000AC4B994502D3AC4B994539D33B69002B75
:1011200043D0F86906F0F1FE00283ED0E9468AB0C7
:101130006A46A64B5361FB69C2E906314FF400735E
:101140001384A34B42F8103FA24800234FF41251DE
:1011500001F0B6F8023DCD46D2E719F8012B7B62CB
:1011600054F8220007F07CFDFA6F7B6A01303AB137
:10117000D7F8802096423EBFFA6F22F8160001365B
:10118000054499E71BF004061CBF7E6AD044ABE718
:101190003B6923B1F86906F0B8FE0028C6D11BF000
:1011A000010F05D17B6AED1AAAE73B6A002BA7D095
:1011B000484607F055FDFB6F43B1D7F880309E429B
:1011C0003FBFFA6F431C22F816300136054497E7FB
:1011D000BAF1000F71D01BF0040671D0D146002681
:1011E00007F140005246414607F04AFD7B695B002B
:1011F000BB607B69D04408EB43037B610BF00203C7
:101200007B607B6998455DD12378FB6163781BF037
:10121000020F06EB03020CBF4FEA590100211BF03D
:10122000010FD2B240F09D801BF0040F14BF48465E
:10123000002094F802B094F803803B616270A070C3
:10124000E170BA69F9687B6A20469847051EFFF687
:1012500012AFFB6923703B69637084F80380BA693D
:101260007B6A84F802B0494607F140009847B0F124
:101270000008C0F2A3803B6ABA697869A3EB0A014F
:10128000FB68C91ABB68C91A7B6A98470028C0F274
:101290009780A84408EB00054FF0000B07F1300AD7
:1012A000B34560D30021BA697B6A08469847E2E6F5
:1012B0004FF0000907F1300094E75646D14695E714
:1012C000B14693E718F8021B3E4A18F8015C54F83F
:1012D0002530934202D33C4A93421CD33B6923B14D
:1012E000F86906F012FE00288BD17B68F3B909F18A
:1012F000280207F12800024409F1010302F8101C3A
:1013000007F1500252FA83F309F102095FFA89F9F1
:1013100003F8105C75E73B692BB1F86906F0F5FD41
:1013200000287FF46EAF1BF0010F09D006F12802F0
:1013300007F12801731C561806F8205CDEB260E73E
:101340001BF0040F3FF45DAF09F1280207F12801FB
:1013500009F1010302EB010909F8105C5FFA83F956
:101360004FE7002065E71BF80A3087F82F3054F864
:101370002390FB6FFBB133F81B80BA697B6A0121B4
:1013800007F12F00984700281ADB0544B8F1000F39
:1013900006D1484607F064FC00F101081FFA88F8FE
:1013A000BA697B6A414648469847002808DB0544ED
:1013B0000BF1010B74E7D7F87C80DEE745465AE66F
:1013C000054658E6DC9A0000A0AB000013A200001E
:1013D00004000001289D0000014B1860704700BF09
:1013E0003000002030B587B00025CDE90301044668
:1013F000009503A90548059500F018F9DDE90430CA
:101400009842B8BF255407B030BD00BF597F0000D7
:101410002DE9F047058B04462807904611D4022990
:1014200005F0070540F0CD80204606F091FF78B129
:101430000138218B042811D8DFE800F0C3106D8536
:10144000950001290CBF45F0100545F020052583C6
:1014500088F31188BFF36F8FBDE8F08701F0070AAA
:10146000AA4500F0A6800027B9463E46A368002B97
:1014700000F0BD8041F00801218388F31188BFF39B
:101480006F8FA168002900F0BB800D68002900F073
:10149000B780D1F80480334652462046C047002D1D
:1014A00076D02B6829461D46F0E701F007035A1F46
:1014B000012A1BD8002221F00701062B276889B2D8
:1014C000C4E9002209D13B4603E0628B013262830A
:1014D0001B68002BF9D141F002012183204606F060
:1014E00037FF00287BD041F0200177E0042B0AD1A0
:1014F00021F0070189B22183204606F029FF10B1AF
:1015000041F020012183218B01F0070AAA4550D028
:101510000027B946AAE7236921F0070141F0060137
:10152000062DD3F8009021832DD1B9F1000F40D0C2
:1015300041F00801218388F31188BFF36F8F3A4986
:101540002046C84729E021F00701236941F0040142
:1015500089B2042DD3F804902183E6D000273E46BB
:101560004FF0040A82E721F00701236941F00501E9
:1015700089B2052DD3F808902183D6D000273E46A6
:101580004FF0050A72E700273E464FF0060A6DE766
:101590002B4687E7B9F1000FD1D14FF04003EFF3AD
:1015A000118883F31288BFF36F8F238B23F0080316
:1015B0002383258BEA062ED525F01003238305F01F
:1015C00007056669218B002EBFF66FAF00232768E1
:1015D000C4E9003321F0070141F001012183218B8F
:1015E00001F0070AAA454FF000097FF43FAF002F32
:1015F0009BD041F00801218388F31188BFF36F8FDE
:10160000002FC7D03D68394633465246204606F083
:10161000CBFE2F46F4E7AB067FF51AAF25F020038B
:10162000238305F00705FFE6D58300002DE9F04F81
:10163000814695B08B4617461C460025387808B978
:10164000284658E37B1C2528039306D05946C847F3
:101650000028C0F250830135FBE1182200210EA8BA
:1016600007F019FB7B78252B7DD00023781C98464A
:101670009E469C461E46014610F8012B2B2A00F080
:10168000A18000F29880202A00F09F80232A00F099
:101690009F802BB19DF8403043F040038DF84030DF
:1016A000B8F1000F05D09DF8403043F020038DF8CD
:1016B0004030BEF1000F05D09DF8403043F01003DC
:1016C0008DF84030BCF1000F05D09DF8403043F05C
:1016D00008038DF840302EB19DF8403043F00403EC
:1016E0008DF840309DF8403003F04400442803D189
:1016F0006FF386138DF840309DF840302A2A43F06E
:1017000080038DF840307FD19DF8412042F00102E6
:101710004B1C8DF841201A782E2A9DF841200CBFD1
:101720000121002161F341028DF8412078D15A78DE
:101730002A2A6ED0013300224FF00A0C194611F804
:10174000010BA0F13006092E40F295809DF8401063
:101750001292C1F3400040EAD2700A4660F341029F
:101760008DF840205CE0BA1C03928DF843309DF860
:101770004130DA0740F12E8154F8048BB8F1000FA4
:1017800007DA9DF8402042F004028DF84020C8F1AD
:1017900000085E0740F1278154F804ABBAF1000F4E
:1017A00080F226819DF841306FF341038DF841307E
:1017B0004FF0FF3A1CE12D2A0DD0302A7FF469AF9B
:1017C000012358E74FF0010C55E74FF0010E52E7A7
:1017D0004FF001084FE701264DE70EFB0262303A59
:1017E0000346184610F8016BA6F1300CBCF1090F46
:1017F000F3D999428FD09DF840101192D20F62F325
:1018000041018DF8401086E70B4600224FF00A0E8A
:10181000E7E79DF8412042F004028DF841200233B1
:101820001A786C2A47D02BD8682A31D06A2A4BD034
:101830004C2A51D01A4612F8013B0392782B9DF89E
:1018400041208DF8433000F2BE806D2B51D8692BBA
:1018500000F2B980572B67D8412B03D0453B022BB0
:1018600000F2B1809DF84230042262F302038DF849
:101870004230012373E00CFB0202303A0B465DE775
:10188000742A25D07A2AD5D19DF8412006210CE072
:101890005A78682A9DF8412006D1012161F3C602D9
:1018A0008DF841200233C5E7022161F3C6028DF8AD
:1018B00041200133BEE75A786C2A9DF8412001D1BE
:1018C0000421EBE70321F0E79DF841200521ECE737
:1018D0009DF841200721E8E7BDF8402022F4F042BE
:1018E00022F0020242F4804242F00202ADF84020AF
:1018F000DFE76E3BD9B201238B4040F282410B42BD
:1019000037D113F0240F51D1D8075CD59DF8423060
:10191000032161F302038DF8423002F07803A3F152
:1019200040014B424B411AE0A3F15801C9B20120DA
:1019300000FA01F111F4624F94D140F601063142F0
:101940001DD111F4043F3ED09DF8423060F30203F4
:1019500002F07802402A8DF8423034D000239DF8FE
:101960004020C2F340010B4363F341028DF8402055
:10197000FDE69DF84230022161F30203E8E79DF89D
:101980004210022002F0780260F30201402A8DF832
:10199000421002BF9DF8401041F001018DF8401047
:1019A000632BDBD1131E18BF0123D8E79DF842300B
:1019B000032161F3020312F0780F8DF8423014BF57
:1019C00001230023CBE79DF8403043F001038DF85D
:1019D0004030C3E79DF94020002AB4BFDDF84480C1
:1019E0004FF0FF38D5E698077FF5E2AEDDF848A066
:1019F0009DF841100023CDE911339DF8423003F0EA
:101A00000703012BC1F3C30133D1CB1E042B04D830
:101A1000DFE803F0214646212100236801294FEA2F
:101A2000E372CDE90E321CD19DF93830DA17CDE9D9
:101A30000E3204349DF8403013F0030650D0039B5F
:101A40003A465946484606F0D6FD0028C0F2538172
:101A50000544039FF2E554F8043BDA17CDE90E3252
:101A6000E8E70229E5D11AB243F3C033CDE90E23EA
:101A7000DFE7022B24D1CB1E042B04D8DFE803F0D0
:101A8000181010181800012954F8043B4FF00002F8
:101A900014D00229CDE90E32CCD19BB20E93C9E706
:101AA000073424F00704F4E80223CDE90E23C1E74C
:101AB00054F8043B0E9300230F93BBE7DBB2CDE752
:101AC000042B08D1073424F00704D4E90023083498
:101AD000CDE90E23AEE7032BACD154F8043BDDE790
:101AE0009DF843007828B4D862281CD825283FF4F4
:101AF000ADAD5828ADD10DF136030093DDE90E01EF
:101B000008AB10AA06F031FDBAF1000F074680F2CB
:101B10009A80002F9DD00DF13603D81B002E00F0C7
:101B2000C1800130BEE06338152892D801A252F876
:101B300020F000BF091C00001B1C0000531A00000D
:101B4000531A0000531A0000531A00001B1C000017
:101B5000531A0000531A0000531A0000531A0000D1
:101B6000A91C0000411C0000671C0000531A000063
:101B7000531A00008D1B0000531A0000411C000086
:101B8000531A0000531A0000411C0000BAF1000F64
:101B90000E9F35DB5146384607F069F807EB000A1F
:101BA000002F3FF456AF00269DF8423013F010028C
:101BB000059200F0938002305B06119A48BF129B99
:101BC0000492104448BFC018B8F1000F40F3A08041
:101BD0009DF84020A8EB0008C2F38003500706934D
:101BE00000F19680510640F189803EB15946304659
:101BF000C84700287FDB069B01351E4630227EE069
:101C0000384607F02DF8C9E70E9B8DF820300026E6
:101C100008AF0DF1210A0120C6E719075CBFC3F325
:101C200000135E01DDE90E2348BF2B26002BBFF613
:101C300062AF524263EB4303CDE90E232D265AE7F0
:101C4000002658E700269DF840200DF13603DB1BE7
:101C50006FF386129A458DF840207FF65AAFAAEBB3
:101C60000303119355E70E9890B30DF136030093DB
:101C700010AA08AB002106F078FCBDF8423003F052
:101C8000EF0343F4F04343F01003BAF1000F0746AB
:101C9000ADF84230D6DA00283FF4DBAE0DF1360362
:101CA000181A00269A467FE70E9B07293FF6D1AE09
:101CB000DFE801F00C04060C08080C0C1D70C8E6E7
:101CC0001D80C6E6EA17C3E90052C2E61D60C0E601
:101CD0002E4F064607F1050A052065E71A0748BF9B
:101CE000013069E70793104606925946C847002815
:101CF000DDE9062304DA15B0BDE8F08F2022434663
:101D00001946002903F1FF33ECDC45446D1A98466F
:101D10002EB159463046C8470028ECDB01359DF806
:101D20004230DA0601D41B0705D559463020C84792
:101D30000028E0DB0135059B33B19DF8430059468F
:101D4000C8470028D7DB0135049E2E4405E05946DC
:101D50003020C8470028CEDB0135731B002BF6DC92
:101D600053463A465946484606F045FC0028C2DB31
:101D70000544A844A8EB0503002B7FF76AAE59463B
:101D80002020C8470028B6DB0135F3E7C7A20000D2
:101D900003F0FCBD2DE9F047DFF858800446074604
:101DA0004FF0010914B93846BDE8F08794FAA4F55C
:101DB000B5FA85F509FA05F32E0108EB05156FEA6A
:101DC000030A24EA03042B7B002BEBD058F80630DF
:101DD0001B694BB94644042273682846196807EA10
:101DE0000A0700F059FADDE7284698470028D9D1BC
:101DF000F0E700BFA09D000030B51049104889B041
:101E0000002207F05CFD0F4D0F4900220023CDE9B1
:101E1000062300240E23CDE90334CDE901440B4B06
:101E200000944FF44072284604F03CFF08492846CD
:101E300007F0FCFA204609B030BD00BF551E000077
:101E400060070020D8020020401800204521000033
:101E5000CDA20000014805F0B3B800BF2802002061
:101E60002DE9F04780461F480F4606F044FE06461F
:101E7000002830D000252846BDE8F087237B73B1C9
:101E80002368DB680BB12046984723681B69D3B9E8
:101E9000636804221968204600F0FEF90136103408
:101EA0004C45EBD3B8F1000FE5D0002DE2D0284629
:101EB000FFF770FF0546002FF7D000214FF4A47004
:101EC00005F0E4FCF1E7204698470028E0D00AFA44
:101ED00006F31D43E2E7044CDFF8109005464FF08F
:101EE000010ADDE788090020A09D0000B09D0000E8
:101EF000014B53F820007047EC9D000008B50346E5
:101F000008462BB1044A136000F078FC002008BD9D
:101F10006FF01500FBE700BF3400002010B5044C43
:101F2000237813B9034805F04BF80123237010BD43
:101F3000180D00202802002010B50446084806F0BD
:101F4000DAFD5CB1BFF35B8F064B53E8001F01392C
:101F500043E80012002AF8D1BFF35B8F10BD00BF29
:101F600080090020840900200020064BBFF35B8F0E
:101F7000014653E8000F43E80012002AF9D1BFF3ED
:101F80005B8F70478009002070B5FFF7EDFF084CAC
:101F9000084E0546B44200D370BD63685B792BB12F
:101FA00023685B6813B12946204698471034F1E74F
:101FB000A09D0000B09D000010B5044C04492046CF
:101FC00006F02AFC034B1C6010BD00BF7801002006
:101FD000D89D000078090020084A094808B5002368
:101FE0001370084A1360084A4FF400411360FFF76A
:101FF00085FFBDE80840FFF7DFBF00BF190D0020D7
:10200000F38A000080090020840900200146002294
:102010000148002306F021BC78010020014806F0A9
:10202000BABC00BF78010020024B0146186806F0D8
:1020300004BD00BF78090020014806F03ABD00BF8A
:102040007801002070B5284B187800284BD0FFF796
:10205000E5FF054690B1BFF35B8F244B53E8001FAB
:10206000013943E80012002AF8D1BFF35B8F204CFE
:10207000204EB4422DD32846FFF7D6FF1E4B1F4CEF
:102080001B68002B19DD07F0F2FB4FF47A72A0FBFE
:10209000020302FB0131C30BD4E9002043EA4143B0
:1020A0009B1A4FEAD13140F2E93261EB00019342D1
:1020B00071F1000101D3FFF767FFD4E9003213F596
:1020C0007A7342F10002C4E90032BDE87040FFF7C4
:1020D000B3BF63685B7923B1236829461B68204638
:1020E00098471034C5E770BD180D00208409002002
:1020F000A09D0000B09D000080090020580700202E
:1021000070B50D4D297861B90120FFF7A9FE0B4C80
:102110000B4EB44206D3FFF795FF0028FBD10123F5
:102120002B7070BD63685B791BB1236820469B6888
:1021300098471034EDE700BF190D0020A09D000066
:10214000B09D000000212DE9F0470846FFF788FE0A
:10215000044648B340F267684FF0000905F0B0FB51
:102160001A4B186030B11A4B1B68092B02DD194855
:1021700004F026FF184FDFF85CA0002544B120468C
:10218000FFF708FE044618B94FF0FF384FF0FF394B
:10219000FFF758FF064628B9B5B942464B465046A8
:1021A00004F034FF3546E9E74FF0FF384FF0FF39D0
:1021B000D4E72B689B691BB100221146284698473B
:1021C0001035BD42F5D3E8E7044DFAE77C0900205D
:1021D0008409002028020020B09D0000A09D00007E
:1021E00013B5184806F087FC174B1B787BB14FF0EE
:1021F0004003EFF3118483F31288BFF36F8FFFF76F
:1022000021FF84F31188BFF36F8F02B010BD0F4B15
:102210001B68002BF9D050B900220023CDE9002320
:102220000B484FF40042002305F08EFDEDE70A282D
:10223000EBD1074807F04FFB064802B0BDE810405D
:1022400004F0BEBE84090020190D00207C09002086
:10225000600700202802002010B5064B1B680446CA
:1022600098472146A060044806F075FBBDE8104081
:10227000FFF7B6BF3400002078010020044A054B68
:102280009B1AB1EBD30F34BF52F8310000207047D6
:10229000009D0000A09D0000084BC31A10B41B1144
:1022A00044680133237143689A7143681960436835
:1022B00001225A7110BCFFF731BE00BFA09D000083
:1022C0002DE9F04F8FB004AFC1F34A28B8600D4636
:1022D00091467B600C0DB8F1000F63D0002607F12A
:1022E00014034FF0040B4FF00A0AC7F80C80C7E93B
:1022F00007667E620193CDF808B0CDF800A007F123
:102300001C03F96832464846FEF788FEB0F5006FB8
:1023100003461CD36C468AB0D9F8041004AB264897
:10232000C3E9050140F2FF71D9611A464FF400710B
:102330001984224B42F8103F214833464FF4125182
:10234000FFF7BEFFA5462C37BD46BDE8F08FC0F3B2
:102350000A0804F11700184420F0070080083B60C9
:10236000FFF754FE68F35325044690B13B68154AC5
:10237000C7E9083600F1100107F11403F961CDE94E
:1023800000A3CDF808B0F96807F11C034846FEF732
:1023900045FE68F353257B68B9682A46204606F057
:1023A000E0FBD0E704F1170020F007008008FFF7FA
:1023B0002DFE0446EDE700BFE2A20000040000018C
:1023C000509D0000378B00002DE9F04F87B0DDE90C
:1023D0001269DDE9105A04460F4693469846A6B3A3
:1023E0001021CDF80090334652460020CDF81490CD
:1023F000FEF73EFC014605F117000844144B03911B
:1024000004F007040BF0070BE40020F0070003EAD8
:10241000412344EA8B1480081C43FFF7F7FD44EA8C
:102420000554054640B13EB10399CDF800903346BE
:1024300052461030FEF71CFC4346224639462846D9
:1024400007B0BDE8F04F06F08CBB3146D3E700BFC4
:1024500000FE0F000EB403B503AB014653F8042B86
:102460000448019306F0A3FB02B05DF804EB03B04F
:10247000704700BFD78B0000CA0605D48B064CBF3F
:1024800002490349FFF7E6BF704700BF22A30000DF
:1024900021A300002DE9F04F89B09B469DF84830FC
:1024A0000493DDE913930593049B0692DDE9157609
:1024B00004460D46002B00F0878006F008030793C2
:1024C00006F037FB06F0020A024600284BD0864988
:1024D0002046FFF7BFFF8046BAF1000F08D016F084
:1024E000440F42D181492A462046FFF7B3FF80447A
:1024F00006F001035BB17E4B049A7E4953F822201B
:102500007D4B2046002A08BF1A46FFF7A3FF06F0BE
:102510000803002B55D0794B049A794953F82220AF
:102520002046FFF797FF0546069B2BB175491A46D3
:102530002046FFF78FFF0544BBF1000F05D072491D
:102540005A462046FFF786FF05444544B9F1000F7F
:1025500049D1002F4FD1F30700F1C080314620460A
:10256000FFF78AFFB4E08046B6E7684B186800289A
:10257000BDD0674B4FF47A7E1B68B5FBF3F54FF483
:102580006162B5FBF0F300FB1355B3FBF2FA0EFBEF
:1025900005F502FB1A323C21B5FBF0FCB2FBF1F36E
:1025A00000FB1C5501FB13220EFB05F50092B5FB49
:1025B000F0F55849CDE901C552462046FFF74AFFDC
:1025C00095E706F00805AFE7BBF1010F06D1B9F1B9
:1025D000000F64D1002F7BD000250CE0B9F1000F73
:1025E000F8D04D485CE04D484D494B46224605F039
:1025F0005BFC002F68D0DFF82C91DFF82CA1102FA6
:1026000031462046B84628BF4FF01008FFF734FF88
:102610004FF0000B5D4545DC059B51461A7820467E
:10262000FFF718FF4FF0010B1BF0070F03D14946CE
:102630002046FFF70FFFD8453BD9059B514613F8BD
:102640000B202046FFF706FF0BF1010BBBF1100F2B
:10265000EAD1364920464FF0000BFFF7FBFE5A4601
:10266000059B9A5CA2F120015F2928BF2E223049E8
:102670002046FFF7EFFE0BF1010BBBF1100F1DD051
:102680001BF0070F03D149462046FFF7E3FED8456C
:102690005A46E5D849462046FFF7DCFEEBE71F48DF
:1026A000049DA1E749462046FFF7D4FE0BF1010B3C
:1026B000B0E720492046FFF7CDFEC5E7059BB7EB05
:1026C0000807434405939AD1049B002B7FF443AF42
:1026D000204609B0BDE8F04F06F070BA064A054939
:1026E0002046FFF7B7FE39E729A300002DA300001D
:1026F000FC9D00009FA8000024A30000109E000085
:1027000052A3000058A300005CA300009009002021
:102710008C09002036A300000D8C0000D78B000030
:10272000AF8B000069A3000061A300006BA3000051
:102730006DA3000067A300002DE9F0410F884B68EE
:102740008E6886B005460C469046C7F382175BB18B
:10275000134A9B1A43F3CF0100291FDB2078C0F3F3
:10276000C200FFF78BFD03462146608851F8102B0D
:102770000097C2F34A22002A01EB0204C0F30B10B7
:1027800008BF0021CDE90308CDE90114002231463C
:102790002846FFF77FFE06B0BDE8F0810023E3E79F
:1027A000009D000073B542F20F738B4228BF0B46A9
:1027B00005680F4A04460521684605F0EDFB63688D
:1027C0000C495B6806460B22284606F0E3F963686D
:1027D0003246694628465B6806F0DCF963680649BC
:1027E0005B681B22284606F0D5F902B070BD00BF19
:1027F00014A100008CA3000070A30000074A002170
:102800000123904206D8064A01B901231360054B03
:102810001860704740085B000121F2E740420F005A
:102820008C09002090090020014B01221A7070478A
:102830001A0D0020014B002019607047A8090020E4
:10284000024B034801221A7006F0B8B91B0D002094
:10285000409E00000148FFF7A5BF00BF409E00005A
:1028600010B5064B18680C46FFF742FB214603469D
:10287000BDE8104002480F22184700BFA8090020F9
:10288000409E000010B9074B18707047064B1B782C
:102890001BB141F2883006F0ECBFA420002104F007
:1028A000F5BF00BF1A0D00201B0D00202DE9F843D5
:1028B000DFF874901D4F80460E46042499F80050AE
:1028C00095B903F0FFFF28463246414603F07CFFEE
:1028D000054604F001F8E5B101233B7099F800309A
:1028E00073B93046BDE8F88332464146002003F014
:1028F0006BFF0546EFE72046FFF7C4FF651E2C4639
:10290000002003F0D5FF0028EBD03B78002BF2D15C
:10291000E7E73B78002BE4D0013C2046FFF7B2FF0D
:102920003B78002BCAD1DCE71B0D00201A0D0020DC
:102930002DE9F84305464FF04003EFF3118683F38A
:102940001288BFF36F8F0E4B0E4F1C68DFF8388074
:102950004FF00C092CB986F31188BFF36F8FBDE8D7
:10296000F883D4E90123002D18BF13462BB198F842
:10297000102009FB02F2B85C98472468EAE700BF20
:10298000C4090020B8090020940C002070B5194B30
:102990001C7CBFF35B8F04F01F0301229A40164B8F
:1029A000610903EB8103D04353E8001F01EA0005EE
:1029B00043E80056002EF7D1BFF35B8F0A4213D0D5
:1029C0000E4B0F4D8BB10C236343EA18E85C517832
:1029D00006F087F90020FFF7ABFF0C235C432A19B0
:1029E00000232B51C2E9013370BD83F31188BFF37B
:1029F0006F8FEFE7940C0020CC090020E38C0000DF
:102A0000B80900202DE9F041354B07461D7C4FF0F9
:102A10004003EFF3118883F31288BFF36F8F0C2408
:102A2000304B314E6C431A19195D00294CD007CA3E
:102A300006EB040C8CE8070000221A5588F3118875
:102A4000BFF36F8F0C236B43F218F05C002839D072
:102A50007B1C10D0D2F808C0244C254A4FF400400B
:102A60000021ECFB004100232046FDF739FB01214A
:102A7000381A01F099FF04F04FFE0120FFF758FFCC
:102A8000BFF35B8F1B4B6A0903EB820305F01F0149
:102A900001228A4053E8000F104343E80001002957
:102AA000F8D1BFF35B8F144B3BB10C2303FB05F054
:102AB0003318305C597806F008F9FFF767FF04F027
:102AC0003FFE0120BDE8F0810146284600F016F8DF
:102AD0000028B3D007C8344484E80700AEE700BF3D
:102AE000940C0020AC090020B80900203F420F00E0
:102AF00040420F00CC090020CB8C00002DE9F04FA4
:102B000085B00E4603A900F043F81E4B039DD3F891
:102B100000A0DFF87480431E1BB203EB430304469E
:102B200005EB83054FF400474FF0000B24B9A14695
:102B3000484605B0BDE8F08F6868144AC446594657
:102B4000E0FB07C100236046FDF7CAFA0190A868C0
:102B50000E4AC4465946E0FB07C100236046FDF714
:102B6000BFFABAF1FF3FA94601D0824505D9731CCF
:102B7000DED0019B1844B042DAD9013CA4B20C3D2E
:102B8000D4E700BF380000203F420F0040420F0052
:102B900008B9024B0B600020704700BF509E000038
:102BA000014910220A60704710ED00E072B6404003
:102BB00080F31188BFF36F8FBFF34F8F30BF62B6C2
:102BC000BFF36F8F704700BF72B6494081F3118821
:102BD000BFF34F8F20BF80F3118862B6704700BFEC
:102BE0002DE9F047814600AF0C4600294CD06E46D7
:102BF0008AB0D1E90012A3686D462748A8464FF075
:102C0000050AC5E90501C5E9072348F810AF2348BF
:102C1000424600234FF42151FFF752FBB546D4E959
:102C200003126369AD461E48C5F810A0C5E9050149
:102C3000C5E907231948002342464FF42151FFF705
:102C40003FFBB54688B0E3696D46164AA8464FF08B
:102C5000030AC5E9052348F810AF1048002342468F
:102C60004FF4C251FFF72CFBB546A369AD460E4A9F
:102C7000C5F810A0C5E905230848002342464FF4D3
:102C8000C251FFF71DFBB5462146484603F02AFE18
:102C9000BD46BDE8F08700BFCBA30000789D0000D3
:102CA000FAA3000029A4000038A4000040B20028C4
:102CB00007DB044A4109012300F01F00834042F86A
:102CC0002130704700E100E040B200280CDB4309EE
:102CD000064900F01F0020330122824041F82320E2
:102CE000BFF34F8FBFF36F8F704700BF00E100E06D
:102CF000054B420900F01F0053F82220012303FA7C
:102D000000F01040704700BF00E100E040B2D30780
:102D100054BF023100210028ACBF00F16040074AD7
:102D20004FEA4113ACBF00F5614000F00F00DBB289
:102D3000B4BF135480F80033704700BF14ED00E0B7
:102D400008B572B6044B5A691AB100225A6106F0EE
:102D500074FB62B608BD00BF940C002030BFFFF7C3
:102D6000FDBF00BF08B5084B084A23F07F039360FE
:102D7000BFF34F8FBFF36F8F03F070FE04F018FEA8
:102D800000F0AAFB03F0AEFE0000000000ED00E042
:102D9000094A0A4993680968D967094998674B68DD
:102DA00043F080534B60002383F31188BFF36F8F90
:102DB0009368D86F704700BF940C0020949F000068
:102DC00000ED00E012498A684FF030001044EFF344
:102DD000098C80E8F01F402080F31288BFF36F8FCA
:102DE0000C4F4FF000668A698A603E60906F002346
:102DF000936780F3118804B5104600F009FCBDE824
:102E0000044002F1300090E8F01F8CF3098870470D
:102E1000940C002004ED00E01EF0040F0CBFEFF353
:102E20000880EFF30980816911F8021C0229FFD0A4
:102E300001B505F0F9FE01BD42F8203C009B42F8C7
:102E40001C3C0A49019B42F8183C029B42F8143C86
:102E500021F001014FF0807342F8043C42F8081C55
:102E60000023203A02658367704700BFB37F0000EC
:102E7000094A0346906870B113F1160F806E05D0B1
:102E8000A0F140029A4205D8834203D2814228BF72
:102E90000020704700207047940C002008B5094BB3
:102EA0000D461446986000F0B3FB204685F3098870
:102EB000002163B681F31188BFF36F8F00220023D6
:102EC00005F077F8940C002001B572B60B4A5069F2
:102ED00000281EBF0021516106F0AFFA62B6EFF381
:102EE0000580A0F110004FEAC0000549014409C95E
:102EF0009847BDE80140034908470000940C0020B2
:102F0000A49B0000092F0000044B9968986988422F
:102F100003D003494FF080520A607047940C0020A0
:102F200004ED00E02DE9F04186B0064600AF0D4605
:102F30003F4B7B6102244FF482513E483C6107F1D4
:102F4000100205F080FE3C4B9B6AD9046DD53B4BCB
:102F50003848C7E9044307F110024FF4825105F0E5
:102F600072FE1720344B9B6A1A050BD5344B7B61DC
:102F7000022330483B6107F110024FF4825105F003
:102F800062FE18202C4CA36A9B0523D5E8462D4BE6
:102F90007B6102233B6107F110024FF48251254807
:102FA00005F051FEA36BA26A110412D588B06A46DF
:102FB00025492048C2E90513032342F8103F4FF486
:102FC000C25105F040FEC5461EB1A36A23F400437A
:102FD000A3621920184B9B6A5A050BD51B4B7B61CA
:102FE000022314483B6107F110024FF4825105F0AF
:102FF0002AFE1A20104B9B6ADB050BD5144B7B6114
:1030000002230C483B6107F110024FF4825105F096
:103010001AFE1B20084A936A43F47F4393621837D1
:1030200000232B70BD46BDE8F08116209AE700BF53
:1030300066A40000789D000000ED00E07CA4000084
:103040008DA40000A0A40000B9A40000CEA400003C
:10305000E9A4000010B586B0364B3748059304AAA2
:1030600002244FF48251049405F0EDFD334B9B6A2A
:103070009A015DD5324B304804AA4FF48251CDE914
:10308000044305F0E0FD1E202C4B9B6ADB010AD5B2
:103090002C4B2948059304AA02234FF48251049330
:1030A00005F0D1FD1F20254B9B6A1C030AD5264B3A
:1030B0002148059304AA02234FF48251049305F09A
:1030C000C2FD21201D4B9B6A59030AD51F4B1A488C
:1030D000059304AA02234FF48251049305F0B3FD33
:1030E0002220164B9B6A9A030AD5194B1248059366
:1030F00004AA02234FF48251049305F0A4FD232077
:103100000E4B9B6ADB030AD5124B0B48059304AAAE
:1031100002234FF48251049305F095FD2420074AC1
:10312000936A6FEA03436FEA1343936206B010BDDC
:103130001D20A9E701A50000789D000000ED00E03A
:1031400019A500002CA5000046A5000064A50000FC
:1031500089A50000A3A500002DE9F04786B08146AF
:1031600000AF8A469046454B45487B6102243C614E
:1031700007F110024FF4825105F065FD414B9B6A47
:10318000D80645D5404B3E48C7E9044307F1100235
:103190004FF48251112405F056FD3A4B9B6A1907F2
:1031A0000BD53A4B7B61022335483B6107F1100296
:1031B0004FF48251122405F046FD324DAB6A9A0756
:1031C00028D56C46324B7B6102233B612C4807F1CA
:1031D00010024FF4825105F036FD6E6BAB6A1B0690
:1031E00049D588B06A462B4B2548C2E905360323EA
:1031F00042F8103F4FF4C25105F025FDA546BAF143
:10320000000F03D0AB6A23F08003AB62132403E00A
:103210001024C2E76FF015061A4B9B6AD8070BD52E
:103220001D4B7B61022316483B6107F110024FF4EE
:103230008251142405F007FD124B9A6AD10602D47C
:103240009A6A92070AD55B681B0507D5494630463E
:10325000FFF70EFE10B180F309880224094A936A31
:1032600043F0FF03936220460023183788F80030AC
:10327000BD46BDE8F0876FF01506C7E7CEA5000094
:10328000789D000000ED00E0E4A500008DA40000A2
:1032900017A600002FA6000045A600002DE9F04368
:1032A000774B8BB0D3F8048000AF0546C8F3080411
:1032B000002686F31188BFF36F8F02F07F43B3F1CE
:1032C0007F4F0ED102F00C03082B19D16D4BFB611F
:1032D00002236D48BB6107F118024FF4825105F0DB
:1032E000B2FC002635460023FB71E31E092B00F2D9
:1032F000A680DFE803F00A999C95A4A4A4A4A49F47
:1033000010074CBF0D460126EDE7E9465F4BFB6118
:103310004FF0020807F118025B48C7F818804FF415
:10332000825105F090FC0023554CFB71E36A9A072B
:103330000BD5574BC7E90683534807F118024FF4E2
:10334000825105F080FC002441E0E36A002B01DAA1
:10335000504BEFE7E36A5B00F5D54F4B4A48C7E9AE
:10336000068307F118024FF4825105F06CFC636983
:10337000AA6943F480736361BFF34F8FBFF36F8F0C
:10338000636932F8022C23F480736361BFF34F8FBB
:10339000BFF36F8F4DF602739A4208D0A36ADBB277
:1033A0008BB3FA1D01212846FFF7D6FE3AE088B01C
:1033B0002B686A4639493448C2E90513032342F8A9
:1033C000103F4FF4C25105F03EFC2C68CD46FB790E
:1033D000ABB92022294607F1080005F051FC7B6AB1
:1033E000002E47D0C3F3080222B96FEA53236FEAD5
:1033F00043237B6207F108012046FFF7F1FB2C37DE
:10340000BD46BDE8F083A36A13F47F4F04D0F91DD5
:103410000120FFF787FD05E0A36AB3F5803F92D353
:10342000FFF718FE0446D2E7FA1D0021BBE7F91D9D
:103430000020EEE71A4BFB610223BB617CE7194ACF
:10344000194B18F4F87FE8468AB018BF13466A464D
:1034500016490D48C2E905134FF400731384103C5C
:10346000134BD4614FF4115142F8103F05F0EBFBC0
:10347000C54668E723F4FF7323F00103B9E700BFF3
:1034800000ED00E092A60000789D0000BDA60000BF
:10349000D4A60000F5A6000003A7000022A70000A4
:1034A0003EA7000079A6000064A6000062A7000005
:1034B00004000001024A536943F01003536170474E
:1034C00000ED00E0EFF30880EFF3098101B57246EB
:1034D000FFF7E4FE01BD00BF044800234021C218ED
:1034E0000133282B82F80013F9D1704700E100E086
:1034F000002080F31488BFF36F8FFEF749FC002093
:103500000D490860BFF34F8F0C4880F3088800F026
:103510002BF8402080F3118809484FF404614018CB
:1035200080F30988EFF314800221084380F31488A4
:10353000BFF36F8FFFF716FC94ED00E00029002029
:10354000801B00200749D1F890200023C2F30722F6
:103550001846934200DB7047C1F89830C1F8A000CC
:103560000133F6E700ED00E008B572B6002383F3FF
:103570001388FFF7E7FF144B4FF0FF32C3F88020AA
:10358000C3F88420C3F88820C3F88C20C3F89020A7
:10359000C3F89420C3F89820C3F89C20C3F8802176
:1035A000C3F88421C3F88821C3F88C21C3F8902183
:1035B000C3F89421C3F89821C3F89C2162B6BFF3E5
:1035C0004F8FBFF36F8F08BD00E100E0084B9B6891
:1035D00083420BD1EFF3058343B1064B5A6842F0A7
:1035E00080525A605A6A22F400425A6204F06EB95C
:1035F000940C002000ED00E0024B034A0348012137
:1036000000F092B80080002000000020509E0000D2
:10361000826E054B403A1A60044A4021C3E9011208
:103620001846012100F08AB8D009002000000B15CF
:103630002DE9F041DFF8B4E09C4600AF15460023C9
:103640008B421ADA4468002C4DD0BCF1000F1DD01B
:10365000661E344215D06C4688B06A462449C2E9D9
:103660000513032342F8103F224800234FF4C251B0
:10367000FEF726FE6FF01505A5462846BD46BDE8B7
:10368000F0811F2CE7D902681642E4D1202C026891
:1036900086685FFA85F814D9B4F1004F13D8013C5D
:1036A000B4FA84F4C4F11F046400B8F1070F46EAC9
:1036B00004060AD96C4688B06A460F4BC2E9053544
:1036C000CFE70824F1E73E24EFE722F01F022A4368
:1036D00042F0100246F00106CEF89850CEF89C2039
:1036E0000135CEF8A06001330C30A9E700ED00E011
:1036F00079A70000689D00009CA70000044B0522EC
:10370000C3F89420BFF34F8FBFF36F8F704700BF94
:1037100000ED00E0BFF35F8F024B0022C3F894205E
:10372000704700BF00ED00E010B5034C0123227884
:10373000FFF77EFF207010BD2C0D002008B5094A50
:1037400000231278FFF774FF10F1160F03D0064B19
:103750000022072800DD08BDC3F89800C3F8A020A8
:103760000130F6E72C0D002000ED00E01449086858
:10377000082810B521D8FFF7CDFF124C4968002268
:10378000904201F10C0105D10F4B1870FFF7B6FF05
:10379000002010BDC4F8982051F80C3C23F01F0302
:1037A000134343F01003C4F89C3051F8043C43F039
:1037B0000103C4F8A0300132E2E74FF0FF30E8E740
:1037C0005C9E000000ED00E02C0D0020014B186015
:1037D000704700BF3C0000204FF08043C0B2C3F8E8
:1037E0001C05BFF34F8F0549054BCA6802F4E06220
:1037F0001343CB60BFF34F8F00BFFDE700ED00E048
:103800000400FA0520B1034B800143F0010318477F
:10381000704700BFD09D0000084B70B5C31A0D461D
:1038200007499B10044659430648402205F07BFA9D
:103830002B4601462046BDE870401847F00900209D
:10384000B76DDBB6449B000073B50C4C0C4A4023AB
:10385000041B00930D460B460A49A410614306461B
:10386000094805F08CFA011E05DA30462B4602B0F5
:10387000BDE87040184702B070BD00BFF0090020DD
:10388000E98D0000B76DDBB6449B000010B54FF02A
:103890004003EFF3118483F31288BFF36F8F074A5D
:1038A000136823F00201DB07116002D4012005F048
:1038B000DEFC84F31188BFF36F8F10BD400A002037
:1038C000002270B5012104461046FFF71FFA114887
:1038D00002F048F9104B984218D1206900F0A0F985
:1038E00005F080FC26690D49304604F081FD002872
:1038F0000BDB012535642469084904F11C0004F040
:1039000077FD002801DBE564002070BD6FF0040046
:10391000FBE700BF553900000000AD0B7C9E0000A6
:1039200070B501460C2309484B43C418D4E90E5620
:10393000403300221844A26305F0E2F92DB132466B
:103940002B460348BDE87040184770BDF0090020C1
:10395000449B0000012810B504460AD003280CD06F
:1039600078B9084B1B6C5B070BD1BDE81040FFF723
:10397000D7BF00F063F92046F7E7BDE8104000F03C
:103980006BB910BDF009002008B54FF04003EFF30C
:10399000118183F31288BFF36F8F124A136843F0CB
:1039A00002001060DA0708D481F31188BFF36F8F2B
:1039B0000120BDE8084005F022BC4FF08043D3F859
:1039C0000C24D3F80C34D307EED5074805F098F94A
:1039D00081F31188BFF36F8F0020BDE80840FFF727
:1039E0009FBF00BF400A0020300A00207FB50022A0
:1039F0000123CDE9022304ABCDE90433094ACDF814
:103A000000D06B46CDF804D005F0E7F9002805DBBF
:103A10004FF480420023684603F0F8FA07B05DF8DF
:103A200004FB00BF018E0000024AC3B21C2003FB4E
:103A300000207047F0090020F8B52849BFF35B8FDC
:103A40000646012251E8003F41E800200028F9D154
:103A5000BFF35B8F33B9224922484B60CB608A6049
:103A600004F0D9FC731E012B1DD805F0D9FC0446C7
:103A7000D0B91D4B1B78BBB14FF080430222C3F875
:103A8000082305464FF08047D7F81834D7F8182494
:103A9000D20313D59B0701D0012E0FD1C4B185F3FA
:103AA0001188BFF36F8FF8BD4FF04003EFF311851E
:103AB00083F31288BFF36F8F0124E3E71CB128461C
:103AC000FFF782F8E0E70021212003F0DFFEDBE7CB
:103AD0004FF080430222C3F80423E4E7EC090020FE
:103AE000DC0900200C0A0020EC1300200D4BBFF372
:103AF0005B8F012253E8001F002903D143E8002017
:103B00000028F7D1BFF35B8F0AD107490023CB60B0
:103B1000064B4B6003238B60054B186804F07BBC9D
:103B2000704700BF600A0020480A0020F53B0000F3
:103B3000440A002007B500220023CDE900230848ED
:103B40004FF40032002304F0FFF8064B186804F02D
:103B5000BAFC054B00221A6003B05DF804FB00BFFD
:103B6000C0010020440A0020600A0020F7B51C4E66
:103B70001C4CB7681C4DFB6839213046984740B152
:103B8000002323702B8001F0FFFF0123237003B07B
:103B9000F0BD0C213B696A46304698470028EFD1BA
:103BA000124A019B93FBF2F3009A217803EB820304
:103BB0001BB2B5F900200029E4D09A1A002AB8BF38
:103BC000524212B2012ADDDC094A1368013901337D
:103BD0002170136003B0BDE8F040FFF7ABBF00BF3A
:103BE0008C9B00002D0D0020D00C002090D00300F5
:103BF000580A002008B5074805F0C4FB28B901F0B1
:103C0000C3FF054B01221A7008BDBDE808400348F8
:103C100003F03CBB8C9B00002D0D002040000020D9
:103C2000034B044A186000231360034A1360704773
:103C3000440A00205C0A0020580A0020024B00229F
:103C40001A70FFF753BF00BF2D0D0020014805F08B
:103C500042BE00BFC0010020024A13680133136056
:103C6000FFF768BF5C0A002010B5044C2046FDF742
:103C7000B3FB2046FFF7AAFD002010BD813C0000E9
:103C8000F7B5134E8DF807000446032502F01AFE1F
:103C900001220DF10701002002F0DEFD074602F0CF
:103CA0001BFE27B101233370204603B0F0BD3378EB
:103CB000002BF9D0013D08D005F0B2FB0028E5D17A
:103CC0000021422003F0E2FDE0E73570ECE700BFA1
:103CD0002E0D002030B54068057B01F01F04B2F5C1
:103CE000001F85B044EA451405D1204602F0EEF9E4
:103CF000002005B030BD0025B2F5800FCDE902559A
:103D000014D1B3F1007F0CBF042305238DF80830D4
:103D10000023194602AA204602F00EF81D4B9842D5
:103D200035D10121204602F08DF9E1E7B3F1C06FF2
:103D300022D0B3F1007F14BF012302238DF8083095
:103D40008368CB40D907E3D4B2F1A07FE0D104F07F
:103D50001F0303F5E0734FF0A04252F82330DB0756
:103D6000D6D40DF107052946204602F017F90A4B73
:103D7000984203D00395CBE70323DFE7284602F000
:103D80005BF9044B9842F5D06FF00B00B1E76FF090
:103D90001500AEE70000AD0B0400AD0B10B502F04E
:103DA0003BF9044668B902F00FF9084B98420AD172
:103DB0000748214602F0ECF8224605210620FEF7CE
:103DC000A5FF002010BD6FF00400FBE70000AD0B65
:103DD000D53D0000430970B507D10B4B596821B19F
:103DE00001250C68094E854001B970BD8A682A40DA
:103DF00002D04B68304698471CB1236821461C46C8
:103E0000F2E72346FAE700BF640A00205C9B00004B
:103E10002DE9FF4147683B7B01F01F0545EA43154B
:103E20000E4628460DF10301144602F0B7F814F4CB
:103E3000403F80460BD1284602F070F93D4B984533
:103E400003D19DF8030002F0F1F800200CE00023FC
:103E5000194602AA2846CDE9023301F06DFF354B21
:103E6000984204D06FF0150004B0BDE8F0818045A1
:103E700003D19DF8030002F0D9F8A3034BD540F21B
:103E800006332340B3F5837F19D00CD8062B17D007
:103E900004D8ABB1022BE5D1042311E0B3F5807F48
:103EA000E0D101230CE040F20222934227D0B3F587
:103EB000407F26D0B3F5007FD4D1022300E0072352
:103EC0008DF8043084F48033C3F30043E0068DF8AA
:103ED000053054BFC4F34013032321038DF806308B
:103EE00011D57A680123B340C2F80835002201A930
:103EF000284601F0CFFF0F4B9842A6D0B2E705232A
:103F0000DEE70323DCE7620341BF01237A68B340A5
:103F1000C2F80C35EAE7E3064FF0000354BFC4F3E0
:103F2000401403241A4601A928468DF8044001F0E4
:103F300003FFE0E70000AD0B014B01221A60704760
:103F400000C000400C2903690BD1DB6A0649074811
:103F50004B4393FBF0F100FB1133116053600020E1
:103F600070476FF08500704790D0030040420F000B
:103F7000044B00690022C3F80021D3F8003103F09C
:103F80001FB800BF00C000407FB505692B6B63B34D
:103F9000392901D00C292BD105F118064FF0FF3239
:103FA0004FF0FF33304602F021FF134B0193286B93
:103FB0000323002469460394029304F02CFA4FF083
:103FC000FF324FF0FF33284603F020F8286B04F04F
:103FD0007AFA0A4BD3F80825EA6201225A60304681
:103FE00002F07EFF204604B070BD6FF00A00FAE7D1
:103FF0006FF08500F7E700BF393F000000C00040C8
:1040000010B504690020FFF70FFD20634FF0FF3269
:104010000021204605F0A4FA04F1180005F01CFA6E
:10402000002201210C20FEF771FE0C20FEF73EFE5F
:10403000024B0122C3F80423002010BD00C0004041
:104040002DE9F04383B044680569A66A00AF3A1DC4
:104050000021304604F036FF002832DB7B683268EE
:104060001979186804F041FF00282ADB236A984771
:10407000AC680126D5E9023203EBC2039C4204D3AB
:10408000284604F0D3FF00201BE0206805F07AF9F1
:10409000D8B92368196823796C468AB06A461C48E7
:1040A000D3614FF4007313841A4BC2E905011A4817
:1040B00042F8103F4FF4115104F07FFF6FF01200EF
:1040C000A5460C37BD46BDE8F08320682179E3881A
:1040D000D0F810E0D0F80890DEF800C0DA0754BF3E
:1040E00043F4B01383F4D01323F4801206FA01F8DA
:1040F000DB074CBF4CEA08032CEA0803CEF800307B
:10410000D9F8003098470028DBDB0834B2E700BF5D
:1041100024A8000004000001909D0000F0B504698F
:104120004768666EE36E85B005463EB96BBB1946BF
:10413000284605B0BDE8F04004F09ABF216E03BBED
:1041400031BBBA8C236E0091B24228BF32466267FF
:104150001BB1636E002B18BF13460193A36E02932D
:104160001BB1E36E002B18BF134600226946384688
:10417000039302F0C3F90E4B984217D06FF004017D
:10418000D6E79E4228BF1E46DAE7216E1E46D8E7D4
:1041900001F06043B3F1005FD3D0082E28BF08269A
:1041A000E06F324604F06CFDE16FCAE705B0F0BD88
:1041B0000000AD0B10B5037886B00C46002B5DD126
:1041C0004A6F3AB9206F6FF0730106B0BDE8104036
:1041D00004F04EBF4B6E5BB19A421ED9284B05933B
:1041E0002848022304AA4FF48251049304F0E5FE08
:1041F000E36E626F5BB19A4227D9214B0593214848
:10420000022304AA4FF48251049304F0D6FE206FD7
:1042100006B0BDE81040FFF781BF9B1A4B6673B92B
:104220000B6D08330B654B6D013B4B6501F164026F
:1042300004F15000543104F0ADFE2066D8E70B6E57
:10424000002BD5D013440B66D2E79B1AE3667BB9EB
:10425000A36D0833A365E36D013BE36504F16C02D4
:1042600004F15C0104F1580004F094FEA066CEE76E
:10427000A36E002BCBD01344A366C8E706B010BDD5
:1042800048A80000909D00002DE9F04F8DB000AFD0
:104290009A464368BB608B8804693A619B04064672
:1042A000884639D44FF0FF334FF0FF3204F110004D
:1042B00002F0ACFE97F8583084F84C30FB6D636424
:1042C0003B6EC4F80480A3647368D6F810907B61D9
:1042D0009B687B6099F87930FB6023B1D9F8003096
:1042E000984500F0C980B8F804C01CF4006F1AD0DB
:1042F000B44BFB620223B448BB6207F128024FF4BF
:1043000082516FF0850504F058FE0023636004F1CC
:10431000100002F055FE50E1A369002BC2D1636882
:104320009942BFD1D0E71CF0010F15D06D4688B07F
:1043300033686A46A549A448C2E905134FF40073DF
:104340009383A34B42F8103F4FF4E25104F035FE43
:10435000AD466FF01505D8E71CF0080F0BD09D4B4C
:10436000FB6202239848BB6207F128024FF4825196
:1043700004F023FEEDE7CCF34513082B01D0964B58
:10438000EEE7D8F80050954B9D4201D8944BE7E7F3
:104390007B6903F10C0BBBE80F0007F1180EAEE8C8
:1043A0000F00DBF80030CEF800307B68AB4228BF4E
:1043B0002B461D468B4B9D4246D98B4B9D4246D981
:1043C0008A4B9D4246D98A4B9D4246D9894B9D4294
:1043D00046D9894B9D422CBF4FF000454FF0804598
:1043E0001CF0020F3D620CF004033CD0002B14BF04
:1043F0000323022387F82430FB68CCF3001C87F8E2
:1044000025C02BB1786902F031F8002389F87930A2
:104410004B467A4A786907F1180101F079FF784B29
:10442000984224D06D4688B06A46764BC2E9053082
:10443000032342F8103F64484FF4C25104F0BDFD1D
:10444000AD466FF0040560E74FF00075C8E74FF028
:104450008065C5E74FF00065C2E74FF08055BFE7C4
:104460004FF00055BCE7003B18BF0123C2E7012312
:1044700089F87930C9F80080012384F878303B69E5
:10448000002B70D123650023636504F1640204F1FD
:10449000540104F1500004F07DFD2066BAF1000FD4
:1044A00069D1C4F858A00023E36504F16C0204F15B
:1044B0005C0104F1580004F06DFD00252A46A06659
:1044C00001212046256404F08FFD3046FFF726FECB
:1044D00094F84C20002A70D1606D1346834252D16B
:1044E0000023E56D1946A94254D19342A04638BF36
:1044F00013464FF4FA5202FB03F558F8283B4FF4E9
:10450000004C1B68B5FBF3F540F2E730C8350021DD
:104510004FF47A720023E5FB0C01FBF7E1FD024644
:104520000B46404602F072FD00283AD0364BFB6243
:1045300002232548BB6207F128024FF4825104F0A0
:104540003CFD0025B868656701F090FF84F879505C
:104550006FF07301304604F08BFD404602F07EFDA3
:104560006FF07305D1E63B691B682365002B8AD089
:104570003B695B6888E7DAF80030A365002B92D0CE
:10458000DAF8043090E7216D01EBC301013349688B
:104590000A44A3E7A06D00EBC10001314068034469
:1045A000A1E7256C15F1740FCBD094F84C30002B9B
:1045B0003FF4ABAE002DFFF6A8AE28463437BD461B
:1045C000BDE8F08F66A80000909D000080A8000064
:1045D00003000001A2A80000C1A8000047E80100F4
:1045E000F0A800008FD003001FA107003F420F007A
:1045F0007F841E00FF083D0000127A00B5410000D4
:104600000000AD0B21A9000048A9000070B50123EE
:1046100083400E4ABFF35B8FDC4352E8001F01EA80
:10462000040542E80056002EF7D1BFF35B8F4FF42C
:10463000803282400648C0F80823BFF35F8FBFF383
:104640006F8F0B4214BF0120002070BDA80A00200C
:104650000010014070B40E49D1E90034D01AC318DB
:1046600044F1000422F07F46C1E90034A6F50013AE
:10467000B3F5400F09D2074B1B681A0A1B069C1999
:10468000054B42F10005C3E9004570BC03F066BA72
:10469000A8070020AC0A0020B007002011B3BFF328
:1046A0005B8F0123104A834052E800CF4CEA030C91
:1046B00042E800C10029F7D1BFF35B8F0B4A4FF4EA
:1046C00080338340C2F80433094BBFF35B8F1B6810
:1046D000BFF35B8FC340DB0742BF064B4FF4003292
:1046E000C3F80021704700BFA80A00200010014055
:1046F000A40A002000E100E00D4B1868010A000642
:10470000BFF35F8F0B4BD3F80435181841F100014C
:10471000B3F5801F0AD2084BD3E90023904271EB16
:10472000030303D210F1807041F10001704700BF14
:10473000AC0A002000100140B00700202DE9F74F1F
:1047400016461F460446FFF761FF0090FFF7D4FFAF
:10475000B04271EB070351D23A4B301A67EB0101BB
:10476000984271F100016AD2374B03EB0413D3E98D
:1047700002239F4208BF96424ED034494FF48039FD
:1047800004F1500509FA04F9AD00C1F84893204638
:10479000ADB204F0A6FC26F07F4B05F1804504F590
:1047A000A8732B4A019305F58835DC464FF0030AC0
:1047B000019B2CF07F4041F82300C1F84493D1F8CD
:1047C00004856FF00200A0EB0800604420F07F40F9
:1047D000904221D9286860B1D1F80485A8EB0B007C
:1047E00020F07F40B0F5000F16D9204604F079FC88
:1047F000174A0AEB080C0AF1010AD9E70123154A06
:10480000BFF35B8FA34052E8000F184342E800015A
:104810000029F8D1BFF35B8F0B490C98230101EB02
:104820000412C2E90267C8500D9B53600025204660
:104830000099FFF733FF284603B0BDE8F08F6FF013
:104840001505F4E7010080009807002000100140E2
:10485000FDFF7F00A40A002073B51B4C1B4BC4F85E
:104860000833C4F848331A4B00254FF0FF304FF09F
:10487000FF31C4F80855C3E902014FF48033C4F88E
:104880000433144B02264FF400320121C4F80463B0
:104890001120C3F880212A46FEF738FA1120FEF7CE
:1048A00005FA0D4A0123A360236013600B4B0C4AE9
:1048B0000093019500232846FFF740FF3046FFF79D
:1048C000BBF8284602B070BD0010014003000F0085
:1048D0009807002000E100E0A80A002055460000EB
:1048E000FFFF7F002DE9F7432B4CD4F804339907E1
:1048F0000BD5D4F8043143B1284A0023C4F804315D
:10490000D4F80431136801331360D4F80433DA03A4
:1049100023D5BFF35B8F224B53E8002F22F0010118
:1049200043E800100028F7D1BFF35B8FD30702D410
:10493000D4F840318BB10025C4F84051D4F840314F
:10494000FFF7DAFEEFF3108272B6164BD3E9026777
:10495000B042B94104D282F3108803B0BDE8F083BD
:104960004FF0FF384FF0FF39C3E90289D3E9001057
:104970001D604FF48033C4F84833C4F84051D4F874
:10498000403182F310880029E7D0009032463B4640
:1049900028468847E1E700BF00100140AC0A00202C
:1049A000A40A002098070020431C13B522D0012838
:1049B00022DD124A124B9042D4BF04461C46FFF738
:1049C0009BFE104B0E49D3E90023801AB0F5000F6F
:1049D00028BF002404448C4228BF0C46A2180A4970
:1049E00000914FF00000019043F10003FFF7A6FE95
:1049F00002B010BD024CE2E70124E0E7FEFF7F00B9
:104A0000FFFF7F00A80700205546000008B5FFF70C
:104A100073FE024B1B68C01A08BD00BFA807002028
:104A20007FB5FDF76DFB074B059302230493064802
:104A3000002304AA4FF48251FDF742FC0020FEF748
:104A4000CBFE00BF89A90000489D00000B4B0C4A1B
:104A50001B7AC2F81035042B0DD8DFE803F00803E9
:104A60000C080300074BA0221A6001207047054B79
:104A70004FF49672F8E70020704700BFA40B0020A7
:104A800000100040B80A0020044A0023C2E908339D
:104A90009362034AC2E9083393627047700B0020A7
:104AA000440B0020054B1B68D3F80423920342BF3C
:104AB0000022C3F84421D3F844317047FC000020A1
:104AC00010B5FBF707FC0C4C0C490D48FBF7FCFB41
:104AD00040F21713C4F800320A4A0B4B507C1B6893
:104AE00098470A4BC4F80435094B0A4A1A600A4B26
:104AF00004221A7010BD00BF00100040D00000203A
:104B00007C9F0000A40B0020B00A00208F0F002023
:104B1000B40A0020A14E0000D30F002008B5084BB6
:104B20001B6801221A61FBF7C9FBFBF7D3FB00F0FE
:104B30006BFD0320FBF7B6FBBDE80840FBF7B8BBF5
:104B4000FC00002007B50B4B0B48DA7C90F90A00FB
:104B5000002302F5166201A9FBF7CEFB0DF105005B
:104B6000FBF7C4FB9DF80420044BC3F80C2503B0ED
:104B70005DF804FBE8000020A40B002000100040BA
:104B800010B5064C0649204604F0BBFAC1F82405CE
:104B9000201D04F0B6FAC1F8280510BDF000002071
:104BA0000010004008B507490748FBF78DFB38B9EE
:104BB00000F00EFD054B1B6840F20442C3F80022D2
:104BC00008BD00BFD00000207C9F0000FC0000203A
:104BD00038B51B4B1B4C1B6801251D6100F014FDF3
:104BE000FBF76CFBFBF764FB0021284600F08EFD11
:104BF00040F21313C4F80032134A144B507C1B6864
:104C00009847134BC4F804350023C4F81031D4F886
:104C100010312561D4F81031002BFBD00021C4F8ED
:104C20001011D4F8103140F21713C4F800320120EB
:104C300000F000FDFFF7B6FF064B01229A6138BD78
:104C4000FC00002000100040A40B0020B00A00204F
:104C50008F0F0020004001402DE9F041224B234FEF
:104C60001A78012A80460E4630D13B78C3F30502FC
:104C700003F03F03202B34D81D4B196A53F8213021
:104C80001A701B4C1B49236A54F8230010F8052B9B
:104C900003F0F6FF236A184A54F8235085F8018080
:104CA000D2F848252E71013302F07F02082BAA703A
:104CB0007A7828BF00232362A36AD24302F001025C
:104CC0000133EA70A3620120BDE8F081084A116A4D
:104CD00052F82120597809B91170D2E75B7C137022
:104CE000CFE70020F0E700BFA40B00208F0F0020CB
:104CF000440B0020910F0020001000408378427880
:104D00001B0443EA022302781343C27843EA0253A6
:104D1000027943EA8253427943EA0263827943EAA1
:104D20008263C27943EA4273094AC2F81435837A2E
:104D3000417A1B0443EA0123017A0B43C17A43EA17
:104D40000163017B43EA4163C2F81835704700BF35
:104D5000001000401FB504460D220021684603F0F4
:104D60009AFF0A4B00930A4B5B7CE0B2013B8DF843
:104D700008008DF809008DF80A30684601238DF887
:104D80000B30FFF7BBFF04B010BD00BF00010100F6
:104D9000E80000201FB50023CDF80930CDF8013020
:104DA000CDF8053003238DF8023006238DF800304E
:104DB00001238DF80B30074B5B7C013B8DF80A30EB
:104DC000684620238DF80830FFF798FF05B05DF89E
:104DD00004FB00BFE8000020684620F007018D4674
:104DE00001B50C4BD3F80423D2060BD5D3F8102110
:104DF00042B10022C3F81021D3F81031064B1B68D2
:104E000003B19847FDF79CFFFEF77EF8BDE801402F
:104E10008546704700100040B40A0020684620F024
:104E200007018D4631B51B4B82B01B6801934FF0D3
:104E30004003EFF3118183F31288BFF36F8F164B9A
:104E400000221D681A6081F31188BFF36F8F134C25
:104E50002368ABB1E90703D58DF800206846984771
:104E6000AA0705D501238DF80030684623689847C6
:104E70006B0705D502238DF80030684623689847F4
:104E8000FDF75EFFFEF740F802B0BDE83140854611
:104E9000704700BFBC0A0020C00A0020A00B002001
:104EA0002DE9F84F7B4AD2F8007417F0010703D1BF
:104EB000BDE8F84FFFF78CBEDFF8DCA1DAF8283048
:104EC000072BF5D8D2F80834744DDFF8D491D2F816
:104ED0000C4499F80120DBB2C2F3410135F82300FC
:104EE00084424FEA830640F0AB80A8198078814263
:104EF00040F0A680B8460027AA196A4C9170654A0E
:104F0000D2F80C2425F82320A37C23B199F8013092
:104F1000DB0740F1BC80FBF7D1F963496348FBF73D
:104F2000DFF95C4B40F21B12C3F8002294F800B08A
:104F30005F4CBBF1000F00F09B80BBF1010F55D11E
:104F4000DFF870C1D3F80814DCF82830002B00F02B
:104F500085805948C9B250F82120002A7ED0DFF858
:104F60005CB1D2F800E0CBF800E005EB060E9EF84D
:104F700003E0BEF1000F17D0B8F1000F14D182F892
:104F8000048050F82120013B926840F82120CCF8A1
:104F90002830002B57D002B11268CBF80020484AC5
:104FA000136843F001031360464BDBF800801A6876
:104FB000AB19B8F1000F48D00121D97098F8000062
:104FC0009047DBF8001023780A783F4862F3050326
:104FD000237011F8052B03F053FE637899F8012034
:104FE00023F0070302F0070213436370374B0522D7
:104FF0001A70FFF7A7FD274BD3F80824D2B2C3F8E5
:105000002C25C3F80445324B324A1A60B7B1214B04
:10501000D3F80804DAF828303544072BA9780DD8DE
:10502000C0B2FFF719FE48B1254A136843F00403E4
:105030001360294B4FF48012C3F80021BDE8F88FAC
:105040004FF0000858E74246A7E783F80380404640
:105050009047237868F305032370BEE7AB194FF040
:10506000000883F80380174B40461B689847F0E719
:10507000144B58461B68984799F80030227884F8FA
:1050800001B0C3F3010363F301022270AEE7FFF73F
:105090009FFDBBE700100040440B0020D20C002015
:1050A0008F0F0020A40B0020D0000020649F000080
:1050B000B10F0020700B0020C40A00209C0B0020C0
:1050C000C00A0020B00A0020B30F0020D30F002038
:1050D000B40A0020C14A000000E100E010B500F071
:1050E000E1FBFFF71BFD144801F0F8FA00F004FCA7
:1050F000124A1348D2F8503603F44073C2F85036BF
:10510000104B00241C70104B21461C70FFF7BCFC98
:10511000202203F0C0FD214608220C4803F0BBFD0D
:105120000120FDF7D1FD1420FDF7CEFDBDE81040B4
:105130000A20FDF7C9BD00BFFC00002000100040A0
:10514000D20C0020D30F0020D40F0020870F0020A6
:10515000F0B587B0044600AF002800F0EC80774D32
:105160002B780BB1FFF7BAFF754B764E62681A6069
:1051700021461422304603F083FD0024724B73480D
:105180001C602022214603F086FD0822214670483B
:1051900003F081FDFFF75AFC33786E497BB1012B98
:1051A00001D16D4B0B60727A6C4B012A6FD0022AD1
:1051B00007D07AB9C3F83C25C3F8342508E0684B1A
:1051C000F0E74FF6FF70C3F83C05C3F83425654A95
:1051D000C3F838250B68707C9847604B6248634978
:1051E0004FF0E732C3F81C254FF04332C3F82025B7
:1051F0005F4AC3F824255F4AC3F82825FFF744FC1B
:10520000024600230133082B41F8042B02F125024A
:10521000F8D1594A594900230133082B41F8042B8E
:1052200002F12502F8D10021554A0B460131082927
:1052300010601371936000F1250002F10C02F5D1AA
:10524000504A5148C2E90033C2E90233C2E904338B
:10525000C2E90633C7E9003304233B704B4A3946A1
:1052600001F0E6F94A4B984219D100F0ADFA044634
:10527000002836D0474B7B6102233B614648002320
:1052800007F110024FF48251FDF71AF825E0FF20D4
:10529000C3F83C05C3F8342540F2071298E76C4682
:1052A00088B06A463D4BC2E90530032342F8103FFF
:1052B000394800234FF4C251FDF702F8A546384B98
:1052C0007B6102233B613448002307F110024FF455
:1052D00082516FF00D04FCF7F3FF20461C37BD46EA
:1052E000F0BD00F0DBFA2F4B1C4A5860D2F8503664
:1052F000F17C03F440730B430121C2F85036084699
:105300002246FDF703FD224602211420FDF7FEFC94
:10531000224602210A20FDF7F9FC0120FDF7C6FC18
:105320001420FDF7C3FC0A20FDF7C0FC1E4B1C70C7
:1053300001232B70D1E76FF01504CEE7D40F0020C6
:10534000A00B0020A40B0020C00A0020D20C0020DB
:10535000870F0020B00A0020954D0000001000408B
:10536000554D0000211001005F0E0020700B002041
:10537000E743C323A363E313370D0020440B00204E
:10538000E40A0020C40A0020FC000020A54A000016
:105390000000AD0BF5A90000389D0000A6A9000093
:1053A000CFA90000D0000020D30F002038B5254B36
:1053B0001B78002B3DD000283ED0234CA36A002B45
:1053C0003DD04FF04003EFF3118583F31288BFF314
:1053D0006F8F636A54F823301A780270636A54F846
:1053E00023305B784370636A54F8233093F90230BA
:1053F0008370636A54F823301B790371636A54F82D
:105400002330DB78C370636A54F82310053005310C
:1054100003F036FC636A0133082B28BF0023636264
:10542000A36A013BA36285F31188BFF36F8F00204D
:1054300038BD6FF00C00FBE76FF01500F8E76FF078
:105440003C00F5E7D40F0020440B002038B5234B77
:105450001A7802F0FF05002A3CD1214C21494FF077
:10546000FF32C4F80823C4F81051D4F810211E4AA2
:10547000116040F21712C4F800221022C4F804236D
:1054800004221A70194B9A7CC4F83025DB7CC4F8CE
:105490000835174BC4F80435164B0222C3F8802197
:1054A0000120FDF703FCC4F80451D4F80431C4F81A
:1054B0000851D4F80831C4F8105101202946D4F815
:1054C000103100F0B7F8FFF76DFB0B4B01229A612A
:1054D000284638BD6FF00F00FBE700BFD30F002058
:1054E00000100040A14E0000B40A0020E800002097
:1054F0008F0F002000E100E00040014010B50D4B8F
:105500001B78014603F0FF046BB978B104220A4806
:1055100003F0B6FB084803F0F4FD084B00BAC3F8EB
:105520001C05204610BD6FF00F00FBE76FF0150063
:10553000F8E700BFD30F0020E80000200010004073
:1055400010B50D4B1B78014603F0FF046BB978B121
:1055500004220A4803F094FB084803F0D2FD084BEC
:1055600000BAC3F82005204610BD6FF00F00FBE71E
:105570006FF01500F8E700BFD30F0020EC0000200B
:105580000010004038B50F4B1B780C4603F0FF05A8
:1055900093B9A0B1082912D80A4601460A4803F077
:1055A0006FFB0A4AFF231474C4F108042341937467
:1055B000FFF7E6FA284638BD6FF00F00FBE76FF003
:1055C0001500F8E7D30F0020F0000020E8000020CD
:1055D000094B0A491A78D30003F1804303F5F833E5
:1055E000C3F810150649C3F8141501239340054A62
:1055F000C2F80435704700BFD70F002018410140A2
:1056000000A0004000F00140084B09491B7801222E
:105610009A40DB0003F1804303F5F833C1F8082515
:105620000022C3F81025C3F814257047D70F0020B7
:1056300000F00140F0B52B4B2B4C1B782B4FDA00C0
:1056400014442B4A0025C2F81851D2F81821294ACF
:1056500015788000EA00C0B202F1804202F5F8320B
:1056600000F1804000F58050C2F81075C2F81405B2
:10567000214A05F5117042F82040204A204816784A
:10568000F20002F1804202F5F8320124C2F810055E
:1056900000F5973000F58470C2F8140504FA06F698
:1056A00004FA05F0304369B1164A174E1178CA0062
:1056B00002F1804202F5F8328C40C2F810752043A6
:1056C000C2F814659B0003F1804303F5F83301220F
:1056D000D3F80018AA400A43C3F80028064BC3F8C1
:1056E0000405F0BDD50F002004F001401841014031
:1056F00000400140D80F002000F00140D60F0020EC
:1057000010110040D70F002000A00040F0B5294B39
:10571000294E1878294B1A78012404FA02F304FA66
:1057200000F51D4300F51177C3004FEAC20C19BB09
:1057300003F1804303F5F833C6F80855C3F8101594
:10574000C3F8141546F827100CF1804303F5F8331D
:10575000C3F81015C3F81415194B1B789B0003F1FF
:10576000804303F5F8330121D3F80028814022EA71
:105770000102C3F80028F0BD124A127803F18043F9
:1057800003F5F833944000212C43C6F80845C3F8CC
:105790001015C3F814150CF1804303F5F83346F8DF
:1057A0002710C3F81015C3F81415D30003F1804374
:1057B000CCE700BFD80F002000F00140D60F00203A
:1057C000D50F0020D70F0020B0B52948294D00AFD4
:1057D00000F070FDA842044636D1274800F06AFD6B
:1057E000A842044630D1254800F064FDA842044692
:1057F0002AD1234800F05EFDA842044624D1214866
:1058000000F058FDA84204461ED11F4800F052FD8A
:10581000A842044618D11D4800F066FDA04224D0DD
:105820006C4688B06A461A4BC2E90530032342F839
:10583000103F184800234FF4C251FCF741FDA54624
:105840006FF01200BD46B0BD6D4688B06A46124B7F
:10585000C2E90534032342F8103F0E4800234FF4F9
:10586000C251FCF72DFDAD46EAE70020EAE700BF94
:10587000D80F00200000AD0BD60F0020D70F00205E
:10588000DB0F0020DA0F0020D90F0020D50F0020F9
:105890000EAA0000389D000030AA000000487047A2
:1058A000101100400E4B0F491B780978012202FAB3
:1058B00001F102FA03F30B430B49097802FA01F1F3
:1058C0000B430A49097802FA01F10B4308490978A8
:1058D0008A401343074A43F00103C2F80835704772
:1058E000D80F0020DA0F0020D60F0020D70F00209D
:1058F000DB0F002000F0014038B5184B187800F09D
:10590000DFFC174B9842044627D1164B187800F05D
:10591000D7FCA042054620D1134B187800F0D0FCEC
:10592000A842044619D1114B187800F0C9FCA042D6
:10593000054612D10E4B187800F0C2FCA84204466E
:105940000BD10C4B187800F0BBFCA04205D10A4BE0
:105950001878BDE8384000F0CDBC38BDD80F002025
:105960000000AD0BD60F0020D70F0020DB0F00206A
:10597000DA0F0020D90F0020D50F0020024AD2F8FC
:105980000034002BFBD0704700E0014010B54FF011
:105990008053D3F83021102A55D14FF08041002296
:1059A000C1F80C21C1F81021C1F83825484AD3F8B4
:1059B0000404C2F82005D3F80804C2F82405D3F87B
:1059C0000C04C2F82805D3F81004C2F82C05D3F84B
:1059D0001404C2F83005D3F81804C2F83405D3F81B
:1059E0001C04C2F84005D3F82004C2F84405D3F8DB
:1059F0002404C2F84805D3F82804C2F84C05D3F8AB
:105A00002C04C2F85005D3F83004C2F85405D3F87A
:105A10003404C2F86005D3F83804C2F86405D3F83A
:105A20003C04C2F86805D3F84004C2F86C05D3F80A
:105A30004434C2F87035D1F80034DB0709D56FF073
:105A40000103C1F800344FF08053D3F83031102BEC
:105A500010D14FF08053D3F83431032B02D81D4AB4
:105A6000D35C3BB14FF01023D3F808224FF08043B2
:105A7000C3F858254FF01023D3F80022002A03DB87
:105A8000D3F80432002B22DA134901234FF01020FF
:105A9000C1F804351224FFF771FFC0F80042FFF788
:105AA0006DFFC0F80442FFF769FF0023C1F8043519
:105AB000FFF764FFBFF34F8F0849094BCA6802F430
:105AC000E0621343CB60BFF34F8F00BFFDE710BD13
:105AD00000C0004054AA000000E0014000ED00E0DA
